:100000000C94FC030C942E310C9434040C943404A2
:100010000C9434040C9434040C9434040C94340480
:100020000C9434040C9434040C94DC270C9498271E
:100030000C94D9280C9434040C9434040C94340497
:100040000C9434040C9434040C9434040C94340450
:100050000C9434040C94B5280C9434040C9434049B
:100060000C9434040C9434040C9434040C94340430
:100070000C9434040C9434040C9434040C94340420
:100080000C9434040C9434040C9434040C94340410
:100090000C9434040C9434040C9434040C94340400
:1000A0000C9434040C9434040C94340405010902B7
:1000B000A10185020901A1000509190129081500FE
:1000C0002501950875018102050109300931158165
:1000D000257F95027508810609381581257F9501D0
:1000E00075088106050C0A38021581257F95017572
:1000F000088106C0C005010980A101850319012AF4
:10010000B700150126B700950175108100C0050CD8
:100110000901A101850419012AA002150126A002E6
:10012000950175108100C00660FF0961A101096297
:10013000150026FF00952075088102096315002629
:10014000FF00952075089102C005010906A101056F
:100150000719E029E7150025019508750181029529
:1001600001750881010507190029FF150026FF0008
:100170009506750881000508190129059505750181
:100180009102950175039101C0000000000000007C
:10019000000000000000000000000000000000005F
:1001A000000000000000000000000000007E0F00C2
:1001B000D4FFFFFFC700000078000000000000002F
:1001C000002A2B28000000000000000000000000B2
:1001D0000000000029000000002C1E3420212224F1
:1001E000342627252E362D3738271E1F202122237F
:1001F0002425263333362E37381F04050607080911
:100200000A0B0C0D0E0F10111213141516171819D6
:100210001A1B1C1D2F3130232D3504050607080934
:100220000A0B0C0D0E0F10111213141516171819B6
:100230001A1B1C1D2F3130354C1E0F0500047F3F4B
:100240001F643214643214783C1E1E140A05000127
:100250000101010101010101020202020202020286
:100260000203030303030303030404040404040458
:10027000050505050506060606060707070707081C
:10028000080808090909090A0A0A0B0B0B0C0C0CCF
:100290000D0D0D0E0E0E0F0F0F1010111111121269
:1002A00013131414151516161717181819191A1AE6
:1002B0001B1B1C1D1D1E1E1F202021222223242447
:1002C000252626272829292A2B2C2D2D2E2F303183
:1002D0003232333435363738393A3B3C3D3E3F4095
:1002E0004142434445464748494A4C4D4E4F505180
:1002F0005354555658595A5B5D5E5F61626465663A
:1003000068696B6C6D6F7072737577787A7B7D7EC0
:100310008082838587888A8C8E8F91939596989A10
:100320009C9EA0A2A3A5A7A9ABADAFB1B3B5B7BA28
:10033000BCBEC0C2C4C6C9CBCDCFD1D4D6D8DBDDFC
:10034000DFE2E4E7E9EBEEF0F3F5F8FAFDFFFFAAF0
:100350007F55400102030C0D0E0F00070605040B2C
:100360000A09082223252628292A2C2D2F3032334A
:100370003536383A3B3D3E4042434547494A4C4E6C
:100380005051535557595A5C5E6062646668696B98
:100390006D6F71737577797B7D7F81838587898A9E
:1003A0008C8E90929496989A9C9E9FA1A3A5A7A8A4
:1003B000AAACAEAFB1B3B4B6B8B9BBBCBEBFC1C2D4
:1003C000C3C5C6C7C9CACBCCCDCED0D1D2D2D3D467
:1003D000D5D6D7D7D8D9D9DADADBDBDBDCDCDCDC85
:1003E000DCDDDDDDDDDCDCDCDCDCDBDBDBDADAD953
:1003F000D9D8D7D7D6D5D4D3D2D2D1D0CECDCCCBD5
:10040000CAC9C7C6C5C3C2C1BFBEBCBBB9B8B6B4F2
:10041000B3B1AFAEACAAA8A7A5A3A19F9E9C9A9882
:10042000969492908E8C8A89878583817F7D7B7953
:10043000777573716F6D6B6968666462605E5C5A34
:100440005957555351504E4C4A4947454342403EF7
:100450003D3B3A3836353332302F2D2C2A29282689
:100460002523223A003B00167C1E001F002000219D
:1004700000220023003C003D002B0014001A00085D
:10048000001500170000003E003F00390004001670
:1004900000070009000A00000040004100E100647C
:1004A000001D001B0006001900050042004300E08B
:1004B00000E200E30021522C002C00000024002563
:1004C00000260027002D002E004C002A004A001CA8
:1004D0000018000C00120013002F00300031004DF6
:1004E000000B000D000E000F003300340032002816
:1004F000004B00110010003600370038000000E506
:100500000052004E0021522C00E600E400E70000FB
:1005100000500051004F0001000100167C3A003BE2
:10052000003C003D003E003F00010001002078211A
:1005300078010052000100010000000100010001EB
:10054000000100500051004F0001000000010001B7
:100550000001000100010001000100010001000193
:10056000000100350201000100010001000100004E
:10057000004000410042004300440045004C002A76
:100580000001000100010001000100010001000163
:100590000001000100010001000100010001000153
:1005A0000001000100010001000100010001000143
:1005B0000000000100010001000100010001000134
:1005C0000001000000010001000100010001000124
:1005D0000001000100010001000100010001000113
:1005E0000001000100010001000100010000000104
:1005F00000010001000100010001000100010000F4
:1006000000010001000100010001000100010001E2
:1006100000010001000100010001000100010001D2
:1006200000010000000100010001000100010001C3
:1006300000010001000100010001000100010001B2
:1006400000010001000100010001000100010001A2
:100650000001000100010001000100010001000192
:100660000001000100000001000100010001000183
:100670000001000100010000000100010001000173
:100680000001000100010001000100010001000162
:100690000001000100010001000100010001000152
:1006A0000000000100010001000100010001000143
:1006B0000001000000010001000100010001000133
:1006C0000001000100010001000100010001000122
:1006D0000001000100010000000100010001000113
:1006E0000001000100010001000100010001000102
:1006F00000010001000100010001000100010001F2
:1007000000010001000100010001000100010001E1
:1007100000010001000100010000000100010001D2
:1007200000010001000100010001000000010001C2
:100730000001004E004B00A900AA0021782278ABEE
:1007400000AC00237824782578267829782A782721
:1007500078287809025B00030100A0FA0904000070
:1007600001030101000921110100012240000705D8
:1007700081030800010904010002030000000921AF
:100780001101000122220007058203200001070554
:1007900003032000010904020001030000000921F5
:1007A00011010001227B00070584032000011201D2
:1007B00000020000000810CB5733100301020001B3
:1007C00022035100750065006600720065006E002E
:1007D0006300790020005200650076002E002000A2
:1007E000330000000E034B006500650062006900E5
:1007F0006F0000000403090411241FBECFEFDAE0EC
:10080000DEBFCDBF04B603FE18C08091E203909115
:10081000E303A091E403B091E5038730904BA74038
:10082000B04B59F41092E2031092E3031092E403E8
:100830001092E503E0E0F8E3099523E0ACEFB1E0C6
:1008400001C01D92A23EB207E1F711E0A0E0B1E0C5
:10085000E8E7F9E602C005900D92AC3FB107D9F781
:100860000E9400290C9451340C940000482F2091D0
:10087000DE039091A50357E0291302C080E008959C
:1008800030E0529FF001539FF00D1124EA55FC4FC8
:100890008181681306C08081481303C0858181115E
:1008A000EECF2F5F3F4F2770E7CFE8EDF0E080817C
:1008B0008E7F80831092E2001092DA001092E100A5
:1008C000A0EEB0E08C9181608C9380818F778083E3
:1008D00019BCA7EDB0E08C918E7F8C9380818F7EC8
:1008E000808310928E0308952091E4003091E500FA
:1008F00095E6A9012091EC00822F817020FF06C0AF
:100900008091E80080FF06C080E008952091E80013
:1009100022FD1AC080919B03882389F0853089F0DD
:100920008091EB0085FD0FC02091E4003091E5003F
:1009300042175307F9F29150E1F684E0089582E0FE
:10094000089583E0089581E0089580919D0387FFD5
:1009500013C08091E80082FF06C08091E8008B7789
:100960008093E80004C080919B038111F2CF089529
:1009700080919B038823D9F38091E80080FFF8CF12
:100980008091E8008E77ECCF982F9093E900242F88
:10099000762F50E0891731F07091EC002091ED0036
:1009A0005091F00021FD07C09F5F973071F7809351
:1009B000E90081E008953091EB003E7F3093EB0039
:1009C0003091ED003D7F3093ED003091EB003160D0
:1009D0003093EB007093EC002093ED005093F00007
:1009E0002091EE0027FDE0CF80E00895B0E0A0E088
:1009F000ECEFF4E00C945432C8EDD0E088818F7EA7
:100A00008883E7EDF0E080818160808384E082BFAD
:100A100081E080938E0388818E7F888302EE10E0D0
:100A2000F80110821092DA0081EEC82ED12CF60166
:100A3000108288818F778883888180688883888105
:100A40008F7D888319BC10929B0310929C03109297
:100A50009A031092990390EEE92EF12CF701808110
:100A60008B7F808388818160888342E060E080E0C2
:100A70000E94C404F60180818E7F8083F80180810A
:100A800081608083808188608083F70180818E7F90
:100A90008083888180618883CDB7DEB7E8E00C94DD
:100AA0007032FC018091A3039091A40386179707ED
:100AB000A0F06115710529F49091E8009E7790935C
:100AC000E80090E06115710551F4911108C0809122
:100AD000E80082FF34C080E00895BC01F2CF80912D
:100AE0009B038823C1F18530C1F18091E80083FD2B
:100AF00030C08091E80082FDEACF8091E80080FF5D
:100B0000E1CF8091F3002091F200382F611571053B
:100B100019F02830310558F091E02830310509F0FE
:100B200090E02091E8002E772093E800CBCF8191D0
:100B30008093F100615071092F5F3F4FE7CF8091A3
:100B40009B03882341F0853041F08091E80083FFCA
:100B5000BECF81E0089582E0089583E008958091FA
:100B6000900308959C014FB7F89480918A03909167
:100B70008B03A0918C03B0918D034FBF821B930B0D
:100B800008952FB7F89460918A0370918B03809138
:100B90008C0390918D032FBF08952FB7F894809107
:100BA0008A0390918B03A0918C03B0918D032FBF8A
:100BB00008959C01FC0132969FEF80E04191461719
:100BC00051F09F3F19F4411101C0982F8F5F86307B
:100BD000A9F79F3F09F40895290F311D97FD3A9514
:100BE000F90162830895A3E0B0E0E9EFF5E00C9429
:100BF0005A32209187033091880328173907A1F0D2
:100C00009093880380938703E0918503F091860396
:100C1000309751F024E029839B838A830680F781F3
:100C2000E02DCE01019609952396E2E00C947632F0
:100C3000A3E0B0E0EEE1F6E00C945A322091830399
:100C40003091840328173907A1F09093840380938F
:100C50008303E0918503F0918603309751F023E000
:100C600029839B838A830680F781E02DCE0101963C
:100C700009952396E2E00C947632FC01680F791F07
:100C80008FEF91E32191822728E030E087FF09C0B0
:100C9000880F892721503109C9F7E617F70791F71F
:100CA0000895880FF7CF8F929F92AF92BF92EF92E5
:100CB000FF920F931F93CF93DF938430B8F5811188
:100CC00036C0909180009F77909380002D98A091DE
:100CD0008600B0918700282F30E00E94423423E044
:100CE00030E040E050E00E94203489019A01809178
:100CF0008600909187006CE070E00E949D32601742
:100D00007107D8F0C80169E070E00E949D327093CD
:100D1000890060938800DF91CF911F910F91FF9020
:100D2000EF90BF90AF909F908F90089583E0909147
:100D30008000906890938000CACF80918600909147
:100D40008700E0908600F0908700E0918600F091A7
:100D50008700C6E0D0E0BE010E949D32060F171F3B
:100D6000211D311D4801590185E0880C991CAA1CE0
:100D7000BB1C8A95D1F7C701BE010E949D329F011D
:100D800050E040E0260F371F411D511DC501B40141
:100D90000E94203449015A01E0918600F0918700B9
:100DA000CA01B9010E9481329B01AC01DF010E949E
:100DB0000D349B01AC01C501B4010E9481322FE0CA
:100DC00096958795779567952A95D1F70091860036
:100DD0001091870030E020E0061717072807390731
:100DE00008F095CF609186007091870090CF282FF2
:100DF000220F220F220F909182039770922B9093D3
:100E00008203987F21E009F420E09091820320FB87
:100E100090F9909382030E9453060895FA0181117C
:100E200001C0FB01099508950895E4EFF2E01182F5
:100E3000828184608283089580917A03982F9E7FB7
:100E400029F48170826080937A0308958635E8F3EF
:100E500081708465F8CFAF92BF92DF92EF92FF92DC
:100E60000F931F93CF93DF93082F162FE901E42FE1
:100E7000F0E0E25BFD4F611110C0E4915E2F4E2F58
:100E80004983E8835A83DF91CF911F910F91FF909F
:100E9000EF90DF90BF90AF900895E62EF12C449133
:100EA000D42EE42FF0E026E0829FC00111242FEF22
:100EB00030E0B9010E949D32802F90E0880F991F89
:100EC00055E5569FD001579FB00D11248A1B9B0BEF
:100ED000982F990F890F5901AE18BF08AE9ED00107
:100EE000AF9EB00DBE9EB00D11245B2F189F8001E8
:100EF0001124012F11275901A01AB10AAE9E8001B9
:100F0000AF9E100DBE9E100D11245901A81AB108F4
:100F1000AE9CC001AF9C900DBE9C900D1124892FFA
:100F20009927281B390B2E9FC0012F9F900D3E9FA4
:100F3000900D1124E92F62307105A1F050F4611574
:100F4000710509F49DCF6130710581F0EB2F512FB0
:100F500097CF6430710569F080F06630710509F44F
:100F60008FCFF4CFE42F4B2F592F8ACFE42F412F6F
:100F700087CFEB2F542F492F83CF4B2F5D2DE12FA0
:100F80007FCF0E94CD059C019091EA028091EB02F7
:100F9000982B21F03093E7022093E6029091EC0227
:100FA0008091ED02982B21F03093E5022093E4022A
:100FB000E0918503F0918603309749F082E08093B9
:100FC000E8020480F581E02D88EE92E0099508950D
:100FD0008091E30280FD16C081FD16C082FD16C01F
:100FE0008091E2028823A1F0883280F428E0829F79
:100FF000C001112468E270E00E94B132862F672B95
:1010000039F0089582E0089584E0089588E0089515
:1010100081E008958091E30280FD14C081FD14C039
:1010200082FD16C08091E102882381F08E3180F428
:1010300020E5829FC00111246EE170E00E94B13270
:10104000862F089584E1089588E2089588E0089540
:1010500080E5089580E00895F894E82FE295EF7018
:10106000F0E031A1282F2F7081E090E001C0880FBF
:101070002A95EAF7982F9095932391A392A1892B13
:1010800082A3789408959091A90292FF06C0282F18
:1010900028712830F9F4877F846093FF06C0282FD9
:1010A00028712831F1F4877E84612091AA0220FF03
:1010B00006C0382F38713830D9F4877F816021FF1E
:1010C00006C0282F28712831D1F4877E816194FDD4
:1010D000877E0895282F24712430F9F68B7F88604D
:1010E000DCCF282F2471243101F78B7E8861DDCF7E
:1010F000382F3171313019F78E7F8860E0CF282F7B
:101100002171213121F78E7E8861E1CF82389105EE
:10111000B9F1B0F48133910509F47DC048F4893206
:10112000910509F46DC08A32910509F47BC00895D8
:101130008533910509F45FC08933910509F108955C
:10114000833E9105D9F138F4803E910529F1823E24
:10115000910579F10895863E9105D9F1873E910573
:1011600009F43EC0843E910541F52091AA0221FF79
:1011700024C08091A90284FD19C087EE90E00895F3
:101180002091A902237009F05AC02091AA0223FFDE
:1011900014C089E290E008952091A90220FD38C092
:1011A0003091AA0230FF09C024FF43C090E080E0E4
:1011B00008952091A90222FDF7CF08952091A90258
:1011C00022FD3AC03091AA0230FD39C024FFF5CF8C
:1011D000EDCF2091A90223FFF0CF24FDE7CFCDCFA3
:1011E0002091A90223FD2EC03091AA0231FFEECF3B
:1011F00084EE90E008952091A90225FFDECFC9CFAB
:101200002091A90225FD21C02091AA0223FFD5CF5C
:1012100089E390E0D2CF2091A90226FFCECF8AE2C7
:1012200090E008952091A90226FFC7CF81E390E0C6
:10123000089583EE90E0089582EE90E0089580EEA8
:1012400090E0089586EE90E0089585E390E008959B
:101250001F93CF93DF930E948608EC01C11580E5B0
:10126000D807F0F5C11580E4D80708F09CC0C03E4F
:10127000D10520F5CD3CD10508F082C0C83AD10592
:1012800078F4C53AD10508F073C0C130D10519F121
:10129000209709F1C430D105F0F4D0E0C0E01BC0C4
:1012A000C33CD105D0F7C85AD0E0CC0FDD1FC658DB
:1012B000DE4F0990D881C02DD4640DC0C11580E2E5
:1012C000D80708F0D1C0C11581E0D80708F05AC08E
:1012D000C83ED10510F7CE01DF91CF911F9108953F
:1012E000C03682E5D80718F5C03482E5D80708F083
:1012F0006BC0C03282E5D80708F05FC0C11582E537
:10130000D80708F497C02C2F2695269580E2289FB1
:10131000900111248C2F8370C1E0D0E002C0CC0F6B
:10132000DD1F8A95E2F7C22BD32BDD68D4CFC03AFC
:1013300082E5D80760F4C03882E5D80708F459C0C0
:10134000CF71D0E0DC2FCC27C46FD06AC4CFC03CB3
:1013500082E5D80708F462C0C03E82E5D80708F0ED
:101360009CCFDC2FCC27CC27DF71C06FD06AB3CFE6
:10137000C55AD0E0C958DE4FC881D0E0D064ABCFA9
:10138000D065A9CF8D2F0E944308182FCE01992731
:101390000E948608C12FD0E0DC2FCC27CC27DF713C
:1013A000C82BD92B98CFCE0199270E948608CC272D
:1013B000DF70C82BD92BD06A8ECFCF71D0E0DC2F55
:1013C000CC27C16FD06A87CF2C2F26952695277002
:1013D00080E2289F900111248C2F8370C1E0D0E01F
:1013E00002C0CC0FDD1F8A95E2F7C22BD32BDC683D
:1013F00072CF2C2F26952695277080E2289F90018A
:1014000011248C2F8370C1E0D0E002C0CC0FDD1F0F
:101410008A95E2F7C22BD32BDA685DCF8C2F8F71C0
:101420000E944308C82FD0E0DC2FCC27CC27DF71E7
:10143000D06251CF8C2F8F710E94430855E0D69512
:10144000C7955A95E1F7CF70D0E0DC2FCC27282F35
:1014500030E084FF05C044E0220F331F4A95E1F7D6
:10146000C22BD32BD06937CF8D2F8F710E944308A9
:10147000182FCE0199270E948608C12FD0E0DC2FBB
:10148000CC27CC27DF71C82BD92BD2CF8095909158
:10149000410298239093410208958091DE03909138
:1014A000A503981301C008958F5F8770FACFA82F06
:1014B000A77023E0969587952A95E1F7FC01EE0F3A
:1014C000FF1FE80FF91FE60FF71F50E040E080E034
:1014D000219130E00A2E02C0369527950A94E2F752
:1014E00021703327042E01C0220F0A94EAF7822BC1
:1014F0004F5F5F4F4330510559F70895292F9A30B8
:1015000068F4893090F490E06BE072E039E0239F5A
:10151000800D911D11240E94570A08952C5F2230DE
:1015200020F468E072E090E0F6CF80E00895262F86
:10153000277091E001C0990F2A95EAF723E076958C
:1015400067952A95E1F7FB01EE0FFF1FE60FF71FE6
:10155000E40FF51F50E040E0682F70E08191DF015B
:1015600011979B01042E02C0369527950A94E2F745
:10157000217021952827292328272C934F5F5F4F1F
:101580004330510559F70895282F862F9A3070F46B
:10159000293058F4622F70E029E0929F600D711D90
:1015A00011244BE052E00E94970A08959C5F92300C
:1015B000E0F7622F70E048E052E0F5CF8093A80298
:1015C00008959091A80221E030E0F90101C0EE0FEA
:1015D0008A95EAF7D90102C0AA0FBB1F6A95E2F704
:1015E000EA2B01C0220F4A95EAF7892F8E23E813D0
:1015F00005C0292B822F0E94DE0A089520952923F9
:10160000F9CF21E030E001C0220F8A95EAF720955A
:101610008091A80282230E94DE0A089590913602EA
:101620008095892380933602282F277069F48917C3
:1016300059F09091AA0292FF07C0869586958695EB
:101640000E94010B10923602089521E030E001C0A3
:10165000220F8A95EAF78091A802822B0E94DE0A67
:101660000895809342020895662309F45DC08D3C7D
:1016700041F40E940A0881958093EB020E94C10701
:1016800008958E3C19F40E940A08F6CF8F3C31F47D
:101690000E940A0881958093EA02F0CF803D19F4F8
:1016A0000E940A08F8CF893D29F40E94E807809338
:1016B000EC02E4CF8A3D21F40E94E8078195F7CF40
:1016C0008B3D31F40E94E80781958093ED02D6CFDF
:1016D0008C3D19F40E94E807F8CF9FE2980F9830EC
:1016E00070F4815D990B21E030E001C0220F8A95F2
:1016F000EAF78091E902822B8093E902BFCF8D3D0A
:1017000031F48091E30281608093E302B7CF8E3D94
:1017100021F48091E3028260F7CF8F3D09F0AECFD4
:101720008091E3028460F0CF4091EA028D3C59F44D
:101730008091EB0287FF0DC01092EB0241110BC0AC
:101740001092E10208C08E3C81F48091EB021816E1
:101750009CF3442381F08091EC029091ED02892B5F
:1017600009F08CCF1092E20289CF8F3C49F447FFF9
:10177000F0CF1092EA028091EB028111ECCFE0CF22
:10178000803D19F41416ACF3E4CF9091EC02893D3E
:1017900029F41916F4F61092EC02DBCF8A3D19F405
:1017A00097FFD7CFF8CF9091ED028B3D29F497FFAB
:1017B000D0CF1092ED02CDCF8C3D19F41916CCF399
:1017C000C8CF9FE2980F983090F4815D990B21E08B
:1017D00030E0B90102C0660F771F8A95E2F7CB01AE
:1017E00080959091E90289238093E902B2CF8D3DE3
:1017F00031F48091E3028E7F8093E302AACF8E3D85
:1018000021F48091E3028D7FF7CF8F3D09F0A1CFC6
:101810008091E3028B7FF0CF90914A01992319F0D8
:1018200081FD03C02E9A81E008952E98FCCF0F937E
:101830001F93CF93DF938B01EA0190919B03943028
:1018400061F58093E9008FEF9091E800815095FD5C
:1018500006C095ED9A95F1F700008111F5CF8091C2
:10186000E80085FF1AC00E947404811111C08091A4
:10187000E80085FD06C08091E8008E778093E8003F
:10188000F2CFF80181918F018093F100219779F7D0
:101890008091E8008E778093E800DF91CF911F91CF
:1018A0000F91089543E050E0BC0184E00E94170CC2
:1018B000089546E050E0BC0184E00E94170C0895B2
:1018C000CF93DF93EC0148E050E0BC0181E00E943F
:1018D000170C88E0FE01A1E9B3E001900D928A9512
:1018E000E1F7DF91CF91089581E08093E00080E2FD
:1018F0008093D8001092C9008FE19EE40197F1F720
:1019000000C0000087E090EBDC018093E20390933D
:10191000E303A093E403B093E50388E19CE00FB6F2
:10192000F894A895809360000FBE90936000FFCF5D
:10193000CF92DF92EF920F931F93CF93DF93CDB7A8
:10194000DEB7E0970FB6F894DEBF0FBECDBF609153
:10195000640180917A0380FF4BC0E3E5F3E09E01D0
:101960002F5F3F4F8E010F5C1F4FC901A4914A2F7B
:1019700050E0DA01AA0FBB1FA40FB51FA650BD4F40
:10198000CD90DD90EC90D901CD92DD92ED929D014C
:101990003196A017B10751F72091630143E0249FCE
:1019A000800D911D11246E9A2EB12F7B3EB13064B3
:1019B0005FB7F894FC01649FE00DF11D1124BF0195
:1019C0008617970741F55FBFEFE5F4E03197F1F730
:1019D00000C00000E0960FB6F894DEBF0FBECDBF8A
:1019E000DF91CF911F910F91EF90DF90CF900895ED
:1019F000809165019091660123E0829FF00111249E
:101A0000E650FD4F891708F0A8CF1182108212828C
:101A10008F5F3396F7CFDC014D91CD01E8E03EB901
:101A2000000000C047FF2EB9440F000000C000C0F6
:101A300000C02EB900C0EA9591F7C2CF0F931F9353
:101A4000CF93DF93EC0110E000E0909167019017D5
:101A5000110609F06CF40E94980C8C8190E00196BC
:101A6000817099278C83DF91CF911F910F910895F9
:101A700020916501A801420F511D9A01220F331FC9
:101A8000240F351F26503D4F4C8160917C0380917F
:101A90007B0396959017110651F04CF0442349F0C2
:101AA00040917D030E942B070F5F1F4FCECF442331
:101AB000B9F340E0F7CFB0E0A0E0E1E6FDE00C9440
:101AC0005032EC014C81042F10E09801D8010E94A3
:101AD00042349B01AC010E940D344B015C01E0E2F9
:101AE000F0E0E01BF10BA5E5B0E0AC019B010E942A
:101AF0000D346B017C019F01DF010E94D2329B01FA
:101B0000AC010E9418349B01AC01280D391D4A1DFF
:101B10005B1DC701B6010E942034F22E822F90E097
:101B200039E23F1520F143E0249F900111243595BF
:101B30002795122F109500E085E5E82EEF1880918B
:101B40006701081718F10E94980C9C8181E0992385
:101B500019F0903219F48FEF809362018091620145
:101B6000890F8C83CDB7DEB7ECE00C946C3225E5A1
:101B700030E0B901681B790B9B01220F331F260F40
:101B8000371F37FFD4CF2F5F3F4FD1CF8E2D01FDB1
:101B90008F2D20916501622F600F7727771F9B01A2
:101BA000220F331F260F371F26503D4F412F6091C4
:101BB0007C030E942B070F5FC2CFEF92FF920F931F
:101BC0001F93CF93DF93EC018C81811109C081E0D9
:101BD0008C831092F80292E09093610180936001EF
:101BE000809165019091660123E0829FF0011124AC
:101BF000E650FD4F891758F110E003E0609167014E
:101C0000161758F10E94980C809160012091F802FB
:101C1000280F2093F80290916101980F9093610131
:101C2000191654F4022E000C330B409167014150F9
:101C3000550B2417350734F081958093600181306E
:101C400009F41C82CDB7DEB7E6E00C947232118243
:101C5000108212828F5F3396CDCFE12EF12C70E08F
:101C6000C7010E94B13220916501820F482F50E0D8
:101C70002091F802022E000C330BE216F306BCF0A2
:101C800020916101022E000C330B2E153F057CF0D4
:101C9000809F9001112426503D4F40917D0360911B
:101CA0007C0380917B030E942B071F5FA7CFFA0163
:101CB000EE0FFF1FE40FF51FE650FD4F118210825B
:101CC0001282F3CFB0E0A0E0E8E6FEE00C945132DF
:101CD000EC018A81BB24BA9480FD02C0BB24B3947A
:101CE000A09067018C81811109C081E0B8121EC0EB
:101CF0008FEF8A0D8093F70281E08C83F12CE12C29
:101D0000EA14B8F00E94980C8091F70291E0B912A1
:101D100054C081114DC08091670181508093F702BA
:101D20001C82CDB7DEB7EBE00C946D321092F70257
:101D3000E3CF009165010E0D1F2D111DC801880F05
:101D4000991F080F191F06501D4FF80111821082AC
:101D5000128234E0C32ED12C912C8091F702890D90
:101D6000813114F18F70082E000C990B8E159F0590
:101D700091F480917D038C9DA0018D9D500D1124C7
:101D80005595479555954795980160917C038091AD
:101D90007B030E942B079B0CF1E0CF1AD108E9F6D8
:101DA0008FEFE81AF80AACCF87FFDDCF8A0DDBCFC3
:101DB00081508093F702BC82B4CF90E0019660918D
:101DC000670170E00E94B1328093F7028C83A9CF43
:101DD000EF92FF921F93CF93DF93EC0110E0EE247C
:101DE000EA94F12C60916701161770F00E94980C2C
:101DF0009A818C8190FF27C08F5F8C83DF91CF9178
:101E00001F91FF90EF90089520916501422F410F9F
:101E10005527551FCA019A01220F331F280F391F5A
:101E200026503D4F70E0C7010E94B132962F8C8141
:101E300040917D0360917C03199F800D11240E94C5
:101E40002B071F5FCFCF8150D8CF90917A0390FF9F
:101E50000EC0909165012091660133E0939FF001DF
:101E60001124E650FD4F921718F00E94980C089527
:101E70008183608342839F5F3396F5CFA3E0B0E018
:101E8000E4E4FFE00C9458328C018091F902811156
:101E90000AC09E012F5F3F4F4FEF6FEF0E942B074D
:101EA0008A818093F902F8016481613069F0809140
:101EB000F90240E0662361F040E0623011F44091A5
:101EC000F90280E060E004C06091F90240E080E047
:101ED0000E94250FF801848190E0019663E070E094
:101EE0000E94B13284832396E4E00C947432A3E020
:101EF000B0E0EDE7FFE00C945A3290917A0390FF46
:101F00000AC09E012F5F3F4F0E942B074B816981C2
:101F10008A810E94250F2396E2E00C947632CF93BB
:101F2000DF93EC01EAE7F3E0438162818C810E9458
:101F3000770F8C818F5F8C83DF91CF910895CF9342
:101F4000DF93EC01EC81F0E0ED59FC4F4491EAE7BE
:101F5000F3E0628181810E94770F8C818F5F8C8397
:101F6000DF91CF910895EAE7F3E080818E7F80834F
:101F70000E941507E4EFF2E08281816082830E9473
:101F8000980C0895B0E0A0E0E8ECFFE00C94523229
:101F90007C015B016A0180918B0201E010E08A30D4
:101FA00010F40AE010E0C1E0D0E0B501C701F6018D
:101FB0000995811104C021960C171D072CF4CDB78B
:101FC000DEB7EAE00C946E32CC9F9001CD9F300DCD
:101FD000300D112490E080E045E34A95F1F70000D0
:101FE000019682179307C1F7E0CF80914F028111CC
:101FF00010C08091D80080618093D8008AE18A95D2
:10200000F1F700C08091D90080FF0AC081E0809381
:102010004F0281E090914F02913009F080E00895E5
:1020200082E080934F020E94550410929B03F1CFEF
:102030000E94F50F882359F0E0918503F091860303
:10204000309729F00190F081E02D0995089580E006
:1020500008950F931F930E94F50F882329F00E9483
:10206000C1051F910F9108950E94C10500918C0236
:1020700010918D0220918E0230918F02600F711F9E
:10208000821F931FEECF0E94291008950E94F50F22
:10209000882319F00E94CD0508950E942910CB01D4
:1020A0000895CF93DF93C9E1D3E060E0CE010E94B1
:1020B000BA332196C11584E0D807B9F7DF91CF91E3
:1020C00008950F931F93CF93DF93142F022F843023
:1020D00020F5623010F598E0899FE001112484E03A
:1020E000689FB0011124C60FD71FC750DD4F82E093
:1020F00090E0442311F090E080E0632F8C0F9D1F4F
:102100000E94BA3383E090E0112311F081E090E067
:10211000602F8C0F9D1F0E94BA33DF91CF911F91CA
:102120000F9108951F93CF93DF93122F8430E0F423
:102130006A30D0F44930C0F4C42FD0E0CC0FDD1F9A
:1021400092E1699FC00DD11D112494EB899FC00DB0
:10215000D11D1124632FCE0189960E94BA33612FBD
:10216000CE018A960E94BA33DF91CF911F910895D4
:10217000B0E0A0E0EEEBF0E10C94503283E3E82E07
:1021800087E0F82E03E614E0C0E05801D0E015C067
:10219000F401259134914D2D6D2F8C2F0E949210BA
:1021A00082E0880E911CD39489E0D812F1CF82E1AD
:1021B000A80EB11CDF5FDA3019F04501D12CE8CF51
:1021C0006701D0E0F6012591349141E06D2F8C2F0D
:1021D0000E946110F60132962591349140E06D2FF6
:1021E0008C2F0E94611084E0C80ED11CD13071F494
:1021F00088E0E80EF11CCF5F0C541F4FC43009F08B
:10220000C4CFCDB7DEB7ECE00C946C32D1E0DACFBE
:10221000CF93C82F6FEF811162E285E290E00E94B8
:10222000BA336FEFC11163E086E290E00E94BA33E7
:102230006FEFC11160E187E290E00E94BA33CF9165
:10224000089580E00E94081160E088E290E00E941A
:10225000BA330E94B8100E94511081E00E94081108
:102260000895682F86E090E00E94BA3308950E9496
:10227000F706809182030E943111089580918203B4
:1022800080FF08C08E7F809382030E94311180E01E
:102290000E94530608958091820380FD13C08160DF
:1022A00080938203813019F489E0809382038091C6
:1022B00082030E94311180918203869586958695CE
:1022C0000E9453060895FF920F931F93CF93DF93BD
:1022D000F42E843070F5623060F528E0829F800132
:1022E000112434E0639FB0011124060F171F07501B
:1022F0001D4F82E090E0442311F090E080E0800FD9
:10230000911F0E949633C82FD0E0DC2FCC2783E0AA
:1023100090E0FF2011F081E090E0800F911F0E947B
:1023200096339E01282BC901CDB7DEB7E5E00C94AA
:10233000733290E080E0F8CF0F931F93CF93DF9339
:10234000843030F56A3020F5493010F5C42FD0E0E4
:10235000CC0FDD1F22E1629FC00DD11D112434EB93
:10236000839FC00DD11D1124CE0189960E94963302
:10237000082F10E0102F0027CE018A960E94963376
:102380009801282BC901DF91CF911F910F910895DA
:1023900090E080E0F8CF7A3048F4693070F484300F
:1023A00060F4462F672F0E949C1108957D3F41F4F1
:1023B000623018F441E0843050F090E080E00895FD
:1023C0007C3FD9F76230C8F78430B8F740E00E940C
:1023D00063110895CF92DF92FF920F931F93CF93D3
:1023E000DF936C010091A80280914202082BC3E0A8
:1023F000D0E010E0FC2EC8010C2E02C09595879508
:102400000A94E2F780FD0CC02197A0F7F12C8F2DE4
:10241000DF91CF911F910F91FF90DF90CF900895A2
:10242000B6018C2F0E94CB110E942809019761F3FD
:10243000EECFCF93DF93EC010E94EA11BE010E9420
:10244000CB110E942809DF91CF910895FC012481CE
:102450002223C1F0808191810E94191292959F7070
:10246000963091F058F4925F9F70923058F4803F0C
:1024700019F030F4883E30F481E008959A5FF4CF8B
:10248000843FD1F380E00895883EB0F3813FD1F7D7
:10249000F3CFA6E0B0E0EFE4F2E10C9459324983C7
:1024A0005A8349815A819923A1F0222391F0CA01CC
:1024B0000E94EA11182F682F89819A810E94C40A0C
:1024C00069817A81812F0E94CB112696E3E00C94DA
:1024D0007532CA010E947E0A182FF2CF85E290E081
:1024E0000E949633823289F486E290E00E9496330D
:1024F000833059F487E290E00E94963391E0803176
:1025000009F090E0892F8170089580E0FCCFB0E061
:10251000A0E0EDE8F2E10C944C32FC0162804480D2
:1025200081E08483E3E6F3E07490E2EEF3E0E4918B
:10253000C0917D03C695C158D0E0CC0FDD1FCD2FD3
:10254000DD27812C75E0972EAA24AA94B12C55245E
:102550005A94E719EE2EF12C80916701881638F015
:102560000E94980CCDB7DEB7E0E10C946832C82C1D
:10257000D12C82E0861568F09C9CF0019D9CF00DAA
:102580001124E65DFC4F80917B03808380917C0366
:102590008183411023C09C9CF0019D9CF00D11246F
:1025A000E65DFC4F1382128220916501C601820F05
:1025B000911D9C01220F331F280F391F26503D4FBC
:1025C0009C9CF0019D9CF00D1124E65DFC4F428126
:1025D000618180810E942B078394BECF9C9C8001E7
:1025E0009D9C100D1124065D1C4FF80183818823EA
:1025F000F1F081508383859DC0011124648170E0D6
:102600000E949D32FB01FF27ED59FC4F8491E82F7A
:10261000E719E59DC0011124B7010E949D32809108
:102620007D03689FB0011124F8017283BDCF0E9421
:102630006333B5010E94B1328C179D070CF0B4CF03
:10264000F2E0F61598F40E946333B5010E94B132AE
:10265000F80180830E94633320917C032695622FCA
:1026600070E00E94B132280FF80121839C9CF00198
:102670009D9CF00D1124E65DFC4F128280917D033C
:10268000893C58F088EC9C9CF0019D9CF00D112435
:10269000E65DFC4F8483838387CF8431A0F784E198
:1026A000F2CF60917A03669570E04BE050E085E5EB
:1026B00091E00E947333892B19F481E08093F50235
:1026C0000E9446109093EF028093EE028091F602F2
:1026D00084608093F6020895B0E0A0E0E2E7F3E1C1
:1026E0000C94503249015A016B017C010E941C0775
:1026F0008401A4016A2D7B2D88E090E00E94CC33F8
:1027000094014A2D5B2DB601C70100E20E94FC3204
:10271000622F84E290E00E94BA33CDB7DEB7ECE0DE
:102720000C946C32A3E0B0E0E8E9F3E10C9453328E
:10273000082FE62EF42EC22E90917A0390FF40C00F
:1027400020917B03281308C080917C03861304C06A
:1027500080917D03841729F08091F6028260809336
:10276000F602E92FE695AE2FB0E0AE53BE4F8C9146
:102770008093F4029E7F923039F59E012F5F3F4F88
:102780004F2D6E2D802F0E942B074B8169818A81EE
:102790000E94250F00937B03E0927C03F0927D035F
:1027A000CC2071F020917A0360917E0370917F03B9
:1027B000302FA70180918003909181030E946C13B8
:1027C0002396E9E00C946F32823019F4F0907D0387
:1027D000E1CF8630A1F1893091F18931D9F6E95103
:1027E0006E2F6170B62EE695F0E0E25BFC4F14911F
:1027F000D12C60916701D61618F00E94980CCACFB0
:10280000D19EC001112470E00E949D32802FB11032
:1028100014C0860F20916501622F6D0D7727771FF9
:102820009B01220F331F260F371F26503D4F4F2D80
:102830006E2D0E942B07D394DCCF861BEBCF022F8B
:10284000A9CFEAE7F3E0438121E1421B08F440E02D
:1028500021E0628181810E9492130895EAE7F3E00A
:10286000438121E1420F08F44FEF21E06281818131
:102870000E9492130895EAE7F3E0628121E1621B6E
:1028800008F460E021E0438181810E949213089561
:10289000EAE7F3E0628121E1620F08F46FEF21E0E3
:1028A000438181810E9492130895EAE7F3E08181D8
:1028B00021E04381628188500E9492130895EAE7E3
:1028C000F3E0818121E043816281885F0E9492135D
:1028D000089580917E03882319F0815080937E03B0
:1028E00020917A0330917B0340917C0350917D03CA
:1028F00060917E0370917F038091800390918103AA
:102900000E946C13089580917E03833018F48F5FCA
:1029100080937E0320917A0330917B0340917C0366
:1029200050917D0360917E0370917F0380918003BD
:10293000909181030E946C13089590917A0390FF07
:1029400039C09170811137C0926090937A03809161
:10295000F60281608093F602662391F020917A035B
:1029600030917B0340917C0350917D0360917E0305
:1029700070917F0380918003909181030E946C137A
:1029800060917A03669570E04BE050E085E591E058
:102990000E947333892BB1F00E94150781E0809368
:1029A000F10220E040917D0360917C0380917B03E4
:1029B0000E94921308958B3210F09465C6CF880F51
:1029C000982BC3CF0E945113E9CF61E00E949D1460
:1029D000089580917A038695815009F48AE261E036
:1029E0000E949D14089580917A0386958F5F8B32A3
:1029F00008F081E061E00E949D14089590917A03AF
:102A000090FF08C09695981728F0961718F40E9422
:102A1000F31408950E94E5140895EAE7F3E083E0D3
:102A2000808311828FEF828383831482A4EFB2E0CC
:102A300012968C911297836012968C93758123E085
:102A400030E04FEF5FEF60E0868197810E946C136A
:102A500008958091410290914002892B8093FE015C
:102A600090913F02992391F0892B8093FE0120E001
:102A700080E092E0FC013191CF0131112F5FF2E053
:102A800086309F07B9F7211110923F0248E050E0CD
:102A900067E372E08EEF91E00E948033892BA9F00A
:102AA00088E0EEEFF1E0A7E3B2E001900D928A95A5
:102AB000E1F7E0918503F0918603309731F00280D1
:102AC000F381E02D8EEF91E009950895882321F0A0
:102AD0000E94460A0E9429150895882339F0909192
:102AE0004102982B909341020E9429150895882352
:102AF000D1F19CEF980F913A78F4E0E0F2E09191F7
:102B0000891303C0DF0111971C9292E0E630F907A8
:102B1000B1F70E942915089590E2980F983050F46B
:102B2000877091E001C0990F8A95EAF7892F0E947A
:102B3000460AEFCF9BE5980F933028F490E080E0B1
:102B40000E941806089598E5980F9B3128F490E0AC
:102B500080E00E94F305089593E3980F933118F4F1
:102B600060E00E94340B0895CF93C82F8823B1F002
:102B70008CEF8C0F813A00F5E0E0F2E086E092E025
:102B8000DF012D91C21761F08A179B07D1F76C2FD7
:102B90008EEF91E00E94D9050E942915CF910895EA
:102BA0002191C21303C0DF0111971C928E179F075A
:102BB000B9F70E942915EBCF80E28C0F883068F4BA
:102BC000C77021E030E001C0220FCA95EAF780917A
:102BD0004102822B80934102DFCFEBE5EC0FE33023
:102BE00040F4F0E0E958FE4F808190E00E94180622
:102BF000D5CFE8E5EC0FEB3150F4F0E0EE0FFF1F1E
:102C0000E658FE4F808191810E94F305C7CF83E390
:102C10008C0F833118F661E08C2F0E94340BBECFED
:102C20001F93CF93DF93182FD0E0C0E0893311F4C6
:102C3000C0E5D0E0812F0E94B415209739F4812F90
:102C40000E947715DF91CF911F9108958FE99FE042
:102C50000197F1F700C000002197EFCF0F931F936A
:102C6000CF93DF93C62FD42F022FFC0185818823B9
:102C7000A9F06093E1030E94CD059093E003809357
:102C8000DF03C77081E001C0880FCA95EAF70E9490
:102C90006D15DF91CF911F910F9108958091E10300
:102CA000681332C08091DF039091E0030E94B20567
:102CB000883C910548F510E21D0FCD17B9F080E270
:102CC0008C0F883040F4C77081E001C0880FCA952E
:102CD000EAF70E946615183048F481E09D2F97703E
:102CE00001C0880F9A95EAF70E946D15802F0E9407
:102CF0001016183070F6D77081E001C0880FDA9591
:102D0000EAF70E946615C5CFC77081E001C0880F41
:102D1000CA95EAF7F6CF9091AA0292FB222720F9F2
:102D2000281779F080FB92F99093AA026091A9028A
:102D30007091AA0284E090E00E94D83382E00E9461
:102D40000E0B089590E080E00E94A433863E9E4FD3
:102D500019F40E946E12089580E00895CF931092A6
:102D60004102C6E0E0E0F2E0DF018C2F1D928A957F
:102D7000E9F790E080E00E94180690E080E00E9471
:102D8000F305109240020E942915E8EEF2E0DF01FF
:102D90001D92CA95E9F71092E1021092E202109298
:102DA000E3020E94C107CF910895AAE2B0E0EBEDE3
:102DB000F6E10C9459328DE993E02091F100DC01A9
:102DC0002D93CD01B3E0853A9B07B9F780919E031F
:102DD000833009F472C0B8F4813009F449C08230FC
:102DE00009F4B3C08091E80083FF8BC280919D03FA
:102DF00090919E039A3008F084C2E92FF0E0ED5ADA
:102E0000FB4C0C94C5328A3009F48EC08B3009F427
:102E100071C0893039F780919D03813219F7809113
:102E2000A1039091A203009711F00297D9F6809127
:102E3000E800877F8093E8008091E80082FF38C037
:102E40009091F3008091F200029731F48091F100AB
:102E5000813011F0863021F48091F100809390034D
:102E60008091E8008B778093E8000E94A504BACF98
:102E700080919D03813A09F0B5CF8091E800877F6A
:102E80008093E8008091A1039091A203892B61F4C3
:102E900068E081E993E070E00E9451058091E800CC
:102EA0008B778093E8009ECF60E090E080E0F3CFE6
:102EB00080919B038111C0CF95CF80919D03813A72
:102EC00009F090CF8091A1039091A203892B09F082
:102ED00089CF8091E800877F8093E8008091E800A7
:102EE00080FFFCCF809168018093F1008091E80021
:102EF0008E77B9CF80919D03813209F073CF809195
:102F0000A1039091A203892B09F06CCF8091E80076
:102F1000877F8093E8000E94A50480919F0380939F
:102F200068010E94AE165ECF80919D03813209F048
:102F300059CF8091E800877F8093E8000E94A50424
:102F40008091A00380938F034DCF80919D03813AA0
:102F500009F048CF8091E800877F8093E800809156
:102F6000E80080FFFCCF80918F03BECF803899F0BE
:102F7000823809F0C6C18091A1038F70873008F0B4
:102F8000C0C18093E9008091EB0085FB882780F920
:102F90001092E90006C08091990390919A039111D3
:102FA00082609091E800977F9093E8008093F10011
:102FB0001092F1008091E8008E779FC1882309F478
:102FC0008DC1823009F09DC180919F03811190C114
:102FD0008091A1038F702FEF280F263008F091C148
:102FE0008093E9002091EB0020FF82C1933031F4FF
:102FF0008091EB0080628093EB007AC19091EB00AE
:1030000090619093EB0021E030E001C0220F8A959F
:10301000EAF72093EA001092EA008091EB008860C2
:10302000EACF81116EC110919F031F778091E30059
:103030008078812B8093E3008091E800877F8093E4
:10304000E8000E94A5048091E80080FFFCCF8091F9
:10305000E30080688093E30082E0111183E08093B5
:103060009B034FC18058823008F04BC120919F03D1
:103070003091A0032C3DE3E03E07A1F583E08A8375
:103080008AE289834FB7F894DE01139620E03EE090
:1030900051E2E32FF0E050935700E49120FF03C08A
:1030A000E295EF703F5FEF708E2F90E0EA30C0F056
:1030B000C7968D939D932F5F243159F74FBF809111
:1030C000E800877F8093E8006AE270E0CE01019615
:1030D0000E9451058091E8008B778093E80011C130
:1030E000C096E7CF8091A1039091A203432F55276B
:1030F0004330510509F44AC078F54130510509F4CF
:103100007AC08BE590E0E3E5F7E04230510509F045
:10311000F8C02091E800277F2093E8002091A303C6
:103120003091A4038217930708F49C0140E0211515
:10313000310509F065C0411163C08091E80082FD4E
:10314000C9CF80919B03882329F2853019F28091A1
:10315000E80083FFF2CFBECF4132510509F43CC0F5
:103160004232510509F0CDC08330910508F0C9C045
:10317000FC01EE0FFF1FE051FE4F0190F081E02DAA
:1031800083519E4FDC018C9190E01AC0332721308F
:103190003105D1F02115310561F02230310509F0FA
:1031A000B0C0E0ECF7E0E4918E2F90E0E0ECF7E0C7
:1031B00007C0E4EFF7E0E4918E2F90E0E4EFF7E052
:1031C000009709F49EC0A5CFE4EEF7E0E4918E2FBE
:1031D00090E0E4EEF7E0F4CF8330910508F091C081
:1031E000880F991FFC01EA50FE4F0190F081E02DFD
:1031F00089E090E08ECF82E190E0EEEAF7E089CFBF
:1032000080919B03882309F465CF853009F462CF50
:103210008091E80083FD5ECF8091E80082FD8DCF34
:103220008091E80080FF83CF9091F3008091F200BD
:103230002115310519F08830910550F041E00897CB
:1032400009F040E08091E8008E778093E8006FCF2E
:1032500044914093F1003196215031090196E8CF15
:10326000803809F04EC08091E800877F8093E800A5
:1032700080919C038093F1009DCE811142C01091FA
:103280009F031230F0F58091E800877F8093E8007B
:1032900010939C030E94A504112311F084E005C043
:1032A0008091E30087FDFACF81E080939B0342E0A9
:1032B00061EC81E00E94C40442E261EC84E00E947F
:1032C000C40442E261EC82E00E94C40442E260EC89
:1032D00083E00E94C40480919B0313C080919F03EC
:1032E000813079F481E0933009F080E080939A0393
:1032F0001092E9008091E800877F8093E8000E94A7
:10330000A5048091E80083FF0AC08091E800877FD0
:103310008093E8008091EB0080628093EB00AA9696
:10332000E3E00C9475320E94AE162FEF84E39CE02C
:10333000215080409040E1F700C0000088E19CE00F
:103340000FB6F894A895809360000FBE909360002C
:10335000FFCFA8E0B0E0EFEAF9E10C944C328C0129
:10336000DC0114968C911497882309F4B8C021E0ED
:103370004C9111965C91119712966C91129713963D
:103380007C91139715969C910E9449127C01F8013B
:103390008581882309F424C69701375720383105E1
:1033A00008F036C1FFE0FE1508F489C08FEF93E006
:1033B0000E949633811183C069E1A62E63E0B62E88
:1033C000E11047C0FE01339686E0DF011D928A9529
:1033D000E9F75AE0452E7501BFEFEB1AFB0AC5016C
:1033E0000E94963389831A82882309F468C0813049
:1033F00009F079C06501E2E0CE0ED11CC7010E9440
:1034000096338A83882309F45AC09FEF980F93302C
:1034100070F5F3E0AF0EB11CC6010E9496338B83AA
:10342000882309F44CC01C82DE0111967D01F7014E
:103430002081222381F2213009F095C0918182817F
:10344000913009F052C0F2E0EF0EF11C0E9410160C
:1034500053C0A11424E0B20691F1C5010E94963335
:10346000811101C0EA943FEFA31AB30AA9CF560114
:103470008430D1F642E0E42EF12C56012FEFA21A4F
:10348000B20AC6010E949633E1E0F0E0EC0FFD1FA6
:10349000EE0DFF1D8083882391F08C3741F4E2E02C
:1034A000F0E0EC0FFD1FEE0DFF1D1082BDCF3FEFD2
:1034B000E31AF30A650187E0E816F104F1F680915A
:1034C0003602877061F0D80115968C91882339F007
:1034D0008091AA0282FF03C082E00E940E0B289610
:1034E000E0E10C94683257019FCF923049F422E01A
:1034F000E20EF11C0E94B415EFEFEE1AFE0A97CF10
:10350000933031F432E0E30EF11C0E947715F4CFD2
:10351000943021F08FEFE81AF80AEECF92E0E90E2E
:10352000F11C30E020E0B7016F5F7F4FD7011196AB
:103530004C918053990B8A30910550F021503109FC
:10354000D8F2EFE9FFE03197F1F700C00000F6CFC5
:10355000429EF001439EF00D11249C012E0F3F1F4F
:10356000842F7B01E0CFE22FF0E0E754FE4F549030
:10357000822F86958695869590E0FC01E755FE4F53
:1035800064902770712C022E02C0759467940A947F
:10359000E2F731E063227724FC01E756FE4F849086
:1035A000912C022E02C0959487940A94E2F7A1E030
:1035B0008A229924FC01E757FE4FC490D12C02C007
:1035C000D594C7942A95E2F7B1E0CB22DD246114AB
:1035D000710419F081EE0E94B4158114910419F060
:1035E00086EE0E94B415852D0E9410168114910458
:1035F00019F086EE0E9477156114710419F081EEBE
:103600000E947715C114D10409F476CF8CE21ECF45
:10361000F2E0EF16F8E7FF0609F46CC0A0F4E1143D
:1036200038E7F30689F191E0E91698E7F90681F1A8
:10363000F701E851FC47E730F10508F086C0E35A8E
:10364000FB4C0C94C532A4E0EA16A8E7FA0609F48C
:103650003DC000F1E5E0EE16E8E7FE0649F790917F
:103660008203892F8695869586958F5F8F719770D7
:10367000843008F049C0880F880F880F892B809309
:103680008203809182030EC083E00E94371117CF1E
:1036900080E0FBCF80918203982F987F79F088504B
:1036A00080938203887F91E009F490E08091820307
:1036B00090FB80F9809382030E94311180918203F4
:1036C0008695869586950E945306F9CE8091820351
:1036D000982F969596959695933040F49F5F990F05
:1036E000990F990F8770892B8093820380918203B1
:1036F0008160E0CF8091820380FF03C00E943E1171
:10370000DECE0E944B11DBCE90938203BACF26E22D
:1037100041EE61EEC8010E942E16D1CE27E245EEA1
:1037200065EEF8CF26E241EE60EEF4CF27E245EEFB
:1037300064EEF0CF26E241EE62EEECCF27E245EEFA
:1037400066EEE8CF28E241E0EBCF1092E10397016B
:1037500030572332310508F0FDC384E090E00E9429
:10376000A4339093AA028093A902F701E150F04795
:10377000E232F10520F4EC59FB4C0C94C5328091F7
:10378000A90281608093A90295C08091AA028860F5
:103790008093AA028FC08091A9028260F3CF8091AA
:1037A000A9028460EFCF8091A9028860EBCF80915D
:1037B000AA028160EDCF8091AA028260E9CF809158
:1037C000A9028061DFCF8091A9028062DBCF809166
:1037D000A9028064D7CF0E94AE168091A9028068AA
:1037E000D1CF8091A9028C60CDCF8091AA02836055
:1037F000CFCF8091A9028E7FC5CF8091AA02877F0B
:10380000C7CF8091A9028D7FBDCF8091A9028B7F08
:10381000B9CF8091A902877FB5CF8091AA028E7F10
:10382000B7CF8091AA028D7FB3CF8091A9028F7EFE
:10383000A9CF8091A9028F7DA5CF8091A9028F7B0E
:10384000A1CF0E94AE168091A9028F779BCF809165
:10385000A902837F97CF8091AA028C7F99CF809114
:10386000A90282FB992790F921E0922790FB82F927
:1038700090FB83F987CF8091AA02982F9095917041
:103880008E7F892B90FB81F983CF9091A902892F9C
:103890008F7B96FF806476CF0E94AE169091A9022E
:1038A000892F97FB87F980586DCF61E08EE090E01B
:1038B0000E94BA336091A9027091AA0284E090E05C
:1038C0000E94D8330E94AE16FACD60E0EFCF9091FF
:1038D000A902892F8F7E94FF806154CF9091A90215
:1038E000892F8E7F90FF81604DCF9091AA02892F02
:1038F000877F93FF88604CCF85E383C320917A0351
:1039000020FF1DC02E7F20937A0330917B034091CE
:103910007C0350917D0360917E0370917F038091C1
:103920008003909181030E946C130E94150780917F
:10393000F60281608093F6020E94980CC0CD822F1F
:10394000816080937A0386950E94E514B8CD49EE94
:1039500054E163EF74E10E940E07B1CD43EF54E1EF
:1039600069EE74E1F8CF45E554E16FE574E1F3CF1A
:103970004FE554E165E574E1EECF4BE354E168E4D3
:1039800074E1E9CF48E454E16BE374E1E4CF41E250
:1039900054E16EE274E1DFCF4EE254E161E274E1A2
:1039A000DACF49E654E163E874E1D5CF43E854E166
:1039B00069E674E1D0CF81E0C7CF65E082E00E9484
:1039C000FE147DCD68E086E0FACF6EE089E0F7CFA7
:1039D00064E18FE0F4CF67E185E1F1CF88E1B4CF16
:1039E00062E289E1ECCF83E2AFCF6AE285E2E7CF22
:1039F000F7E7EF16FCE7FF0609F462C028E7E216D6
:103A00002CE7F20609F464C0F8018581E080F180BA
:103A1000882309F491C0C7010E94EA11D82E682FAB
:103A2000C7010E94C40AB7018D2D0E94CB110E94CC
:103A300028097C01882ED8011596AC90159716960A
:103A40009C9092943FE09322809136028770F1F02F
:103A5000CA2CAA20E1F08F2D807F803451F080E2C3
:103A60008E0D883098F0911004C08F2D807E8032AA
:103A700069F08091AA0282FF09C082E00E940E0BC9
:103A8000809136028770CC24C3948111C12CBF2C45
:103A9000B2942FE0B222BBE0BB1508F4B6C0EB2D08
:103AA000F0E0EA57FB4C0C94C532882349F081E0E2
:103AB0000E94250B43E062E081E00E94E10AFFCC16
:103AC00081E00E94010BF6CF882311F082E0F0CF55
:103AD00082E0F7CFBBE5EB16BCE7FB0659F1ECE55E
:103AE000EE16ECE7FE06E1F0FAE5EF16FCE7FF065E
:103AF00009F08ACF81E01BC00E94AE162FEF34E39D
:103B00008CE0215030408040E1F700C000000E946E
:103B1000740C6FEF7FEF90E080E00E94D83350C2CA
:103B20008091AA0282FB882780F991E089270E9470
:103B30008B166ACF80E0FBCFC7010E947E0AD82E89
:103B400072CFEF2DEF70DE2E8F2D807F19F0D29483
:103B500090EFD922AA20B9F0DD2069F080E28E0D25
:103B6000883010F0811009C080914102D82AD0928B
:103B700041020E9429158E2D46C080914002D82A0C
:103B8000D0924002F6CF8E2D0E947715DD20E9F10C
:103B900080E28E0D883010F0811004C08D2D0E94BF
:103BA000460A06C0D09480914002D822D0924002AA
:103BB0000E9429152AC0FF2DFF70DF2E8F2D807FD8
:103BC000803219F0D29480EFD822882059F021E079
:103BD000821609F484C0AA2009F490C0992009F43F
:103BE00052C0C9CF8091AA0282FD49C0AA2009F41F
:103BF00040C0DD2039F080914102D82AD0924102A4
:103C00000E94291580E00E94B415AB2DA850BB0B73
:103C1000149720F40E9418100E940C0CCC20A9F0DC
:103C20008091360280FD11C0F80115828695869537
:103C300086950E94250BC8010E94A9198091360221
:103C40008695869586950E94010B20E0D8014C91BF
:103C500011965C91119712966C91129713967C9124
:103C6000139714968C91149715969C910E94491263
:103C700036CC80E00E947715DD2039F28FCFAA2064
:103C8000A1F0911004C08D2D0E946D15BECF31E0C2
:103C90009312BBCF80913F029D2D9823D91609F432
:103CA000B4CFD82AD0923F02B0CF9110AECF8D2D95
:103CB0000E94661590913F028D2D892329F08D2D4C
:103CC0008095892380933F02809107029D2D982340
:103CD00009F49BCFD094D822D092070296CFAA2085
:103CE00029F085E0891508F490CFCDCF94E099159F
:103CF00008F48BCF8D2D0E94661587CF9920D1F3C4
:103D0000A9E38A1209C0BFEFE7EEF3E0B150E0404B
:103D1000F040E1F700C000008E2D0E94771575CFAE
:103D20008F2D86958695837061F0813009F06DCF77
:103D3000C7019370A11002C080E090E00E94F305DB
:103D400064CFC7019370A11002C080E090E00E9490
:103D500018065BCF6A2D8E2D0E94340B56CF8F2D07
:103D6000837091F5A11051CF4E2D42954695477025
:103D7000440F440F8E2D8F70042E01C0880F0A94BB
:103D8000EAF72E2D2071E4FE07C02FE030E001C0DD
:103D9000220F4A95EAF720953F2D369536953370D8
:103DA000323069F050F440914202313029F0822BD8
:103DB00084230E94310B29CF842B822BFACF282B0E
:103DC000809142028227F5CF8695AA2011F08F2D8F
:103DD0008170882309F419CF4E2D4295469547707E
:103DE000440F440F8E2D8F70042E01C0880F0A944B
:103DF000EAF72E2D2071E4FE07C02FE030E001C06D
:103E0000220F4A95EAF720953F2D36953695337067
:103E1000323069F050F44091A802313029F0822B01
:103E200084230E94DE0AF1CE842B822BFACF282B2A
:103E30008091A8028227F5CF2F2D2F70F22EAA2075
:103E400029F0822F0E94250B8E2D1ECF8E2D0E94D1
:103E500066158F2D0E94010BD8CE8E2D32EF831662
:103E6000B1F1381570F090EF8916D1F0A1EF8A16F4
:103E700091F0AA2009F45EC091107DCE8F2D8F7134
:103E80002AC0B3EF8B1651F1E4EF8E12F2CF80917E
:103E9000AA0282FD2FC08F2D8F71AA20D9F21BC0DC
:103EA000AA2081F0F4E0F91508F4AFCE2F2D2F7180
:103EB00081E090E001C0880F2A95EAF79091A8026E
:103EC0008927AFCF25E0291508F49FCEEFCF8F2D9E
:103ED0008F71A110BFCF0E94250B97CE80E0AA2042
:103EE00009F49FCF9F2D9F7181E001C0880F9A95A3
:103EF000EAF797CFAA2099F03F2D3F71F32E832F39
:103F00000E94250B8091AA0282FF07C0A8E0FA9EBA
:103F1000C00111248360809336028F2DDCCF81E0B5
:103F20000E940E0BB1E0B91508F06FCE82E00E943E
:103F30000E0B6BCE992059F0893309F0EDCEEFEFDF
:103F4000F7EE23E0E150F0402040E1F7E3CE8F2D83
:103F50008F7180CFB6E1EB16BCE7FB0691F4809140
:103F600041028A7A91E009F490E09093060269E2B6
:103F7000811165E38EEF91E00E94D9050E94291519
:103F80009ECAF7E7EF16FCE7FF0609F48ECD28E797
:103F9000E2162CE7F20609F497CD33E0E3163CE78E
:103FA000F30609F4B6CD08F095CDE1149CE7F906C7
:103FB00009F4A2CDA1E0EA16ACE7FA0609F024CD97
:103FC0000E949319809141028272F701E052F847F2
:103FD000E531F10508F00CCDEE56FB4C0C94C532E2
:103FE000F701E851FC47E730F10508F428CBE6E19A
:103FF000EE16ECE7FE0631F78091060281117CCCCB
:1040000089E2E0E0F2E026E032E09191891303C01A
:10401000DF0111971C922E173F07B9F7AFCFCF934F
:10402000DF9380913502807F09F04DC0809134028A
:10403000882309F448C0E091DE035091A503C091A4
:104040003002D0912F02609131027091320247E02C
:104050005E17C9F18E2F90E0E49FF0011124EA551C
:10406000FC4F2481222391F1489FF001499FF00DDC
:104070001124DF01AA55BC4F11962C9111972C13D6
:1040800025C02C912D1322C015962C911597211126
:104090001DC012962D913C91261B370B283C3105F3
:1040A000A8F4809135028F70806180933502E455C9
:1040B000FC4F80818F70806180838FE292E00E944C
:1040C000A9190E944D0ADF91CF910895FC01319604
:1040D000E770BECFA4E1B0E0E0E7F0E20C9450322C
:1040E0008C0186E0F801DE011F9601900D928A9501
:1040F000E1F7F8018481E5809FE2A92E92E0B92ED4
:1041000090913302911128C0882319F1EE20F1F02B
:10411000C8010E942612F82E8823C1F087E0F8011A
:10412000D50101900D928A95E1F78091330281309B
:1041300031F480912F02909130020E9419120E9456
:104140000F208F2D6496ECE00C946C32C8010E9415
:10415000A919FF24F394F5CFD080C1808280938089
:10416000F09034022091310230913202A401421BBE
:10417000530BFF2009F4D9C0483C510508F092C008
:104180008823F9F29091300280913502282F207F08
:1041900009F056C0C91214C090912F02D91210C054
:1041A000E11048C08F708061809335028FE292E009
:1041B0000E94A91980913502F8018683F12CC1CFA4
:1041C000E11038C06C2D8D2D0E9436046C2D8D2D84
:1041D0000E943604E82E8111F1CFDF86C88A8F85D0
:1041E00098890E941912292F22952F70243058F493
:1041F0009F70223088F0992399F0F8019681907F82
:1042000079F4FE2C9ECF2A5F2F70223068F0C8010F
:104210000E94A919EF2CF5CF992311F0882389F377
:10422000805E883070F3F3CF803F58F3815F833036
:1042300070F7E7CF80913502816080933502BECF61
:10424000C91207C090912F02D91203C0EE2009F4C1
:104250008DC0C8010E942612882309F477CFEE2072
:1042600009F474CF80913502803288F020912F02BA
:1042700030913002398728879B868A869091330255
:104280009C871D868E87CE0108960E94A91987E01B
:10429000F801AFE2B2E001900D928A95E1F70E9439
:1042A0000F2057CF90913502292F207F51F48FE2B4
:1042B00092E00E94A91987E0F50111928A95E9F729
:1042C0007DCF882309F43DCF809130028C1110C03E
:1042D00080912F02D8120CC0E1100AC09683C80149
:1042E0000E94A91987E0F50111928A95E9F729CF73
:1042F000C8010E942612882309F428CFEE2009F471
:1043000025CF80913502803210F220912F0230911A
:1043100030023A8329839C828B82909133029D8361
:104320001E828F83CE010196B0CF483C5105D0F656
:10433000882309F40ECFFE2CEE2009F407CF8091DC
:1043400030028C1120C080912F02D8121CC08091A5
:10435000350280FD0FC0982F907F61F08683903FDB
:1043600031F0982F907F905F8F70892B8683C801E2
:104370000E94A91987E0F801AFE2B2E001900D9226
:104380008A95E1F7DECEC8010E94261281117FCF07
:1043900080913502816080933502C8010E94A9197D
:1043A000D0CEABE1B0E0E7EDF1E20C9458324E8BA9
:1043B0005F8B688F798F8A8F9B8F192F9111109245
:1043C00040021D8A86E0FE017696DE011F9601906E
:1043D0000D928A95E1F70A8D002341F021E04F8587
:1043E000588969897A89C8010E9449120B8B1C8BF4
:1043F00087E0FE013F96DE01189601900D928A95A6
:10440000E1F7CE0108960E946A2081110CC087E076
:10441000FE013896DE01119601900D928A95E1F722
:104420008C8581110BC017E08091DE039091A5036C
:10443000891331C06B96E4E00C9474322091A5038B
:1044400030E0C9010196877099274091DE03481733
:10445000190699F097E0929FD001939FB00D112417
:10446000AA55BC4FFE01319601900D929A95E1F745
:104470008093A5030E944D0AD6CF0E94AE161092DB
:10448000A5031092DE0387E0EFE2F2E0DF011D9268
:104490008A95E9F7C8CF819FC00111248A559C4FA6
:1044A0000E946A20882331F28091DE0390E0019619
:1044B000877099278093DE03B7CFACE0B0E0E3E6E6
:1044C000F2E20C945832182F062F662359F10E94FD
:1044D000CD051F832DEF28879A87898782E08B87F8
:1044E00081E08C874F81588569857A858B859C858D
:1044F0000E94D1210023F9F00E94CD0519832DEFF0
:104500002A839C838B8382E08D831E8249815A811A
:104510006B817C818D819E810E94D1212C96E4E06B
:104520000C9474320E94CD051F832CEF28879A8744
:10453000898783E0D4CF0E94CD0519832CEF2A838D
:104540009C838B8383E0E0CFA6E0B0E0EAEAF2E26E
:104550000C9458320E94CD058C01809143029091B9
:1045600044028017910781F019821A820E94CD05BA
:10457000682F49815A81792F80E090E00E94D121F3
:1045800010934402009343022696E4E00C947432A4
:10459000AFE1B0E0EEECF2E20C944C328E010F5F32
:1045A0001F4F84E1D8011D928A95E9F765E4E62E54
:1045B00061E0F62E68017AE4472E71E0572E6624FA
:1045C0006394712CF5E48F2EF1E09F2EF701819119
:1045D0007F018F3F09F445C0F894E82FE295EF7012
:1045E000F0E021A18F70A30102C0440F551F8A95EE
:1045F000E2F7CA01922F982B91A392A1809589236B
:1046000082A3789400C0ECE3F1E021E030E0B12C2B
:10461000A12C41914F3F09F46DC0A42FA295AF701A
:10462000B0E090968C9190E04F7002C09595879580
:104630004A95E2F780FD5EC0C901A82AB92A220F77
:10464000331F8E169F0629F7F701319780818F3F20
:1046500011F00E942C0850EA5A95F1F7D601AD925C
:10466000BC92B2E0CB0ED11C4E145F0409F0AECF69
:1046700044E150E0B80182E992E00E948033009763
:1046800041F024E1F801A2E9B2E001900D922A95EF
:10469000E1F70091A702892B81F181E08093470225
:1046A0000E94CD0590934602809345028091450279
:1046B000909146020E94B205059718F110E0000F94
:1046C000111F03531D4F4AE050E062E972E0C80138
:1046D0000E948033D12C892B51F08AE0E2E9F2E08C
:1046E000D80101900D928A95E1F7DD24D3941092C0
:1046F000470208C090E080E0A0CF8091470281117E
:10470000D5CFD12C0E94F50FC82EE091A702AE01A3
:104710004B5E5F4F7A01882309F48BC08AE0DA018F
:104720001D928A95E9F70E2F10E0000F111F035319
:104730001D4F80918B028A3008F046C04EEB56E246
:10474000B701C8010E94C20F882309F461C045E681
:1047500056E2B701C8010E94C20F882309F458C06D
:1047600047EB54E2B701C8010E94C20F882309F445
:104770004FC04CE955E2B701C8010E94C20F88231F
:1047800009F446C04EE655E2B701C8010E94C20FC7
:104790008823F1F110928B028091A60290E0880F9D
:1047A000991F4AE050E0B70183539D4F0E94803328
:1047B00021E020934E02892BE1F4C12C8C2D8D2910
:1047C0006F96E0E10C946832809148029091490222
:1047D0000E94B205843F914008F0B0CF80914E0214
:1047E000882359F38AE0F70111928A95E9F710922C
:1047F0004E02A091A602B0E0AA0FBB1FA353BD4F6B
:104800008AE0FE01759601900D928A95E1F7D6CF68
:1048100080918B028F3F31F08F5F80938B028A30C3
:1048200008F4BACF0E94CD059093490280934802C4
:10483000D5CFF0E0EE0FFF1FE353FD4F8AE0A3E674
:10484000B2E001900D928A95E1F76AE070E083E6AC
:1048500092E00E943D06809362024091C90250E0BE
:104860006091C80270E06C537D4FC7010E948D3388
:104870008D8980936E0261E070E0C7010E943D0661
:1048800080936D0280906F0290907002A0907102F0
:10489000B090720280914A0290914B02A0914C021A
:1048A000B0914D0288169906AA06BB06D1F08092F7
:1048B0004A0290924B02A0924C02B0924D020E948A
:1048C000F50F81110EC00E94C105861A970AA80A29
:1048D000B90A80928C0290928D02A0928E02B092C0
:1048E0008F02809173020E9453068BE0E4E7F2E0AE
:1048F000DE01559601900D928A95E1F78091740240
:104900008695F0907502E0907602B0907702009163
:104910007D0210917E0210927E02112309F44ECF87
:1049200010FF0BC09D8990FF1CC090917A0391608D
:1049300090937A0360E00E949D1411FF06C020E06E
:104940004B2D6E2D8F2D0E94921312FF04C0002359
:1049500059F00E94511313FF31CF81E08093F1028F
:104960002DCF0E94B30FE9CF0E941507F4CFA4E02A
:10497000B0E0EDEBF4E20C94593240917F0250919B
:10498000800260918102709182022FB7F894809129
:104990008A0390918B03A0918C03B0918D032FBF5C
:1049A000841B950BA60BB70B11E084369105A1056E
:1049B000B10570F10E9429106E5F7F4F8F4F9F4F9E
:1049C00069837A838B839C83809125019091260152
:1049D0008E599D4F4091240150E04530510510F013
:1049E00044E050E0BE016F5F7F4F0E948D3384E052
:1049F00090E00E94D431182F882351F00E94C10505
:104A000060937F0270938002809381029093820270
:104A1000812F2496E3E00C9475324F925F926F924F
:104A20007F928F929F92AF92BF92EF92FF920F93DD
:104A30001F93CF93DF937B01FB0140805180628005
:104A400073809FB7F89480908A0390908B03A09016
:104A50008C03B0908D039FBF84189508A608B708F3
:104A6000F4E68F169104A104B10418F4C1E04423C4
:104A700029F1C82F880FDD0BFE0183E0EE0FFF1F29
:104A80008A95E1F7EC5FFE4F818192818E599D4FAF
:104A9000408150E00417150708F4A801B9010E94ED
:104AA0008D33CE010E94D431C82F882339F00E9463
:104AB000C105F70160837183828393838C2FDF911B
:104AC000CF911F910F91FF90EF90BF90AF909F906B
:104AD0008F907F906F905F904F900895ABE0B0E023
:104AE000E4E7F5E20C94583288E0EAE7F3E0DE010F
:104AF000119601900D928A95E1F78091F4029091C0
:104B0000F502A091F60289879A87AB8741E08B85F1
:104B1000811101C040E00BE010E09E012F5F3F4F8C
:104B200067E872E086E00E940D2581111092F6027E
:104B30002B96E4E00C947432A1E0B0E0E2EAF5E2F6
:104B40000C9458328091820380FF18C08695869518
:104B50008695898341E090917302981301C040E0EB
:104B600001E010E09E012F5F3F4F63E872E085E0B7
:104B70000E940D252196E4E00C94743280E0E9CF88
:104B80004F925F927F928F929F92AF92BF92CF92FD
:104B9000DF92EF92FF920F931F93CF93DF930F92C9
:104BA000CDB7DEB7C62E4A015901482E880F5508E9
:104BB000C2010E94D431782E882309F480C0C2013A
:104BC00033E0880F991F3A95E1F7FC01EC5FFE4F47
:104BD000438150E04115510511F041E050E08C5FF8
:104BE0009E4FFC01648175816E597D4FCE01019607
:104BF0000E948D33F40140815181628173812FB70E
:104C0000F89480918A0390918B03A0918C03B091CA
:104C10008D032FBF841B950BA60BB70B8436910514
:104C2000A105B10540F4B701C8010E943D06998174
:104C3000891709F444C00C2C000CDD08C6010E9441
:104C4000D431782E811113C0712C872D0F90DF91F4
:104C5000CF911F910F91FF90EF90DF90CF90BF9079
:104C6000AF909F908F907F905F904F900895C60176
:104C700023E0880F991F2A95E1F7FC01EC5FFE4FB6
:104C8000438150E0E416F50608F4A7018C5F9E4FBF
:104C9000FC01648175816E597D4FC5010E948D3381
:104CA000B701C8010E943D0699818913CDCF0E94AA
:104CB000C105F4016083718382839383C6CFA7010A
:104CC000B801C5010E948D33C0CFA1E0B0E0EBE692
:104CD000F6E20C945332EE24E394F12C0EE612E04B
:104CE0009E012F5F3F4F4EE552E063E082E00E945D
:104CF000C025C82E882339F100E080E01DC0D09087
:104D00009102D00E2D2D30E0A9014C535D4F7A0158
:104D1000E1E0F0E0EC0FFD1FE00FF11D1081FA0162
:104D20009081191BB12E1B149CF0912F17FD90E060
:104D3000191B111118C00F5F909190020917F8F21A
:104D400081110E9443108C2D2196E9E00C946F3262
:104D5000BA94F70180818F5F808360E08D2D0E947F
:104D60005D228C2DE0CF1F5FF70180818150808311
:104D700061E08D2D0E945D228C2DDBCFAAE0B0E09A
:104D8000E4ECF6E20C9454326B018AE0E82EF12C4C
:104D900003E612E09E012F5F3F4F4AE552E061E0DB
:104DA00080E00E94C025882349F09AE0FE013196F8
:104DB000A0E5B2E001900D929A95E1F79AE0E0E566
:104DC000F2E0D60101900D929A95E1F72A96E8E07B
:104DD0000C947032A8E0B0E0E0EFF6E20C945A32A6
:104DE00066EE7EEF90E080E00E94D83360E082E0E3
:104DF00090E00E94BA3360E083E090E00E94BA3312
:104E00001092420260E074E184E090E00E94D833A6
:104E100060E086E090E00E94BA336FEF87E090E0B8
:104E20000E94BA3340E050E0BA0188E090E00E946E
:104E3000CC3360E084E290E00E94BA3360E087E126
:104E400090E00E94BA3360E08CE090E00E94BA33B8
:104E500060E08DE090E00E94BA3319821A821B82D2
:104E60001C821D821E821F82188648E050E068E185
:104E700070E0CE0101960E94AA3340E050E0BA01F2
:104E800080E290E00E94CC3380E00E9408110E94F2
:104E900021110E944B1183E00E943711EAE7F3E0F1
:104EA00080818160808386950E94E51421E04FEF28
:104EB0006FEF80E00E9492138BE00E94E51440E0C7
:104EC00050E0BA018FE090E00E94CC3340E050E027
:104ED000BA0183E190E00E94CC332896E2E00C9482
:104EE00076320E94A21681110AC00E94EA268091A1
:104EF000820384708961809382030E94311186E06D
:104F000090E00E94963380938203803220F0877075
:104F100088618093820390918203892F817090FF32
:104F200004C0892F8695869586950E94530608951C
:104F30001F920F920FB60F9211242F933F934F930E
:104F40005F936F937F938F939F93AF93BF93CF9311
:104F5000DF93EF93FF93D091E900DF708091EC0035
:104F6000C82FC17080FDC0E81092E9008091F00068
:104F7000877F8093F00078940E94D5161092E90004
:104F80008091F00088608093F000CD2BCF70C093AB
:104F9000E900FF91EF91DF91CF91BF91AF919F9188
:104FA0008F917F916F915F914F913F912F910F90D2
:104FB0000FBE0F901F9018951F920F920FB60F9271
:104FC00011242F933F934F935F936F937F938F930E
:104FD0009F93AF93BF93EF93FF938091E10082FF84
:104FE00009C08091E20082FF05C08091E1008B7FC3
:104FF0008093E1008091DA0080FF24C08091D80086
:1050000080FF20C08091DA008E7F8093DA0080914B
:10501000D90080FF9DC080E189BD82E189BD09B4CE
:1050200000FEFDCF81E080939B0380918E03811170
:1050300009C00E9455040E94F6048091E200846039
:105040008093E2008091E10080FF17C08091E20030
:1050500080FF13C08091E2008E7F8093E2008091F8
:10506000E20080618093E2008091D80080628093AA
:10507000D80019BC85E080939B038091E10084FFF8
:105080002BC08091E20084FF27C080E189BD82E1CE
:1050900089BD89B5982F917080FFFBCF8091D80092
:1050A0008F7D8093D8008091E1008F7E8093E10016
:1050B0008091E2008F7E8093E2008091E200816027
:1050C0008093E20080919C03882309F447C084E028
:1050D00080939B0380919B038091E10083FF27C015
:1050E0008091E20083FF23C08091E100877F80935D
:1050F000E10082E080939B0310929C038091E10089
:105100008E7F8093E1008091E2008E7F8093E200A9
:105110008091E20080618093E20042E060E080E004
:105120000E94C4048091F00088608093F000FF9199
:10513000EF91BF91AF919F918F917F916F915F910F
:105140004F913F912F910F900FBE0F901F90189588
:1051500019BC10929B0310928E0374CF8091E300D0
:1051600087FD93E090939B03B5CF78941F921FB671
:105170001F9211248F939F93AF93BF9380918A03C3
:1051800090918B03A0918C03B0918D030196A11D8A
:10519000B11D80938A0390938B03A0938C03B093EB
:1051A0008D03BF91AF919F918F911F901FBE1F9054
:1051B00018951F921FB61F9211248F939F93AF9340
:1051C000BF9380918903811113C080918A039091CC
:1051D0008B03A0918C03B0918D034196A11DB11D4D
:1051E00080938A0390938B03A0938C03B0938D03D9
:1051F000BF91AF919F918F911F901FBE1F901895E7
:10520000CDB7DEB7A6970FB6F894DEBF0FBECDBF01
:1052100085B7806885BF85B7806885BF84B7877F7D
:1052200084BF0FB6F894A895809160008861809340
:105230006000109260000FBE80E890E00FB6F89416
:1052400080936100909361000FBE8AE298E0909392
:10525000FD018093FC010E9455040E94F604809198
:10526000E20084608093E200789480919B0388231D
:10527000A1F01091E9001F709091EC00892F8170CE
:1052800090FD80E8182B1092E9008091E80083FDE2
:105290000E94D5161F701093E90082E084BD93E050
:1052A00095BD9AEF97BD80936E0010928C0210927C
:1052B0008D0210928E0210928F020E946E12811146
:1052C00002C00E94211187988F988FE891E0019782
:1052D000F1F700C000008FB1881F8827881F8093D6
:1052E0004A0180914A01882309F461C01092630148
:1052F00088E0809364010E94F50F81110E94E830DC
:1053000090914A0181E098279093C802A82FA91B89
:10531000A093910290914A018093C90290914A0111
:105320008093900280914A01811106C086E98093A2
:10533000540184E98093530120915401E22FE295B6
:10534000EF70F0E061A12F7081E090E0AC0101C04E
:10535000440F2A95EAF7342F3095362331A322A142
:10536000242B22A320915301E22FE295EF70F0E06D
:1053700031A12F7001C0880F2A95EAF7982F9095D8
:10538000932391A392A1892B82A3EFE8F1E03197B7
:10539000F1F700C000001091C9026AEC72E044E528
:1053A00051E083E5E82E81E0F82EFB012CC088E077
:1053B000809363019ECFDA012D91AD01822F8295FA
:1053C0008F7090E0DC0190968C9190E02F7002C07D
:1053D000959587952A95E2F78170D7019D917D017A
:1053E000292F22952F7030E0D90190962C9130E032
:1053F0009F7002C0359527959A95E2F790E020FDC1
:1054000092E0892B81938E2F861B8117A0F28091C9
:105410004A0181112CC085E0E9E6F1E0DE019196B8
:1054200001900D928A95E1F789A1809345018AA1A7
:10543000809346018BA1809347018CA18093480102
:105440008DA18093490189E0EEE6F1E0DE0111963D
:1054500001900D928A95E1F7FE013196ACE3B1E03F
:10546000CE010A9621912D938E179F07D9F780912F
:105470004A0195E0811190E09093A70285E0891B95
:105480008093A60205E411E0F80181918F018F3F1E
:1054900011F00E942C08F1E00A341F07A9F70CE371
:1054A00011E075E4E72E71E0F72ED8018D918D01A2
:1054B0008F3F11F00E942C08E016F106B1F784E14D
:1054C000EDECF2E0DF01282F1D922A95E9F7E2E9E1
:1054D000F2E0DF011D928A95E9F7269A0E94A21652
:1054E000811102C00E94EA2682E090E00E94963379
:1054F0008093AC0284E090E00E94A4339093AA02CF
:105500008093A9020E94C822BFEFE6E7F1E0B15004
:10551000E040F040E1F700C000000E94C822809106
:10552000CD0280FF08C06FEF7FEF90E080E00E9427
:10553000D8330E94740C83E090E00E9496330E945E
:10554000310B259A2D9882E88093800089E1809321
:1055500081008FEF9FEF90938700809386000E94D9
:1055600071270E9471278091AB02811178C00E943F
:10557000A216811104C00E94EA260E940D1588E03F
:1055800090E00E949E334B015C0184E290E00E9417
:105590009633282F30E040E050E060E070E080E09B
:1055A00090E000E20E94E132282939294A295B294A
:1055B00020937A0330937B0340937C0350937D03C5
:1055C00060937E0370937F038093800390938103A5
:1055D0008091F60283608093F6022E7F89F50E9407
:1055E0000D1588E090E00E949E336B017C0184E2FF
:1055F00090E00E949633282F30E040E050E060E0D9
:1056000070E080E090E00E94E132B22FA32FF42FEF
:10561000E52F5B0197018601BC29A12BFE29E32B15
:10562000B0937A03A0937B03F0937C03E0937D0314
:1056300060937E03B0927F038093800390938103F5
:105640000E941C070E94150780917A0380FF04C006
:1056500060E086950E949D1481E08093AB020E94D9
:10566000F50F811102C00E94EB308BE491E0909322
:105670008603809385035524539464E0662E712C31
:1056800080919B0300E112E1853009F49CC00E94E7
:10569000C8224DEAA42E42E0B42E5DEC852E52E0E5
:1056A000952E41EC52E0D401F501219131918D917B
:1056B0009D914E175F0709F494C028173907A9F385
:1056C0000E94F50F282E412CF401019111914F01F8
:1056D000D501CD90DD905D01C016D10671F1C026D7
:1056E000D126312CEE24E394F12CC6018E219F218A
:1056F000892BC9F02220B9F039A24AA20E94CD0517
:105700009CA38BA3B1E0BDA391E098012E213F2182
:10571000232B09F490E09EA349A15AA16BA17CA17F
:105720008DA10E94D1213394EE0CFF1CE9E03E12C2
:10573000DCCFF5013297118300834394FAE04F12D6
:10574000C3CF0E94291053C080919B03843051F134
:1057500080E00E94530680E00E940C0C10928903A6
:1057600088E190E0A0E40FB6F894A89580936000DB
:105770000FBEA093600083B7817F846083BF83B72F
:10578000816083BF7894889583B78E7F83BF0FB67F
:10579000F894A895809160008861809360001092D1
:1057A00060000FBE80919A03882369F00E94C8228E
:1057B000EDECF2E081919191892B09F088C4B2E07F
:1057C000E13EFB07B9F780919B03853009F4BCCF1C
:1057D0000E94AE160E9471270E9418100E940C0CA5
:1057E00056CF2817390709F06BCF0E94A4220E94D8
:1057F000F50F8091F502882309F463C08091F402CB
:10580000E0917A03E695E81BE093F002823009F01C
:105810006BC1F0E0E65BFD4FE4910E2F10E09FE9D5
:10582000C92E9FE0D92E8091F102882361F0109259
:10583000F1020E9446109093EF028093EE021092C4
:10584000F3021092F2020E944610E091EE02F091F3
:10585000EF029C012E1B3F0B2F3F3F4790F52091FD
:10586000C3022223B1F01092C3022091C1023091F1
:10587000C202821B930B8F3F9F4758F4205D3A482A
:105880003093C2022093C1028091F6028860809317
:10589000F602E090F202F090F302E00FF11FF093B5
:1058A000EF02E093EE028EEE92E0F6010995809110
:1058B000F2029091F302892B21F4EF2811F050921B
:1058C000C302E12CD12C8091C902E81608F478C1FA
:1058D000D1100E94431086E0E8EEF2E0DE0111965E
:1058E00001900D928A95E1F71092EA021092EB0274
:1058F0001092EC021092ED028B819C81892B09F4AD
:105900004AC08091E6029091E7020E94B2059C0194
:105910009091E102992309F4FEC325313105D8F1B4
:105920009F3F19F09F5F9093E1021B81112359F073
:105930000E940A089FEF11160CF491E0899F802DB8
:1059400011248093EA021C81112359F00E940A0855
:105950009FEF11160CF491E0899F802D1124809304
:10596000EB023091EA023323B1F02091EB022223C3
:1059700091F045EB3403C0011124992309F49FC130
:105980009093EA0245EB240390011124332309F498
:1059900099C13093EB028D819E81892B09F44AC015
:1059A0008091E4029091E5020E94B2059C019091E1
:1059B000E202992309F4AAC321353105D8F19F3FAA
:1059C00019F09F5F9093E2021D81112359F00E940C
:1059D000E8079FEF11160CF491E0899F802D1124A8
:1059E0008093EC021E81112359F00E94E8079FEF7B
:1059F00011160CF491E0899F802D11248093ED0203
:105A00003091EC023323B1F02091ED02222391F08A
:105A100045EB3403C0011124992309F456C1909336
:105A2000EC0245EB240390011124332309F450C107
:105A30003093ED0246E050E0BE016F5F7F4F88EE8D
:105A400092E00E948033892B61F48091EA02909168
:105A5000EB02892B9091EC02892B9091ED02892B1E
:105A600011F00E94C10786E0FE013196A8EEB2E077
:105A700001900D928A95E1F70E941810182F8091DD
:105A8000CC02181739F01093CC020E94C105812F67
:105A90000E940C0C80919B03843009F0F1CD83E0CF
:105AA0008093E9008091E80082FFEACD8091E800D0
:105AB00090E085FF06C00E947404882309F40BC19E
:105AC00091E08091E8008B778093E800992309F4B6
:105AD000D7CD8981EFEFE80FE53108F023C1F0E081
