:100000000C9438060C94B9310C9470060C9470065C
:100010000C9470060C9470060C9470060C94700688
:100020000C9470060C9470060C9486280C9442284C
:100030000C94D9290C9470060C9470060C947006DC
:100040000C9470060C9470060C9470060C94700658
:100050000C9470060C94B5290C9470060C947006E0
:100060000C9470060C9470060C9470060C94700638
:100070000C9470060C9470060C9470060C94700628
:100080000C9470060C9470060C9470060C94700618
:100090000C9470060C9470060C9470060C94700608
:1000A0000C9470060C9470060C9470060631FF09CF
:1000B00074A1010975150026FF00952075088102BD
:1000C0000976150026FF00952075089102C00501EC
:1000D0000980A101850319012AB700150126B7007F
:1000E000950175108100C0050C0901A10185041955
:1000F000012AA002150126A002950175108100C0F9
:100100000660FF0961A1010962150026FF00952024
:10011000750881020963150026FF00952075089176
:1001200002C005010906A101050719E029E715002C
:100130002501950875018102950175088101050762
:10014000190029FF150026FF009506750881000596
:10015000081901290595057501910295017503910D
:1001600001C00000000000000000000000000000CE
:10017000000000000000000000000000000000007F
:100180000000000000007E0F00D4FFFFFFC700004A
:10019000007800000000000000002A2B280000006A
:1001A0000000000000000000000000000029000026
:1001B00000002C1E3420212224342627252E362D03
:1001C0003738271E1F202122232425263333362E9D
:1001D00037381F0405060708090A0B0C0D0E0F100F
:1001E0001112131415161718191A1B1C1D2F313054
:1001F000232D350405060708090A0B0C0D0E0F10F8
:100200001112131415161718191A1B1C1D2F313033
:10021000354C7267626C69676874206469736162E7
:100220006C65205B454550524F4D5D3A20726762C8
:100230006C696768745F636F6E6669672E656E616F
:10024000626C65203D2025750A007267626C6967E3
:10025000687420656E61626C65205B454550524F45
:100260004D5D3A207267626C696768745F636F6E98
:100270006669672E656E61626C65203D2025750A92
:10028000007267626C6967687420746F67676C6579
:10029000205B454550524F4D5D3A207267626C6954
:1002A0006768745F636F6E6669672E656E61626C06
:1002B00065203D2025750A0044454255473A206493
:1002C000697361626C65642E0A0044454255473A81
:1002D00020656E61626C65642E0A004F6E657368FE
:1002E0006F743A206163746976653A2025640A0068
:1002F0000A002530325820006B6579626F617264A4
:100300005F7265706F72743A200054617267657431
:1003100020636F6E6E65637465640D0A00546172CC
:1003200067657420646973636F6E6E65637465647A
:100330002C207468726F74746C696E6720636F6EC2
:100340006E656374696F6E20617474656D7074732B
:100350000D0A004661696C656420746F20657865DC
:10036000637574652025730A007267626C6967683B
:10037000745F636F6E6669672E7370656564203D98
:100380002025640A007267626C696768745F636F36
:100390006E6669672E76616C203D2025640A0072C6
:1003A00067626C696768745F636F6E6669672E73F6
:1003B0006174203D2025640A007267626C69676879
:1003C000745F636F6E6669672E687565203D2025D2
:1003D000640A007267686C696768745F636F6E6651
:1003E00069672E6D6F6465203D2025640A00726781
:1003F000626C696768745F636F6E6669672E656EAD
:1004000061626C65203D2025640A007267626C6938
:100410006768745F636F6E66696720454550524F29
:100420004D3A0A007267626C696768745F696E6949
:1004300074207267626C696768745F636F6E666967
:10044000672E6D6F6465203D20302E2057726974D1
:10045000652064656661756C742076616C75657382
:1004600020746F20454550524F4D2E0A007267622E
:100470006C696768745F696E6974206565636F6E27
:10048000666967206973206E6F7420656E61626CA7
:1004900065642E0A007267626C696768745F696ED2
:1004A0006974207374617274210A007267626C69E6
:1004B0006768745F696E69742063616C6C65642E33
:1004C0000A005B735D000A002530313662003A2075
:1004D0000025303258000A722F6320303132333415
:1004E00035363738394142434445460A007267621F
:1004F0006C6967687420616E696D6174696F6E20E4
:100500007469636B207265706F727420746F2073EE
:100510006C6176650A001E0F0500047F3F1F643280
:1005200014643214783C1E1E140A050A0025303269
:1005300058006C65645F7461736B3A200072676287
:100540006C6967687420656E61626C65205B4E4FF4
:10055000454550524F4D5D3A207267626C6967683D
:10056000745F636F6E6669672E656E61626C65208D
:100570003D2025750A007267626C69676874207394
:100580006574207370656564205B4E4F454550521D
:100590004F4D5D3A2025750A00000101010101015E
:1005A000010101020202020202020202030303032A
:1005B00003030303040404040404040505050505FA
:1005C00006060606060707070707080808080909B8
:1005D00009090A0A0A0B0B0B0C0C0C0D0D0D0E0E63
:1005E0000E0F0F0F101011111112121313141415F6
:1005F0001516161717181819191A1A1B1B1C1D1D6A
:100600001E1E1F20202122222324242526262728BF
:1006100029292A2B2C2D2D2E2F30313232333435EF
:10062000363738393A3B3C3D3E3F404142434445F2
:10063000464748494A4C4D4E4F50515354555658D1
:10064000595A5B5D5E5F616264656668696B6C6D7B
:100650006F7072737577787A7B7D7E8082838587F1
:10066000888A8C8E8F91939596989A9C9EA0A2A32F
:10067000A5A7A9ABADAFB1B3B5B7BABCBEC0C2C434
:10068000C6C9CBCDCFD1D4D6D8DBDDDFE2E4E7E9F4
:10069000EBEEF0F3F5F8FAFDFF7267626C696768DC
:1006A00074206D6F6465205B4E4F454550524F4D31
:1006B0005D3A2025750A007267626C69676874206C
:1006C0006D6F6465205B454550524F4D5D3A202566
:1006D000750A007267626C69676874206469736187
:1006E000626C65205B4E4F454550524F4D5D3A2040
:1006F0007267626C696768745F636F6E6669672EA4
:10070000656E61626C65203D2025750A0072676226
:100710006C696768742073657420687376205B4E1B
:100720004F454550524F4D5D3A2025752C25752C6F
:1007300025750A007267626C696768742073657456
:1007400020687376205B454550524F4D5D3A202519
:10075000752C25752C25750A007267626C696768AF
:1007600074207261696E626F77207365742068739C
:10077000763A2025642C25642C25642C25750A00E6
:10078000FFAA7F55400102030C0D0E0F000706055E
:10079000040B0A09087267626C69676874207469DF
:1007A0006D657220656E61626C65642E0A00726709
:1007B000626C696768742074696D6572206469731E
:1007C00061626C652E0A002223252628292A2C2DF9
:1007D0002F3032333536383A3B3D3E404243454771
:1007E000494A4C4E5051535557595A5C5E606264A9
:1007F0006668696B6D6F71737577797B7D7F8183B7
:100800008587898A8C8E90929496989A9C9E9FA1B7
:10081000A3A5A7A8AAACAEAFB1B3B4B6B8B9BBBCD8
:10082000BEBFC1C2C3C5C6C7C9CACBCCCDCED0D14D
:10083000D2D2D3D4D5D6D7D7D8D9D9DADADBDBDB45
:10084000DCDCDCDCDCDDDDDDDDDCDCDCDCDCDBDBE6
:10085000DBDADAD9D9D8D7D7D6D5D4D3D2D2D1D03A
:10086000CECDCCCBCAC9C7C6C5C3C2C1BFBEBCBB37
:10087000B9B8B6B4B3B1AFAEACAAA8A7A5A3A19FAF
:100880009E9C9A98969492908E8C8A898785838173
:100890007F7D7B79777573716F6D6B696866646254
:1008A000605E5C5A5957555351504E4C4A49474522
:1008B0004342403E3D3B3A3836353332302F2D2CC3
:1008C0002A2928262523223A003B00165C1E001FF9
:1008D0000020002100220023003C003D002B0014DA
:1008E000001A0008001500170000003E003F003904
:1008F0000004001600070009000A00000040004143
:1009000000E10064001D001B000600190005004204
:10091000004300E000E200E30001512C002C000045
:100920000024002500260027002D002E004C002A60
:10093000004A001C0018000C00120013002F0030A9
:100940000031004D000B000D000E000F003300348D
:1009500000320028004B001100100036003700382C
:10096000000000E50052004E0001512C00E600E4BA
:1009700000E7000000500051004F00010001001688
:100980005C3A003B003C003D003E003F000100019E
:1009900000C25CC35C0100520001000100000001C4
:1009A00000010001000100500051004F0001000053
:1009B000000100010001000100010001000100012F
:1009C00000010001000100350201000100010001E9
:1009D0000001000000400041004200430044004587
:1009E000004C002A0001000100010001000100018B
:1009F00000010001000100010001000100010001EF
:100A000000010001000100010001000100010001DE
:100A100000010001000000010001000100010001CF
:100A200000010001000100000001000100010001BF
:100A300000010001000100010001000100010001AE
:100A4000000100010001000100010001000100019E
:100A5000000000010001000100010001000100018F
:100A6000000100000001000100010001000100017F
:100A7000000100010001000100010001000100016E
:100A8000000100010001000000010001000100015F
:100A9000000100010001000100010001000100014E
:100AA000000100010001000100010001000100013E
:100AB000000100010001000100010001000100012E
:100AC000000100010001000100000001000100011F
:100AD000000100010001000100010000000100010F
:100AE00000010001000100010001000100010001FE
:100AF00000010001000100010001000100010001EE
:100B000000010001000000010001000100010001DE
:100B100000010001000100000001000100010001CE
:100B200000010001000100010001000100010001BD
:100B300000010001000100010001000000010001AE
:100B4000000100010001000100010001000100019D
:100B5000000100010001000100010001000100018D
:100B6000000100010001000100010001000100017D
:100B7000000100010001000100010001000000016E
:100B8000000100010001000100010001000100005E
:100B9000000100010001005B435D005B445D005B00
:100BA000535D005B575D005B525D0009027B0004F2
:100BB0000100A0FA0904000001030101000921114C
:100BC000010001224000070581030800010904011A
:100BD0000002030000000921110100012222000788
:100BE0000582032000010705030320000109040218
:100BF0000001030000000921110100012232000759
:100C00000584032000010904030002030000000919
:100C100021110100012222000705850320000107A0
:100C2000050503200001120100020000000810CB9E
:100C300057520005010200012203510075006500B2
:100C40006600720065006E006300790020005200AB
:100C5000650076002E002000350000000E034B00DA
:100C600065006500620069006F000000040309046C
:100C700011241FBECFEFDAE0DEBFCDBF04B603FE06
:100C800018C08091E2039091E303A091E403B09136
:100C9000E5038730904BA740B04B59F41092E20324
:100CA0001092E3031092E4031092E503E0E0F8E30E
:100CB000099523E0AEE1B2E001C01D92A23EB20769
:100CC000E1F712E0A0E0B1E0E2E6F9E602C005904B
:100CD0000D92AE31B107D9F70E94002A0C948634E8
:100CE0000C940000FF93EF93E0911E02F0911F021D
:100CF000309709F00995EF91FF910895FC018591D6
:100D0000803011F0EFDFFBCF0895FF27E0E230E203
:100D100047FF0CC0419597FF09C0EDE260957095C3
:100D200080959095611D711D811D911D27FF02C049
:100D3000219530E350E2AA27660F771F881F991F7D
:100D4000AA1FA41710F0A41B63955A95A9F7AA30FF
:100D500008F0A95FA05DAF93F3956115710581055A
:100D6000910541F7ED3211F4EF93F395F21718F472
:100D70003F93F395FBCF8F91B5DFFA95E1F7089597
:100D8000E991F9918591803021F0853219F0AADF3F
:100D9000F9CF089520E0E89455915532C1F35033CE
:100DA00011F4689455915A3348F4505390F3220F3C
:100DB000022E220F220F200D250FF4CF0EF42195C5
:100DC00089919991533619F3533729F1533559F1D4
:100DD000BC0188279927E8945C3621F48991999180
:100DE00068945591543639F446EF7EF077FF0DC084
:100DF0008FEF9FEF0AC055374AE039F0583540E190
:100E000021F0523642E009F00895FF93EF937DDF21
:100E1000EF91FF91B7CFFF93EF93FC018191803069
:100E2000B9F360DFFBCFFF93EF9368DFF1CFDF9380
:100E3000CF93CDB7DEB72596A3DFCF91DF9108958D
:100E4000E8EDF0E080818E7F80831092E2001092C6
:100E5000DA001092E100A0EEB0E08C9181608C93FA
:100E600080818F77808319BCA7EDB0E08C918E7F55
:100E70008C9380818F7E80831092C7030895209188
:100E8000E4003091E50095E6A9012091EC00822F65
:100E9000817020FF06C08091E80080FF06C080E0DE
:100EA00008952091E80022FD1AC08091D403882380
:100EB00089F0853089F08091EB0085FD0FC020918D
:100EC000E4003091E50042175307F9F29150E1F642
:100ED00084E0089582E0089583E0089581E0089514
:100EE000EF92FF920F931F93CF937C018B010E948F
:100EF0003F07C82F811117C08091E80085FD0BC006
:100F00008091E8008E778093E8000E943F07882355
:100F100099F3C82F08C0F70181917F018093F100F8
:100F20000150110949F78C2FCF911F910F91FF901C
:100F3000EF9008958091D60387FF13C08091E80059
:100F400082FF06C08091E8008B778093E80004C0A0
:100F50008091D4038111F2CF08958091D403882326
:100F6000D9F38091E80080FFF8CF8091E8008E7778
:100F7000ECCF982F9093E900242F762F50E089171B
:100F800031F07091EC002091ED005091F00021FDC6
:100F900007C09F5F973071F78093E90081E0089563
:100FA0003091EB003E7F3093EB003091ED003D7FC0
:100FB0003093ED003091EB0031603093EB00709393
:100FC000EC002093ED005093F0002091EE0027FDFF
:100FD000E0CF80E00895B0E0A0E0E1EFF7E00C940E
:100FE000DF32C8EDD0E088818F7E8883E7EDF0E0C6
:100FF00080818160808384E082BF81E08093C70329
:1010000088818E7F888302EE10E0F80110821092B2
:10101000DA0081EEC82ED12CF601108288818F77FC
:10102000888388818068888388818F7D888319BCC4
:101030001092D4031092D5031092D3031092D203CE
:1010400090EEE92EF12CF70180818B7F80838881DF
:101050008160888342E060E080E00E94B907F60189
:1010600080818E7F8083F801808181608083808190
:1010700088608083F70180818E7F80838881806192
:101080008883CDB7DEB7E8E00C94FB32FC01809199
:10109000DC039091DD0386179707A0F061157105B9
:1010A00029F49091E8009E779093E80090E0611514
:1010B000710551F4911108C08091E80082FF34C09D
:1010C00080E00895BC01F2CF8091D4038823C1F160
:1010D0008530C1F18091E80083FD30C08091E80047
:1010E00082FDEACF8091E80080FFE1CF8091F3009C
:1010F0002091F200382F6115710519F02830310563
:1011000058F091E02830310509F090E02091E80096
:101110002E772093E800CBCF81918093F10061502E
:1011200071092F5F3F4FE7CF8091D403882341F0AF
:10113000853041F08091E80083FFBECF81E00895C3
:1011400082E0089583E008950895089508958091B8
:10115000C90308959C014FB7F8948091BD03909105
:10116000BE03A091BF03B091C0034FBF821B930B7E
:1011700008952FB7F8946091BD037091BE038091DC
:10118000BF039091C0032FBF08952FB7F8948091AB
:10119000BD039091BE03A091BF03B091C0032FBFC8
:1011A00008952091BA033091BB032817390771F0D5
:1011B0009093BB038093BA03E091B803F091B90315
:1011C000309721F00084F185E02D09950895209154
:1011D000B6033091B7032817390771F09093B7031E
:1011E0008093B603E091B803F091B903309721F0F2
:1011F0000680F781E02D09950895FC01680F791F9D
:101200008FEF91E32191822728E030E087FF09C02A
:10121000880F892721503109C9F7E617F70791F799
:101220000895880FF7CFFA01811101C0FB010995DC
:1012300008958091B103982F9E7F29F48170826078
:101240008093B10308958635E8F381708465F8CF03
:10125000AF92BF92DF92EF92FF920F931F93CF93C3
:10126000DF93082F162FE901E42FF0E0E756FA4F3D
:10127000611110C0E4915E2F4E2F4983E8835A8399
:10128000DF91CF911F910F91FF90EF90DF90BF9072
:10129000AF900895E62EF12C4491D42EE42FF0E087
:1012A00026E0829FC00111242FEF30E0B9010E9497
:1012B0001833802F90E0880F991F55E5569FD00175
:1012C000579FB00D11248A1B9B0B982F990F890FE4
:1012D0005901AE18BF08AE9ED001AF9EB00DBE9EA4
:1012E000B00D11245B2F189F80011124012F1127AD
:1012F0005901A01AB10AAE9E8001AF9E100DBE9E8C
:10130000100D11245901A81AB108AE9CC001AF9C60
:10131000900DBE9C900D1124892F9927281B390B05
:101320002E9FC0012F9F900D3E9F900D1124E92FFD
:1013300062307105A1F050F46115710509F49DCF7B
:101340006130710581F0EB2F512F97CF643071051B
:1013500069F080F06630710509F48FCFF4CFE42F87
:101360004B2F592F8ACFE42F412F87CFEB2F542FAC
:10137000492F83CF4B2F5D2DE12F7FCFF894E82F9E
:10138000E295EF70F0E031A1282F2F7081E090E01E
:1013900001C0880F2A95EAF7982F9095932391A37F
:1013A00092A1892B82A3789408959091EB0292FFE9
:1013B00006C0282F28712830F9F4877F846093FFB6
:1013C00006C0282F28712831F1F4877E846120918E
:1013D000EC0220FF06C0382F38713830D9F4877FEF
:1013E000816021FF06C0282F28712831D1F4877E23
:1013F000816194FD877E0895282F24712430F9F6A9
:101400008B7F8860DCCF282F2471243101F78B7EFD
:101410008861DDCF382F3171313019F78E7F8860C8
:10142000E0CF282F2171213121F78E7E8861E1CF15
:10143000CF93DF93EC0182389105A9F1D8F5813380
:10144000910509F496C048F58932910509F48AC0DE
:101450008A9709F495C0C11522E5D20708F0B6C0F5
:10146000C11531E5D30708F026C1C83ED10508F003
:101470009CC0C03ED10560F5C83AD10508F087C0D0
:10148000C53AD10508F0EFC0C130D10509F1209768
:10149000F9F0C430D105E0F440C08533910509F47A
:1014A0005AC0C997C1F68091EB02837089F0C0EEF3
:1014B000D0E00EC0833E910599F170F4803E910515
:1014C00001F1823E910539F68091EB0282FD21C047
:1014D000CE01DF91CF910895863E910561F1873E5F
:1014E000910571F1843E910509F0B5CF8091EC0230
:1014F00081FFEECF8091EB02C7EED0E084FD0DC0FE
:10150000E7CF8091EB0280FD07C19091EC0290FF44
:10151000DFCFC3EED0E084FFDBCFD0E0C0E0D8CF98
:101520008091EB0282FDFBC09091EC0290FDBFCF59
:1015300084FFCECFF2CF8091EB0283FDDDCFC8CF09
:101540008091EB0283FDEEC09091EC0291FFF0CF11
:10155000C4EED0E0BDCF8091EB0285FFB9CFC9E2E8
:10156000D0E0B6CF8091EB0285FFB2CFC5E3D0E0EB
:10157000AFCF8091EB0286FFABCFCAE2D0E0A8CF1D
:101580008091EB0286FFA4CFC1E3D0E0A1CFCF3B97
:10159000D10518F6C85AD0E0CC0FDD1FC156DE4F7A
:1015A0000990D881C02DD46493CFC11540E5D407EC
:1015B00008F064C0C11580E4D80708F05CC0CE0113
:1015C0009A9581159F4108F483CFA7CFC11536E5C1
:1015D000D30718F5C11545E5D40708F084C0C11537
:1015E00084E5D80708F07AC09C2F969596959E01C1
:1015F00023703327C115D34508F462C0C1E0D0E0A1
:1016000002C0CC0FDD1F2A95E2F730E2939FC001A4
:101610001124C82BD92BDA685BCFC1158AE5D8070E
:1016200078F4C11599E5D90708F068C0C11528E517
:10163000D20708F472CFDC2FCC27C06FD06A48CF16
:10164000CE0190568115904208F067CF8D2F8F7193
:101650000E94D50990E0982F882788279F719C01C8
:101660002C2BE90149C0C55AD0E0C456DE4FC881D1
:10167000D0E0D0642DCFDF70D06A2ACFCE01E4E075
:1016800096958795EA95E1F783702C2F26952695F8
:10169000237040E2249F90011124382B8C2F8370FB
:1016A000C1E0D0E002C0CC0FDD1F8A95E2F7C22B6B
:1016B000D32BDC680DCFDC2FCC27C16FD06A08CFCD
:1016C000C1E0D0E002C0CC0FDD1F2A95E2F720E296
:1016D000929FC0011124C82BD92BEBCFDC2FCC2734
:1016E000C46FD06AF5CE8C2F0E94D509C82FD0E0E8
:1016F000DC2FCC27CC27DF71D062EACE8C2F8F7005
:101700000E94D50934E0D695C7953A95E1F7CF7098
:101710009C2FEC01D069DCCEC9E3D0E0D9CEC2EE7B
:10172000D0E0D6CEC6EED0E0D3CE0E94B908089560
:10173000809190028111109290020895809590916D
:101740008F02982390938F020895E2E2F2E0919144
:10175000891303C0DF0111971C9292E0E832F90768
:10176000B1F70895A2E2B2E0EFEF90E02D91821779
:1017700051F0EF3F19F4211101C0E92F9F5F96301E
:10178000A9F7EF3F09F408950E2E000CFF0BE05E61
:10179000FD4F8283089580918402909153029813A3
:1017A00001C008958F5F8770FACF292F9A3078F59E
:1017B000893068F590E039E0239F800D911D112458
:1017C000682F677023E0969587952A95E1F7FC01CD
:1017D000EE0FFF1FE80FF91FE75DFD4F50E040E0FF
:1017E00080E0219130E0062E02C0369527950A94BC
:1017F000E2F721703327042E01C0220F0A94EAF782
:10180000822B4F5F5F4F4330510559F7089580E0B9
:101810000895292F9A3098F5893088F590E039E0BD
:10182000239F800D911D1124282F277041E001C0B6
:10183000440F2A95EAF723E0969587952A95E1F7D4
:10184000FC01EE0FFF1FE80FF91FE75DFD4F30E0D1
:1018500020E070E05191DF011197CB01022E02C010
:10186000969587950A94E2F7817081958527842360
:1018700085278C932F5F3F4F2330310559F708950B
:10188000829590E09C01220F331F220F331F2C7C86
:1018900095958795959587958373282B30E0C90199
:1018A000880F991F8A7A359527952575822B08957B
:1018B0009FB7F8941092C5039FBF9091D4039430C2
:1018C00009F048C02091E9002F703091EC00932F6F
:1018D000917030FD90E8922B25E02093E900209153
:1018E000EB0020FF34C02091EE0027FF30C0209194
:1018F000C403222321F02091E80025FF28C0109284
:10190000C40326E03091E80035FF14C08093F10055
:101910008091E80085FD27C08091E80080FFFCCF22
:101920008091E8008E778093E8009F709093E900A3
:1019300080E008953091D403343049F43091EB00C5
:1019400035FD05C0215041F481E08093C4039F70B0
:101950009093E9008FEF0895EFE9FFE03197F1F7F9
:1019600000C00000CFCF8FB7F89421E02093C503CB
:101970008FBFDBCF8093C1037093C3036093C20317
:101980008091D4038430F9F48093E9008FEF909133
:10199000E800815095FD06C095ED9A95F1F700009D
:1019A0008111F5CF8091E80085FF0DC050E040E047
:1019B00063E070E081EC93E00E9470078091E800A2
:1019C0008E778093E8000895BC0184E00E94BA0CF1
:1019D0000895BC0183E00E94BA0C0895CF93DF9371
:1019E000EC0181E08093E9008FEF9091E800815055
:1019F00095FD06C095ED9A95F1F700008111F5CFA0
:101A00008091E80085FF14C050E040E068E070E09D
:101A1000CE010E9470078091E8008E778093E800E5
:101A200088E0FE01AAECB3E001900D928A95E1F7FF
:101A3000DF91CF91089581E08093E00080E2809370
:101A4000D8001092C9008FE19EE40197F1F700C021
:101A5000000087E090EBDC018093E2039093E303C6
:101A6000A093E403B093E50388E19CE00FB6F894FB
:101A7000A895809360000FBE90936000FFCFCF9237
:101A8000DF92EF920F931F93CF93DF93CDB7DEB723
:101A9000E0970FB6F894DEBF0FBECDBF6091600136
:101AA0008091B10380FF4BC0E5E8F7E09E012F5F16
:101AB0003F4F8E010F5C1F4FC901A4914A2F50E088
:101AC000DA01AA0FBB1FA40FB51FAF5CBC4FCD90AE
:101AD000DD90EC90D901CD92DD92ED929D01319691
:101AE000A017B10751F720915F0143E0249F800DBB
:101AF000911D11246E9A2EB12F7B3EB130645FB7D9
:101B0000F894FC01649FE00DF11D1124BF018617BC
:101B1000970741F55FBFEFE5F4E03197F1F700C0BB
:101B20000000E0960FB6F894DEBF0FBECDBFDF9188
:101B3000CF911F910F91EF90DF90CF9008958091FA
:101B400061019091620123E0829FF0011124EF5C1A
:101B5000FC4F891708F0A8CF1182108212828F5F84
:101B60003396F7CFDC014D91CD01E8E03EB900009E
:101B700000C047FF2EB9440F000000C000C000C0E5
:101B80002EB900C0EA9591F7C2CF0F931F93CF9360
:101B9000DF93EC0110E000E09091630190171106D3
:101BA00009F06CF40E943F0D8C8190E001968170E9
:101BB00099278C83DF91CF911F910F9108952091E8
:101BC0006101A801420F511D9A01220F331F240FFA
:101BD000351F2F5C3C4F4C816091B3038091B20361
:101BE00096959017110651F04CF0442349F040911E
:101BF000B4030E9428090F5F1F4FCECF4423B9F3CF
:101C000040E0F7CFB0E0A0E0E8E0FEE00C94DB328B
:101C1000EC014C81042F10E09801D8010E94773428
:101C20009B01AC010E9442344B015C01E0E2F0E018
:101C3000E01BF10BA5E5B0E0AC019B010E94423432
:101C40006B017C019F01DF010E944D339B01AC01C0
:101C50000E944D349B01AC01280D391D4A1D5B1DAE
:101C6000C701B6010E945534F22E822F90E039E26E
:101C70003F1520F143E0249F9001112435952795CD
:101C8000122F109500E085E5E82EEF188091630192
:101C9000081718F10E943F0D9C8181E0992319F0EB
:101CA000903219F48FEF80935E0180915E01890F6D
:101CB0008C83CDB7DEB7ECE00C94F73225E530E04D
:101CC000B901681B790B9B01220F331F260F371FA9
:101CD00037FFD4CF2F5F3F4FD1CF8E2D01FD8F2DFA
:101CE00020916101622F600F7727771F9B01220FE0
:101CF000331F260F371F2F5C3C4F412F6091B303DA
:101D00000E9428090F5FC2CFEF92FF920F931F939B
:101D1000CF93DF93EC018C81811109C081E08C832A
:101D200010922F0392E090935D0180935C0180916B
:101D300061019091620123E0829FF0011124EF5C28
:101D4000FC4F891758F110E003E06091630116170A
:101D500058F10E943F0D80915C0120912F03280FC4
:101D600020932F0390915D01980F90935D011916B8
:101D700054F4022E000C330B409163014150550B7B
:101D80002417350734F0819580935C01813009F484
:101D90001C82CDB7DEB7E6E00C94FD3211821082D2
:101DA00012828F5F3396CDCFE12EF12C70E0C70108
:101DB0000E942C3320916101820F482F50E0209126
:101DC0002F03022E000C330BE216F306BCF0209119
:101DD0005D01022E000C330B2E153F057CF0809F19
:101DE000900111242F5C3C4F4091B4036091B303E8
:101DF0008091B2030E9428091F5FA7CFFA01EE0F5E
:101E0000FF1FE40FF51FEF5CFC4F1182108212825E
:101E1000F3CFB0E0A0E0EFE0FFE00C94DC32EC01A7
:101E20008A81BB24BA9480FD02C0BB24B394A090E5
:101E300063018C81811109C081E0B8121EC08FEF4F
:101E40008A0D80932E0381E08C83F12CE12CEA141F
:101E5000B8F00E943F0D80912E0391E0B91254C05A
:101E600081114DC080916301815080932E031C82AB
:101E7000CDB7DEB7EBE00C94F83210922E03E3CF2F
:101E8000009161010E0D1F2D111DC801880F991FB2
:101E9000080F191F0F5C1C4FF8011182108212826B
:101EA00034E0C32ED12C912C80912E03890D8131E9
:101EB00014F18F70082E000C990B8E159F0591F46C
:101EC0008091B4038C9DA0018D9D500D11245595DA
:101ED00047955595479598016091B3038091B2035A
:101EE0000E9428099B0CF1E0CF1AD108E9F68FEF88
:101EF000E81AF80AACCF87FFDDCF8A0DDBCF81501F
:101F000080932E03BC82B4CF90E001966091630170
:101F100070E00E942C3380932E038C83A9CFEF9224
:101F2000FF921F93CF93DF93EC0110E0EE24EA942D
:101F3000F12C60916301161770F00E943F0D9A8199
:101F40008C8190FF27C08F5F8C83DF91CF911F9191
:101F5000FF90EF90089520916101422F410F552786
:101F6000551FCA019A01220F331F280F391F2F5CFA
:101F70003C4F70E0C7010E942C33962F8C8140911A
:101F8000B4036091B303199F800D11240E942809A6
:101F90001F5FCFCF8150D8CF9091B10390FF0EC07B
:101FA000909161012091620133E0939FF00111242F
:101FB000EF5CFC4F921718F00E943F0D089581834B
:101FC000608342839F5F3396F5CFA3E0B0E0EBEEF2
:101FD000FFE00C94E3328C018091300381110AC040
:101FE0009E012F5F3F4F4FEF6FEF0E9428098A81BC
:101FF00080933003F8016481613069F0809130038F
:1020000040E0662361F040E0623011F4409130031B
:1020100080E060E004C06091300340E080E00E9416
:10202000CC0FF801848190E0019663E070E00E949B
:102030002C3384832396E4E00C94FF32A3E0B0E0D9
:10204000E4E2F0E10C94E5329091B10390FF0AC014
:102050009E012F5F3F4F0E9428094B8169818A8131
:102060000E94CC0F2396E2E00C940133CF93DF93D0
:10207000EC01E1EBF3E0438162818C810E941E1050
:102080008C818F5F8C83DF91CF910895CF93DF9305
:10209000EC01EC81F0E0E953F84F4491E1EBF3E01F
:1020A000628181810E941E108C818F5F8C83DF9101
:1020B000CF91089580919C02811110C08091D80029
:1020C00080618093D8008AE18A95F1F700C0809101
:1020D000D90080FF0AC081E080939C0281E090914A
:1020E0009C02913009F080E0089582E080939C0288
:1020F0000E9420071092D403F1CF0E945A10882327
:1021000059F0E091B803F091B903309729F00190AC
:10211000F081E02D0995089580E008950F931F93B5
:102120000E945A10882329F00E94B9081F910F912C
:1021300008950E94B9080091D1021091D202209115
:10214000D3023091D402600F711F821F931FEECF14
:102150000E945A10882319F00E94C50808950E9411
:102160008E10CB010895CF93DF93C7EFD2E060E0EC
:10217000CE010E94EF332196C11584E0D807B9F74C
:10218000DF91CF9108951F93CF93DF93122F843067
:10219000E0F46A30D0F44930C0F4C42FD0E0CC0F62
:1021A000DD1F92E1699FC00DD11D112494EB899F21
:1021B000C00DD11D1124632FCE0187960E94EF33ED
:1021C000612FCE0188960E94EF33DF91CF911F914E
:1021D0000895AF92BF92CF92DF92EF92FF921F933A
:1021E000CF93DF9387ECC82E88E0D82ED0E076011D
:1021F000C0E014C0F50125913491412F6C2F8D2F33
:102200000E94C31082E0A80EB11C1F5F193091F725
:1022100082E1E80EF11CCF5FCA3019F0570110E0DF
:10222000E9CFDF5F84EBC80ED11CD43001F7DF911A
:10223000CF911F91FF90EF90DF90CF90BF90AF9024
:102240000895CF93C82F6FEF811162E283E290E08F
:102250000E94EF336FEFC11163E084E290E00E94CF
:10226000EF336FEFC11160E185E290E00E94EF3340
:10227000CF91089580E00E94211160E086E290E015
:102280000E94EF330E94E9100E94B31081E00E9487
:10229000211108950F931F93CF93DF93843030F56E
:1022A0006A3020F5493010F5C42FD0E0CC0FDD1F87
:1022B00022E1629FC00DD11D112434EB839FC00D1C
:1022C000D11D1124CE0187960E94DB33082F10E028
:1022D000102F0027CE0188960E94DB339801282B0F
:1022E000C901DF91CF911F910F91089590E080E097
:1022F000F8CF462F843040F47A3030F4693020F43F
:10230000672F0E944A11089590E080E00895CF92CF
:10231000DF92FF920F931F93CF93DF936C01009195
:10232000E10380919102082BC7E0D0E010E0FC2E81
:10233000C8010C2E02C0959587950A94E2F780FD9E
:102340000CC02197A0F7F12C8F2DDF91CF911F9119
:102350000F91FF90DF90CF900895B6018C2F0E94CF
:1023600079110E94180A019761F3EECFCF93DF93A2
:10237000EC010E948711BE010E9479110E94180A87
:10238000DF91CF910895FC01808191810E94B61167
:1023900092959F70963091F058F4925F9F709230B2
:1023A00058F4803F19F030F4883E30F481E008950D
:1023B0009A5FF4CF843FD1F380E00895883EB0F374
:1023C000813FD1F7F3CF83E290E00E94DB3382328A
:1023D00089F484E290E00E94DB33833059F485E293
:1023E00090E00E94DB3391E0803109F090E0892F8A
:1023F0008170089580E0FCCFCF9384E090E00E944C
:10240000DB33C82F82E290E00E94DB33982F8C2FC1
:10241000CF910895B0E0A0E0E0E1F2E10C94D73272
:10242000FC016280448081E08483E7ECF7E07490F3
:10243000E6E4F8E0E491812C75E0972EF2E0CF2EEF
:10244000DD24D394AA24AA94B12C55245A94E719D4
:102450000E2F10E080916301881638F00E943F0D26
:10246000CDB7DEB7E0E10C94F332E82CF12C82E03A
:10247000861568F09E9CF0019F9CF00D1124EF5989
:10248000FC4F8091B20380838091B303818341101C
:1024900023C09E9CF0019F9CF00D1124EF59FC4F2E
:1024A0001382128220916101C701820F911D9C014C
:1024B000220F331F280F391F2F5C3C4F9E9CF001C9
:1024C0009F9CF00D1124EF59FC4F42816181808166
:1024D0000E9428098394BECF9E9CE0019F9CD00D52
:1024E0001124CF59DC4F8B818823E9F081508B83F5
:1024F000859DC00111246C8170E00E941833FB019E
:10250000FF27E953F84F8491E82FE719E59DC001B3
:102510001124B8010E9418338091B403689FB00160
:1025200011247A83BFCF0E94A8332091B40326954B
:1025300021582C9DA0012D9D500D1124452F55276C
:10254000841795070CF0AECF82E0861588F40E94C0
:10255000A833B5010E942C3388830E94A8332091B0
:10256000B3032695622F70E00E942C33280F298335
:102570009E9CF0019F9CF00D1124EF59FC4F12829C
:102580008091B403893C58F088EC9E9CF0019F9C9C
:10259000F00D1124EF59FC4F8483838383CF843162
:1025A000A0F784E1F2CF10922C0380912D03846078
:1025B00080932D0380912A0380FF08C08EEA97E064
:1025C0009F938F930E9417070F900F90089580910B
:1025D000B1038E7F8093B10380912A0380FF0CC0EA
:1025E0001F921F9283ED96E09F938F930E9417078F
:1025F0000F900F900F900F900E94D31280912D0397
:10260000816080932D032FEF80E792E0215080407E
:102610009040E1F700C000000E943F0D0895B0E037
:10262000A0E0E5E1F3E10C94DA327C015B01842E59
:10263000752E690180919D0201E010E08A3010F44E
:102640000AE010E0C1E0D0E0B501C701F60109954C
:10265000982E811114C021960C171D07B4F4809197
:102660002A0380FF0CC07F928F9283E593E09F93B3
:102670008F930E9417070F900F900F900F90892D46
:10268000CDB7DEB7EDE00C94F632CC9F9001CD9F34
:10269000300D300D112490E080E045E34A95F1F7CC
:1026A0000000019628173907C1F7CECF6091B1031A
:1026B000669570E04BE050E081E591E00E94B83310
:1026C000892B19F481E080932C030E94A810909329
:1026D00025038093240380912D03846080932D0330
:1026E00080912A0380FF08C085E997E09F938F932C
:1026F0000E9417070F900F900895CF92DF92EF92EC
:10270000FF926B017C010E941909B701A60188E0C4
:1027100090E00E940134FF90EF90DF90CF900895F9
:10272000A3E0B0E0E6E9F3E10C94D832082FE62EFE
:10273000F42EC22E9091B10390FF57C0E92FE69579
:10274000AE2FB0E0A152BE4F8C9180932B039E7FA1
:10275000923009F04EC09E012F5F3F4F802F0E94A4
:1027600028094B8169818A810E94CC0F8091B20334
:10277000801308C08091B3038E1104C08091B4030C
:102780008F1529F080912D03826080932D03009393
:10279000B203E092B303F092B403CC2009F486C0F4
:1027A0006091B1037091B2038091B3039091B4032F
:1027B0000E947D1380912A0380FF17C08091B4038B
:1027C0001F928F938091B3031F928F938091B203D6
:1027D0001F928F9384E397E09F938F930E94170734
:1027E0000FB6F894DEBF0FBECDBF2396EFE00C947A
:1027F000F432823019F4F090B403B8CF863019F473
:102800000091B203B3CF8930D9F3893109F0AECF4B
:10281000E9518E2F8170782E8E2F80958170D82E61
:10282000E695F0E0E058F84F1491612C99E5A92E57
:1028300097E0B92E60916301661618F00E943F0D73
:1028400095CF619EC001112470E00E941833502E74
:1028500071102AC0560E862C912C80912A0380FF7D
:1028600011C01F921F931F92DF921F925F921F92BF
:102870006F92BF92AF920E9417070FB6F894DEBF17
:102880000FBECDBF20916101820E911C9401220FD9
:10289000331F280D391D2F5C3C4F4F2D6E2D852D7C
:1028A0000E9428096394C6CF561AD5CF80912A0377
:1028B00080FF9BCF1F92FF921F92EF921F920F9368
:1028C0008DE097E089CFE1EBF3E0438121E1421B0A
:1028D00008F440E021E0628181810E949013089514
:1028E000E1EBF3E0438121E1420F08F44FEF21E0F7
:1028F000628181810E9490130895E1EBF3E062818F
:1029000021E1621B08F460E021E0438181810E94A3
:1029100090130895E1EBF3E0628121E1620F08F486
:102920006FEF21E0438181810E9490130895E1EBD4
:10293000F3E0818121E04381628188500E949013FD
:102940000895E1EBF3E0818121E043816281885FBA
:102950000E94901308958091B503882319F0815047
:102960008093B5036091B1037091B2038091B3037A
:102970009091B4030E947D1308958091B503833034
:1029800018F48F5F8093B5036091B1037091B20327
:102990008091B3039091B4030E947D1308959091A8
:1029A000B10390FF45C09170811143C09260909334
:1029B000B10380912D03816080932D03662309F478
:1029C0003FC06091B1037091B2038091B3039091C5
:1029D000B4030E947D1380912A0380FF0FC0809171
:1029E000B10386951F928F9387EB96E09F938F9309
:1029F0000E9417070F900F900F900F906091B103F6
:102A0000669570E04BE050E081E591E00E94B833BC
:102A1000892B11F10E94D31281E08093270320E0DB
:102A20004091B4036091B3038091B2030E9490136C
:102A300008958B3210F09465BACF880F982BB7CFDA
:102A400080912A0380FFDACF8091B10386951F928F
:102A50008F9389E996E0CACF0E945613DDCF80910B
:102A6000B1038695815009F48AE261E00E94CF1497
:102A700008958091B10386958F5F8B3208F081E0D5
:102A800061E00E94CF1408959091B10390FF08C0B7
:102A90009695981728F0961718F40E9439150895FE
:102AA00061E00E94CF140895E1EBF3E087E18083B9
:102AB00011828FEF828383831482ABE2B3E012969C
:102AC0008C911297836012968C93608171818281C0
:102AD00093810E947D13089568EE7EEF90E080E080
:102AE0000E940D3460E082E090E00E94EF3360E0ED
:102AF00083E090E00E94EF331092910260E084E066
:102B000090E00E94EF3364E082E290E00E94EF33B5
:102B100060E085E090E00E94EF3360E086E090E0C6
:102B20000E94EF336FEF87E090E00E94EF3340E0C8
:102B300050E0BA0188E090E00E94013460E08DE04E
:102B400090E00E94EF3340E050E0BA0188E190E06D
:102B50000E94013460E087E190E00E94EF3340E0A2
:102B600050E0BA018CE190E00E94013470E060E036
:102B700080E290E00E940D3440E050E0BA0188E12C
:102B800090E00E94013480E00E9421110E943A11DD
:102B900040E050E0BA018FE090E00E94013440E054
:102BA00050E0BA0183E190E00E9401340895A8E06A
:102BB000B0E0EDEDF5E10C94E53285E0E1EBF3E01A
:102BC000DE01119601900D928A95E1F780912B0319
:102BD00090912C03A0912D038E839F83A887288535
:102BE0004091CD025091CE026091CF027091D002FF
:102BF0003FB7F8948091BD039091BE03A091BF03AD
:102C0000B091C0033FBF841B950BA60BB70B843656
:102C10009105A105B10510F4222319F180912D0130
:102C200090912E018C549D4F40912C0150E04930E1
:102C3000510510F048E050E0BE016F5F7F4F0E94E9
:102C4000D23385E090E00E945F32882369F00E94D1
:102C5000B9086093CD027093CE028093CF02909317
:102C6000D00210922D0381E02896E2E00C9401330B
:102C7000A4E0B0E0EEE3F6E10C94E4324091B0025F
:102C80005091B1026091B2027091B3022FB7F894E3
:102C90008091BD039091BE03A091BF03B091C0038A
:102CA0002FBF841B950BA60BB70B11E08436910543
:102CB000A105B10570F10E948E106E5F7F4F8F4F9E
:102CC0009F4F69837A838B839C83809125019091A8
:102CD00026018C549D4F4091240150E04530510510
:102CE00010F044E050E0BE016F5F7F4F0E94D2338E
:102CF00084E090E00E945F32182F882351F00E94F8
:102D0000B9086093B0027093B1028093B2029093BD
:102D1000B302812F2496E3E00C9400334F925F922C
:102D20007F928F929F92AF92BF92CF92DF92EF925B
:102D3000FF920F931F93CF93DF930F92CDB7DEB720
:102D4000C62E4A015901482E880F5508C2010E941B
:102D50005F32782E882309F480C0C20133E0880FE7
:102D6000991F3A95E1F7FC01EC5FFE4F438150E07B
:102D70004115510511F041E050E08C5F9E4FFC0180
:102D8000648175816C547D4FCE0101960E94D233CF
:102D9000F40140815181628173812FB7F894809151
:102DA000BD039091BE03A091BF03B091C0032FBF9C
:102DB000841B950BA60BB70B84369105A105B105B5
:102DC00040F4B701C8010E94FD089981891709F4F0
:102DD00044C00C2C000CDD08C6010E945F32782E26
:102DE000811113C0712C872D0F90DF91CF911F910E
:102DF0000F91FF90EF90DF90CF90BF90AF909F909A
:102E00008F907F905F904F900895C60123E0880FC8
:102E1000991F2A95E1F7FC01EC5FFE4F438150E0DA
:102E2000E416F50608F4A7018C5F9E4FFC0164814F
:102E300075816C547D4FC5010E94D233B701C80122
:102E40000E94FD0899818913CDCF0E94B908F40131
:102E50006083718382839383C6CFA701B801C501C4
:102E60000E94D233C0CFAAE0B0E0E9E3F7E10C94CE
:102E7000DF326B018AE0E82EF12C05EB12E09E01B7
:102E80002F5F3F4F48EA52E061E080E00E948E16DB
:102E9000882349F09AE0FE013196AEE9B2E0019054
:102EA0000D929A95E1F79AE0EEE9F2E0D6010190F1
:102EB0000D929A95E1F72A96E8E00C94FB32AEE188
:102EC000B0E0E5E6F7E10C94D7328E010F5F1F4FBB
:102ED00084E1D8011D928A95E9F76DE3E62E61E061
:102EE000F62E680172E4472E71E0572E6624639433
:102EF000712CFDE38F2EF1E09F2EF70181917F0170
:102F00008F3F09F445C0F894E82FE295EF70F0E0A8
:102F100021A18F70A30102C0440F551F8A95E2F7CB
:102F2000CA01922F982B91A392A18095892382A305
:102F3000789400C0E4E3F1E021E030E0B12CA12C72
:102F400041914F3F09F46FC0A42FA295AF70B0E03C
:102F500090968C9190E04F7002C0959587954A9518
:102F6000E2F780FD60C0C901A82AB92A220F331FE9
:102F70008E169F0629F7F701319780818F3F11F058
:102F80000E94BE0950EA5A95F1F7D601AD92BC9263
:102F9000B2E0CB0ED11C4E145F0409F0AECF44E179
:102FA00050E0B80185ED92E00E94C5337C01892B89
:102FB00041F084E1F801A5EDB2E001900D928A950F
:102FC000E1F71091EA02E114F10481F181E08093CC
:102FD00094020E94C508909393028093920280917C
:102FE0009202909193020E94AA08059798F0A5ED8D
:102FF000B2E0E12FF0E0EE0FFF1FE05FFC4F8FED3E
:1030000092E02D913D91219331938A179B07C9F747
:103010001092940281E090E0E114F10459F06E9670
:10302000E0E10C94F33290E080E09ECF8091940236
:103030008111D5CF0E945A10D82EE091EA02AE013C
:103040004B5E5F4F7A01882309F49EC08AE0DA0163
:103050001D928A95E9F70E2F10E0000F111F005FF7
:103060001C4FC0909D02B9E0BC1508F446C023E394
:1030700037E143E751E0B701C8010E940F138823ED
:1030800009F460C022EB3EE140E851E0B701C8011D
:103090000E940F13882309F455C028E336E148E85D
:1030A00051E0B701C8010E940F13882309F44AC0F8
:1030B00027ED35E143E951E0B701C8010E940F1344
:1030C000882309F43FC0F9E0FC1508F454C01092BD
:1030D0009D028091E90290E0880F991F4AE050E03C
:1030E000B701805F9C4F0E94C53321E020939B0273
:1030F000892BC9F4D12C8D2D92CF8091950290917E
:1031000096020E94AA08843F914008F0B0CF8091B7
:103110009B02882309F4C3C08AE0D7011D928A95D7
:10312000E9F710929B02A091E902B0E0AA0FBB1F41
:10313000A05FBC4F8AE0FE01759601900D928A95C2
:10314000E1F7D9CF80919D028F3F31F08F5F80935F
:103150009D028A3008F4BDCF0E94C5089093960264
:103160008093950280912A0380FFD1CF8DE193E077
:103170000E947E06CCCF80912A0380FFA8CF8AE0F0
:1031800093E00E947E06A3CFF0E0EE0FFF1FE05F0A
:10319000FC4F8AE0A5EBB2E001900D928A95E1F731
:1031A0006AE070E085EB92E00E94FD088093B40233
:1031B00040910C0350E060910B0370E0695F7C4F1D
:1031C000C7010E94D2338D898093C00261E070E014
:1031D000C7010E94FD088093BF02C090C102D09039
:1031E000C202E090C302F090C402809197029091D5
:1031F0009802A0919902B0919A02C816D906EA06DF
:10320000FB06D1F0C0929702D0929802E092990208
:10321000F0929A020E945A1081110EC00E94B908C1
:10322000C61AD70AE80AF90AC092D102D092D2028D
:10323000E092D302F092D4028091CC02882379F1FB
:1032400080FF0DC08091C50280FF2BC09091B1031B
:1032500091609093B10360E086950E94CF148091B5
:10326000CC0281FF09C020E04091C8026091C702F2
:103270008091C6020E9490138091CC0282FF06C00A
:103280008091CB02882381F00E9456138091CC025A
:1032900083FF03C081E0809327031092CC0280E07B
:1032A000BECE0E94E712DBCF0E94D312EFCF0F9366
:1032B0001F93CF93DF9380918F0290918E02892B81
:1032C0008093200290919002992391F0892B809312
:1032D000200220E082E292E0FC013191CF01311125
:1032E0002F5FF2E088329F07B9F721110E94980BF7
:1032F00048E050E066E872E080E292E00E94C53368
:10330000892B09F441C088E0E0E2F2E0A6E8B2E0EF
:1033100001900D928A95E1F7E091B803F091B9031D
:10332000309791F10280F381E02D80E292E00995DF
:1033300080912A0382FF28C080FF04C088EF92E0BA
:103340000E947E06D0E0C0E002EF12E080912A03E6
:1033500080FF0EC0FE01E05EFD4F80811F928F93C3
:103360001F930F930E9417070F900F900F900F90CD
:103370002196C830D10551F780912A0380FF04C0FF
:1033800080EF92E00E947E06DF91CF911F910F9116
:10339000089590E080E00E94E70890E080E00E94BD
:1033A000D10810928E020E94571908958093E1036C
:1033B0000E94C91908958091E103982F9670963064
:1033C00021F488600E94D6190895877FFBCF21E001
:1033D00030E001C0220F8A95EAF720958091E10341
:1033E00082230E94D61908959091850280958923A1
:1033F00080938502282F277091F4282F082E000C27
:10340000330B9217130659F09091EC0292FF07C00C
:103410008595859585950E94E719109285020895F6
:10342000CF93DF93D82FC091EC02C2FB882780F99D
:103430008D1711F1D0FBC2F9C093EC026091EB0241
:1034400084E090E00E94EF336C2F82E290E00E94D3
:10345000EF3382E00E94F41980912A0380FF0CC0B0
:103460001F92DF938BED92E09F938F930E9417073B
:103470000F900F900F900F90DF91CF91089521E062
:1034800030E001C0220F8A95EAF78091E103822B98
:103490000E94D6190895809391020E94C919089537
:1034A00010928F02E2E2F2E086E0DF011D928A953F
:1034B000E9F70E94C9190895AAE2B0E0E2E6FAE14C
:1034C0000C94E43286ED93E02091F100DC012D9321
:1034D000CD01B3E08E3D9B07B9F78091D7038330D0
:1034E00009F472C0B8F4813009F449C0823009F49B
:1034F000B3C08091E80083FF91C28091D603909180
:10350000D7039A3008F08AC2E92FF0E0E857FB4C65
:103510000C9440338A3009F48EC08B3009F471C0AA
:10352000893039F78091D603813219F78091DA0317
:103530009091DB03009711F00297D9F68091E80093
:10354000877F8093E8008091E80082FF38C09091E7
:10355000F3008091F200029731F48091F100813004
:1035600011F0863021F48091F1008093C90380919D
:10357000E8008B778093E8000E949A07BACF809189
:10358000D603813A09F0B5CF8091E800877F809318
:10359000E8008091DA039091DB03892B61F468E005
:1035A0008AEC93E070E00E9446088091E8008B77F7
:1035B0008093E8009ECF60E090E080E0F3CF8091C0
:1035C000D4038111C0CF95CF8091D603813A09F001
:1035D00090CF8091DA039091DB03892B09F089CF9A
:1035E0008091E800877F8093E8008091E80080FF69
:1035F000FCCF809164018093F1008091E8008E7788
:10360000B9CF8091D603813209F073CF8091DA036C
:103610009091DB03892B09F06CCF8091E800877FC4
:103620008093E8000E949A078091D80380936401F8
:103630000E94501A5ECF8091D603813209F059CF93
:103640008091E800877F8093E8000E949A0780912C
:10365000D9038093C8034DCF8091D603813A09F0F6
:1036600048CF8091E800877F8093E8008091E80050
:1036700080FFFCCF8091C803BECF803899F082389C
:1036800009F0CCC18091DA038F70873008F0C6C191
:103690008093E9008091EB0085FB882780F91092E8
:1036A000E90006C08091D2039091D303911182600A
:1036B0009091E800977F9093E8008093F10010923A
:1036C000F1008091E8008E77A5C1882309F493C1A9
:1036D000823009F0A3C18091D803811196C18091F5
:1036E000DA038F702FEF280F263008F097C18093F0
:1036F000E9002091EB0020FF88C1933031F48091E4
:10370000EB0080628093EB0080C19091EB009061B0
:103710009093EB0021E030E001C0220F8A95EAF798
:103720002093EA001092EA008091EB008860EACFD3
:10373000811174C11091D8031F778091E3008078C4
:10374000812B8093E3008091E800877F8093E800DD
:103750000E949A078091E80080FFFCCF8091E300EF
:1037600080688093E30082E0111183E08093D403AA
:1037700055C18058823008F051C12091D803309152
:10378000D9032C3DE3E03E07A1F583E08A838AE27A
:1037900089834FB7F894DE01139620E03EE051E2B2
:1037A000E32FF0E050935700E49120FF03C0E2952F
:1037B000EF703F5FEF708E2F90E0EA30C0F0C79659
:1037C0008D939D932F5F243159F74FBF8091E8006F
:1037D000877F8093E8006AE270E0CE0101960E9444
:1037E00046088091E8008B778093E80017C1C09667
:1037F000E7CF8091DA039091DB03432F55274330C5
:10380000510509F44AC078F54130510509F47AC0F0
:103810008BE790E0EBEAFBE04230510509F0FEC097
:103820002091E800277F2093E8002091DC0330916D
:10383000DD038217930708F49C0140E02115310550
:1038400009F065C0411163C08091E80082FDC9CFD5
:103850008091D403882329F2853019F28091E80001
:1038600083FFF2CFBECF4132510509F43CC0423252
:10387000510509F0D3C08430910508F0CFC0FC0198
:10388000EE0FFF1FE25FFD4F0190F081E02D865F9C
:103890009D4FDC018C9190E01AC033272130310517
:1038A000D1F02115310561F02230310509F0B6C0A3
:1038B000E8E3FCE0E4918E2F90E0E8E3FCE007C051
:1038C000ECE6FCE0E4918E2F90E0ECE6FCE0009763
:1038D00009F4A4C0A5CFECE5FCE0E4918E2F90E0C4
:1038E000ECE5FCE0F4CF8430910508F097C0880F38
:1038F000991FFC01EA5EFD4F0190F081E02D89E007
:1039000090E08ECF82E190E0E6E2FCE089CF80910A
:10391000D403882309F465CF853009F462CF809100
:10392000E80083FD5ECF8091E80082FD8DCF80911D
:10393000E80080FF83CF9091F3008091F200211581
:10394000310519F08830910550F041E0089709F0F1
:1039500040E08091E8008E778093E8006FCF44913B
:103960004093F1003196215031090196E8CF80381B
:1039700009F054C08091E800877F8093E80080912F
:10398000D5038093F1009DCE811148C01091D803DA
:10399000123008F043C08091E800877F8093E800F0
:1039A0001093D5030E949A07112311F084E005C0FB
:1039B0008091E30087FDFACF81E08093D40342E059
:1039C00061EC81E00E94B90742E261EC84E00E9470
:1039D000B90742E261EC82E00E94B90742E260EC82
:1039E00083E00E94B90742E261EC85E00E94B907DA
:1039F0008091D40313C08091D803813079F481E0A1
:103A0000933009F080E08093D3031092E900809115
:103A1000E800877F8093E8000E949A078091E80081
:103A200083FF0AC08091E800877F8093E80080913F
:103A3000EB0080628093EB00AA96E3E00C940033E5
:103A40000E94501A2FEF84E39CE021508040904068
:103A5000E1F700C0000088E19CE00FB6F894A8955B
:103A6000809360000FBE90936000FFCF882321F009
:103A70000E949E0B0E9457190895882339F0909157
:103A80008F02982B90938F020E94571908958823D4
:103A900009F44DC0823879F40E947D1081FF47C03F
:103AA00089E30E94B20B0E94571989E30E94A50B7B
:103AB0000E9457190895833859F40E947D1080FFA1
:103AC00036C083E50E94B20B0E94571983E5EECF02
:103AD000843859F40E947D1082FF29C087E40E9437
:103AE000B20B0E94571987E4E1CF9CEF980F913AEF
:103AF000E8F290E2980F983050F4877091E001C09E
:103B0000990F8A95EAF7892F0E949E0BD1CF9BE5EA
:103B1000980F933028F490E080E00E94E708089521
:103B2000885A873120F490E080E00E94D1080895FF
:103B3000CF93C82F8823C9F08238C9F40E947D1022
:103B400081FD13C089E30E94B20B0E9457192FEF29
:103B500081EE94E0215080409040E1F700C00000E9
:103B600089E30E94A50B0E945719CF9108958338CD
:103B7000A1F40E947D1080FDF8CF83E50E94B20B76
:103B80000E9457192FEF81EE94E021508040904021
:103B9000E1F700C0000083E5E4CF8438A1F40E947F
:103BA0007D1082FDE2CF87E40E94B20B0E9457197C
:103BB0002FEF81EE94E0215080409040E1F700C06B
:103BC000000087E4CECF8CEF8C0F813A68F4E2E2FC
:103BD000F2E08191C817A1F122E0E832F207C9F7BB
:103BE0008C2F0E94B20BBFCF80E28C0F883068F41C
:103BF000C77021E030E001C0220FCA95EAF780913A
:103C00008F02822B80938F02AECFEBE5EC0FE33077
:103C100040F4F0E0E456FE4F808190E00E94E70817
:103C2000A4CFC85AC73108F0A0CFEC2FF0E0EE0FB8
:103C3000FF1FE156FE4F808191810E94D10895CFF0
:103C40008C2F0E94A50B0E945719CACF1F93CF93A8
:103C5000DF93182FD0E0C0E0893311F4C0E5D0E045
:103C6000812F0E94981D209739F4812F0E94471DB3
:103C7000DF91CF911F9108958FE99FE00197F1F7B0
:103C800000C000002197EFCF0F931F93CF93DF93D6
:103C9000C62FD42F022FFC0182818823A9F06093C4
:103CA000E0030E94C5089093DF038093DE03C77092
:103CB00081E001C0880FCA95EAF70E943D1DDF919F
:103CC000CF911F910F9108958091E003681332C046
:103CD0008091DE039091DF030E94AA08883C910541
:103CE00048F510E21D0FCD17B9F080E28C0F883037
:103CF00040F4C77081E001C0880FCA95EAF70E94BE
:103D0000361D183048F481E09D2F977001C0880F50
:103D10009A95EAF70E943D1D802F0E94261E1830BA
:103D200070F6D77081E001C0880FDA95EAF70E943B
:103D3000361DC5CFC77081E001C0880FCA95EAF76C
:103D4000F6CF811108C08EE4611101C08BE40E949E
:103D5000261E80E008958130E1F789EA6111F7CFEE
:103D60008AEAF5CFA1E0B0E0E8EBFEE10C94DE32A8
:103D7000EE24E394F12C00EC12E09E012F5F3F4F04
:103D80004CEA52E063E082E00E948E16C82E88233F
:103D900039F100E080E01DC0D090EF02D00E2D2D53
:103DA00030E0A901495F5C4F7A01E1E0F0E0EC0FFF
:103DB000FD1FE00FF11D1081FA019081191BB12E3A
:103DC0001B149CF0912F17FD90E0191B111118C0C6
:103DD0000F5F9091EE020917F8F281110E94950B86
:103DE0008C2D2196E9E00C94FA32BA94F701808187
:103DF0008F5F808360E08D2D0E94A11E8C2DE0CF0F
:103E00001F5FF70180818150808361E08D2D0E94CA
:103E1000A11E8C2DDBCFA5E0B0E0E1E1FFE10C9429
:103E2000D6328C01FC0183819481892B31F0808111
:103E3000918189238F3F09F0ABC52596E1E10C9470
:103E4000F2320E948711F82E682F89819A810E9490
:103E5000090C69817A818F2D0E9479117C01F8010A
:103E60008281882309F487C5970122513F4520317B
:103E7000310508F053C58FEF93E00E94DB338111C9
:103E800028C0FEEEEF0E57EF852E52E0952EE11082
:103E900032C01C821B82442443944AE0342E7401B5
:103EA0008FEFE81AF80AC4010E94DB3389831A8273
:103EB000882379F09FEF980F933058F58A834982D1
:103EC00092E0890E911CC7010E94DB338B83811124
:103ED00021C080918502877009F4AFCFF8018281FB
:103EE000882309F4AACF8091EC0282FFA6CF82E05A
:103EF0000E94F419A2CF811424E0920651F3C40168
:103F00000E94DB33811101C0EA943FEF831A930AC8
:103F1000BECF4701FE0131967F01F70120812223A8
:103F200009F4BDCF213009F047C0918182819130E1
:103F300031F4F2E0EF0EF11C0E94261E07C0923011
:103F400049F422E0E20EF11C0E94981D3FEFE31AB3
:103F5000F30AE3CF933031F432E0E30EF11C0E9418
:103F6000471DF4CF943021F08FEFE81AF80AEECF16
:103F700092E0E90EF11C30E020E0B7016F5F7F4F67
:103F8000F70141818053990B8A30910550F02150FF
:103F90003109E0F28FE99FE00197F1F700C00000DE
:103FA000F6CF329EF001339EF00D11249C012E0FAE
:103FB0003F1F842F7B01E1CFE22FF0E0EE56FE4F52
:103FC0005490822F86958695869590E0FC01EE5759
:103FD000FE4F64902770712C022E02C07594679476
:103FE0000A94E2F7E1E06E227724FC01EE58FE4FDE
:103FF000A490B12C022E02C0B594A7940A94E2F7C3
:10400000F1E0AF22BB24FC01EE59FE4FC490D12C4D
:1040100002C0D594C7942A95E2F721E0C222DD249C
:104020006114710419F081EE0E94981DA114B1046D
:1040300019F086EE0E94981D852D0E94261EA1145F
:10404000B10419F086EE0E94471D6114710419F045
:1040500081EE0E94471DC114D10409F477CF8CE290
:104060006BCF81E00E943F1A0E94DB1932CF81E0C2
:104070000E94E719F9CF82E0F5CF95EFE9169CE5AC
:10408000F90609F46CC008F466C027E245EE66EE56
:10409000F6EFEF16FCE5FF0609F469C4882309F47E
:1040A00088C41092E00323E0E2162DE5F20608F042
:1040B0005DC03AEFE3163CE5F30630F4C7018250E9
:1040C0009C45449708F05EC00E94FC119093EC025E
:1040D0008093EB02E1E1EE16ECE5FE0609F436C151
:1040E00008F0A4C029E0E2162CE5F20609F41CC190
:1040F00008F06DC085E0E8168CE5F80609F408C103
:1041000008F056C0E3E0EE16ECE5FE0609F4F6C052
:1041100008F0FAC08091EB02816022E0E2162CE503
:10412000F20609F4EEC06091EB02F090EC0284E03C
:1041300090E00E94EF336F2D82E290E00E94EF3317
:104140000E94501AC6CE27E245EE65EE10C426E264
:1041500041EE60EE0CC427E245EE64EE08C426E2B0
:1041600041EE62EE04C428E241E0EFCF81E6E816BA
:104170008DE5F80609F4A8CF95EAE9169DE5F9065C
:1041800009F4A2CF36E1E3163CE5F30609F0FFC4DB
:1041900080918F028A7A91E009F490E0909328024E
:1041A000811102C189E20E94B20B0E94571991CE7F
:1041B0008091EB02806237E0E3163CE5F30609F4F8
:1041C000A0C008F4ADC08091EB0280649AC08091D9
:1041D000EB028B7F9DE0E9169CE5F90609F491C09E
:1041E000B0F48091EB028E7FFBE0EF16FCE5FF065A
:1041F00009F487C08091EB028C602CE0E2162CE57C
:10420000F20608F47EC08091EB028D7F7AC0809127
:10421000EB028F7E3FE0E3163CE5F30609F471C044
:1042200008F488C08091EB028F7D6BC09DEFE9168A
:104230009CE5F90609F486C078F5F5E1EF16FCE592
:10424000FF0609F491C0A0F48091EB02837F33E173
:10425000E3163CE5F30609F454C008F47BC00E9461
:10426000501A9091EB02892F97FB87F9805849C02B
:104270009BEFE9169CE5F90609F44EC008F05EC014
:104280008091EC028160FAEFEF16FCE5FF0609F081
:104290004ACF8093EC0247CF21E0E2162DE5F206EB
:1042A00009F46EC0B8F48FEFE8168CE5F80609F44F
:1042B00057C08091EC028360E1149DE5F90648F354
:1042C0008091EC02982F909591708E7F892B90FBB6
:1042D00081F9DFCFE1E6EE16EDE5FE0609F456C002
:1042E000F5EAEF16FDE5FF0609F457C022E0E216F5
:1042F0002DE5F20609F017CF60E043C08091EB0294
:1043000082608093EB020FCF8091EB028460F9CF43
:104310008091EB028860F5CF8091EC028260B9CF8A
:104320008091EB028061EDCF0E94501A8091EB02E8
:104330008068E7CF8091EB02877FE3CF8091EC022A
:104340008E7FA7CF8091EC028D7FA3CF8091EB026F
:104350008F7BD7CF0E94501A8091EB028F77D1CFFD
:104360008091EC028C7F95CF8091EB0282FB9927A4
:1043700090F921E0922790FB82F990FB83F9C1CF5D
:1043800061E08EE090E00E94EF33CDCE9091EB02A1
:10439000892F8F7E94FF8061B4CF9091EB02892F9B
:1043A0008E7F90FF8160ADCF85E3FDCE80912802A6
:1043B000811104C089E20E94A50BF7CE85E3FBCFF3
:1043C00081608093B10380912A0380FF0DC01F920A
:1043D00081E08F938AE492E09F938F930E94170766
:1043E0000F900F900F900F908091B10361E0869530
:1043F0000E94CF146ECD4FE255E169E375E10E9452
:10440000130967CD49E355E16FE275E1F8CF41EA61
:1044100054E167E974E1F3CF4DE754E16AE874E1F0
:10442000EECF43E654E160E774E1E9CF40E754E1C1
:1044300063E674E1E4CF4DEB54E16BEA74E1DFCF66
:1044400061E081E0D5CF65E082E00E94441541CD76
:1044500068E086E0FACF64E18FE0F7CF67E185E1BD
:10446000F4CF62E289E1F1CF61E083E2C1CF9091C4
:104470002A03892F8E7F90FF816080932A0380FF1B
:1044800005C08AEC92E00E947E0623CD88EB92E084
:10449000FACF0E946C150E94201D8091EC0282FBD5
:1044A000882780F991E089270E94101AF8018281FB
:1044B000E080F180882309F445C0C7010E9487117C
:1044C000D82E682FC7010E94090CB7018D2D0E94BC
:1044D00079110E94180A7C01882EF801D280B580DB
:1044E000B2943FE0B322809185028770C1F0AD2C79
:1044F000DD20B1F08F2D807F803421F080E28E0DA1
:10450000883068F08091EC0282FF09C082E00E944E
:10451000F419809185028770AA24A3948111A12C9B
:104520009F2C92942FE09222FBE0F91508F479C0B9
:10453000E92DF0E0EE56FB4C0C94403381E0B4CF13
:1045400080E0B2CFC7010E94D50BD82EBECF2F2D51
:104550002F70C22E8F2D807F19F0C29490EFC92248
:10456000DD20B9F0CC2069F080E28E0D883010F0AB
:10457000811009C080918F02C82AC0928F020E94C8
:1045800057198E2D4CC080918E02C82AC0928E027F
:10459000F6CF8E2D0E94471DCC2009F442C080E248
:1045A0008E0D883010F0811004C08C2D0E949E0B5F
:1045B00006C0C09480918E02C822C0928E020E94D2
:1045C00057192FC03F2D3F70C32E8F2D807F803213
:1045D00019F0C29480EFC822882089F081E0881603
:1045E00009F468C0DD2009F472C0BB2009F468C07A
:1045F000F801858180FFC5CF8F70858361C02091D0
:10460000EC0222FD35C0DD2069F1CC2039F080912B
:104610008F02C82AC0928F020E94571980E00E9420
:10462000981D292D2850330B2430310510F40E9499
:104630007D10AA2009F401CC8091850280FDFDCB7C
:10464000F80112828595859585950E943F1AC801CB
:104650000E940B1F809185028595859585950E9406
:10466000E719EBCB80E00E94471DCC20D1F29DCF13
:10467000DD2099F0909190028C2D892BB11003C010
:104680000E943D1DCECFE1E0BE12FACF22FFC9CF7E
:10469000981739F280939002C4CFB11006C00E94DF
:1046A000980B8C2D0E94361DBCCFF1E0BF1609F48B
:1046B000B8CFF5CFDD2031F025E02B1508F4B1CFD0
:1046C0008C2DDECF34E03B1508F4ABCFEACFBB2016
:1046D00041F3F9E38F1209C02FEF37EE83E0215049
:1046E00030408040E1F700C000008E2D0E94471D41
:1046F00098CF8F2D86958695837061F0813009F073
:1047000090CFC7019370D11002C090E080E00E946A
:10471000D10887CFC7019370D11002C090E080E02C
:104720000E94E7087ECF8F2D837091F5D11079CF4D
:104730004E2D429546954770440F440F8E2D8F7035
:10474000042E01C0880F0A94EAF72E2D2071E4FE92
:1047500007C02FE030E001C0220F4A95EAF720950C
:104760003F2D369536953370323069F050F44091D4
:104770009102313029F0822B84230E944B1A51CFB1
:10478000842B822BFACF282B809191028227F5CFA0
:104790008695DD2011F08F2D8170882309F441CF9B
:1047A0004E2D429546954770440F440F8E2D8F70C5
:1047B000042E01C0880F0A94EAF72E2D2071E4FE22
:1047C00007C02FE030E001C0220F4A95EAF720959C
:1047D0003F2D369536953370323069F050F4409164
:1047E000E103313029F0822B84230E94D61919CF9E
:1047F000842B822BFACF282B8091E1038227F5CFDF
:104800009F2D9F70F92EDD2029F0892F0E943F1ADD
:104810008E2D36CF8E2D0E94361D8F2D0E94E719CA
:1048200000CF8E2DE2EF8E16B1F1E81570F0F0EFAB
:104830008F16D1F021EF821691F0DD2009F45EC0D1
:10484000B1109FCE8F2D8F712AC033EF831651F197
:1048500094EF8912F2CF8091EC0282FD2FC08F2D50
:104860008F71DD20D9F21BC0DD2081F0E4E0EB1573
:1048700008F4D7CE2F2D2F7181E090E001C0880F72
:104880002A95EAF79091E1038927AFCFF5E0FB1570
:1048900008F4C7CEEFCF8F2D8F71D110BFCF0E94FC
:1048A0003F1ABFCE80E0DD2009F49FCF9F2D9F717E
:1048B00081E001C0880F9A95EAF797CFDD2099F043
:1048C0002F2D2F71F22E822F0E943F1A8091EC0221
:1048D00082FF07C038E0F39EC001112483608093FB
:1048E00085028F2DDCCF81E00E94F41981E08B15C9
:1048F00008F097CE82E00E94F41993CEBB2059F0C5
:10490000893309F0F2CE9FEFE7EEF3E09150E040FB
:10491000F040E1F7E8CE8F2D8F7180CFF0E1EF16F8
:10492000FFE5FF0609F49DCB21E1E2162FE5F20633
:1049300009F4A1CB93EFE9169CE5F90609F407CC3D
:1049400008F09BCBF8EDEF16FCE5FF0609F4FBCB76
:1049500029EDE2162CE5F20609F405CC37EDE31655
:104960003CE5F30609F09ACB26E241EE61EEC80180
:104970000E94441EAECA30E1E3163FE5F30609F497
:1049800076CB91E1E9169FE5F906A1F682E070CBBE
:1049900085E0DE01119601900D928A95E1F7F8010C
:1049A000228189819A8121114CCA0E94D50BF82E4F
:1049B00050CAF6E1EF16FCE5FF0609F4F7CC80914A
:1049C0008F0282722CECE2162CE5F20609F433CD4C
:1049D00008F09BC096ECE9169CE5F90609F417CDA2
:1049E00008F06AC0F3ECEF16FCE5FF0609F403CD0E
:1049F00008F051C032ECE3163CE5F30609F056CD61
:104A000080912A0380FF10C08091B103809581704E
:104A10001F928F9381E892E09F938F930E941707D4
:104A20000F900F900F900F908091B10380FFC8CC32
:104A30008E7F8093B1036091B1037091B203809136
:104A4000B3039091B4030E947D1380912A0380FFE9
:104A50000FC08091B10381701F928F9382E192E029
:104A60009F938F930E9417070F900F900F900F90B6
:104A70000E94D31280912D03816080932D038FEFCC
:104A800090E7E2E081509040E040E1F700C0000094
:104A90000E943F0D1ECA94ECE9169CE5F90609F444
:104AA000B1CC47E954E161EA74E1E5ECEE16ECE5DE
:104AB000FE0609F4A4CCFACCF9ECEF16FCE5FF06EF
:104AC00009F4AFCC88F437ECE3163CE5F30609F4BF
:104AD000A3CC4AE854E16DE774E198ECE9169CE553
:104AE000F90609F48CCCE2CCEAECEE16ECE5FE0615
:104AF00009F49CCC4BEA54E16DEB74E1FBECEF164E
:104B0000FCE5FF0609F47BCCD1CC21EDE2162CE5C7
:104B1000F20609F4A0CCB8F48EECE8168CE5F806A1
:104B200009F491CC08F48CCCEFECEE16ECE5FE0623
:104B300009F48ECC6EE089E0F0EDEF16FCE5FF069F
:104B400009F483CCB3CC24EDE2162CE5F20609F48B
:104B500088CC78F482EDE8168CE5F80609F47ECC72
:104B600061E088E193EDE9169CE5F90609F440CC93
:104B70009DCCE5EDEE16ECE5FE0609F475CC6AE297
:104B800085E2FDE5EF16FF0609F45FCC8FCC2AE540
:104B9000E2162DE5F20609F4D1CCF0F481E0E81636
:104BA0008CE5F80609F463CC9EEDE9169CE5F90660
:104BB00009F46FCCE114ECE5FE0609F077CC0E9415
:104BC000501AFFEF24E33CE0F15020403040E1F781
:104BD00000C000000E941B0DFCE5EF16FDE5FF067E
:104BE00009F45BCC08F4ACCC37EAE3163DE5F306F8
:104BF00009F451CC5BCC1F93CF93DF938091520289
:104C0000807F09F049C080914F02882309F444C095
:104C100080918402D091530260914D0270914E02B6
:104C2000A0915002B0915102C62FC72316E0D817A9
:104C300099F190E0109711F0CF3F19F40196877029
:104C4000F6CF189F9001199F300D1124F901EC5AED
:104C5000FD4F41814713F2CF40814613EFCF428190
:104C60004111ECCF438154814A1B5B0B483C5105F9
:104C700028F7809152028F70806180935202F9016F
:104C8000E75AFD4F80818F70806180838DE492E0D0
:104C90000E940B1F0E94CB0BDF91CF911F910895B3
:104CA000A1E1B0E0E6E5F6E20C94DD328C0185E0AE
:104CB000F801DE011D9601900D928A95E1F7F80149
:104CC000E2808DE4A82E82E0B82E609150027091AF
:104CD00051026115710509F426C190914D02409170
:104CE0004E02892F84238F3F09F41DC12081318119
:104CF000C380D480F0904F02F601E61BF70BFF2033
:104D000009F4DCC080915202582F507FE83CF10535
:104D100008F09FC051116BC0FE2C431314C09213B6
:104D200012C0E11010C08F70806180935202C501E3
:104D30000E940B1F80915202F80185838F2D61968E
:104D4000EAE00C94F932C114D10429F0822F8323B4
:104D50008F3F09F003C180E0F82FF170DF2E80FF54
:104D60003CC0809184024091530256E0841315C0E8
:104D70002D873E878D859E850E94B611292F22950D
:104D80002F702230F0F0243018F59F70F1F0F80108
:104D90009581907FD1F4D12C1EC090E0589FF001F6
:104DA000599FF00D1124EC5AFD4F6181361306C056
:104DB0006081261303C06281E6120FC001968770DE
:104DC000D5CF9F7011F0882331F3805E883018F3BF
:104DD000C8010E940B1FFD2CB1CFEE2009F4AECF0D
:104DE00080915202816080935202F12CA7CF43132D
:104DF00006C0921304C0F801EE2009F479C0C8017E
:104E00000E94C311882309F1EE20F9F0809152022B
:104E1000803270F020914D0230914E0238872F83FE
:104E20001986DB86CA868C87CE0107960E940B1FE7
:104E300086E0F801ADE4B2E001900D928A95E1F7C9
:104E40000E94FB25FF24F39479CFC8010E940B1F19
:104E5000F9CF51110AC08DE492E00E940B1F86E049
:104E6000F50111928A95E9F7C0CF43130FC0921351
:104E70000DC0E1100BC0F8018583C8010E940B1F13
:104E800086E0F50111928A95E9F758CFC8010E9492
:104E9000C3118823D1F2EE20C1F2809152028032F8
:104EA00038F220914D0230914E023A8329831B82C1
:104EB000DD82CC828E83CE010196B8CFE83CF1052D
:104EC000F8F6FE2CEE2009F243131FC092131DC00A
:104ED0008091520280FD10C0982F907F69F0F801F8
:104EE0008583903F31F0982F907F905F8F70892B52
:104EF0008583C8010E940B1F86E0F801ADE4B2E093
:104F000001900D928A95E1F719CFC8010E94C31153
:104F100081118ECF80915202816080935202C8012C
:104F20000E940B1F0BCFEE2009F48FCFC8010E9407
:104F3000C311F82E882309F488CF86E0F801ADE488
:104F4000B2E001900D928A95E1F780914D02909127
:104F50004E020E94B6110E94FB25F0CE81E08E2504
:104F6000FBCEA7E1B0E0E7EBF7E20C94E4324B8B29
:104F70005C8B6D8B7E8B8F8B611110928E021A8AE7
:104F8000198A85E0FE017396DE011D9601900D924F
:104F90008A95E1F786E0FE013D96DE0117960190C5
:104FA0000D928A95E1F7CE0107960E94502688233C
:104FB00059F016E08091840290915302891343C006
:104FC0006796E3E00C94003386E0FE013796DE013D
:104FD000119601900D928A95E1F78A859B85892B20
:104FE00041F38F81988589238F3F19F320915302D4
:104FF00030E0C901019687709927409184024817D3
:10500000190671F40E94501A1092530210928402F1
:1050100086E0EDE4F2E0DF011D928A95E9F7C9CF61
:1050200096E0929FD001939FB00D1124AC5ABD4FD2
:10503000FE01319601900D929A95E1F7809353020B
:105040000E94CB0BB6CF819FC00111248C5A9D4F7B
:105050000E945026882309F4B3CF8091840290E007
:1050600001968770992780938402A4CF90E080E016
:105070000E94E933883E9E4F19F40E94E31108957F
:1050800080E008951F920F920FB60F9211242F9374
:105090003F934F935F936F937F938F939F93AF93C0
:1050A000BF93CF93DF93EF93FF93D091E900DF702D
:1050B0008091EC00C82FC17080FDC0E81092E9001B
:1050C0008091F000877F8093F00078940E945C1AB2
:1050D0001092E9008091F00088608093F000CD2B61
:1050E000CF70C093E900FF91EF91DF91CF91BF9115
:1050F000AF919F918F917F916F915F914F913F9170
:105100002F910F900FBE0F901F9018951F920F9226
:105110000FB60F9211242F933F934F935F936F938A
:105120007F938F939F93AF93BF93EF93FF93809160
:10513000E10082FF15C08091E20082FF11C08091E2
:10514000E1008B7F8093E1002091C6032F5F822FC7
:1051500062E30E940C33992309F4C0C02093C60374
:105160008091DA0080FF28C08091D80080FF24C0A1
:105170008091DA008E7F8093DA008091D90080FFE1
:10518000E3C080E189BD82E189BD09B400FEFDCFA5
:1051900081E08093D40387E99BE00E947E068091A2
:1051A000C703811109C00E9420070E94EB0780916C
:1051B000E20084608093E2008091E10080FF1BC0E8
:1051C0008091E20080FF17C08091E2008E7F809383
:1051D000E2008091E20080618093E2008091D8003B
:1051E00080628093D80019BC85E08093D4038FE956
:1051F0009BE00E947E068091E10084FF2FC0809199
:10520000E20084FF2BC080E189BD82E189BD89B5C0
:10521000982F917080FFFBCF8091D8008F7D809375
:10522000D8008091E1008F7E8093E1008091E200C0
:105230008F7E8093E2008091E20081608093E200A3
:105240008091D503882309F489C084E08093D40336
:1052500083EA9BE00E947E068091D4038091E10066
:1052600083FF2BC08091E20083FF27C08091E10083
:10527000877F8093E10082E08093D4031092D5036E
:105280008091E1008E7F8093E1008091E2008E7F2B
:105290008093E2008091E20080618093E20042E02E
:1052A00060E080E00E94B9078091F0008860809300
:1052B000F00087EA9BE00E947E06FF91EF91BF918C
:1052C000AF919F918F917F916F915F914F913F919E
:1052D0002F910F900FBE0F901F9018951092C6033C
:1052E0008091C503882309F43BCF8091D403843097
:1052F000C1F49091E9009F702091EC00822F8170A1
:1053000020FD80E8892B95E09093E9009091EB00D7
:1053100090FF04C09091EE0097FD08C08F708093BD
:10532000E9001092C5031CCF1092F1009091E800A3
:1053300095FDFACF9091E80090FFF0CF9091E800B2
:105340009E779093E800EACF19BC1092D4038BE9C2
:105350009BE00E947E061092C7032ECF8091E3004F
:1053600087FD93E09093D40373CF78941F921FB678
:105370001F9211248F939F93AF93BF938091BD038E
:105380009091BE03A091BF03B091C0030196A11DEF
:10539000B11D8093BD039093BE03A093BF03B09350
:1053A000C003BF91AF919F918F911F901FBE1F901F
:1053B00018951F921FB61F9211248F939F93AF933E
:1053C000BF938091BC03811113C08091BD03909164
:1053D000BE03A091BF03B091C0034196A11DB11DB2
:1053E0008093BD039093BE03A093BF03B093C0030B
:1053F000BF91AF919F918F911F901FBE1F901895E5
:10540000CDB7DEB7AF970FB6F894DEBF0FBECDBFF6
:1054100085B7806885BF85B7806885BF84B7877F7B
:1054200084BF0FB6F894A89580916000886180933E
:105430006000109260000FBE80E890E00FB6F89414
:1054400080936100909361000FBE88E59CE090938B
:105450001F0280931E020E9420070E94EB0780918A
:10546000E20084608093E20078948091D4038823E2
:10547000A1F01091E9001F709091EC00892F8170CC
:1054800090FD80E8182B1092E9008091E80083FDE0
:105490000E945C1A1F701093E90082E084BD93E0C3
:1054A00095BD9AEF97BD80936E001092D102109235
:1054B000D2021092D3021092D4020E94E311811101
:1054C00002C00E943A1187988F988FB1881F882751
:1054D000881F8093420180914201882309F498C07B
:1054E00010925F0188E0809360010E945A10811140
:1054F0000E9473318091420181112CC085E0E5E664
:10550000F1E0DE01919601900D928A95E1F789A173
:1055100080933D018AA180933E018BA180933F013E
:105520008CA1809340018DA18093410189E0EAE63E
:10553000F1E0DE01119601900D928A95E1F7FE01EE
:105540003196A4E3B1E0CE010A9621912D93E8179C
:10555000F907D9F78091420195E0811190E090938D
:10556000EA0285E0891B8093E9020DE311E0D8018E
:105570008D918D018F3F11F00E94BE09B1E0023480
:105580001B07A9F704E311E06DE3E62E61E0F62EB8
:10559000F80181918F018F3F11F00E94BE09E01642
:1055A000F106B1F784E1E0E1F3E0DF01282F1D927D
:1055B0002A95E9F7E5EDF2E0DF011D928A95E9F71A
:1055C0000E943628811102C00E946C1582E090E092
:1055D0000E94DB3380932A030E94FC119093EC021B
:1055E0008093EB020E945F17EFE3FCE93197F1F73C
:1055F00000C000000E945F178091100380FF0CC064
:105600006FEF7FEF90E080E00E940D340E941B0D51
:1056100088E080935F0167CF83E090E00E94DB33F6
:105620000E944B1A8091ED028111E7C080912A03FC
:1056300080FF14C08BEA94E09F938F930E9417071A
:1056400080912A030F900F9080FF08C085E994E0B5
:105650009F938F930E9417070F900F900E943628F8
:10566000811110C080912A0380FF08C08DE694E06C
:105670009F938F930E9417070F900F900E946C15B5
:105680000E94541588E090E00E94E3336093B103D8
:105690007093B2038093B3039093B40380912D036E
:1056A000836080932D036E7FD1F480912A0380FF65
:1056B00008C084E294E09F938F930E9417070F9095
:1056C0000F900E94541588E090E00E94E3336093AD
:1056D000B1037093B2038093B3039093B4030E9419
:1056E000190980912A0380FF76C08BE094E09F9394
:1056F0008F930E94170780912A030F900F9080FFCD
:105700006AC08091B10381701F928F938EEE93E0F7
:105710009F938F930E94170780912A030F900F90F9
:105720000F900F9080FF57C08091B10386951F9214
:105730008F9383ED93E09F938F930E94170780913F
:105740002A030F900F900F900F9080FF44C080911C
:10575000B2031F928F9389EB93E09F938F930E94E4
:10576000170780912A030F900F900F900F9080FFE2
:1057700032C08091B3031F928F938FE993E09F9380
:105780008F930E94170780912A030F900F900F901C
:105790000F9080FF20C08091B4031F928F9385E803
:1057A00093E09F938F930E94170780912A030F9095
:1057B0000F900F900F9080FF0EC08091B5031F9245
:1057C0008F9389E693E09F938F930E9417070F9022
:1057D0000F900F900F9010922C0380912D038460F6
:1057E00080932D038091B10380FF04C060E0869513
:1057F0000E94CF1481E08093ED029091420181E0FC
:10580000982790930B03F82FF91BF093EF029091D8
:10581000420180930C03909142018093EE028091AB
:105820004201811106C086E98093500184E980938A
:105830004F0180915001E82FE295EF70F0E061A1F7
:105840008F7021E030E0A90101C0440F8A95EAF78A
:10585000942F9095962391A382A1842B82A390915B
:105860004F01E92FE295EF70F0E041A19F70B9017F
:1058700002C0660F771F9A95E2F7CB01962F90959D
:10588000942391A392A1892B82A38FE891E00197A1
:10589000F1F700C0000010910C036DE073E040E5EB
:1058A00051E08FE4E82E81E0F82EFB0128C0DA01F8
:1058B0002D91AD01822F82958F7090E0DC01909642
:1058C0008C9190E02F7002C0959587952A95E2F70C
:1058D0008170D7019D917D01292F22952F7030E095
:1058E000D90190962C9130E09F7002C03595279594
:1058F0009A95E2F790E020FD92E0892B81938E2F1C
:10590000861B8117A0F20E945A10811102C00E94CA
:10591000763183E491E09093B9038093B80380914A
:10592000D403853079F482EC94E00E947E0600E195
:1059300012E18091D403853009F440C00E94501ACE
:105940000E947D100E945F1781110E94B90840E1FA
:10595000E42E43E0F42E60EF72E07CA76BA7FEA676
:10596000EDA610E000E058EC452E54E0552E0FA7B0
:10597000ADA5BEA5CD90DD90BEA7ADA7EBA5FCA5BE
:1059800061907190FCA7EBA76C147D0409F052C0E4
:105990000F5F1F4F0A30110551F78FEF8EA38FA3B2
:1059A00018A60E94C5088160782F9AA789A74EA1E2
:1059B0005FA168A58AA50E94B12771C08091D40318
:1059C000843021F11092BC03E8E1F0E020E40FB64E
:1059D000F894A895E09360000FBE2093600083B711
:1059E000817F846083BF83B7816083BF789488950B
:1059F00083B78E7F83BF0FB6F894A895809160001F
:105A0000886180936000109260000FBE8091D30384
:105A1000882309F48ECF0E945F17E0E1F3E08191C3
:105A20009191892B09F0E8C344E253E04E175F07D8
:105A3000B1F77FCF80912A0381FD0FC16C247D24B3
:105A4000912CAA24A394B12CC3018A219B21892BD8
:105A500009F43DC10E945A108823B1F099A26FA5A4
:105A60006AA3CA20DB2081E0CD2809F480E08BA363
:105A70000E94C5088160782F9DA38CA349A15AA1DB
:105A80006BA18DA10E94B127000F111FF801E051F9
:105A9000FD4F80819181A826B926B182A0820E9403
:105AA0005A1080912C03882309F476C080912B032F
:105AB000E091B103E695E81BE0932603823009F0FC
:105AC0000DC1F0E0E95DFA4FE4910E2F10E0B6E46D
:105AD000CB2EB0E1DB2E80912703882361F010925A
