:100000000C941B040C948B2F0C9453040C945304E9
:100010000C9453040C9453040C9453040C94530404
:100020000C9453040C9453040C9454270C941027F0
:100030000C9451280C9453040C9453040C945304C2
:100040000C9453040C9453040C9453040C945304D4
:100050000C9453040C942D280C9453040C945304C6
:100060000C9453040C9453040C9453040C945304B4
:100070000C9453040C9453040C9453040C945304A4
:100080000C9453040C9453040C9453040C94530494
:100090000C9453040C9453040C9453040C94530484
:1000A0000C9453040C9453040C94530405010980DC
:1000B000A101850319012AB700150126B700950192
:1000C00075108100C0050C0901A101850419012AE0
:1000D000A002150126A002950175108100C00660DE
:1000E000FF0961A1010962150026FF00952075082E
:1000F00081020963150026FF00952075089102C052
:1001000005010906A101050719E029E715002501E8
:10011000950875018102950175088101050719008F
:1001200029FF150026FF00950675088100050819AE
:10013000012905950575019102950175039101C08D
:1001400000000000000000000000000000000000AF
:10015000000000000000000000000000000000009F
:10016000000000007E0F00D4FFFFFFC700000078F2
:1001700000000000000000002A2B28000000000002
:100180000000000000000000000000290000000046
:100190002C1E3420212224342627252E362D3738B4
:1001A000271E1F202122232425263333362E3738BD
:1001B0001F0405060708090A0B0C0D0E0F1011127B
:1001C000131415161718191A1B1C1D2F3130232D47
:1001D000350405060708090A0B0C0D0E0F10111245
:1001E000131415161718191A1B1C1D2F3130354CF6
:1001F0001E0F0500047F3F1F643214643214783CE4
:100200001E1E140A05000101010101010101010284
:1002100002020202020202020303030303030303B6
:100220000404040404040405050505050606060681
:1002300006070707070708080808090909090A0A3D
:100240000A0B0B0B0C0C0C0D0D0D0E0E0E0F0F0FE1
:10025000101011111112121313141415151616176C
:1002600017181819191A1A1B1B1C1D1D1E1E1F20DA
:1002700020212222232424252626272829292A2B27
:100280002C2D2D2E2F30313232333435363738394C
:100290003A3B3C3D3E3F4041424344454647484946
:1002A0004A4C4D4E4F50515354555658595A5B5D18
:1002B0005E5F616264656668696B6C6D6F707273B6
:1002C0007577787A7B7D7E8082838587888A8C8E1D
:1002D0008F91939596989A9C9EA0A2A3A5A7A9AB4F
:1002E000ADAFB1B3B5B7BABCBEC0C2C4C6C9CBCD41
:1002F000CFD1D4D6D8DBDDDFE2E4E7E9EBEEF0F3F3
:10030000F5F8FAFDFFFFAA7F55400102030C0D0E20
:100310000F00070605040B0A0908222325262829B1
:100320002A2C2D2F3032333536383A3B3D3E404271
:10033000434547494A4C4E5051535557595A5C5EB4
:100340006062646668696B6D6F71737577797B7DC8
:100350007F81838587898A8C8E90929496989A9CC7
:100360009E9FA1A3A5A7A8AAACAEAFB1B3B4B6B8DF
:10037000B9BBBCBEBFC1C2C3C5C6C7C9CACBCCCD41
:10038000CED0D1D2D2D3D4D5D6D7D7D8D9D9DADA1C
:10039000DBDBDBDCDCDCDCDCDDDDDDDDDCDCDCDC9C
:1003A000DCDBDBDBDADAD9D9D8D7D7D6D5D4D3D2D0
:1003B000D2D1D0CECDCCCBCAC9C7C6C5C3C2C1BFAE
:1003C000BEBCBBB9B8B6B4B3B1AFAEACAAA8A7A512
:1003D000A3A19F9E9C9A98969492908E8C8A8987CE
:1003E0008583817F7D7B79777573716F6D6B6968AC
:1003F000666462605E5C5A5957555351504E4C4A80
:100400004947454342403E3D3B3A3836353332302A
:100410002F2D2C2A292826252322AA00A9004E00A8
:100420004B00C45CC35CAC00AB00010001000100E8
:10043000010001000100010001003A003B0035000D
:100440001E001F0020002100220023003C003D0070
:100450002B0014001A0008001500170000003E00D1
:100460003F00390004001600070009000A000000E0
:1004700040004100E10064001D001B00060019005F
:10048000050042004300E000E200E30001512C00BF
:100490002C000000A800000029003A003B003C00AE
:1004A0003D003E003F0024002500260027002D00CF
:1004B0002E004C002A004A001C0018000C001200FC
:1004C00013002F00300031004D000B000D000E0016
:1004D0000F0033003400320028004B0011001000E0
:1004E0003600370038000000E50052004E00015190
:1004F0002C00E600E400E7000000500051004F002F
:1005000000004000410042004300440045004C0010
:100510004900C55CC65C165C3A003B003C003D00EF
:100520003E003F00C75CC85CC25CC35C0100520077
:10053000010001000000C95CCA5C0100010050001C
:1005400051004F0001000000010001000100010006
:100550000100010001000100010001000100010093
:100560000100010001000100010000000100000085
:100570000100010001000100010001000100400034
:100580004100420043004400450001000100010019
:100590000100010001000100010001000100010053
:1005A0000100010001000100010001000100010043
:1005B0000100010001000100010001000100000034
:1005C0000100010001000100010001000100010023
:1005D0000000010001000100000001000100010015
:1005E0000100010001000100010001000100010003
:1005F00001000100010001000100010001000100F3
:1006000001000100010001000100010000000100E3
:1006100001000100010001000100010001000000D3
:1006200001000100010001000100010001000100C2
:1006300001000100010001000100010001000100B2
:1006400001000000010000000100010001000100A4
:100650000100010001000100010001000100010092
:100660000100010001000100010001000100010082
:100670000100010001000100010001000100010072
:100680000100010001000100010001000100010062
:100690000100010001000000010001000100010053
:1006A0000100010001000100000001000100010043
:1006B0000000010001000100010001000100010033
:1006C0000100010001000100010001000100010022
:1006D0000100010001000100010001000100010012
:1006E0000100010000000100010001000100010003
:1006F00001000100010000000100010001000100F3
:1007000001000100010001000100010001000100E1
:1007100001000100010001000100000001000000D3
:1007200001000100010001000100010001000100C1
:1007300001000100010001000100010001000100B1
:1007400001000100010001000100010001000100A1
:100750000100010001000100010001000100010091
:100760000100010001000100010001000100000082
:100770000100010001000100010001000100010071
:100780000000010001000100000001000100010063
:100790000100010001000100010009025B000301EA
:1007A00000A0FA0904000001030101000921110160
:1007B000000122400007058103080001090401002F
:1007C0000203000000092111010001222200070597
:1007D0008203200001070503032000010904020031
:1007E0000103000000092111010001223200070568
:1007F0008403200001120100020000000810CB67F2
:10080000131001010200011803530069006E006318
:100810000020005200650076002E0020003100000C
:10082000000E034B0065006500620069006F000068
:1008300000040309040011241FBECFEFDAE0DEBF7D
:10084000CDBF04B603FE18C08091EA039091EB037C
:10085000A091EC03B091ED038730904BA740B04BD3
:1008600059F41092EA031092EB031092EC031092E9
:10087000ED03E0E0F8E3099523E0A2E0B2E001C077
:100880001D92AA3EB207E1F712E0A0E0B1E0EAE271
:10089000F5E602C005900D92A230B107D9F70E948B
:1008A00078280C9468320C940000E8EDF0E0808128
:1008B0008E7F80831092E2001092DA001092E100A5
:1008C000A0EEB0E08C9181608C9380818F778083E3
:1008D00019BCA7EDB0E08C918E7F8C9380818F7EC8
:1008E00080831092CF0308952091E4003091E500B9
:1008F00095E6A9012091EC00822F817020FF06C0AF
:100900008091E80080FF06C080E008952091E80013
:1009100022FD1AC08091DC03882389F0853089F09C
:100920008091EB0085FD0FC02091E4003091E5003F
:1009300042175307F9F29150E1F684E0089582E0FE
:10094000089583E0089581E00895EF92FF920F9358
:100950001F93CF937C018B010E947404C82F8111D7
:1009600017C08091E80085FD0BC08091E8008E776C
:100970008093E8000E947404882399F3C82F08C06C
:10098000F70181917F018093F1000150110949F72E
:100990008C2FCF911F910F91FF90EF900895809130
:1009A000DE0387FF13C08091E80082FF06C08091BC
:1009B000E8008B778093E80004C08091DC0381110C
:1009C000F2CF08958091DC038823D9F38091E80069
:1009D00080FFF8CF8091E8008E77ECCF982F90932E
:1009E000E900242F762F50E0891731F07091EC0048
:1009F0002091ED005091F00021FD07C09F5F9730DE
:100A000071F78093E90081E008953091EB003E7F1B
:100A10003093EB003091ED003D7F3093ED0030914D
:100A2000EB0031603093EB007093EC002093ED000D
:100A30005093F0002091EE0027FDE0CF80E0089574
:100A4000B0E0A0E0E6E2F5E00C94B130C8EDD0E013
:100A500088818F7E8883E7EDF0E0808181608083EC
:100A600084E082BF81E08093CF0388818E7F88837A
:100A700002EE10E0F80110821092DA0081EEC82E2A
:100A8000D12CF601108288818F77888388818068D5
:100A9000888388818F7D888319BC1092DC03109233
:100AA000DD031092DB031092DA0390EEE92EF12CB5
:100AB000F70180818B7F808388818160888342E019
:100AC00060E080E00E94EE04F60180818E7F8083EA
:100AD000F801808181608083808188608083F70154
:100AE00080818E7F8083888180618883CDB7DEB7E7
:100AF000E8E00C94CD30FC018091E4039091E50393
:100B000086179707A0F06115710529F49091E80008
:100B10009E779093E80090E06115710551F4911172
:100B200008C08091E80082FF34C080E00895BC01D5
:100B3000F2CF8091DC038823C1F18530C1F180912F
:100B4000E80083FD30C08091E80082FDEACF80910B
:100B5000E80080FFE1CF8091F3002091F200382F70
:100B60006115710519F02830310558F091E02830F1
:100B7000310509F090E02091E8002E772093E800FD
:100B8000CBCF81918093F100615071092F5F3F4F6E
:100B9000E7CF8091DC03882341F0853041F08091DC
:100BA000E80083FFBECF81E0089582E0089583E0EE
:100BB00008950895089508958091D10308959C01A2
:100BC0004FB7F8948091C8039091C903A091CA03CC
:100BD000B091CB034FBF821B930B08952FB7F894AE
:100BE0006091C8037091C9038091CA039091CB03AF
:100BF0002FBF08952FB7F8948091C8039091C9032F
:100C0000A091CA03B091CB032FBF08952091C503D3
:100C10003091C6032817390771F09093C60380936B
:100C2000C503E091C303F091C403309721F0008421
:100C3000F185E02D099508952091C1033091C203FB
:100C40002817390771F09093C2038093C103E09194
:100C5000C303F091C403309721F00680F781E02DA3
:100C600009950895FC01680F791F8FEF91E3219199
:100C7000822728E030E087FF09C0880F89272150AC
:100C80003109C9F7E617F70791F70895880FF7CFED
:100C90008F929F92AF92BF92EF92FF920F931F930A
:100CA000CF93DF938430B8F5811136C090918000E6
:100CB0009F77909380002D98A0918600B091870037
:100CC000282F30E00E94593223E030E040E050E02D
:100CD0000E94373289019A018091860090918700A5
:100CE0006CE070E00E94FA3060177107D8F0C8011C
:100CF00069E070E00E94FA30709389006093880088
:100D0000DF91CF911F910F91FF90EF90BF90AF9027
:100D10009F908F90089583E09091800090689093C9
:100D20008000CACF8091860090918700E090860075
:100D3000F0908700E0918600F0918700C6E0D0E057
:100D4000BE010E94FA30060F171F211D311D4801F8
:100D5000590185E0880C991CAA1CBB1C8A95D1F707
:100D6000C701BE010E94FA309F0150E040E0260F0B
:100D7000371F411D511DC501B4010E943732490181
:100D80005A01E0918600F0918700CA01B9010E94E2
:100D9000DE309B01AC01DF010E9424329B01AC01DB
:100DA000C501B4010E94DE302FE0969587957795B6
:100DB00067952A95D1F7009186001091870030E061
:100DC00020E0061717072807390708F095CF60912C
:100DD00086007091870090CF282F220F220F220FBC
:100DE0009091BF039770922B9093BF03987F21E05F
:100DF00009F420E09091BF0320FB90F99093BF038A
:100E00000E9448060895FA01811101C0FB0109956D
:100E10000895E4E3F3E0118282818460828308957F
:100E20008091BA03982F9E7F29F48170826080930D
:100E3000BA0308958635E8F381708465F8CFAF92E0
:100E4000BF92DF92EF92FF920F931F93CF93DF93A6
:100E5000082F162FE901E42FF0E0EB5FFD4F611141
:100E600010C0E4915E2F4E2F4983E8835A83DF91AF
:100E7000CF911F910F91FF90EF90DF90BF90AF90B7
:100E80000895E62EF12C4491D42EE42FF0E026E0D4
:100E9000829FC00111242FEF30E0B9010E94FA3087
:100EA000802F90E0880F991F55E5569FD001579FDE
:100EB000B00D11248A1B9B0B982F990F890F590194
:100EC000AE18BF08AE9ED001AF9EB00DBE9EB00D55
:100ED00011245B2F189F80011124012F1127590124
:100EE000A01AB10AAE9E8001AF9E100DBE9E100DDD
:100EF00011245901A81AB108AE9CC001AF9C900DF5
:100F0000BE9C900D1124892F9927281B390B2E9FE9
:100F1000C0012F9F900D3E9F900D1124E92F62304C
:100F20007105A1F050F46115710509F49DCF613090
:100F3000710581F0EB2F512F97CF6430710569F067
:100F400080F06630710509F48FCFF4CFE42F4B2F7A
:100F5000592F8ACFE42F412F87CFEB2F542F492FC2
:100F600083CF4B2F5D2DE12F7FCF80E00895F89444
:100F7000E82FE295EF70F0E031A1282F2F7081E08B
:100F800090E001C0880F2A95EAF7982F9095932357
:100F900091A392A1892B82A3789408959091EA025B
:100FA00092FF06C0282F28712830F9F4877F8460CB
:100FB00093FF06C0282F28712831F1F4877E8461C1
:100FC0002091EB0220FF06C0382F38713830D9F459
:100FD000877F816021FF06C0282F28712831D1F436
:100FE000877E816194FD877E0895282F24712430A7
:100FF000F9F68B7F8860DCCF282F2471243101F72C
:101000008B7E8861DDCF382F3171313019F78E7FBB
:101010008860E0CF282F2171213121F78E7E8861F1
:10102000E1CFCF93DF93EC0182389105B1F108F065
:1010300040C08133910509F49DC048F5893291057E
:1010400009F48DC08A9709F49CC0C11522E5D20726
:1010500008F0BDC0C11531E5D30708F024C1C83E72
:10106000D10508F0A3C0C13ED10588F5C83AD10525
:1010700008F08EC0C53AD10508F0F6C0C130D105E0
:1010800031F1209721F1C430D10508F545C08533F1
:10109000910509F45FC0C997C1F68091EA02837097
:1010A00009F036C18091EB0283FF11C0C9E2D0E0A4
:1010B0000EC0833E910599F170F4803E910501F1D7
:1010C000823E910511F68091EA0282FD21C0CE0197
:1010D000DF91CF910895863E910561F1873E91059C
:1010E00071F1843E910509F0B0CF8091EB0281FF50
:1010F000EECF8091EA02C7EED0E084FD0DC0E7CFCD
:101100008091EA0280FD33C09091EB0290FFDFCF27
:10111000C3EED0E084FFDBCFD0E0C0E0D8CF809139
:10112000EA0282FDF2C09091EB0290FDF1C084FFD3
:10113000CECFF2CF8091EA0283FDDDCFC8CF809180
:10114000EA0283FDE8C09091EB0291FFF0CFC4EE7C
:10115000D0E0BDCF8091EA0285FFB9CFA7CF8091C3
:10116000EA0285FDDBC08091EB0283FFB0CFC9E3CB
:10117000D0E0ADCF8091EA0286FFA9CFCAE2D0E0ED
:10118000A6CF8091EA0286FFA2CFC1E3D0E09FCF35
:10119000CF3BD10508F6C85AD0E0CC0FDD1FC857A9
:1011A000DE4F0990D881C02DD46491CFC11540E5A0
:1011B000D40708F064C0C11580E4D80708F05CC00B
:1011C000CE019A9581159F4108F481CFA5CFC11515
:1011D00036E5D30718F5C11545E5D40708F07CC0FE
:1011E000C11584E5D80708F072C09E01237033272B
:1011F0009C2F96959695C115D34508F459C0C1E02A
:10120000D0E002C0CC0FDD1F2A95E2F730E2939FB9
:10121000C0011124C82BD92BDA6859CFC1158AE532
:10122000D80778F4C11529E5D20708F060C0C115C8
:1012300038E5D30708F470CFDC2FCC27C06FD06A15
:1012400046CFCE0190568115904208F065CF8D2F84
:101250008F710E94CE0790E0982F882788279F7172
:101260009C012C2BE90141C0C55AD0E0CB57DE4F81
:10127000C881D0E0D0642BCFDF70D06A28CFCE01F8
:101280008370992721E030E002C0220F331F8A9536
:10129000E2F7C695C69580E2C89FE0011124C22BF3
:1012A000D32BDD6814CFDC2FCC27C16FD06A0FCFD2
:1012B000C1E0D0E002C0CC0FDD1F2A95E2F720E2AA
:1012C000929FC0011124C82BD92BDC6800CFDC2FE2
:1012D000CC27C46FD06AFBCE8C2F0E94CE07C82FBC
:1012E000D0E0DC2FCC27CC27DF71D062F0CE8C2F62
:1012F0008F700E94CE0734E0D695C7953A95E1F7F6
:10130000CF709C2FEC01D069E2CEC2EED0E0DFCEF0
:10131000C0EED0E0DCCEC6EED0E0D9CEC5E3D0E062
:10132000D6CE0E94EE05089580917D028111109223
:101330007D020895809590917C02982390937C0281
:101340000895E6E0F2E09191891303C0DF0111975F
:101350001C9292E0EC30F907B1F70895A6E0B2E0F4
:10136000EFEF90E02D91821751F0EF3F19F421112A
:1013700001C0E92F9F5F9630A9F7EF3F09F4089568
:101380000E2E000CFF0BEC5FFD4F828308958091C1
:10139000710290914002981301C008958F5F877089
:1013A000FACFA82FA77023E0969587952A95E1F7A5
:1013B000FC01EE0FFF1FE80FF91FE60FF71F50E0CB
:1013C00040E080E0219130E00A2E02C0369527955A
:1013D0000A94E2F721703327042E01C0220F0A94E9
:1013E000EAF7822B4F5F5F4F4330510559F708955D
:1013F000292F9C3068F4893090F490E060E172E02D
:1014000039E0239F800D911D11240E94D109089578
:101410002C5F223020F46DE072E090E0F6CF80E0A7
:101420000895262F277091E001C0990F2A95EAF7B9
:1014300023E0769567952A95E1F7FB01EE0FFF1FF4
:10144000E60FF71FE40FF51F50E040E0682F70E053
:101450008191DF0111979B01042E02C036952795DB
:101460000A94E2F7217021952827292328272C9315
:101470004F5F5F4F4330510559F70895282F862F4E
:101480009C3070F4293058F4622F70E029E0929F6C
:10149000600D711D112440E152E00E94110A08956F
:1014A0009C5F9230E0F7622F70E04DE052E0F5CFA4
:1014B00090915301992329F081FD02C02E9A08953D
:1014C0002E9808958093CC037093CE036093CD0340
:1014D0008091DC038430F9F48093E9008FEF9091E0
:1014E000E800815095FD06C095ED9A95F1F7000052
:1014F0008111F5CF8091E80085FF0DC050E040E0FC
:1015000063E070E08CEC93E00E94A5048091E80019
:101510008E778093E8000895BC0184E00E94620AFF
:101520000895BC0183E00E94620A0895CF93DF937F
:10153000EC0181E08093E9008FEF9091E800815009
:1015400095FD06C095ED9A95F1F700008111F5CF54
:101550008091E80085FF14C050E040E068E070E052
:10156000CE010E94A5048091E8008E778093E80068
:1015700088E0FE01A2EDB3E001900D928A95E1F7BB
:10158000DF91CF91089581E08093E00080E2809325
:10159000D8001092C9008FE19EE40197F1F700C0D6
:1015A000000087E090EBDC018093EA039093EB036B
:1015B000A093EC03B093ED0388E19CE00FB6F894A0
:1015C000A895809360000FBE90936000FFCFCF92EC
:1015D000DF92EF920F931F93CF93DF93CDB7DEB7D8
:1015E000E0970FB6F894DEBF0FBECDBF60917101DA
:1015F0008091BA0380FF4BC0EAE0F3E09E012F5FC9
:101600003F4F8E010F5C1F4FC901A4914A2F50E03C
:10161000DA01AA0FBB1FA40FB51FA65CBC4FCD906B
:10162000DD90EC90D901CD92DD92ED929D01319645
:10163000A017B10751F72091700143E0249F800D5E
:10164000911D11246E9A2EB12F7B3EB130645FB78D
:10165000F894FC01649FE00DF11D1124BF01861771
:10166000970741F55FBFEFE5F4E03197F1F700C070
:101670000000E0960FB6F894DEBF0FBECDBFDF913D
:10168000CF911F910F91EF90DF90CF9008958091AF
:1016900072019091730123E0829FF0011124E65CB6
:1016A000FC4F891708F0A8CF1182108212828F5F39
:1016B0003396F7CFDC014D91CD01E8E03EB9000053
:1016C00000C047FF2EB9440F000000C000C000C09A
:1016D0002EB900C0EA9591F7C2CF0F931F93CF9315
:1016E000DF93EC0110E000E0909174019017110677
:1016F00009F06CF40E94E70A8C8190E001968170F9
:1017000099278C83DF91CF911F910F91089520919C
:101710007201A801420F511D9A01220F331F240F9D
:10172000351F265C3C4F4C816091BC038091BB030C
:1017300096959017110651F04CF0442349F04091D2
:10174000BD030E941F070F5F1F4FCECF4423B9F385
:1017500040E0F7CFB0E0A0E0E0EBFBE00C94AD3070
:10176000EC014C81042F10E09801D8010E945932FD
:101770009B01AC010E9424324B015C01E0E2F0E0ED
:10178000E01BF10BA5E5B0E0AC019B010E94243207
:101790006B017C019F01DF010E942F319B01AC0195
:1017A0000E942F329B01AC01280D391D4A1D5B1D83
:1017B000C701B6010E943732F22E822F90E039E243
:1017C0003F1520F143E0249F900111243595279582
:1017D000122F109500E085E5E82EEF188091740136
:1017E000081718F10E94E70A9C8181E0992319F0FB
:1017F000903219F48FEF80936F0180916F01890F00
:101800008C83CDB7DEB7ECE00C94C93025E530E031
:10181000B901681B790B9B01220F331F260F371F5D
:1018200037FFD4CF2F5F3F4FD1CF8E2D01FD8F2DAE
:1018300020917201622F600F7727771F9B01220F83
:10184000331F260F371F265C3C4F412F6091BC038E
:101850000E941F070F5FC2CFEF92FF920F931F935B
:10186000CF93DF93EC018C81811109C081E08C83DF
:101870001092380392E090936E0180936D018091F5
:1018800072019091730123E0829FF0011124E65CC4
:10189000FC4F891758F110E003E0609174011617AE
:1018A00058F10E94E70A80916D0120913803280FBA
:1018B0002093380390916E01980F90936E01191642
:1018C00054F4022E000C330B409174014150550B1F
:1018D0002417350734F0819580936D01813009F428
:1018E0001C82CDB7DEB7E6E00C94CF3011821082B7
:1018F00012828F5F3396CDCFE12EF12C70E0C701BD
:101900000E940E3120917201820F482F50E02091E9
:101910003803022E000C330BE216F306BCF02091C4
:101920006E01022E000C330B2E153F057CF0809FBC
:1019300090011124265C3C4F4091BD036091BC0393
:101940008091BB030E941F071F5FA7CFFA01EE0F14
:10195000FF1FE40FF51FE65CFC4F1182108212821C
:10196000F3CFB0E0A0E0E7EBFCE00C94AE30EC018C
:101970008A81BB24BA9480FD02C0BB24B394A0909A
:1019800074018C81811109C081E0B8121EC08FEFF3
:101990008A0D8093370381E08C83F12CE12CEA14CB
:1019A000B8F00E94E70A8091370391E0B91254C061
:1019B00081114DC0809174018150809337031C8246
:1019C000CDB7DEB7EBE00C94CA3010923703E3CF0B
:1019D000009172010E0D1F2D111DC801880F991F56
:1019E000080F191F065C1C4FF80111821082128229
:1019F00034E0C32ED12C912C80913703890D813195
:101A000014F18F70082E000C990B8E159F0591F420
:101A10008091BD038C9DA0018D9D500D1124559585
:101A200047955595479598016091BC038091BB03FC
:101A30000E941F079B0CF1E0CF1AD108E9F68FEF47
:101A4000E81AF80AACCF87FFDDCF8A0DDBCF8150D3
:101A500080933703BC82B4CF90E00196609174010B
:101A600070E00E940E31809337038C83A9CFEF92F0
:101A7000FF921F93CF93DF93EC0110E0EE24EA94E2
:101A8000F12C60917401161770F00E94E70A9A8198
:101A90008C8190FF27C08F5F8C83DF91CF911F9146
:101AA000FF90EF90089520917201422F410F55272A
:101AB000551FCA019A01220F331F280F391F265CB8
:101AC0003C4F70E0C7010E940E31962F8C814091EF
:101AD000BD036091BC03199F800D11240E941F0754
:101AE0001F5FCFCF8150D8CF9091BA0390FF0EC027
:101AF000909172012091730133E0939FF0011124C2
:101B0000E65CFC4F921718F00E94E70A0895818363
:101B1000608342839F5F3396F5CFA3E0B0E0E3E9B3
:101B2000FDE00C94B5308C018091390381110AC01D
:101B30009E012F5F3F4F4FEF6FEF0E941F078A817B
:101B400080933903F8016481613069F08091390331
:101B500040E0662361F040E0623011F440913903C7
:101B600080E060E004C06091390340E080E00E94C2
:101B7000740DF801848190E0019663E070E00E94AA
:101B80000E3184832396E4E00C94D130A3E0B0E0DE
:101B9000ECECFDE00C94B7309091BA0390FF0AC0D2
:101BA0009E012F5F3F4F0E941F074B8169818A81F1
:101BB0000E94740D2396E2E00C94D330CF93DF9310
:101BC000EC01EAEBF3E0438162818C810E94C60D57
:101BD0008C818F5F8C83DF91CF910895CF93DF93BA
:101BE000EC01EC81F0E0E65EFC4F4491EAEBF3E0BF
:101BF000628181810E94C60D8C818F5F8C83DF9111
:101C0000CF910895EAEBF3E080818E7F80830E947C
:101C10000907E4E3F3E08281816082832FEF80E7AC
:101C200092E0215080409040E1F700C000000E9407
:101C3000E70A0895B0E0A0E0E0E2FEE00C94AF30E7
:101C40007C015B016A018091CB0201E010E08A30E7
:101C500010F40AE010E0C1E0D0E0B501C701F601E0
:101C60000995811104C021960C171D072CF4CDB7DE
:101C7000DEB7EAE00C94CB30CC9F9001CD9F300DC5
:101C8000300D112490E080E045E34A95F1F7000023
:101C9000019682179307C1F7E0CF809189028111E5
:101CA00010C08091D80080618093D8008AE18A9525
:101CB000F1F700C08091D90080FF0AC081E08093D5
:101CC000890281E090918902913009F080E00895C5
:101CD00082E0809389020E9455041092DC03F1CFC8
:101CE0000E944D0E811103C08091C0030895E091C0
:101CF000C303F091C403309729F00190F081E02DE7
:101D00000995089580E008950F931F930E944D0E4A
:101D1000882329F00E94EE051F910F9108950E94DB
:101D2000EE050091CC021091CD022091CE023091AF
:101D3000CF02600F711F821F931FEECF0E944D0EC6
:101D4000882319F00E94FA0508950E94840ECB01A1
:101D50000895CF93DF93C8ECD2E060E0CE010E94FB
:101D6000D1312196C11584E0D807B9F7DF91CF9121
:101D700008950F931F93CF93DF93142F022F833077
:101D800020F5623010F598E0899FE001112484E08D
:101D9000689FB0011124C60FD71FC055DD4F82E0E8
:101DA00090E0442311F090E080E0632F8C0F9D1FA2
:101DB0000E94D13183E090E0112311F081E090E0A6
:101DC000602F8C0F9D1F0E94D131DF91CF911F9109
:101DD0000F9108951F93CF93DF93122F8330E0F478
:101DE0006C30D0F44930C0F4C42FD0E0CC0FDD1FEC
:101DF00092E1699FC00DD11D112498ED899FC00DFE
:101E0000D11D1124632FCE0188960E94D131612FFC
:101E1000CE0189960E94D131DF91CF911F91089513
:101E2000B0E0A0E0E6E1FFE00C94AD308AE1E82EFE
:101E300084E0F82E0AE314E0C0E05801D0E015C0B9
:101E4000F401259134914D2D6D2F8C2F0E94EA0EB7
:101E500082E0880E911CD39489E0D812F1CF82E100
:101E6000A80EB11CDF5FDC3019F04501D12CE8CFA2
:101E70006701D0E0F6012591349141E06D2F8C2F60
:101E80000E94B90EF60132962591349140E06D2FF3
:101E90008C2F0E94B90E84E0C80ED11CD13071F491
:101EA00088E0E80EF11CCF5F08521F4FC33009F0E5
:101EB000C4CFCDB7DEB7ECE00C94C930D1E0DACFB7
:101EC000CF93C82F6FEF811162E283E290E00E940E
:101ED000D1316FEFC11163E084E290E00E94D13113
:101EE0006FEFC11160E185E290E00E94D131CF91A6
:101EF000089580E00E94600F60E087E290E00E9419
:101F0000D13160E086E290E00E94D1310E94100F52
:101F10000E94A90E81E00E94600F0895682F86E05C
:101F200090E00E94D13108950E94EC068091BF0399
:101F30000E948E0F08958091BF0380FD13C08160C1
:101F40008093BF03813019F489E08093BF038091AF
:101F5000BF030E948E0F8091BF038695869586955C
:101F60000E9448060895FF920F931F93CF93DF932B
:101F7000F42E833070F5623060F528E0829F800196
:101F8000112434E0639FB0011124060F171F005580
:101F90001D4F82E090E0442311F090E080E0800F3C
:101FA000911F0E94BD31C82FD0E0DC2FCC2783E0E9
:101FB00090E0FF2011F081E090E0800F911F0E94DF
:101FC000BD319E01282BC901CDB7DEB7E5E00C94E9
:101FD000D03090E080E0F8CF0F931F93CF93DF9342
:101FE000833030F56C3020F5493010F5C42FD0E047
:101FF000CC0FDD1F22E1629FC00DD11D112438EDF1
:10200000839FC00DD11D1124CE0188960E94BD3141
:10201000082F10E0102F0027CE0189960E94BD31B5
:102020009801282BC901DF91CF911F910F9108953D
:1020300090E080E0F8CF833070F47C3038F4693081
:1020400050F4462F672F0E94EC0F08957D3F31F426
:1020500041E0623040F090E080E008957C3FD9F7A5
:102060006230C8F740E00E94B30F0895CF92DF922C
:10207000FF920F931F93CF93DF936C010091E903BD
:1020800080917E02082BC7E0D0E010E0FC2EC80152
:102090000C2E02C0959587950A94E2F780FD0CC03E
:1020A0002197A0F7F12C8F2DDF91CF911F910F91E8
:1020B000FF90DF90CF900895B6018C2F0E941B10E7
:1020C0000E941108019761F3EECFCF93DF93EC01EB
:1020D0000E943610BE010E941B100E941108DF9161
:1020E000CF910895FC0183819481892B29F080810F
:1020F000918189238F3F51F480E00895843FE1F777
:1021000017C0883EA8F0813FB9F712C08081918145
:102110000E94651092959F70963099F358F4925FE3
:102120009F70923048F7803F19F040F7883E20F7C3
:1021300081E008959A5FF4CF83E290E00E94BD3180
:10214000823289F484E290E00E94BD31833059F4F8
:1021500085E290E00E94BD3191E0803109F090E08D
:10216000892F8170089580E0FCCFCF9384E090E0C8
:102170000E94BD31C82F82E290E00E94BD31982FAD
:102180008C2FCF910895B0E0A0E0E9ECF0E10C9441
:10219000A930FC016280448081E08483EAE1F3E0BD
:1021A0007490E9E9F3E0E491812C75E0972EF2E078
:1021B000CF2EDD24D394AA24AA94B12C55245A946A
:1021C000E7190E2F10E080917401881638F00E94F4
:1021D000E70ACDB7DEB7E0E10C94C530E82CF12C6E
:1021E00082E0861568F09E9CF0019F9CF00D112402
:1021F000E659FC4F8091BB0380838091BC038183AF
:10220000411023C09E9CF0019F9CF00D1124E659C3
:10221000FC4F1382128220917201C701820F911D1F
:102220009C01220F331F280F391F265C3C4F9E9CB8
:10223000F0019F9CF00D1124E659FC4F4281618111
:1022400080810E941F078394BECF9E9CE0019F9CCB
:10225000D00D1124C659DC4F8B818823E9F08150C1
:102260008B83859DC00111246C8170E00E94FA303F
:10227000FB01FF27E65EFC4F8491E82FE719E59DFF
:10228000C0011124B8010E94FA308091BD03689FFB
:10229000B00111247A83BFCF0E948A312091BD03FF
:1022A000269521582C9DA0012D9D500D1124452FC0
:1022B0005527841795070CF0AECF82E0861588F479
:1022C0000E948A31B5010E940E3188830E948A31B2
:1022D0002091BC032695622F70E00E940E31280FDA
:1022E00029839E9CF0019F9CF00D1124E659FC4F20
:1022F00012828091BD03893C58F088EC9E9CF001CD
:102300009F9CF00D1124E659FC4F8483838383CF77
:102310008431A0F784E1F2CF6091BA03669570E052
:102320004BE050E082E691E00E949A31892B19F44B
:1023300081E0809335030E949E0E90932F0380933B
:102340002E03809136038460809336030895CF92E4
:10235000DF92EF92FF926B017C010E941007B701A0
:10236000A60188E090E00E94E331FF90EF90DF90BB
:10237000CF900895A3E0B0E0E0ECF1E10C94B03030
:10238000082FD62EF42EC22E9091BA0390FF3AC099
:10239000E92FE695AE2FB0E0A853BE4F8C91809305
:1023A00034039E7F923091F59E012F5F3F4F802F27
:1023B0000E941F074B8169818A810E94740D809160
:1023C000BB03801308C08091BC038D1104C08091B1
:1023D000BD038F1529F08091360382608093360308
:1023E0000093BB03D092BC03F092BD03CC2051F00C
:1023F0006091BA037091BB038091BC039091BD03BF
:102400000E94A7112396E9E00C94CC30823019F495
:10241000F090BD03D4CF863019F40091BB03CFCF29
:102420008930D9F3893159F6E9516E2F6170B62E92
:10243000E695F0E0EB5FFC4F1491E12C60917401A4
:10244000E61618F00E94E70ABACFE19EC0011124F7
:1024500070E00E94FA30802FB11014C0860F2091D6
:102460007201622F6E0D7727771F9B01220F331F9A
:10247000260F371F265C3C4F4F2D6D2D0E941F07E6
:10248000E394DCCF861BEBCFEAEBF3E0438121E161
:10249000421B08F440E021E0628181810E94BA1170
:1024A0000895EAEBF3E0438121E1420F08F44FEF96
:1024B00021E0628181810E94BA110895EAEBF3E084
:1024C000628121E1621B08F460E021E043818181A7
:1024D0000E94BA110895EAEBF3E0628121E1620FF4
:1024E00008F46FEF21E0438181810E94BA110895C1
:1024F000EAEBF3E0818121E04381628188500E9410
:10250000BA110895EAEBF3E0818121E04381628111
:10251000885F0E94BA1108958091BE03882319F044
:1025200081508093BE036091BA037091BB03809188
:10253000BC039091BD030E94A71108958091BE0332
:10254000833018F48F5F8093BE036091BA0370915B
:10255000BB038091BC039091BD030E94A711089515
:102560009091BA0390FF31C0917081112FC0926099
:102570009093BA038091360381608093360366237B
:1025800051F06091BA037091BB038091BC039091AC
:10259000BD030E94A7116091BA03669570E04BE0FD
:1025A00050E082E691E00E949A31892BB1F00E94BE
:1025B000090781E08093310320E04091BD036091E1
:1025C000BC038091BB030E94BA1108958B3210F0B6
:1025D0009465CECF880F982BCBCF0E948C11E9CF7A
:1025E0008091BA038695815009F48AE261E00E94E5
:1025F000B01208958091BA0386958F5F8B3208F0F0
:1026000081E061E00E94B01208959091BA0390FFBA
:1026100008C09695981728F0961718F40E94FA1299
:10262000089561E00E94B0120895EAEBF3E087E1BB
:10263000808311828FEF828383831482A4E3B3E0CB
:1026400012968C911297836012968C93608171819F
:10265000828193810E94A711089568EE7EEF90E039
:1026600080E00E94EF3160E082E090E00E94D13192
:1026700060E083E090E00E94D13110927E0260E041
:1026800084E090E00E94D13164E082E290E00E9418
:10269000D13160E085E090E00E94D13160E086E0D9
:1026A00090E00E94D1316FEF87E090E00E94D1313D
:1026B00040E050E0BA0188E090E00E94E33160E041
:1026C0008DE090E00E94D13140E050E0BA0188E115
:1026D00090E00E94E33160E087E190E00E94D13118
:1026E00040E050E0BA018CE190E00E94E33170E0FC
:1026F00060E080E290E00E94EF3140E050E0BA01FB
:1027000088E190E00E94E33180E00E94600F0E9427
:10271000790F0E949B0F83E00E94940F40E050E0ED
:10272000BA018FE090E00E94E33140E050E0BA014E
:1027300083E190E00E94E331089580917C029091C2
:102740007B02892B8093040290917D02992391F062
:10275000892B8093040220E086E092E0FC01319115
:10276000CF0131112F5FF2E08C309F07B9F72111B3
:102770000E94940948E050E063E772E084E092E050
:102780000E94A731892BA9F088E0E4E0F2E0A3E7FA
:10279000B2E001900D928A95E1F7E091C303F091C8
:1027A000C403309731F00280F381E02D84E092E0A1
:1027B0000995089590E080E00E941C0690E080E07A
:1027C0000E94060610927B020E949D13089580933A
:1027D000E9030E94DA1308958091E903982F967017
:1027E000963021F488600E94E7130895877FFBCF1D
:1027F00021E030E001C0220F8A95EAF72095809110
:10280000E90382230E94E713089590917202809554
:10281000892380937202282F277091F4282F082E85
:10282000000C330B9217130659F09091EB0292FFB4
:1028300007C08595859585950E94F81310927202C0
:102840000895CF93C091EB02C2FB992790F9981796
:1028500091F080FBC2F9C093EB026091EA0284E040
:1028600090E00E94D1316C2F82E290E00E94D13141
:1028700082E00E940514CF91089521E030E001C06C
:10288000220F8A95EAF78091E903822B0E94E713D1
:10289000089580937E020E94DA13089510927C02BC
:1028A000E6E0F2E086E0DF011D928A95E9F70E94FA
:1028B000DA130895AAE2B0E0E0E6F4E10C94B63051
:1028C0008EED93E02091F100DC012D93CD01B3E07A
:1028D000863E9B07B9F78091DF03833009F472C00D
:1028E000B8F4813009F449C0823009F4B3C0809152
:1028F000E80083FF8BC28091DE039091DF039A3062
:1029000008F084C2E92FF0E0E659FD4C0C94223126
:102910008A3009F48EC08B3009F471C0893039F7E0
:102920008091DE03813219F78091E2039091E303F5
:10293000009711F00297D9F68091E800877F809385
:10294000E8008091E80082FF38C09091F300809108
:10295000F200029731F48091F100813011F086305D
:1029600021F48091F1008093D1038091E8008B776E
:102970008093E8000E94CF04BACF8091DE03813AB1
:1029800009F0B5CF8091E800877F8093E8008091BF
:10299000E2039091E303892B61F468E082ED93E018
:1029A00070E00E947B058091E8008B778093E800BF
:1029B0009ECF60E090E080E0F3CF8091DC03811156
:1029C000C0CF95CF8091DE03813A09F090CF8091FE
:1029D000E2039091E303892B09F089CF8091E8000D
:1029E000877F8093E8008091E80080FFFCCF809192
:1029F00075018093F1008091E8008E77B9CF8091C6
:102A0000DE03813209F073CF8091E2039091E303FA
:102A1000892B09F06CCF8091E800877F8093E800D4
:102A20000E94CF048091E003809375010E944E14B0
:102A30005ECF8091DE03813209F059CF8091E800AA
:102A4000877F8093E8000E94CF048091E103809308
:102A5000D0034DCF8091DE03813A09F048CF8091B9
:102A6000E800877F8093E8008091E80080FFFCCF3A
:102A70008091D003BECF803899F0823809F0C6C16A
:102A80008091E2038F70873008F0C0C18093E90025
:102A90008091EB0085FB882780F91092E90006C041
:102AA0008091DA039091DB03911182609091E800AC
:102AB000977F9093E8008093F1001092F10080914D
:102AC000E8008E779FC1882309F48DC1823009F018
:102AD0009DC18091E003811190C18091E2038F70CC
:102AE0002FEF280F263008F091C18093E900209144
:102AF000EB0020FF82C1933031F48091EB008062C3
:102B00008093EB007AC19091EB0090619093EB0081
:102B100021E030E001C0220F8A95EAF72093EA0015
:102B20001092EA008091EB008860EACF81116EC1BB
:102B30001091E0031F778091E3008078812B8093D0
:102B4000E3008091E800877F8093E8000E94CF0433
:102B50008091E80080FFFCCF8091E3008068809343
:102B6000E30082E0111183E08093DC034FC18058C1
:102B7000823008F04BC12091E0033091E1032C3DFD
:102B8000E3E03E07A1F583E08A838AE289834FB7B9
:102B9000F894DE01139620E03EE051E2E32FF0E0EE
:102BA00050935700E49120FF03C0E295EF703F5F20
:102BB000EF708E2F90E0EA30C0F0C7968D939D9312
:102BC0002F5F243159F74FBF8091E800877F8093B2
:102BD000E8006AE270E0CE0101960E947B058091D8
:102BE000E8008B778093E80011C1C096E7CF809111
:102BF000E2039091E303432F55274330510509F435
:102C00004AC078F54130510509F47AC08BE590E06F
:102C1000EAE9F7E04230510509F0F8C02091E800F8
:102C2000277F2093E8002091E4033091E503821789
:102C3000930708F49C0140E02115310509F065C0B7
:102C4000411163C08091E80082FDC9CF8091DC030F
:102C5000882329F2853019F28091E80083FFF2CFB2
:102C6000BECF4132510509F43CC04232510509F052
:102C7000CDC08330910508F0C9C0FC01EE0FFF1FE5
:102C8000EA50FE4F0190F081E02D8D509E4FDC0107
:102C90008C9190E01AC0332721303105D1F02115F5
:102CA000310561F02230310509F0B0C0E7E0F8E00D
:102CB000E4918E2F90E0E7E0F8E007C0E1E3F8E070
:102CC000E4918E2F90E0E1E3F8E0009709F49EC0D4
:102CD000A5CFE1E2F8E0E4918E2F90E0E1E2F8E0A8
:102CE000F4CF8330910508F091C0880F991FFC0143
:102CF000E450FE4F0190F081E02D89E090E08ECF0E
:102D000082E190E0E5EFF7E089CF8091DC03882352
:102D100009F465CF853009F462CF8091E80083FD26
:102D20005ECF8091E80082FD8DCF8091E80080FF2A
:102D300083CF9091F3008091F2002115310519F0B5
:102D40008830910550F041E0089709F040E080910B
:102D5000E8008E778093E8006FCF44914093F100B4
:102D60003196215031090196E8CF803809F04EC0E4
:102D70008091E800877F8093E8008091DD03809355
:102D8000F1009DCE811142C01091E0031230F0F5A8
:102D90008091E800877F8093E8001093DD030E9414
:102DA000CF04112311F084E005C08091E30087FD7A
:102DB000FACF81E08093DC0342E061EC81E00E9485
:102DC000EE0442E261EC84E00E94EE0442E261EC37
:102DD00082E00E94EE0442E260EC83E00E94EE0496
:102DE0008091DC0313C08091E003813079F481E0AD
:102DF000933009F080E08093DB031092E90080912A
:102E0000E800877F8093E8000E94CF048091E8006B
:102E100083FF0AC08091E800877F8093E80080915B
:102E2000EB0080628093EB00AA96E3E00C94D23032
:102E30000E944E142FEF84E39CE02150804090408C
:102E4000E1F700C0000088E19CE00FB6F894A89577
:102E5000809360000FBE90936000FFCF882321F025
:102E60000E949A090E949D130895882339F0909139
:102E70007C02982B90937C020E949D1308958823D6
:102E800009F44DC0823879F40E94700E81FF47C06A
:102E900089E30E94AE090E949D1389E30E94A10963
:102EA0000E949D130895833859F40E94700E80FF8C
:102EB00036C083E50E94AE090E949D1383E5EECFE4
:102EC000843859F40E94700E82FF29C087E40E9462
:102ED000AE090E949D1387E4E1CF9CEF980F913AD1
:102EE000E8F290E2980F983050F4877091E001C0BA
:102EF000990F8A95EAF7892F0E949A09D1CF9BE50D
:102F0000980F933028F490E080E00E941C0608950A
:102F1000885A873120F490E080E00E9406060895E8
:102F2000CF93C82F8823C9F08238C9F40E94700E4D
:102F300081FD13C089E30E94AE090E949D132FEF0B
:102F400087EE93E0215080409040E1F700C0000000
:102F500089E30E94A1090E949D13CF9108958338AF
:102F6000A1F40E94700E80FDF8CF83E50E94AE09A7
:102F70000E949D132FEF81EE94E0215080409040FD
:102F8000E1F700C0000083E5E4CF8438A1F40E949B
:102F9000700E82FDE2CF87E40E94AE090E949D136D
:102FA0002FEF81EE94E0215080409040E1F700C087
:102FB000000087E4CECF8CEF8C0F813A68F4E6E016
:102FC000F2E08191C817A1F122E0EC30F207C9F7D5
:102FD0008C2F0E94AE09BFCF80E28C0F883068F43E
:102FE000C77021E030E001C0220FCA95EAF7809156
:102FF0007C02822B80937C02AECFEBE5EC0FE330BA
:1030000040F4F0E0EB57FE4F808190E00E941C06F8
:10301000A4CFC85AC73108F0A0CFEC2FF0E0EE0FD4
:10302000FF1FE857FE4F808191810E94060695CFD1
:103030008C2F0E94A1090E949D13CACF1F93CF938A
:10304000DF93182FD0E0C0E0893311F4C0E5D0E061
:10305000812F0E949017209739F4812F0E943F17EB
:10306000DF91CF911F9108958FE99FE00197F1F7CC
:1030700000C000002197EFCF0F931F93CF93DF93F2
:10308000C62FD42F022FFC0182818823A9F06093E0
:10309000E8030E94FA059093E7038093E603C77064
:1030A00081E001C0880FCA95EAF70E943517DF91C9
:1030B000CF911F910F9108958091E803681332C05A
:1030C0008091E6039091E7030E94DF05883C91051B
:1030D00048F510E21D0FCD17B9F080E28C0F883053
:1030E00040F4C77081E001C0880FCA95EAF70E94DA
:1030F0002E17183048F481E09D2F977001C0880F7B
:103100009A95EAF70E943517802F0E941E181830F2
:1031100070F6D77081E001C0880FDA95EAF70E9457
:103120002E17C5CFC77081E001C0880FCA95EAF796
:10313000F6CFA5E0B0E0EFE9F8E10C94A8308C01FF
:10314000FC0183819481892B31F0808191818923D5
:103150008F3F09F048C62596E1E10C94C4300E94E7
:103160003610F82E682F89819A810E943E0A698163
:103170007A818F2D0E941B107C01F80182818823A7
:1031800009F4C2C5C70182519F45409708F07AC52E
:103190008FEF93E00E94BD31811128C0FEEEEF0E4B
:1031A00058EC852E52E0952EE11032C01C821B8215
:1031B000442443944AE0342E74018FEFE81AF80A4D
:1031C000C4010E94BD3189831A82882379F09FEF60
:1031D000980F933058F58A83498292E0890E911CAA
:1031E000C7010E94BD318B83811121C08091720281
:1031F000877009F4B0CFF8018281882309F4ABCF3E
:103200008091EB0282FFA7CF82E00E940514A3CF3A
:10321000811424E0920651F3C4010E94BD31811152
:1032200001C0EA943FEF831A930ABECF4701FE0123
:1032300031967F01F7012081222309F4BDCF21308F
:1032400009F047C091818281913031F4F2E0EF0EB4
:10325000F11C0E941E1807C0923049F422E0E20ED1
:10326000F11C0E9490173FEFE31AF30AE3CF93306B
:1032700031F432E0E30EF11C0E943F17F4CF94309A
:1032800021F08FEFE81AF80AEECF92E0E90EF11C78
:1032900030E020E0B7016F5F7F4FF701418180533D
:1032A000990B8A30910550F021503109E0F28FE9F5
:1032B0009FE00197F1F700C00000F6CF329EF001C9
:1032C000339EF00D11249C012E0F3F1F842F7B0194
:1032D000E1CFE22FF0E0E059FE4F5490822F869527
:1032E0008695869590E0FC01E05AFE4F6490277029
:1032F000712C022E02C0759467940A94E2F7E1E003
:103300006E227724FC01E05BFE4FA490B12C022ECC
:1033100002C0B594A7940A94E2F7F1E0AF22BB246F
:10332000FC01E05CFE4FC490D12C02C0D594C79440
:103330002A95E2F721E0C222DD246114710419F01C
:1033400081EE0E949017A114B10419F086EE0E943C
:103350009017852D0E941E18A114B10419F086EE55
:103360000E943F176114710419F081EE0E943F170B
:10337000C114D10409F477CF8CE26BCF81E00E94B5
:103380003D140E94EC1332CF81E00E94F813F9CF74
:1033900082E0F5CF82E0F9CF2FEBE2162CE5F206C2
:1033A00009F44EC080F180ECE8168CE5F80609F0CF
:1033B0008AC49091BF03892F8695869586958F5FE5
:1033C0008F719770843008F04BC0880F880F880F7A
:1033D000892B8093BF038091BF030CC083E00E94C0
:1033E000940F04CF8091BF03982F987F19F18850D4
:1033F0008093BF03887F91E009F490E08091BF0340
:1034000090FB80F913C08091BF03982F96959695F5
:103410009695933040F49F5F990F990F990F87709D
:10342000892B8093BF038091BF0381608093BF038A
:103430000E948E0F8091BF038695869586950AC05F
:103440008091BF0380FF09C08E7F8093BF030E94DD
:103450008E0F80E00E944806C9CE0E949B0FC6CE08
:103460009093BF03B8CF27E245EE65EE49C426E24C
:1034700041EE60EE45C427E245EE64EE41C426E22B
:1034800041EE62EE3DC428E241E0EFCFF5EAEF16EF
:10349000FDE5FF0609F479C5E0F431E6E3163DE504
:1034A000F30609F472C526E1E2162CE5F20609F0EE
:1034B00027C580917C028A7A91E009F490E090938C
:1034C0000C0281113FC189E20E94AE090E949D1346
:1034D0008DCEC7018D5A9D45039728F756C580911B
:1034E000EA028062F7E0EF16FCE5FF0609F4B1C0DE
:1034F0008091EA02806128E0E2162CE5F20608F4E9
:10350000A8C08091EA028064A4C03DE0E3163CE5D7
:10351000F30609F4D5C0B0F48091EA028E7F9BE0F7
:10352000E9169CE5F90609F494C08091EA028C60E2
:10353000ECE0EE16ECE5FE0608F48BC08091EA02A2
:103540008D7F87C0FFE0EF16FCE5FF0609F4C8C0D9
:1035500008F4BAC030E1E3163CE5F30609F4C4C050
:1035600081E1E8168CE5F80609F03EC58091EA0293
:103570008F7B6FC09FEFE9169CE5F90609F4C2C086
:10358000D8F5FAEFEF16FCE5FF0609F487C0D0F492
:1035900034E1E3163CE5F30609F4C2C008F4AEC01A
:1035A00095E1E9169CE5F90609F01EC58091EA024D
:1035B00082FB992790F921E0922790FB82F990FBFA
:1035C00083F947C0ECEFEE16ECE5FE0609F480C087
:1035D00008F468C02DEFE2162CE5F20609F47CC071
:1035E0008091EB0283603EEFE3163CE5F30609F0C1
:1035F000FBC48093EB02F8C481E6E8168DE5F8067B
:1036000009F499C0A0F4E1E0EE16EDE5FE0609F438
:1036100090C008F47BC060E022E0E2162DE5F206DF
:1036200009F0E2C48EE090E00E94D131DDC43DEAB1
:10363000E3163DE5F30611F178F49091EA02892F43
:103640008E7F90FF816095EAE9169DE5F90609F005
:10365000CBC48093EA02C8C4EEEAEE16EDE5FE069E
:1036600059F1FFEAEF16FDE5FF0609F0BDC49091A0
:10367000EB02892F877F93FF8860BBCF8091EB029D
:103680008860B7CF8091EA028260E3CF8091EA023E
:103690008460DFCF8091EA028860DBCF8091EB020B
:1036A0008160A7CF8091EB028260A3CF0E944E146D
:1036B0008091EA028068CDCF8091EB02877F99CF1D
:1036C0008091EA028B7FC5CF8091EA02877FC1CFCC
:1036D0008091EB028E7F8DCF8091EB028D7F89CF21
:1036E0008091EA028F7EB5CF8091EA028F7DB1CFC3
:1036F0000E944E148091EA028F77ABCF8091EA024C
:10370000837FA7CF8091EB028C7F73CF8091EB02F8
:10371000982F909591708E7F892B90FB81F969CFBE
:103720000E944E149091EA02892F97FB87F98058E6
:1037300090CF61E077CF9091EA02892F8F7E94FF3E
:10374000806187CF85E3C0CE80910C02811104C0D7
:1037500089E20E94A109BACE85E3FBCF8160809304
:10376000BA0361E086950E94B01240CD40EF52E16D
:103770006AEF72E10E94030739CD4AEF52E160EF30
:1037800072E1F8CF42E852E168E772E1F3CF4EE52B
:1037900052E16BE672E1EECF44E452E161E572E1A1
:1037A000E9CF41E552E164E472E1E4CF4EE952E150
:1037B0006CE872E1DFCF61E081E0D5CF65E082E0C7
:1037C0000E94051313CD68E086E0FACF64E18FE034
:1037D000F7CF67E185E1F4CF62E289E1F1CF61E003
:1037E00083E2C1CF0E944E14EFEFF4E32CE0E150EE
:1037F000F0402040E1F700C000000E94C30A809121
:10380000EB0282FB882780F991E089270E9421142E
:10381000F8018281E080F180882309F445C0C70166
:103820000E943610D82E682FC7010E943E0AB701A9
:103830008D2D0E941B100E9411087C01882EF8011A
:10384000D280B580B2943FE0B3228091720287703B
:10385000C1F0AD2CDD20B1F08F2D807F803421F0C0
:1038600080E28E0D883068F08091EB0282FF09C003
:1038700082E00E940514809172028770AA24A394AA
:103880008111A12C9F2C92942FE09222FBE0F9153C
:1038900008F479C0E92DF0E0EC58FD4C0C9422318D
:1038A00081E0B4CF80E0B2CFC7010E94F809D82EE2
:1038B000BECF2F2D2F70C22E8F2D807F19F0C29476
:1038C00090EFC922DD20B9F0CC2069F080E28E0DA6
:1038D000883010F0811009C080917C02C82AC09203
:1038E0007C020E949D138E2D4CC080917B02C82AC1
:1038F000C0927B02F6CF8E2D0E943F17CC2009F498
:1039000042C080E28E0D883010F0811004C08C2DF2
:103910000E949A0906C0C09480917B02C822C0927E
:103920007B020E949D132FC03F2D3F70C32E8F2D11
:10393000807F803219F0C29480EFC822882089F0FD
:1039400081E0881609F46AC0DD2009F474C0BB2048
:1039500009F46AC0F801858180FFC5CF8F70858327
:1039600063C02091EB0222FD37C0DD2079F1CC202D
:1039700039F080917C02C82AC0927C020E949D137B
:1039800080E00E949017292D2850330B24303105F8
:1039900020F40E94700E0E94580AAA2009F4DBCB82
:1039A0008091720280FDD7CBF801128285958595B2
:1039B00085950E943D14C8010E9499188091720259
:1039C0008595859585950E94F813C5CB80E00E946A
:1039D0003F17CC20C1F29BCFDD2099F090917D0262
:1039E0008C2D892BB11003C00E943517CCCFE1E09C
:1039F000BE12FACF22FFC7CF981729F280937D021B
:103A0000C2CFB11006C00E9494098C2D0E942E17BF
:103A1000BACFF1E0BF1609F4B6CFF5CFDD2031F013
:103A200025E02B1508F4AFCF8C2DDECF34E03B150D
:103A300008F4A9CFEACFBB2041F3F9E38F1209C004
:103A40002FEF37EE83E0215030408040E1F700C097
:103A500000008E2D0E943F1796CF8F2D869586955C
:103A6000837061F0813009F08ECFC7019370D1105F
:103A700002C090E080E00E94060685CFC7019370E7
:103A8000D11002C090E080E00E941C067CCF8F2DF8
:103A9000837091F5D11077CF4E2D429546954770A2
:103AA000440F440F8E2D8F70042E01C0880F0A948E
:103AB000EAF72E2D2071E4FE07C02FE030E001C0B0
:103AC000220F4A95EAF720953F2D369536953370AB
:103AD000323069F050F440917E02313029F0822B6F
:103AE00084230E9449144FCF842B822BFACF282B9A
:103AF00080917E028227F5CF8695DD2011F08F2DF3
:103B00008170882309F43FCF4E2D4295469547702A
:103B1000440F440F8E2D8F70042E01C0880F0A941D
:103B2000EAF72E2D2071E4FE07C02FE030E001C03F
:103B3000220F4A95EAF720953F2D3695369533703A
:103B4000323069F050F44091E903313029F0822B92
:103B500084230E94E71317CF842B822BFACF282BC4
:103B60008091E9038227F5CF9F2D9F70F92EDD20EC
:103B700029F0892F0E943D148E2D36CF8E2D0E9464
:103B80002E178F2D0E94F813FECE8E2DE2EF8E168B
:103B9000B1F1E81570F0F0EF8F16D1F021EF821639
:103BA00091F0DD2009F45EC0B1109DCE8F2D8F7194
:103BB0002AC033EF831651F194EF8912F2CF80912E
:103BC000EB0282FD2FC08F2D8F71DD20D9F21BC03B
:103BD000DD2081F0E4E0EB1508F4D5CE2F2D2F7118
:103BE00081E090E001C0880F2A95EAF79091E903FF
:103BF0008927AFCFF5E0FB1508F4C5CEEFCF8F2DA9
:103C00008F71D110BFCF0E943D14BDCE80E0DD206A
:103C100009F49FCF9F2D9F7181E001C0880F9A9575
:103C2000EAF797CFDD2099F02F2D2F71F22E822FFA
:103C30000E943D148091EB0282FF07C038E0F39EA2
:103C4000C00111248360809372028F2DDCCF81E04C
:103C50000E94051481E08B1508F095CE82E00E9449
:103C6000051491CEBB2059F0893309F0F2CE9FEFB5
:103C7000E7EEF3E09150E040F040E1F7E8CE8F2D21
:103C80008F7180CFF0E1EF16FFE5FF0609F476CBE8
:103C900021E1E2162FE5F20609F47ACB8DEBE81666
:103CA0008CE5F80609F49ECB08F076CBEBEBEE162C
:103CB000ECE5FE0609F492CB80E0FCEBEF16FCE5A8
:103CC000FF0609F48CCB33EFE3163CE5F30609F469
:103CD000CECB08F039C198EDE9169CE5F90609F458
:103CE000C2CBE9EDEE16ECE5FE0609F4CCCBF7ED20
:103CF000EF16FCE5FF0609F035C126E241EE61EE64
:103D0000C8010E943C1872CA30E1E3163FE5F30691
:103D100009F43ACB81E1E8168FE5F80609F43ACBCD
:103D200093EFE9169CE5F90609F4A1CB08F06CC104
:103D3000F8EDEF16FCE5FF0609F495CB29EDE21648
:103D40002CE5F20609F49FCB37EDE3163CE5F306CC
:103D5000A1F2F6E1EF16FCE5FF0609F4F5CC80913F
:103D60007C0282722CECE2162CE5F20609F41ECDE0
:103D700008F084C096ECE9169CE5F90609F402CD3A
:103D800008F053C0F3ECEF16FCE5FF0609F4EECCA7
:103D9000D8F532ECE3163CE5F30609F039CD809115
:103DA000BA0380FFDBCC8E7F8093BA036091BA03A5
:103DB0007091BB038091BC039091BD030E94A71139
:103DC0000E940907809136038160809336033FEF9C
:103DD00080E792E0315080409040E1F700C0000061
:103DE0000E94E70A03CA85E0DE01119601900D9258
:103DF0008A95E1F7F801228189819A812111AFC961
:103E00000E94F809F82EB3C994ECE9169CE5F9066E
:103E100009F4B3CC48E752E162E872E1E5ECEE1652
:103E2000ECE5FE0609F4A6CCF3CCF9ECEF16FCE5C4
:103E3000FF0609F4B1CC88F437ECE3163CE5F30651
:103E400009F4A5CC4BE652E16EE572E198ECE91677
:103E50009CE5F90609F48ECCDBCCEAECEE16ECE539
:103E6000FE0609F49ECC4CE852E16EE972E1FBECEF
:103E7000EF16FCE5FF0609F47DCCCACC21EDE21675
:103E80002CE5F20609F4A2CCB8F48EECE8168CE529
:103E9000F80609F493CC08F48ECCEFECEE16ECE5C2
:103EA000FE0609F490CC6EE089E0F0EDEF16FCE53B
:103EB000FF0609F485CCACCC24EDE2162CE5F20625
:103EC00009F48ACC78F482EDE8168CE5F80609F45A
:103ED00080CC61E088E193EDE9169CE5F90609F4F0
:103EE00042CC96CCE5EDEE16ECE5FE0609F477CC77
:103EF0006AE285E2FDE5EF16FF0609F461CC88CCA5
:103F00002AE5E2162DE5F20609F4CACC78F4E114AC
:103F10008CE5F80609F466CC9EEDE9169CE5F906F9
:103F200009F076CC0E942D130E941817ECE5EE16CE
:103F3000EDE5FE0609F463CC08F4B4CC27EAE216FA
:103F40002DE5F20689F364CC25EFE2162CE5F206A6
:103F500009F495CA08F48FCA86EFE8168CE5F806CE
:103F600009F460C01092E80393E0E9169DE5F906B4
:103F700008F08CCAEAEFEE16ECE5FE0630F4C70155
:103F800082509C45449708F08ECA0E94B5109093C9
:103F9000EB028093EA0282E1E8168CE5F80609F468
:103FA000A7CB08F0E7CAE9E0EE16ECE5FE0609F457
:103FB0007DCB08F0AACA25E0E2162CE5F20609F44A
:103FC00069CB08F08CCA83E0E8168CE5F80609F4A2
:103FD00059CB08F05BCB8091EA028160E2E0EE16FB
:103FE000ECE5FE0609F435CB6091EA02F090EB02B5
:103FF00084E090E00E94D1316F2D82E290E00E9437
:10400000D1310E944E14F2C885EFE8168CE5F8060F
:1040100009F435CA08F42FCAE6EFEE16ECE5FE0601
:1040200009F097CE27E245EE66EE6ACE1F93CF9356
:10403000DF9380913F02807F09F049C080913C026C
:10404000882309F444C080917102D09140026091AC
:104050003A0270913B02A0913D02B0913E02C62F00
:10406000C72316E0D81799F190E0109711F0CF3FD1
:1040700019F401968770F6CF189F9001199F300DA3
:104080001124F901EF5BFD4F41814713F2CF4081CD
:104090004613EFCF42814111ECCF438154814A1B3B
:1040A0005B0B483C510528F780913F028F7080617F
:1040B00080933F02F901EA5BFD4F80818F70806140
:1040C00080838AE392E00E9499180E94C709DF91D9
:1040D000CF911F910895A1E1B0E0E1E7F0E20C94E7
:1040E000AF308C0185E0F801DE011D9601900D9244
:1040F0008A95E1F7F801E2808AE3A82E82E0B82EE3
:1041000060913D0270913E026115710509F426C16E
:1041100090913A0240913B02892F84238F3F09F40A
:104120001DC120813181C380D480F0903C02F60112
:10413000E61BF70BFF2009F4DCC080913F02582FEB
:10414000507FE83CF10508F09FC051116BC0FE2C78
:10415000431314C0921312C0E11010C08F7080611D
:1041600080933F02C5010E94991880913F02F80197
:1041700085838F2D6196EAE00C94CB30C114D10475
:1041800029F0822F83238F3F09F003C180E0F82FAD
:10419000F170DF2E80FF3CC080917102409140029F
:1041A00056E0841315C02D873E878D859E850E941D
:1041B0006510292F22952F702230F0F0243018F549
:1041C0009F70F1F0F8019581907FD1F4D12C1EC041
:1041D00090E0589FF001599FF00D1124EF5BFD4FC7
:1041E0006181361306C06081261303C06281E61226
:1041F0000FC001968770D5CF9F7011F0882331F3DF
:10420000805E883018F3C8010E949918FD2CB1CF48
:10421000EE2009F4AECF80913F02816080933F028F
:10422000F12CA7CF431306C0921304C0F801EE206F
:1042300009F479C0C8010E947210882309F1EE20A8
:10424000F9F080913F02803270F020913A02309173
:104250003B0238872F831986DB86CA868C87CE017E
:1042600007960E94991886E0F801AAE3B2E001904F
:104270000D928A95E1F70E941620FF24F39479CFDE
:10428000C8010E949918F9CF51110AC08AE392E03F
:104290000E94991886E0F50111928A95E9F7C0CF3E
:1042A00043130FC092130DC0E1100BC0F8018583BA
:1042B000C8010E94991886E0F50111928A95E9F7E4
:1042C00058CFC8010E9472108823D1F2EE20C1F2AB
:1042D00080913F02803238F220913A0230913B02C5
:1042E0003A8329831B82DD82CC828E83CE010196A4
:1042F000B8CFE83CF105F8F6FE2CEE2009F24313A6
:104300001FC092131DC080913F0280FD10C0982FE6
:10431000907F69F0F8018583903F31F0982F907F6E
:10432000905F8F70892B8583C8010E94991886E061
:10433000F801AAE3B2E001900D928A95E1F719CF56
:10434000C8010E94721081118ECF80913F0281605E
:1043500080933F02C8010E9499180BCFEE2009F408
:104360008FCFC8010E947210F82E882309F488CFDD
:1043700086E0F801AAE3B2E001900D928A95E1F798
:1043800080913A0290913B020E9465100E94162093
:10439000F0CE81E08E25FBCEA7E1B0E0E2EDF1E2C8
:1043A0000C94B6304B8B5C8B6D8B7E8B8F8B61113D
:1043B00010927B021A8A198A85E0FE017396DE014B
:1043C0001D9601900D928A95E1F786E0FE013D96DB
:1043D000DE01179601900D928A95E1F7CE010796BE
:1043E0000E946B20882359F016E080917102909111
:1043F0004002891343C06796E3E00C94D23086E014
:10440000FE013796DE01119601900D928A95E1F733
:104410008A859B85892B41F38F81988589238F3FDE
:1044200019F32091400230E0C90101968770992765
:10443000409171024817190671F40E944E141092AF
:1044400040021092710286E0EAE3F2E0DF011D9281
:104450008A95E9F7C9CF96E0929FD001939FB00D5E
:104460001124AF5BBD4FFE01319601900D929A95DC
:10447000E1F7809340020E94C709B6CF819FC00137
:1044800011248F5B9D4F0E946B20882309F4B3CFCA
:104490008091710290E00196877099278093710254
:1044A000A4CFAAE0B0E0E7E5F2E20C94B530182F13
:1044B000062F662399F10E94FA051E832DEF2F83A4
:1044C00021E0288781609A8789874E815F8168858E
:1044D00079858A850E94CC218FE39FE10197F1F7CE
:1044E00000C000000023F9F00E94FA0519832DEFA7
:1044F0002A831B8281609D838C8349815A816B81D1
:104500007C818D810E94CC218FE39FE10197F1F79F
:1045100000C000002A96E4E00C94D1300E94FA0515
:104520001E832CEFCCCF0E94FA0519832CEFE0CF2D
:10453000A4E2B0E0EEE9F2E20C94A9308E010F5F44
:104540001F4F88E1D8011D928A95E9F76DE4E62EA8
:1045500061E0F62E680173E5472E71E0572E662460
:104560006394712CFDE48F2EF1E09F2EF701819171
:104570007F018F3F09F445C0F894E82FE295EF7072
:10458000F0E021A18F70A30102C0440F551F8A954E
:10459000E2F7CA01922F982B91A392A180958923CB
:1045A00082A3789400C0E4E4F1E021E030E0B12C93
:1045B000A12C41914F3F09F46DC0A42FA295AF707B
:1045C000B0E090968C9190E04F7002C095958795E1
:1045D0004A95E2F780FD5EC0C901A82AB92A220FD8
:1045E000331F8E169F0629F7F701319780818F3F81
:1045F00011F00E94B70750EA5A95F1F7D601AD9233
:10460000BC92B2E0CB0ED11C4E145F0409F0AECFC9
:1046100048E150E0B80180ED92E00E94A731009798
:1046200041F028E1F801A0EDB2E001900D922A9549
:10463000E1F70091E902892B81F181E08093810209
:104640000E94FA059093800280937F0280917F02FE
:10465000909180020E94DF05059718F110E0000F8D
:10466000111F0A5E1C4F4CE050E060ED72E0C80183
:104670000E94A731D12C892B51F08CE0E0EDF2E0C3
:10468000D80101900D928A95E1F7DD24D394109220
:10469000810208C090E080E0A0CF8091810281116A
:1046A000D5CFD12C0E944D0EC82EE091E902AE016B
:1046B000475E5F4F7A01882309F494C08CE0DA01E9
:1046C0001D928A95E9F70E2F10E0000F111F0A5E68
:1046D0001C4F8091CB028A3008F04FC041EB56E26C
:1046E000B701C8010E941A0E882309F46AC048E580
:1046F00056E2B701C8010E941A0E882309F461C06E
:104700004DE854E2B701C8010E941A0E882309F44B
:1047100058C046E955E2B701C8010E941A0E882325
:1047200009F44FC042E755E2B701C8010E941A0ED2
:10473000882309F446C044E455E2B701C8010E9449
:104740001A0E8823F1F11092CB028091E80290E0DA
:10475000880F991F4CE050E0B7018A5E9C4F0E9481
:10476000A73121E020938802892BE1F4C12C8C2D04
:104770008D29A496E0E10C94C5308091820290913D
:1047800083020E94DF05843F914008F0A7CF80910B
:104790008802882359F38CE0F70111928A95E9F792
:1047A00010928802A091E802B0E0AA0FBB1FAA5E97
:1047B000BC4F8CE0FE01799601900D928A95E1F74D
:1047C000D6CF8091CB028F3F31F08F5F8093CB02A9
:1047D0008A3008F4BACF0E94FA059093830280933E
:1047E0008202D5CFF0E0EE0FFF1FEA5EFC4F8CE0B7
:1047F000AFE9B2E001900D928A95E1F76CE070E0CC
:104800008FE992E00E94320680939E02409112034B
:1048100050E06091110370E0635F7C4FC7010E941C
:10482000B431898D8093AC0261E070E0C7010E94D1
:1048300032068093AB028090AD029090AE02A090C1
:10484000AF02B090B0028091840290918502A09155
:104850008602B091870288169906AA06BB06D1F097
:104860008092840290928502A0928602B092870282
:104870000E944D0E81110EC00E94EE05861A970A05
:10488000A80AB90A8092CC029092CD02A092CE02E0
:10489000B092CF028091B1028093C0038091B202A6
:1048A0000E9448068091BA02882309F460CF80FFF5
:1048B0000DC08091B30280FF2AC09091BA0391602D
:1048C0009093BA0360E086950E94B0128091BA027C
:1048D00081FF09C020E04091B6026091B50280914D
:1048E000B4020E94BA118091BA0282FF06C0809180
:1048F000B902882379F00E948C118091BA0283FF5B
:1049000003C081E0809331031092BA0230CF0E943D
:10491000020EDCCF0E940907F0CFA4E0B0E0E3E98B
:10492000F4E20C94B6304091BB025091BC0260910D
:10493000BD027091BE022FB7F8948091C803909188
:10494000C903A091CA03B091CB032FBF841B950B61
:10495000A60BB70B11E084369105A105B10570F1E6
:104960000E94840E6E5F7F4F8F4F9F4F69837A83C3
:104970008B839C83809125019091260182569D4FC7
:104980004091240150E04530510510F044E050E0E2
:10499000BE016F5F7F4F0E94B43184E090E00E94BF
:1049A0003130182F882351F00E94EE056093BB022E
:1049B0007093BC028093BD029093BE02812F249617
:1049C000E3E00C94D2304F925F926F927F928F927D
:1049D0009F92AF92BF92EF92FF920F931F93CF934C
:1049E000DF937B01FB0140805180628073809FB721
:1049F000F8948090C8039090C903A090CA03B09027
:104A0000CB039FBF84189508A608B708F4E68F1655
:104A10009104A104B10418F4C1E0442329F1C82F82
:104A2000880FDD0BFE0183E0EE0FFF1F8A95E1F793
:104A3000EC5FFE4F8181928182569D4F408150E014
:104A40000417150708F4A801B9010E94B431CE017A
:104A50000E943130C82F882339F00E94EE05F701FB
:104A600060837183828393838C2FDF91CF911F9119
:104A70000F91FF90EF90BF90AF909F908F907F909D
:104A80006F905F904F900895A8E0B0E0EAE4F5E2FF
:104A90000C94B53085E0EAEBF3E0DE01119601906D
:104AA0000D928A95E1F78091340390913503A0919E
:104AB00036038E839F83A88741E08885811101C0DA
:104AC00040E008E010E09E012F5F3F4F67EC72E08E
:104AD00087E00E94E3248111109236032896E4E0D7
:104AE0000C94D130A1E0B0E0E8E7F5E20C94B530E9
:104AF0008091BF0380FF18C086958695869589832F
:104B000041E09091B202981301C040E001E010E052
:104B10009E012F5F3F4F63EC72E086E00E94E3242A
:104B20002196E4E00C94D13080E0E9CFA1E0B0E040
:104B3000ECE9F5E20C94B5300E94700E898341E0F7
:104B40009091B102981301C040E001E010E09E0195
:104B50002F5F3F4F6FEB72E085E00E94E3242196C8
:104B6000E4E00C94D1304F925F927F928F929F92AB
:104B7000AF92BF92CF92DF92EF92FF920F931F936B
:104B8000CF93DF930F92CDB7DEB7C62E4A015901FE
:104B9000482E880F5508C2010E943130782E882394
:104BA00009F480C0C20133E0880F991F3A95E1F7FC
:104BB000FC01EC5FFE4F438150E04115510511F0BF
:104BC00041E050E08C5F9E4FFC016481758162562C
:104BD0007D4FCE0101960E94B431F4014081518194
:104BE000628173812FB7F8948091C8039091C903B3
:104BF000A091CA03B091CB032FBF841B950BA60BCA
:104C0000B70B84369105A105B10540F4B701C80181
:104C10000E9432069981891709F444C00C2C000CBB
:104C2000DD08C6010E943130782E811113C0712C2D
:104C3000872D0F90DF91CF911F910F91FF90EF90F3
:104C4000DF90CF90BF90AF909F908F907F905F90BC
:104C50004F900895C60123E0880F991F2A95E1F728
:104C6000FC01EC5FFE4F438150E0E416F50608F4CA
:104C7000A7018C5F9E4FFC016481758162567D4F58
:104C8000C5010E94B431B701C8010E943206998162
:104C90008913CDCF0E94EE05F40160837183828376
:104CA0009383C6CFA701B801C5010E94B431C0CF1C
:104CB000A1E0B0E0EEE5F6E20C94B030EE24E3942F
:104CC000F12C0CEA12E09E012F5F3F4F4AE952E0BF
:104CD00063E082E00E94B325C82E882339F100E00A
:104CE00080E01DC0D090EE02D00E2D2D30E0A90145
:104CF000435F5C4F7A01E1E0F0E0EC0FFD1FE00F55
:104D0000F11D1081FA019081191BB12E1B149CF02A
:104D1000912F17FD90E0191B111118C00F5F909192
:104D2000ED020917F8F281110E9491098C2D21964C
:104D3000E9E00C94CC30BA94F70180818F5F8083D6
:104D400060E08D2D0E9451228C2DE0CF1F5FF70176
:104D500080818150808361E08D2D0E9451228C2DB5
:104D6000DBCFACE0B0E0E7EBF6E20C94B1306B01E6
:104D70008CE0E82EF12C0FE912E09E012F5F3F4FEF
:104D800046E952E061E080E00E94B325882349F0C3
:104D90009CE0FE013196AAE8B2E001900D929A954E
:104DA000E1F79CE0EAE8F2E0D60101900D929A95D5
:104DB000E1F72C96E8E00C94CD3090E080E00E9482
:104DC000CB31883E9E4F19F40E949C10089580E0DC
:104DD00008950E94DD2681110AC00E942D13809142
:104DE000BF03847089618093BF030E948E0F86E0A9
:104DF00090E00E94BD318093BF03803220F0877025
:104E000088618093BF039091BF03892F817090FFC9
:104E100004C0892F8695869586950E944806089538
:104E20001F920F920FB60F9211242F933F934F931F
:104E30005F936F937F938F939F93AF93BF93CF9322
:104E4000DF93EF93FF93D091E900DF708091EC0046
:104E5000C82FC17080FDC0E81092E9008091F00079
:104E6000877F8093F00078940E945A141092E90092
:104E70008091F00088608093F000CD2BCF70C093BC
:104E8000E900FF91EF91DF91CF91BF91AF919F9199
:104E90008F917F916F915F914F913F912F910F90E3
:104EA0000FBE0F901F9018951F920F920FB60F9282
:104EB00011242F933F934F935F936F937F938F931F
:104EC0009F93AF93BF93EF93FF938091E10082FF95
:104ED00009C08091E20082FF05C08091E1008B7FD4
:104EE0008093E1008091DA0080FF24C08091D80097
:104EF00080FF20C08091DA008E7F8093DA0080915D
:104F0000D90080FF9DC080E189BD82E189BD09B4DF
:104F100000FEFDCF81E08093DC038091CF038111FF
:104F200009C00E9455040E9420058091E20084601F
:104F30008093E2008091E10080FF17C08091E20041
:104F400080FF13C08091E2008E7F8093E200809109
:104F5000E20080618093E2008091D80080628093BB
:104F6000D80019BC85E08093DC038091E10084FFC8
:104F70002BC08091E20084FF27C080E189BD82E1DF
:104F800089BD89B5982F917080FFFBCF8091D800A3
:104F90008F7D8093D8008091E1008F7E8093E10027
:104FA0008091E2008F7E8093E2008091E200816038
:104FB0008093E2008091DD03882309F447C084E0F8
:104FC0008093DC038091DC038091E10083FF27C0A4
:104FD0008091E20083FF23C08091E100877F80936E
:104FE000E10082E08093DC031092DD038091E10018
:104FF0008E7F8093E1008091E2008E7F8093E200BB
:105000008091E20080618093E20042E060E080E015
:105010000E94EE048091F00088608093F000FF9180
:10502000EF91BF91AF919F918F917F916F915F9120
:105030004F913F912F910F900FBE0F901F90189599
:1050400019BC1092DC031092CF0374CF8091E3005F
:1050500087FD93E09093DC03B5CF78941F921FB641
:105060001F9211248F939F93AF93BF938091C80396
:105070009091C903A091CA03B091CB030196A11DE1
:10508000B11D8093C8039093C903A093CA03B09342
:10509000CB03BF91AF919F918F911F901FBE1F9027
:1050A00018951F921FB61F9211248F939F93AF9351
:1050B000BF938091C703811113C08091C803909161
:1050C000C903A091CA03B091CB034196A11DB11DA4
:1050D0008093C8039093C903A093CA03B093CB03F2
:1050E000BF91AF919F918F911F901FBE1F901895F8
:1050F000CDB7DEB7AB970FB6F894DEBF0FBECDBF0E
:1051000085B7806885BF85B7806885BF84B7877F8E
:1051100084BF0FB6F894A895809160008861809351
:105120006000109260000FBE80E890E00FB6F89427
:1051300080936100909361000FBE85EB97E09093A0
:105140000302809302020E9455040E942005809170
:10515000E20084608093E20078948091DC038823ED
:10516000A1F01091E9001F709091EC00892F8170DF
:1051700090FD80E8182B1092E9008091E80083FDF3
:105180000E945A141F701093E90082E084BD93E0DE
:1051900095BD9AEF97BD80936E001092CC0210924D
:1051A000CD021092CE021092CF020E949C1081116B
:1051B00002C00E94790F87988F988FE891E001973D
:1051C000F1F700C000008FB1881F8827881F8093E7
:1051D000530180915301882309F497C01092700104
:1051E00088E0809371010E944D0E81110E94452F2D
:1051F00080915301811128C086E0E6E7F1E0DE01ED
:10520000919601900D928A95E1F7FE01B196ADE479
:10521000B1E0CE01879621912D938E179F07D9F784
:1052200089E0ECE7F1E0DE01119601900D928A959C
:10523000E1F7FE013196A4E4B1E0CE010A96219196
:105240002D93E817F907D9F78091530196E0811162
:1052500090E09093E90286E0891B8093E8020DE4D8
:1052600011E0B3E5EB2EB1E0FB2ED8018D918D015D
:105270008F3F11F00E94B707E016F106B1F704E482
:1052800011E0ADE4EA2EA1E0FA2EF80181918F0140
:105290008F3F11F00E94B707E016F106B1F788E1E1
:1052A000E6E1F3E0DF01282F1D922A95E9F7E0ED12
:1052B000F2E0DF011D928A95E9F70E94DD26811157
:1052C00002C00E942D1382E090E00E94BD318093C5
:1052D000F1020E94B5109093EB028093EA020E94C3
:1052E0009822EFE3FCE93197F1F700C000000E943B
:1052F00098228091160380FF0CC06FEF7FEF90E043
:1053000080E00E94EF310E94C30A88E08093700120
:1053100068CF83E090E00E94BD310E944914269A34
:105320002E98259A2D9882E88093800089E18093B9
:1053300081008FEF9FEF90938700809386000E94FB
:10534000E9260E94E9268091EC02811138C00E9472
:10535000DD26811104C00E942D130E94151388E0E0
:1053600090E00E94C5316093BA037093BB038093B1
:10537000BC039093BD038091360383608093360312
:105380006E7F71F40E94151388E090E00E94C53191
:105390006093BA037093BB038093BC039093BD03E7
:1053A0000E9410070E9409078091BA0380FF04C081
:1053B00060E086950E94B01281E08093EC029091AB
:1053C000530181E0982790931103F82FF91BF09374
:1053D000EE029091530180931203909153018093B8
:1053E000ED0280915301811106C086E9809361012D
:1053F00084E98093600120916101E22FE295EF70D2
:10540000F0E061A12F7081E090E0AC0101C0440F99
:105410002A95EAF7342F3095362331A322A1242B85
:1054200022A320916001E22FE295EF70F0E031A11C
:105430002F7001C0880F2A95EAF7982F9095932333
:1054400091A392A1892B82A3EFE8F1E03197F1F7C4
:1054500000C000001091120363E173E041E651E0E7
:1054600080E6E82E81E0F82EFB0128C0DA012D91BC
:10547000AD01822F82958F7090E0DC0190968C9127
:1054800090E02F7002C0959587952A95E2F781707C
:10549000D7019D917D01292F22952F7030E0D901F0
:1054A00090962C9130E09F7002C0359527959A9583
:1054B000E2F790E020FD92E0892B81938E2F861BEE
:1054C0008117A0F20E944D0E811102C00E94482F48
:1054D00084E591E09093C4038093C303F0E42F2EFE
:1054E0008091DC0300E112E1853009F49DC00E9447
:1054F0009822E2EF8E2EE2E09E2E06E113E04AE0D3
:1055000053E0D801F401219131918D919D914E1775
:105510005F0709F497C028173907A9F30E944D0EB9
:10552000382E76E1672E73E0772E512CD301ED9063
:10553000FD903D01F401A190B1904F01AE14BF0464
:1055400069F1AE24BF24412CCC24C394D12CC601D4
:105550008A219B21892BC1F03320B1F04FA258A69C
:1055600021E0C6018E219F21892B09F420E029A783
:105570000E94FA058160782F9BA78AA74FA158A5A2
:1055800069A58BA50E94CC214394CC0CDD1CF9E0CD
:105590004F12DDCFF4013297F182E08253942CE078
:1055A0005212C4CF0E94EE056FC08091DC0384309C
:1055B00049F180E00E94480680E00E94580A10925B
:1055C000C703E8E1F0E00FB6F894A895E093600017
:1055D0000FBE2092600083B7817F846083BF83B752
:1055E000816083BF7894889583B78E7F83BF0FB621
:1055F000F894A89580916000886180936000109273
:1056000060000FBE8091DB03882371F00E94982216
:10561000E6E1F3E081919191892B09F0C8C32EE274
:1056200033E02E173F07B1F78091DC03853009F492
:10563000BCCF0E944E140E94E9260E94700E0E9468
:10564000580A55CF2817390709F068CF0E94FA0584
:105650007C018091EF029091F002E816F906A1F02A
:105660008FEF89A38AA31BA20E94FA058160782F7D
:105670009DA38CA349A15AA16BA18DA10E94CC210D
:10568000F092F002E092EF020E944D0E80913503FD
:10569000882309F464C080913403E091BA03E6954D
:1056A000E81BE0933003823009F09AC0F0E0EF5F2E
:1056B000FD4FE491EE2EF12C4EEEC42E4DE0D42E93
:1056C00080913103882361F0109231030E949E0E75
:1056D00090932F0380932E03109233031092320382
:1056E0000E949E0EE0912E03F0912F039C012E1B31
:1056F0003F0B2F3F3F4798F520910C032223B1F039
:1057000010920C0320910A0330910B03821B930B20
:105710008F3F9F4758F4205D3A4830930B03209306
:105720000A0380913603886080933603A090320389
:10573000B0903303EE0DFF1DF0932F03E0932E0383
:105740008EE293E0F6010995809132039091330344
:10575000892B29F4AB2819F081E080930C03C12C2C
:10576000B12C80911203C81608F4ABC0B1100E948E
:1057700091090E94700EF82E80911503F81639F0E9
:10578000F09215030E94EE058F2D0E94580A809119
:10579000DC03843009F0A4CE83E08093E90080919B
:1057A000E80082FF9DCE8091E80090E085FF06C072
:1057B0000E947404882309F4F8C091E08091E80005
:1057C0008B778093E800992309F48ACEE981E15030
:1057D000E53108F085C1F0E0E058FD4C0C94223131
:1057E000863059F4F0E0E250FE4FE491EE2EF12CB9
:1057F0003EEDC32E3DE0D32E63CF893061F4E695B4
:10580000F0E0E550FE4FE491EE2EF12C27E3C22E9E
:105810002DE0D22E55CF8F3061F4E695F0E0E850C0
:10582000FE4FE491EE2EF12C91EBC92E9CE0D92E87
:1058300047CF853159F4F0E0EB50FE4FE491EE2E66
:10584000F12C8CE2C82E8CE0D82E3ACF883189F129
:10585000833249F4E3EFF1E0E590F490BDE8CB2E1C
:10586000BDE0DB2E2DCF64EFE62EFF24F3947DE622
:10587000C72E7BE0D72E843209F422CF40EDE42EF0
:1058800047E0F42E5AEDC52E55E0D52E853209F0AD
:1058900017CF8E2F63E00E94EE30E92FF0E0E05149
:1058A000FE4FE491EE2EF12CA3ECCA2EA0E1DA2EED
:1058B00007CFE8E2EE2EF12CFAEACF2EFBE0DF2E46
:1058C000FFCE8C2D90E0FC01EF59FE4F2081E22F9E
:1058D000E295EF70F0E0E0A1F0E02F7002C0F595E6
:1058E000E7952A95E2F7E170DC01A05ABE4F4C9192
:1058F000A42FA295AF70B0E090962C9130E04F703D
:1059000002C0359527954A95E2F720FD4CC020E06E
:105910002E2BDC01AD5EBC4FEC913E2F3370231774
:1059200009F43FC0EE0FEE0FE22BEC93D090110381
:10593000DC0CEF70F0E0E854FE4F9C01215F3C4F1F
:1059400079018081D9019C91890F8C9320E084306A
:1059500064F0ED2DF0E0E35FFC4F80818F5F80838A
:1059600060E08D2D0E94512221E0F70180818D3F62
:1059700064F4ED2DF0E0E35FFC4F80818150808383
:1059800061E08D2D0E94512221E0D7018C91082EDB
:10599000000C990B64E070E00E940E31F7018083E7
:1059A000B22AC394DECE22E0B3CF30E2E32EF12C54
:1059B0009E012F5F3F4F69018091E80085FD0AC07D
:1059C0008091E8008B778093E8000E94740488231C
:1059D00099F3F3CE8091F100D6018D936D01B1E082
:1059E000EB1AF10849F7E9CE1A828AE08B8329C0C5
:1059F0008A81823079F0833009F44AC0813009F01D
:105A00006FC00E94EE050E9428316B837C838D83DA
:105A10009E8317C086E290E00E94BD3190E0B0E026
:105A2000A0E0CC24D82EE92EFA2E87E290E00E9446
:105A3000BD311B821C82C82ADC24CD24DC24DE82FA
:105A4000CD828091DC03843009F04ACD1091E900C9
:105A50001F709091EC00892F817090FD80E8182BC9
:105A600082E08093E9008091E80080FF0DC050E063
:105A700040E060E270E0CE0101960E94A5048091B2
:105A8000E8008E778093E8001F701093E90028CD1E
:105A9000FE013196D8018C9111969C910E5F1F4F9B
:105AA000928383833296B3E00E321B0799F7C9CFF6
:105AB0008A818230A9F46B817C818D819E810E94D4
:105AC00028316B017C0187E290E00E94D131992757
:105AD0008F2D7E2D6D2D86E290E00E94D131B1CFC9
