:100000000C9487060C94AB310C94CE060C94CE065F
:100010000C94CE060C94CE060C94CE060C94CE0610
:100020000C94CE060C94CE060C9440280C94FC271D
:100030000C94D0300C94CE060C94CE060C94CE06C4
:100040000C94CE060C94CE060C94CE060C94CE06E0
:100050000C94CE060C94AC300C94CE060C94CE06C8
:100060000C94CE060C94CE060C94CE060C94CE06C0
:100070000C94CE060C94CE060C94CE060C94CE06B0
:100080000C94CE060C94CE060C94CE060C94CE06A0
:100090000C94CE060C94CE060C94CE060C94CE0690
:1000A0000C94CE060C94CE060C94CE060631FF09B5
:1000B00074A1010975150026FF00952075088102BD
:1000C0000976150026FF00952075089102C00501EC
:1000D0000980A101850319012AB700150126B7007F
:1000E000950175108100C0050C0901A10185041955
:1000F000012AA002150126A002950175108100C0F9
:100100000660FF0961A1010962150026FF00952024
:10011000750881020963150026FF00952075089176
:1001200002C005010906A101050719E029E715002C
:100130002501950875018102950175088101050762
:10014000190029FF150026FF009506750881000596
:10015000081901290595057501910295017503910D
:1001600001C00001010101010101010102020202BD
:100170000202020202030303030303030304040451
:10018000040404040505050505060606060607071A
:1001900007070708080808090909090A0A0A0B0BD2
:1001A0000B0C0C0C0D0D0D0E0E0E0F0F0F10101171
:1001B00011111212131314141515161617171818F7
:1001C00019191A1A1B1B1C1D1D1E1E1F202021225F
:1001D00022232424252626272829292A2B2C2D2DA5
:1001E0002E2F30313232333435363738393A3B3CC2
:1001F0003D3E3F404142434445464748494A4C4DB5
:100200004E4F50515354555658595A5B5D5E5F617D
:100210006264656668696B6C6D6F70727375777810
:100220007A7B7D7E8082838587888A8C8E8F91936E
:100230009596989A9C9EA0A2A3A5A7A9ABADAFB195
:10024000B3B5B7BABCBEC0C2C4C6C9CBCDCFD1D47A
:10025000D6D8DBDDDFE2E4E7E9EBEEF0F3F5F8FA20
:10026000FDFF7267626C69676874206D6F6465205A
:100270005B4E4F454550524F4D5D3A2025750A0063
:100280007267626C69676874206D6F6465205B4596
:100290004550524F4D5D3A2025750A007267626CD9
:1002A0006967687420656E61626C65205B454550C6
:1002B000524F4D5D3A207267626C696768745F6384
:1002C0006F6E6669672E656E61626C65203D2025E4
:1002D000750A007267626C6967687420646973618B
:1002E000626C65205B4E4F454550524F4D5D3A2044
:1002F0007267626C696768745F636F6E6669672EA8
:10030000656E61626C65203D2025750A007267622A
:100310006C696768742073657420687376205B4E1F
:100320004F454550524F4D5D3A2025752C25752C73
:1003300025750A007267626C69676874207365745A
:1003400020687376205B454550524F4D5D3A20251D
:10035000752C25752C25750A007267626C696768B3
:1003600074207261696E626F7720736574206873A0
:10037000763A2025642C25642C25642C25750A00EA
:10038000FFAA7F55400102030C0D0E0F0007060562
:10039000040B0A09087267626C69676874207469E3
:1003A0006D657220656E61626C65642E0A0072670D
:1003B000626C696768742074696D65722064697322
:1003C00061626C652E0A002223252628292A2C2DFD
:1003D0002F3032333536383A3B3D3E404243454775
:1003E000494A4C4E5051535557595A5C5E606264AD
:1003F0006668696B6D6F71737577797B7D7F8183BB
:100400008587898A8C8E90929496989A9C9E9FA1BB
:10041000A3A5A7A8AAACAEAFB1B3B4B6B8B9BBBCDC
:10042000BEBFC1C2C3C5C6C7C9CACBCCCDCED0D151
:10043000D2D2D3D4D5D6D7D7D8D9D9DADADBDBDB49
:10044000DCDCDCDCDCDDDDDDDDDCDCDCDCDCDBDBEA
:10045000DBDADAD9D9D8D7D7D6D5D4D3D2D2D1D03E
:10046000CECDCCCBCAC9C7C6C5C3C2C1BFBEBCBB3B
:10047000B9B8B6B4B3B1AFAEACAAA8A7A5A3A19FB3
:100480009E9C9A98969492908E8C8A898785838177
:100490007F7D7B79777573716F6D6B696866646258
:1004A000605E5C5A5957555351504E4C4A49474526
:1004B0004342403E3D3B3A3836353332302F2D2CC7
:1004C0002A2928262523226261636B6C6967687478
:1004D00020656E61626C650A003A003B0035001EC3
:1004E000001F0020002100220023003C003D002BC3
:1004F0000014001A0008001500170000003E003F1D
:1005000000390004001600070009000A000000403E
:10051000004100E10064001D001B000600190005F9
:100520000042004300E000E200E30001512C002CF7
:10053000000000A800000029003A003B003C003DFC
:10054000003E003F0024002500260027002D002E3D
:10055000004C002A004A001C0018000C0012001376
:10056000002F00300031004D000B000D000E000F79
:100570000033003400320028004B00110010003618
:1005800000370038000000E50052004E0001512CF9
:1005900000E600E400E7000000500051004F0000BA
:1005A000004000410042004300440045004C004927
:1005B00000C55CC65C165C3A003B003C003D003E5A
:1005C000003F00C75CC85CC25CC35C010052000114
:1005D0000001000000C95CCA5C010001005000512C
:1005E000004F0001000000010001000100010001B6
:1005F00000010001000100010001000100010001F3
:1006000000010001000100010000000100000001E4
:100610000001000100010001000100010040004153
:1006200000420043004400450001000100010001B8
:1006300000010001000100010001000100010001B2
:1006400000010001000100010001000100010001A2
:100650000001000100010001000100010000000193
:100660000001000100010001000100010001000083
:100670000001000100010000000100010001000173
:100680000001000100010001000100010001000162
:100690000001000100010001000100010001000152
:1006A0000001000100010001000100000001000143
:1006B0000001000100010001000100010000000133
:1006C0000001000100010001000100010001000122
:1006D0000001000100010001000100010001000112
:1006E0000000000100000001000100010001000104
:1006F00000010001000100010001000100010001F2
:1007000000010001000100010001000100010001E1
:1007100000010001000100010001000100010001D1
:1007200000010001000100010001000100010001C1
:1007300000010001000000010001000100010001B2
:1007400000010001000100000001000100010000A3
:100750000001000100010001000100010001000191
:100760000001000100010001000100010001000181
:100770000001000100010001000100010001000171
:100780000001000000010001000100010001000162
:100790000001000100000001000100010001000152
:1007A0000001000100010001000100010001000141
:1007B0000001000100010001000000010000000133
:1007C0000001000100010001000100010001000121
:1007D0000001000100010001000100010001000111
:1007E0000001000100010001000100010001000101
:1007F00000010001000100010001000100010001F1
:1008000000010001000100010001000100000001E1
:1008100000010001000100010001000100010000D1
:1008200000010001000100000001000100010001C1
:1008300000010001000100010000000000000000B4
:10084000000000000000000000000000007E0F001B
:10085000D4FFFFFFC7000000780000000000000088
:10086000002A2B280000000000000000000000000B
:100870000000000029000000002C1E34202122244A
:10088000342627252E362D3738271E1F20212223D8
:100890002425263333362E37381F0405060708096A
:1008A0000A0B0C0D0E0F1011121314151617181930
:1008B0001A1B1C1D2F3130232D350405060708098E
:1008C0000A0B0C0D0E0F1011121314151617181910
:1008D0001A1B1C1D2F3130354C6261636B6C6967CC
:1008E00068742064656372656173653A2025750AD2
:1008F000006261636B6C6967687420696E6372651E
:100900006173653A2025750A006261636B6C6967E3
:1009100068742064697361626C650A006261636B6C
:100920006C6967687420746F67676C653A20257519
:100930000A006261636B6C69676874207374657028
:100940003A2025750A007267626C696768742064D2
:10095000697361626C65205B454550524F4D5D3A4D
:10096000207267626C696768745F636F6E6669673F
:100970002E656E61626C65203D2025750A007267E8
:10098000626C6967687420746F67676C65205B458B
:100990004550524F4D5D3A207267626C69676874CA
:1009A0005F636F6E6669672E656E61626C65203D80
:1009B0002025750A0044454255473A206469736111
:1009C000626C65642E0A0044454255473A20656EC4
:1009D00061626C65642E0A000A00253032582000DE
:1009E0006B6579626F6172645F7265706F72743A81
:1009F00020007267626C696768745F636F6E666916
:100A0000672E7370656564203D2025640A00726757
:100A1000626C696768745F636F6E6669672E766182
:100A20006C203D2025640A007267626C69676874F7
:100A30005F636F6E6669672E736174203D20256465
:100A40000A007267626C696768745F636F6E6669DB
:100A5000672E687565203D2025640A007267686C02
:100A6000696768745F636F6E6669672E6D6F646532
:100A7000203D2025640A007267626C696768745FB4
:100A8000636F6E6669672E656E61626C65203D20DE
:100A900025640A007267626C696768745F636F6ED1
:100AA00066696720454550524F4D3A0A00726762A9
:100AB0006C696768745F696E6974207267626C69DB
:100AC0006768745F636F6E6669672E6D6F6465201B
:100AD0003D20302E2057726974652064656661750B
:100AE0006C742076616C75657320746F2045455079
:100AF000524F4D2E0A007267626C696768745F69B5
:100B00006E6974206565636F6E666967206973201E
:100B10006E6F7420656E61626C65642E0A00726788
:100B2000626C696768745F696E697420737461725E
:100B300074210A007267626C696768745F696E6924
:100B4000742063616C6C65642E0A000A00253031E4
:100B50003662003A200025303258000A722F632096
:100B600030313233343536373839414243444546E3
:100B70000A007267626C6967687420616E696D61F2
:100B800074696F6E207469636B207265706F727424
:100B900020746F20736C6176650A0000047F3F1F2C
:100BA000643214643214783C1E1E140A050A0025AF
:100BB000303258006B6579626F6172645F7365747F
:100BC0005F6C65643A20007267626C6967687420C4
:100BD000656E61626C65205B4E4F454550524F4DCE
:100BE0005D3A207267626C696768745F636F6E66F6
:100BF00069672E656E61626C65203D2025750A006F
:100C00007267626C696768742073657420737065BD
:100C10006564205B4E4F454550524F4D5D3A20254F
:100C2000750A005B735D004B6579626F61726420C9
:100C300073746172742E0A005B435D005B445D0057
:100C40005B535D005B575D005B525D0009027B00FA
:100C5000040100A0FA0904000001030101000921B8
:100C6000110100012240000705810308000A090460
:100C700001000203000000092111010001222200ED
:100C80000705820320000107050303200001090472
:100C900002000103000000092111010001223200BD
:100CA0000705840320000A09040300020300000072
:100CB00009211101000122220007058503200001FE
:100CC00007050503200001120110010000000810B3
:100CD000CB67120001010203010403300000001879
:100CE00003530069006E0063002000520065007627
:100CF000002E002000310000000E034B006500654F
:100D000000620069006F0000000403090400112460
:100D10001FBECFEFDAE0DEBFCDBF04B603FE27C0B3
:100D20008091400390914103A0914203B09143030D
:100D30008730904BA740B04BD1F4109240031092F3
:100D40004103109242031092430314BE84B7877F7D
:100D500084BF0FB6F894A895809160008861809355
:100D60006000109260000FBEE0E0F8E3099523E018
:100D7000A8ECB1E001C01D92A034B207E1F711E088
:100D8000A0E0B1E0EEECF7E602C005900D92A83CC1
:100D9000B107D9F70E9475290C949A330C9400007E
:100DA000FF93EF93E091C801F091C901309709F0EA
:100DB0000995EF91FF910895FC018591803011F024
:100DC000EFDFFBCF0895FF27E0E230E247FF0CC0E2
:100DD000419597FF09C0EDE26095709580959095DB
:100DE000611D711D811D911D27FF02C0219530E3FA
:100DF00050E2AA27660F771F881F991FAA1FA41702
:100E000010F0A41B63955A95A9F7AA3008F0A95FC2
:100E1000A05DAF93F395611571058105910541F7CB
:100E2000ED3211F4EF93F395F21718F43F93F39525
:100E3000FBCF8F91B5DFFA95E1F70895E991F9912C
:100E40008591803021F0853219F0AADFF9CF08951D
:100E500020E0E89455915532C1F3503311F4689471
:100E600055915A3348F4505390F3220F022E220F1B
:100E7000220F200D250FF4CF0EF421958991999121
:100E8000533619F3533729F1533559F1BC018827EB
:100E90009927E8945C3621F4899199916894559149
:100EA000543639F446EF7EF077FF0DC08FEF9FEF99
:100EB0000AC055374AE039F0583540E121F0523642
:100EC00042E009F00895FF93EF937DDFEF91FF91EA
:100ED000B7CFFF93EF93FC0181918030B9F360DFCE
:100EE000FBCFFF93EF9368DFF1CFDF93CF93CDB7C5
:100EF000DEB72596A3DFCF91DF910895E8EDF0E00E
:100F000080818E7F80831092E2001092DA0010922E
:100F1000E100A0EEB0E08C9181608C9380818F77AE
:100F2000808319BCA7EDB0E08C918E7F8C9380817B
:100F30008F7E80831092220308952091E4003091E7
:100F4000E50095E6A9012091EC00822F817020FF39
:100F500006C08091E80080FF06C080E008952091DF
:100F6000E80022FD1AC080913803882389F085307B
:100F700089F08091EB0085FD0FC02091E400309155
:100F8000E50042175307F9F29150E1F684E0089525
:100F900082E0089583E0089581E00895EF92FF9242
:100FA0000F931F93CF937C018B010E949D07C82F45
:100FB000811117C08091E80085FD0BC08091E80089
:100FC0008E778093E8000E949D07882399F3C82FAD
:100FD00008C0F70181917F018093F1000150110950
:100FE00049F78C2FCF911F910F91FF90EF900895AB
:100FF000CF93FC0180913803843001F5C091E90062
:10100000CF702091EC00922F917020FD90E8C92BB9
:1010100082E08093E9008091E80080FF0CC050E0FE
:1010200040E060E270E0CF010E94CE078091E800CE
:101030008E778093E800CF70C093E900CF91089538
:101040008091300387FF13C08091E80082FF06C0C3
:101050008091E8008B778093E80004C0809138038A
:101060008111F2CF0895809138038823D9F38091BC
:10107000E80080FFF8CF8091E8008E77ECCF982FC2
:101080009093E900242F762F50E0891731F070916A
:10109000EC002091ED005091F00021FD07C09F5F12
:1010A000973071F78093E90081E008953091EB006B
:1010B0003E7F3093EB003091ED003D7F3093ED00AB
:1010C0003091EB0031603093EB007093EC00209393
:1010D000ED005093F0002091EE0027FDE0CF80E07E
:1010E0000895CF92DF92EF92FF920F931F93CF93C9
:1010F000DF93C8EDD0E088818F7E8883E7EDF0E054
:1011000080818160808384E082BF81E080932203BC
:1011100088818E7F888302EE10E0F80110821092A1
:10112000DA0081EEC82ED12CF601108288818F77EB
:10113000888388818068888388818F7D888319BCB3
:101140001092380310922F0310922E0310922D0349
:1011500090EEE92EF12CF70180818B7F80838881CE
:101160008160888342E060E080E00E943F08F601F1
:1011700080818E7F8083F80180818160808380817F
:1011800088608083F70180818E7F80838881806181
:101190008883DF91CF911F910F91FF90EF90DF90A7
:1011A000CF900895FC018091360390913703861704
:1011B0009707A0F06115710529F49091E8009E77DA
:1011C0009093E80090E06115710551F4911108C009
:1011D0008091E80082FF34C080E00895BC01F2CF26
:1011E000809138038823C1F18530C1F18091E800F6
:1011F00083FD30C08091E80082FDEACF8091E80055
:1012000080FFE1CF8091F3002091F200382F61152B
:10121000710519F02830310558F091E0283031057A
:1012200009F090E02091E8002E772093E800CBCFE2
:1012300081918093F100615071092F5F3F4FE7CF9B
:1012400080913803882341F0853041F08091E80097
:1012500083FFBECF81E0089582E0089583E0089582
:10126000089508958091240308959C014FB7F89440
:1012700080911C0390911D03A0911E03B0911F0348
:101280004FBF821B930B08952FB7F89480911C03D6
:1012900090911D03A0911E03B0911F032FBF0895CD
:1012A000829590E09C01220F331F220F331F2C7C6C
:1012B00095958795959587958373282B30E0C9017F
:1012C000880F991F8A7A359527952575822B089561
:1012D0008091AF0281111092AF020895ECECF1E021
:1012E0009191891303C0DF0111971C9291E0E23DB7
:1012F000F907B1F70895ACECB1E0EFEF90E02D9174
:10130000821751F0EF3F19F4211101C0E92F9F5FBF
:101310009630A9F7EF3F09F408950E2E000CFF0B4D
:10132000E653FE4F8283089529E0929F800D112499
:10133000982F977086958695869525E0829FF00177
:101340001124EB59FD4F50E040E080E0219130E066
:10135000092E02C0369527950A94E2F721703327AB
:10136000042E01C0220F0A94EAF7822B4F5F5F4FD1
:101370004530510559F7089529E0929F800D1124B9
:10138000982F977041E001C0440F9A95EAF786952F
:101390008695869595E0899FF0011124EB59FD4FC4
:1013A00090E080E070E05191DF0111979B01082EE1
:1013B00002C0369527950A94E2F7217021952527DA
:1013C000242325272C9301968530910561F70895F4
:1013D0008091640290913302981301C008958F5F49
:1013E0008770FACF2091290230912A0228173907F5
:1013F00071F090932A0280932902E091D502F09136
:10140000D602309721F00084F185E02D09940895EB
:1014100020912702309128022817390771F0909304
:10142000280280932702E091D502F091D6023097EE
:1014300021F00680F781E02D09940895E091D5020E
:10144000F091D602309721F00190F081E02D0994BF
:1014500080E00895CF92DF92EF92FF92843030F5D2
:10146000811125C0909180009F77909380002D98E6
:10147000282F30E0AFEFBFEF0E942B3323E030E0A6
:1014800040E050E00E94FC32C9012C3764E136078D
:10149000A0F469E070E00E94D432709389006093F8
:1014A0008800FF90EF90DF90CF90089583E09091B7
:1014B0008000906890938000DBCF2A50374D4F4FCB
:1014C0005F4F942F832F722F662725EF38E241E07C
:1014D00050E00E94FC3269017A01CA01B9010E9400
:1014E000B8329B01AC01C701B6010E94B832672F28
:1014F000782F892F99276115710521E082079105C1
:1015000061F66FEF7FEFC9CF282F220F220F220F36
:101510009091FD029770922B9093FD02987F21E0AD
:1015200009F420E09091FD0220FB90F99093FD02D8
:101530000C942A0AFA01811101C0FB0109948091DF
:10154000FF02982F9E7F29F4817082608093FF02B2
:1015500008958A34E8F381708864F8CFAF92BF921F
:10156000DF92EF92FF920F931F93CF93DF93082F99
:10157000162FE901E42FF0E0EE59FE4F611110C083
:10158000E4915E2F4E2F4983E8835A83DF91CF91F8
:101590001F910F91FF90EF90DF90BF90AF90089553
:1015A000E62EF12C4491D42EE42FF0E026E0829F29
:1015B000C00111242FEF30E0B9010E94D432802FF6
:1015C00090E0880F991F55E5569FD001579FB00DA9
:1015D00011248A1B9B0B982F990F890F5901AE1864
:1015E000BF08AE9ED001AF9EB00DBE9EB00D1124BF
:1015F0005B2F189F80011124012F11275901A01A78
:10160000B10AAE9E8001AF9E100DBE9E100D11243A
:101610005901A81AB108AE9CC001AF9C900DBE9CA8
:10162000900D1124892F9927281B390B2E9FC0015B
:101630002F9F900D3E9F900D1124E92F6230710570
:10164000A1F050F46115710509F49DCF6130710569
:1016500081F0EB2F512F97CF6430710569F080F046
:101660006630710509F48FCFF4CFE42F4B2F592F3B
:101670008ACFE42F412F87CFEB2F542F492F83CFD1
:101680004B2F5D2DE12F7FCF9091D20292FF06C0AC
:10169000282F28712830F9F4877F846093FF06C0D3
:1016A000282F28712831F1F4877E84612091D3029C
:1016B00020FF06C0382F38713830D9F4877F816019
:1016C00021FF06C0282F28712831D1F4877E81613F
:1016D00094FD877E0895282F24712430F9F68B7F9E
:1016E0008860DCCF282F2471243101F78B7E88613C
:1016F000DDCF382F3171313019F78E7F8860E0CF20
:10170000282F2171213121F78E7E8861E1CF9091C0
:101710003901992329F081FD02C02E9A08952E984F
:1017200008959FB7F894109220039FBF90913803BB
:10173000943009F048C02091E9002F703091EC00FE
:10174000932F917030FD90E8922B25E02093E900D3
:101750002091EB0020FF34C02091EE0027FF30C025
:101760002091B402222321F02091E80025FF28C017
:101770001092B40226E03091E80035FF14C0809347
:10178000F1008091E80085FD27C08091E80080FF8E
:10179000FCCF8091E8008E778093E8009F70909353
:1017A000E90080E0089530913803343049F43091F5
:1017B000EB0035FD05C0215041F481E08093B40277
:1017C0009F709093E9008FEF0895EFE9FFE0319764
:1017D000F1F700C00000CFCF8FB7F89421E020933D
:1017E00020038FBFDBCFCF93DF9300D00F92CDB715
:1017F000DEB790913803943011F589837B836A8337
:101800009093E9008FEF9091E800815095FD06C01C
:1018100095ED9A95F1F700008111F5CF8091E800E0
:1018200085FF0DC050E040E063E070E0CE0101961E
:101830000E94CE078091E8008E778093E8000F9099
:101840000F900F90DF91CF910895209138032430AD
:1018500021F4BC0184E00C94F30B0895BC0183E0F7
:101860000C94F30BCF93DF93EC0180913803843019
:1018700039F581E08093E9008FEF9091E800815085
:1018800095FD06C095ED9A95F1F700008111F5CF11
:101890008091E80085FF14C050E040E068E070E00F
:1018A000CE010E94CE078091E8008E778093E800F9
:1018B00088E0FE01A5E2B3E001900D928A95E1F780
:1018C000DF91CF91089581E08093E00080E28093E2
:1018D000D8001092C9008FE19EE40197F1F700C093
:1018E000000087E090EBDC0180934003909341037C
:1018F000A0934203B093430388E19CE00FB6F894B1
:10190000A895809360000FBE90936000FFCFCF92A8
:10191000DF92EF920F931F93CF93DF93CDB7DEB794
:10192000E0970FB6F894DEBF0FBECDBF60910E01F9
:101930008091FF0280FF4BC0E5E8F3E09E012F5F3E
:101940003F4F8E010F5C1F4FC901A4914A2F50E0F9
:10195000DA01AA0FBB1FA40FB51FAE50BE4FCD902A
:10196000DD90EC90D901CD92DD92ED929D01319602
:10197000A017B10751F720910D0143E0249F800D7E
:10198000911D11246E9A2EB12F7B3EB130645FB74A
:10199000F894FC01649FE00DF11D1124BF0168174C
:1019A000790741F55FBFE7ECF0E03197F1F700C050
:1019B0000000E0960FB6F894DEBF0FBECDBFDF91FA
:1019C000CF911F910F91EF90DF90CF90089580916C
:1019D0000F019091100123E0829FF0011124EE503D
:1019E000FE4F891708F0A8CF1182108212828F5FF4
:1019F0003396F7CFDC014D91CD01E8E03EB9000010
:101A000000C047FF2EB9440F000000C000C000C056
:101A10002EB900C0EA9591F7C2CF0F931F93CF93D1
:101A2000DF93EC0110E000E0909111019017110696
:101A300009F06CF40E94870C8C8190E00196817013
:101A400099278C83DF91CF911F910F910895209159
:101A50000F01A801420F511D9A01220F331F240FBD
:101A6000351F2E503E4F4C81609101038091000341
:101A700096959017110651F04CF0442349F040918F
:101A800002030E94AE0A0F5F1F4FCECF4423B9F36B
:101A900040E0F7CFEF92FF921F93CF93DF93EC01DB
:101AA00010E0EE24EA94F12C60911101161770F009
:101AB0000E94870C9A818C8190FF27C08F5F8C8356
:101AC000DF91CF911F91FF90EF90089520910F012A
:101AD000422F410F5527551FCA019A01220F331F6C
:101AE000280F391F2E503E4F70E0C7010E94E83288
:101AF000962F8C814091020360910103199F800D04
:101B000011240E94AE0A1F5FCFCF8150D8CF9F9281
:101B1000AF92BF92CF92DF92EF92FF920F931F93FB
:101B2000CF93DF93EC018A81BB24BA9480FD02C07D
:101B3000BB24B394A09011018C81811109C081E074
:101B4000B81225C08FEF8A0D8093EF0181E08C835E
:101B5000F12CE12CEA14F0F00E94870C8091EF0147
:101B600091E0B9125BC0811154C080911101815084
:101B70008093EF011C82DF91CF911F910F91FF9015
:101B8000EF90DF90CF90BF90AF909F90089510920C
:101B9000EF01DCCF00910F010E0D1F2D111DC801AB
:101BA000880F991F080F191F0E501E4FF801118240
:101BB0001082128234E0C32ED12C912C8091EF013F
:101BC000890D813114F18F70082E000C990B8E1540
:101BD0009F0591F4809102038C9DA0018D9D500D75
:101BE00011245595479555954795980160910103A6
:101BF000809100030E94AE0A9B0CF1E0CF1AD1083D
:101C0000E9F68FEFE81AF80AA5CF87FFDDCF8A0D36
:101C1000DBCF81508093EF01BC82ADCF90E0019685
:101C20006091110170E00E94E8328093EF018C8393
:101C3000A2CFEF92FF920F931F93CF93DF93EC010C
:101C40008C81811109C081E08C831092F00192E0B7
:101C500090930C0180930B0180910F0190911001E2
:101C600023E0829FF0011124EE50FE4F891768F1A6
:101C700010E003E060911101161768F10E94870CD3
:101C800080910B012091F001280F2093F001909199
:101C90000C01980F90930C01191654F4022E000CAD
:101CA000330B409111014150550B2417350734F087
:101CB000819580930B01813009F41C82DF91CF91D3
:101CC0001F910F91FF90EF90089511821082128260
:101CD0008F5F3396CBCFE12EF12C70E0C7010E94CD
:101CE000E83220910F01820F482F50E02091F0013F
:101CF000022E000C330BE216F306BCF020910C010F
:101D0000022E000C330B2E153F057CF0809F9001B6
:101D100011242E503E4F40910203609101038091A7
:101D200000030E94AE0A1F5FA5CFFA01EE0FFF1F4E
:101D3000E40FF51FEE50FE4F118210821282F3CF96
:101D40000F931F93CF93DF938C01FC0184819581C6
:101D500001968170992795838483C0E0D5E58091B1
:101D60001101C81730F0DF91CF911F910F910C94A2
:101D7000870C20910F01422F4C0F5527551FCA0188
:101D80009A01220F331F280F391F2E503E4F8C2FE0
:101D90008695F80144815581840F952F911D81709E
:101DA00040910203609101038D9F802D11240E94B8
:101DB000AE0ACF5FD4CF9091FF0290FF14C09091F4
:101DC0000F012091100133E0939FF0011124EE5098
:101DD000FE4F921710F00C94870C8183608342832E
:101DE0009F5F3396F6CF08950F931F93CF93DF93A2
:101DF00000D00F92CDB7DEB78C018091F101811137
:101E00000AC09E012F5F3F4F4FEF6FEF0E94AE0A57
:101E10008A818093F101F8016481613069F08091D9
:101E2000F10140E0662361F040E0623011F440913E
:101E3000F10180E060E004C06091F10140E080E0E9
:101E40000E94DB0EF801848190E0019663E070E06F
:101E50000E94E83284830F900F900F90DF91CF9112
:101E60001F910F910895CF93DF9300D00F92CDB7BC
:101E7000DEB79091FF0290FF0AC09E012F5F3F4F97
:101E80000E94AE0A4B8169818A810E94DB0E0F900D
:101E90000F900F90DF91CF910895CF93DF93EC01D6
:101EA000EC81F0E0E953FC4F4491EFEFF2E0628106
:101EB00081810E94330F8C818F5F8C83DF91CF9162
:101EC0000895CF93DF93EC01EFEFF2E0438162815D
:101ED0008C810E94330F8C818F5F8C83DF91CF9137
:101EE00008958091EE01811111C08091D800806128
:101EF0008093D8008AE18A95F1F700C09091D900CB
:101F0000892F817090FF82E08093EE0181E09091B3
:101F1000EE01913009F080E00895CF9384E090E0E5
:101F20000E944533C82F81E290E00E944533982FEC
:101F30008C2FCF9108950F931F93CF93DF93C42FCE
:101F4000D0E0CC0FDD1F22E1629FC00DD11D112416
:101F500038ED839FC00DD11D1124CE0187960E94BC
:101F60004533082F10E0102F0027CE0188960E94DD
:101F700045339801282BC901DF91CF911F910F9113
:101F80000895462F843038F47C3028F4693018F4F2
:101F9000672F0C949B0F90E080E00895CF93DF9320
:101FA0000E94C10FEC0182389105A9F1D8F5813367
:101FB000910509F496C048F58932910509F48AC063
:101FC0008A9709F495C0C11522E5D20708F0B6C07A
:101FD000C11531E5D30708F026C1C83ED10508F088
:101FE0009CC0C13ED10560F5C83AD10508F087C054
:101FF000C53AD10508F0EFC0C130D10509F12097ED
:10200000F9F0C430D105E0F440C08533910509F4FE
:102010005AC0C997C1F68091D202837089F0C0EE90
:10202000D0E00EC0833E910599F170F4803E910599
:1020300001F1823E910539F68091D20282FD21C0E4
:10204000CE01DF91CF910895863E910561F1873EE3
:10205000910571F1843E910509F0B5CF8091D302CD
:1020600081FFEECF8091D202C7EED0E084FD0DC09B
:10207000E7CF8091D20280FD07C19091D30290FFFB
:10208000DFCFC3EED0E084FFDBCFD0E0C0E0D8CF1D
:102090008091D20282FDFBC09091D30290FDBFCF10
:1020A00084FFCECFF2CF8091D20283FDDDCFC8CFA7
:1020B0008091D20283FDEEC09091D30291FFF0CFC8
:1020C000C4EED0E0BDCF8091D20285FFB9CFC9E286
:1020D000D0E0B6CF8091D20285FFB2CFC5E3D0E089
:1020E000AFCF8091D20286FFABCFCAE2D0E0A8CFBB
:1020F0008091D20286FFA4CFC1E3D0E0A1CFCF3B35
:10210000D10518F6C85AD0E0CC0FDD1FCA57DE4FF4
:102110000990D881C02DD46493CFC11540E5D40770
:1021200008F064C0C11580E4D80708F05CC0CE0197
:102130009A9581159F4108F483CFA7CFC11536E545
:10214000D30718F5C11545E5D40708F084C0C115BB
:1021500084E5D80708F07AC09C2F969596959E0145
:1021600023703327C115D34508F462C0C1E0D0E025
:1021700002C0CC0FDD1F2A95E2F730E2939FC00129
:102180001124C82BD92BDA685BCFC1158AE5D80793
:1021900078F4C11599E5D90708F068C0C11528E59C
:1021A000D20708F472CFDC2FCC27C06FD06A48CF9B
:1021B000CE0190568115904208F067CF8D2F8F7118
:1021C0000E94440B90E0982F882788279F719C01DC
:1021D0002C2BE90149C0C55AD0E0CD57DE4FC8814C
:1021E000D0E0D0642DCFDF70D06A2ACFCE01E4E0FA
:1021F00096958795EA95E1F783702C2F269526957D
:10220000237040E2249F90011124382B8C2F83707F
:10221000C1E0D0E002C0CC0FDD1F8A95E2F7C22BEF
:10222000D32BDC680DCFDC2FCC27C16FD06A08CF51
:10223000C1E0D0E002C0CC0FDD1F2A95E2F720E21A
:10224000929FC0011124C82BD92BEBCFDC2FCC27B8
:10225000C46FD06AF5CE8C2F0E94440BC82FD0E0FB
:10226000DC2FCC27CC27DF71D062EACE8C2F8F7089
:102270000E94440B34E0D695C7953A95E1F7CF70AC
:102280009C2FEC01D069DCCEC9E3D0E0D9CEC2EE00
:10229000D0E0D6CEC6EED0E0D3CEBF92CF92DF92C2
:1022A000EF92FF920F931F93CF93DF938C01C09017
:1022B0003903D0903A03E0903B03F0903C038091C7
:1022C000B0029091B102A091B202B091B302C82ABB
:1022D000D92AEA2AFB2ACFE1D0E0BC2ED701C601D9
:1022E0000C2E04C0B695A795979587950A94D2F7BA
:1022F00080FD0EC0219788F7B12C8B2DDF91CF91F7
:102300001F910F91FF90EF90DF90CF90BF900895B5
:10231000B8018C2F0E94CE0F019761F3EECFCF93BF
:10232000DF93EC010E944D11BE01DF91CF910C941F
:10233000CE0F0E948F11292F2F7092959F7092506F
:102340009E3078F4E92FF0E0E456FC4C0C941E33F8
:10235000803F19F020F4883E20F481E00895843F06
:10236000E1F380E00895883EC0F3813FD1F7F5CFD7
:10237000822F86958695869508956F927F928F928B
:102380009F92AF92BF92CF92DF92EF92FF920F9304
:102390001F93CF93DF9389EDC82E84E0D82E91E16F
:1023A000E92EFF24F394E701C85DD10936011BC073
:1023B000F50185909490692DC8010E945933682DCC
:1023C000C80101960E94593382E0A80EB11C0E5F2D
:1023D0001F4FC017D10761F782E1680E711C62962A
:1023E000CE15DF0529F08E01025111095301E0CF0E
:1023F0007E0188EDE80EF11C88EDC80ED11C81E746
:10240000E81684E0F80679F6DF91CF911F910F91DD
:10241000FF90EF90DF90CF90BF90AF909F908F9004
:102420007F906F900895682F86E090E00C94593368
:102430000E94840A8091FD020C941312CF93DF93C3
:10244000C7E8D3E060E0CE010E9459332196C11560
:1024500084E0D807B9F7DF91CF910895CF93C82FC3
:102460006FEF811160E282E290E00E9459336FEFDA
:10247000C11165E083E290E00E9459336FEFC11112
:1024800064E084E290E0CF910C945933EF92FF9294
:102490000F931F93CF93DF938091AE029091AD0283
:1024A000892B9091AC02892B8093CA019091AF0245
:1024B000992391F0892B8093CA0120E08CEC91E064
:1024C000FC013191CF0131112F5FF1E0823D9F0777
:1024D000B9F721110E946809E091D502F091D60266
:1024E0003097C9F10280F381E02D8AEC91E00995E3
:1024F0008091FE0282FF2FC080FF04C080EE99E031
:102500000E94DC06CAECD1E082EDE82E81E0F82ED4
:102510000AED19E08091FE0280FF0BC088811F92B6
:102520008F931F930F930E9475070F900F900F903A
:102530000F902196EC16FD0669F78091FE0280FF50
:102540000AC088ED99E0DF91CF911F910F91FF9024
:10255000EF900C94DC06DF91CF911F910F91FF90CB
:10256000EF9008951092AD021092AC020E944612B4
:1025700090E080E00E94080A90E080E00C94F2096C
:102580006093390370933A0380933B0390933C0329
:102590000C94B2120F931F936091390370913A0318
:1025A00080913B0390913C038B019C0106701127A5
:1025B00022273327063011052105310529F46860EB
:1025C0001F910F910C94C012677FFACF0F931F9346
:1025D00041E050E060E070E004C0440F551F661F0A
:1025E000771F8A95D2F7CB01BA01609570958095D7
:1025F00090950091390310913A0320913B0330915B
:102600003C0360237123822393231F910F910C9429
:10261000C0129091AB02809589238093AB02282F42
:10262000277071F4282F082E000C330B9217130615
:1026300039F08595859585950E94E6121092AB023A
:1026400008950F931F9341E050E060E070E004C0F4
:10265000440F551F661F771F8A95D2F78091390363
:1026600090913A03A0913B03B0913C038A019B01F6
:10267000082B192B2A2B3B2BC901B8011F910F9155
:102680000C94C0126093B0027093B1028093B202B6
:102690009093B3020C94B212882341F080959091EC
:1026A000AE0289238093AE020C94461208958823CB
:1026B00039F09091AE02982B9093AE020C94461292
:1026C0000895882309F452C0823871F40E941E0ACA
:1026D00081FF4CC089E30E947B090E94461289E376
:1026E0000E946E090C944612833859F40E941E0A07
:1026F00080FF3CC083E50E947B090E94461283E56F
:10270000EFCF843859F40E941E0A82FF2FC087E45D
:102710000E947B090E94461287E4E2CF9CEF980F4B
:10272000913AF0F290E2980F983088F4877021E0A7
:1027300030E0A90102C0440F551F8A95E2F7CA0193
:1027400080959091AE0289238093AE02CBCF9BE51A
:10275000980F933020F490E080E00C94080A885A97
:10276000873120F490E080E00C94F2090895CF9333
:10277000C82F882309F488C08238C1F40E941E0A39
:1027800081FD82C089E30E947B090E9446122FEFDF
:1027900081EE94E0215080409040E1F700C00000BD
:1027A00089E30E946E09CF910C9446128338A1F4FC
:1027B0000E941E0A80FD68C083E50E947B090E947A
:1027C00046122FEF81EE94E0215080409040E1F7D7
:1027D00000C0000083E5E5CF8438A1F40E941E0A02
:1027E00082FD52C087E40E947B090E9446122FEFAF
:1027F00081EE94E0215080409040E1F700C000005D
:1028000087E4CFCF8CEF8C0F813A68F4ECECF1E0E9
:102810008191C81799F121E0E23DF207C9F78C2FA9
:102820000E947B09C0CF80E28C0F883068F4C770AB
:1028300021E030E001C0220FCA95EAF78091AE0294
:10284000822B8093AE02AFCFEBE5EC0FE33040F488
:10285000F0E0ED57FE4F808190E0CF910C94080A94
:10286000C85AC73188F4EC2FF0E0EE0FFF1FEA578B
:10287000FE4F80819181CF910C94F2098C2F0E94A0
:102880006E090E944612CBCFCF910895CF93C82FE7
:102890000E94B713C93349F42FEF87EE93E021501C
:1028A00080409040E1F700C000008C2FCF910C9445
:1028B00061130F931F93CF93DF93C62FD42F022F53
:1028C000FC0182818823A1F060932B020E944409BD
:1028D0009093260280932502C77081E001C0880F83
:1028E000CA95EAF7DF91CF911F910F910C9457137E
:1028F00010912B02161335C080912502909126026B
:102900000E943509883C910560F5C0E2CD0F1D1786
:10291000B9F080E2810F883040F4177081E001C087
:10292000880F1A95EAF70E944C13C83048F481E0EA
:102930009D2F977001C0880F9A95EAF70E94571350
:10294000802F0E944614C83098F4D77081E001C0EF
:10295000880FDA95EAF7DF91CF911F910F910C94D0
:102960004C13C77081E001C0880FCA95EAF7F3CF16
:10297000DF91CF911F910F910895811106C08EE4D0
:10298000611101C08BE40C944614813029F489EA6A
:102990006111F9CF8AEAF7CF0895CF93E091B7029A
:1029A000EE0FEE0F20911301A22FA295AF70B0E0B1
:1029B00090968C9190E02F7002C0959587952A95FE
:1029C000E2F78170992740911201A42FA295AF7070
:1029D000B0E090962C9130E04F7002C0359527956D
:1029E0004A95E2F7A9014170552720FF02C042E055
:1029F00050E0842BE82BE093B702C091B602EF7051
:102A0000F0E0ED58FE4F808190912402890F809371
:102A1000240284306CF0EC2F0C2E000CFF0BEE5DCA
:102A2000FD4F80818F5F808360E08C2F0E94BD14FA
:102A3000809124028D3F6CF4EC2F0C2E000CFF0BC8
:102A4000EE5DFD4F80818150808361E08C2F0E947C
:102A5000BD1480912402837887FF03C081508C6F5E
:102A60008F5F80932402CF9108958091FD0280FDB5
:102A70001FC081608093FD02813019F489E080934A
:102A8000FD028091FD020E9413128091FE0280FFE0
:102A900008C087EC94E09F938F930E9475070F9076
:102AA0000F908091FD028695869586950C942A0A52
:102AB00008951092E2028091E30284608093E30221
:102AC0008091FE0280FF08C08EEA93E09F938F936F
:102AD0000E9475070F900F9008958091FF028E7FDE
:102AE0008093FF028091FE0280FF0CC01F921F9214
:102AF00083ED92E09F938F930E9475070F900F9044
:102B00000F900F900E9459158091E302816080938D
:102B1000E3022FEF80E792E0215080409040E1F700
:102B200000C000000C94870C90E080E00E945333BA
:102B300021E08C3E9E4F09F020E0822F0895CF9235
:102B4000DF92EF92FF926B017C010E949F0AB70116
:102B5000A60188E090E0FF90EF90DF90CF900C947A
:102B60006B3380910303833018F48F5F80930303EA
:102B70006091FF0270910003809101039091020324
:102B80000C949F1580910303882319F08150809342
:102B900003036091FF027091000380910103909103
:102BA00002030C949F154F925F926F927F928F92C7
:102BB0009F92AF92BF92CF92DF92EF92FF920F93CC
:102BC0001F93CF93DF9300D00F92CDB7DEB7182FAE
:102BD000F62E042F722E9091FF0290FF57C0E92F1E
:102BE000E695AE2FB0E0A25BBE4F8C918093E102E0
:102BF0009E7F923009F05EC09E012F5F3F4F812F74
:102C00000E94AE0A4B8169818A810E94DB0E80910D
:102C10000003811308C0809101038F1104C08091CB
:102C20000203801729F08091E30282608093E3021F
:102C300010930003F092010300930203772009F43C
:102C40009CC06091FF0270910003809101039091FC
:102C500002030E949F158091FE0280FF17C08091A1
:102C600002031F928F93809101031F928F93809193
:102C700000031F928F9384E393E09F938F930E94AE
:102C800075070FB6F894DEBF0FBECDBF0F900F9043
:102C90000F90DF91CF911F910F91FF90EF90DF90F8
:102CA000CF90BF90AF909F908F907F906F905F90EC
:102CB0004F900895823019F400910203A8CF863016
:102CC00019F410910003A3CF8930D9F3893109F0A9
:102CD0009ECFE9518E2F8170682E8E2F8095817046
:102CE000E82EE695F0E0E058FC4FC590D490412CDA
:102CF000DD2499E5A92E93E0B92E609111014616C5
:102D000018F00E94870C83CF842C912C8C9CC001DE
:102D10008D9C900D9C9C900D112470E00E94D432EB
:102D2000512E611028C0560E8091FE0280FF11C006
:102D3000DF92CF921F92EF921F925F921F924F925B
:102D4000BF92AF920E9475070FB6F894DEBF0FBE18
:102D5000CDBF20910F01820E911C9401220F331FD1
:102D6000280D391D2E503E4F402F6F2D852D0E946E
:102D7000AE0A4394C2CF561AD7CF8091FE0280FF8D
:102D800085CF1F920F931F92FF921F921F938DE08A
:102D900093E073CFEFEFF2E0438121E1421B08F4AF
:102DA00040E021E0628181810C94D315EFEFF2E0E5
:102DB000438121E1420F08F44FEF21E062818181DC
:102DC0000C94D315EFEFF2E0628121E1621B08F46D
:102DD00060E021E0438181810C94D315EFEFF2E0B4
:102DE000628121E1620F08F46FEF21E0438181816C
:102DF0000C94D315EFEFF2E0818121E043816281F1
:102E000088500C94D315EFEFF2E0818121E04381EB
:102E10006281885F0C94D315EFEFF2E083E080834A
:102E200011828FEF828383831482A1EEB2E0129627
:102E30008C911297836012968C936081718182814C
:102E400093810C949F151092AE02ECECF1E086E0B9
:102E5000DF011D928A95E9F70C94B2121F93CF936C
:102E6000DF93CDB7DEB7AA970FB6F894DEBF0FBEDB
:102E7000CDBF80E393E02091F100DC012D93CD01E3
:102E8000B3E088339B07B9F780913103833009F4AD
:102E900071C0B8F4813009F448C0823009F4B2C07E
:102EA0008091E80083FF99C28091300390913103B3
:102EB0009A3008F092C2E92FF0E0E655FC4C0C94F1
:102EC0001E338A3009F48DC08B3009F470C089300C
:102ED00039F780913003813219F780913403909152
:102EE0003503009711F00297D9F68091E800877FAB
:102EF0008093E8008091E80082FF37C09091F30052
:102F00008091F200029729F48091F1008B7F81304B
:102F100021F48091F100809324038091E8008B7765
:102F20008093E8000E942008BBCF80913003813A53
:102F300009F0B6CF8091E800877F8093E800809108
:102F4000340390913503892B61F468E085E293E0C6
:102F500070E00E94D2088091E8008B778093E800AF
:102F60009FCF60E090E080E0F3CF80913803811143
:102F7000C1CF96CF80913003813A09F091CF8091F3
:102F8000340390913503892B09F08ACF8091E800B2
:102F9000877F8093E8008091E80080FFFCCF8091DC
:102FA00044018093F1008091E8008E77B9CF809141
:102FB0003003813209F074CF80913403909135034E
:102FC000892B09F06DCF8091E800877F8093E8001E
:102FD0000E94200880913203809344010E942317AD
:102FE0005FCF80913003813209F05ACF8091E800A1
:102FF000877F8093E8000E942008809133038093AC
:1030000023034ECF80913003813A09F049CF80915C
:10301000E800877F8093E8008091E80080FFFCCF84
:1030200080912303BECF803899F0823809F0D5C152
:10303000809134038F70873008F0CFC18093E9000E
:103040008091EB0085FB882780F91092E90006C08B
:1030500080912D0390912E03911182609091E80050
:10306000977F9093E8008093F1001092F100809197
:10307000E8008E77AEC1882309F49CC1823009F044
:10308000ACC18091320381119FC1809134038F7054
:103090002FEF280F263008F0A0C18093E90020917F
:1030A000EB0020FF91C1933031F48091EB008062FE
:1030B0008093EB0089C19091EB0090619093EB00BD
:1030C00021E030E001C0220F8A95EAF72093EA0060
:1030D0001092EA008091EB008860EACF81117DC1F7
:1030E000109132031F778091E3008078812B8093C9
:1030F000E3008091E800877F8093E8000E94200829
:103100008091E80080FFFCCF8091E300806880938D
:10311000E30082E0111183E0809338035EC18058A0
:10312000823008F05AC120913203309133032C3D94
:10313000E3E03E07A1F583E08A838AE289834FB703
:10314000F894DE01139620E03EE051E2E32FF0E038
:1031500050935700E49120FF03C0E295EF703F5F6A
:10316000EF708E2F90E0EA30C0F0C7968D939D935C
:103170002F5F243159F74FBF8091E800877F8093FC
:10318000E8006AE270E0CE0101960E94D2088091C8
:10319000E8008B778093E80020C1C096E7CF80914C
:1031A000340390913503432F55274330510509F4DB
:1031B0004AC078F54130510509F485C08BE790E0AD
:1031C000ECE4FCE04230510509F007C12091E80031
:1031D000277F2093E8002091360330913703821730
:1031E000930708F49C0140E02115310509F070C0F7
:1031F00041116EC08091E80082FDC9CF80913803F3
:10320000882329F2853019F28091E80083FFF2CFFC
:10321000BECF4132510509F447C04232510509F091
:10322000DCC08430910508F0D8C0FC01EE0FFF1F10
:10323000E854FE4F0190F081E02D8C549E4FDC014C
:103240008C9190E01DC0332721303105E9F0211524
:10325000310579F022303105F9F02330310509F0DC
:10326000BCC0E9EDFCE0E4918E2F90E0E9EDFCE0DC
:1032700007C0E9E0FDE0E4918E2F90E0E9E0FDE099
:10328000009709F4AAC0A2CFE9EFFCE0E4918E2FE9
:1032900090E0E9EFFCE0F4CFEFEDFCE0E4918E2F5D
:1032A00090E0EFEDFCE0ECCF8430910508F095C0A4
:1032B000880F991FFC01E054FE4F0190F081E02D32
:1032C00089E090E083CF82E190E0E7ECFCE07ECF04
:1032D00080913803882309F45ACF853009F457CFF9
:1032E0008091E80083FD53CF8091E80082FD82CF7A
:1032F0008091E80080FF78CF9091F3008091F200F8
:103300002115310519F08830910550F041E00897FA
:1033100009F040E08091E8008E778093E80064CF68
:1033200044914093F1003196215031090196E8CF44
:10333000803809F052C08091E800877F8093E800D0
:1033400080912F038093F10092CE811146C010919D
:103350003203123008F041C08091E800877F8093EB
:10336000E80010932F030E942008112311F084E03D
:1033700005C08091E30087FDFACF81E08093380398
:1033800042E061EC81E00E943F0842E261EC84E0AF
:103390000E943F0842E261EC82E00E943F0842E264
:1033A00060EC83E00E943F0842E261EC85E00E940D
:1033B0003F0813C080913203813079F481E093306B
:1033C00009F080E080932E031092E9008091E800DC
:1033D000877F8093E8000E9420088091E80083FFA7
:1033E0000AC08091E800877F8093E8008091EB001D
:1033F00080628093EB00AA960FB6F894DEBF0FBEF2
:10340000CDBFDF91CF911F9108956091FF02669526
:1034100070E04BE050E080E091E00E948D33892B1A
:1034200019F481E08093E2020E9444099093DC0247
:103430008093DB028091E30284608093E3028091B9
:10344000FE0280FF08C085E993E09F938F930E945E
:1034500075070F900F9008959091FF0290FF5AC04A
:103460009170811141C092609093FF028091E302BC
:1034700081608093E3026623F1F16091FF02709115
:10348000000380910103909102030E949F15809197
:10349000FE0280FF0FC08091FF0286951F928F93DE
:1034A00080E892E09F938F930E9475070F900F9092
:1034B0000F900F906091FF02669570E04BE050E036
:1034C00080E091E00E948D33892B09F10E9459150B
:1034D00081E08093DE0220E04091020360910103CD
:1034E000809100030C94D315853210F09864BCCF02
:1034F000880F982BB9CF8091FE0280FFDBCF80919F
:10350000FF0286951F928F9382E692E0CBCF0E94B6
:10351000051ADECF08958091FF0281608093FF023B
:103520008091FE0280FF0DC01F9281E08F938CE995
:1035300092E09F938F930E9475070F900F900F90CA
:103540000F908091FF0261E086950C942C1A6CEE2E
:103550007EEF90E080E00E94773360E082E090E0D0
:103560000E94593360E083E090E00E94593310924A
:10357000B0021092B1021092B2021092B30260E057
:1035800084E090E00E94593360E081E290E00E9484
:10359000593360E085E090E00E94593360E086E0B6
:1035A00090E00E9459336FEF87E090E00E9459331A
:1035B00040E050E0BA0188E090E00E946B3360E0A8
:1035C0008DE090E00E94593340E050E0BA0188E17C
:1035D00090E00E946B3360E087E190E00E945933F5
:1035E00040E050E0BA018CE190E00E946B3360E073
:1035F00080E290E00E9459330E94351583E00E94DA
:1036000018120E948B1A21E040E86FEF80E00E94C0
:10361000D31521E04FEF6FEF80E00E94D31561E0FA
:103620008BE00E942C1A40E050E0BA018FE090E05D
:103630000E946B3340E050E0BA0183E190E00C94CB
:103640006B330E949415811102C00E94A71A86E074
:1036500090E00E9445338093FD02803220F0877015
:1036600088618093FD029091FD02892F817090FF07
:1036700004C0892F8695869586950C942A0A809198
:10368000FF028695815009F484E261E00C942C1AC3
:103690008091FF0286958F5F853208F081E061E0BE
:1036A0000C942C1A9091FF0290FF07C096959817E2
:1036B00020F0961710F40C94481B61E00C942C1A1F
:1036C0003F924F925F926F927F928F929F92AF92B2
:1036D000BF92CF92DF92EF92FF920F931F93CF93FF
:1036E000DF9300D000D00F92CDB7DEB77C01FC0194
:1036F00083819481892B31F08081918189238F3F4F
:1037000009F08BC70F900F900F900F900F90DF91E3
:10371000CF911F910F91FF90EF90DF90CF90BF90CE
:10372000AF909F908F907F906F905F904F903F9061
:1037300008950E944D11182F682F89819A810E9447
:10374000BC0969817A81812F0E94C10F8C01F70128
:103750009281992309F435C7980122513F452031C0
:10376000310508F0E0C68FEF93E00E944533025127
:1037700057E8A52E53E0B52E8111C4CF011138C0F2
:103780001C821B82882483944AE0742E85010F5F7B
:103790001F4FC5010E94453389831A82882309F48B
:1037A000B1CF9FEF980F933090F58A83898232E0F2
:1037B000A30EB11CC8010E9445338B83882309F4F2
:1037C000A1CF8E010F5F1F4FF80120812223F1F25C
:1037D000213009F056C08181F2808130D1F40E5F32
:1037E0001F4F8F2D0E94B7138F2D0E94611318C099
:1037F000A114F4E0BF0609F485CFC5010E9445334A
:10380000811101C001502FEFA21AB20AB7CF58019F
:10381000D8CF823041F40E5F1F4F8F2D0E94B71317
:103820000F5F1F4FD1CF833019F40E5F1F4FDCCFD6
:10383000843019F00F5F1F4FF3CF0E5F1F4F30E042
:1038400020E0B8016F5F7F4FF8014181EF2DE05319
:10385000FF0BCF013A9750F02150310908F38FE95F
:103860009FE00197F1F700C00000F6CF729EF001D3
:10387000739EF00D11249C012E0F3F1FF42E8B011F
:10388000E0CFE22FF0E0E75AF74F9490822F869531
:103890008695869590E0FC01E75BF74FC490277012
:1038A000D12C022E02C0D594C7940A94E2F7E1E02D
:1038B000CE22DD24FC01E75CF74FE490F12C02C03E
:1038C000F594E7942A95E2F7F1E0EF22FF24C11482
:1038D000D10419F081EE0E94B713E114F10419F03C
:1038E00086EE0E94B713892D0E944614EF2819F026
:1038F00086EE0E946113CD2809F492CF81EE75CF38
:1039000081E00E94211303C081E00E94E6120F9023
:103910000F900F900F900F90DF91CF911F910F910B
:10392000FF90EF90DF90CF90BF90AF909F908F90DF
:103930007F906F905F904F903F900C94CA1282E0FE
:10394000E0CF82E0E2CF0F3BFCE51F0709F4A2C005
:1039500008F47BC0003C3CE5130709F000C69091D9
:10396000FD02892F8695869586958F5F8F7197705A
:10397000843008F0D5C0880F880F880F892B80937A
:10398000FD028091FD02887F91E009F490E0809132
:10399000FD0290FB80F98093FD020E94131280913A
:1039A000FE0280FF4CC08091FD028695869586952B
:1039B0001F928F9382E399E03AC083E00F900F90BB
:1039C0000F900F900F90DF91CF911F910F91FF906B
:1039D000EF90DF90CF90BF90AF909F908F907F90AF
:1039E0006F905F904F903F900C9418128091FD0261
:1039F000982F987F79F088508093FD02887F91E01E
:103A000009F490E08091FD0290FB80F98093FD0223
:103A10000E9413128091FE0280FF11C08091FD026E
:103A20008695869586951F928F9389ED98E09F9352
:103A30008F930E9475070F900F900F900F908091B9
:103A4000FD0286958695869553C08091FD02982F3C
:103A5000969596959695933040F49F5F990F990FA0
:103A6000990F8770892B8093FD028091FD02816000
:103A70008093FD020E9413128091FE0280FFDFCF2F
:103A80008091FD028695869586951F928F9381EF92
:103A900098E0CDCF1091FD0211708091FE0280FF61
:103AA000CDC51F921F938CE199E09F938F930E9445
:103AB00075070F900F900F900F90112309F4C0C558
:103AC0008091FD0280FF1ECE8091FD028E7F80934B
:103AD000FD020E9413128091FE0280FF08C089E05F
:103AE00099E09F938F930E9475070F900F9080E04D
:103AF0000F900F900F900F900F90DF91CF911F912B
:103B00000F91FF90EF90DF90CF90BF90AF909F907C
:103B10008F907F906F905F904F903F900C942A0A07
:103B20009093FD022ECF27E245EE65EE31C526E2E9
:103B300041EE60EE2DC527E245EE64EE29C526E292
:103B400041EE62EE25C528E241E0EFCF8091D2023E
:103B5000806106303CE5130709F47FC008F484C097
:103B60008091D202806279C08091D2028D7F0C3028
:103B70009CE5190709F471C070F48091D2028C6041
:103B80000A30FCE51F0709F468C008F479C0809189
:103B9000D2028E7F62C08091D202877F0E303CE5D8
:103BA000130709F45AC008F471C08091D2028F7EC5
:103BB00054C00B3F9CE5190709F45AC030F5033196
:103BC000FCE51F0709F472C078F401313CE51307E6
:103BD00009F468C002311C4509F0B8C50E942317DA
:103BE0008091D2028F7739C005319CE5190709F41D
:103BF00065C008F479C08091D30281600A3F1C45FA
:103C000009F0A4C58093D302A1C50F3F2CE512078C
:103C100009F450C070F40D3F8CE51807D9F180917C
:103C2000D3028E7F0E3F1C4568F38091D3028360E0
:103C3000E9CF0130EDE51E0709F45FC008F44AC082
:103C400060E002301D4509F081C58EE090E00E94E1
:103C500059337CC58091D20281608093D20276C5AF
:103C60008091D2028460F9CF8091D2028860F5CF32
:103C70008091D3028260C6CF8091D2028064EDCF62
:103C80000E9423178091D2028068E7CF8091D202F0
:103C90008B7FE3CF8091D3028D7FB4CF8091D2020E
:103CA0008F7DDBCF8091D2028F7BD7CF8091D202E4
:103CB000837FD3CF8091D3028C7FA4CF8091D20217
:103CC00082FB992790F921E0922790FB82F990FBE3
:103CD00083F9C3CF8091D302982F909591708E7FF6
:103CE000892B90FB81F98ECF0E9423179091D202ED
:103CF000892F97FB87F98058B0CF61E0A6CF0631B6
:103D00003CE5130709F0B4C48091AE028A7A91E0D1
:103D100009F490E090932C0281111BC089E20E946B
:103D20007B090F900F900F900F900F90DF91CF9124
:103D30001F910F91FF90EF90DF90CF90BF90AF90C9
:103D40009F908F907F906F905F904F903F900C94DA
:103D5000461285E3E4CF85E35DC48091FE0280FFD7
:103D600010C08091FF02809581701F928F938EE723
:103D700099E09F938F930E9475070F900F900F907B
:103D80000F908091FF0280FF48C08E7F8093FF02DA
:103D90006091FF02709100038091010390910203F2
:103DA0000E949F158091FE0280FF0FC08091FF024C
:103DB00081701F928F9386E499E09F938F930E9466
:103DC00075070F900F900F900F900E9459158091DA
:103DD000E30281608093E3028FEF90E7E2E081509D
:103DE0009040E040E1F700C000000F900F900F906E
:103DF0000F900F90DF91CF911F910F91FF90EF9057
:103E0000DF90CF90BF90AF909F908F907F906F90FA
:103E10005F904F903F900C94870C0F900F900F90F5
:103E20000F900F90DF91CF911F910F91FF90EF9026
:103E3000DF90CF90BF90AF909F908F907F906F90CA
:103E40005F904F903F900C948B1A4FE35BE168E4D6
:103E50007BE10F900F900F900F900F90DF91CF911B
:103E60001F910F91FF90EF90DF90CF90BF90AF9098
:103E70009F908F907F906F905F904F903F900C94A9
:103E80009A0A48E45BE16FE37BE1E3CF4AEF56E156
:103E900063E077E1DECF43E057E16AEF76E1D9CF27
:103EA00042EE56E16EEE76E1D4CF4EEE56E162EE92
:103EB00076E1CFCF4AEC56E166ED76E1CACF46ED2A
:103EC00056E16AEC76E1C5CF42EC55E161EB75E174
:103ED000C0CF41EB55E162EC75E1BBCF61E081E021
:103EE0000F900F900F900F900F90DF91CF911F9137
:103EF0000F91FF90EF90DF90CF90BF90AF909F9089
:103F00008F907F906F905F904F903F900C942C1A01
:103F100065E082E00F900F900F900F900F90DF916F
:103F2000CF911F910F91FF90EF90DF90CF90BF90B6
:103F3000AF909F908F907F906F905F904F903F9049
:103F40000C94521B68E086E0E5CF6EE089E0E2CF9A
:103F500064E18FE0DFCF67E185E1DCCF61E088E1FC
:103F6000BFCF62E289E1D6CF61E083E2B9CF909121
:103F7000FE02892F8E7F90FF81608093FE0280FF7A
:103F80001AC087EC99E00F900F900F900F900F9050
:103F9000DF91CF911F910F91FF90EF90DF90CF9025
:103FA000BF90AF909F908F907F906F905F904F9059
:103FB0003F900C94DC0685EB99E0E5CF0F900F90D5
:103FC0000F900F900F90DF91CF911F910F91FF9065
:103FD000EF90DF90CF90BF90AF909F908F907F90A9
:103FE0006F905F904F903F900C94A71AF70100815B
:103FF00011819923D1F1C8010E944D11D82E682F4B
:10400000C8010E94BC09B8018D2D0E94CE0FB82EA8
:10401000192F082FF701958092943FE09322A280F8
:10402000A1101092AD028091AB02877079F0AA20A6
:1040300069F080E28B0D883048F082E00E9409131D
:104040008091AB028770332433948111312CD12EAF
:10405000D2942FE0D222FBE0FD1508F441C0ED2DF3
:10406000F0E0EC54FC4C0C941E33C8010E949409FF
:10407000D82EC9CF212F2F70C22E107F19F0C294D5
:1040800090EFC922AA20C9F0CC2069F080E28B0D04
:10409000883010F001110BC08091AE02C82AC09286
:1040A000AE020E9446128B2D0E94B71319C0809158
:1040B000AD02C82AC092AD02F4CF8B2D0E946113CD
:1040C000CC2071F0C09480E28B0D883010F001118B
:1040D0003EC08091AE02C822C092AE020E9446123B
:1040E000ED2DE850FF0B349720F40E941E0A0E9429
:1040F000870B332009F406CB8091AB0280FD02CB05
:10410000F70112828595859585950E942113C70137
:104110000E94601B8091AB028595859585950F90D7
:104120000F900F900F900F90DF91CF911F910F91F3
:10413000FF90EF90DF90CF90BF90AF909F908F90C7
:104140007F906F905F904F903F900C94E61280911B
:10415000AD02C822C092AD02C1CF312F3F70C32E35
:10416000107F103219F0C29480EFC8228B2D0023EB
:1041700069F0013061F1AA20B9F1992071F1F701DC
:10418000858180FF90CF8F70858327C0AA2091F012
:104190009091AF028C2D892B911003C00E94571370
:1041A0009FCFE1E09E12FACF891709F499CF80934F
:1041B000AF0296CF911006C00E9468098C2D0E9414
:1041C0004C138ECFF1E09F1609F48ACFF5CFAA20C9
:1041D00031F025E0291508F483CF8C2DDFCF34E0B2
:1041E000391508F47DCFEACF992041F3893349F49A
:1041F000FFEF27EE33E0F15020403040E1F700C000
:1042000000008B2D0E9461136BCF812F86958695C0
:10421000837069F0813009F063CF8B2D912F9370FB
:10422000A11002C090E080E00E94F20959CF8B2DCE
:10423000912F9370A11002C090E080E00E94080AC4
:104240004FCF812F837009F06CC0A11049CF8B2D07
:10425000829586958770880F880F6B2D6F70462E1C
:10426000512C712C612C082E04C0440C551C661C6A
:10427000771C0A94D2F740E050E0BA01B4FE0FC0B8
:104280004FE050E060E070E004C0440F551F661F2F
:10429000771F8A95D2F74095509560957095169541
:1042A00016951370123019F1A8F58090B002909015
:1042B000B102A090B202B090B302113069F044296B
:1042C000552966297729CB01BA01682179218A21EC
:1042D0009B210E94421304CF84289528A628B72842
:1042E000CB01BA01682979298A299B29F2CF44296F
:1042F0005529662977298090B0029090B102A0904C
:10430000B202B090B302CB01BA01682579258A25A3
:104310009B25DFCFCB01BA0164297529862997290E
:10432000D8CF8695AA2011F0812F8170882309F4B7
:10433000D7CE8B2D829586958770880F880F6B2D31
:104340006F70462E512C712C612C082E04C0440C29
:10435000551C661C771C0A94D2F740E050E0BA0165
:10436000B4FE0FC04FE050E060E070E004C0440FC6
:10437000551F661F771F8A95D2F740955095609517
:104380007095169516951370123019F1A8F5809056
:10439000390390903A03A0903B03B0903C03113056
:1043A00069F04429552966297729CB01BA0168218A
:1043B00079218A219B210E94C01292CE84289528BF
:1043C000A628B728CB01BA01682979298A299B290F
:1043D000F2CF442955296629772980903903909096
:1043E0003A03A0903B03B0903C03CB01BA0168258F
:1043F00079258A259B25DFCFCB01BA016429752950
:1044000086299729D8CF1F70AA2029F0812F0E94D2
:1044100021138B2DC3CE8B2D0E944C13812F0E9414
:10442000E6125ECE8B2D023F09F44AC060F4003FD5
:10443000F9F0013FE9F1AA2009F465C0911033CEEB
:10444000812F8F713AC0033F09F43FC0043F99F7B1
:10445000AA2009F44DC01F71812F0E942113E8E0AA
:104460001E9FC001112483608093AB02812F25C061
:10447000AA20C9F084E0891508F432CE1F7161E0EA
:1044800070E080E090E004C0660F771F881F991FDE
:104490001A95D2F78090390390903A03A0903B038D
:1044A000B0903C03A4CF95E0991508F419CEE6CF5F
:1044B000812F8F71AA2009F4B2CF0E94211310CE50
:1044C000812F8F71AA20C9F3AACF60E070E0CB01E1
:1044D000AA2009F470CF1F7161E070E080E090E0E5
:1044E00004C0660F771F881F991F1A95D2F763CFF4
:1044F00081E00E940913F1E0F91508F0F1CD82E0A6
:104500000E940913EDCD992059F0893309F079CE35
:104510002FEF37EE83E0215030408040E1F76FCE3F
:10452000812F8F717CCF0031FFE51F0709F4E8C9A7
:1045300001312FE5120709F402CA0D3B2CE51207E1
:1045400009F454CA08F0FFC90B3B8CE5180709F4BD
:1045500034CA80E00C3BECE51E0709F42FCA033F88
:10456000ECE51E0709F4E3CA08F0ABC0083D2CE5F2
:10457000120709F4D8CA093D3CE5130709F4E3CA58
:10458000073D8CE5180709F0A8C026E241EE61EE70
:10459000C7010F900F900F900F900F90DF91CF9168
:1045A0001F910F91FF90EF90DF90CF90BF90AF9051
:1045B0009F908F907F906F905F904F903F900C9462
:1045C000591400313FE5130709F49EC901318FE505
:1045D000180709F4B6C9033F3CE5130709F4A7CA55
:1045E00008F0D9C0083DECE51E0709F49CCA093D56
:1045F000FCE51F0709F4A7CA073D2CE5120729F2BD
:104600000631FCE51F0709F04EC080912C02811194
:10461000A2CB89E20E946E0984CB85E0DE0111966F
:1046200001900D928A95E1F7F701228189819A81A3
:1046300021117FC80E949409182F83C8111144CA00
:104640000F900F900F900F900F90DF91CF911F91CF
:104650000F91FF90EF90DF90CF90BF90AF909F9021
:104660008F907F906F905F904F903F900C94351596
:1046700001302CE5120709F47ACC0E3D3CE5130716
:1046800009F49CCC01151C4509F0B0CC0E942317FD
:10469000FFEF24E33CE0F15020403040E1F700C060
:1046A00000000E94630C8091AE028272F801E25C0D
:1046B000FC45E431F10508F099CCE054FC4C0C9435
:1046C0001E33053FECE51E0709F439CA08F433CA66
:1046D000063F2CE5120709F46AC010922B02023043
:1046E0008CE5180708F40BCB0631ECE51E0738F013
:1046F00098012A5F3C452930310508F000CB0E9423
:104700008D0F9093D3028093D2020031FCE51F07F6
:1047100009F4C4CA08F04DCA08303CE5130709F48F
:10472000ABCA08F021CA04309CE5190709F498CAFD
:1047300008F00CCA0230FCE51F0709F48BCA80910F
:10474000D202826003301C4509F487CA6091D2020C
:104750001091D30284E090E00E945933612F81E2EE
:1047600090E00E9459330F900F900F900F900F9090
:10477000DF91CF911F910F91FF90EF90DF90CF903D
:10478000BF90AF909F908F907F906F905F904F9071
:104790003F900C942317053F3CE5130709F4CFC95C
:1047A00008F4C9C9063FECE51E0709F029CF27E246
:1047B00045EE66EEEDCE1F93CF93DF9380913202EC
:1047C000807FA9F480912F02882389F08091640270
:1047D000D091330260912D0270912E02A09130028F
:1047E000B0913102C62FC72316E0D81304C0DF9161
:1047F000CF911F91089590E0109711F0CF3F19F4D9
:1048000001968770F2CF189F9001199F300D1124E7
:10481000F901EC5CFD4F41814713F2CF4081461313
:10482000EFCF42814111ECCF438154814A1B5B0B96
:10483000483C510528F7809132028F708061809347
:104840003202F901E75CFD4F80818F7080618083C7
:104850008DE292E00E94601BDF91CF911F910C943A
:10486000E809AF92BF92CF92DF92EF92FF920F933F
:104870001F93CF93DF93CDB7DEB761970FB6F89450
:10488000DEBF0FBECDBF8C0185E0F801DE011D96B5
:1048900001900D928A95E1F7F80180819181E28083
:1048A0002DE2A22E22E0B22E6091300270913102F0
:1048B0006115710509F43EC130912D0240912E021F
:1048C000232F24232F3F09F435C1C380D480F090D7
:1048D0002F02F601E61BF70BFF2009F4FBC0209125
:1048E0003202522F507FE83CF10508F0BBC0511155
:1048F00078C0FE2C491321C038131FC0E1101DC021
:104900002F70206120933202C5010E94601B8091AC
:104910003202F80185838F2D61960FB6F894DEBFC1
:104920000FBECDBFDF91CF911F910F91FF90EF9000
:10493000DF90CF90BF90AF900895CD2829F0282F19
:1049400029232F3F09F014C120E0F22FF170DF2E50
:1049500020FF3DC0209164024091330256E02413B1
:1049600015C08D879E878D859E850E948F11292F6A
:1049700022952F702230F8F0243020F59F70F9F046
:10498000F8019581907FD9F4D12C1FC030E0529F5F
:10499000F001539FF00D1124EC5CFD4F61819613E3
:1049A00006C06081861303C06281E61210C02F5FCB
:1049B0003F4F2770D4CF9F7011F0882329F3805E7A
:1049C000883010F3C8010E94601BFD2CA4CFEE209C
:1049D00009F4A1CF80913202816080933202F12CE0
:1049E0009ACF491312C0381310C0E1100EC0F8015D
:1049F0002583C8010E94601B86E0F801ADE2B2E0A9
:104A000001900D928A95E1F786CF8D879E878D85DF
:104A10009E850E949911882309F1EE20F9F080917A
:104A20003202803270F020912D0230912E023887B0
:104A30002F831986DB86CA868C87CE0107960E9453
:104A4000601B86E0F801ADE2B2E001900D928A951C
:104A5000E1F70E94DB23FF24F3945DCFC8010E949D
:104A6000601BF9CF51110AC08DE292E00E94601BD9
:104A700086E0F50111928A95E9F7B1CF49130FC08D
:104A800038130DC0E1100BC0F8012583C8010E9446
:104A9000601B86E0F50111928A95E9F73CCF8D877E
:104AA0009E878D859E850E9499118823B9F2EE20FC
:104AB000A9F280913202803220F220912D023091B1
:104AC0002E023A8329831B82DD82CC828E83CE0123
:104AD0000196B5CFE83CF105E0F6FE2CEE2009F496
:104AE000BDCF491316C0381314C08091320280FD27
:104AF00083CF982F907F09F47FCFF8018583903F73
:104B000009F477CF982F907F905F8F70892B8583E2
:104B100070CF8D879E878D859E850E94991181110A
:104B200090CF80913202816080933202C8010E944E
:104B3000601BF1CEEE2009F491CF8D879E878D8585
:104B40009E850E949911F82E882309F487CF86E06C
:104B5000F801ADE2B2E001900D928A95E1F7809103
:104B60002D0290912E020E948F110E94DB23D3CE42
:104B700021E02E25EACE1F93CF93DF93CDB7DEB78A
:104B800067970FB6F894DEBF0FBECDBF4B8B5C8B23
:104B90006D8B7E8B8F8B1A8A198A85E0FE01739646
:104BA000DE011D9601900D928A95E1F786E0FE01E7
:104BB0003D96DE01179601900D928A95E1F7CE01A0
:104BC00007960E943124811112C086E0FE013796BB
:104BD000DE01119601900D928A95E1F78A859B85F9
:104BE000892B29F08F81988589238F3FB1F516E0B5
:104BF000809164029091330289131DC067960FB6AD
:104C0000F894DEBF0FBECDBFDF91CF911F91089505
:104C100096E0929FD001939FB00D1124AC5CBD4FE4
:104C2000FE01319601900D929A95E1F7809333023F
:104C30000E94E809DCCF819FC00111248C5C9D4F4C
:104C40000E9431248823D1F28091640290E0019681
:104C50008770992780936402CBCF2091330230E094
:104C6000C901019687709927409164024817190677
:104C700079F60E942317109233021092640286E0A4
:104C8000EDE2F2E0DF011D928A95E9F7B0CF8F9255
:104C90009F92AF92BF92CF92DF92EF92FF920F93CB
:104CA0001F93CF93DF9308EB12E04DE251E0D80160
:104CB000812C61E070E0AD90BD90FD0112921292E6
:104CC000EA012991AE01822F82958F7090E0EC016C
:104CD000F9A02F70EB0102C0CC0FDD1F2A95E2F77F
:104CE0009E013F2D322BEC0139A33AA120952323BD
:104CF0002AA3D0EADA95F1F7C4E2CC2EC1E0DC2E8B
:104D000030E020E0E60199906E01892D82958F7048
:104D100090E0EC0188A1E080F18090E0D92DDF7077
:104D200002C095958795DA95E2F780FD5CC0CB01CE
:104D3000022E02C0880F991F0A94E2F7E82AF92A86
:104D4000F182E0822F5F3F4F29303105D9F6CA0149
:104D50000197EC012881822F82958F7090E0EC0101
:104D6000D9A02F707B0101C0EE0C2A95EAF73E2DE9
:104D700030953D2139A32AA12E292AA381E0208143
:104D800031812A153B0509F480E0882AD2E0A43C51
:104D9000BD0709F090CFF090D102882039F181E071
:104DA0008093D5010E9444099093D4018093D3014C
:104DB0008091D3019091D4010E9435090697D0F0DB
:104DC000EF2DF0E0EE0FFF1FEC5FFC4FD8018D914F
:104DD0009D918D0181939193B2E0043C1B07B1F743
:104DE0001092D50107C090E080E0A8CF8091D50156
:104DF0008111DECF0E94710F882309F49BC01091AE
:104E0000D0028091E3028823E9F085E0EFEFF2E041
:104E1000A6EDB1E001900D928A95E1F78091E10253
:104E20009091E202A091E3028093DB019093DC0178
:104E3000A093DD0181E090E00E943A32892B11F4C9
:104E40001092E30290E080E00E943A320097C1F0B5
:104E50008091ED018F5F8093ED01863008F05AC09C
:104E60000E94CD14882DDF91CF911F910F91FF905B
:104E7000EF90DF90CF90BF90AF909F908F9008956C
:104E8000E12FF0E0EE0FFF1FEC5FFC4FDC01AA0FFB
:104E9000BB1FA052BE4F2D913C912193319301969F
:104EA0008630910599F78091FD0280FF1DC086959F
:104EB000869586958093DF01D091B5028D2F90E085
:104EC000FC01EE5DFD4F7F011091EC018081181B0C
:104ED000012F10165CF0812F17FD80E0181B1111B7
:104EE0000FC01092ED01BCCF80E0E4CF0150D7019C
:104EF0008C918F5F8C9360E08D2F0E94BD14E9CF61
:104F00001F5FF70180818150808361E08D2F0E94B7
:104F1000BD14E5CFE091D002F0E0EE0FFF1FEC5F93
:104F2000FC4F90E080E0119211920196863091053D
:104F3000D1F796CF1091D1028091DE01883099F59A
:104F40008091DD0180FF0FC08091D60180FF4EC0AF
:104F50008091FF0281608093FF028091D60160E022
:104F600086950E942C1A8091DD0181FF09C020E006
:104F70004091D9016091D8018091D7010E94D31549
:104F80008091DD0182FF06C08091DC01882389F1D8
:104F90000E94051A8091DD0183FF03C081E08093A8
:104FA000DE021092DE01E12FF0E0EE0FFF1FEC5F5A
:104FB000FC4F90E080E021913191DC01AA0FBB1FF2
:104FC000A052BE4F11963C932E93019686309105C8
:104FD00091F78091DF010E942A0AE091B602F0E089
:104FE000EE5DFD4F80818093EC013ACF0E946D15FC
:104FF000BACF0E945915CECF1F920F920FB60F92C3
:1050000011242F933F934F935F936F937F938F93CD
:105010009F93AF93BF93CF93DF93EF93FF93D09181
:10502000E900DF708091EC00C82FC17080FDC0E8FE
:105030001092E9008091F000877F8093F0007894CF
:105040000E942E171092E9008091F00088608093F2
:10505000F000CD2BCF70C093E900FF91EF91DF916D
:10506000CF91BF91AF919F918F917F916F915F9100
:105070004F913F912F910F900FBE0F901F90189559
:105080001F920F920FB60F9211242F933F934F93BD
:105090005F936F937F938F939F93AF93BF93EF93A0
:1050A000FF938091E10082FF15C08091E20082FFB2
:1050B00011C08091E1008B7F8093E100209121035A
:1050C0002F5F822F62E30E94C832992309F4C6C081
:1050D000209321038091DA0080FF28C08091D800BE
:1050E00080FF24C08091DA008E7F8093DA00809167
:1050F000D90080FFE9C080E189BD82E189BD09B4A2
:1051000000FEFDCF81E08093380388E39CE00E949D
:10511000DC0680912203811109C00E947E070E9453
:1051200071088091E20084608093E2008091E10048
:1051300080FF1BC08091E20080FF17C08091E200D9
:105140008E7F8093E2008091E20080618093E20094
:105150008091D80080628093D80019BC85E080934C
:10516000380380E49CE00E94DC068091E10084FF2B
:1051700035C08091E20084FF31C080E189BD82E1C9
:1051800089BD89B5982F917080FFFBCF8091D800A1
:105190008F7D8093D8008091E1008F7E8093E10025
:1051A0008091E2008F7E8093E2008091E200816036
:1051B0008093E20080912F03882309F48FC084E05C
:1051C0008093380384E49CE00E94DC060E9423174D
:1051D0000E94211B0E941E0A0E94870B8091E10001
:1051E00083FF2BC08091E20083FF27C08091E10004
:1051F000877F8093E10082E08093380310922F0331
:105200008091E1008E7F8093E1008091E2008E7FAB
:105210008093E2008091E20080618093E20042E0AE
:1052200060E080E00E943F088091F00088608093F9
:10523000F00088E49CE00E94DC06FF91EF91BF91B2
:10524000AF919F918F917F916F915F914F913F911E
:105250002F910F900FBE0F901F9018951092210361
:1052600080912003882309F435CF8091380384305E
:10527000C1F49091E9009F702091EC00822F817021
:1052800020FD80E8892B95E09093E9009091EB0058
:1052900090FF04C09091EE0097FD08C08F7080933E
:1052A000E9001092200316CF1092F1009091E800CF
:1052B00095FDFACF9091E80090FFF0CF9091E80033
:1052C0009E779093E800EACF19BC109238038CE3E4
:1052D0009CE00E94DC061092220328CF8091E3001C
:1052E00087FD93E0909338036DCFCDB7DEB7E1979C
:1052F0000FB6F894DEBF0FBECDBF84B7877F84BFE3
:105300000FB6F894A8958091600088618093600042
:10531000109260000FBE80E890E00FB6F894809382
:105320006100909361000FBE85B7806885BF85B727
:10533000806885BF0E947E070E9471088091E2000C
:1053400084608093E20081E99BE09093C90180939F
:10535000C8017894809138038823A1F01091E90066
:105360001F709091EC00892F817090FD80E8182BC0
:105370001092E9008091E80083FD0E942E171F70B3
:105380001093E90082E084BD93E095BD9AEF97BD4C
:1053900080936E0087988F988FB1881F8827881F09
:1053A0008093390180913901882309F4D7C0109284
:1053B0000D0188E080930E010E94710F882331F067
:1053C00062E070E084E191E00E94583180913901FF
:1053D000811131C0FE01379686E0DF011D928A956A
:1053E000E9F783E3898382E38A8386E38B8384E31B
:1053F0008C8387E98D8380E38E833697ADE2B1E0BD
:10540000CE010D9621912D938E179F07D9F789E034
:10541000E5E4F1E0DE01919601900D928A95E1F7C5
:10542000FE01B196A4E2B1E0CE018A9621912D93BE
:105430008E179F07D9F78091390196E0811190E08E
:105440009093D10286E0891B8093D002EDE2F1E0D7
:1054500043E351E021E030E09191A92FA295AF7094
:10546000B0E091966C9191979F70890102C0000FF6
:10547000111F9A95E2F7C8018095862391968C9327
:10548000DF0111978C91A82FA295AF70B0E0929692
:105490009C9192978F70B90101C0660F8A95EAF7C7
:1054A000892F862B92968C934E175F07A9F6E4E21C
:1054B000F1E04DE251E021E030E09191A92FA29579
:1054C000AF70B0E091966C9191979F70890102C086
:1054D000000F111F9A95E2F7C801809586239196D7
:1054E0008C93DF0111978C91A82FA295AF70B0E03B
:1054F00092969C9192978F70B90101C0660F8A9520
:10550000EAF7892F862B92968C934E175F07A9F6A0
:10551000E8EBF2E080ED92E0A4E0B3E011921192AA
:105520001D921D928E179F07C9F70E9447268FE391
:105530009CE90197F1F700C000000E944726809186
:10554000040380FF0FC080E00E942E126FEF7FEFF8
:1055500090E080E00E9477330E94630C88E08093A3
:105560000D0128CF0E949415811102C00E94A71A34
:10557000259A2D9882E88093800089E180938100AC
:105580008FEF9FEF90938700809386000E94211BEE
:1055900080913901811106C086E98093130184E965
:1055A0008093120120911301A22FA295AF70B0E059
:1055B00091963C9191972F7081E090E0BC01022E72
:1055C00001C0660F0A94EAF7462F4095432391964F
:1055D0004C93919792963C919297362B92963C934E
:1055E000929740911201E42FE295EF70F0E031A123
:1055F0004F70042E01C0880F0A94EAF7982F9095F7
:10560000932391A392A1892B82A390968C9190E0F1
:1056100002C0959587952A95E2F7817020A130E028
:1056200002C0359527954A95E2F792E020FF90E079
:10563000892B8093B7029091390181E0982790934C
:10564000B602891B8093B502269A0E94710F8111C0
:1056500006C062E070E084E191E00E94613182E284
:1056600090E00E944533803209F064C583E290E007
:105670000E944533853009F05DC584E290E00E94C8
:105680004533843009F056C50E949415811102C03B
:105690000E94A71A82E090E00E9445338093FE02A8
:1056A0000E948D0F9093D3028093D20283E090E00A
:1056B0000E944533682F70E090E080E00E94421322
:1056C0000E94211B8091D4028111E7C08091FE02CB
:1056D00080FF14C084E39BE09F938F930E94750723
:1056E0008091FE020F900F9080FF08C08EE19BE03A
:1056F0009F938F930E9475070F900F900E949415AF
:10570000811110C08091FE0280FF08C086EF9AE0F0
:105710009F938F930E9475070F900F900E94A71A76
:105720000E940C1788E090E00E944D336093FF02C6
:105730007093000380930103909302038091E3022E
:1057400083608093E3026E7FD1F48091FE0280FF3C
:1057500008C08DEA9AE09F938F930E9475070F907F
:105760000F900E940C1788E090E00E944D336093E8
:10577000FF027093000380930103909302030E9441
:105780009F0A8091FE0280FF76C084E99AE09F9391
:105790008F930E9475078091FE020F900F9080FFFB
:1057A0006AC08091FF0281701F928F9387E79AE011
:1057B0009F938F930E9475078091FE020F900F9028
:1057C0000F900F9080FF57C08091FF0286951F9227
:1057D0008F938CE59AE09F938F930E947507809139
:1057E000FE020F900F900F900F9080FF44C08091A9
:1057F00000031F928F9382E49AE09F938F930E94FD
:1058000075078091FE020F900F900F900F9080FF10
:1058100032C0809101031F928F9388E29AE09F9398
:105820008F930E9475078091FE020F900F900F904A
:105830000F9080FF20C0809102031F928F938EE013
:105840009AE09F938F930E9475078091FE020F90BC
:105850000F900F900F9080FF0EC0809103031F9256
:105860008F9382EF99E09F938F930E9475070F901B
:105870000F900F900F901092E2028091E3028460EB
:105880008093E3028091FF0280FF04C060E0869570
:105890000E942C1A81E08093D4028AE391E09093D5
:1058A000D6028093D50287E29CE00E94DC0673E07A
:1058B000272E312C80913803853009F4EBC00E94EB
:1058C00047260E94710F81112AC18FEF8AA78BA7EB
:1058D0001CA60E9444098160782F9EA78DA74AA527
:1058E0005BA56CA58EA50E94BB258091E202882352
:1058F00009F477C08091E102E091FF02E695E81B90
:10590000E093DD02823009F09CC1F0E0E755F44FEE
:10591000E4910E2F10E09DE4E92E9FE0F92E809196
:10592000DE02882389F01092DE020E944409980169
:1059300020953095820F931F9093DC028093DB02B9
:105940001092E0021092DF028091DB029091DC0263
:105950000E9435098017910708F443C08091DA024C
:10596000882311F11092DA028091D8029091D90225
:105970000E94350980339547B8F00E9444099093FE
:10598000D9028093D8028091FE0280FF08C082E78E
:105990009BE09F938F930E9475070F900F908091CB
:1059A000E30288608093E302C090DF02D090E002BF
:1059B000E091DB02F091DC020E0F1F1F1093DC025E
:1059C0000093DB028BED92E0F70109958091DF02F5
:1059D0009091E002892B29F4CD2819F081E0809381
:1059E000DA020E941E0A9091E402891751F10E9486
:1059F0001E0A182F8093E4028091FE0282FF1EC0CF
:105A000080FF1CC084EB9BE00E94DC068091FE02BC
:105A100080FF14C01F921F938FEA9BE09F938F9388
:105A20000E9475078091FE020F900F900F900F90CB
:105A300080FF04C08DEA9BE00E94DC06812F0E945B
:105A4000870B80913803843009F034CF83E0809352
:105A5000E9008091E80082FF2DCF8091E80090E07E
:105A600085FF06C00E949D07882309F444C191E088
:105A70008091E8008B778093E800992309F41ACF8E
:105A8000E981E150E33108F0B7C1F0E0EC52FC4CA1
:105A90000C941E3383E29CE00E94DC068091380364
:105AA000843051F11092D70288E190E020E40FB6E3
:105AB000F894A895809360000FBE2093600080E06A
:105AC0000E942A0A80E00E94870B83B7817F84604E
:105AD00083BF83B7816083BF7894889583B78E7FB7
