:100000000C9454030C94FB2C0C948C030C948C03D4
:100010000C948C030C948C030C948C030C948C0324
:100020000C948C030C948C030C94F7240C94B32440
:100030000C94F4250C948C030C948C030C948C037A
:100040000C948C030C948C030C948C030C948C03F4
:100050000C948C030C94D0250C948C030C948C037E
:100060000C948C030C948C030C948C030C948C03D4
:100070000C948C030C948C030C948C030C948C03C4
:100080000C948C030C948C030C948C030C948C03B4
:100090000C948C030C948C030C948C030C948C03A4
:1000A0000C948C030C948C030C948C030501098034
:1000B000A101850319012AB700150126B700950192
:1000C00075108100C0050C0901A101850419012AE0
:1000D000A002150126A002950175108100C00660DE
:1000E000FF0961A1010962150026FF00952075082E
:1000F00081020963150026FF00952075089102C052
:1001000005010906A101050719E029E715002501E8
:10011000950875018102950175088101050719008F
:1001200029FF150026FF00950675088100050819AE
:10013000012905950575019102950175039101C08D
:1001400000000000000000000000000000000000AF
:10015000000000000000000000000000000000009F
:10016000000000007E0F00D4FFFFFFC700000078F2
:1001700000000000000000002A2B28000000000002
:100180000000000000000000000000290000000046
:100190002C1E3420212224342627252E362D3738B4
:1001A000271E1F202122232425263333362E3738BD
:1001B0001F0405060708090A0B0C0D0E0F1011127B
:1001C000131415161718191A1B1C1D2F3130232D47
:1001D000350405060708090A0B0C0D0E0F10111245
:1001E000131415161718191A1B1C1D2F3130354CF6
:1001F0001E0F0500047F3F1F643214643214783CE4
:100200001E1E140A05000101010101010101010284
:1002100002020202020202020303030303030303B6
:100220000404040404040405050505050606060681
:1002300006070707070708080808090909090A0A3D
:100240000A0B0B0B0C0C0C0D0D0D0E0E0E0F0F0FE1
:10025000101011111112121313141415151616176C
:1002600017181819191A1A1B1B1C1D1D1E1E1F20DA
:1002700020212222232424252626272829292A2B27
:100280002C2D2D2E2F30313232333435363738394C
:100290003A3B3C3D3E3F4041424344454647484946
:1002A0004A4C4D4E4F50515354555658595A5B5D18
:1002B0005E5F616264656668696B6C6D6F707273B6
:1002C0007577787A7B7D7E8082838587888A8C8E1D
:1002D0008F91939596989A9C9EA0A2A3A5A7A9AB4F
:1002E000ADAFB1B3B5B7BABCBEC0C2C4C6C9CBCD41
:1002F000CFD1D4D6D8DBDDDFE2E4E7E9EBEEF0F3F3
:10030000F5F8FAFDFFFFAA7F55402223252628296C
:100310002A2C2D2F3032333536383A3B3D3E404281
:10032000434547494A4C4E5051535557595A5C5EC4
:100330006062646668696B6D6F71737577797B7DD8
:100340007F81838587898A8C8E90929496989A9CD7
:100350009E9FA1A3A5A7A8AAACAEAFB1B3B4B6B8EF
:10036000B9BBBCBEBFC1C2C3C5C6C7C9CACBCCCD51
:10037000CED0D1D2D2D3D4D5D6D7D7D8D9D9DADA2C
:10038000DBDBDBDCDCDCDCDCDDDDDDDDDCDCDCDCAC
:10039000DCDBDBDBDADAD9D9D8D7D7D6D5D4D3D2E0
:1003A000D2D1D0CECDCCCBCAC9C7C6C5C3C2C1BFBE
:1003B000BEBCBBB9B8B6B4B3B1AFAEACAAA8A7A522
:1003C000A3A19F9E9C9A98969492908E8C8A8987DE
:1003D0008583817F7D7B79777573716F6D6B6968BC
:1003E000666462605E5C5A5957555351504E4C4A90
:1003F0004947454342403E3D3B3A3836353332303B
:100400002F2D2C2A29282625232229001E001F00F3
:100410002000210022002B0014001A000800150003
:100420001700E00004001600070009000A00E100C0
:100430001D001B0006001900050000000000E3007D
:10044000777C28004A002A00270026002500240087
:1004500023004C00130012000C0018001C00340094
:1004600033000F000E000D000B00E50038003700D0
:1004700036001000110000000000E600787C2C001F
:100480004D0035021E021F02200221022202007CC2
:100490001E001F002000210022004C00010050001F
:1004A0004F0052002F0005780100010001005100AB
:1004B0002F0200000000010001004C0026022A006B
:1004C000270226022502240223020100270026001B
:1004D00025002400230031022E025E005D005C0036
:1004E000300001002D005B005A005900300200006E
:1004F0000000620001004C00270245003A003B006A
:100500003C003D003E0020781E021F022002210216
:1005100022022178AC00AB00A9004B002D02A800FC
:10052000AD00AE00AA004E002D000000000001004A
:100530000100010026024400430042004100400047
:100540003F00010027022602250224022302310077
:100550002778257823784A002E000100287826780D
:1005600024784D002E02000000000100010001006F
:100570000100010001000100010001000100010073
:100580000100010001000100010001000100010063
:100590000100010001000100010001000100010053
:1005A0000100000000000100010001000100010045
:1005B0000100010001000100010001000100010033
:1005C0000100010001000100010001000100010023
:1005D0000100010001000100010001000100000014
:1005E000000001000100010001004E004B00A900C5
:1005F000AA004D004A00AB00AC002378247825788F
:10060000267829782A782778287809025B00030160
:1006100000A0FA09040000010301010009211101F1
:1006200000012240000705810308000109040100C0
:100630000203000000092111010001222200070528
:1006400082032000010705030320000109040200C2
:1006500001030000000921110100012232000705F9
:100660008403200001120100020000000810CB5694
:10067000531005010200011A03490072006900735A
:100680000020005200650076002E00200035006139
:100690000000000E034B0065006500620069006FFA
:1006A000000000040309040011241FBECFEFDAE0AC
:1006B000DEBFCDBF04B603FE18C080916B039091DE
:1006C0006C03A0916D03B0916E038730904BA740EF
:1006D000B04B59F410926B0310926C0310926D039F
:1006E00010926E03E0E0F8E3099523E0A6EFB1E095
:1006F00001C01D92AB36B207E1F711E0A0E0B1E016
:10070000E2EAF0E602C005900D92A63FB107D9F7E4
:100710000E941B260C94E62F0C940000E8EDF0E0FC
:1007200080818E7F80831092E2001092DA00109216
:10073000E100A0EEB0E08C9181608C9380818F7796
:10074000808319BCA7EDB0E08C918E7F8C93808163
:100750008F7E80831092510308952091E4003091A0
:10076000E50095E6A9012091EC00822F817020FF21
:1007700006C08091E80080FF06C080E008952091C7
:10078000E80022FD1AC080915E03882389F085303D
:1007900089F08091EB0085FD0FC02091E40030913D
:1007A000E50042175307F9F29150E1F684E008950D
:1007B00082E0089583E0089581E0089580916003C8
:1007C00087FF13C08091E80082FF06C08091E80097
:1007D0008B778093E80004C080915E038111F2CF93
:1007E000089580915E038823D9F38091E80080FF0B
:1007F000F8CF8091E8008E77ECCF982F9093E900A6
:10080000242F762F50E0891731F07091EC00209161
:10081000ED005091F00021FD07C09F5F973071F708
:100820008093E90081E008953091EB003E7F3093A2
:10083000EB003091ED003D7F3093ED003091EB0007
:1008400031603093EB007093EC002093ED005093F7
:10085000F0002091EE0027FDE0CF80E00895B0E0A9
:10086000A0E0E5E3F4E00C94212EC8EDD0E088810F
:100870008F7E8883E7EDF0E080818160808384E073
:1008800082BF81E08093510388818E7F888302EE4E
:1008900010E0F80110821092DA0081EEC82ED12CFF
:1008A000F601108288818F778883888180688883A9
:1008B00088818F7D888319BC10925E0310925F033C
:1008C00010925D0310925C0390EEE92EF12CF7017B
:1008D00080818B7F808388818160888342E060E0B3
:1008E00080E00E94FD03F60180818E7F8083F80105
:1008F000808181608083808188608083F70180812E
:100900008E7F8083888180618883CDB7DEB7E8E001
:100910000C943D2EFC01809166039091670386172D
:100920009707A0F06115710529F49091E8009E7772
:100930009093E80090E06115710551F4911108C0A1
:100940008091E80082FF34C080E00895BC01F2CFBE
:1009500080915E038823C1F18530C1F18091E80068
:1009600083FD30C08091E80082FDEACF8091E800ED
:1009700080FFE1CF8091F3002091F200382F6115C4
:10098000710519F02830310558F091E02830310513
:1009900009F090E02091E8002E772093E800CBCF7B
:1009A00081918093F100615071092F5F3F4FE7CF34
:1009B00080915E03882341F0853041F08091E8000A
:1009C00083FFBECF81E0089582E0089583E008951B
:1009D000089508958091530308959C014FB7F894AA
:1009E00080914D0390914E03A0914F03B09150031D
:1009F0004FBF821B930B08952FB7F89460914D035E
:100A000070914E0380914F03909150032FBF089532
:100A10002FB7F89480914D0390914E03A0914F030E
:100A2000B09150032FBF08959C01FC0132969FEFB7
:100A300080E04191461751F09F3F19F4411101C0E8
:100A4000982F8F5F8630A9F79F3F09F40895290FEB
:100A5000311D97FD3A95F90162830895A3E0B0E056
:100A6000E4E3F5E00C94272E20914A0330914B03E8
:100A700028173907A1F090934B0380934A03E09124
:100A80004803F0914903309751F024E029839B8378
:100A90008A830680F781E02DCE0101960995239681
:100AA000E2E00C94432EA3E0B0E0E9E5F5E00C941D
:100AB000272E209146033091470328173907A1F0CC
:100AC0009093470380934603E0914803F0914903D4
:100AD000309751F023E029839B838A830680F78136
:100AE000E02DCE01019609952396E2E00C94432E69
:100AF000FC01680F791F8FEF91E32191822728E095
:100B000030E087FF09C0880F892721503109C9F7D4
:100B1000E617F70791F70895880FF7CF8F929F9206
:100B2000AF92BF92EF92FF920F931F93CF93DF93F9
:100B30008630B8F5811136C0909180009F779093F0
:100B400080002D98A0918600B0918700282F30E07A
:100B50000E94D72F25E030E040E050E00E94B52F02
:100B600089019A0180918600909187006CE070E085
:100B70000E94782E60177107D8F0C80169E070E014
:100B80000E94782E7093890060938800DF91CF9146
:100B90001F910F91FF90EF90BF90AF909F908F901B
:100BA000089585E090918000906890938000CACF6E
:100BB0008091860090918700E0908600F0908700F9
:100BC000E0918600F0918700C6E0D0E0BE010E946F
:100BD000782E060F171F211D311D4801590185E090
:100BE000880C991CAA1CBB1C8A95D1F7C701BE01B1
:100BF0000E94782E9F0150E040E0260F371F411DD4
:100C0000511DC501B4010E94B52F49015A01E0915F
:100C10008600F0918700CA01B9010E944E2E9B0107
:100C2000AC01DF010E94A22F9B01AC01C501B40100
:100C30000E944E2E2FE096958795779567952A9579
:100C4000D1F7009186001091870030E020E0061770
:100C500017072807390708F095CF60918600709133
:100C6000870090CF282F220F220F220F909145034B
:100C70009770922B90934503987F21E009F420E030
:100C80009091450320FB90F9909345030E948E05B7
:100C90000895FA01811101C0FB0109950895EAED5B
:100CA000F2E0118282818460828308958091400302
:100CB000982F9E7F29F4817082608093400308956D
:100CC0008635E8F381708465F8CFAF92BF92DF92EA
:100CD000EF92FF920F931F93CF93DF93082F162F5E
:100CE000E901E42FF0E0EB5FFD4F611110C0E491EA
:100CF0005E2F4E2F4983E8835A83DF91CF911F9156
:100D00000F91FF90EF90DF90BF90AF900895E62E87
:100D1000F12C4491D42EE42FF0E026E0829FC00114
:100D200011242FEF30E0B9010E94782E802F90E03F
:100D3000880F991F55E5569FD001579FB00D11247C
:100D40008A1B9B0B982F990F890F5901AE18BF086A
:100D5000AE9ED001AF9EB00DBE9EB00D11245B2F94
:100D6000189F80011124012F11275901A01AB10ADF
:100D7000AE9E8001AF9E100DBE9E100D1124590134
:100D8000A81AB108AE9CC001AF9C900DBE9C900DFE
:100D90001124892F9927281B390B2E9FC0012F9FC3
:100DA000900D3E9F900D1124E92F62307105A1F046
:100DB00050F46115710509F49DCF6130710581F022
:100DC000EB2F512F97CF6430710569F080F06630BA
:100DD000710509F48FCFF4CFE42F4B2F592F8ACF11
:100DE000E42F412F87CFEB2F542F492F83CF4B2F49
:100DF0005D2DE12F7FCF80E00895F894E82FE295F4
:100E0000EF70F0E031A1282F2F7081E090E001C059
:100E1000880F2A95EAF7982F9095932391A392A192
:100E2000892B82A3789408959091B00292FF06C016
:100E3000282F28712830F9F4877F846093FF06C03B
:100E4000282F28712831F1F4877E84612091B10226
:100E500020FF06C0382F38713830D9F4877F816081
:100E600021FF06C0282F28712831D1F4877E8161A7
:100E700094FD877E0895282F24712430F9F68B7F06
:100E80008860DCCF282F2471243101F78B7E8861A4
:100E9000DDCF382F3171313019F78E7F8860E0CF88
:100EA000282F2171213121F78E7E8861E1CF823890
:100EB0009105B9F1B0F48133910509F47DC048F48E
:100EC0008932910509F46DC08A32910509F47BC01D
:100ED00008958533910509F45FC08933910509F1BF
:100EE0000895833E9105D9F138F4803E910529F1AA
:100EF000823E910579F10895863E9105D9F1873EAC
:100F0000910509F43EC0843E910541F52091B1025E
:100F100021FF24C08091B00284FD19C087EE90E0CB
:100F200008952091B002237009F05AC02091B102B7
:100F300023FF14C089E290E008952091B00220FDC3
:100F400038C03091B10230FF09C024FF43C090E0A7
:100F500080E008952091B00222FDF7CF08952091FE
:100F6000B00222FD3AC03091B10230FD39C024FFF9
:100F7000F5CFEDCF2091B00223FFF0CF24FDE7CFD6
:100F8000CDCF2091B00223FD2EC03091B10231FFB0
:100F9000EECF84EE90E008952091B00225FFDECFE1
:100FA000C9CF2091B00225FD21C02091B10223FFBD
:100FB000D5CF89E390E0D2CF2091B00226FFCECFEB
:100FC0008AE290E008952091B00226FFC7CF81E326
:100FD00090E0089583EE90E0089582EE90E0089509
:100FE00080EE90E0089586EE90E0089585E390E02D
:100FF00008951F93CF93DF930E945707EC01C1150B
:1010000080E5D807F0F5C11580E4D80708F09CC04A
:10101000C03ED10520F5CD3CD10508F082C0C83ACC
:10102000D10578F4C53AD10508F073C0C130D105B7
:1010300019F1209709F1C430D105F0F4D0E0C0E0F7
:101040001BC0C33CD105D0F7C85AD0E0CC0FDD1F80
:10105000CC58DE4F0990D881C02DD4640DC0C11585
:1010600080E2D80708F0D1C0C11581E0D80708F0A8
:101070005AC0C83ED10510F7CE01DF91CF911F9124
:101080000895C03682E5D80718F5C03482E5D80740
:1010900008F06BC0C03282E5D80708F05FC0C11508
:1010A00082E5D80708F497C02C2F2695269580E274
:1010B000289F900111248C2F8370C1E0D0E002C0E2
:1010C000CC0FDD1F8A95E2F7C22BD32BDD68D4CF7E
:1010D000C03A82E5D80760F4C03882E5D80708F442
:1010E00059C0CF71D0E0DC2FCC27C46FD06AC4CFF9
:1010F000C03C82E5D80708F462C0C03E82E5D8074C
:1011000008F09CCFDC2FCC27CC27DF71C06FD06AD2
:10111000B3CFC55AD0E0CF58DE4FC881D0E0D064FD
:10112000ABCFD065A9CF8D2F0E941407182FCE0109
:1011300099270E945707C12FD0E0DC2FCC27CC275E
:10114000DF71C82BD92B98CFCE0199270E94570762
:10115000CC27DF70C82BD92BD06A8ECFCF71D0E0CF
:10116000DC2FCC27C16FD06A87CF2C2F26952695F0
:10117000277080E2289F900111248C2F8370C1E09A
:10118000D0E002C0CC0FDD1F8A95E2F7C22BD32B33
:10119000DC6872CF2C2F26952695277080E2289F39
:1011A000900111248C2F8370C1E0D0E002C0CC0FDD
:1011B000DD1F8A95E2F7C22BD32BDA685DCF8C2F27
:1011C0008F710E941407C82FD0E0DC2FCC27CC27CA
:1011D000DF71D06251CF8C2F8F710E94140755E0C0
:1011E000D695C7955A95E1F7CF70D0E0DC2FCC2784
:1011F000282F30E084FF05C044E0220F331F4A95BA
:10120000E1F7C22BD32BD06937CF8D2F8F710E947E
:101210001407182FCE0199270E945707C12FD0E03D
:10122000DC2FCC27CC27DF71C82BD92BD2CF0E9443
:10123000FC04089580915F02811110925F0208956D
:10124000809590915E02982390935E02089520917C
:1012500053029091220256E0291302C080E00895C3
:1012600030E0529FF001539FF00D1124ED5DFD4FD2
:101270007181761306C07081781303C07281741374
:1012800004C02F5F3F4F2770E7CF81E00895809122
:10129000530290912202981301C008958F5F8770C6
:1012A000FACFA82FA77023E0969587952A95E1F7A6
:1012B000FC01EE0FFF1FE80FF91FE60FF71F50E0CC
:1012C00040E080E0219130E00A2E02C0369527955B
:1012D0000A94E2F721703327042E01C0220F0A94EA
:1012E000EAF7822B4F5F5F4F4330510559F708955E
:1012F000292F9A3068F4863090F490E064E072E030
:1013000036E0239F800D911D11240E9451090895FC
:101310002C5F223020F461E072E090E0F6CF80E0B4
:101320000895262F277091E001C0990F2A95EAF7BA
:1013300023E0769567952A95E1F7FB01EE0FFF1FF5
:10134000E60FF71FE40FF51F50E040E0682F70E054
:101350008191DF0111979B01042E02C036952795DC
:101360000A94E2F7217021952827292328272C9316
:101370004F5F5F4F4330510559F70895282F862F4F
:101380009A3070F4263058F4622F70E026E0929F75
:10139000600D711D112444E052E00E9491090895EE
:1013A0009C5F9230E0F7622F70E041E052E0F5CFB1
:1013B0008093AF0208959091AF0221E030E0F901EF
:1013C00001C0EE0F8A95EAF7D90102C0AA0FBB1F30
:1013D0006A95E2F7EA2B01C0220F4A95EAF7892FB6
:1013E0008E23E81305C0292B822F0E94D809089567
:1013F00020952923F9CF21E030E001C0220F8A9502
:10140000EAF720958091AF0282230E94D8090895BF
:10141000909154028095892380935402282F27703D
:1014200091F4282F082E000C330B9217130659F055
:101430009091B10292FF07C08595859585950E9490
:10144000FB0910925402089521E030E001C0220F00
:101450008A95EAF78091AF02822B0E94D8090895FD
:101460008093600208950F931F93CF93DF938B01B6
:10147000EA0190915E03943061F58093E9008FEF6B
:101480009091E800815095FD06C095ED9A95F1F791
:1014900000008111F5CF8091E80085FF1AC00E94FD
:1014A000AD03811111C08091E80085FD06C08091D7
:1014B000E8008E778093E800F2CFF80181918F01E8
:1014C0008093F100219779F78091E8008E778093DF
:1014D000E800DF91CF911F910F91089543E050E014
:1014E000BC0184E00E94330A0895CF93DF93EC019E
:1014F00048E050E0BC0181E00E94330A88E0FE0130
:10150000A4E5B3E001900D928A95E1F7DF91CF91C8
:10151000089581E08093E00080E28093D8001092EB
:10152000C9008FE19EE40197F1F700C0000087E059
:1015300090EBDC0180936B0390936C03A0936D039D
:10154000B0936E0388E19CE00FB6F894A895809361
:1015500060000FBE90936000FFCF609161018091A9
:10156000400380FF20C08091600143E0849FC00160
:10157000112480529D4F569A2BB12F7B3BB1306482
:101580005FB7F894FC01649FE00DF11D1124BF01C9
:1015900068177907D1F45FBF8FE594E00197F1F701
:1015A00000C000000895809162019091630123E0E2
:1015B000829FF0011124E052FD4F8917A0F611829D
:1015C000108212828F5F3396F8CFFC014191CF01D8
:1015D000E8E03BB9000000C047FF2BB9440F000012
:1015E00000C000C000C02BB900C0EA9591F7D0CF71
:1015F0000F931F93CF93DF93EC0110E000E09091E5
:1016000064019017110609F06CF40E94AD0A8C81F8
:1016100090E00196817099278C83DF91CF911F9183
:101620000F91089520916201A801420F511D9A0166
:10163000220F331F240F351F20523D4F4C816091E4
:1016400042038091410396959017110651F04CF09A
:10165000442349F0409143030E9465060F5F1F4FEA
:10166000CECF4423B9F340E0F7CFB0E0A0E0EBE306
:10167000FBE00C941D2EEC014C81042F10E098012E
:10168000D8010E94D72F9B01AC010E94A22F4B01D1
:101690005C01E0E2F0E0E01BF10BA5E5B0E0AC019D
:1016A0009B010E94A22F6B017C019F01DF010E9420
:1016B000AD2E9B01AC010E94AD2F9B01AC01280D0A
:1016C000391D4A1D5B1DC701B6010E94B52FF22EC0
:1016D000822F90E039E23F1520F143E0249F9001F2
:1016E000112435952795122F109500E085E5E82EF9
:1016F000EF1880916401081718F10E94AD0A9C81CF
:1017000081E0992319F0903219F48FEF80935F01F3
:1017100080915F01890F8C83CDB7DEB7ECE00C942C
:10172000392E25E530E0B901681B790B9B01220FAA
:10173000331F260F371F37FFD4CF2F5F3F4FD1CF37
:101740008E2D01FD8F2D20916201622F600F772772
:10175000771F9B01220F331F260F371F20523D4F4B
:10176000412F609142030E9465060F5FC2CFEF9246
:10177000FF920F931F93CF93DF93EC018C81811124
:1017800009C081E08C831092DE0292E090935E01AA
:1017900080935D01809162019091630123E0829FBB
:1017A000F0011124E052FD4F891758F110E003E0D9
:1017B00060916401161758F10E94AD0A80915D0195
:1017C0002091DE02280F2093DE0290915E01980F97
:1017D00090935E01191654F4022E000C330B4091C5
:1017E00064014150550B2417350734F081958093DF
:1017F0005D01813009F41C82CDB7DEB7E6E00C94C0
:101800003F2E1182108212828F5F3396CDCFE12E50
:10181000F12C70E0C7010E948C2E20916201820F92
:10182000482F50E02091DE02022E000C330BE2160E
:10183000F306BCF020915E01022E000C330B2E1536
:101840003F057CF0809F9001112420523D4F409134
:10185000430360914203809141030E9465061F5F2C
:10186000A7CFFA01EE0FFF1FE40FF51FE052FD4F67
:10187000118210821282F3CFB0E0A0E0E2E4FCE03B
:101880000C941D2EEC018A81BB24BA9480FD02C009
:10189000BB24B394A09064018C81811109C081E0C4
:1018A000B81220C08FEF8A0D8093DD0281E08C8317
:1018B000F12CE12C4CE0942EEA14B8F00E94AD0A11
:1018C0008091DD0291E0B91257C0811150C0809122
:1018D000640181508093DD021C82CDB7DEB7ECE05D
:1018E0000C94392E1092DD02E1CF009162010E0DB1
:1018F0001F2D111DC801880F991F080F191F0052B5
:101900001D4FF80111821082128234E0C32ED12CB7
:10191000812C8091DD02880D8D302CF1692D0E9483
:101920006A2E892F082E000C990B8E159F0591F4B5
:10193000809143038C9DA0018D9D500D11245595E0
:1019400047955595479598016091420380914103D1
:101950000E9465068B0CF1E0CF1AD108D1F68FEF0B
:10196000E81AF80AA9CF87FFDDCF8A0DDBCF8150B7
:101970008093DD02BC82B1CF90E00196609164015A
:1019800070E00E948C2E8093DD028C83A6CFEF92B4
:10199000FF921F93CF93DF93EC0110E0EE24EA94C3
:1019A000F12C60916401161770F00E94AD0A9A81C3
:1019B0008C8190FF27C08F5F8C83DF91CF911F9127
:1019C000FF90EF90089520916201422F410F55271B
:1019D000551FCA019A01220F331F280F391F2052A9
:1019E0003D4F70E0C7010E948C2E962F8C81409154
:1019F000430360914203199F800D11240E946506E4
:101A00001F5FCFCF8150D8CF9091400390FF0EC081
:101A1000909162012091630133E0939FF0011124C2
:101A2000E052FD4F921718F00E94AD0A089581838D
:101A3000608342839F5F3396F5CFA3E0B0E0E3E29B
:101A4000FDE00C94252E8C018091DF0281110AC0EB
:101A50009E012F5F3F4F4FEF6FEF0E9465068A8117
:101A60008093DF02F8016481613069F08091DF02C8
:101A700040E0662361F040E0623011F44091DF0203
:101A800080E060E004C06091DF0240E080E00E94FE
:101A9000040DF801848190E0019663E070E00E94FB
:101AA0008C2E84832396E4E00C94412EA3E0B0E0D6
:101AB000ECE5FDE00C94272E9091400390FF0AC0C6
:101AC0009E012F5F3F4F0E9465064B8169818A818D
:101AD0000E94040D2396E2E00C94432ECF93DF93F3
:101AE000EC01E0E4F3E0438162818C810E94560DB9
:101AF0008C818F5F8C83DF91CF910895CF93DF939B
:101B0000EC01EC81F0E0E65FFC4F4491E0E4F3E0AF
:101B1000628181810E94560D8C818F5F8C83DF9161
:101B2000CF910895E0E4F3E080818E7F80830E946E
:101B30004F06EAEDF2E08281816082830E94AD0A65
:101B40000895B0E0A0E0E7EAFDE00C941F2E7C01D0
:101B50005B016A0180919C0201E010E08A3010F480
:101B60000AE010E0C1E0D0E0B501C701F601099537
:101B7000811104C021960C171D072CF4CDB7DEB7D8
:101B8000EAE00C943B2ECC9F9001CD9F300D300DA0
:101B9000112490E080E045E34A95F1F700000196BA
:101BA00082179307C1F7E0CF80916D02811110C0B9
:101BB0008091D80080618093D8008AE18A95F1F7FE
:101BC00000C08091D90080FF0AC081E080936D023F
:101BD00081E090916D02913009F080E0089582E0FB
:101BE00080936D020E948E0310925E03F1CF0E94DB
:101BF000D40D882359F0E0914803F09149033097C0
:101C000029F00190F081E02D0995089580E0089574
:101C10000F931F930E94D40D882329F00E94FC0487
:101C20001F910F9108950E94FC0400919D02109154
:101C30009E0220919F023091A002600F711F821FAF
:101C4000931FEECF0E94D40D882319F00E9408053F
:101C500008950E94080ECB010895CF93DF93C6E24A
:101C6000D2E060E0CE010E944F2F2196C11584E0A2
:101C7000D807B9F7DF91CF9108950F931F93CF93B2
:101C8000DF93142F022F843020F5623010F598E096
:101C9000899FE001112484E0689FB0011124C60FE0
:101CA000D71FCA5FDD4F82E090E0442311F090E03F
:101CB00080E0632F8C0F9D1F0E944F2F83E090E0E8
:101CC000112311F081E090E0602F8C0F9D1F0E9486
:101CD0004F2FDF91CF911F910F9108951F93CF93B5
:101CE000DF93122F8430E0F46A30D0F44630C0F431
:101CF000C42FD0E0CC0FDD1F9CE0699FC00DD11D2B
:101D0000112498E7899FC00DD11D1124632FCE01A6
:101D100086960E944F2F612FCE0187960E944F2FEB
:101D2000DF91CF911F910895B0E0A0E0EAE9FEE0D5
:101D30000C941D2E8AEEE82E85E0F82E0AE014E0C1
:101D4000C0E05801D0E015C0F401259134914D2D2B
:101D50006D2F8C2F0E946E0E82E0880E911CD39402
:101D600086E0D812F1CF8CE0A80EB11CDF5FDA302C
:101D700019F04501D12CE8CF6701D0E0F60125919B
:101D8000349141E06D2F8C2F0E943D0EF60132966A
:101D90002591349140E06D2F8C2F0E943D0E84E000
:101DA000C80ED11CD13071F488E0E80EF11CCF5F71
:101DB00008581F4FC43009F0C4CFCDB7DEB7ECE0F0
:101DC0000C94392ED1E0DACFCF93C82F6FEF811169
:101DD00062E282E290E00E944F2F6FEFC11163E058
:101DE00083E290E00E944F2F6FEFC11160E184E227
:101DF00090E00E944F2FCF91089580E00E94E40E62
:101E000060E085E290E00E944F2F0E94940E0E94B5
:101E10002D0E81E00E94E40E0895682F86E090E088
:101E20000E944F2F08958091450380FF08C08E7F48
:101E3000809345030E940D0F80E00E948E05089557
:101E40008091450380FD13C08160809345038130FC
:101E500019F489E080934503809145030E940D0F9A
:101E6000809145038695869586950E948E050895F6
:101E7000FF920F931F93CF93DF93F42E843070F56E
:101E8000623060F528E0829F8001112434E0639F76
:101E9000B0011124060F171F0A5F1D4F82E090E06A
:101EA000442311F090E080E0800F911F0E943B2FAF
:101EB000C82FD0E0DC2FCC2783E090E0FF2011F08A
:101EC00081E090E0800F911F0E943B2F9E01282B04
:101ED000C901CDB7DEB7E5E00C94402E90E080E07C
:101EE000F8CF0F931F93CF93DF93843030F56A3090
:101EF00020F5463010F5C42FD0E0CC0FDD1F2CE0CC
:101F0000629FC00DD11D112438E7839FC00DD11DE4
:101F10001124CE0186960E943B2F082F10E0102F2F
:101F20000027CE0187960E943B2F9801282BC901DC
:101F3000DF91CF911F910F91089590E080E0F8CF4D
:101F40007A3048F4663070F4843060F4462F672F9E
:101F50000E94710F08957D3F41F4623018F441E012
:101F6000843050F090E080E008957C3FD9F76230F3
:101F7000C8F78430B8F740E00E94380F0895CF9238
:101F8000DF92FF920F931F93CF93DF936C01009129
:101F9000AF0280916002082BC3E0D0E010E0FC2E7D
:101FA000C8010C2E02C0959587950A94E2F780FD32
:101FB0000CC02197A0F7F12C8F2DDF91CF911F91AD
:101FC0000F91FF90DF90CF900895B6018C2F0E9463
:101FD000A00F0E94F907019761F3EECFCF93DF9333
:101FE000EC010E94BF0FBE010E94A00F0E94F907E2
:101FF000DF91CF910895FC0183819481892B29F091
:102000008081918189238F3F51F480E00895843F3E
:10201000E1F717C0883EA8F0813FB9F712C0808170
:1020200091810E94EE0F92959F70963099F358F42B
:10203000925F9F70923048F7803F19F040F7883EDA
:1020400020F781E008959A5FF4CF82E290E00E9449
:102050003B2F823289F483E290E00E943B2F833051
:1020600059F484E290E00E943B2F91E0803109F026
:1020700090E0892F8170089580E0FCCFB0E0A0E06F
:10208000E4E4F0E10C94192EFC016280448081E0CC
:102090008483EAE0F3E07490E9E8F3E0E491C0912E
:1020A0004303C695C158D0E0CC0FDD1FCD2FDD27EF
:1020B000812C75E0972EAA24AA94B12C55245A9409
:1020C000E719EE2EF12C80916401881638F00E94F9
:1020D000AD0ACDB7DEB7E0E10C94352EC82CD12C7B
:1020E00082E0861568F09C9CF0019D9CF00D112407
:1020F000EC5FFC4F80914103808380914203818398
:10210000411023C09C9CF0019D9CF00D1124EC5FBC
:10211000FC4F1382128220916201C601820F911D31
:102120009C01220F331F280F391F20523D4F9C9CCA
:10213000F0019D9CF00D1124EC5FFC4F4281618108
:1021400080810E9465068394BECF9C9C80019D9CEB
:10215000100D11240C5F1C4FF80183818823F1F0CE
:1021600081508383859DC0011124648170E00E94A9
:10217000782EFB01FF27E65FFC4F8491E82FE719DB
:10218000E59DC0011124B7010E94782E8091430380
:10219000689FB0011124F8017283BDCF0E94082FFF
:1021A000B5010E948C2E8C179D070CF0B4CFF2E085
:1021B000F61598F40E94082FB5010E948C2EF801A4
:1021C00080830E94082F209142032695622F70E0A1
:1021D0000E948C2E280FF80121839C9CF0019D9C6D
:1021E000F00D1124EC5FFC4F128280914303893C77
:1021F00058F088EC9C9CF0019D9CF00D1124EC5F44
:10220000FC4F8483838387CF8431A0F784E1F2CFAE
:1022100060914003669570E04BE050E082E591E00C
:102220000E94182F892B19F481E08093DB020E9411
:10223000220E9093D5028093D4028091DC028460B8
:102240008093DC020895CF92DF92EF92FF926B01B0
:102250007C010E945606B701A60188E090E00E942A
:10226000612FFF90EF90DF90CF900895A3E0B0E052
:10227000ECE3F1E10C94202E082FD62EF42EC22E82
:102280009091400390FF3CC020914103281308C067
:1022900080914203861304C080914303841729F080
:1022A0008091DC0282608093DC02E92FE695AE2FFC
:1022B000B0E0A454BE4F8C918093DA029E7F92309E
:1022C00019F59E012F5F3F4F4F2D6D2D802F0E94DE
:1022D00065064B8169818A810E94040D0093410348
:1022E000D0924203F0924303CC2051F0609140031E
:1022F0007091410380914203909143030E94231106
:102300002396E9E00C943C2E823019F4F0904303BC
:10231000E5CF8630A1F1893091F18931F9F6E951A3
:102320006E2F6170B62EE695F0E0EB5FFC4F1491D6
:10233000E12C60916401E61618F00E94AD0ACECF40
:10234000E19EC001112470E00E94782E802FB11010
:1023500014C0860F20916201622F6E0D7727771FC0
:102360009B01220F331F260F371F20523D4F4F2D49
:102370006D2D0E946506E394DCCF861BEBCF022F08
:10238000ADCFE0E4F3E0438121E1421B08F440E0FB
:1023900021E0628181810E9436110895E0E4F3E03A
:1023A000438121E1420F08F44FEF21E062818181F6
:1023B0000E9436110895E0E4F3E0628121E1621B9E
:1023C00008F460E021E0438181810E943611089584
:1023D000E0E4F3E0628121E1620F08F46FEF21E0B5
:1023E000438181810E9436110895E0E4F3E0818108
:1023F00021E04381628188500E9436110895E0E413
:10240000F3E0818121E043816281885F0E9436117F
:10241000089580914403882319F0815080934403E8
:102420006091400370914103809142039091430376
:102430000E942311089580914403833018F48F5F24
:102440008093440360914003709141038091420363
:10245000909143030E94231108959091400390FFAF
:1024600031C0917081112FC0926090934003809190
:10247000DC0281608093DC02662351F060914003AE
:102480007091410380914203909143030E94231174
:1024900060914003669570E04BE050E082E591E08A
:1024A0000E94182F892BB1F00E944F0681E0809383
:1024B000D70220E0409143036091420380914103A1
:1024C0000E94361108958B3210F09465CECF880F9C
:1024D000982BCBCF0E940811E9CF809140038695BD
:1024E000815009F48AE261E00E942D1208958091E2
:1024F000400386958F5F8B3208F081E061E00E9497
:102500002D1208959091400390FF08C0969598175A
:1025100028F0961718F40E947712089561E00E943F
:102520002D120895E0E4F3E087E1808311828FEFBC
:10253000828380E883831482AAEDB2E012968C91A4
:102540001297836012968C9360817181828193814E
:102550000E942311089567EE7EEF90E080E00E94D4
:102560006D2F60E082E090E00E944F2F60E083E0FA
:1025700090E00E944F2F1092600260E074E184E0CE
:1025800090E00E946D2F60E086E090E00E944F2F67
:102590006FEF87E090E00E944F2F40E050E0BA01DB
:1025A00088E090E00E94612F60E08DE090E00E9462
:1025B0004F2F40E050E0BA0188E190E00E94612F87
:1025C00060E087E190E00E944F2F40E050E0BA01C8
:1025D0008CE190E00E94612F70E060E080E290E08A
:1025E0000E946D2F40E050E0BA0188E190E00E9427
:1025F000612F80E00E94E40E0E94FD0E40E050E05A
:10260000BA018FE090E00E94612F40E050E0BA01F3
:1026100083E190E00E94612F08959091B10292FBB6
:10262000222720F9281779F080FB92F99093B102C4
:102630006091B0027091B10284E090E00E946D2F31
:1026400082E00E94080A089590E080E00E94492FED
:10265000873E9E4F19F40E942510089580E008954A
:102660000E94241381110AC00E94AB12809145037D
:1026700084708961809345030E940D0F86E090E08D
:102680000E943B2F80934503803320F0877088623F
:102690008093450390914503892F817090FF04C07A
:1026A000892F8695869586950E948E050895A4E0CB
:1026B000B0E0EDE5F3E10C94262E409190025091AC
:1026C000910260919202709193022FB7F8948091D9
:1026D0004D0390914E03A0914F03B09150032FBF33
:1026E000841B950BA60BB70B11E084369105A10551
:1026F000B10570F10E94080E6E5F7F4F8F4F9F4FA4
:1027000069837A838B839C83809125019091260134
:1027100085589D4F4091240150E04530510510F0FF
:1027200044E050E0BE016F5F7F4F0E94322F84E093
:1027300090E00E94A12D182F882351F00E94FC04E4
:10274000609390027093910280939202909393020F
:10275000812F2496E3E00C94422E4F925F926F9269
:102760007F928F929F92AF92BF92EF92FF920F93C0
:102770001F93CF93DF937B01FB01408051806280E8
:1027800073809FB7F89480904D0390904E03A09073
:102790004F03B09050039FBF84189508A608B70850
:1027A000F4E68F169104A104B10418F4C1E04423A7
:1027B00029F1C82F880FDD0BFE0183E0EE0FFF1F0C
:1027C0008A95E1F7EC5FFE4F8181928185589D4F9C
:1027D000408150E00417150708F4A801B9010E94D0
:1027E000322FCE010E94A12DC82F882339F00E94DC
:1027F000FC04F70160837183828393838C2FDF91C4
:10280000CF911F910F91FF90EF90BF90AF909F904D
:102810008F907F906F905F904F900895A8E0B0E008
:10282000E4E1F4E10C94252E85E0E0E4F3E0DE0140
:10283000119601900D928A95E1F78091DA029091BC
:10284000DB02A091DC028E839F83A88741E088850C
:10285000811101C040E008E010E09E012F5F3F4F72
:1028600068E972E086E00E94AD1381111092DC02EB
:102870002896E4E00C94412EA1E0B0E0E2E4F4E11B
:102880000C94252E8091450380FF18C0869586956F
:102890008695898341E090918702981301C040E0BA
:1028A00001E010E09E012F5F3F4F64E972E085E098
:1028B0000E94AD132196E4E00C94412E80E0E9CF14
:1028C0004F925F927F928F929F92AF92BF92CF92E0
:1028D000DF92EF92FF920F931F93CF93DF930F92AC
:1028E000CDB7DEB7C62E4A015901482E880F5508CC
:1028F000C2010E94A12D782E882309F480C0C20154
:1029000033E0880F991F3A95E1F7FC01EC5FFE4F29
:10291000438150E04115510511F041E050E08C5FDA
:102920009E4FFC016481758165587D4FCE010196F3
:102930000E94322FF40140815181628173812FB74F
:10294000F89480914D0390914E03A0914F03B09164
:1029500050032FBF841B950BA60BB70B8436910534
:10296000A105B10540F4B701C8010E94780599811D
:10297000891709F444C00C2C000CDD08C6010E9424
:10298000A12D782E811113C0712C872D0F90DF910E
:10299000CF911F910F91FF90EF90DF90CF90BF905C
:1029A000AF909F908F907F905F904F900895C60159
:1029B00023E0880F991F2A95E1F7FC01EC5FFE4F99
:1029C000438150E0E416F50608F4A7018C5F9E4FA2
:1029D000FC016481758165587D4FC5010E94322FCD
:1029E000B701C8010E94780599818913CDCF0E9453
:1029F000FC04F4016083718382839383C6CFA701B3
:102A0000B801C5010E94322FC0CFA5E0B0E0EBE0D5
:102A1000F5E10C94212E6B0185E0E82EF12C0CE7FA
:102A200012E09E012F5F3F4F43E752E061E080E0FC
:102A30000E946014882349F095E0FE013196AEE6CD
:102A4000B2E001900D929A95E1F795E0EEE6F2E0A2
:102A5000D60101900D929A95E1F72596E8E00C9445
:102A60003D2EA2E1B0E0E7E3F5E10C941C2E8E01CF
:102A70000F5F1F4F8AE0D8011D928A95E9F782E423
:102A8000C82E81E0D82EF12CE12CAA24A394B12CDD
:102A900022E4822E21E0922EF60181916F018F3F78
:102AA00009F442C0F894E82FE295EF70F0E021A11C
:102AB0008F70A50102C0440F551F8A95E2F7CA0125
:102AC000922F982B91A392A18095892382A3789429
:102AD00000C0ECE3F1E0712C31E021912F3F09F4CB
:102AE0006BC0A22FA295AF70B0E090968C9190E051
:102AF0002F7002C0959587952A95E2F780FD5CC0FE
:102B0000832F782A330F8E169F0639F7F6013197F7
:102B100080818F3F11F00E94FD0650EA5A95F1F72F
:102B2000F801EE0DFF1D70828FEFE81AF80A95E0AC
:102B3000E916F10409F0B0CF4AE050E0B80183EAA9
:102B400092E00E94252F009741F02AE0F801A3EAC5
:102B5000B2E001900D922A95E1F70091AE02892B27
:102B600069F181E0809365020E94080590936402F8
:102B70008093630280916302909164020E94ED044D
:102B8000059700F110E006531D4F45E050E063EA61
:102B900072E0C8010E94252FD12C892B51F085E0CD
:102BA000E3EAF2E0D80101900D928A95E1F7DD2485
:102BB000D3941092650207C080E0A3CF8091650294
:102BC0008111D8CFD12C0E94D40DC82EE091AE0235
:102BD000DE011B967D01882309F484C085E01D92E7
:102BE0008A95E9F70E2F10E006531D4F80919C0245
:102BF0008A3008F044C045E055E1B701C8010E94A1
:102C0000A10D882309F45DC042E354E2B701C80175
:102C10000E94A10D882309F454C047E553E1B70190
:102C2000C8010E94A10D882309F44BC04CE354E174
:102C3000B701C8010E94A10D882309F442C04EE0EB
:102C400054E1B701C8010E94A10D8823D1F110926F
:102C50009C028091AD0290E045E050E0B7018653C0
:102C60009D4F0E94252F21E020936C02892BE1F4D7
:102C7000C12C8C2D8D296296EDE00C94382E80911C
:102C80006602909167020E94ED04843F914008F033
:102C9000B2CF80916C02882359F385E0F70111923D
:102CA0008A95E9F710926C02A091AD02B0E0A653AC
:102CB000BD4F85E0FE013B9601900D928A95E1F7AC
:102CC000D8CF80919C028F3F31F08F5F80939C0220
:102CD0008A3008F4BECF0E94080590936702809363
:102CE0006602D7CFF0E0E653FD4F85E0ACE7B2E0F7
:102CF00001900D928A95E1F765E070E08CE792E033
:102D00000E94780580937B024091C60250E060915A
:102D1000C50270E06F537D4FC7010E94322F8B8533
:102D20008093820261E070E0C7010E947805809381
:102D300081028090830290908402A0908502B090DE
:102D400086028091680290916902A0916A02B09116
:102D50006B0288169906AA06BB06D1F0809268021B
:102D600090926902A0926A02B0926B020E94D40D06
:102D700081110EC00E94FC04861A970AA80AB90A9B
:102D800080929D0290929E02A0929F02B092A00219
:102D9000809187020E948E0588E0E8E8F2E0DE017B
:102DA0001B9601900D928A95E1F780918802869595
:102DB000F0908902E0908A02B0908B0200918E021E
:102DC00010918F0210928F02112309F452CF10FF3D
:102DD0000BC09B8590FF1CC0909140039160909325
:102DE000400360E00E942D1211FF06C020E04B2D31
:102DF0006E2D8F2D0E94361112FF04C0002359F052
:102E00000E94081113FF35CF81E08093D70231CFA4
:102E10000E94920DE9CF0E944F06F4CF80915E028E
:102E200090915D02892B8093F80190915F02992324
:102E300091F0892B8093F80120E08AEF91E0FC016A
:102E40003191CF0131112F5FF2E080309F07B9F748
:102E500021110E941A0948E050E065E572E088EF10
:102E600091E00E94252F892BA9F088E0E8EFF1E09E
:102E7000A5E5B2E001900D928A95E1F7E091480353
:102E8000F0914903309731F00280F381E02D88EF13
:102E900091E00995089510925E02EAEFF1E086E074
:102EA000DF011D928A95E9F790E080E00E945305CA
:102EB00090E080E00E942E0510925D020E940E17A5
:102EC0000895AAE2B0E0E7E6F7E10C94262E80E64A
:102ED00093E02091F100DC012D93CD01B3E0883621
:102EE0009B07B9F780916103833009F472C0B8F48D
:102EF000813009F449C0823009F4B3C08091E80000
:102F000083FF8BC280916003909161039A3008F037
:102F100084C2E92FF0E0E851F04D0C94A02E8A30E5
:102F200009F48EC08B3009F471C0893039F7809173
:102F30006003813219F780916403909165030097D3
:102F400011F00297D9F68091E800877F8093E8001E
:102F50008091E80082FF38C09091F3008091F200E8
:102F6000029731F48091F100813011F0863021F424
:102F70008091F100809353038091E8008B778093D8
:102F8000E8000E94DE03BACF80916003813A09F025
:102F9000B5CF8091E800877F8093E800809164033B
:102FA00090916503892B61F468E084E593E070E01B
:102FB0000E948A048091E8008B778093E8009ECF7E
:102FC00060E090E080E0F3CF80915E038111C0CF9C
:102FD00095CF80916003813A09F090CF809164038E
:102FE00090916503892B09F089CF8091E800877F54
:102FF0008093E8008091E80080FFFCCF809165011C
:103000008093F1008091E8008E77B9CF80916003C2
:10301000813209F073CF8091640390916503892B0D
:1030200009F06CCF8091E800877F8093E8000E94D0
:10303000DE0380916203809365010E944B175ECF8F
:1030400080916003813209F059CF8091E800877F39
:103050008093E8000E94DE03809163038093520313
:103060004DCF80916003813A09F048CF8091E8000C
:10307000877F8093E8008091E80080FFFCCF8091FB
:103080005203BECF803899F0823809F0C6C18091D2
:1030900064038F70873008F0C0C18093E90080918D
:1030A000EB0085FB882780F91092E90006C080912B
:1030B0005C0390915D03911182609091E800977F8D
:1030C0009093E8008093F1001092F1008091E80065
:1030D0008E779FC1882309F48DC1823009F09DC18C
:1030E00080916203811190C1809164038F702FEFF2
:1030F000280F263008F091C18093E9002091EB0061
:1031000020FF82C1933031F48091EB008062809384
:10311000EB007AC19091EB0090619093EB0021E07D
:1031200030E001C0220F8A95EAF72093EA0010925E
:10313000EA008091EB008860EACF81116EC11091A6
:1031400062031F778091E3008078812B8093E300F6
:103150008091E800877F8093E8000E94DE038091E1
:10316000E80080FFFCCF8091E30080688093E3005B
:1031700082E0111183E080935E034FC1805882305A
:1031800008F04BC120916203309163032C3DE3E0D2
:103190003E07A1F583E08A838AE289834FB7F894DA
:1031A000DE01139620E03EE051E2E32FF0E0509381
:1031B0005700E49120FF03C0E295EF703F5FEF708E
:1031C0008E2F90E0EA30C0F0C7968D939D932F5FCD
:1031D000243159F74FBF8091E800877F8093E80042
:1031E0006AE270E0CE0101960E948A048091E800B4
:1031F0008B778093E80011C1C096E7CF809164037C
:1032000090916503432F55274330510509F44AC077
:1032100078F54130510509F47AC08BE590E0EAE099
:10322000F6E04230510509F0F8C02091E800277F10
:103230002093E8002091660330916703821793077B
:1032400008F49C0140E02115310509F065C04111E9
:1032500063C08091E80082FDC9CF80915E0388231E
:1032600029F2853019F28091E80083FFF2CFBECFBA
:103270004132510509F43CC04232510509F0CDC03C
:103280008330910508F0C9C0FC01EE0FFF1FE65125
:10329000FE4F0190F081E02D89519E4FDC018C9111
:1032A00090E01AC0332721303105D1F021153105C6
:1032B00061F02230310509F0B0C0E7E7F6E0E491B3
:1032C0008E2F90E0E7E7F6E007C0E3EAF6E0E4914E
:1032D0008E2F90E0E3EAF6E0009709F49EC0A5CFB8
:1032E000E3E9F6E0E4918E2F90E0E3E9F6E0F4CF35
:1032F0008330910508F091C0880F991FFC01E051BF
:10330000FE4F0190F081E02D89E090E08ECF82E1C8
:1033100090E0E5E6F6E089CF80915E03882309F42A
:1033200065CF853009F462CF8091E80083FD5ECFE0
:103330008091E80082FD8DCF8091E80080FF83CFEF
:103340009091F3008091F2002115310519F0883039
:10335000910550F041E0089709F040E08091E800C5
:103360008E778093E8006FCF44914093F1003196BF
:10337000215031090196E8CF803809F04EC0809184
:10338000E800877F8093E80080915F038093F100DD
:103390009DCE811142C0109162031230F0F58091F0
:1033A000E800877F8093E80010935F030E94DE03AC
:1033B000112311F084E005C08091E30087FDFACF6E
:1033C00081E080935E0342E061EC81E00E94FD03B6
:1033D00042E261EC84E00E94FD0342E261EC82E0A3
:1033E0000E94FD0342E260EC83E00E94FD038091B5
:1033F0005E0313C080916203813079F481E09330E1
:1034000009F080E080935D031092E9008091E8006C
:10341000877F8093E8000E94DE038091E80083FFAD
:103420000AC08091E800877F8093E8008091EB00DC
:1034300080628093EB00AA96E3E00C94422E0E94F7
:103440004B172FEF84E39CE0215080409040E1F740
:1034500000C0000088E19CE00FB6F894A895809326
:1034600060000FBE90936000FFCF882321F00E9480
:1034700020090E940E170895882339F090915E026A
:10348000982B90935E020E940E170895882391F165
:103490009CEF980F913A80F4EAEFF1E020E032E0FF
:1034A0009191891303C0DF0111971C922E173F07DA
:1034B000B9F70E940E17089590E2980F983050F4D3
:1034C000877091E001C0990F8A95EAF7892F0E94D1
:1034D0002009EFCF9BE5980F933028F490E080E02F
:1034E0000E9453050895885A8B3120F490E080E0C3
:1034F0000E942E050895CF93C82F8823B1F08CEF3A
:103500008C0F813A00F5EAEFF1E080E092E0DF0114
:103510002D91C21761F08A179B07D1F76C2F88EFA6
:1035200091E00E9414050E940E17CF9108952191F9
:10353000C21303C0DF0111971C928E179F07B9F7C2
:103540000E940E17EBCF80E28C0F883068F4C770B2
:1035500021E030E001C0220FCA95EAF780915E02B7
:10356000822B80935E02DFCFEBE5EC0FE33040F47B
:10357000F0E0EF58FE4F808190E00E945305D5CFD8
:10358000C85ACB3190F6EC2FF0E0EE0FFF1FEC584D
:10359000FE4F808191810E942E05C7CF1F93CF934C
:1035A000DF93182FD0E0C0E0893311F4C0E5D0E0FC
:1035B000812F0E947B1A209739F4812F0E94461A8E
:1035C000DF91CF911F9108958FE99FE00197F1F767
:1035D00000C000002197EFCF0F931F93CF93DF938D
:1035E000C62FD42F022FFC0182818823A9F060937B
:1035F0006A030E9408059093690380936803C7706B
:1036000081E001C0880FCA95EAF70E943C1ADF9159
:10361000CF911F910F91089580916A03681332C072
:1036200080916803909169030E94ED04883C9105A4
:1036300048F510E21D0FCD17B9F080E28C0F8830ED
:1036400040F4C77081E001C0880FCA95EAF70E9474
:10365000351A183048F481E09D2F977001C0880F0B
:103660009A95EAF70E943C1A802F0E94CE1A1830D1
:1036700070F6D77081E001C0880FDA95EAF70E94F2
:10368000351AC5CFC77081E001C0880FCA95EAF727
:10369000F6CFA8E0B0E0EFE4FBE10C94192E8C012A
:1036A000DC0113968D919C911497892B39F08C91A4
:1036B00011969C9189238F3F09F0D6C52896E0E1A9
:1036C0000C94352E0E94BF0FF82E682F89819A81A5
:1036D0000E94BE0969817A818F2D0E94A00F7C0112
:1036E000F8018281882309F430C6970137572038C2
:1036F000310508F035C1FFE0FE1508F489C08FEFF1
:1037000093E00E943B2F811183C066E2A62E62E007
:10371000B62EE11047C0FE01339686E0DF011D9210
:103720008A95E9F75AE0452E7501BFEFEB1AFB0ABF
:10373000C5010E943B2F89831A82882309F468C03F
:10374000813009F078C06501E2E0CE0ED11CC701DE
:103750000E943B2F8A83882309F45AC09FEF980F59
:10376000933070F5F3E0AF0EB11CC6010E943B2F01
:103770008B83882309F44CC01C82DE0111967D01E5
:10378000F7012081222381F2213009F094C0918138
:103790008281913009F051C0F2E0EF0EF11C0E94DD
:1037A000CE1A52C0A11424E0B20691F1C5010E94C4
:1037B0003B2F811101C0EA943FEFA31AB30AA9CFAE
:1037C00056018430D1F642E0E42EF12C56012FEF61
:1037D000A21AB20AC6010E943B2FE1E0F0E0EC0F12
:1037E000FD1FEE0DFF1D8083882391F08C3741F47F
:1037F000E2E0F0E0EC0FFD1FEE0DFF1D1082BDCFEB
:103800003FEFE31AF30A650187E0E816F104F1F6E9
:1038100080915402877009F451CFD80112968C918F
:10382000882309F44BCF8091B10282FF47CF82E019
:103830000E94080A43CF5701A0CF923049F422E0FA
:10384000E20EF11C0E947B1AEFEFEE1AFE0A98CFEF
:10385000933031F432E0E30EF11C0E94461AF4CFAB
:10386000943021F08FEFE81AF80AEECF92E0E90EDB
:10387000F11C30E020E0B7016F5F7F4FD701119658
:103880004C918053990B8A30910550F021503109A9
:10389000D8F2EFE9FFE03197F1F700C00000F6CF72
:1038A000429EF001439EF00D11249C012E0F3F1FFC
:1038B000842F7B01E0CFE22FF0E0E059FE4F5490DF
:1038C000822F86958695869590E0FC01E05AFE4F02
:1038D00064902770712C022E02C0759467940A942C
:1038E000E2F731E063227724FC01E05BFE4F849035
:1038F000912C022E02C0959487940A94E2F7A1E0DD
:103900008A229924FC01E05CFE4FC490D12C02C0B5
:10391000D594C7942A95E2F7B1E0CB22DD24611457
:10392000710419F081EE0E947B1A8114910419F040
:1039300086EE0E947B1A852D0E94CE1A8114910476
:1039400019F086EE0E94461A6114710419F081EE96
:103950000E94461AC114D10409F476CF8CE21FCF1D
:10396000F2E0EF16F8E7FF0609F489C068F5E11404
:1039700038E7F30609F449C091E0E91698E7F9063B
:1039800009F44BC0F701E851FC47E730F10508F4B2
:10399000E3C410926A03970130572332310508F0CF
:1039A00076C484E090E00E94492F9093B102809306
:1039B000B002F701E150F047E232F10508F08AC0A9
:1039C000EE50F04D0C94A02EA4E0EA16A8E7FA06FB
:1039D00009F441C020F1E5E0EE16E8E7FE0691F6B5
:1039E00090914503892F8695869586958F5F8F7177
:1039F0009770863008F04DC0880F880F880F892B8C
:103A0000809345038091450312C085E00E943206F1
:103A1000809145030E940D0FFBCE80E0F7CF80918F
:103A20004503982F987F79F0885080934503887FCD
:103A300091E009F490E08091450390FB80F9809338
:103A400045030E940D0F80914503869586958695C6
:103A50000E948E05DDCE80914503982F9695969510
:103A60009695953040F49F5F990F990F990F877045
:103A7000892B80934503809145038160E0CF80913D
:103A8000450380FF03C00E94130FC2CE0E94200F87
:103A9000BFCE90934503B6CF26E241EE61EEC8015A
:103AA0000E94EC1AB5CE27E245EE65EEF8CF26E28D
:103AB00041EE60EEF4CF27E245EE64EEF0CF26E271
:103AC00041EE62EEECCF27E245EE66EEE8CF28E26B
:103AD00041E0EBCF8091B00281608093B00295C04D
:103AE0008091B10288608093B1028FC08091B00252
:103AF0008260F3CF8091B0028460EFCF8091B002FA
:103B00008860EBCF8091B1028160EDCF8091B102EE
:103B10008260E9CF8091B0028061DFCF8091B002F6
:103B20008062DBCF8091B0028064D7CF0E944B17B8
:103B30008091B0028068D1CF8091B0028C60CDCFEF
:103B40008091B1028360CFCF8091B0028E7FC5CFCC
:103B50008091B102877FC7CF8091B0028D7FBDCFAA
:103B60008091B0028B7FB9CF8091B002877FB5CFB3
:103B70008091B1028E7FB7CF8091B1028D7FB3CF9C
:103B80008091B0028F7EA9CF8091B0028F7DA5CFAA
:103B90008091B0028F7BA1CF0E944B178091B00221
:103BA0008F779BCF8091B002837F97CF8091B102B6
:103BB0008C7F99CF8091B00282FB992790F921E008
:103BC000922790FB82F990FB83F987CF8091B10215
:103BD000982F909591708E7F892B90FB81F983CFE0
:103BE0009091B002892F8F7B96FF806476CF0E94E0
:103BF0004B179091B002892F97FB87F980586DCFB2
:103C000061E08EE090E00E944F2F6091B0027091D1
:103C1000B10284E090E00E946D2F0E944B17F8CD16
:103C200060E0EFCF9091B002892F8F7E94FF80618A
:103C300054CF9091B002892F8E7F90FF81604DCF3D
:103C40009091B102892F877F93FF88604CCF85E3E5
:103C50003FC38091400380FF17C08E7F8093400355
:103C6000609140037091410380914203909143031E
:103C70000E9423110E944F068091DC028160809394
:103C8000DC020E94AD0AC4CD81608093400361E0F4
:103C900086950E942D12BCCD4DE652E167E772E198
:103CA0000E944906B5CD47E752E16DE672E1F8CFD3
:103CB00045EF51E16FEF71E1F3CF4FEF51E165EF68
:103CC00071E1EECF4BED51E168EE71E1E9CF48EEE5
:103CD00051E16BED71E1E4CF41EC51E16EEC71E14A
:103CE000DFCF4EEC51E161EC71E1DACF49E052E116
:103CF0006BE172E1D5CF4BE152E169E072E1D0CFE7
:103D000061E081E0C6CF65E082E00E94821280CD52
:103D100068E086E0FACF6EE089E0F7CF64E18FE0FB
:103D2000F4CF67E185E1F1CF61E088E1B2CF62E2F3
:103D300089E1EBCF61E083E2ACCF6AE285E2E5CFD7
:103D4000F7E7EF16FCE7FF0609F462C028E7E21682
:103D50002CE7F20609F464C0F8018281E080F1806A
:103D6000882309F491C0C7010E94BF0FD82E682F85
:103D7000C7010E94BE09B7018D2D0E94A00F0E94AD
:103D8000F9077C01882ED8011296DC9012971596BF
:103D9000BC90B2943FE0B322809154028770F1F05E
:103DA000AD2CDD20E1F08F2D807F803451F080E25A
:103DB0008E0D883098F0B11004C08F2D807E803237
:103DC00069F08091B10282FF09C082E00E94080A76
:103DD000809154028770AA24A3948111A12C9F2C56
:103DE00092942FE09222BBE0B91508F4BCC0E92DF3
:103DF000F0E0EC5EFF4C0C94A02E882349F081E0AB
:103E00000E94240A43E062E081E00E94DB0900CDC9
:103E100081E00E94FB09F6CF882311F082E0F0CF09
:103E200082E0F7CFBBE5EB16BCE7FB0659F1ECE50A
:103E3000EE16ECE7FE06E1F0FAE5EF16FCE7FF060A
:103E400009F08ACF81E01BC00E944B172FEF34E3AB
:103E50008CE0215030408040E1F700C000000E941B
:103E6000890A6FEF7FEF90E080E00E946D2F5DC2C6
:103E70008091B10282FB882780F991E089270E9416
:103E80000D136ACF80E0FBCFC7010E947809D82EBE
:103E900072CFEF2DEF70CE2E8F2D807F19F0C29450
:103EA00090EFC922DD20B9F0CC2069F080E28E0DC0
:103EB000883010F0811009C080915E02C82AC0923B
:103EC0005E020E940E178E2D4CC080915D02C82AA2
:103ED000C0925D02F6CF8E2D0E94461ACC2009F4C6
:103EE00042C080E28E0D883010F0811004C08C2D0D
:103EF0000E94200906C0C09480915D02C822C09231
:103F00005D020E940E172FC0FF2DFF70CF2E8F2D48
:103F1000807F803219F0C29480EFC822882089F017
:103F200021E0821609F46CC0DD2009F476C0BB20C4
:103F300009F46CC0F801858180FFC5CF8F7085833F
:103F400065C02091B10222FD34C0DD2061F1CC209A
:103F500039F080915E02C82AC0925E020E940E175C
:103F600080E00E947B1AA92DA850BB0B149710F477
:103F70000E94F70DAA2009F4A1CB8091540280FD84
:103F80009DCBF80112828595859585950E94240A1E
:103F9000C8010E94491B809154028595859585959D
:103FA0000E94FB098BCB80E00E94461ACC20D9F2FC
:103FB0009ECFDD2099F090915F028C2D892BB1105E
:103FC00003C00E943C1ACFCF31E0B312FACF22FFD8
:103FD000CACF891741F280935F02C5CFB11006C0E6
:103FE0000E941A098C2D0E94351ABDCF81E0B816A7
:103FF00009F4B9CF8C2D0E94351A0E941A09B3CF4B
:10400000DD2031F095E09B1508F4ADCF8C2DD9CF94
:10401000A4E0AB1508F4A7CFE5CFBB2019F3F9E373
:104020008F1209C02FEF37EE83E0215030408040DF
:10403000E1F700C000008E2D0E94461A94CF8F2D0C
:1040400086958695837061F0813009F08CCFC70129
:104050009370D11002C080E090E00E942E0583CFC3
:10406000C7019370D11002C080E090E00E94530518
:104070007ACF8F2D837091F5D11075CF4E2D42954B
:1040800046954770440F440F8E2D8F70042E01C04B
:10409000880F0A94EAF72E2D2071E4FE07C02FE066
:1040A00030E001C0220F4A95EAF720953F2D369562
:1040B00036953370323069F050F4409160023130FF
:1040C00029F0822B84230E94300A4DCF842B822B2F
:1040D000FACF282B809160028227F5CF8695DD20CC
:1040E00011F08F2D8170882309F43DCF4E2D42951C
:1040F00046954770440F440F8E2D8F70042E01C0DB
:10410000880F0A94EAF72E2D2071E4FE07C02FE0F5
:1041100030E001C0220F4A95EAF720953F2D3695F1
:1041200036953370323069F050F44091AF0231303F
:1041300029F0822B84230E94D80915CF842B822B4F
:10414000FACF282B8091AF028227F5CF9F2D9F7049
:10415000F92EDD2029F0892F0E94240A8E2D31CFDF
:104160008E2D0E94351A8F2D0E94FB09FCCE8E2DBC
:10417000A2EF8A16B1F1A81570F0B0EF8B16D1F04E
:10418000E1EF8E1691F0DD2009F45EC0B1109BCEF8
:104190008F2D8F712AC0F3EF8F1651F124EF821209
:1041A000F2CF8091B10282FD2FC08F2D8F71DD2063
:1041B000D9F21BC0DD2081F034E03B1508F4D3CEEA
:1041C0002F2D2F7181E090E001C0880F2A95EAF72A
:1041D0009091AF028927AFCF85E08B1508F4C3CE4D
:1041E000EFCF8F2D8F71D110BFCF0E94240ABBCE8D
:1041F00080E0DD2009F49FCF9F2D9F7181E001C0F9
:10420000880F9A95EAF797CFDD2099F09F2D9F713F
:10421000F92E892F0E94240A8091B10282FF07C0E3
:10422000A8E0FA9EC00111248360809354028F2D70
:10423000DCCF81E00E94080AB1E0BB1508F093CE04
:1042400082E00E94080A8FCEBB2059F0893309F022
:10425000F2CEEFEFF7EE23E0E150F0402040E1F73F
:10426000E8CE8F2D8F7180CF85E0F801DE011196A9
:1042700001900D928A95E1F7D80112962C918981CF
:104280009A8121111FCA0E947809F82E23CAB6E12B
:10429000EB16BCE7FB0651F580915E028A7A91E04D
:1042A00009F490E09093000269E2811165E388EFE0
:1042B00091E00E9414050E940E17AACAE6E1EE16CC
:1042C000ECE7FE06A1F5809100028111C0CC89E2E5
:1042D000EAEFF1E020E032E09191891303C0DF01C1
:1042E00011971C922E173F07B9F7E5CFF7E7EF16A6
:1042F000FCE7FF0609F481CD28E7E2162CE7F20679
:1043000009F48ACD33E0E3163CE7F30609F4A9CDBE
:1043100008F088CDE1149CE7F90609F495CDA1E0F9
:10432000EA16ACE7FA0609F017CD0E941F1A809131
:104330005E028272F701E052F847E531F10508F0BC
:10434000FFCCE05EFF4C0C94A02EF701E851FC4737
:10435000E730F10508F0B2CFEB5CFF4C0C94A02ED7
:104360001F93CF93DF9380912102807F09F04BC090
:1043700080911E02882309F446C080915302C091A7
:10438000220240911C0250911D0260911F02709107
:104390002002D42FD52316E0C817A9F190E06115AB
:1043A0007105A9F1DF3F99F1189FF001199FF00DF8
:1043B0001124DF01AD5DBD4F11962C91119725138E
:1043C00026C02C91241323C012962C9112972111F0
:1043D0001EC013962D913C91261B370B283C3105AE
:1043E000B0F4809121028F70806180932102E85D9A
:1043F000FD4F80818F70806180838CE192E00E940C
:10440000491B0E944709DF91CF911F9108950196A2
:104410008770C2CFA1E1B0E0E0E1F2E20C941D2E82
:104420008C0185E0F801DE011D9601900D928A95C0
:10443000E1F7F801E2808CE1882E82E0982E40912D
:104440001F02509120024115510509F430C190918D
:104450001C0220911D02892F82238F3F09F427C15E
:10446000D080C180A380B480F0901E02B501641B8F
:10447000750BFF2009F4E7C080912102382F307FAF
:10448000683C710508F0ABC0311178C0FE2C2C11CE
:1044900014C09D1112C0E11010C08F708061809314
:1044A0002102C4010E94491B80912102F8018583E9
:1044B0008F2D6196ECE00C94392EA114B104C9F152
:1044C0008D2D8C218F3FA9F181E08E2580FF05C0C5
:1044D0004E2D6C2D8D2D0E942709A114B10459F188
:1044E0008D2D8C218F3F39F181E08E25F82FF170D1
:1044F000BF2E80FF39C04E2D6C2D8D2D0E942709B7
:10450000A82E811131C0DD86CE868D859E850E94C4
:10451000EE0F292F22952F70243078F49F702230CF
:10452000A8F09923B9F0F8019581907F99F4FA2CBD
:10453000BFCF80E0CBCF80E0D9CF2A5F2F70223071
:1045400068F0C8010E94491BAB2CF1CF992311F0F0
:10455000882369F3805E883050F3F3CF803F38F3CF
:10456000815F833070F7E3CFEE2009F4A1CF809113
:104570002102816080932102F12C9ACF2C1105C079
:104580009D1103C0EE2009F477C0C8010E94FB0F03
:10459000882309F1EE20F9F080912102803270F039
:1045A00020911C0230911D0238872F831986BB860B
:1045B000AA868C87CE0107960E94491B86E0F801E7
:1045C000ACE1B2E001900D928A95E1F70E94B02132
:1045D000FF24F3946DCFC8010E94491BF9CF31111C
:1045E0000AC08CE192E00E94491B86E0F40111921E
:1045F0008A95E9F7C1CF2C110EC09D110CC0E110B6
:104600000AC08583C8010E94491B86E0F40111920B
:104610008A95E9F74DCFC8010E94FB0F8823D9F294
:10462000EE20C9F280912102803240F220911C02DA
:1046300030911D023A8329831B82BD82AC828E8316
:10464000CE010196B9CF683C7105F8F6FE2CEE203C
:1046500011F22C111EC09D111CC08091210280FD01
:104660000FC0982F907F61F08583903F31F0982F95
:10467000907F905F8F70892B8583C8010E94491BB2
:1046800086E0F801ACE1B2E001900D928A95E1F785
:104690000FCFC8010E94FB0F811190CF80912102A2
:1046A000816080932102C8010E94491B01CFEE2046
:1046B00009F491CFC8010E94FB0FF82E882309F45A
:1046C0008ACF86E0F801ACE1B2E001900D928A95C4
:1046D000E1F780911C0290911D020E94EE0F0E9452
:1046E000B021E6CEA7E1B0E0E8E7F3E20C94262E95
:1046F0004B8B5C8B6D8B7E8B8F8B611110925D026F
:104700001A8A198A85E0FE017396DE011D960190D2
:104710000D928A95E1F786E0FE013D96DE0117963F
:1047200001900D928A95E1F7CE0107960E940A2228
:10473000882359F016E08091530290912202891348
:1047400043C06796E3E00C94422E86E0FE01379664
:10475000DE01119601900D928A95E1F78A859B857D
:10476000892B41F38F81988589238F3F19F32091FD
:10477000220230E0C90101968770992740915302C7
:104780004817190671F40E944B17109222021092DA
:10479000530286E0ECE1F2E0DF011D928A95E9F731
:1047A000C9CF96E0929FD001939FB00D1124AD5DCB
:1047B000BD4FFE01319601900D929A95E1F78093DD
:1047C00022020E944709B6CF819FC00111248D5D4E
:1047D0009D4F0E940A22882309F4B3CF809153028F
:1047E00090E001968770992780935302A4CFAAE0A6
:1047F000B0E0EDEFF3E20C94252E182F062F662380
:1048000039F10E9408051E832DEF2F8321E02887B0
:1048100081609A8789874E815F81688579858A85DD
:104820000E9472230023C9F00E94080519832DEF0E
:104830002A831B8281609D838C8349815A816B818D
:104840007C818D810E9472232A96E4E00C94412E93
:104850000E9408051E832CEFD8CF0E9408051983FB
:104860002CEFE6CFA1E0B0E0E8E3F4E20C94202ED8
:10487000EE24E394F12C02E812E09E012F5F3F4FFB
:1048800047E752E063E082E00E946014C82E88236C
:1048900039F100E080E01DC0D090A202D00E2D2D95
:1048A00030E0A9014F535D4F7A01E1E0F0E0EC0FF9
:1048B000FD1FE00FF11D1081FA019081191BB12E2F
:1048C0001B149CF0912F17FD90E0191B111118C0BB
:1048D0000F5F9091A1020917F8F281110E94170948
:1048E0008C2D2196E9E00C943C2EBA94F70180813E
:1048F0008F5F808360E08D2D0E94F7238C2DE0CFA9
:104900001F5FF70180818150808361E08D2D0E94BF
:10491000F7238C2DDBCFA5E0B0E0E1E9F4E20C94C5
:10492000252E0E9408058C018091610290916202FF
:1049300080179107A1F08FEF89838A831B820E94E1
:1049400008058160782F9D838C8349815A816B8112
:104950008D810E947223109362020093610225965A
:10496000E4E00C94412E1F920F920FB60F92112487
:104970002F933F934F935F936F937F938F939F9367
:10498000AF93BF93CF93DF93EF93FF93D091E90061
:10499000DF708091EC00C82FC17080FDC0E81092DC
:1049A000E9008091F000877F8093F00078940E9466
:1049B00061171092E9008091F00088608093F00008
:1049C000CD2BCF70C093E900FF91EF91DF91CF9194
:1049D000BF91AF919F918F917F916F915F914F9117
:1049E0003F912F910F900FBE0F901F9018951F921F
:1049F0000F920FB60F9211242F933F934F935F9313
:104A00006F937F938F939F93AF93BF93EF93FF9396
:104A10008091E10082FF09C08091E20082FF05C021
:104A20008091E1008B7F8093E1008091DA0080FF2C
:104A300024C08091D80080FF20C08091DA008E7F52
:104A40008093DA008091D90080FF9DC080E189BD0C
:104A500082E189BD09B400FEFDCF81E080935E0351
:104A600080915103811109C00E948E030E942F047E
:104A70008091E20084608093E2008091E10080FFF9
:104A800017C08091E20080FF13C08091E2008E7F0A
:104A90008093E2008091E20080618093E200809147
:104AA000D80080628093D80019BC85E080935E03B3
:104AB0008091E10084FF2BC08091E20084FF27C039
:104AC00080E189BD82E189BD89B5982F917080FF11
:104AD000FBCF8091D8008F7D8093D8008091E1003A
:104AE0008F7E8093E1008091E2008F7E8093E200D0
:104AF0008091E20081608093E20080915F038823CF
:104B000009F447C084E080935E0380915E03809146
:104B1000E10083FF27C08091E20083FF23C08091E2
:104B2000E100877F8093E10082E080935E03109232
:104B30005F038091E1008E7F8093E1008091E2002D
:104B40008E7F8093E2008091E20080618093E2009A
:104B500042E060E080E00E94FD038091F000886008
:104B60008093F000FF91EF91BF91AF919F918F9152
:104B70007F916F915F914F913F912F910F900FBE59
:104B80000F901F90189519BC10925E03109251035C
:104B900074CF8091E30087FD93E090935E03B5CFDF
:104BA00078941F921FB61F9211248F939F93AF93F7
:104BB000BF9380914D0390914E03A0914F03B0910C
:104BC00050030196A11DB11D80934D0390934E0398
:104BD000A0934F03B0935003BF91AF919F918F91DA
:104BE0001F901FBE1F9018951F921FB61F92112471
:104BF0008F939F93AF93BF9380914C03811113C008
:104C000080914D0390914E03A0914F03B0915003BA
:104C10004196A11DB11D80934D0390934E03A09327
:104C20004F03B0935003BF91AF919F918F911F900D
:104C30001FBE1F901895CDB7DEB7A5970FB6F89495
:104C4000DEBF0FBECDBF85B7806885BF85B78068E2
:104C500085BF84B7877F84BF0FB6F894A8958091ED
:104C60006000886180936000109260000FBE80E851
:104C700090E00FB6F89480936100909361000FBEAE
:104C80008BEF96E09093F7018093F6010E948E03DC
:104C90000E942F048091E20084608093E200789467
:104CA00080915E038823A1F01091E9001F7090911C
:104CB000EC00892F817090FD80E8182B1092E9009C
:104CC0008091E80083FD0E9461171F701093E90036
:104CD00082E084BD93E095BD9AEF97BD80936E000E
:104CE00010929D0210929E0210929F021092A002BA
:104CF0000E942510811102C00E94FD0E55985D98FA
:104D00008FE891E00197F1F700C0000089B185FBC1
:104D1000882780F98093470180914701882309F40F
:104D200061C01092600186E0809361010E94D40D01
:104D300081110E94B52C9091470181E098279093B2
:104D4000C502A82FA91BA093A202909147018093AE
:104D5000C602909147018093A10280914701811181
:104D600006C087EF8093510186EF80935001209118
:104D70005101E22FE295EF70F0E061A12F7081E028
:104D800090E0AC0101C0440F2A95EAF7342F30952A
:104D9000362331A322A1242B22A320915001E22FFC
:104DA000E295EF70F0E031A12F7001C0880F2A95D5
:104DB000EAF7982F9095932391A392A1892B82A330
:104DC0008FE891E00197F1F700C000001091C60252
:104DD00067EC72E041E551E080E5E82E81E0F82ED5
:104DE000FB012CC086E0809360019ECFDA012D91FB
:104DF000AD01822F82958F7090E0DC0190968C91AE
:104E000090E02F7002C0959587952A95E2F7817002
:104E1000D7019D917D01292F22952F7030E0D90176
:104E200090962C9130E09F7002C0359527959A9509
:104E3000E2F790E020FD92E0892B81938E2F861B74
:104E40008117A0F28091470181112CC085E0E6E630
:104E5000F1E0DE01919601900D928A95E1F789A12A
:104E6000809342018AA1809343018BA180934401E6
:104E70008CA1809345018DA18093460186E0EBE6ED
:104E8000F1E0DE01119601900D928A95E1F7FE01A5
:104E90003196ACE3B1E0CE01079621912D938E17A8
:104EA0009F07D9F78091470195E0811190E0909399
:104EB000AE0285E0891B8093AD0202E411E047E475
:104EC000E42E41E0F42EF80181918F018F3F11F023
:104ED0000E94FD06E016F106B1F70CE311E0D801DF
:104EE0008D918D018F3F11F00E94FD06B1E00234DB
:104EF0001B07A9F78AE0EAECF2E0DF01282F1D92F8
:104F00002A95E9F7E3EAF2E0DF011D928A95E9F7D5
:104F10000E942413811102C00E94AB1282E090E033
:104F20000E943B2F8093B30284E090E00E94492FBF
:104F30009093B1028093B0020E943115BFEFE6E773
:104F4000F1E0B150E040F040E1F700C000000E9405
:104F500031158091CA0280FF08C06FEF7FEF90E0AB
:104F600080E00E946D2F0E94890A83E090E00E94F9
:104F70003B2F0E94300A259A2D9882E8809380006A
:104F800089E1809381008FEF9FEF9093870080935A
:104F900086000E9430130E9430138091B20281116A
:104FA00038C00E942413811104C00E94AB120E94D9
:104FB000921288E090E00E94432F60934003709328
:104FC000410380934203909343038091DC0283600A
:104FD0008093DC026E7F71F40E94921288E090E070
:104FE0000E94432F609340037093410380934203D8
:104FF000909343030E9456060E944F0680914003FF
:1050000080FF04C060E086950E942D1281E08093AD
:10501000B2020E94D40D811102C00E94B82C88E413
:1050200091E0909349038093480398E1692E712C95
:1050300024EDC22E22E0D22E34E0A32EB12C80919A
:105040005E0300E112E1853009F482C00E9431154F
:1050500004EB12E08AECE82E82E0F82ED701F8018A
:1050600091918D9142E0EE3BF40709F47DC09817D1
:10507000B9F30E94D40D282E912CD7018D907D017B
:10508000F80131908F01381429F13824512C44242F
:105090004394842D8321B1F02220A1F059A29AA239
:1050A00091E0842D882109F490E09BA30E940805DB
:1050B0008160782F9DA38CA349A15AA16BA18DA1DA
:1050C0000E9472235394440CF6E05F12E2CFF80181
:1050D0003197808293942AE09212CFCF0E94FC04F1
:1050E00047C080915E03843029F180E00E948E05E4
:1050F00010924C0320E40FB6F894A89560926000DB
:105100000FBE2093600083B7817F846083BF83B725
:10511000816083BF7894889583B78E7F83BF0FB6F5
:10512000F894A89580916000886180936000109247
:1051300060000FBE80915D03882351F00E943115FD
:10514000EAECF2E08191811199C3CE16DF06D1F726
:1051500080915E03853009F4C4CF0E944B170E94F2
:1051600030130E94F70D72CF981383CF0E948B24C7
:105170000E94D40D8091DB02882309F464C08091E1
:10518000DA02E0914003E695E81BE093D602823014
:1051900009F09DC0F0E0EF5FFD4FE4910E2F10E0AD
:1051A000BEE7EB2EBDE0FB2E8091D702882361F095
:1051B0001092D7020E94220E9093D5028093D402BF
:1051C0001092D9021092D8020E94220EE091D402CD
:1051D000F091D5029C012E1B3F0B2F3F3F4798F5C6
:1051E0002091C0022223B1F01092C0022091BE0291
:1051F0003091BF02821B930B8F3F9F4758F4205D75
:105200003A483093BF022093BE028091DC0288604E
:105210008093DC028090D8029090D902E00FF11FB9
:10522000F093D502E093D40284ED92E0F701099562
:105230008091D8029091D902892B29F4892819F0FC
:1052400081E08093C002E12C912C8091C602E81687
:1052500008F4A9C091100E9417090E94F70D9091BF
:10526000C902891721F08093C9020E94FC04809131
:105270005E03843009F0E3CE83E08093E9008091FF
:10528000E80082FFDCCE8091E80090E085FF0CC052
:105290000E94AD0390E2E92EF12C8E010F5F1F4FAB
:1052A000882309F409C191E08091E8008B7780930D
:1052B000E800992309F4C3CE8981EFEFE80FE531C7
:1052C00008F013C1F0E0E45CFF4C0C94A02E863093
:1052D00059F4F0E0E250FE4FE4910E2F10E0AEE6FC
:1052E000EA2EADE0FA2E60CF893061F4E695F0E069
:1052F000E550FE4FE4910E2F10E0F7ECEF2EFCE0AE
:10530000FF2E52CF8F3061F4E695F0E0E850FE4F6B
:10531000E4910E2F10E0ECE3EE2EECE0FE2E44CFF5
:10532000853159F4F0E0EB50FE4FE4910E2F10E080
:1053300077EBE72E7BE0F72E37CF08E210E045E36E
:10534000E42E4BE0F42E883109F42ECF833249F459
:10535000E3EFF1E0059114916DE1E62E6DE0F62E9C
:1053600023CF04EF11E038EFE32E3AE0F32E84323E
:1053700009F41ACF00ED17E028EEE22E24E0F22E19
:10538000853209F011CF8E2F63E00E945E2EE92F47
:10539000F0E0E051FE4FE4910E2F10E05EE3E52EC9
:1053A00050E1F52E01CF0E2D10E0F801EF5AFE4F1F
:1053B0008081E82FE295EF70F0E0E0A1F0E08F70DF
:1053C00002C0F595E7958A95E2F7E170D801A05BF8
:1053D000BE4F2C91A22FA295AF70B0E090968C9109
:1053E00090E02F7002C0959587952A95E2F780FD91
:1053F00051C080E08E2BD801A953BD4FEC919E2F58
:105400009370891709F444C0EE0FEE0FE82BEC936C
:10541000F090C502FE0CEF70F0E0E455FE4F0D5326
:105420001D4F8081D8019C91890F8C93812C8430F1
:1054300084F0EF2DF0E0EF53FD4F80818F5F80838C
:105440000E94D40D882E882339F160E08F2D0E94B0
:10545000F723F80180818D3F84F4EF2DF0E0EF53C6
:10546000FD4F8081815080830E94D40D882E882337
:10547000B1F061E08F2D0E94F723D8018C91082EA6
:10548000000C990BB5010E948C2EF801808398289E
:10549000E394DBCE82E0AECF88248394DACF8824F5
:1054A0008394EBCF8091F100D8018D938D01B1E011
:1054B000EB1AF10809F4F7CE8091E80085FDF2CFF0
:1054C0008091E8008B778093E8000E94AD038823E9
:1054D00099F3E9CE1A828CE08B831BC08A818230DB
:1054E00009F4E2C128F4813061F08FEF898311C0A3
:1054F0008330C1F08430C9F71B821C821D821E825A
:1055000008C00E94FC040E94A62E6B837C838D83BE
:105510009E8340E250E0BE016F5F7F4F82E00E94B9
:10552000330A8DCD2B81822F90E0FE013496245ECC
:105530008A30910570F7DC01A653BD4F3C91319341
:1055400001962813F5CFE5CF8A81823079F0853036
:1055500061F68091450380FF14C00E94130F809173
:10556000400380FF11C00E94920DD3CF6B817C81DC
:105570008D819E810E94A62E85E290E00E944F2F91
:10558000C8CF0E94200FEBCF81608093400360E082
:1055900086950E942D12BDCF4C816B818A810E941D
:1055A000710F9827892798279E838D83B2CF2D81ED
:1055B0003E813227232732274C816B818A810E94CA
:1055C0006E0EA7CF0E94940EA4CF9A81913089F5D8
:1055D000883099F0893041F18B81813009F099CF81
:1055E0008C81E5E08E9FC00111246FEF70E00E9476
:1055F000782E862F0E9432068CCF8B81813029F045
:10560000823009F086CF1C8284CF80914503869535
:1056100086958695FFEF8F9FC001112465E070E0AD
:105620000E94782E6C8375CF809145030E940D0FE8
:1056300070CF923009F059CF8830D9F1893009F410
:1056400060C08B81823009F1A8F4813009F061CF0C
:105650008C812FEF829FC00111246FEF70E00E94B8
:10566000782E462F20E060914203809141030E94F2
:1056700036114FCF8330C9F0843009F04ACF20E093
:10568000409143036D818C81F2CF8C81882309F492
:105690006ACF8091400381608093400360E08695EB
:1056A0000E942D1260E08C8174CF8C818093440322
:1056B00030CF8B818230C9F060F4813009F029CF7E
:1056C000809143034FEF849FC00111246FEF70E07E
:1056D000A7CF833099F0843009F01BCF809141032C
:1056E0008C83809142038D8314CF8091400380FF8F
:1056F00003C086958C830DCF80E0FCCF809144035E
:10570000F9CF6091400370914103809142039091E1
:1057100043030E942311FDCE80E18A83FACE81E00B
:105720008A838AEDD9CEEA80FB80FE24EF24FE2412
:105730008E010F5F1F4F8C80800E912E911CC70130
:105740008A5D9D4F8016910609F4E3CEAAEDEA1614
:10575000A1E0FA0650F40E943B2FF8018483BFEFCA
:10576000EB1AFB0A0F5F1F4FEACFD80114961C9269
:10577000F6CF0A811B81102701271027FE013196E1
:105780004F01EC80E00EF12EF11CC8018A5D9D4FA7
:10579000E016F10609F4BDCE0A3DF1E01F0728F43A
:1057A000D40114966C910E944F2FBFEF8B1A9B0A65
:1057B0000F5F1F4FEACF0E942D0EABCE84E0ADCF1E
:1057C000EA80FB80FE24EF24FE248E010F5F1F4F32
:1057D0008C80800E912E911CC701869680169106B2
:1057E00009F497CEE0EEEE16E1E0FE0658F40E94D2
:1057F0003B2FD80114968C93FFEFEF1AFF0A0F5F2F
:105800001F4FEACFF8011482F7CF0A811B811027BE
:1058100001271027CE0101964C01EC80E00EF12EFD
:10582000F11CC8018696E016F10609F472CE003E1E
:10583000A1E01A0720F4F40164810E944F2FFFEFCA
:105840008F1A9F0A0F5F1F4FECCF41E08C818111AF
:1058500001C040E06B818A810E94380FA2CE2D8169
:105860003E8132272327322741E08C81811101C0FC
:1058700040E06B818A810E943D0E4BCE09BD19BD6F
:1058800009B400FEFDCF8091D8008F7D8093D800B1
:105890008091E00082608093E0008091E00081FDD3
:1058A000FCCF0E944B1754CC85E290E00E943B2F26
:1058B0001B821C821D828E832CCE8EE1489B02C0EF
:1058C0008150E1F7489BFECF0895589880E28A9571
:1058D000F1F7589A0895FC013BE03A95F1F798E00A
:1058E00020E080E031E040E14A95F1F7880F489BE5
:1058F00002C08160232742E04A95F1F7000040E1B1
:105900004A95F1F7915079F790E19A95F1F799B1AD
:1059100032E03A95F1F7000040E14A95F1F79170D5
:1059200092272081920F90830895A1E0B0E0EBE9E7
:10593000FCE20C94232E19828C017C01E60EF11CF2
:105940000E151F0541F481E09981911180E02196A7
:10595000E6E00C943F2E0E945D2CCE0101960E9441
:105960006B2CF80181938F01EBCF509A589A0895D0
:105970005098589AE89AE9E6F0E080818C7F80831D
:1059800008956150770B91E001C0990F6A95EAF78D
:1059900020E031E0911108C0222391F0589A80E272
:1059A0008A95F1F758980895492F482339F0589A65
:1059B000232740E24A95F1F79695ECCF5898F9CF16
:1059C0005898EDCFFF920F931F93CF93DF93EC0185
:1059D0008C01060F111DC017D10729F4CDB7DEB712
:1059E000E5E00C94402EF9900E94652C68E08F2D24
:1059F0000E94C12CF0CF1F920F920FB60F9211246C
:105A00000F931F932F933F934F935F936F937F93C6
:105A10008F939F93AF93BF93EF93FF93CF93DF93B6
:105A20000F92CDB7DEB719820E945D2CCE01019690
:105A30000E946B2C082F069506950695282F229517
:105A40002570902F9570290F922F9370269526958B
:105A5000920F982797708981982B09F05CC00830C5
:105A600008F059C080E18A95F1F7589A509A82E07F
:105A70008A95F1F700C0589888E0089F80011124AA
:105A8000D801AC5FBE4F1696ED91FC9117973097F9
:105A9000A9F06091AA017091AB0114962D913C91EF
:105AA0001597260F371F11968D919C911297680FAD
:105AB000791F13964C9113978C910995F801EC5F1F
:105AC000FE4F6381662351F02091AA013091AB0112
:105AD00084819581820F931F0E94E22C0E94652C85
