:100000000C9488040C94C3330C94C0040C94C00466
:100010000C94C0040C94C0040C94C0040C94C00450
:100020000C94C0040C94C0040C94E52A0C94A12AEE
:100030000C94382C0C94C0040C94C0040C94C00490
:100040000C94C0040C94C0040C94C0040C94C00420
:100050000C94C0040C94142C0C94C0040C94C00494
:100060000C94C0040C94C0040C94C0040C94C00400
:100070000C94C0040C94C0040C94C0040C94C004F0
:100080000C94C0040C94C0040C94C0040C94C004E0
:100090000C94C0040C94C0040C94C0040C94C004D0
:1000A0000C94C0040C94C0040C94C0040631FF09E5
:1000B00074A1010975150026FF00952075088102BD
:1000C0000976150026FF00952075089102C00501EC
:1000D0000980A101850319012AB700150126B7007F
:1000E000950175108100C0050C0901A10185041955
:1000F000012AA002150126A002950175108100C0F9
:100100000660FF0961A1010962150026FF00952024
:10011000750881020963150026FF00952075089176
:1001200002C005010906A101050719E029E715002C
:100130002501950875018102950175088101050762
:10014000190029FF150026FF009506750881000596
:10015000081901290595057501910295017503910D
:1001600001C00000000000000000000000000000CE
:10017000000000000000000000000000000000007F
:100180000000000000007E0F00D4FFFFFFC700004A
:10019000007800000000000000002A2B280000006A
:1001A0000000000000000000000000000029000026
:1001B00000002C1E3420212224342627252E362D03
:1001C0003738271E1F202122232425263333362E9D
:1001D00037381F0405060708090A0B0C0D0E0F100F
:1001E0001112131415161718191A1B1C1D2F313054
:1001F000232D350405060708090A0B0C0D0E0F10F8
:100200001112131415161718191A1B1C1D2F313033
:10021000354C44454255473A2064697361626C65C8
:10022000642E0A0044454255473A20656E61626C6F
:1002300065642E0A004F6E6573686F743A206163BF
:10024000746976653A2025640A000A002530325820
:1002500020006B6579626F6172645F7265706F72A6
:10026000743A200054617267657420636F6E6E6526
:10027000637465640D0A0054617267657420646973
:1002800073636F6E6E65637465642C207468726F3F
:1002900074746C696E6720636F6E6E656374696FEA
:1002A0006E20617474656D7074730D0A0046616927
:1002B0006C656420746F20657865637574652025AE
:1002C000730A007267625F6D61747269785F636F51
:1002D0006E6669672E666C616773203D2025640A2F
:1002E000007267625F6D61747269785F636F6E66DA
:1002F00069672E7370656564203D2025640A00726D
:1003000067625F6D61747269785F636F6E6669675B
:100310002E6873762E76203D2025640A007267626F
:100320005F6D61747269785F636F6E6669672E686E
:1003300073762E73203D2025640A007267625F6D1C
:1003400061747269785F636F6E6669672E68737631
:100350002E68203D2025640A007267625F6D61741B
:100360007269785F636F6E6669672E6D6F64652072
:100370003D2025640A007267625F6D61747269785E
:100380005F636F6E6669672E656E61626C65203DA6
:100390002025640A007267625F6D61747269785F1C
:1003A000636F6E66696720454550524F4D0A007273
:1003B00067625F6D61747269785F696E69745F64AA
:1003C000726976657273207267625F6D61747269BB
:1003D000785F636F6E6669672E6D6F6465203D2080
:1003E000302E2057726974652064656661756C747F
:1003F0002076616C75657320746F20454550524FAF
:100400004D2E0A007267625F6D61747269785F6970
:100410006E69745F64726976657273206565636F77
:100420006E666967206973206E6F7420656E616205
:100430006C65642E0A005B735D000A00253038622B
:10044000003A200025303258000A722F63203031E4
:100450003233343536370A000A0025303258006C02
:1004600065645F7461736B3A200000010101010152
:10047000010101010202020202020202020303035D
:10048000030303030304040404040404050505052D
:1004900005060606060607070707070808080809ED
:1004A0000909090A0A0A0B0B0B0C0C0C0D0D0D0E99
:1004B0000E0E0F0F0F10101111111212131314142E
:1004C000151516161717181819191A1A1B1B1C1DA3
:1004D0001D1E1E1F202021222223242425262627FC
:1004E0002829292A2B2C2D2D2E2F3031323233342E
:1004F00035363738393A3B3C3D3E3F404142434434
:1005000045464748494A4C4D4E4F50515354555615
:1005100058595A5B5D5E5F616264656668696B6CC1
:100520006D6F7072737577787A7B7D7E808283853C
:1005300087888A8C8E8F91939596989A9C9EA0A27C
:10054000A3A5A7A9ABADAFB1B3B5B7BABCBEC0C286
:10055000C4C6C9CBCDCFD1D4D6D8DBDDDFE2E4E74A
:10056000E9EBEEF0F3F5F8FAFDFF6565636F6E6693
:1005700069675F7570646174655F7267625F6D6102
:10058000747269785F64656661756C740A0072677D
:1005900062206D617472697820746F67676C652082
:1005A0005B25735D3A207267625F6D617472697872
:1005B0005F636F6E6669672E656E61626C65203D74
:1005C0002025750A00726762206D61747269782057
:1005D0006D6F6465205B25735D3A2025750A007296
:1005E0006762206D61747269782073657420687326
:1005F00076205B25735D3A2025752C25752C257595
:100600000A00726762206D61747269782073657484
:10061000207370656564205B25735D3A2025750A3B
:100620000029001E001F002000210022002B0014C2
:10063000001A00080015001700E00004001600076B
:100640000009000A00E1001D001B0006001900055A
:100650000000000000E300777C28004A002A002701
:100660000026002500240023004C00130012000C7B
:100670000018001C00340033000F000E000D000BAA
:1006800000E50038003700360010001100000000BF
:1006900000E600787C2C004D0035021E021F02206F
:1006A0000221022202007C1E001F002000210022E5
:1006B000004C00010050004F0052002F000578014F
:1006C000000100010051002F0200000000010001A4
:1006D000004C0026022A00270226022502240223BB
:1006E0000201002700260025002400230031022EED
:1006F000025E005D005C00300001002D005B005ACE
:10070000005900300200000000620001004C002788
:100710000245003A003B003C003D003E0020781EB0
:10072000021F022002210222022178AC00AB00A9A4
:10073000004B002D02A800AD00AE00AA004E002D17
:1007400000000000000100010001002602440043F7
:10075000004200410040003F000100270226022520
:10076000022402230231002778257823784A002EBC
:100770000001002878267824784D002E0200000021
:100780000001000100010001000100010001000161
:100790000001000100010001000100010001000151
:1007A0000001000100010001000100010001000141
:1007B0000001000100010001000000000001000133
:1007C0000001000100010001000100010001000121
:1007D0000001000100010001000100010001000111
:1007E0000001000100010001000100010001000101
:1007F00000010001000000000001000100010001F3
:1008000000AA00A9004E004B00AA00A9004B004E10
:1008100000AB00AC004D004A00AB00AC004D004AFC
:10082000002178227823782478257826782778285C
:100830007829782A78510052004F00500051005218
:10084000005B435D005B445D005B535D005B575D97
:10085000005B525D0009027B00040100A0FA09045C
:1008600000000103010100092111010001224000E3
:1008700007058103080001090401000203000000CC
:100880000921110100012222000705820320000135
:100890000705030320000109040200010300000012
:1008A0000921110100012232000705840320000103
:1008B00009040300020300000009211101000122C4
:1008C000220007058503200001070505032000011C
:1008D000120100020000000810CB5672000701024E
:1008E00000011803490072006900730020005200E3
:1008F000650076002E002000370000000E034B003C
:1009000065006500620069006F00000004030904CF
:1009100011241FBECFEFDAE0DEBFCDBF04B603FE69
:1009200018C08091310590913205A0913305B091A6
:1009300034058730904BA740B04B59F410923105E5
:10094000109232051092330510923405E0E0F8E37E
:10095000099513E0A0E0B1E0E8E1FDE602C00590F2
:100960000D92A030B107D9F725E0A0E0B3E001C0B7
:100970001D92A133B207E1F70E945F2C0C94003660
:100980000C940000FF93EF93E0910003F0910103BA
:10099000309709F00995EF91FF910895FC01859139
:1009A000803011F0EFDFFBCF0895FF27E0E230E267
:1009B00047FF0CC0419597FF09C0EDE26095709527
:1009C00080959095611D711D811D911D27FF02C0AD
:1009D000219530E350E2AA27660F771F881F991FE1
:1009E000AA1FA41710F0A41B63955A95A9F7AA3063
:1009F00008F0A95FA05DAF93F395611571058105BE
:100A0000910541F7ED3211F4EF93F395F21718F4D5
:100A10003F93F395FBCF8F91B5DFFA95E1F70895FA
:100A2000E991F9918591803021F0853219F0AADFA2
:100A3000F9CF089520E0E89455915532C1F3503331
:100A400011F4689455915A3348F4505390F3220F9F
:100A5000022E220F220F200D250FF4CF0EF4219528
:100A600089919991533619F3533729F1533559F137
:100A7000BC0188279927E8945C3621F489919991E3
:100A800068945591543639F446EF7EF077FF0DC0E7
:100A90008FEF9FEF0AC055374AE039F0583540E1F3
:100AA00021F0523642E009F00895FF93EF937DDF85
:100AB000EF91FF91B7CFFF93EF93FC0181918030CD
:100AC000B9F360DFFBCFFF93EF9368DFF1CFDF93E4
:100AD000CF93CDB7DEB72596A3DFCF91DF910895F1
:100AE000E8EDF0E080818E7F80831092E20010922A
:100AF000DA001092E100A0EEB0E08C9181608C935E
:100B000080818F77808319BCA7EDB0E08C918E7FB8
:100B10008C9380818F7E80831092E40408952091CD
:100B2000E4003091E50095E6A9012091EC00822FC8
:100B3000817020FF06C08091E80080FF06C080E041
:100B400008952091E80022FD1AC08091F1048823C5
:100B500089F0853089F08091EB0085FD0FC02091F0
:100B6000E4003091E50042175307F9F29150E1F6A5
:100B700084E0089582E0089583E0089581E0089577
:100B80008091F30487FF13C08091E80082FF06C0C4
:100B90008091E8008B778093E80004C08091F10495
:100BA0008111F2CF08958091F1048823D9F38091C7
:100BB000E80080FFF8CF8091E8008E77ECCF982F87
:100BC0009093E900242F762F50E0891731F070912F
:100BD000EC002091ED005091F00021FD07C09F5FD7
:100BE000973071F78093E90081E008953091EB0030
:100BF0003E7F3093EB003091ED003D7F3093ED0070
:100C00003091EB0031603093EB007093EC00209357
:100C1000ED005093F0002091EE0027FDE0CF80E042
:100C20000895B0E0A0E0E7E1F6E00C94E934C8ED07
:100C3000D0E088818F7E8883E7EDF0E0808181605D
:100C4000808384E082BF81E08093E40488818E7F8A
:100C5000888302EE10E0F80110821092DA0081EE33
:100C6000C82ED12CF601108288818F7788838881E5
:100C70008068888388818F7D888319BC1092F104F5
:100C80001092F2041092F0041092EF0490EEE92E0C
:100C9000F12CF70180818B7F80838881816088833C
:100CA00042E060E080E00E94DF05F60180818E7FF7
:100CB0008083F80180818160808380818860808367
:100CC000F70180818E7F8083888180618883CDB7A2
:100CD000DEB7E8E00C940535FC018091F9049091B1
:100CE000FA0486179707A0F06115710529F4909111
:100CF000E8009E779093E80090E06115710551F44B
:100D0000911108C08091E80082FF34C080E008950E
:100D1000BC01F2CF8091F1048823C1F18530C1F18B
:100D20008091E80083FD30C08091E80082FDEACF29
:100D30008091E80080FFE1CF8091F3002091F200E4
:100D4000382F6115710519F02830310558F091E000
:100D50002830310509F090E02091E8002E772093AB
:100D6000E800CBCF81918093F100615071092F5F32
:100D70003F4FE7CF8091F104882341F0853041F067
:100D80008091E80083FFBECF81E0089582E008955E
:100D900083E0089508958091E60408959C014FB77B
:100DA000F8948091DD049091DE04A091DF04B0916D
:100DB000E0044FBF821B930B08952FB7F894609106
:100DC000DD047091DE048091DF049091E0042FBF78
:100DD00008952FB7F8948091DD049091DE04A091DE
:100DE000DF04B091E0042FBF08959C01FC0132960E
:100DF0009FEF80E04191461751F09F3F19F4411158
:100E000001C0982F8F5F8630A9F79F3F09F408959E
:100E1000290F311D97FD3A95F90162830895A3E0EA
:100E2000B0E0E5E1F7E00C94EF342091DA04309182
:100E3000DB0428173907A1F09093DB048093DA04D0
:100E4000E091D804F091D904309751F024E029833F
:100E50009B838A830680F781E02DCE010196099558
:100E60002396E2E00C940B35A3E0B0E0EAE3F7E070
:100E70000C94EF342091D6043091D7042817390709
:100E8000A1F09093D7048093D604E091D804F09118
:100E9000D904309751F023E029839B838A8306800D
:100EA000F781E02DCE01019609952396E2E00C949E
:100EB0000B35FC01680F791F8FEF91E32191822799
:100EC00028E030E087FF09C0880F892721503109C9
:100ED000C9F7E617F70791F70895880FF7CFFA01DA
:100EE000811101C0FB01099508958093450180910E
:100EF000FF048370809344010E94AB1483E08093CD
:100F000046010895EF92FF920F939701201B31093C
:100F10002F3F310519F010F02FEF30E0322F3095D0
:100F2000482F430F08F44FEF842F620F0F91FF906B
:100F3000EF900895EF92FF920F93972F093438F4B2
:100F4000B701601B71096F3F710519F010F06FEF69
:100F500070E0485F5F4F4131510540F0A901485FA3
:100F60005F4F4131510510F06FEF70E06095482FF1
:100F7000460F08F44FEF842F37FF02C02D5F3F4F1D
:100F8000359527953595279560910005620F792F46
:100F90000F91FF90EF900895EF92FF920F931F93A0
:100FA0000E0D1F2D111DF90137FF03C0F195E195BD
:100FB000F10924E0EE0FFF1F2A95E1F7EF3FF1055D
:100FC00019F014F0EFEFF0E09A0157FF03C03195EC
:100FD0002195310994E0220F331F9A95E1F72E17DE
:100FE0003F070CF4F901E00FF11FEF3FF10519F095
:100FF00010F0EFEFF0E0E095282F3E2F230F08F4DC
:101000002FEF822F1F910F91FF90EF900895EF9295
:10101000FF920F93970195E0099F200D311D112438
:101020002F3F310519F010F02FEF30E02095382FC9
:10103000320F08F43FEF832F0F91FF90EF90089548
:1010400022E8241B08F420E0620F08954095282F21
:10105000429F412D1124842F08950F931F9310E078
:10106000F801EE0FFF1FEC5CFD4F9081905797FD4C
:101070009195000F111FF801E850FE4F05AD005289
:10108000110B2003F001219FF00D112408E310E063
:10109000091B110997FD139540039001419F300DE5
:1010A0001124E20FF31F9F01220F331F2E0F3F1F4A
:1010B00037FF02C021583F4F220F232F221F330B2F
:1010C000620F1F910F9108950F931F93522F10E0FD
:1010D000F801EE0FFF1FE850FE4FA5ADA052BB0B6D
:1010E0009D015203F001539FF00D1124000F111FB9
:1010F000D801AC5CBD4F0C910057110B400390011F
:10110000419F300D11242E0F3F1F37FF02C0215C7D
:101110003F4F96E0359527959A95E1F7620F1F911D
:101120000F9108950F931F93522F10E0F801EE0FC7
:10113000FF1FE850FE4FA5ADA052BB0B9D0152030F
:10114000F001539FF00D1124000F111FD801AC5C6A
:10115000BD4F0C910057110B40039001419F300D82
:1011600011242E0F3F1F37FF02C021583F4F220F7F
:10117000232F221F330B620F1F910F910895EF92BF
:101180000F93972F23E0029FB00111247595679567
:101190006E0D792F0F91EF900895322F50E0FA01E4
:1011A000EE0FFF1FE850FE4F95AD905297FD9195C1
:1011B000440F551FFA01EC5CFD4F2081231B330BBC
:1011C000290F311D97FD3A95620F0895E42FF0E045
:1011D000EE0FFF1FE850FE4F65AD621B0895E42F30
:1011E000F0E0EE0FFF1FEC5CFD4F6081621B089585
:1011F000622F0895E42FF0E0EE0FFF1FEC5CFD4F2F
:10120000408134EE439F412D1124E82FF0E050E05F
:10121000445E5F4FDA01A21BB1099D01B7FF03C015
:1012200031952195310993E0220F331F9A95E1F70B
:10123000AF01421B530B9A0157FD20E0582F259F09
:10124000212D1124822F0895E42FF0E0EE0FFF1FCF
:10125000EC5CFD4F408134EE439F412D1124E72F7C
:10126000F0E050E0445E5F4FDA01A21BB1099D013E
:10127000B7FF03C031952195310993E0220F331F49
:101280009A95E1F7AF01421B530B9A0157FD20E0FD
:10129000279F212D1124722F08950E944F0B08952E
:1012A000FF920F931F93CF93DF93182F062FF42EE7
:1012B000D0E0C0E02F2D402F612FCE010E944D09BC
:1012C0002196C434D105B1F7CDB7DEB7E5E00C9473
:1012D0000835FC019B01009729F480E077FF2BC0C3
:1012E00080E80895AC0197FF04C044275527481BA8
:1012F000590BB901640F751F37FD10C0241B350B46
:10130000C901A5E0880F991FAA95E1F70E9436351B
:1013100080E2861BF7FF0FC081950895CB0165E041
:10132000880F991F6A95E1F7BA01621B730B0E943F
:10133000363580E6EECF0895EF920F93CF93DF938B
:10134000D72FC82FC9010E19BA010E946909602F51
:10135000681B7D2F8C2FDF91CF910F91EF90089517
:101360000F93CF93DF93D72FC82FC901BA010E94E3
:101370006909682F600F7D2F8C2FDF91CF910F911E
:101380000895EF920F931F93CF93DF93D62FC72F1C
:10139000182FC9010E19010FBA010E946909081B13
:1013A000202F219F212D1124822F6D2F7C2FDF9143
:1013B000CF911F910F91EF900895EF920F931F938C
:1013C000CF93DF93D62F172FC82FC9010E19070F00
:1013D000BA010E946909702F781B719F712D112429
:1013E0006D2F8C2FDF91CF911F910F91EF9008956A
:1013F0000F931F93CF93DF93D62FC72F182FC901B9
:10140000212F201B022FBA010E946909982F990FE2
:10141000990F891B800F282F219F212D1124822FA6
:101420006D2F7C2FDF91CF911F910F9108950F9316
:101430001F93CF93DF93D62F172FC82FC901272FC4
:10144000201B022FBA010E946909982F990F990F4A
:10145000782F791B700F719F712D11246D2F8C2F98
:10146000DF91CF911F910F910895E82F86FDE095B0
:101470002E2F2F7086FD2F5FE695E695E695E67098
:10148000F0E0E452FE4F9181929F902D212D112486
:1014900092959F702295207F922B2081920F87FD3D
:1014A000919580E8890F0895AC018230910508F488
:1014B00008959FEF413E8EE1580740F49A0195E070
:1014C000369527959A95E1F798E0920F61E0E62F1F
:1014D000E90FFF27FF1F9F0135952795822F229F38
:1014E000F001239FF00DF00D11244E175F0738F423
:1014F0009FEF920F961758F78FEF860F08952F3FA3
:10150000E9F361E0620FF6CF0F93CF93DF93D72F0C
:10151000C82F47FD419588E390E0841B910947FD62
:101520009395889FB001899F700D700D1124229FA3
:10153000C001239F900D900D1124860F971F0E94CC
:10154000540A982F990F890F682F600F7D2F8C2FC9
:10155000DF91CF910F91089530E020E0869F212DFB
:10156000969F200D311D1124C9010895AF92BF929D
:10157000CF92DF92FF920F931F93CF93DF93362F7B
:10158000472FE82FF0E0E659FB4F71110FC0E491AF
:101590008E2F2E2F6E2F722FDF91CF911F910F91D3
:1015A000FF90DF90CF90BF90AF900895C72FD0E00D
:1015B0002491F22E022F10E056E0659FC001112405
:1015C000EFEFF0E0BF010E942235832F90E0880FFB
:1015D000991F35E5369FD001379FB00D11248A1B26
:1015E0009B0B982F990F980F6F01CC1ADD0AC09EA4
:1015F000D001C19EB00DD09EB00D11248B2F499FFC
:10160000A0011124452F55276F01C41AD50AC09E89
:10161000A001C19E500DD09E500D11245F01A91A4A
:10162000B108AC9E6001AD9ED00CBC9ED00C1124C4
:10163000CD2CDD24EC19FD09E09FE001E19FD00DE8
:10164000F09FD00D1124ED2F62307105A1F050F400
:101650006115710509F49ECF6130710581F0EB2FA2
:10166000852F98CF6430710569F080F06630710580
:1016700009F490CFF4CFE22F2B2F8D2F8BCFE22FB9
:10168000252F88CFEB2F822F2D2F84CF2B2F8F2D1F
:10169000E52F80CF89B185FB882780F90895FF92D7
:1016A0000F931F93CF93DF93EC01F62E042F122F8D
:1016B0000E944A0B81110FC0C232D1057CF0A29763
:1016C000FE01EE0FFF1FEC0FFD1FE65FFB4FF182E7
:1016D0000083128303C0C232D10594F3CDB7DEB7C5
:1016E000E5E00C940835CF93C82F0E944A0B88235D
:1016F00029F081E0C23228F080E003C081E0C434E8
:10170000D8F7CF910895A8E0B0E0E9E8FBE00C94A9
:10171000DF34282E7C836B83209148018EE0289F44
:10172000802D11248D83825F8983853410F034E409
:1017300039830E944A0B882329F08981833210F073
:1017400092E299830E944A0B811105C0ED81E23239
:1017500010F4F2E2FD83209105052A839D81892FF3
:1017600090E098878F83880F991FFC01E850FE4F07
:101770006F01822D90E09C012F5F3F4F3E832D83B0
:1017800089819F81981730F00E94730B2896E2E1BF
:101790000C94FB34EF81F885E454FD4F80819091E7
:1017A00049018923F9F030900005409001058D81B1
:1017B0009E818B5F9A4F3C01522C10E0FA815F169C
:1017C000D8F020910205129F112D1124632D742D44
:1017D000812F0E94B60A462F282F672F8F81988568
:1017E0000E944D092F8138852F5F3F4F38872F8307
:1017F00032E0C30ED11CC4CFF30181913F01F60149
:10180000A4ACA81ABB0885ACF3018781881A990893
:10181000AA9C9001AB9C300D300D1124889CC00116
:10182000899C900D900D1124820F931F0E94540AE1
:10183000082F6091030521E0620F08F46FEFF301B8
:10184000EE0FFF1FE550F540858996890E94AC0A8E
:101850007C019401A501632D742D812FEB81FC8106
:101860000995362E472E5394182FA8CFB0E0A0E04C
:10187000ECE3FCE00C94E9347C01C09148018EE07B
:10188000C89FC02D11241EE01C0F153408F014E46D
:101890000E944A0B882319F0133208F012E20E94CA
:1018A0004A0B811103C0C23208F4C2E22091030541
:1018B00031E0230F08F42FEF30E050E040E06FEF0D
:1018C0007FEF80E090E00E944A356901D0E001E0BE
:1018D0002C2FC11740F0812F0E94730BCDB7DEB7BC
:1018E000E8E00C940535FE01E454FD4F80819091B1
:1018F0004901892309F1409105054150042E000C4E
:10190000550B47FF1BC0C60160910305600F08F42B
:101910006FEF0E94AC0AAC01609100057091010567
:1019200080910205F70109950E94B60A462F282FDB
:10193000672FCE010E944D092196CACFFA01EB5FB5
:10194000FA4F818982130AC0FA01EE0FFF1FEB5F85
:10195000FA4F818D928D8C159D05B0F24150510941
:10196000D0CFB0E0A0E0E7EBFCE00C94E7346C01F2
:10197000C09148018EE0C89FC02D11241EE01C0FAD
:10198000153408F014E40E944A0B882319F013322E
:1019900008F012E20E944A0B811103C0C23208F41F
:1019A000C2E260910305669566958091FB04909173
:1019B000FC040E94AC0AF82E80E48F0D0E94350AC8
:1019C00090E8B92EB80E8F2D0E94350A20E8A22E7D
:1019D000A80ED0E0C11740F0812F0E94730BCDB745
:1019E000DEB7EAE00C940335FE01E454FD4F80813C
:1019F000909149018923A1F0609100057091010542
:101A000080910205EF2C0C2F2A2D4B2DF601099504
:101A10000E94B60A462F282F672FCE010E944D093B
:101A20002196D8CFB0E0A0E0E8E1FDE00C94E334EB
:101A30005C01C09148018EE0C89FC02D11241EE0BA
:101A40001C0F153408F014E40E944A0B882319F087
:101A5000133208F012E20E944A0B811103C0C23215
:101A600008F4C2E26091030566958091FB049091B1
:101A7000FC040E94AC0AF82ED0E0CE01880F991F1A
:101A80009C0128503E4F6901C11740F0812F0E94F0
:101A9000730BCDB7DEB7EEE00C94FF34FE01E454D7
:101AA000FD4F808190914901892379F1F60184AD40
:101AB000282F2057330B490185ADE82FE052FF0B4B
:101AC0003F01889C9001899C300D300D1124EE9FC0
:101AD000C001EF9F900D900D1124820F931F0E9463
:101AE000540A082F6091000570910105809102054C
:101AF000EF2C9301A401F50109950E94B60A462F27
:101B0000282F672FCE010E944D09F2E0CF0ED11C85
:101B10002196BACFB0E0A0E0E0E9FDE00C94E83413
:101B20006C01C09148018EE0C89FC02D11241EE0B9
:101B30001C0F153408F014E40E944A0B882319F096
:101B4000133208F012E20E944A0B811103C0C23224
:101B500008F4C2E26091030566958091FB049091C0
:101B6000FC040E94AC0AB82ED0E0CE01880F991F69
:101B70009C0128503E4F7901C11740F0812F0E94EF
:101B8000730BCDB7DEB7E9E00C940435FE01E454E5
:101B9000FD4F8081909149018923C1F0F70125AD66
:101BA0002052330B44AD4057550B609100057091A6
:101BB0000105809102050B2DF60109950E94B60AD8
:101BC000462F282F672FCE010E944D09F2E0EF0E1D
:101BD000F11C2196D1CFEF92FF920F931F93CF93D9
:101BE000DF937C01C09148018EE0C89FC02D112475
:101BF0001EE01C0F153408F014E40E944A0B8823E1
:101C000019F0133208F012E20E944A0B811103C04E
:101C1000C23208F4C2E2609103056695669521E040
:101C2000620F08F46FEF8091FB049091FC040E9416
:101C3000AC0A082FD0E0C11740F0812F0E94730B2F
:101C4000CDB7DEB7E6E00C940735FE01E454FD4F56
:101C5000808190914901892391F0609100057091F4
:101C6000010580910205202F4C2FF70109950E9454
:101C7000B60A462F282F672FCE010E944D092196C4
:101C8000DACFB0E0A0E0E7E4FEE00C94E734182FF0
:101C900080914501811323C09091FF04937020919E
:101CA000440130E081E09217130609F480E081706E
:101CB00080934A018091040590914901981739F069
:101CC0008093490140E060E080E00E9450091132B9
:101CD00088F4E12FF0E0EE5FF94C0C94693581E077
:101CE000E6CF80914A01882389F140E060E080E0FE
:101CF0000E94500980E02AC0C09148018EE0C89F30
:101D0000C02D11240EE00C0F053408F004E40E94ED
:101D10004A0B882319F0033208F002E20E944A0BB2
:101D2000811103C0C23208F4C2E2609100057091D3
:101D30000105809102050E94B60AF62EE72ED82EE4
:101D4000D0E0C017D8F0802F0E94730B909148010B
:101D50009F5F9093480181110CC082E080934601FF
:101D600080914A01811105C0111103C083E0809365
:101D70004601CDB7DEB7EAE00C940335FE01E4542A
:101D8000FD4F808190914901892331F02D2D4F2DF8
:101D90006E2DCE010E944D092196D3CFC0914801EE
:101DA0008EE0C89FC02D11240EE00C0F053408F002
:101DB00004E40E944A0B882319F0033208F002E27F
:101DC0000E944A0B811103C0C23208F4C2E2E090C3
:101DD0000105F0900205D09100056D2F7E2D8F2D0D
:101DE0000E94B60AD62EC72EB82E609103056D0F3D
:101DF0007E2D8F2D0E94B60AF62EE72EA82ED0E05B
:101E0000C01708F0A0CFFE01E454FD4F90818091EF
:101E10004901892359F02A2D4F2D6E2D90FD03C0C5
:101E20002B2D4D2D6C2DCE010E944D092196E8CF12
:101E3000C09148018EE0C89FC02D11240EE00C0F08
:101E4000053408F004E40E944A0B882319F0033299
:101E500008F002E20E944A0B811103C0C23208F46A
:101E6000C2E2E0900105D09002052091030550E404
:101E7000F52E3F2D329F312D1124F32ED0E0C017C7
:101E800008F061CFFE01E454FD4F8081909149013B
:101E90008923B9F0FE01EE0FFF1FE850FE4F85AD1C
:101EA00082958F70609100058F9D600D11247E2DAD
:101EB0008D2D0E94B60A462F282F672FCE010E9433
:101EC0004D092196DCCFC09148018EE0C89FC02DFE
:101ED00011240EE00C0F053408F004E40E944A0BB4
:101EE000882319F0033208F002E20E944A0B8111A4
:101EF00003C0C23208F4C2E2E0900105D0900205AE
:101F00002091030530E4F32E3F2D329F312D112413
:101F1000F32ED0E0C01708F016CFFE01E454FD4FB9
:101F20008081909149018923D9F0FE01EE0FFF1FB6
:101F3000E850FE4F64ADF69EB001112495E0759512
:101F400067959A95E1F780910005680F7E2D8D2D9C
:101F50000E94B60A462F282F672FCE010E944D09F6
:101F60002196D8CFC09148018EE0C89FC02D112482
:101F70000EE00C0F053408F004E40E944A0B88239D
:101F800019F0033208F002E20E944A0B811103C0EB
:101F9000C23208F4C2E2F0900005D0910105E09051
:101FA0000205609103056695669566958091FB0430
:101FB0009091FC040E94AC0A0E94350A805887FD6B
:101FC0008195880F282F3E2D239F212D1124822FAC
:101FD0006F2D7D2F0E94B60AF62EE72ED82ED0E068
:101FE000C01708F0B0CEFE01E454FD4F80819091FF
:101FF0004901892331F02D2D4F2D6E2DCE010E94E8
:102000004D092196EDCF84E299E00E94EB0D9ECE22
:102010008AEF98E0FACF87E19AE00E948A0D96CE87
:1020200088EF99E0FACF8DED99E00E94120D8ECEE7
:1020300081EC99E0FACF88EF98E0E7CF8FEE98E057
:10204000E4CF86EE98E0E1CF8DEC98E0DECF8FEB29
:1020500098E0EBCF84E89AE0E0CF80EB99E0DDCF29
:102060008CE999E0E2CF82E998E00E94B10C6ECE53
:1020700084E698E0FACF8DE298E0F7CF86E298E028
:102080000E94360C63CE80E298E0FACF809105057D
:1020900021E0382F321B08F430E0832F67E078E02E
:1020A0000E94830B53CE67E078E080E0F9CF809107
:1020B000050521E0382F321B08F430E0832F6CEC4B
:1020C00077E0EECF6CEC77E0F0CF8091050521E072
:1020D000382F321B08F430E0832F6AE977E0E0CF35
:1020E0006AE977E0E2CF8091050521E0382F321BC5
:1020F00008F430E0832F62E877E0D2CF62E877E03F
:10210000D4CFF894E82FE295EF70F0E031A1282FBA
:102110002F7081E090E001C0880F2A95EAF7982F90
:102120009095932391A392A1892B82A378940895EB
:102130009091B50392FF06C0282F28712830F9F43A
:10214000877F846093FF06C0282F28712831F1F41F
:10215000877E84612091B60320FF06C0382F387136
:102160003830D9F4877F816021FF06C0282F28717D
:102170002831D1F4877E816194FD877E0895282FD0
:1021800024712430F9F68B7F8860DCCF282F2471EE
:10219000243101F78B7E8861DDCF382F31713130EA
:1021A00019F78E7F8860E0CF282F2171213121F728
:1021B0008E7E8861E1CF82389105B9F1B0F4813328
:1021C000910509F47DC048F48932910509F46DC088
:1021D0008A32910509F47BC008958533910509F48D
:1021E0005FC08933910509F10895833E9105D9F1C6
:1021F00038F4803E910529F1823E910579F10895E8
:10220000863E9105D9F1873E910509F43EC0843E92
:10221000910541F52091B60321FF24C08091B503BB
:1022200084FD19C087EE90E008952091B5032370D6
:1022300009F05AC02091B60323FF14C089E290E050
:1022400008952091B50320FD38C03091B60330FFCA
:1022500009C024FF43C090E080E008952091B503B9
:1022600022FDF7CF08952091B50322FD3AC03091A9
:10227000B60330FD39C024FFF5CFEDCF2091B50373
:1022800023FFF0CF24FDE7CFCDCF2091B50323FD71
:102290002EC03091B60331FFEECF84EE90E008956A
:1022A0002091B50325FFDECFC9CF2091B50325FDD1
:1022B00021C02091B60323FFD5CF89E390E0D2CF90
:1022C0002091B50326FFCECF8AE290E008952091B9
:1022D000B50326FFC7CF81E390E0089583EE90E039
:1022E000089582EE90E0089580EE90E0089586EEE5
:1022F00090E0089585E390E008951F93CF93DF93D6
:102300000E94DB10EC01C11580E5D807F0F5C1157E
:1023100080E4D80708F09CC0C03ED10520F5CD3C34
:10232000D10508F082C0C83AD10578F4C53AD10584
:1023300008F073C0C130D10519F1209709F1C430FC
:10234000D105F0F4D0E0C0E01BC0C33CD105D0F70C
:10235000C85AD0E0CC0FDD1FC057DE4F0990D8819E
:10236000C02DD4640DC0C11580E2D80708F0D1C0DB
:10237000C11581E0D80708F05AC0C83ED10510F752
:10238000CE01DF91CF911F910895C03682E5D80725
:1023900018F5C03482E5D80708F06BC0C03282E57A
:1023A000D80708F05FC0C11582E5D80708F497C0C8
:1023B0002C2F2695269580E2289F900111248C2FA2
:1023C0008370C1E0D0E002C0CC0FDD1F8A95E2F738
:1023D000C22BD32BDD68D4CFC03A82E5D80760F496
:1023E000C03882E5D80708F459C0CF71D0E0DC2F9F
:1023F000CC27C46FD06AC4CFC03C82E5D80708F4AC
:1024000062C0C03E82E5D80708F09CCFDC2FCC2705
:10241000CC27DF71C06FD06AB3CFC55AD0E0C357A5
:10242000DE4FC881D0E0D064ABCFD065A9CF8D2F6F
:102430000E949810182FCE0199270E94DB10C12FFF
:10244000D0E0DC2FCC27CC27DF71C82BD92B98CF3D
:10245000CE0199270E94DB10CC27DF70C82BD92B27
:10246000D06A8ECFCF71D0E0DC2FCC27C16FD06A7D
:1024700087CF2C2F26952695277080E2289F9001E4
:1024800011248C2F8370C1E0D0E002C0CC0FDD1F7F
:102490008A95E2F7C22BD32BDC6872CF2C2F2695BE
:1024A0002695277080E2289F900111248C2F83703D
:1024B000C1E0D0E002C0CC0FDD1F8A95E2F7C22B4D
:1024C000D32BDA685DCF8C2F8F710E949810C82FA4
:1024D000D0E0DC2FCC27CC27DF71D06251CF8C2FFE
:1024E0008F710E94981055E0D695C7955A95E1F7DF
:1024F000CF70D0E0DC2FCC27282F30E084FF05C040
:1025000044E0220F331F4A95E1F7C22BD32BD06949
:1025100037CF8D2F8F710E949810182FCE019927D9
:102520000E94DB10C12FD0E0DC2FCC27CC27DF713D
:10253000C82BD92BD2CF0E94DD0608958091690364
:1025400081111092690308958095909168039823F2
:1025500090936803089520915D0390912C0356E0B9
:10256000291302C080E0089530E0529FF001539F8C
:10257000F00D1124E35DFC4F7181761306C070816C
:10258000781303C07281741304C02F5F3F4F27700C
:10259000E7CF81E0089580915D0390912C0398131B
:1025A00001C008958F5F8770FACFA82FA77023E02E
:1025B000969587952A95E1F7FC01EE0FFF1FE80F2E
:1025C000F91FE60FF71F50E040E080E0219130E076
:1025D0000A2E02C0369527950A94E2F72170332718
:1025E000042E01C0220F0A94EAF7822B4F5F5F4F3F
:1025F0004330510559F70895292F9A3068F48630F1
:1026000090F490E06EE073E036E0239F800D911D22
:1026100011240E94D51208952C5F223020F46BE023
:1026200073E090E0F6CF80E00895262F277091E0C8
:1026300001C0990F2A95EAF723E0769567952A95C8
:10264000E1F7FB01EE0FFF1FE60FF71FE40FF51F89
:1026500050E040E0682F70E08191DF0111979B010D
:10266000042E02C0369527950A94E2F72170219531
:102670002827292328272C934F5F5F4F433051058C
:1026800059F70895282F862F9A3070F4263058F481
:10269000622F70E026E0929F600D711D11244EE0C4
:1026A00053E00E94151308959C5F9230E0F7622F6B
:1026B00070E04BE053E0F5CF8093B4030895909120
:1026C000B40321E030E0F90101C0EE0F8A95EAF78A
:1026D000D90102C0AA0FBB1F6A95E2F7EA2B01C01D
:1026E000220F4A95EAF7892F8E23E81305C0292B7C
:1026F000822F0E945C13089520952923F9CF21E0B1
:1027000030E001C0220F8A95EAF720958091B4034A
:1027100082230E945C13089590915E038095892323
:1027200080935E03282F277091F4282F082E000C29
:10273000330B9217130659F09091B60392FF07C01E
:102740008595859585950E947F1310925E03089567
:1027500021E030E001C0220F8A95EAF78091B403AE
:10276000822B0E945C13089580936A0308958295DA
:1027700090E09C01220F331F220F331F2C7C959574
:102780008795959587958373282B30E0C901880F2D
:10279000991F8A7A359527952575822B08959FB7BD
:1027A000F8941092E2049FBF9091F104943009F0E4
:1027B00048C02091E9002F703091EC00932F917068
:1027C00030FD90E8922B25E02093E9002091EB006A
:1027D00020FF34C02091EE0027FF30C02091E1049B
:1027E000222321F02091E80025FF28C01092E10467
:1027F00026E03091E80035FF14C08093F10080910D
:10280000E80085FD27C08091E80080FFFCCF809123
:10281000E8008E778093E8009F709093E90080E055
:1028200008953091F104343049F43091EB0035FDD6
:1028300005C0215041F481E08093E1049F709093A2
:10284000E9008FEF0895EFE9FFE03197F1F700C05D
:102850000000CFCF8FB7F89421E02093E2048FBF20
:10286000DBCF0F931F93CF93DF938B01EA019091FE
:10287000F104943061F58093E9008FEF9091E800C6
:10288000815095FD06C095ED9A95F1F700008111F4
:10289000F5CF8091E80085FF1AC00E948F05811155
:1028A00011C08091E80085FD06C08091E8008E7718
:1028B0008093E800F2CFF80181918F018093F100BD
:1028C000219779F78091E8008E778093E800DF9177
:1028D000CF911F910F91089543E050E0BC0184E037
:1028E0000E9431140895CF93DF93EC0148E050E04B
:1028F000BC0181E00E94311488E0FE01A7EEB4E043
:1029000001900D928A95E1F7DF91CF91089581E0D2
:102910008093E00080E28093D8001092C9008FE19C
:102920009EE40197F1F700C0000087E090EBDC0126
:102930008093310590933205A0933305B09334050D
:1029400088E19CE00FB6F894A895809360000FBED4
:1029500090936000FFCF6E9A3EB13F7B2EB1206412
:102960004FB7F8948AE094E0FC015191CF0168E000
:102970002EB9000000C057FF3EB9550F000000C03F
:1029800000C000C03EB900C06A9591F7F4E0863DF2
:102990009F0751F74FBF8FE594E00197F1F700C013
:1029A0000000089580917703811110C08091D800B4
:1029B00080618093D8008AE18A95F1F700C0809108
:1029C000D90080FF0AC081E08093770381E0909175
:1029D0007703913009F080E0089582E080937703D7
:1029E0000E9470051092F104F1CF0E94D214882346
:1029F00059F0E091D804F091D904309729F0019072
:102A0000F081E02D0995089580E008950F931F93BC
:102A10000E94D214882329F00E94DD061F910F9195
:102A200008950E94DD060091A2031091A303209156
:102A3000A4033091A503600F711F821F931FEECF77
:102A4000CF92DF92EF92FF926B017C010E94D21431
:102A50008823A1F02FB7F8946091DD047091DE0413
:102A60008091DF049091E0042FBF6C197D098E09DD
:102A70009F09FF90EF90DF90CF9008950E94061578
:102A8000F4CFCF93DF93C6E4D2E060E0CE010E94A2
:102A9000C6352196C11584E0D807B9F7DF91CF91EB
:102AA00008950F931F93CF93DF93142F022F843039
:102AB00020F5643010F590E1899FE001112484E055
:102AC000689FB0011124C60FD71FCA5FDD4F82E097
:102AD00090E0442311F090E080E0632F8C0F9D1F65
:102AE0000E94C63583E090E0112311F081E090E070
:102AF000602F8C0F9D1F0E94C635DF91CF911F91D3
:102B00000F9108951F93CF93DF93122F8430E0F439
:102B10006A30D0F44630C0F4C42FD0E0CC0FDD1FB3
:102B20009CE0699FC00DD11D112498E7899FC00DBD
:102B3000D11D1124632FCE0186960E94C635612FC8
:102B4000CE0187960E94C635DF91CF911F910895DF
:102B5000B0E0A0E0EEEAF5E10C94E53481E0E82E87
:102B600088E0F82E01E216E0C0E05801D0E015C080
:102B7000F401259134914D2D6D2F8C2F0E948215DB
:102B800082E0880E911CD39486E0D812F1CF8CE0BD
:102B9000A80EB11CDF5FDA3019F04501D12CE8CF67
:102BA0006701D0E0F6012591349141E06D2F8C2F23
:102BB0000E945115F60132962591349140E06D2F17
:102BC0008C2F0E94511584E0C80ED11CDF5FD430D9
:102BD00049F780E1E80EF11CCF5F08581F4FC43061
:102BE00009F0C3CFCDB7DEB7ECE00C940135CF933D
:102BF000C82F6FEF811162E282E290E00E94C63539
:102C00006FEFC11163E083E290E00E94C6356FEF81
:102C1000C11160E184E290E00E94C635CF91089531
:102C200080E00E94F71560E085E290E00E94C635E2
:102C30000E94A8150E94411581E00E94F715089591
:102C4000FF920F931F93CF93DF93F42E843070F590
:102C5000643060F520E1829F8001112434E0639F9D
:102C6000B0011124060F171F0A5F1D4F82E090E08C
:102C7000442311F090E080E0800F911F0E94A8355E
:102C8000C82FD0E0DC2FCC2783E090E0FF2011F0AC
:102C900081E090E0800F911F0E94A8359E01282BB3
:102CA000C901CDB7DEB7E5E00C94083590E080E0CF
:102CB000F8CF0F931F93CF93DF93843030F56A30B2
:102CC00020F5463010F5C42FD0E0CC0FDD1F2CE0EE
:102CD000629FC00DD11D112438E7839FC00DD11D07
:102CE0001124CE0186960E94A835082F10E0102FDF
:102CF0000027CE0187960E94A8359801282BC9018C
:102D0000DF91CF911F910F91089590E080E0F8CF6F
:102D10007A3048F4663070F4843060F4462F672FC0
:102D20000E94591608957D3F41F4643018F441E043
:102D3000843050F090E080E008957C3FD9F7643013
:102D4000C8F78430B8F740E00E9420160895CF926B
:102D5000DF92FF920F931F93CF93DF936C0100914B
:102D6000B40380916A03082BC3E0D0E010E0FC2E8E
:102D7000C8010C2E02C0959587950A94E2F780FD54
:102D80000CC02197A0F7F12C8F2DDF91CF911F91CF
:102D90000F91FF90DF90CF900895B6018C2F0E9485
:102DA00088160E947D11019761F3EECFCF93DF93D8
:102DB000EC010E94A716BE010E9488160E947D1198
:102DC000DF91CF910895FC0183819481892B29F0B3
:102DD0008081918189238F3F51F480E00895843F61
:102DE000E1F717C0883EA8F0813FB9F712C0808193
:102DF00091810E94D61692959F70963099F358F45F
:102E0000925F9F70923048F7803F19F040F7883EFC
:102E100020F781E008959A5FF4CF82E290E00E946B
:102E2000A835823289F483E290E00E94A83583308D
:102E300059F484E290E00E94A83591E0803109F0D5
:102E400090E0892F8170089580E0FCCF46E050E04B
:102E50006CE170E08FEF94E00E94B63510920904A7
:102E600008954F925F926F927F928F929F92AF924E
:102E7000BF92CF92DF92EF92FF9260910304709124
:102E8000040480910504909106040E9420156B01B2
:102E90007C010E9406154B015C0180920304909214
:102EA0000404A0920504B0920604A091DA03EAEDAE
:102EB000F3E08A2F90E04FEF5FEF60E070E04C1995
:102EC0005D096E097F09A91328C08093DA038091F8
:102ED0000704811135C09091FF04892F837019F088
:102EE000892F8695869590914601913009F441C0CD
:102EF000992341F1923009F43FC0933009F43FC067
:102F0000FF90EF90DF90CF90BF90AF909F908F9009
:102F10007F906F905F904F900895218D328D2901A1
:102F2000712C612C441555056605770520F48150F8
:102F30009F5F3296C8CF2C0D3D1D328F218FF8CF69
:102F400080E0D1CF109248018092FB049092FC0463
:102F5000A092FD04B092FE0489E2EAEDF3E0A5E060
:102F6000B5E001900D928A95E1F781E080934601EA
:102F7000C7CF0E94410EC4CF0E947507C1CF809178
:102F8000090481110E9426176091FB047091FC04D2
:102F90008091FD049091FE040E942015603171051E
:102FA0008105910508F4ACCF10924601A9CF80931A
:102FB000030590910904962B9093090490910804BD
:102FC00090FF16C029E531E0662311F02BE531E0D2
:102FD0001F928F933F932F9382E096E09F938F935E
:102FE0000E9467050F900F900F900F900F900F9019
:102FF00008958091030520E1382F321B08F430E05A
:10300000832F61E00E94D71708958091030520E186
:10301000382F320F08F43FEF832F61E00E94D7175B
:1030200008953091FF04337071F18093000560932F
:103030000105493708F048E740930205309109043B
:10304000322B309309043091080430FF1CC050E04B
:103050009927211119C029E531E05F934F931F9201
:103060006F939F938F933F932F938FED95E09F9353
:103070008F930E9467058DB79EB70A960FB6F89496
:103080009EBF0FBE8DBF08952BE531E0E6CFEFEF79
:10309000F4E0438120E1421B08F440E0818121E01B
:1030A000628190E00E9411180895EFEFF4E04381EF
:1030B00020E1420F08F44FEF818121E0628190E02E
:1030C0000E9411180895EFEFF4E0628120E1621B85
:1030D00008F460E0818121E0438190E00E941118B2
:1030E0000895EFEFF4E0628120E1620F08F46FEFE2
:1030F000818121E0438190E00E9411180895EFEF53
:10310000F4E0818121E0438162818850990B0E9423
:1031100011180895EFEFF4E0818190E021E0438100
:10312000628108960E94111808959091FF0493708F
:1031300051F1811129C094609093FF0410924601CF
:1031400080910904862B809309048091080480FFF4
:103150001AC02091FF042695269589E591E0662303
:1031600011F08BE591E01F922F939F938F9385EC45
:1031700095E09F938F930E9467050F900F900F909B
:103180000F900F900F900895813210F09068D4CF77
:10319000880F880F982BD0CF8091FF048695869555
:1031A000815009F480E261E00E94951808958091B1
:1031B000FF04869586958F5F813208F081E061E09B
:1031C0000E94951808959091FF04292F237031E0F3
:1031D00023279C7F922B9093FF041092460190919D
:1031E0000904982B909309049091080490FF14C04F
:1031F000811113C089E591E01F922F939F938F93C4
:103200008EE895E09F938F930E9467050F900F9033
:103210000F900F900F900F9008958BE591E0ECCFF9
:103220008091080480FF08C08AE695E09F938F9301
:103230000E9467050F900F9085E38093FF048091B3
:103240004B0190914C01A0914D018093000590930A
:103250000105A09302058FE7809303058FEF80930C
:1032600004050E9426170895B0E0A0E0EAE3F9E122
:103270000C94E4347C015B01842E752E69018091ED
:10328000780301E010E08A3010F40AE010E0C1E0B9
:10329000D0E0B501C701F6010995982E811114C03F
:1032A00021960C171D07B4F48091080480FF0CC010
:1032B0007F928F928DEA92E09F938F930E94670591
:1032C0000F900F900F900F90892DCDB7DEB7EDE0E6
:1032D0000C940035CC9F9001CD9F300D300D112402
:1032E00090E080E045E34A95F1F700000196281749
:1032F0003907C1F7CECFCF93C82F8091B60382FB99
:10330000992790F99C17F9F0C0FB82F98093B603D6
:103310006091B5037091B60384E090E00E94E435BB
:1033200082E00E948C138091080480FF0CC01F92E1
:10333000CF9385E392E09F938F930E9467050F9050
:103340000F900F900F90CF91089590E080E00E9431
:10335000B035873E9E4F19F40E940D17089580E006
:103360000895AFE0B0E0E7EBF9E10C94E4348E01AE
:103370000F5F1F4F8AE0D8011D928A95E9F786E317
:10338000C82E81E0D82EF12CE12CAA24A394B12CD4
:1033900026E3822E21E0922EF60181916F018F3F6C
:1033A00009F442C0F894E82FE295EF70F0E021A113
:1033B0008F70A50102C0440F551F8A95E2F7CA011C
:1033C000922F982B91A392A18095892382A3789420
:1033D00000C0E0E3F1E0712C31E021912F3F09F4CE
:1033E0006BC0A22FA295AF70B0E090968C9190E048
:1033F0002F7002C0959587952A95E2F780FD5CC0F5
:10340000832F782A330F8E169F0639F7F6013197EE
:1034100080818F3F11F00E94811050EA5A95F1F798
:10342000F801EE0DFF1D70828FEFE81AF80A95E0A3
:10343000E916F10409F0B0CF4AE050E0B80188EA9B
:1034400093E00E94EA35009741F02AE0F801A8EAEB
:10345000B3E001900D922A95E1F70091B303892B17
:1034600069F181E080936F030E94E90690936E03F7
:1034700080936D0380916D0390916E030E94CE0640
:10348000059700F110E000531C4F45E050E068EA5A
:1034900073E0C8010E94EA35C12C892B51F085E008
:1034A000E8EAF3E0D80101900D928A95E1F7CC2487
:1034B000C39410926F0307C080E0A3CF80916F0385
:1034C0008111D8CFC12C0E94D214D82EE091B30321
:1034D000DE011B967D01882309F499C085E01D92C9
:1034E0008A95E9F70E2F10E000531C4FB090780337
:1034F000B9E0BB1508F447C023E13AE242E651E0E7
:10350000B701C8010E943419882309F45EC02AEB70
:1035100039E24FE651E0B701C8010E94341988230F
:1035200009F453C02FEB38E247E751E0B701C80177
:103530000E943419882309F448C02DE538E242E896
:1035400051E0B701C8010E9434198823F1F1F9E074
:10355000FB1508F453C0109278038091B20390E0F9
:1035600045E050E0B70180539C4F0E94EA3521E0CE
:1035700020937603892BE1F4D12C8D2D8C292F9665
:10358000EDE00C94003580917003909171030E94DE
:10359000CE06843F914008F0AFCF80917603882318
:1035A00059F385E0D7011D928A95E9F710927603C9
:1035B000A091B203B0E0A053BC4F85E0FE013B9662
:1035C00001900D928A95E1F7D8CF809178038F3FD3
:1035D00031F08F5F809378038A3008F4BECF0E9469
:1035E000E90690937103809370038091080480FF33
:1035F000D4CF87E792E00E94CE04CFCF8091080419
:1036000080FFA9CF84E692E00E94CE04A4CFF0E030
:10361000E053FC4F85E0ABE8B3E001900D928A9552
:10362000E1F765E070E08BE893E00E945907809332
:103630008A034091CA0350E06091C90370E06F5360
:103640007C4FC7010E94F7358B859C859093920330
:103650008093910362E070E0C7010E945907809354
:1036600090038090930390909403A0909503B09062
:1036700096038091720390917303A0917403B091AB
:10368000750388169906AA06BB06D1F080927203CC
:1036900090927303A0927403B09275030E94D214A7
:1036A00081110EC00E94DD06861A970AA80AB90A7F
:1036B0008092A2039092A303A092A403B092A503C8
:1036C00086E0E7E9F3E0AFEFB4E001900D928A9570
:1036D000E1F710919D03112349F0809107048111B6
:1036E00005C00E94410E80E00E94750710930704F8
:1036F00044CF0F931F93CF93DF93809168039091F2
:103700006703892B8093020390916903992391F0B9
:10371000892B8093020320E084E093E0FC01319147
:10372000CF0131112F5FF3E08A309F07B9F72111E4
:103730000E949E1248E050E06FE573E082E093E063
:103740000E94EA35892B09F441C088E0E2E0F3E009
:10375000AFE5B3E001900D928A95E1F7E091D804CE
:10376000F091D904309791F10280F381E02D82E04D
:1037700093E009958091080482FF28C080FF04C06F
:1037800082E592E00E94CE04D0E0C0E00CE412E0BA
:103790008091080480FF0EC0FE01EE5FFC4F808127
:1037A0001F928F931F930F930E9467050F900F90A6
:1037B0000F900F902196C830D10551F780910804E1
:1037C00080FF04C08AE492E00E94CE04DF91CF9192
:1037D0001F910F91089510926803E4E0F3E086E0F2
:1037E000DF011D928A95E9F790E080E00E9434079E
:1037F00090E080E00E940F07109267030E94791BFF
:103800000895AAE2B0E0E7E0FCE10C94EE3483EF27
:1038100094E02091F100DC012D93CD01B4E08B3FC9
:103820009B07B9F78091F404833009F472C0B8F4AF
:10383000813009F449C0823009F4B3C08091E800B6
:1038400083FF91C28091F3049091F4049A3008F0C0
:103850008AC2E92FF0E0ED5DF94C0C9469358A30AD
:1038600009F48EC08B3009F471C0893039F780912A
:10387000F304813219F78091F7049091F8040097CE
:1038800011F00297D9F68091E800877F8093E800D5
:103890008091E80082FF38C09091F3008091F2009F
:1038A000029731F48091F100813011F0863021F4DB
:1038B0008091F1008093E6048091E8008B778093FB
:1038C000E8000E94C005BACF8091F304813A09F064
:1038D000B5CF8091E800877F8093E8008091F7045E
:1038E0009091F804892B61F468E087EE94E070E031
:1038F0000E946C068091E8008B778093E8009ECF51
:1039000060E090E080E0F3CF8091F1048111C0CFBE
:1039100095CF8091F304813A09F090CF8091F7041C
:103920009091F804892B09F089CF8091E800877F76
:103930008093E8008091E80080FFFCCF80914701F0
:103940008093F1008091E8008E77B9CF8091F304E5
:10395000813209F073CF8091F7049091F804892B9C
:1039600009F06CCF8091E800877F8093E8000E9487
:10397000C0058091F504809347010E94EB1B5ECF48
:103980008091F304813209F059CF8091E800877F5C
:103990008093E8000E94C0058091F6048093E504BE
:1039A0004DCF8091F304813A09F048CF8091E8002F
:1039B000877F8093E8008091E80080FFFCCF8091B2
:1039C000E504BECF803899F0823809F0CCC18091EF
:1039D000F7048F70873008F0C6C18093E9008091AA
:1039E000EB0085FB882780F91092E90006C08091E2
:1039F000EF049091F004911182609091E800977F1C
:103A00009093E8008093F1001092F1008091E8001B
:103A10008E77A5C1882309F493C1823009F0A3C130
:103A20008091F504811196C18091F7048F702FEF7A
:103A3000280F263008F097C18093E9002091EB0011
:103A400020FF88C1933031F48091EB008062809335
:103A5000EB0080C19091EB0090619093EB0021E02E
:103A600030E001C0220F8A95EAF72093EA00109215
:103A7000EA008091EB008860EACF811174C1109157
:103A8000F5041F778091E3008078812B8093E30019
:103A90008091E800877F8093E8000E94C0058091B4
:103AA000E80080FFFCCF8091E30080688093E30012
:103AB00082E0111183E08093F10455C18058823077
:103AC00008F051C12091F5043091F6042C3DE3E05B
:103AD0003E07A1F583E08A838AE289834FB7F89491
:103AE000DE01139620E03EE051E2E32FF0E0509338
:103AF0005700E49120FF03C0E295EF703F5FEF7045
:103B00008E2F90E0EA30C0F0C7968D939D932F5F83
:103B1000243159F74FBF8091E800877F8093E800F8
:103B20006AE270E0CE0101960E946C068091E80086
:103B30008B778093E80017C1C096E7CF8091F70498
:103B40009091F804432F55274330510509F44AC09A
:103B500078F54130510509F47AC08BE790E0E5E54E
:103B6000F8E04230510509F0FEC02091E800277FBF
:103B70002093E8002091F9043091FA04821793070A
:103B800008F49C0140E02115310509F065C04111A0
:103B900063C08091E80082FDC9CF8091F104882341
:103BA00029F2853019F28091E80083FFF2CFBECF71
:103BB0004132510509F43CC04232510509F0D3C0ED
:103BC0008430910508F0CFC0FC01EE0FFF1FE851D3
:103BD000FE4F0190F081E02D8C519E4FDC018C91C5
:103BE00090E01AC0332721303105D1F0211531057D
:103BF00061F02230310509F0B6C0E2EEF8E0E49160
:103C00008E2F90E0E2EEF8E007C0ECE0F9E0E491FE
:103C10008E2F90E0ECE0F9E0009709F4A4C0A5CF66
:103C2000ECEFF8E0E4918E2F90E0ECEFF8E0F4CFC9
:103C30008430910508F097C0880F991FFC01E0516E
:103C4000FE4F0190F081E02D89E090E08ECF82E17F
:103C500090E0E0EDF8E089CF8091F104882309F449
:103C600065CF853009F462CF8091E80083FD5ECF97
:103C70008091E80082FD8DCF8091E80080FF83CFA6
:103C80009091F3008091F2002115310519F08830F0
:103C9000910550F041E0089709F040E08091E8007C
:103CA0008E778093E8006FCF44914093F100319676
:103CB000215031090196E8CF803809F054C0809135
:103CC000E800877F8093E8008091F2048093F10000
:103CD0009DCE811148C01091F504123008F043C008
:103CE0008091E800877F8093E8001093F2040E949F
:103CF000C005112311F084E005C08091E30087FD29
:103D0000FACF81E08093F10442E061EC81E00E940F
:103D1000DF0542E261EC84E00E94DF0542E261ECF3
:103D200082E00E94DF0542E260EC83E00E94DF0552
:103D300042E261EC85E00E94DF058091F10413C04E
:103D40008091F504813079F481E0933009F080E0CE
:103D50008093F0041092E9008091E800877F8093BF
:103D6000E8000E94C0058091E80083FF0AC08091AE
:103D7000E800877F8093E8008091EB008062809369
:103D8000EB00AA96E3E00C940A350E94EB1B2FEFA0
:103D900084E39CE0215080409040E1F700C00000A7
:103DA00088E19CE00FB6F894A895809360000FBE60
:103DB00090936000FFCF882321F00E94A4120E94FC
:103DC000791B0895882339F090916803982B90937C
:103DD00068030E94791B0895882391F19CEF980F46
:103DE000913A80F4E4E0F3E02AE033E09191891322
:103DF00003C0DF0111971C922E173F07B9F70E94ED
:103E0000791B089590E2980F983050F4877091E0F4
:103E100001C0990F8A95EAF7892F0E94A412EFCF6B
:103E20009BE5980F933028F490E080E00E943407DF
:103E30000895885A8B3120F490E080E00E940F07AB
:103E40000895CF93C82F8823B1F08CEF8C0F813A5F
:103E500000F5E4E0F3E08AE093E0DF012D91C21782
:103E600061F08A179B07D1F76C2F82E093E00E94E4
:103E7000F5060E94791BCF9108952191C21303C0CA
:103E8000DF0111971C928E179F07B9F70E94791BCB
:103E9000EBCF80E28C0F883068F4C77021E030E00F
:103EA00001C0220FCA95EAF780916803822B8093A4
:103EB0006803DFCFEBE5EC0FE33040F4F0E0E357CD
:103EC000FE4F808190E00E943407D5CFC85ACB3195
:103ED00090F6EC2FF0E0EE0FFF1FE057FE4F8081D1
:103EE00091810E940F07C7CF1F93CF93DF93182FA5
:103EF000D0E0C0E0893311F4C0E5D0E0812F0E940A
:103F0000211F209739F4812F0E94EC1EDF91CF9161
:103F10001F9108958FE99FE00197F1F700C000001D
:103F20002197EFCF0F931F93CF93DF93C62FD42FFB
:103F3000022FFC0182818823A9F0609330050E9442
:103F4000E90690932F0580932E05C77081E001C08C
:103F5000880FCA95EAF70E94E21EDF91CF911F9168
:103F60000F91089580913005681332C080912E051D
:103F700090912F050E94CE06883C910548F510E2ED
:103F80001D0FCD17B9F080E28C0F883040F4C77058
:103F900081E001C0880FCA95EAF70E94DB1E183045
:103FA00048F481E09D2F977001C0880F9A95EAF739
:103FB0000E94E21E802F0E94741F183070F6D77086
:103FC00081E001C0880FDA95EAF70E94DB1EC5CFB9
:103FD000C77081E001C0880FCA95EAF7F6CFA8E064
:103FE000B0E0E5EFFFE10C94E1348C01DC011396C5
:103FF0008D919C911497892B39F08C9111969C91FD
:1040000089238F3F09F021C52896E0E10C94FD3407
:104010000E94A716F82E682F89819A810E94421368
:1040200069817A818F2D0E9488167C01F801828136
:10403000882309F43AC1C70197578038910508F0E1
:1040400071C5FFE0FE1508F489C08FEF93E00E9470
:10405000A835811183C066E4A62E62E0B62EE11079
:1040600047C0FE01339686E0DF011D928A95E9F78D
:104070005AE0452E7501BFEFEB1AFB0AC5010E94FD
:10408000A83589831A82882309F468C0813009F031
:1040900077C06501E2E0CE0ED11CC7010E94A835B1
:1040A0008A83882309F45AC09FEF980F933070F5E4
:1040B000F3E0AF0EB11CC6010E94A8358B838823A4
:1040C00009F44CC01C82DE0111967D01F7012081AC
:1040D000222381F2213009F093C0918182819130B5
:1040E00009F050C0F2E0EF0EF11C0E94741F51C0A5
:1040F000A11424E0B20691F1C5010E94A8358111F6
:1041000001C0EA943FEFA31AB30AA9CF5601843045
:10411000D1F642E0E42EF12C56012FEFA21AB20A9A
:10412000C6010E94A835E1E0F0E0EC0FFD1FEE0DA6
:10413000FF1D8083882391F08C3741F4E2E0F0E0AA
:10414000EC0FFD1FEE0DFF1D1082BDCF3FEFE31AF8
:10415000F30A650187E0E816F104F1F680915E0349
:10416000877009F451CFF8018281882309F44CCF7C
:104170008091B60382FF48CF82E00E948C1344CF27
:104180005701A1CF923049F422E0E20EF11C0E94C7
:10419000211FEFEFEE1AFE0A99CF933031F432E08F
:1041A000E30EF11C0E94EC1EF4CF943021F08FEF4F
:1041B000E81AF80AEECF92E0E90EF11C30E020E0B8
:1041C000B7016F5F7F4FD70111964C918053990BC8
:1041D0008A30910550F021503109D8F2EFE9FFE023
:1041E0003197F1F700C00000F6CF429EF001439EE8
:1041F000F00D11249C012E0F3F1F842F7B01E0CF77
:10420000E22FF0E0EE56FE4F5490822F8695869571
:10421000869590E0FC01EE57FE4F64902770712C5C
:10422000022E02C0759467940A94E2F731E063228B
:104230007724FC01EE58FE4F8490912C022E02C090
:10424000959487940A94E2F7A1E08A229924FC01CC
:10425000EE59FE4FC490D12C02C0D594C7942A9534
:10426000E2F7B1E0CB22DD246114710419F081EE94
:104270000E94211F8114910419F086EE0E94211FD3
:10428000852D0E94741F8114910419F086EE0E94FE
:10429000EC1E6114710419F081EE0E94EC1EC11431
:1042A000D10409F476CF8CE220CFF701E851FC4726
:1042B000E730F10508F01DC4E35DF94C0C94693555
:1042C00026E241EE61EEC8010E94921F47CF27E22D
:1042D00045EE65EEF8CF26E241EE60EEF4CF27E240
:1042E00045EE64EEF0CF26E241EE62EEECCF27E23F
:1042F00045EE66EEE8CF28E241E0EBCF8091B503D2
:1043000081608093B50395C08091B60388608093E7
:10431000B6038FC08091B5038260F3CF8091B5035F
:104320008460EFCF8091B5038860EBCF8091B603B6
:104330008160EDCF8091B6038260E9CF8091B503B3
:104340008061DFCF8091B5038062DBCF8091B503C0
:104350008064D7CF0E94EB1B8091B5038068D1CFDA
:104360008091B5038C60CDCF8091B6038360CFCFB1
:104370008091B5038E7FC5CF8091B603877FC7CF6D
:104380008091B5038D7FBDCF8091B5038B7FB9CF71
:104390008091B503877FB5CF8091B6038E7FB7CF6D
:1043A0008091B6038D7FB3CF8091B5038F7EA9CF67
:1043B0008091B5038F7DA5CF8091B5038F7BA1CF71
:1043C0000E94EB1B8091B5038F779BCF8091B50343
:1043D000837F97CF8091B6038C7F99CF8091B5036F
:1043E00082FB992790F921E0922790FB82F990FBBC
:1043F00083F987CF8091B603982F909591708E7F27
:10440000892B90FB81F983CF9091B503892F8F7B06
:1044100096FF806476CF0E94EB1B9091B503892FA5
:1044200097FB87F980586DCF61E08EE090E00E94A5
:10443000C6356091B5037091B60384E090E00E94A8
:10444000E4350E94EB1B8ACE60E0EFCF9091B5037C
:10445000892F8F7E94FF806154CF9091B503892F6F
:104460008E7F90FF81604DCF9091B603892F877F1B
:1044700093FF88604CCF85E347C3F7E7EF16FCE76F
:10448000FF0609F0F5C281E00E94A81343E062E054
:1044900081E00E945F1362CE809168038272F7010F
:1044A000E052F847E531F10508F04AC0EC5CF94C00
:1044B0000C94693581E00E94E31850CE4CEC58E131
:1044C00067ED78E10E946F0749CE47ED58E16CEC4B
:1044D00078E1F8CF4FE758E16AE878E1F3CF4AE8AE
:1044E00058E16FE778E1EECF43E658E161E778E124
:1044F000E9CF41E758E163E678E1E4CF47E458E1EA
:1045000065E578E1DFCF45E558E167E478E1DACFAA
:1045100049EF57E165E078E1D5CF45E058E169EF33
:1045200077E1D0CF61E081E00E94951817CE61E07D
:1045300085E0FACF61E08DE0F7CF61E082E1F4CF72
:1045400027E7E2162CE7F20609F456C038E7E3162F
:104550003CE7F30609F454C0D80112968C911297E7
:10456000ED90FC90882309F485C0C7010E94A7162E
:10457000D82E682FC7010E944213B7018D2D0E94CB
:1045800088160E947D117C01882EF801D280B580AA
:10459000B2943FE0B32280915E038770F1F0AD2CBE
:1045A000DD20E1F08F2D807F803451F080E28E0D90
:1045B000883098F0B11004C08F2D807E803269F071
:1045C0008091B60382FF09C082E00E948C13809123
:1045D0005E038770AA24A3948111A12C9F2C92942E
:1045E0002FE09222FBE0F91508F4B6C0E92DF0E0C7
:1045F000E75BF94C0C94693581E00E947F1346CF4C
:1046000082E0FBCFFBE5EF16FCE7FF0689F12CE526
:10461000E2162CE7F20611F13AE5E3163CE7F30661
:1046200009F09ACF81E021C090910804892F8E7FF4
:1046300090FF81608093080480FF05C084E292E0CF
:104640000E94CE048BCD82E192E0FACF6FEF7FEF34
:1046500090E080E00E94E4350E94C51E8091B60380
:1046600082FB882780F991E089270E947B1974CF0B
:1046700080E0FBCFC7010E94FC12D82E7ECF2F2DE9
:104680002F70C22E8F2D807F19F0C29490EFC92217
:10469000DD20B9F0CC2069F080E28E0D883010F07A
:1046A000811009C080916803C82AC09268030E94E3
:1046B000791B8E2D4FC080916703C82AC092670373
:1046C000F6CF8E2D0E94EC1ECC2009F445C080E26E
:1046D0008E0D883010F0811004C08C2D0E94A41221
:1046E00006C0C09480916703C822C09267030E94ED
:1046F000791B32C03F2D3F70C32E8F2D807F8032BB
:1047000019F0C29480EFC8228820A1F081E08816B9
:1047100009F46FC0DD2009F479C0BB2009F46FC033
:10472000D80115968C91159780FFC3CF8F70159681
:104730008C9365C02091B60322FD34C0DD2061F169
:10474000CC2039F080916803C82AC09268030E9487
:10475000791B80E00E94211FA92DA850BB0B149744
:1047600010F40E94F514AA2009F44ECC80915E0347
:1047700080FD4ACCF80112828595859585950E9429
:10478000A813C8010E94EF1F80915E03859585954F
:1047900085950E947F1338CC80E00E94EC1ECC20CF
:1047A000D9F29BCFDD2099F0909169038C2D892B54
:1047B000B11003C00E94E21ECFCFA1E0BA12FACF1F
:1047C00022FFCACF981741F280936903C5CFB11079
:1047D00006C00E949E128C2D0E94DB1EBDCFB1E050
:1047E000BB1609F4B9CF8C2D0E94DB1E0E949E12CD
:1047F000B3CFDD2031F0E5E0EB1508F4ADCF8C2D23
:10480000D9CFF4E0FB1508F4A7CFE5CFBB2019F30F
:10481000B9E38B1213C1EFEFF7EE23E0E150F04064
:104820002040E1F700C0000009C18F2D86958695D4
:10483000837061F0813009F08FCFC7019370D11080
:1048400002C080E090E00E940F0786CFC7019370FE
:10485000D11002C080E090E00E9434077DCF8F2D00
:10486000837091F5D11078CF4E2D429546954770C3
:10487000440F440F8E2D8F70042E01C0880F0A94B0
:10488000EAF72E2D2071E4FE07C02FE030E001C0D2
:10489000220F4A95EAF720953F2D369536953370CD
:1048A000323069F050F440916A03313029F0822BA4
:1048B00084230E94B41350CF842B822BFACF282B51
:1048C00080916A038227F5CF8695DD2011F08F2D28
:1048D0008170882309F440CF4E2D4295469547704C
:1048E000440F440F8E2D8F70042E01C0880F0A9440
:1048F000EAF72E2D2071E4FE07C02FE030E001C062
:10490000220F4A95EAF720953F2D3695369533705C
:10491000323069F050F44091B403313029F0822BE9
:1049200084230E945C1318CF842B822BFACF282B70
:104930008091B4038227F5CF3F2D3F70F32EDD2009
:1049400029F0832F0E94A8138E2D34CF8E2D0E9424
:10495000DB1E8F2D0E947F13FFCE8E2D92EF8916C6
:10496000B1F1981570F0A0EF8A16D1F0B1EF8B1667
:1049700091F0DD2009F45DC0B1109BCE8F2D8F71B9
:104980002AC0E3EF8E1651F1F4EF8F12F2CF80912F
:10499000B60382FD2FC08F2D8F71DD20D9F21BC091
:1049A000DD2081F024E02B1508F4D6CE2F2D2F71B9
:1049B00081E090E001C0880F2A95EAF79091B40356
:1049C0008927AFCF35E03B1508F4C6CEEFCF8F2D4A
:1049D0008F71D110BFCF0E94A813BECE80E0DD2022
:1049E00009F49FCF9F2D9F7181E001C0880F9A9598
:1049F000EAF797CFDD2091F08F2D8F71F82E0E946E
:104A0000A8138091B60382FF07C0A8E0FA9EC001F8
:104A10001124836080935E038F2DDDCF81E00E949F
:104A20008C13B1E0BB1508F097CE82E00E948C1386
:104A300093CEBB2039F0893309F4EDCE8E2D0E9440
:104A4000EC1E8ACE8F2D8F7185CF85E0F801DE01B7
:104A5000119601900D928A95E1F7D80112962C914A
:104A600089819A812111D4CA0E94FC12F82ED8CAD9
:104A700082E0B8E7EB16BCE7FB0609F405CD83E05E
:104A8000E8168CE7F80609F4E1CD08F0BBCDA1E00B
:104A9000EA16ACE7FA0609F4DFCD08F0C5CDE1145B
:104AA000ECE7FE0609F058CD0E94EB1B8FEF94E374
:104AB000ACE081509040A040E1F700C000000E94AF
:104AC0008714E6E1EE16ECE7FE0609F0D6CC8091FD
:104AD00068038A7A91E009F490E090930A0369E20E
:104AE000811165E382E093E00E94F5060E94791B44
:104AF00035CBF6E1EF16FCE7FF0609F0CDCC80914F
:104B00000A038111B8CC89E2E4E0F3E02AE033E063
:104B10009191891303C0DF0111971C922E173F0753
:104B2000B9F7E4CFF701E851FC47E730F10508F4A5
:104B3000C3CB10923005C7019057839708F0C1CFBF
:104B400084E090E00E94B0359093B6038093B50363
:104B5000F701E150F047E232F10508F0CFCBEB5A14
:104B6000F94C0C9469351F93CF93DF9380912B03FD
:104B7000807F09F04BC080912803882309F446C048
:104B800080915D03C0912C0340912603509127032F
:104B90006091290370912A03D42FD52316E0C817FA
:104BA000A9F190E061157105A9F1DF3F99F1189F16
:104BB000F001199FF00D1124DF01A35DBC4F119688
:104BC0002C911197251326C02C91241323C01296E3
:104BD0002C91129721111EC013962D913C91261BEA
:104BE000370B283C3105B0F480912B038F70806126
:104BF00080932B03EE5CFC4F80818F7080618083FB
:104C000086E293E00E94EF1F0E94CB12DF91CF91CA
:104C10001F91089501968770C2CFA1E1B0E0E3E152
:104C2000F6E20C94E5348C0185E0F801DE011D9676
:104C300001900D928A95E1F7F801E28086E2882ED4
:104C400083E0982E4091290350912A034115510584
:104C500009F430C19091260320912703892F8223E4
:104C60008F3F09F427C1D080C180A380B480F09029
:104C70002803B501641B750BFF2009F4E7C0809180
:104C80002B03382F307F683C710508F0ABC0311121
:104C900078C0FE2C2C1114C09D1112C0E11010C060
:104CA0008F70806180932B03C4010E94EF1F80915D
:104CB0002B03F80185838F2D6196ECE00C94013570
:104CC000A114B104C9F18D2D8C218F3FA9F181E090
:104CD0008E2580FF05C04E2D6C2D8D2D0E94AB12B0
:104CE000A114B10459F18D2D8C218F3F39F181E050
:104CF0008E25F82FF170BF2E80FF39C04E2D6C2D00
:104D00008D2D0E94AB12A82E811131C0DD86CE867A
:104D10008D859E850E94D616292F22952F702430CE
:104D200078F49F702230A8F09923B9F0F8019581AA
:104D3000907F99F4FA2CBFCF80E0CBCF80E0D9CF21
:104D40002A5F2F70223068F0C8010E94EF1FAB2C41
:104D5000F1CF992311F0882369F3805E883050F3F6
:104D6000F3CF803F38F3815F833070F7E3CFEE20DD
:104D700009F4A1CF80912B03816080932B03F12C48
:104D80009ACF2C1105C09D1103C0EE2009F477C005
:104D9000C8010E94E316882309F1EE20F9F0809102
:104DA0002B03803270F0209126033091270338873F
:104DB0002F831986BB86AA868C87CE0107960E9410
:104DC000EF1F86E0F801A6E2B3E001900D928A950C
:104DD000E1F70E94B325FF24F3946DCFC8010E9430
:104DE000EF1FF9CF31110AC086E293E00E94EF1F56
:104DF00086E0F40111928A95E9F7C1CF2C110EC01B
:104E00009D110CC0E1100AC08583C8010E94EF1FEC
:104E100086E0F40111928A95E9F74DCFC8010E940E
:104E2000E3168823D9F2EE20C9F280912B03803259
:104E300040F220912603309127033A8329831B8275
:104E4000BD82AC828E83CE010196B9CF683C7105DC
:104E5000F8F6FE2CEE2011F22C111EC09D111CC084
:104E600080912B0380FD0FC0982F907F61F0858388
:104E7000903F31F0982F907F905F8F70892B8583C2
:104E8000C8010E94EF1F86E0F801A6E2B3E001909E
:104E90000D928A95E1F70FCFC8010E94E3168111A8
:104EA00090CF80912B03816080932B03C8010E94D7
:104EB000EF1F01CFEE2009F491CFC8010E94E31645
:104EC000F82E882309F48ACF86E0F801A6E2B3E041
:104ED00001900D928A95E1F7809126039091270326
:104EE0000E94D6160E94B325E6CEA7E1B0E0EBE71C
:104EF000F7E20C94EE344B8B5C8B6D8B7E8B8F8B3F
:104F00006111109267031A8A198A85E0FE0173966F
:104F1000DE011D9601900D928A95E1F786E0FE0173
:104F20003D96DE01179601900D928A95E1F7CE012C
:104F300007960E940D26882359F016E080915D03A4
:104F400090912C03891343C06796E3E00C940A35D3
:104F500086E0FE013796DE01119601900D928A954A
:104F6000E1F78A859B85892B41F38F819885892379
:104F70008F3F19F320912C0330E0C901019687700F
:104F8000992740915D034817190671F40E94EB1BA5
:104F900010922C0310925D0386E0E6E2F3E0DF015D
:104FA0001D928A95E9F7C9CF96E0929FD001939F11
:104FB000B00D1124A35DBC4FFE01319601900D92FE
:104FC0009A95E1F780932C030E94CB12B6CF819F74
:104FD000C0011124835D9C4F0E940D26882309F493
:104FE000B3CF80915D0390E00196877099278093FD
:104FF0005D03A4CFAAE0B0E0E0E0F8E20C94ED3469
:10500000182F062F662339F10E94E9061E832DEF23
:105010002F8321E0288781609A8789874E815F816D
:10502000688579858A850E9475270023C9F00E94CA
:10503000E90619832DEF2A831B8281609D838C836F
:1050400049815A816B817C818D810E9475272A96C6
:10505000E4E00C9409350E94E9061E832CEFD8CFBA
:105060000E94E90619832CEFE6CFA5E0B0E0EBE360
:10507000F8E20C94ED340E94E9068C0180916B03F8
:1050800090916C0380179107A1F08FEF89838A8339
:105090001B820E94E9068160782F9D838C83498161
:1050A0005A816B818D810E94752710936C03009348
:1050B0006B032596E4E00C940935A7E0B0E0E3E645
:1050C000F8E20C94ED3486E0EFEFF4E0DE011196A7
:1050D00001900D928A95E1F7809107048F8347E054
:1050E00050E067E973E0CE0101960E94EA35009135
:1050F0009E0310919F032091A0033091A103EFB76D
:10510000F8944091DD045091DE046091DF047091C9
:10511000E004EFBF401B510B620B730B443651058B
:105120006105710518F411E0892B21F180912901A5
:1051300090912A0186579C4F4091280150E04830B9
:10514000510510F047E050E0BE016F5F7F4F0E94B5
:10515000F73585E090E00E946934182F882351F0DC
:105160000E94DD0660939E0370939F038093A003CB
:105170009093A103812F2796E4E00C940935A4E0D5
:10518000B0E0E5ECF8E20C94EE34409186035091E7
:10519000870360918803709189032FB7F8948091F9
:1051A000DD049091DE04A091DF04B091E0042FBFF4
:1051B000841B950BA60BB70B11E084369105A10556
:1051C000B10570F10E9406156E5F7F4F8F4F9F4FA4
:1051D00069837A838B839C83809121019091220142
:1051E00086579C4F4091200150E04530510510F00A
:1051F00044E050E0BE016F5F7F4F0E94F73584E0CE
:1052000090E00E946934182F882351F00E94DD0637
:105210006093860370938703809388039093890338
:10522000812F2496E3E00C940A354F925F927F928F
:105230008F929F92AF92BF92CF92DF92EF92FF92A6
:105240000F931F93CF93DF930F92CDB7DEB7C62E88
:105250004A015901482E880F5508C2010E9469343D
:10526000782E882309F480C0C20133E0880F991F8B
:105270003A95E1F7FC01E050FF4F438150E04115C2
:10528000510511F041E050E080509F4FFC016481D6
:10529000758166577C4FCE0101960E94F735F40167
:1052A00040815181628173812FB7F8948091DD0430
:1052B0009091DE04A091DF04B091E0042FBF841B25
:1052C000950BA60BB70B84369105A105B10540F4EB
:1052D000B701C8010E9459079981891709F444C090
:1052E0000C2C000CDD08C6010E946934782E811157
:1052F00013C0712C872D0F90DF91CF911F910F91CB
:10530000FF90EF90DF90CF90BF90AF909F908F90E5
:105310007F905F904F900895C60123E0880F991FFA
:105320002A95E1F7FC01E050FF4F438150E0E4167D
:10533000F50608F4A70180509F4FFC016481758138
:1053400066577C4FC5010E94F735B701C8010E941E
:10535000590799818913CDCF0E94DD06F40160833E
:10536000718382839383C6CFA701B801C5010E94D0
:10537000F735C0CFA2E0B0E0E0ECF9E20C94E834FD
:1053800082E0E82EF12C01E913E09E012F5F3F4FF0
:1053900042E853E063E082E00E941529C82E88238A
:1053A00039F100E080E01DC0D090A703D00E2D2D74
:1053B00030E0A9014F535C4F7A01E1E0F0E0EC0FDF
:1053C000FD1FE00FF11D1081FA019081191BB12E14
:1053D0001B149CF0912F17FD90E0191B111118C0A0
:1053E0000F5F9091A6030917F8F281110E949B129A
:1053F0008C2D2296E9E00C940435BA94F701808153
:105400008F5F808360E08D2D0E94FA278C2DE0CF86
:105410001F5FF70180818150808361E08D2D0E94A4
:10542000FA278C2DDBCFA5E0B0E0E9E1FAE20C949D
:10543000E9346B0185E0E82EF12C0BE813E09E01C6
:105440002F5F3F4F4EE753E061E080E00E94152957
:10545000882349F095E0FE013196A9E7B3E0019079
:105460000D929A95E1F795E0E9E7F3E0D601019016
:105470000D929A95E1F72596E8E00C94053567EED4
:105480007EEF90E080E00E94E43560E082E090E012
:105490000E94C63560E083E090E00E94C63510921D
:1054A0006A0360E074E184E090E00E94E43560E02B
:1054B00086E090E00E94C6356FEF87E090E00E94A2
:1054C000C63540E050E0BA0188E090E00E94D8354F
:1054D00060E08DE090E00E94C63540E050E0BA0107
:1054E00088E190E00E94D83560E087E190E00E947A
:1054F000C63540E050E0BA018CE190E00E94D8351A
:1055000070E060E080E290E00E94E43540E050E02E
:10551000BA0188E190E00E94D83580E00E94F7153A
:105520000E94101640E050E0BA018FE090E00E9427
:10553000D83540E050E0BA0183E190E00E94D835D0
:1055400008951F920F920FB60F9211242F933F933D
:105550004F935F936F937F938F939F93AF93BF937B
:10556000CF93DF93EF93FF93D091E900DF708091A9
:10557000EC00C82FC17080FDC0E81092E900809156
:10558000F000877F8093F00078940E94011C1092B5
:10559000E9008091F00088608093F000CD2BCF70FF
:1055A000C093E900FF91EF91DF91CF91BF91AF914F
:1055B0009F918F917F916F915F914F913F912F912B
:1055C0000F900FBE0F901F9018951F920F920FB65D
:1055D0000F9211242F933F934F935F936F937F9379
:1055E0008F939F93AF93BF93EF93FF938091E100CD
:1055F00082FF15C08091E20082FF11C08091E1001E
:105600008B7F8093E1002091E3042F5F822F62E380
:105610000E941635992309F4C0C02093E3048091B9
:10562000DA0080FF28C08091D80080FF24C08091DC
:10563000DA008E7F8093DA008091D90080FFE3C08A
:1056400080E189BD82E189BD09B400FEFDCF81E022
:105650008093F10481E498E00E94CE048091E404F8
:10566000811109C00E9470050E9411068091E2001C
:1056700084608093E2008091E10080FF1BC08091F4
:10568000E20080FF17C08091E2008E7F8093E200ED
:105690008091E20080618093E2008091D800806276
:1056A0008093D80019BC85E08093F10489E498E0E8
:1056B0000E94CE048091E10084FF2FC08091E2001F
:1056C00084FF2BC080E189BD82E189BD89B5982F17
:1056D000917080FFFBCF8091D8008F7D8093D800A0
:1056E0008091E1008F7E8093E1008091E2008F7EC7
:1056F0008093E2008091E20081608093E2008091DB
:10570000F204882309F489C084E08093F1048DE4D5
:1057100098E00E94CE048091F1048091E10083FF23
:105720002BC08091E20083FF27C08091E100877F3A
:105730008093E10082E08093F1041092F204809162
:10574000E1008E7F8093E1008091E2008E7F809364
:10575000E2008091E20080618093E20042E060E03C
:1057600080E00E94DF058091F00088608093F00067
:1057700081E598E00E94CE04FF91EF91BF91AF9137
:105780009F918F917F916F915F914F913F912F9159
:105790000F900FBE0F901F9018951092E304809108
:1057A000E204882309F43BCF8091F1048430C1F4F2
:1057B0009091E9009F702091EC00822F817020FD74
:1057C00080E8892B95E09093E9009091EB0090FFA1
:1057D00004C09091EE0097FD08C08F708093E9009F
:1057E0001092E2041CCF1092F1009091E80095FD18
:1057F000FACF9091E80090FFF0CF9091E8009E776B
:105800009093E800EACF19BC1092F10485E498E087
:105810000E94CE041092E4042ECF8091E30087FD15
:1058200093E09093F10473CF78941F921FB61F9268
:1058300011248F939F93AF93BF938091DD04909138
:10584000DE04A091DF04B091E0040196A11DB11D1A
:105850008093DD049093DE04A093DF04B093E00412
:10586000BF91AF919F918F911F901FBE1F90189570
:105870001F921FB61F9211248F939F93AF93BF93D4
:105880008091DC04811113C08091DD049091DE04CD
:10589000A091DF04B091E0044196A11DB11D809359
:1058A000DD049093DE04A093DF04B093E004BF9185
:1058B000AF919F918F911F901FBE1F901895CDB7EC
:1058C000DEB7AA970FB6F894DEBF0FBECDBF85B77F
:1058D000806885BF85B7806885BF84B7877F84BFB0
:1058E0000FB6F894A895809160008861809360005D
:1058F000109260000FBE80E890E00FB6F89480939D
:105900006100909361000FBE8FEC93E190930103CF
:10591000809300030E9470050E9411068091E200AE
:1059200084608093E20078948091F1048823A1F050
:105930001091E9001F709091EC00892F817090FD0B
:1059400080E8182B1092E9008091E80083FD0E9406
:10595000011C1F701093E90082E084BD93E095BDA7
:105960009AEF97BD80936E001092A2031092A3034A
:105970001092A4031092A5030E940D17811102C07A
:105980000E94101655985D988FE891E00197F1F705
:1059900000C000000E944A0B80933B010E94D21479
:1059A00081110E947D3380913B0192E0811190E052
:1059B0009093C90382E0A82FA91BA093A7039091FD
:1059C0003B018093CA0390913B018093A6034AED6B
:1059D00051E078EDA72E71E0B72E85019A0161E0C4
:1059E00070E0F90181919F01E82FE295EF70F0E0FE
:1059F000D1A08F707B0101C0EE0C8A95EAF79E2D35
:105A000090959D2191A382A18E2982A3D8018D9189
:105A10008D01E82FE295EF70F0E0D1A08F707B014F
:105A200001C0EE0C8A95EAF79E2D90959D2191A3D9
:105A300082A18E2982A3B1E02C3D3B0791F6EFE8CD
:105A4000F1E03197F1F700C000001091CA036BEC50
:105A500073E0FB018E2F861B811708F496C080919E
:105A60003B0181112CC085E0EEE4F1E0DE0191966E
:105A700001900D928A95E1F789A1809336018AA160
:105A8000809337018BA1809338018CA180933901D9
:105A90008DA180933A0186E0E3E5F1E0DE01119605
:105AA00001900D928A95E1F7FE013196A0E3B1E0F5
:105AB000CE01079621912D938E179F07D9F78091DC
:105AC0003B0195E0811190E09093B30385E0891B41
:105AD0008093B20306E311E06BE3E62E61E0F62E5D
