:100000000C9419030C94BC220C9436030C94360304
:100010000C9436030C9436030C9436030C9436037C
:100020000C9436030C9436030C9476280C944A29CD
:100030000C943B210C9436030C9436030C94360339
:100040000C9436030C9436030C9436030C9436034C
:100050000C9436030C94DE210C9436030C94360376
:100060000C9436030C9436030C9436030C9436032C
:100070000C9436030C9436030C9436030C9436031C
:100080000C9436030C9436030C9436030C9436030C
:100090000C9436030C9436030C9436030C943603FC
:1000A0000C9436030C9436030C9436032900A900F3
:1000B00029003A003B003C003D003E003F004A0062
:1000C000AA0035001E001F0020002100220023008E
:1000D0004D002B002B0014001A000800150017001B
:1000E0001C004B003900E000040016000700090066
:1000F0000A000B004E005200E1001D001B0006002C
:10010000190005001100500051004F00E000E2000E
:10011000E3002C002C0028003E003F00400041007E
:1001200042004300440045004C002200230024000C
:100130002500260027002D002E002A0017001C0095
:1001400018000C00120013002F00300031000A00CC
:100150000B000D000E000F003300340028002800B3
:10016000050011001000360037003800E50052008D
:1001700001002A002C002C00E700E600E4005000FB
:1001800051004F00010001000100010001000100C9
:100190000100010001000100010001000100010057
:1001A0000100010001000100010001000100010047
:1001B0000100010001000100010001000100010037
:1001C0000100010001000100010001000100010027
:1004000001000100010001000100010000000000E6
:10041000000000002A2B280000000000000000005F
:100420000000000000000029000000002C1E342005
:10043000212224342627252E362D3738271E1F202B
:100440002122232425263333362E37381F04050670
:100450000708090A0B0C0D0E0F10111213141516B4
:100460001718191A1B1C1D2F3130232D35040506B2
:100470000708090A0B0C0D0E0F1011121314151694
:100480001718191A1B1C1D2F3130354C00000000A5
:10049000000000000000000000000000000000005C
:1004A000000000000000000000000000000000004C
:1004B0007E0F00D4FFFFFFC7000000781203420048
:1004C00046004F002D0039003000300030000000A1
:1004D0000E034B0065006500620069006F000000BC
:1004E0000403090409025B00030100A0FA090400E7
:1004F000000103010100092111010001224400074C
:10050000058103080001090401000203000000093D
:1005100021110100012222000705820320000107AA
:100520000503032000010904020001030000000983
:100530002111010001227B00070584032000011224
:100540000100020000000810CB6911000101020047
:10055000010660FF0961A1010962150026FF0095EF
:1005600020750881020963150026FF009520750893
:100570009102C005010902A10185020901A100053E
:100580000919012908150025019508750181020541
:1005900001093009311581257F9502750881060909
:1005A000381581257F950175088106050C0A3802EA
:1005B0001581257F950175088106C0C00501098058
:1005C000A101850319012AB700150126B70095017D
:1005D00075108100C0050C0901A101850419012ACB
:1005E000A002150126A002950175108100C0050129
:1005F0000906A101050719E029E71500250195085D
:10060000750181029501750881010507190029FF0F
:10061000150026FF009506750881000508190129B7
:100620000515002501950575019102950175039148
:1006300001C011241FBECFEFDAE0DEBFCDBF11E055
:10064000A0E0B1E0E6E5F8E502C005900D92A63C19
:10065000B107D9F723E0A6ECB1E001C01D92A331A8
:10066000B207E1F70E9480150C94D72B0C94000080
:100670008430B8F46C30A8F4493098F450E099E034
:10068000699F400D511D1124FA019CE6899FE00DE0
:10069000F11D1124EE0FFF1FE455FF4F859194913A
:1006A000089581E090E0089581E008950E94540348
:1006B000089581E008950E94540308950E945B0309
:1006C000089508950E9461030895A6E0B0E0EBE666
:1006D000F3E00C94332B49835A839E833091CD01F0
:1006E00089819A8131111AC03E81332399F02223E6
:1006F00089F00E945D09182F682F89819A810E94D4
:10070000390969817A81812F0E946B102696E3E076
:100710000C944F2B0E944B09182FF3CF0E945D09B8
:1007200069817A81F1CFFC01262F4081518162815C
:100730007381848195810E9465030895CF93DF932F
:10074000EC0161E00E949303BE010E945603DF9119
:10075000CF910895CF93DF93EC0160E00E94930363
:10076000BE010E946203DF91CF91089591E001C024
:10077000990F8A95EAF7892F0E9480080895CF93F0
:10078000C82F81E00C2E01C0880F0A94EAF70E945E
:10079000BB0D8C2F0E94B603CF91089581E0089580
:1007A0000E94CE030895CF93C82F0E9435088C2F46
:1007B0000E94D0032FEF84E39CE0215080409040C2
:1007C000E1F700C00000CF91089581E00E94D303BB
:1007D0000E940222089580E00E94D3030E94132207
:1007E00008950F931F93CF93DF938C0161E00E94D4
:1007F0009303EC01B8010E94AB1E811106C080E09A
:10080000DF91CF911F910F910895B801CE010E9401
:100810005E038823A1F3B801CE010E94B81D88238E
:1008200071F3B801CE010E94E518882341F3B801A5
:10083000CE010E94BB18882311F3B801CE010E949B
:10084000FC1D8823E1F2B801CE010E94AF1188237C
:10085000B1F2F8018581882361F0C330FCE7DF073E
:10086000E9F058F4C115ECE7DE07A9F0C130DC4728
:10087000B9F0C8010E945903C3CFCB358CE7D80724
:10088000A9F0CC35ECE7DE0771F0CA35DC4789F713
:100890000E94960DEECF0E94E503B1CF0E949E0DFF
:1008A0000E94EB03ACCF0E948C0DE3CF0E949A0D07
:1008B000E0CF0E9417210E94790408950E947D04D0
:1008C0000E941C21089581E008950895CF93DF933D
:1008D000D82F0E946304C82F882319F08D2F0E94FF
:1008E00065048C2FDF91CF91089508950E946604CE
:1008F000089580E00E94760408950E94971F0E9448
:1009000076040895CF930E94971FC82F8091C80145
:100910008C1779F0C093C8010E94A7216093C90188
:100920007093CA018093CB019093CC018C2F0E94CD
:100930007604CF910895ADE0B0E0E1EAF4E00C94E4
:10094000342B488759876A877B878C879D879111CD
:100950000E94CC0C1F8286E0FE013896DE011196C3
:1009600001900D928A95E1F78D8181110DC0298149
:100970003A814B815C816D817E818F810E94160C52
:100980002D96E2E00C94502BCE0101960E949E031E
:100990008111EDCFF5CFFC012481213021F480813C
:1009A00091810E948A090895662329F00E94461ABF
:1009B0000E94191B08950E94A01AFACFCF93C82F46
:1009C0008823C9F08238C9F40E94AB1F81FD13C08F
:1009D00089E30E9461200E943B0D2FEF87EE93E098
:1009E000215080409040E1F700C0000089E30E9460
:1009F00069200E943B0DCF9108958338A1F40E9495
:100A0000AB1F80FDF8CF83E50E9461200E943B0D63
:100A10002FEF81EE94E0215080409040E1F700C03C
:100A2000000083E5E4CF8438A1F40E94AB1F82FD6F
:100A3000E2CF87E40E9461200E943B0D2FEF81EE00
:100A400094E0215080409040E1F700C0000087E42E
:100A5000CECF8CEF8C0F813A98F48C2F0E944A16DF
:100A60008111C9CF8C2F0E942620882329F08C2F3A
:100A70000E9469200E943B0D8C2F0E946120B9CFFB
:100A800080E28C0F883048F4C77081E001C0880F85
:100A9000CA95EAF70E94AF0CACCFEBE5EC0FE33060
:100AA00040F4F0E0E659FE4F808190E00E94C71FBD
:100AB000A2CFE8E5EC0FEB3150F4F0E0EE0FFF1FB2
:100AC000EC5CFE4F808191810E94EC1F94CF83E308
:100AD0008C0F833108F08FCF61E08C2F0E94D404FB
:100AE0008ACF882309F456C0823879F40E94AB1F5C
:100AF00081FF50C089E30E9461200E943B0D89E381
:100B00000E9469200E943B0D0895833859F40E9489
:100B1000AB1F80FF3FC083E50E9461200E943B0D18
:100B200083E5EECF843859F40E94AB1F82FF32C0B8
:100B300087E40E9461200E943B0D87E4E1CF9CEF97
:100B4000980F913AE8F290E2980F983050F487703D
:100B500091E001C0990F8A95EAF7892F0E94B50CA0
:100B6000D1CF9BE5980F933028F490E080E00E946D
:100B7000C71F089598E5980F9B3128F490E080E016
:100B80000E94EC1F089593E3980F933118F460E0EE
:100B90000E94D40408951F93CF93DF93182FEB0185
:100BA0000E94DE04209739F4812F0E947105DF91A5
:100BB000CF911F9108958FE99FE00197F1F700C051
:100BC00000002197EFCF70E060E0893311F460E519
:100BD00070E00E94CB050895882321F00E94AF0C9D
:100BE0000E943B0D0895882321F00E94B50C0E94BD
:100BF0003B0D0895B0E0A0E0E0E0F6E00C942D2B72
:100C00006C01D62FC72FFC011581068102950F704C
:100C10000E94A50CE82E8823F9F0E12E1123E1F0C3
:100C20008C2F807F803461F080E28D0F883008F156
:100C30008C2F807E803221F4D230D8F00023C9F08E
:100C40008091CB0282FF15C082E00E94600D0E945D
:100C5000A50C91E0E82EE926BC2EB2949FE0B922C3
:100C6000FBE0FB15B8F1EB2DF0E0E752F44D0C94EE
:100C7000172BE12CF1CF0C2F0F70C07F11F00295D4
:100C8000007F112399F0002359F080E28D0F883006
:100C900010F0D11107C0802F0E94AF0C0E943B0DB5
:100CA0008D2F5AC0802F0E94BF0CF8CF8D2F0E942D
:100CB0007105002379F080E28D0F883010F0D1119A
:100CC00004C0802F0E94B50C03C0802F0E94C50C69
:100CD0000E943B0DEB2DE850FF0B349720F40E944F
:100CE000971F0E947604EE2089F00E94A10C80FDDF
:100CF0000DC0F60115820E949B0C0E94AD08C60132
:100D00000E94FC070E949B0C0E94B908CDB7DEB779
:100D1000E9E00C94492B2C2F2F70F22EC07FC032AB
:100D200019F0F29480EFF822DD2341F0D130D1F1B7
:100D3000112309F444C00023F1F0B2CF8091CB021B
:100D400082FD15C0112359F0FF2029F08F2D0E943C
:100D5000AF0C0E943B0D80E00E94DE04BBCF80E020
:100D60000E947105FF2009F4B5CF8F2DABCF112361
:100D700069F0011104C08F2D0E94EC05ABCF01304A
:100D800009F0A8CF8F2D0E94E30CA4CF0111A2CFB0
:100D90008F2D0E94F3058F2D0E94EF0C8F2D0E9446
:100DA000D30C98CF112321F0063008F093CFE3CF76
:100DB000053008F08FCF8F2D0E94F3058BCF0023D5
:100DC000D1F3D93349F43FEF87EE93E031508040BF
:100DD0009040E1F700C000008D2F0E9471057ACF8E
:100DE0008C2F86958695837069F0813009F072CFDB
:100DF0008D2F9C2F9370111102C080E090E00E9413
:100E0000EC1F68CF8D2F9C2F9370111102C080E0D2
:100E100090E00E94C71F5ECF612F8D2F0E94D404E7
:100E200059CF8C2F837079F5111154CF4D2F4295E6
:100E300046954770440F440F8D2F8F70042E01C0CC
:100E4000880F0A94EAF72D2F2071D4FF07C02FE0F6
:100E500030E001C0220F4A95EAF72095C695C69565
:100E6000C370822BC23049F058F4C13019F00E948F
:100E7000890830CF0E9483082DCF0E948F082ACF87
:100E80000E94800827CF8695112311F08C2F817046
:100E9000882309F41FCF4D2F429546954770440F84
:100EA000440F8D2F8F70042E01C0880F0A94EAF72B
:100EB0002D2F2071D4FF07C02FE030E001C0220F9A
:100EC0004A95EAF72095C695C695C370822BC23025
:100ED00049F058F4C13019F00E94D808FBCE0E94A6
:100EE000D208F8CE0E94DE08F5CE0E949B08F2CE12
:100EF000CF70112329F08C2F0E94AD088D2F3CCF8D
:100F00008D2F0E94F3058C2F0E94B908E3CED23FAB
:100F100041F160F4D03FB9F0D13F81F0112309F4E1
:100F200043C00111BDCE8C2F8F711FC0D33F01F183
:100F3000D43FA1F78091CB0282FD24C08C2F8F710A
:100F4000112311F312C0112341F0053008F0C2CE75
:100F50008C2F8F710E94C608BDCE063008F0BACE25
:100F6000F7CF8C2F8F711111CFCF0E94AD08B2CE69
:100F7000112329F08C2F8F710E94A408ABCE0E9400
:100F8000A008A8CE112331F063E08C2F8F710E944E
:100F9000420DA0CE81E00E94600D023008F49ACE8E
:100FA00082E00E94600D96CE002359F0D93309F0FB
:100FB00013CFEFEFF7EE23E0E150F0402040E1F7F0
:100FC00009CF8C2F8F71A0CF0F931F93CF93DF93F7
:100FD000EC01688179818D810E9495098C010E94C4
:100FE000E4080E947F08B801CE010E94FA05DF9153
:100FF000CF911F910F910895CF93DF93EC018C81D6
:10100000882399F0CE010E94F103811111C00E9442
:10101000A50C882351F08D81882339F08091CB0273
:1010200082FF03C082E00E94600DDF91CF9108959E
:10103000CE010E94E407CE010E94AA03F6CF90E001
:1010400080E00E94C71F90E080E00E94EC1F0E9499
:10105000CC0C0E943B0D0E94351B0E94191B089569
:101060000E9471200E941F0808950E94BC0C0E94DB
:101070003008089592959F70963091F058F4925FE1
:101080009F70923058F4803F19F030F4883E30F46D
:1010900081E008959A5FF4CF843FD1F380E0089512
:1010A000883EB0F3813FD1F7F3CFFC0124812223A6
:1010B00039F0808191810E948A090E943A0808953E
:1010C00080E00895A6E0B0E0E8E6F8E00C94342B68
:1010D0002696E2E00C94502BA7E0B0E0E2E7F8E0BF
:1010E0000C94342B2796E2E00C94502B08950E9428
:1010F000760808950E9477088093F901089508956D
:101100000E947A0808959091F901892B0E947A082B
:1011100008959091F90189230E947A080895909189
:10112000F90189270E947A0808950E947608089597
:101130000E94950808950E9498088093F8010895E8
:1011400080E00E949B08089591E001C0990F8A9564
:10115000EAF7892F0E949B08089521E030E001C042
:10116000220F8A95EAF78091F801822B0E949B0852
:10117000089521E030E001C0220F8A95EAF720951A
:101180008091F80182230E949B08089521E030E0BD
:1011900001C0220F8A95EAF78091F80182270E9408
:1011A0009B0808959091F801892B0E949B0808954F
:1011B0009091F80189230E949B0808959091F8016D
:1011C00089270E949B0808950895262F277091E093
:1011D00001C0990F2A95EAF723E0769567952A953D
:1011E000E1F7FB01EE0FFF1FE60FF71FE40FF51FFE
:1011F00050E040E0682F70E08191DF0111979B0182
:10120000042E02C0369527950A94E2F721702195A5
:101210002827292328272C934F5F5F4F4330510500
:1012200059F70895A82FA77023E0969587952A95DA
:10123000E1F7FC01EE0FFF1FE80FF91FE60FF71FA4
:1012400050E040E080E0219130E00A2E02C0369567
:1012500027950A94E2F721703327042E01C0220F4C
:101260000A94EAF7822B4F5F5F4F4330510559F7DD
:101270000895262F9C3070F4893060F4682F70E058
:1012800089E0989F600D711D11244EEC51E0822F72
:101290000E94E5080895292F9C3068F4893058F49D
:1012A00090E06EEC71E039E0239F800D911D1124D8
:1012B0000E941209089580E00895CF92DF92FF9274
:1012C0000F931F93CF93DF936C010091F8018091EE
:1012D000F901082BC3E0D0E010E0FC2EC8010C2E71
:1012E00002C0959587950A94E2F780FD0CC021977E
:1012F000A0F7F12C8F2DDF91CF911F910F91FF90CF
:10130000DF90CF900895B6018C2F0E94771001973F
:1013100071F3F0CFCF93DF93EC010E945D09BE0122
:101320000E947710DF91CF9108951F93CF93DF93A1
:10133000EB019091CD01992339F0CB010E948A09EC
:10134000DF91CF911F910895882369F0CB010E940E
:101350005D09182F682FCE010E943909BE01812F27
:101360000E947710EDCFCB010E944B09182FF6CFCA
:10137000E1E0F0E0DF0102C0AA0FBB1F6A95E2F7CF
:10138000BD01DF0102C0AA0FBB1F4A95E2F76A2B1D
:1013900001C0EE0F2A95EAF7962F9823961302C004
:1013A0008E2B0895E0958E230895242F462F682FC5
:1013B0008091F8010E94B8090E949B0808951F932C
:1013C000CF93DF93C091FA0117E08091FB018C135A
:1013D00004C0DF91CF911F910895D0E01C9FF001D0
:1013E0001D9FF00D1124E450FE4F20813181428178
:1013F00053816481758186810E946C082196C77033
:10140000E4CF209134023091350240913602509160
:101410003702609138027091390280913A020E943D
:101420006C080895CF93DF9380913A02807F09F092
:101430004DC080913902882309F448C0E091FA0137
:101440005091FB01C0913502D09134026091360277
:101450007091370247E05E17C9F18E2F90E0E49F4C
:10146000F0011124E450FE4F2481222391F1489F82
:10147000F001499FF00D1124DF01A450BE4F1196D9
:101480002C9111972C1325C02C912D1322C0159649
:101490002C91159721111DC012962D913C91261B60
:1014A000370B283C3105A8F480913A028F70806197
:1014B00080933A02EE5FFD4F80818F708061808360
:1014C00084E392E00E94FC070E94DF09DF91CF9144
:1014D0000895FC013196E770BECF482F2091FA01A4
:1014E0009091FB0157E0291302C080E0089530E09D
:1014F000529FF001539FF00D1124E450FE4F818163
:10150000681306C08081481303C085818111EECF26
:101510002F5F3F4F2770E7CFA4E1B0E0E2E9FAE0A8
:101520000C942A2B8C0186E0F801DE011F960190B5
:101530000D928A95E1F7F8018481E58094E3A92E64
:1015400092E0B92E9091380291111FC08823D1F0FA
:10155000EE20A9F0C8010E945508F82E882379F0E2
:1015600087E0F801D50101900D928A95E1F7C50158
:101570000E94CB040E94120A0E94010A5FC0C801A7
:101580000E94FC07FF24F39459C0C080D180828060
:101590009380F09039022091360230913702A401F5
:1015A000421B530BFF2009F4F9C0483C510508F0D9
:1015B000A7C0882309F442C09091350280913A0275
:1015C000282F207F09F05CC09D1116C09091340235
:1015D000C91212C0E1104EC08F70806180933A0230
:1015E0000E94010A84E392E00E94FC0780913A0283
:1015F000F8018683F12C22C0E1103CC06D2D8C2DAA
:101600000E946D0A6D2D8C2D0E946D0AE82E8111AD
:10161000F1CFCF86D88A8F8598890E948A09292F91
:1016200022952F70243078F49F702230A8F09923EF
:10163000B9F0F8019681907F99F4FE2C8F2D649675
:10164000ECE00C94462B2A5F2F70223068F0C80122
:101650000E94FC07EF2CF1CF992311F0882369F346
:10166000805E883050F3F3CF803F38F3815F833062
:1016700070F7E3CF80913A02816080933A02BACF4B
:101680009D1113C090913402C9120FC0E1100DC01A
:101690008683C8010E94FC0787E0F801A4E3B2E05A
:1016A00001900D928A95E1F767CFC8010E94550815
:1016B000882309F464CFEE2009F461CF80913A02C7
:1016C000803288F0209134023091350239872887A2
:1016D0009B868A86909138029C871D868E87CE01D4
:1016E00008960E94FC0787E0F801A4E3B2E00190AD
:1016F0000D928A95E1F70E94120A0E94010A42CFD8
:1017000090913A02292F207FA1F4682D9A8A898A24
:10171000A6017A899E2D0E94620884E392E00E94CD
:10172000FC0787E0F50111928A95E9F70E94010A0A
:1017300061CF882309F482CF809135028D1110C0CA
:1017400080913402C8120CC0E1100AC09683C8010F
:101750000E94FC0787E0F50111928A95E9F76ECFA8
:10176000C8010E945508882309F409CFEE2009F426
:1017700006CF80913A02803208F4B5CF209134022E
:10178000309135023A8329839C828B829091380272
:101790009D831E828F83CE010196A3CF483C5105C5
:1017A000B8F5882309F4EECEFE2CEE2009F4E7CE3E
:1017B000809135028D111EC080913402C8121AC06A
:1017C00080913A0280FD0DC0982F907F51F0868362
:1017D000903F09F45ECF982F907F905F8F70892B98
:1017E00057CF87E0F801A4E3B2E001900D928A950B
:1017F000E1F724CFC8010E945508811174CF809170
:101800003A02816080933A02C8010E94FC0716CF19
:10181000682D9A8A898AA6017A899E2D0E9462087B
:1018200087E0F50111928A95E9F7A6CEAEE0B0E027
:10183000ECE1FCE00C94332B288739874A875B87DF
:101840006C877D878E87CE0108960E948C0A88233C
:10185000B1F06C85662341F0288539854A855B8522
:101860007D858E850E946C0817E08091FA01909129
:10187000FB0189133DC02E96E3E00C944F2B87E0CB
:10188000FE013896DE01119601900D928A95E1F7DE
:101890008C85882349F32091FB0130E0C901019632
:1018A000877099274091FA014817190699F097E037
:1018B000929FD001939FB00D1124A450BE4FFE0102
:1018C000319601900D929A95E1F78093FB010E9469
:1018D000DF09CACF0E9435081092FB011092FA016D
:1018E00087E0E4E3F2E0DF011D928A95E9F7BCCFDF
:1018F000819FC001112484509E4F0E948C0A88232E
:1019000009F4B9CFE091FA011E9FF0011124E450CF
:10191000FE4F2081318142815381648175818681AE
:101920000E946C088091FA0190E0019687709927D7
:101930008093FA019ACF8091430286958695869589
:1019400008958091430287700895909143029770A3
:1019500081E009F480E0089580914F02089590910C
:101960004F02892B80934F020895809590914F02EA
:10197000982390934F02089510924F0208959091EA
:101980004E02892B80934E020895809590914E02CD
:10199000982390934E02089510924E020895089550
:1019A0000E94CF0C089590914402292F282331F0F2
:1019B00080958923809344020E94D00C0895089555
:1019C0000E94DF0C089590914502292F28232817A3
:1019D00029F0982B909345020E94E00C0895909175
:1019E0004502292F282331F08095892380934502D1
:1019F0000E94E00C089580914502882329F01092FE
:101A0000450280E00E94E00C08950F931F93CF934E
:101A1000DF930091000110910101C0914F0280916C
:101A20004E02C82B80914502882331F0C82B0E94BA
:101A3000112081110E94FB0CF801C083C0910001AC
:101A4000D091010148E050E06BE372E0CE010E94CA
:101A50006F2B892B59F088E0FE01ABE3B2E00190D7
:101A60000D928A95E1F7CE010E94AE1FDF91CF91D2
:101A70001F910F9108950E94050D089508950E94E9
:101A80003E0D08959091CB0292FF11C098E0899F7E
:101A900090011124622B609343020E94AD08809153
:101AA00043028695869586950E943F0D08950E9473
:101AB000AD0808951092430280E00E943F0D089502
:101AC000909143028095892380934302282F2770A9
:101AD00069F4891759F09091CB0292FF07C086955F
:101AE000869586950E94B9080E945A0D0895909196
:101AF000CB0292FB222720F9281769F080FB92F98C
:101B00009093CB028091CA029091CB020E94C60DA5
:101B100082E00E94600D08958091CB0282FB8827AD
:101B200080F991E089270E94770D089581E00E9455
:101B3000770D089580E00E94770D08956FEF7FEF95
:101B400090E080E00E94C12B089590E080E00E9428
:101B50008D2B853E9E4F19F40E94451E089580E00E
:101B6000089582E090E00E94852B089583E090E044
:101B70000E94852B0895682F83E090E00E94A32B9C
:101B8000089584E090E00E948D2B0895BC0184E0CC
:101B900090E00E94C12B0895AB01BC018FE090E062
:101BA0000E94B52B0895AB01BC0183E190E00E9437
:101BB000B52B089560E070E0CB010E94D30D08952D
:101BC00060E070E0CB010E94CC0D0E94DA0D089518
:101BD000A8E0B0E0EEEEFDE00C94342B65EE7EEF75
:101BE00090E080E00E94C12B60E082E090E00E94E3
:101BF000A32B81E08093F9010E94BB0D60E074E1AA
:101C000084E090E00E94C12B60E086E090E00E94BA
:101C1000A32B60E087E090E00E94A32B40E050E01F
:101C2000BA0188E090E00E94B52B60E083E290E08A
:101C30000E94A32B60E08CE090E00E94A32B60E068
:101C40008DE090E00E94A32B19821A821B821C82D5
:101C50001D821E821F82188648E050E067E170E016
:101C6000CE0101960E94932B40E050E0BA018FE133
:101C700090E00E94B52B80E00E945E1E0E948D1EA7
:101C80000E94E00D2896E2E00C94502B0E94E80D93
:101C90000895682F8EE090E00E94A32B0895A6E09F
:101CA000B0E0E5E5FEE00C94322B0E949B218C0114
:101CB00080915002909151028017910781F0198212
:101CC0001A820E949B21682F49815A81792F80E0D6
:101CD00090E00E949B0410935102009350022696BC
:101CE000E4E00C944E2B0E94931160936E0270936B
:101CF0006F02809370029093710260936A027093F6
:101D00006B0280936C0290936D020895089508957C
:101D10000E94860E089508950E948B0E089581E01A
:101D200008958DEA91E10E9497150E94870E0E9406
:101D3000880E08950E9494130895089508950E94AE
:101D40009D0E0E949E0E08950E94A50D811102C055
:101D50000E94460E0E94B10D809372020E94C10D36
:101D60009093CB028093CA020E94BA150E94B60DCE
:101D70000E9480088091F8010E94980808950E94AE
:101D800092210E946D110E949D1E0E949A130E9432
:101D9000E7120E94A40E0E9475040E9405170E947B
:101DA000AC130E948C0E0895A6E0B0E0EAEDFEE0D0
:101DB0000C94282B0E948F0E81110CC00E944F0E94
:101DC0000E9494130E94571B0E9482042696EEE004
:101DD0000C94442B0E940A1322E5822E22E0922EBC
:101DE000640110E0F601E190F1906F01812F0E94F3
:101DF000C9111F5F1C3009F44BC0E816F90691F3B6
:101E00008091720281FD0E94D2110E949A0E782E5A
:101E100010E066246394812F0E94C9117C01F401B3
:101E2000A190B1904F018A159B0561F1A826BF24AE
:101E300000E0CC24C394D12CC5018C219D21892B99
:101E4000C1F07720B1F009831A830E949B219C8303
:101E50008B836D8221E0C7018C219D21892B09F4A0
:101E600020E049815A816B817C818D81922F0E9473
:101E70009B040F5FCC0CDD1C0930F1F6F4013297A6
:101E8000F182E0821F5F1C3031F60E94730E98CF02
:101E9000E816F90609F0B4CF91CF1F93CF93DF93E3
:101EA0000E947C10EC01C11580E5D807F0F5C11542
:101EB00080E4D80708F09CC0C03ED10520F5CD3C99
:101EC000D10508F082C0C83AD10578F4C53AD105E9
:101ED00008F073C0C130D10519F1209709F1C43061
:101EE000D105F0F4D0E0C0E01BC0C33CD105D0F771
:101EF000C85AD0E0CC0FDD1FC359DE4F0990D881FE
:101F0000C02DD4640DC0C11580E2D80708F0D1C03F
:101F1000C11581E0D80708F05AC0C83ED10510F7B6
:101F2000CE01DF91CF911F910895C03682E5D80789
:101F300018F5C03482E5D80708F06BC0C03282E5DE
:101F4000D80708F05FC0C11582E5D80708F497C02C
:101F50002C2F2695269580E2289F900111248C2F06
:101F60008370C1E0D0E002C0CC0FDD1F8A95E2F79C
:101F7000C22BD32BDD68D4CFC03A82E5D80760F4FA
:101F8000C03882E5D80708F459C0CF71D0E0DC2F03
:101F9000CC27C46FD06AC4CFC03C82E5D80708F410
:101FA00062C0C03E82E5D80708F09CCFDC2FCC276A
:101FB000CC27DF71C06FD06AB3CFC55AD0E0CD5502
:101FC000DE4FC881D0E0D064ABCFD065A9CF8D2FD4
:101FD0000E941E11182FCE0199270E947C10C12F3C
:101FE000D0E0DC2FCC27CC27DF71C82BD92B98CFA2
:101FF000CE0199270E947C10CC27DF70C82BD92BEB
:10200000D06A8ECFCF71D0E0DC2FCC27C16FD06AE1
:1020100087CF2C2F26952695277080E2289F900148
:1020200011248C2F8370C1E0D0E002C0CC0FDD1FE3
:102030008A95E2F7C22BD32BDC6872CF2C2F269522
:102040002695277080E2289F900111248C2F8370A1
:10205000C1E0D0E002C0CC0FDD1F8A95E2F7C22BB1
:10206000D32BDA685DCF8C2F8F710E941E11C82F81
:10207000D0E0DC2FCC27CC27DF71D06251CF8C2F62
:102080008F710E941E1155E0D695C7955A95E1F7BC
:10209000CF70D0E0DC2FCC27282F30E084FF05C0A4
:1020A00044E0220F331F4A95E1F7C22BD32BD069AE
:1020B00037CF8D2F8F710E941E11182FCE019927B7
:1020C0000E947C10C12FD0E0DC2FCC27CC27DF7101
:1020D000C82BD92BD2CF462F7C3030F4693020F476
:1020E000672F0E94D517089590E080E008950E9420
:1020F0006B100E944D0F089582389105B9F1B0F42C
:102100008133910509F47DC048F48932910509F4C1
:102110006DC08A32910509F47BC00895853391051D
:1021200009F45FC08933910509F10895833E910553
:10213000D9F138F4803E910529F1823E910579F17B
:102140000895863E9105D9F1873E910509F43EC078
:10215000843E910541F52091CB0221FF24C080915E
:10216000CA0284FD19C087EE90E008952091CA024A
:10217000237009F05AC02091CB0223FF14C089E2DA
:1021800090E008952091CA0220FD38C03091CB0222
:1021900030FF09C024FF43C090E080E00895209103
:1021A000CA0222FDF7CF08952091CA0222FD3AC04B
:1021B0003091CB0230FD39C024FFF5CFEDCF209117
:1021C000CA0223FFF0CF24FDE7CFCDCF2091CA0272
:1021D00023FD2EC03091CB0231FFEECF84EE90E094
:1021E00008952091CA0225FFDECFC9CF2091CA02EF
:1021F00025FD21C02091CB0223FFD5CF89E390E0BC
:10220000D2CF2091CA0226FFCECF8AE290E0089575
:102210002091CA0226FFC7CF81E390E0089583EEA4
:1022200090E0089582EE90E0089580EE90E00895A9
:1022300086EE90E0089585E390E008959091CA02BB
:1022400092FF10C041E0282F2471243009F040E0B3
:1022500031E0282F2871283009F030E0431711F0C1
:102260002CE0822793FF10C041E0282F24712431F5
:1022700009F040E031E0282F2871283109F030E0E2
:10228000431711F02CE082273091CB0230FF10C0B1
:1022900051E0282F2171213009F050E041E0282F32
:1022A0002871283009F040E0541711F029E0822706
:1022B00031FF10C041E0282F2171213109F040E0A9
:1022C00031E0282F2871283109F030E0431711F050
:1022D00029E0822794FD877E08951092CC02109207
:1022E000CD021092CE021092CF020895CF92DF92CB
:1022F000EF92FF926B017C010E94941381110EC03A
:102300000E94A721C61AD70AE80AF90AC092CC028D
:10231000D092CD02E092CE02F092CF02FF90EF90E9
:10232000DF90CF9008950F931F930E9494138823FA
:1023300029F00E94A7211F910F9108950E94A721C3
:102340000091CC021091CD022091CE023091CF02AB
:10235000600F711F821F931FEECF80E00895CF930F
:102360009C01205E3245C1E02032310538F4FB018A
:10237000C581C11103C08F710E94BF038C2FCF9103
:10238000089508950E94C111089508950E94C511ED
:102390000895E82FF0E0EE0FFF1FE751FD4F808119
:1023A00091810895089580EA8A95F1F7089500C013
:1023B00008950E94D311089508950E94DC11089594
:1023C000ACE0B0E0E6EEF1E10C94302B0E94941307
:1023D000F82E60910103882309F446C05CE0E52EE5
:1023E0008E010F5F1F4FF8018E2D11928A95E9F72C
:1023F000862F90E0880F991FB80187519D4F0E944A
:10240000BA138823C9F08091D00290E0880F991FF9
:102410004CE050E0B80187519D4F0E946F2B21E0A6
:1024200020937302892B91F4F12C0E94C6118F2DF9
:102430002C96E6E00C944C2B809173028823A1F338
:10244000F8011192EA94E9F710927302A091D00278
:10245000B0E0AA0FBB1FA751BD4F8CE0F80101905F
:102460000D928A95E1F7E1CF70E0660F771F675113
:102470007D4F8091D00290E0880F991F87519D4F2A
:102480000E9441140E94DD11D2CFF894E82FE2950A
:10249000EF70F0E031A1282F2F7081E090E001C0B3
:1024A000880F2A95EAF7982F9095932391A392A1EC
:1024B000892B82A378940895CF93DF93CFEAD1E05C
:1024C00089918F3F11F00E94451281E0C53BD807EA
:1024D000B9F7C6EAD1E089918F3F11F00E94451209
:1024E00081E0CF3AD807B9F7DF91CF910895AF9245
:1024F000BF92DF92EF92FF920F931F93CF93DF93E0
:102500008C01D62EC62FD0E0CE0181559E4F7C0186
:10251000FC0120812F3F09F44DC0F894E22FE29591
:10252000EF70F0E031A12F7081E090E001C0880FE2
:102530002A95EAF7932F982B91A392A1809589234E
:1025400082A378940E94D711E6EAF1E04FEA51E0C5
:1025500021E030E0B12CA12C61916F3FA9F1A62FB1
:10256000A295AF70B0E090968C9190E06F7002C031
:10257000959587956A95E2F780FD26C0C901A82A3E
:10258000B92A220F331F4E175F0731F7F7018081F9
:102590008F3F11F00E94451261E0A114B10409F4CB
:1025A00060E08D2D0E94D911CC0FDD1FC00FD11F0F
:1025B000B982A882DF91CF911F910F91FF90EF9088
:1025C000DF90BF90AF90089590E080E0D8CF8091E9
:1025D00002018091020196E0811190E09093010345
:1025E00086E0891B8093D0020E945C1288E1E9EEAC
:1025F000F2E0DF01982F1D929A95E9F7E1EDF2E004
:10260000DF011D928A95E9F786E00E944A130E9435
:10261000C2110895A8E1B0E0E0E1F3E10C94312BA0
:102620008E010F5F1F4F88E1F80111928A95E9F73B
:10263000F12C6F2DC8010E947712F394F6E0FF127F
:10264000F8CF48E150E0B80181ED92E00E946F2B95
:1026500021E0009709F420E0892B41F088E1F8019E
:10266000A1EDB2E001900D928A95E1F7609101032E
:1026700070E0660F771F67517D4F46E081ED92E075
:102680000E944B13182F0E94E011812B6896E5E001
:102690000C944D2B0895B0E0A0E0E1E5F3E10C943B
:1026A0002E2B6C017B01042FC22F222379F081E0B5
:1026B000809376020E949B2190937502809374020E
:1026C00080E0CDB7DEB7E8E00C944A2BD0917602DB
:1026D000DD23B1F380917402909175020E94B321C1
:1026E000059770F310E0000F111FA801B601C70194
:1026F0000E946F2B892B31F0A801B601C7010E94FF
:102700007C2BCD2F109276028C2FDBCFCF930E94A3
:10271000F62AC82F811102C00E94F12A8C2FCF9176
:10272000089580917A0208958091790208950E9417
:10273000941308950E948613809379020E94971340
:1027400080937A020E949113809302010E94941355
:1027500081110E94F01308950E949413811102C008
:102760000E94F313089581E090917B029A3008F063
:1027700080E008950F931F93CF93DF93EC018B01BB
:1027800080917B028A30B8F4B801CE010E943E14D9
:10279000C82F811122C080917B028F3FB9F40E9423
:1027A0009B2190937802809377028C2FDF91CF91B9
:1027B0001F910F91089580917702909178020E9465
:1027C000B321843F914000F7C0E0EFCF8F5F80934B
:1027D0007B028A3020F7C1E0E8CF10927B02E5CF80
:1027E0000E94762208950E9479220895B0E0A0E028
:1027F000ECEFF3E10C942F2B7901C82F880FDD0B40
:1028000041155105A9F0FE0193E0EE0FFF1F9A95C7
:10281000E1F7ED5FFE4F8181928184589D4F2081C9
:1028200030E04217530708F49A01A9010E947C2B5B
:10283000CE010E946223D82E8823D1F00115110504
:10284000B9F083E0CC0FDD1F8A95E1F7FE01ED5F63
:10285000FE4F438150E00417150708F4A801CD5F2F
:10286000DE4F6C817D8164587D4FC7010E947C2BB7
:102870008D2DCDB7DEB7E7E00C944B2B0E943015C1
:1028800008950E9447150895A4E0B0E0EAE4F4E159
:102890000C94322B6091A1027091A2028091A3024C
:1028A0009091A4020E94C22111E064367105810555
:1028B000910518F10E9493116E5F7F4F8F4F9F4FCC
:1028C00069837A838B839C8310E000E030E020E012
:1028D00044E050E0BE016F5F7F4F82E00E94F6133C
:1028E000182F882351F00E94A7216093A1027093B2
:1028F000A2028093A3029093A402812F2496E4E085
:102900000C944E2BB0E0A0E0E8E8F4E10C942C2B02
:102910007C015B016A010E94B31301E010E088238F
:1029200011F00AE010E0C1E0D0E0B501C701F60106
:102930000995811104C021960C171D072CF4CDB701
:10294000DEB7EAE00C94482BCC9F9001CD9F300D70
:10295000300D112490E080E045E34A95F1F7000046
:10296000019682179307C1F7E0CFADE0B0E0EBEB43
:10297000F4E10C942C2B7B01C090B501D090B601F2
:1029800001E010E09E01235F3F4F50E040E070E027
:1029900060E080E00E94F613182F882309F448C0F5
:1029A00056018FEFA81AB80A60919D0270919E029D
:1029B00080919F029091A0020E94C221643671050D
:1029C0008105910568F10CE010E09E012F5F3F4FFB
:1029D00050E040E070E060E081E00E94F613D82E05
:1029E0006CE070E0C5010E94061711E09D85981308
:1029F00010E01D2141F10E94A72160939D02709378
:102A00009E0280939F029093A0028CE0FE0131967B
:102A1000A1E9B2E001900D928A95E1F711E013C0AF
:102A20006CE070E0C5010E9406179D858913CBCF2D
:102A30008CE0F6013196DE01119601900D928A9597
:102A4000E1F71111E2CF8CE0E1E9F2E0D70101906A
:102A50000D928A95E1F7812F2D96EAE00C94482B90
:102A60000F931F93CF93DF93EC018B0145EB54E160
:102A70000E948214882331F044E454E1B801CE016D
:102A80000E948214DF91CF911F910F9108950F93AF
:102A90001F93CF93DF93C091B501D091B601CE01C2
:102AA00001962CE0FB01DC0101900D922A95E1F7E3
:102AB0006CE070E00E94061788836D857E858F85A7
:102AC000988900918D0210918E0220918F02309191
:102AD0009002601771078207930751F060938D028F
:102AE00070938E0280938F02909390020E947611D1
:102AF000DF91CF911F910F9108950E94D40E0895F8
:102B00000E9434210E945F250E94910E0E94792527
:102B10000E94BF0E0E9486250E948B250E947D1573
:102B20000E94A5250E942A240E949F0EF5CF909313
:102B3000C7018093C60108950E949E0D089580E00C
:102B40000E94C911817008950E940A132FEF86E731
:102B500091E0215080409040E1F700C000000E94C9
:102B60000A130E949F15882321F00E949C150E9441
:102B7000022208950E94A41508958B3109F464C0BF
:102B800040F58B3071F078F4863009F446C020F4BB
:102B9000853059F180E00895873009F447C08830C6
:102BA000C9F781E00895803109F45CC068F48E3083
:102BB00089F790917202892F8B7F92FF84608093B6
:102BC000720282FD4BC0EDCF863159F3893149F352
:102BD000E1CF8A32F9F060F48732B1F020F48E311F
:102BE000C8F28D514BC08932A9F60E94E503D9CFB6
:102BF000833440F48A3308F040C0853329F08833A9
:102C000081F2C8CF833431F681E00E9480080E94AF
:102C10003508C7CF0E94460EC4CF80917202807FD4
:102C20008093720281E08093A802089590917202CD
:102C3000892F8E7F90FF81608093720280FDB1CFDB
:102C4000817F80937202ADCF90917202892F8D7F28
:102C500091FF82608093720281FFA3CF8091720204
:102C60008160EFCF90917202892F877F93FF8860F8
:102C70008093720283FDF2CF94CF895391E001C01B
:102C8000990F8A95EAF7892FC0CF80E008950E94B6
:102C900045160895CF93C82F8091A8028130B9F0CE
:102CA000882331F08230A1F11092A80280E00DC09B
:102CB0000E94AC0C8232D1F78C2F0E9445168111F4
:102CC0001BC08C2F0E94BD158170CF9108950E946A
:102CD000AC0C823289F38C2F0E94471681110AC0F6
:102CE000C43199F060F4CB3029F0C03169F782E04B
:102CF0008093A80281E0E8CF81E090E0E5CFC9327F
:102D000021F0C833B9F380E0DFCF1092A802FBCFE7
:102D1000C93209F440C0F0F4C431E9F1A8F481E00B
:102D2000C73099F68093220184E1809321018AE0E3
:102D3000809320018EE180931F0188E080931C0125
:102D400088E280931B0104C082EE8C0F8A3070F100
:102D500081E0BBCFC03509F450C0B8F48AE0CF346D
:102D6000B9F7E091A502F091A602309789F320818E
:102D7000082E000C990B820F911D8F3F910509F0D1
:102D80000CF43FC08FEF8083E3CFC135C1F181E008
:102D9000C23539F39ACF8091A7028823C9F21092E5
:102DA000A7021092A6021092A502D2CFCD51C093D5
:102DB000A702C330C9F048F4C13099F081E291E034
:102DC000C23051F01092A702C3CFC53099F078F00D
:102DD0008BE191E0C630B1F79093A6028093A502F3
:102DE000B7CF82E291E0F8CF80E291E0F5CF8FE1BA
:102DF00091E0F2CF8CE191E0EFCF86EFB2CF8FEF91
:102E0000B0CF97FFC0CF1082A3CF0895FC01680F09
:102E1000791F8FEF91E36E177F0709F408952191D1
:102E2000822728E030E087FF06C0880F89272150DD
:102E30003109C9F7F0CF880FFACF84E0089550E048
:102E4000440F551F92E1699F400D511D112498EDCB
:102E5000899F400D511D1124CA01889608950F9332
:102E60001F93CF93DF938430C8F46C30B8F44930AB
:102E7000A8F40E941F178C010E94852BC82FD0E058
:102E8000DC2FCC27C80101960E94852B9E01282BA0
:102E9000C901DF91CF911F910F91089590E080E0DB
:102EA000F8CF0F931F93CF93DF93122F032F84300C
:102EB00078F46C3068F4493058F40E941F17EC0124
:102EC000602F0E94A32B612FCE0101960E94A32B9D
:102ED000DF91CF911F910F9108951F93CF93DF93AF
:102EE000D0E0C0E011C0412F6C2F8D2F0E9438031D
:102EF0009C01412F6C2F8D2F0E9451171F5F19309D
:102F000091F7CF5FCC3011F010E0EDCFDF5FD43020
:102F100041F7DF91CF911F910895EF92FF920F93A8
:102F20001F93CF93DF93EC018A017C01E60EF71E1D
:102F3000CE018896CE15DF0529F4CDB7DEB7E6E0E1
:102F40000C944C2BC03623E0D20740F40E94852B12
:102F5000F80180830F5F1F4F2196EACFF80110829E
:102F6000F9CFB0E0A0E0E7EBF7E10C942E2B7C0169
:102F70006A018C01060F171FEC01CE018896C0175D
:102F8000D10729F4CDB7DEB7E8E00C944A2BC03660
:102F900023E0D20740F4FE01EE19FF09EC0DFD1D00
:102FA00060810E94A32B2196E8CF843038F46C30E6
:102FB00028F4493018F40E942F17089590E080E01B
:102FC000089580E1089588E790E00895EF92FF92D8
:102FD0000F931F93CF93DF93EC018A017C01E60EE0
:102FE000F71ECE0188579C4FCE15DF0529F4CDB7CB
:102FF000DEB7E6E00C944C2BC837D10540F40E94B4
:10300000852BF80180830F5F1F4F2196EACFF801CF
:103010001082F9CFB0E0A0E0E0E1F8E10C942E2BB3
:103020007C016A018C01060F171FEC01CE01885745
:103030009C4FC017D10729F4CDB7DEB7E8E00C9458
:103040004A2BC837D10540F4FE01EE19FF09EC0DFB
:10305000FD1D60810E94A32B2196E8CFCF93DF93C3
:10306000C8E8D3E060E0CE010E94A32B2196C115F1
:1030700084E0D807B9F7DF91CF910895A8E0B0E0D8
:10308000E4E4F8E10C942C2BF82E8FE08F1508F473
:103090006EC08FEF93E00E94852B811168C008E815
:1030A00013E0F11035C0FE0131966F0188E01192F6
:1030B0008A95E9F77801FFEFEF1AFF0AC8010E942D
:1030C000852B89831A82882309F451C08130D1F479
:1030D000580182E0A80EB11CC7010E94852B8A838B
:1030E000882309F444C09FEF980F9330F0F47801DF
:1030F00093E0E90EF11CC5010E94852B8B83882388
:10310000B1F11C8260E0C6010E94E91C8701D2CFA8
:10311000011594E0190759F1C8010E94852B81110E
:1031200001C0FA940F5F1F4FBCCF7501843051F777
:1031300002E010E07501EFEFEE1AFE0AC5010E94F1
:10314000852BF601E00FF11F8083882381F08C37F7
:1031500041F4E2E0F0E0EC0FFD1FE00FF11F108200
:10316000D1CF0F5F1F4F57010730110519F7289670
:10317000EAE00C94482BCF93DF93EB0186319C4718
:1031800011F50E94AC0C9D81992399F08A7A91E007
:1031900009F490E09093A902811109C089E20E948C
:1031A00061200E943B0D80E0DF91CF91089585E37F
:1031B000F6CF8091A902811104C089E20E946920A2
:1031C000F0CF85E3FBCF81E0EFCFCF93DF93EC012E
:1031D000FB018581882309F4D2C09E013057233238
:1031E000310508F0B2C00E94C10D9093CB028093CC
:1031F000CA02FE01E150F047E232F10520F4EB5142
:10320000F44D0C94172B8091CA0281608093CA02FE
:1032100093C08091CB0288608093CB028DC0809157
:10322000CA028260F3CF8091CA028460EFCF80919E
:10323000CA028860EBCF8091CB028160EDCF809194
:10324000CB028260E9CF8091CA028061DFCF80919A
:10325000CA028062DBCF8091CA028064D7CF0E940D
:1032600035088091CA028068D1CF8091CA028C60F3
:10327000CDCF8091CB028360CFCF8091CA028E7F69
:10328000C5CF8091CB02877FC7CF8091CA028D7F47
:10329000BDCF8091CA028B7FB9CF8091CA02877F50
:1032A000B5CF8091CB028E7FB7CF8091CB028D7F3F
:1032B000B3CF8091CA028F7EA9CF8091CA028F7D41
:1032C000A5CF8091CA028F7BA1CF0E943508809143
:1032D000CA028F779BCF8091CA02837F97CF80915C
:1032E000CB028C7F99CF8091CA0282FB992790F9FB
:1032F00021E0922790FB82F990FB83F987CF8091A0
:10330000CB02982F909591708E7F892B90FB81F93D
:1033100083CF9091CA02892F8F7B96FF806476CFEE
:103320000E9435089091CA02892F97FB87F980582F
:103330006DCF81E00E94490E8091CA029091CB022C
:103340000E94C60D0E94350880E0DF91CF9108955C
:1033500080E0F0CF9091CA02892F8F7E94FF806128
:1033600055CF9091CA02892F8E7F90FF81604ECFFA
:103370009091CB02892F877F93FF88604DCF81E0AA
:10338000E4CF282F35EB2303C001112497FF04C09D
:1033900080589109892F089580589F4FFBCF8091C5
:1033A000B00280FF0DC06091200170E0660F771FB2
:1033B0006038710570F56115710569F1862F089502
:1033C00081FF07C06091200184E0689FB001112453
:1033D000EFCF6091200182FD0AC08091AF02882367
:1033E000A9F020911F0160912001821710F088E060
:1033F000ECCF869FC001112433E0880F991F3A95C6
:10340000E1F7622F70E00E94032BD2CF68E070E0FA
:10341000D5CF8FE7089581E008958091B00280FFB5
:103420000CC060911C0170E0759567957595679566
:103430006115710549F1862F089581FF06C06091DD
:103440001C0170E075956795F3CF60911C0182FDBA
:103450000BC09091AE029923A1F060911B01809165
:103460001C01961738F0682F70E06038710500F382
:103470008FE70895899FC001112470E00E94032BFB
:10348000F4CF61E070E0D7CF81E008958D3C31F456
:103490000E94CF1981958093B40208958E3C19F44F
:1034A0000E94CF19F8CF8F3C31F40E94CF1981953B
:1034B0008093B3020895803D19F40E94CF19F8CF8C
:1034C000893D29F40E940D1A8093B50208958A3D22
:1034D00021F40E940D1A8195F7CF8B3D31F40E94A3
:1034E0000D1A81958093B60208958C3D19F40E94BF
:1034F0000D1AF8CF9FE2980F983070F4815D990B08
:1035000021E030E001C0220F8A95EAF78091B202F3
:10351000822B8093B20208958D3D31F48091B002E8
:1035200081608093B00208958E3D21F48091B002B5
:103530008260F7CF8F3DB9F78091B0028460F1CF00
:103540004091B3028D3C59F48091B40287FF0DC0C5
:103550001092B40241110BC01092AF0208C08E3C11
:1035600081F48091B40218169CF3442381F0809179
:10357000B5029091B602892B09F05AC01092AE02A2
:1035800008958F3C49F447FFF0CF1092B302809129
:10359000B4028111ECCFE0CF803D19F41416ACF3E6
:1035A000E4CF9091B502893D29F41916F4F61092F2
:1035B000B502DBCF8A3D19F497FFD7CFF8CF9091B2
:1035C000B6028B3D29F497FFD0CF1092B602CDCF33
:1035D0008C3D19F41916CCF3C8CF9FE2980F9830A0
:1035E00090F4815D990B21E030E0B90102C0660FD3
:1035F000771F8A95E2F7CB0180959091B2028923DB
:103600008093B202B2CF8D3D31F48091B0028E7FB3
:103610008093B002AACF8E3D21F48091B0028D7FBD
:10362000F7CF8F3D09F0A1CF8091B0028B7FF0CF13
:1036300008950E949B219C019091B3028091B40255
:10364000982B21F03093AD022093AC029091B502FB
:103650008091B602982B21F03093AB022093AA02FE
:1036600081EB92E00E94B91F089586E0E1EBF2E061
:10367000DF011D928A95E9F71092AF021092AE0217
:103680001092B0020895FC01828181110EC08381E5
:1036900081110BC08481811108C091E08581811165
:1036A00001C090E0892F8170089581E0FCCFA6E0F1
:1036B000B0E0EDE5FBE10C94332B86E0E1EBF2E0CA
:1036C000DE01119601900D928A95E1F71092B302F6
:1036D0001092B4021092B5021092B6028B819C81B6
:1036E000892B89F08091AC029091AD020E94B321A8
:1036F000AC019091AF029923C9F180912101841707
:10370000150608F440C08D819E81892B91F080912F
:10371000AA029091AB020E94B321AC019091AE023B
:10372000992309F46AC080911D018417150608F4D5
:1037300072C0BE016F5F7F4F81EB92E00E947C20E0
:10374000811105C081EB92E00E94431B81110E9410
:10375000191B86E0FE013196A1EBB2E001900D92BB
:103760008A95E1F72696E3E00C944F2B20912201F5
:103770008AE0289F900111242417350720F69F5FC7
:103780009093AF0202C09F3FD1F71B81112359F0E4
:103790000E94CF199FEF11160CF491E0899F802DA4
:1037A00011248093B3021C81112359F00E94CF1978
:1037B0009FEF11160CF491E0899F802D11248093C6
:1037C000B4028091B302882309F49DCF1091B40212
:1037D000112309F498CF0E94C119882351F08093D6
:1037E000B302812F0E94C119882329F08093B4026B
:1037F0008ACF81E0F4CF81E0F9CF20911E018AE0E9
:10380000289F900111242417350708F092CF9F5F5D
:103810009093AE0202C09F3FD1F71D81112359F052
:103820000E940D1A9FEF11160CF491E0899F802DD4
:1038300011248093B5021E81112359F00E940D1AA4
:103840009FEF11160CF491E0899F802D1124809335
:10385000B6028091B502882309F46BCF1091B602AD
:10386000112309F466CF0E94C119882351F0809377
:10387000B502812F0E94C119882329F08093B602D6
:1038800058CF81E0F4CF81E0F9CFB0E0A0E0EBE4E5
:10389000FCE10C942D2BE82FF0E0E45FFB4FB4909B
:1038A000282F26952695269530E0F901E455FB4F03
:1038B0000491877010E0082E02C0159507950A94B0
:1038C000E2F701701127F901E456FB4FE490F12C67
:1038D000082E02C0F594E7940A94E2F791E0E922F9
:1038E000FF24F901E457FB4FC491D0E002C0D59505
:1038F000C7958A95E2F7C170DD27C62ED12C011538
:10390000110549F5E114F10431F086EE0E94DE0460
:10391000C601009771F5B6018B2D0E94CB05C6013B
:10392000009779F5E114F104A1F50115110531F0C5
:1039300081EE0E947105C6010097C9F5CD2B31F0CB
:103940008CE20E94E305C114D104C9F5CDB7DEB7FE
:10395000E9E00C94492B81EE0E94DE04C601009739
:1039600089F2EFE9FFE03197F1F700C0000001971D
:10397000F6CFEFE9FFE03197F1F700C000000197C3
:10398000C8CFEFE9FFE03197F1F700C000000197E1
:10399000C7CF86EE0E947105C601009731F2EFE9AC
:1039A000FFE03197F1F700C000000197F6CFEFE993
:1039B000FFE03197F1F700C000000197BDCF8FE91C
:1039C0009FE00197F1F700C0000091E0C91AD1080B
:1039D000BACFEF92FF920F931F93CF93DF93EC0137
:1039E000162F0AE08881882309F459C0813009F034
:1039F00052C08981813071F47E0182E0E80EF11CB1
:103A00008A810E94E305E701812F90E00097D9F5B4
:103A10002196E8CF823041F47E01E2E0EE0EF11C07
:103A20008A810E94DE04EFCF833041F47E01F2E010
:103A3000EF0EF11C8A810E947105E5CF843011F0F0
:103A40002196E2CF2A81229690E080E0AE014F5F7E
:103A50005F4F2053330B2A30310550F00097A1F20D
:103A6000EFE9FFE03197F1F700C000000197F6CFD2
:103A7000089FB001099F700D1124C901860F971F7F
:103A80002981EA01E3CFEFE9FFE03197F1F700C0C8
:103A900000000197BBCF612F0E94451CB9CFCDB765
:103AA000DEB7E6E00C944C2B0F931F93CF93DF937C
:103AB000C42FD22FFC0185818823C9F04093B9021D
:103AC0000E949B219093B8028093B70280E28C0FF2
:103AD000883040F4C77081E001C0880FCA95EAF7CA
:103AE0000E94EC05DF91CF911F910F9108951091E5
:103AF000B902141332C08091B7029091B8020E94AB
:103B0000B321883C910548F5C0E2CD0F1D17B9F0EF
:103B100080E2810F883040F4177081E001C0880F87
:103B20001A95EAF70E94F305C83048F481E09D2F0A
:103B3000977001C0880F9A95EAF70E94EC05802FD4
:103B40000E94E305C83070F6D77081E001C0880F8D
:103B5000DA95EAF70E94F305C5CF80E28C0F883032
:103B600008F6C77081E001C0880FCA95EAF7F2CF66
:103B70000F93DB0188519C4787309105A0F5FC012C
:103B8000E95FF34D0C94172B06E221EE41EE6AE15A
:103B90007CE7CD010E94541D80E00F91089507E25B
:103BA00025EE45EE6BE17CE7F4CF06E221EE40EE38
:103BB00068E17CE7EECF07E225EE44EE69E17CE7C1
:103BC000E8CF06E221EE42EE6CE17CE7E2CF07E2CD
:103BD00025EE46EE6DE17CE7DCCF08E221E045EE24
:103BE0006EE17CE7D6CF15968C91882319F0109260
:103BF000B902D3CF81E0D1CF1F93CF93DF93873723
:103C00002CE7920759F0C1E088379C47E1F4FB01AB
:103C1000C581CC2371F10E943F1E06C0FB01C58106
:103C2000CC23B1F00E943C1E0E94AD080E94421EAF
:103C3000D82F0E943F1EC82F0E943C1E4D2F6C2F74
:103C40000E94D509C0E08C2FDF91CF911F9108957C
:103C50000E943C1E0E94B9080E94421E182F0E941A
:103C60003F1ED82F0E943C1E412F6D2F0E94D50968
:103C7000EACF0E943F1EEECF8091250108958091EA
:103C80002401089580912301089584E290E00E9428
:103C9000852B833289F485E290E00E94852B813167
:103CA00059F486E290E00E94852B91E0873209F07A
:103CB00090E0892F8170089580E0FCCFCF93C82FCA
:103CC0006FEF811163E284E290E00E94A32B6FEF1B
:103CD000C11161E185E290E00E94A32B6FEFC11159
:103CE00067E286E290E00E94A32BCF9108950895A9
:103CF00087E290E00E94852B682F70E090E080E0E2
:103D000008950895CF93C62F0E94811E6C2F87E2DD
:103D100090E00E94A32BCF91089580E00E945E1E48
:103D200060E070E0CB010E94821E0E946D170E942D
:103D30002E1881E00E945E1E08950E94771E0E9448
:103D4000781E0E94811E0E94451E811102C00E94A1
:103D50008D1E089508959C01FB018581882351F0F3
:103D6000A90157574038510530F4822F0E943E1860
:103D700080E0089581E008952FEFFC0120830895ED
:103D80000E94BC1E089580E00895B0E0A0E0EBEC36
:103D9000FEE10C942E2BEC01C62E0E94C31E811155
:103DA00010C0E881E150E331B8F4F0E0E25FF34D98
:103DB0000C94172B19828CE08A836C2DCE010E9403
:103DC0002124CDB7DEB7E8E00C944A2B89818230FC
:103DD000C1F028F4813061F08FEF8883EECF83301B
:103DE00099F08430C9F71A821B821C821D82E5CFAC
:103DF0000E94A7210E941D2B6A837B838C839D8355
:103E0000DCCF0E94781EF6CF8A81082F10E07E0159
:103E10009EE0D92ED80E0C30110578F6802F0E9426
:103E2000C911F701938384830F5F1F4FF2E0EF0EF8
:103E3000F11CD012F0CFC1CF8981823031F08530B2
:103E400059F68A810E94AA1EB8CF6A817B818C8133
:103E50009D810E941D2B0E94821EAFCF4B816A81E3
:103E600089810E942F179827892798279D838C8303
:103E7000A4CF2C813D813227232732274B816A81B1
:103E800089810E94511799CF0E946D1796CF6C2D92
:103E9000CE010E94C01E91CF0E94E11789838DCF71
:103EA0000E94E3179827892798279A83898385CFCB
:103EB0006B8170E089819A81AE014C5F5F4F9827DA
:103EC000892798270E94E61778CF6B8170E0898157
:103ED0009A81AE014C5F5F4F9827892798270E94EF
:103EE0000A186BCF0E942E1868CF0E941D17D6CFDC
:103EF0006B8170E089819A81AE014C5F5F4F98279A
:103F0000892798270E948D1758CF6B8170E089818F
:103F10009A81AE014C5F5F4F9827892798270E94AE
:103F2000B1174BCF9093C0028093BF0208950E94B7
:103F30009413811103C08091BA020895E091BF02E9
:103F4000F091C002309729F00190F081E02D0995A1
:103F5000089580E008950E94971F0895E091BF02A0
:103F6000F091C002309721F00280F381E02D099595
:103F70000895E091BF02F091C002309739F022E03D
:103F8000DC012C930680F781E02D09950895A3E0CC
:103F9000B0E0EDECFFE10C94342B2091BD023091A8
:103FA000BE0228173907A1F09093BE028093BD028C
:103FB000E091BF02F091C002309751F023E02983D5
:103FC0009B838A830084F185E02DCE0101960995BB
:103FD0002396E2E00C94502BA3E0B0E0E2EFFFE187
:103FE0000C94342B2091BB023091BC022817390766
:103FF000A1F09093BC028093BB02E091BF02F091CC
:10400000C002309751F024E029839B838A83008487
:10401000F185E02DCE01019609952396E2E00C94FE
:10402000502B40910001509101019A012E5F3F4FAA
:10403000485F5F4F80E02417350709F40895F901C0
:1040400091919F019923B9F38F5FF5CF882371F088
:104050002091000130910101F9013296285F3F4F14
:104060009191981729F0E217F307D1F780E00895AE
:1040700081E008959C01FC0132969FEF80E0419120
:10408000461751F09F3F19F4411101C0982F8F5FDF
:104090008630A9F79F3F09F40895290F311D97FD38
:1040A0003A95F90162830895FC01329608962191B0
:1040B000261303C0DF0111971C92E817F907B9F71F
:1040C0000895682F80910001909101010E943A208B
:1040D0000895682F80910001909101010E94542061
:1040E0000895E0910001F0910101329686E0DF0130
:1040F0001D928A95E9F70895DC01FB0111969C91C8
:1041000011978181981322C012968C91129788235F
:1041100019F0928189131AC013968C9113978823F2
:1041200019F09381891312C015968C9115978823E5
:1041300019F0958189130AC014969C91992321F056
:1041400081E02481291303C080E001C081E08170F7
:10415000089508950E94A920089581110EC081E05C
:104160008093290160912601709127018091280197
:10417000909129010E94AA20089582E0F1CF83E066
:104180008093290160912601709127018091280177
:10419000909129010E94AA2008950E94AD200895BF
:1041A00081E080932901609126017091270180911F
:1041B0002801909129010E94AA2008950E94D020F0
:1041C000089591E0811101C090E0909328016091E1
:1041D00026017091270180912801909129010E9468
:1041E000AA20089580912801089580932701609165
:1041F00026017091270180912801909129010E9448
:10420000AA20089580912701089580932601609146
:1042100026017091270180912801909129010E9427
:10422000AA200895809126010895089508950E9476
:1042300016210895089508950E9415210895CF9399
:104240000E941A210E940A130E941B21C0E08C2F99
:104250000E94C911892B31F4CF5FCC30C1F780E0C7
:10426000CF91089581E0FCCF85B7806885BF85B781
:10427000806885BF08951F921FB61F9211248F93E7
:104280009F93AF93BF938091C102811113C080911E
:10429000020390910303A0910403B091050341969A
:1042A000A11DB11D8093020390930303A093040307
:1042B000B0930503BF91AF919F918F911F901FBE47
:1042C0001F90189580910A03843031F10E9459049F
:1042D0001092C10288E190E020E40FB6F894A8950E
:1042E000809360000FBE2093600083B7817F84605D
:1042F00083BF83B7816083BF7894889583B78E7FAF
:1043000083BF0FB6F894A895809160008861809370
:104310006000109260000FBE08950E9435080E9450
:104320005E04089582E084BD93E095BD9AEF97BD49
:1043300080936E0008952FB7F894809102039091B6
:104340000303A0910403B09105032FBF08952FB775
:10435000F89460910203709103038091040390919B
:1043600005032FBF08959C014FB7F8948091020375
:1043700090910303A0910403B09105034FBF821BEA
:10438000930B0895CF92DF92EF92FF922FB7F8949C
:10439000C0900203D0900303E0900403F090050363
:1043A0002FBFA7019601261B370B480B590BCA01DB
:1043B000B901FF90EF90DF90CF90089578941F920D
:1043C0001FB61F9211248F939F93AF93BF93809139
:1043D000020390910303A0910403B0910503019699
:1043E000A11DB11D8093020390930303A0930403C6
:1043F000B0930503BF91AF919F918F911F901FBE06
:104400001F90189587E797E790930108809300081D
:1044100088E19AE00FB6F894A895809360000FBEEB
:1044200090936000FFCF88E19AE00FB6F894A895CA
:10443000809360000FBE90936000FFCF8EE1489B99
:1044400002C08150E1F7489BFECF0895589880E262
:104450008A95F1F7589A0895FC013BE03A95F1F7F7
:1044600098E020E080E031E040E14A95F1F7880FE4
:10447000489B02C08160232742E04A95F1F7000083
:1044800040E14A95F1F7915079F790E19A95F1F76B
:1044900099B132E03A95F1F7000040E14A95F1F721
:1044A000917092272081920F90830895A1E0B0E04F
:1044B000ECE5F2E20C94302B19828C017C01E60EC3
:1044C000F11C0E151F0541F481E09981911180E0E6
:1044D0002196E6E00C944C2B0E941E22CE01019600
:1044E0000E942C22F80181938F01EBCF509A589AA9
:1044F00008955098589AE89AE9E6F0E080818C7F18
:10450000808308956150770B91E001C0990F6A95FF
:10451000EAF720E031E0911108C0222391F0589A87
:1045200080E28A95F1F758980895492F482339F089
:10453000589A232740E24A95F1F79695ECCF589880
:10454000F9CF5898EDCFFF920F931F93CF93DF933E
:10455000EC018C01060F111DC017D10729F4CDB74E
:10456000DEB7E5E00C944D2BF9900E94262268E01E
:104570008F2D0E948222F0CF1F920F920FB60F92C2
:1045800011240F931F932F933F934F935F936F9338
:104590007F938F939F93AF93BF93EF93FF93CF93AB
:1045A000DF930F92CDB7DEB719820E941E22CE0193
:1045B00001960E942C22082F069506950695282F15
:1045C00022952570902F9570290F922F9370269524
:1045D0002695920F982797708981982B09F05CC0D7
:1045E000043008F059C080E18A95F1F7589A509A42
:1045F00082E08A95F1F700C0589888E0089F800112
:104600001124D801AD5FBE4F1696ED91FC9117971E
:104610003097A9F06091B5017091B60114962D9173
:104620003C911597260F371F11968D919C911297EB
:10463000680F791F13964C9113978C910995F80187
:10464000ED5FFE4F6381662351F02091B5013091FB
:10465000B60184819581820F931F0E94A3220E943C
:10466000262280E18A95F1F758985098589A80E16F
:104670008A95F1F7F801ED5FFE4F6081662351F0F6
:104680002091B5013091B60181819281820F931FF3
:104690000E9456220E941E220F90DF91CF91FF911F
:1046A000EF91BF91AF919F918F917F916F915F91AA
:1046B0004F913F912F911F910F910F900FBE0F902F
:1046C0001F9018950F931F93CF93DF93EC010497DE
:1046D0000CF04CC0F894509A589885E08A95F1F700
:1046E00000009C2F969595708C2F8570980F892FC0
:1046F00083709695969523E0CC0FDD1F2A95E1F700
:10470000980F8E01092B0E94262200C068E0802F9E
:104710000E94822280E18A95F1F75098589A489B2E
:104720001EC087E090E048991CC0FE01ED5FFE4F7F
:1047300063816623F9F02091B5013091B60184813F
:104740009581820F931F0E945622811113C0509AA7
:10475000589A7894DF91CF911F910F91089500C0DE
:10476000DECF019729F4509A589A789480E0F2CFDE
:1047700000C0D9CF0E941E2280E28A95F1F7589896
:10478000509A80E18A95F1F7CD5FDE4F688166230C
:1047900051F02091B5013091B60189819A81820F43
:1047A000931F0E94A3220E942622789481E0D2CFF8
:1047B00008959B01BA0190910A039430E9F48F7037
:1047C0008093E9009FEF8091E800915085FD06C03D
:1047D00085ED8A95F1F700009111F5CF8091E80001
:1047E00085FF0AC050E040E0C9010E941B2680916D
:1047F000E8008E778093E800089543E050E0BC0124
:1048000084E00E94D923089546E050E0BC0184E092
:104810000E94D9230895CF93DF93EC010E94F220E8
:1048200048E050E0BE0181E00E94D92388E0FE010B
:10483000A2ECB2E001900D928A95E1F7DF91CF9161
:104840000895603231F440E250E0BC0182E00E9401
:10485000D9230895A0E2B0E0E0E3F4E20C94342B15
:1048600080910A03843009F583E08093E900809108
:10487000E80082FF1AC08091E80090E085FF09C03F
:1048800050E040E060E270E0CE0101960E946A26AE
:1048900091E08091E8008B778093E800992329F0DC
:1048A00060E2CE0101960E94C51EA096E2E00C9443
:1048B000502B80910903811109C00E94FA270E94A0
:1048C00057288091E20084608093E200089510925E
:1048D000090308950E94D02081E00E94E1200895FC
:1048E0006091060381E0611101C080E00E94BF2059
:1048F000089590910A0381E0943009F080E060917E
:1049000006030E94CD20089542E061EC81E00E9400
:10491000762742E261EC84E00E94762742E261EC75
:1049200082E00E94762742E260EC83E00E947627D4
:1049300090910A0381E0943009F080E060910603D1
:104940000E94AD20089580910C03833009F463C068
:1049500030F48130E1F1823009F4A0C008958A304A
:1049600009F48CC08B3009F471C0893009F052C051
:1049700080910B03813209F04DC080910F0390911B
:104980001003009719F0029709F044C08091E800E5
:10499000877F8093E8008091E80082FF37C0909184
:1049A000F3008091F200029731F48091F1008130A0
:1049B00011F0863021F48091F1000E94F520809161
:1049C000E8008B778093E8000E94AA2723C080919B
:1049D0000B03813AF9F48091E800877F8093E80027
:1049E00080910F0390911003892B61F468E082ECB1
:1049F00092E070E00E94B9268091E8008B77809366
:104A0000E800089560E090E080E0F3CF80910A0331
:104A10008111C1CF089580910B03813AD9F780911C
:104A20000F0390911003892BA9F78091E800877FED
:104A30008093E8008091E80080FFFCCF0E94F22084
:104A40008093F1008091E8008E77BCCF80910B03BA
:104A5000813201F780910F0390911003892BD1F6D9
:104A60008091E800877F8093E8000E94AA278091C8
:104A70000D030E94E1200E943508089580910B03E8
:104A8000813241F68091E800877F8093E8000E94A0
:104A9000AA2780910E030E940521089580910B039F
:104AA000813A09F0B7CF8091E800877F8093E800D2
:104AB0008091E80080FFFCCF0E941221C1CF84B713
:104AC000877F84BF0FB6F894A895809160008861B5
:104AD00080936000109260000FBE80E890E00FB6F7
:104AE000F89480936100909361000FBE0E94DE20D5
:104AF00008950E94FA270E945728E2EEF0E0808194
:104B00008460808378940E94D62A08958AE291E096
:104B10000E94921F089580910A03853031F480919C
:104B20000A03853019F00E948D2108950E946221A8
:104B30000E941F21882399F380910803882379F329
:104B40000E9405260E943508EACF08959A014091F7
:104B50001103509112030E94AE250895492F552745
:104B60004330510521F168F44130510509F443C047
:104B70004230510509F444C090E080E050E040E04C
:104B800026C04132510551F142325105A9F7633037
:104B9000710590F7FB01EE0FFF1FE654FE4F4081B9
:104BA000518169547E4FFB01808190E010C09927AC
:104BB0008130910581F0009729F00297E9F6ECEB3E
:104BC000F4E002C0E0EEF4E0849190E0AF01F9017E
:104BD000518340830895E0EDF4E0F6CF6330710532
:104BE00058F6660F771FFB01E054FE4F408151815C
:104BF00089E090E0ECCF82E190E04FE355E0E7CF31
:104C00008BE590E044EE54E0E2CF80E189BD82E1A3
:104C100089BD09B400FEFDCF8091D8008F7D8093BF
:104C2000D8008091E00082608093E0008091E000F5
:104C300081FDFCCF0895AF92BF92CF92DF92FF9299
:104C40000F931F93CF93DF936C01EB018A010E94B6
:104C5000C927F82E811123C00115110539F0F8017B
:104C600080819181C81BD90BC80ED91EB12CA12CF3
:104C70002097A9F08091E80085FD22C08091E8008E
:104C80008E778093E80001151105A1F0F80180816D
:104C90009181A80EB91EB182A08285E0F82E8F2DD9
:104CA000DF91CF911F910F91FF90DF90CF90BF9038
:104CB000AF9008950E94C9278823D1F2F82EEFCF34
:104CC000F60181916F018093F1002197FFEFAF1AF8
:104CD000BF0ACECFAF92BF92CF92DF92FF920F93D7
:104CE0001F93CF93DF936C01EB018A010E94C927C8
:104CF000F82E811123C00115110539F0F8018081CA
:104D00009181C81BD90BC80ED91EB12CA12C20979C
:104D1000A9F08091E80085FD22C08091E8008B77A2
:104D20008093E80001151105A1F0F80180819181BF
:104D3000A80EB91EB182A08285E0F82E8F2DDF91DA
:104D4000CF911F910F91FF90DF90CF90BF90AF90C8
:104D500008950E94C9278823D1F2F82EEFCF8091C1
:104D6000F100F60181936F012197FFEFAF1ABF0A9F
:104D7000CECFFC0180911103909112038617970703
:104D8000A0F06115710529F49091E8009E77909349
:104D9000E80090E06115710551F4911108C080910F
:104DA000E80082FF34C080E00895BC01F2CF80911A
:104DB0000A038823C1F18530C1F18091E80083FDA9
:104DC00030C08091E80082FDEACF8091E80080FF4A
:104DD000E1CF8091F3002091F200382F6115710529
:104DE00019F02830310558F091E02830310509F0EC
:104DF00090E02091E8002E772093E800CBCF8191BE
:104E00008093F100615071092F5F3F4FE7CF809190
:104E10000A03882341F0853041F08091E80083FF48
:104E2000BECF81E0089582E0089583E00895FC01FB
:104E3000809111039091120386179707A0F06115D6
:104E4000710529F48091E8008E778093E80090E066
:104E50006115710551F4911108C08091E80082FF3D
:104E600035C080E00895BC01F2CF80910A03882309
:104E7000C9F18530C9F18091E80083FD31C080918E
:104E8000E80082FDEACF8091E80080FFE1CF8091C9
:104E9000F3002091F200382F6115710519F02830C8
:104EA000310558F091E02830310509F090E080910B
:104EB000E8008E778093E800CBCF84918093F10057
:104EC0003196615071092F5F3F4FE6CF80910A0301
:104ED000882341F0853041F08091E80083FFBDCF09
:104EE00081E0089582E0089583E00895982F973037
:104EF00028F08F708093E90081E008959093E90095
:104F0000242F762F50E0981731F07091EC0020910B
:104F1000ED005091F00021FD02C09F5FE8CF30917D
:104F2000EB003E7F3093EB003091ED003D7F3093FE
:104F3000ED003091EB0031603093EB007093EC00AA
:104F40002093ED005093F0002091EE0027FDE5CF77
:104F500080E0089580910B0387FF13C08091E800E3
:104F600082FF06C08091E8008B778093E80004C040
:104F700080910A038111F2CF089580910A0388235A
:104F8000D9F38091E80080FFF8CF8091E8008E7718
:104F9000ECCF2091E4003091E50095E6A901209145
:104FA000EC00822F817020FF06C08091E80080FF16
:104FB00006C080E008952091E80022FD1AC080918B
:104FC0000A03882389F0853089F08091EB0085FD04
:104FD0000FC02091E4003091E50042175307F9F229
:104FE0009150E1F684E0089582E0089583E0089509
:104FF00081E008950E9469280E947128E0EEF0E0A7
:10500000808181608083E8EDF0E080818F7780830C
:1050100019BCA7EDB0E08C918E7F8C9380818F7E40
:1050200080831092090308950F931F93CF93DF930A
:105030000E9469280E947128C8EDD0E088818F778E
:10504000888388818068888388818F7D888319BC64
:1050500010920A031092060310920803109207039D
:1050600000EE10E0F80180818B7F80838881816071
:10507000888342E060E080E00E947627E1EEF0E085
:1050800080818E7F8083E2EEF0E08081816080838A
:10509000808188608083F80180818E7F8083888111
:1050A00080618883DF91CF911F910F910895E8ED82
:1050B000F0E080818F7E8083E7EDF0E08081816089
:1050C000808384E082BF81E0809309030E941428DA
:1050D0000895E8EDF0E080818E7F80831092E200F9
:1050E00008951092DA001092E10008951F920F9235
:1050F0000FB60F9211242F933F934F935F936F93AB
:105100007F938F939F93AF93BF93EF93FF93809180
:10511000E10082FF0BC08091E20082FF07C0809116
:10512000E1008B7F8093E1000E94D52A8091DA0014
:1051300080FF19C08091D80080FF15C08091DA00EF
:105140008E7F8093DA008091D90080FF96C080E145
:1051500089BD82E189BD09B400FEFDCF81E0809365
:105160000A030E9459248091E10080FF19C08091B8
:10517000E20080FF15C08091E2008E7F8093E20004
:105180008091E20080618093E2008091D80080628B
:105190008093D80019BC85E080930A030E94702494
:1051A0008091E10084FF2BC08091E20084FF27C042
:1051B00080E189BD82E189BD89B5982F917080FF1A
:1051C000FBCF8091D8008F7D8093D8008091E10043
:1051D0008F7E8093E1008091E2008F7E8093E200D9
:1051E0008091E20081608093E20080910603882331
:1051F00009F449C084E080930A030E9479248091D5
:10520000E10083FF29C08091E20083FF25C08091E7
:10521000E100877F8093E10082E080930A0310928F
:1052200006038091E1008E7F8093E1008091E2008F
:105230008E7F8093E2008091E20080618093E200A3
:1052400042E060E080E00E9476278091F000886074
:105250008093F0000E946A24FF91EF91BF91AF917B
:105260009F918F917F916F915F914F913F912F917E
:105270000F900FBE0F901F90189519BC10920A0343
:105280000E94672470CF8091E30087FD93E09093A4
:105290000A03B3CF1F920F920FB60F9211242F93D0
:1052A0003F934F935F936F937F938F939F93AF93AE
:1052B000BF93CF93DF93EF93FF93D091E900DF701B
:1052C0008091EC00C82FC17080FDC0E81092E90009
:1052D0008091F000877F8093F00078940E948E295F
:1052E0001092E9008091F00088608093F000CD2B4F
:1052F000CF70C093E900FF91EF91DF91CF91BF9103
:10530000AF919F918F917F916F915F914F913F915D
:105310002F910F900FBE0F901F901895AAE2B0E04A
:10532000E4E9F9E20C94332B8BE093E02091F10057
:10533000FC012193CF01F3E083319F07B9F70E946D
:10534000A3248091E80083FF1EC180910B039091FC
:105350000C039A3008F017C1E92FF0E0EF5DF34D30
:105360000C94172B803899F0823809F00CC1809189
:105370000F038F70873008F006C18093E900809199
:10538000EB0085FB882780F91092E90006C0809128
:10539000070390910803911182609091E800977F34
:1053A0009093E8008093F1001092F1008091E80062
:1053B0008E77E5C0882309F4D3C0823009F0E3C0BA
:1053C00080910D038111D6C080910F038F702FEF54
:1053D000280F263008F0D7C08093E9002091EB0019
:1053E00020FFC8C0933031F48091EB00806280933D
:1053F000EB00C0C09091EB0090619093EB0021E036
:1054000030E001C0220F8A95EAF72093EA0010925B
:10541000EA008091EB008860EACF8111B4C010915E
:105420000D031F778091E3008078812B8093E30048
:105430008091E800877F8093E8000E94AA278091EE
:10544000E80080FFFCCF8091E30080688093E30058
:1054500082E0111183E080930A0395C08058823066
:1054600008F091C080910D0390910E038C3D23E0D4
:105470009207A1F583E08A838AE289834FB7F89483
:10548000DE01139620E03EE051E2E32FF0E050937E
:105490005700E49120FF03C0E295EF703F5FEF708B
:1054A0008E2F90E0EA30C0F0C7968D939D932F5FCA
:1054B000243159F74FBF8091E800877F8093E8003F
:1054C0006AE270E0CE0101960E94B9268091E80060
:1054D0008B778093E80057C0C096E7CF60910F03A9
:1054E00070911003AE014F5F5F4F0E94A625BC0173
:1054F000892B09F448C09091E800977F9093E800C9
:1055000089819A810E941727E1CF8038E1F5809147
:10551000E800877F8093E800809106038093F10084
:1055200045CF811130C090910D03923060F580918C
:10553000E800877F8093E800909306030E94AA27E3
:1055400080910603882311F084E005C08091E30078
:1055500087FDFACF81E080930A030E94842413C060
:1055600080910D03813079F481E0933009F080E07F
:10557000809308031092E9008091E800877F809370
:10558000E8000E94AA278091E80083FF0AC080916A
:10559000E800877F8093E8008091EB008062809331
:1055A000EB00AA96E3E00C944F2B0895CF938091E3
:1055B0000A038823A1F0C091E900CF709091EC001C
:1055C000892F817090FD80E8C82B1092E9008091AE
:1055D000E80083FD0E948E29CF70C093E900CF912F
:1055E00008950E94FA2710920A030895E8EDF0E06A
:1055F0008081806180838AE18A95F1F700C0809183
:10560000D9008170089597FB072E16F4009407D0F7
:1056100077FD09D00E945B2B07FC05D03EF49095E6
:1056200081959F4F0895709561957F4F0895EE0F76
:10563000FF1F0590F491E02D0994692796276927AB
:1056400078278727782708952F923F924F925F926D
:105650006F927F928F929F92AF92BF92CF92DF9282
:10566000EF92FF920F931F93CF93DF93CDB7DEB7E7
:10567000CA1BDB0B0FB6F894DEBF0FBECDBF09947B
:105680002A88398848885F846E847D848C849B84D2
:10569000AA84B984C884DF80EE80FD800C811B81E0
:1056A000AA81B981CE0FD11D0FB6F894DEBF0FBE0F
:1056B000CDBFED010895AA1BBB1B51E107C0AA1F76
:1056C000BB1FA617B70710F0A61BB70B881F991FA3
:1056D0005A95A9F780959095BC01CD010895FB01DD
:1056E000DC0104C08D910190801921F4415050409B
:1056F000C8F7881B990B0895FB01DC0102C00190DB
:105700000D9241505040D8F70895F999FECF92BDBF
:1057100081BDF89A992780B50895A8E1B0E042E0EC
:1057200050E00C94C92BDC01A40FB51F4150504030
:1057300048F0CB01840F951F2E910E94A42B41505D
:105740005040D0F70895262FF999FECF92BD81BD24
:10575000F89A019700B4021639F01FBA20BD0FB6AF
:10576000F894FA9AF99A0FBE08950396272F0E948B
:10577000A42B0E94A32B252F0E94A42B242F0C9432
:10578000A42B0196272F0E94A42B0C94A32BDC01A1
:10579000CB01FC01F999FECF06C0F2BDE1BDF89A3C
:1057A000319600B40D9241505040B8F70895F894E6
:1057B000FFCF3B063B068B068B06F0060C076A06FE
:1057C0006A0611077807870787073D19B119451938
:1057D0000F191319491917194D1959192319AA190C
:1057E00027195D192B19611989192F196519901934
:1057F00035196B1973191B1951191F1955193919B5
:105800006F197F199919A81909194119B819D51DC6
:10581000DB1DC41DCF1DE11DE71DED1DDA1EE61EBB
:105820001C1F2E1F391F441F471F471F471FEC1EF9
:10583000EC1E4C1F501F581F651F721F751F781FCD
:10584000851FB229DA29C32ADA29C32A0D2A2E2A6A
:06585000C32A852A912AFB
:1058560046020100000001000000000000000C01EB
:10586600000000040D000000000000280850011E82
:105876000A14010302010000010002210B24D823AF
:105886000424FD23E200E900EA00B500B600B700F3
:10589600CD008301CC008A019201940121022302EA
:1058A60024022502260227022A02B300B4006F0052
:1058B60070009F01CB019F02A002818283E200E972
:1058C60000EA00B500B600B700CD008301CC008A1F
:1058D60001920194012102230224022502260227B5
:1058E600022A02B300B4006F0070009F01CB019F33
:1058F60002A0028182833536323331F7F6F5F4930E
:1059060092946697C67C0244227BEE055105730588
:06591600F6040F052F0549
:00000001FF
