:100000000C94DA040C9421050C9421050C94210520
:100010000C9421050C9421050C9421050C942105C8
:100020000C9421050C9421050C94F8260C94B4260C
:100030000C944B280C9421050C9421050C9421055B
:100040000C9421050C9421050C9421050C94210598
:100050000C9421050C9427280C9421050C9421055F
:100060000C9421050C9421050C9421050C94210578
:100070000C9421050C9421050C9421050C94210568
:100080000C9472280C9421050C9421050C942105E4
:100090000C9421050C9421050C9421050C94210548
:1000A0000C9421050C9421050C942105076342361C
:1000B000B79BD8A71A39685618AEBAAB558C1D3CF9
:1000C000B7CC5763BD6DEDFD753EF6177231BF00BD
:1000D0000000803F08000000BE922449123EABAAF7
:1000E000AA2ABECDCCCC4C3E00000080BEABAAAA52
:1000F000AA3E00000000BF000000803F000000009A
:1001000000084178D3BB4387D1133D190E3CC3BDD2
:100110004282AD2B3E68EC8276BED98FE1A93E4C7F
:1001200080EFFFBE01C4FF7F3F00000000000631EA
:10013000FF0974A1010975150026FF0095207508B7
:1001400081020976150026FF00952075089102C0EE
:1001500005010980A101850319012AB700150126AF
:10016000B700950175108100C0050C0901A101853A
:100170000419012AA002150126A00295017510811B
:1001800000C00660FF0961A1010962150026FF0099
:100190009520750881020963150026FF00952075DA
:1001A000089102C005010906A101050719E029E728
:1001B00015002501950875018102950175088101D9
:1001C0000507190029FF150026FF0095067508810F
:1001D000000508190129059505750191029501751C
:1001E000039101C0000000000000000000000000BA
:1001F00000000000000000000000000000000000FF
:1002000000000000000000007E0F00D4FFFFFFC7C9
:100210000000007800000000000000002A2B2800E9
:1002200000000000000000000000000000000029A5
:10023000000000002C1E3420212224342627252EE5
:10024000362D3738271E1F2021222324252633331D
:10025000362E37381F0405060708090A0B0C0D0E49
:100260000F101112131415161718191A1B1C1D2F15
:100270003130232D350405060708090A0B0C0D0E35
:100280000F101112131415161718191A1B1C1D2FF5
:100290003130354C7267626C6967687420646973C9
:1002A00061626C65205B454550524F4D5D3A20724E
:1002B00067626C696768745F636F6E6669672E65F5
:1002C0006E61626C65203D2025750A007267626C64
:1002D0006967687420656E61626C65205B45455096
:1002E000524F4D5D3A207267626C696768745F6354
:1002F0006F6E6669672E656E61626C65203D2025B4
:10030000750A007267626C6967687420746F67674A
:100310006C65205B454550524F4D5D3A20726762D7
:100320006C696768745F636F6E6669672E656E617E
:10033000626C65203D2025750A0044454255473AC8
:100340002064697361626C65642E0A0044454255FD
:10035000473A20656E61626C65642E0A004F6E65D7
:1003600073686F743A206163746976653A20256416
:100370000A000A002530325820006B6579626F61EF
:1003800072645F7265706F72743A20007267626C9B
:10039000696768745F636F6E6669672E7370656501
:1003A00064203D2025640A007267626C6967687486
:1003B0005F636F6E6669672E76616C203D202564F1
:1003C0000A007267626C696768745F636F6E666962
:1003D000672E736174203D2025640A007267626C89
:1003E000696768745F636F6E6669672E68756520FC
:1003F0003D2025640A007267686C696768745F63F2
:100400006F6E6669672E6D6F6465203D2025640AF6
:10041000007267626C696768745F636F6E666967B4
:100420002E656E61626C65203D2025640A0072674E
:10043000626C696768745F636F6E666967204545C3
:1004400050524F4D3A0A007267626C696768745F78
:10045000696E6974207267626C696768745F636F44
:100460006E6669672E6D6F6465203D20302E2057C3
:10047000726974652064656661756C742076616C60
:1004800075657320746F20454550524F4D2E0A00FC
:100490007267626C696768745F696E69742065650C
:1004A000636F6E666967206973206E6F7420656E76
:1004B00061626C65642E0A007267626C69676874B9
:1004C0005F696E6974207374617274210A007267C7
:1004D000626C696768745F696E69742063616C6CD3
:1004E00065642E0A005B735D000A002530386200E7
:1004F0003A200025303258000A722F632030313202
:1005000033343536370A0000047F3F1F64321464E9
:100510003214783C1E1E140A050A00253032580099
:100520006B6579626F6172645F7365745F6C65643B
:100530003A20007267626C69676874207365742082
:100540007370656564205B4E4F454550524F4D5D5D
:100550003A2025750A000001010101010101010194
:100560000202020202020202020303030303030364
:100570000304040404040404050505050506060631
:100580000606070707070708080808090909090AEE
:100590000A0A0B0B0B0C0C0C0D0D0D0E0E0E0F0F93
:1005A0000F10101111111212131314141515161621
:1005B0001717181819191A1A1B1B1C1D1D1E1E1F90
:1005C0002020212222232424252626272829292ADF
:1005D0002B2C2D2D2E2F3031323233343536373807
:1005E000393A3B3C3D3E3F40414243444546474803
:1005F000494A4C4D4E4F50515354555658595A5BD9
:100600005D5E5F616264656668696B6C6D6F707278
:10061000737577787A7B7D7E8082838587888A8CE4
:100620008E8F91939596989A9C9EA0A2A3A5A7A918
:10063000ABADAFB1B3B5B7BABCBEC0C2C4C6C9CB0F
:10064000CDCFD1D4D6D8DBDDDFE2E4E7E9EBEEF0C5
:10065000F3F5F8FAFDFF7267626C69676874206DE4
:100660006F6465205B4E4F454550524F4D5D3A20BB
:1006700025750A007267626C69676874206D6F6423
:1006800065205B454550524F4D5D3A2025750A0067
:100690007267626C6967687420656E61626C652060
:1006A0005B4E4F454550524F4D5D3A207267626C2C
:1006B000696768745F636F6E6669672E656E6162F5
:1006C0006C65203D2025750A007267626C69676859
:1006D000742064697361626C65205B4E4F454550C0
:1006E000524F4D5D3A207267626C696768745F6350
:1006F0006F6E6669672E656E61626C65203D2025B0
:10070000750A007267626C6967687420736574208B
:10071000687376205B4E4F454550524F4D5D3A20F1
:1007200025752C25752C25750A007267626C696722
:1007300068742073657420687376205B4545505259
:100740004F4D5D3A2025752C25752C25750A0072B4
:1007500067626C69676874207261696E626F772086
:10076000736574206873763A2025642C25642C25E3
:10077000642C25750A00FFAA7F55407267626C6978
:100780006768742074696D657220656E61626C655E
:10079000642E0A007267626C696768742074696D00
:1007A00065722064697361626C652E0A00222325DC
:1007B0002628292A2C2D2F3032333536383A3B3D26
:1007C0003E4042434547494A4C4E50515355575974
:1007D0005A5C5E6062646668696B6D6F7173757791
:1007E000797B7D7F81838587898A8C8E9092949690
:1007F000989A9C9E9FA1A3A5A7A8AAACAEAFB1B39F
:10080000B4B6B8B9BBBCBEBFC1C2C3C5C6C7C9CAEE
:10081000CBCCCDCED0D1D2D2D3D4D5D6D7D7D8D9B0
:10082000D9DADADBDBDBDCDCDCDCDCDDDDDDDDDC0E
:10083000DCDCDCDCDBDBDBDADAD9D9D8D7D7D6D520
:10084000D4D3D2D2D1D0CECDCCCBCAC9C7C6C5C3E2
:10085000C2C1BFBEBCBBB9B8B6B4B3B1AFAEACAA2F
:10086000A8A7A5A3A19F9E9C9A98969492908E8CDF
:100870008A89878583817F7D7B79777573716F6DB9
:100880006B6968666462605E5C5A59575553515093
:100890004E4C4A4947454342403E3D3B3A38363547
:1008A0003332302F2D2C2A292826252322C35C10F1
:1008B0005FA800000051005200AA00A90005000135
:1008C00000060000004E004B00A900AA0001000134
:1008D0000001000000010001000100010001000111
:1008E000000100000001000100010001005B435D08
:1008F000005B445D005B535D005B575D005B525DD8
:100900000009027B00040100A0FA090400000103B1
:1009100001010009211101000122400007058103A6
:1009200008000A0904010002030000000921110166
:1009300000012222000705820320000107050303AE
:100940002000010904020001030000000921110137
:1009500000012232000705840320000A0904030075
:1009600002030000000921110100012222000705F5
:100970008503200001070505032000011201000284
:100980000000000810CB111101000102000110034A
:10099000420041004D0046004B002D003100000098
:1009A0000E034B0065006500620069006F000000E7
:1009B0000403090411241FBECFEFDAE0DEBFCDBF70
:1009C00004B603FE27C08091850590918605A0910D
:1009D0008705B09188058730904BA740B04BD1F484
:1009E0001092850510928605109287051092880551
:1009F00014BE84B7877F84BF0FB6F894A895809102
:100A00006000886180936000109260000FBEE0E09B
:100A1000F8E3099514E0A0E0B1E0EAEFFAE602C0DD
:100A200005900D92A034B107D9F725E0A0E4B4E019
:100A300001C01D92A538B207E1F70E94162A0C9456
:100A400044350C940000FF93EF93E0914004F09143
:100A50004104309709F00995EF91FF910895FC0149
:100A60008591803011F0EFDFFBCF0895FF27E0E2A2
:100A700030E247FF0CC0419597FF09C0EDE2609559
:100A8000709580959095611D711D811D911D27FFA9
:100A900002C0219530E350E2AA27660F771F881F16
:100AA000991FAA1FA41710F0A41B63955A95A9F7C4
:100AB000AA3008F0A95FA05DAF93F39561157105A9
:100AC0008105910541F7ED3211F4EF93F395F2179B
:100AD00018F43F93F395FBCF8F91B5DFFA95E1F7CB
:100AE0000895E991F9918591803021F0853219F0CE
:100AF000AADFF9CF089520E0E89455915532C1F36B
:100B0000503311F4689455915A3348F4505390F38C
:100B1000220F022E220F220F200D250FF4CF0EF4EC
:100B2000219589919991533619F3533729F153350A
:100B300059F1BC0188279927E8945C3621F4899102
:100B4000999168945591543639F446EF7EF077FFC9
:100B50000DC08FEF9FEF0AC055374AE039F0583586
:100B600040E121F0523642E009F00895FF93EF93FF
:100B70007DDFEF91FF91B7CFFF93EF93FC01819160
:100B80008030B9F360DFFBCFFF93EF9368DFF1CFE5
:100B9000DF93CF93CDB7DEB72596A3DFCF91DF915B
:100BA0000895CF92DF92EF92FF92E0918405EE23B9
:100BB00009F1E15088E0E802F0011124EC5BFA4F02
:100BC000C280D380E480F58020E030E0A901C70135
:100BD000B6010E94733118166CF48091430581119F
:100BE00002C010924205C701B601FF90EF90DF905E
:100BF000CF900895C12CD12C7601F5CFE8EDF0E02F
:100C000080818E7F80831092E2001092DA00109231
:100C1000E100A0EEB0E08C9181608C9380818F77B1
:100C2000808319BCA7EDB0E08C918E7F8C9380817E
:100C30008F7E80831092170508952091E4003091F3
:100C4000E50095E6A9012091EC00822F817020FF3C
:100C500006C08091E80080FF06C080E008952091E2
:100C6000E80022FD1AC080912405882389F0853090
:100C700089F08091EB0085FD0FC02091E400309158
:100C8000E50042175307F9F29150E1F684E0089528
:100C900082E0089583E0089581E00895EF92FF9245
:100CA0000F931F93CF937C018B010E941D06C82FC9
:100CB000811117C08091E80085FD0BC08091E8008C
:100CC0008E778093E8000E941D06882399F3C82F31
:100CD00008C0F70181917F018093F1000150110953
:100CE00049F78C2FCF911F910F91FF90EF900895AE
:100CF0008091260587FF13C08091E80082FF06C01F
:100D00008091E8008B778093E80004C080912405EF
:100D10008111F2CF0895809124058823D9F3809121
:100D2000E80080FFF8CF8091E8008E77ECCF982F15
:100D30009093E900242F762F50E0891731F07091BD
:100D4000EC002091ED005091F00021FD07C09F5F65
:100D5000973071F78093E90081E008953091EB00BE
:100D60003E7F3093EB003091ED003D7F3093ED00FE
:100D70003091EB0031603093EB007093EC002093E6
:100D8000ED005093F0002091EE0027FDE0CF80E0D1
:100D90000895CF92DF92EF92FF920F931F93CF931C
:100DA000DF93C8EDD0E088818F7E8883E7EDF0E0A7
:100DB00080818160808384E082BF81E08093170519
:100DC00088818E7F888302EE10E0F80110821092F5
:100DD000DA0081EEC82ED12CF601108288818F773F
:100DE000888388818068888388818F7D888319BC07
:100DF00010922405109225051092230510922205C9
:100E000090EEE92EF12CF70180818B7F8083888121
:100E10008160888342E060E080E00E949706F601EE
:100E200080818E7F8083F8018081816080838081D2
:100E300088608083F70180818E7F808388818061D4
:100E40008883DF91CF911F910F91FF90EF90DF90FA
:100E5000CF900895FC0180912C0590912D05861767
:100E60009707A0F06115710529F49091E8009E772D
:100E70009093E80090E06115710551F4911108C05C
:100E80008091E80082FF34C080E00895BC01F2CF79
:100E9000809124058823C1F18530C1F18091E8005B
:100EA00083FD30C08091E80082FDEACF8091E800A8
:100EB00080FFE1CF8091F3002091F200382F61157F
:100EC000710519F02830310558F091E028303105CE
:100ED00009F090E02091E8002E772093E800CBCF36
:100EE00081918093F100615071092F5F3F4FE7CFEF
:100EF00080912405882341F0853041F08091E800FD
:100F000083FFBECF81E0089582E0089583E00895D5
:100F10000895089508958091190508959C014FB78B
:100F2000F89480910D0590910E05A0910F05B09158
:100F300010054FBF821B930B08952FB7F894809133
:100F40000D0590910E05A0910F05B09110052FBFD2
:100F5000089520910A0530910B052817390771F083
:100F600090930B0580930A05E0910805F09109051F
:100F7000309721F00084F185E02D099408952091A7
:100F80000605309107052817390771F0909307057A
:100F900080930605E0910805F0910905309721F04E
:100FA0000680F781E02D09940895E0910805F091FD
:100FB0000905309721F00190F081E02D099480E03F
:100FC0000895FA01811101C0FB0109948091010586
:100FD000982F9E7F29F48170826080930105089587
:100FE0008A34E8F381708864F8CFAF92BF92DF92C1
:100FF000EF92FF920F931F93CF93DF93082F162F3B
:10100000E901E42FF0E0EA5AFA4F611110C0E491CF
:101010005E2F4E2F4983E8835A83DF91CF911F9132
:101020000F91FF90EF90DF90BF90AF900895E62E64
:10103000F12C4491D42EE42FF0E026E0829FC001F1
:1010400011242FEF30E0B9010E94A330802F90E0EF
:10105000880F991F55E5569FD001579FB00D112459
:101060008A1B9B0B982F990F890F5901AE18BF0847
:10107000AE9ED001AF9EB00DBE9EB00D11245B2F71
:10108000189F80011124012F11275901A01AB10ABC
:10109000AE9E8001AF9E100DBE9E100D1124590111
:1010A000A81AB108AE9CC001AF9C900DBE9C900DDB
:1010B0001124892F9927281B390B2E9FC0012F9FA0
:1010C000900D3E9F900D1124E92F62307105A1F023
:1010D00050F46115710509F49DCF6130710581F0FF
:1010E000EB2F512F97CF6430710569F080F0663097
:1010F000710509F48FCFF4CFE42F4B2F592F8ACFEE
:10110000E42F412F87CFEB2F542F492F83CF4B2F25
:101110005D2DE12F7FCFE1E7F0E080818D7F80833F
:10112000E0E9F0E080818F7380830895CF92DF92B1
:10113000EF92FF926B017C0120E030E0A9010E9458
:10114000733181110AC0809190008F738093900059
:10115000FF90EF90DF90CF9008958091900080688D
:1011600080939000C092BB04D092BC04E092BD0476
:10117000F092BE0420E030E040E051E4C701B60147
:101180000E94CB329B01AC0160E074E284E79BE4F7
:101190000E9478316B017C010E94EA3170939700C4
:1011A0006093960020E030E048E452E4C701B601C5
:1011B0000E94CB3220E030E048EC52E40E947831CB
:1011C0000E94EA317093990060939800C1CF80919A
:1011D000BF02811122C0109284050E948B081092D8
:1011E0003E0510923F051092330510923205E4E45B
:1011F000F5E080E090E0A0E8BFEB118210828283EE
:101200009383A483B58317821682389625E0E43849
:10121000F20799F781E08093BF0208958091C3049B
:1012200081110C94E70808959091A60492FF06C0DE
:10123000282F28712830F9F4877F846093FF06C037
:10124000282F28712831F1F4877E84612091A7042A
:1012500020FF06C0382F38713830D9F4877F81607D
:1012600021FF06C0282F28712831D1F4877E8161A3
:1012700094FD877E0895282F24712430F9F68B7F02
:101280008860DCCF282F2471243101F78B7E8861A0
:10129000DDCF382F3171313019F78E7F8860E0CF84
:1012A000282F2171213121F78E7E8861E1CFCF93E4
:1012B000DF93EC0182389105A9F1D8F581339105CE
:1012C00009F496C048F58932910509F48AC08A97D5
:1012D00009F495C0C11522E5D20708F0B6C0C115C2
:1012E00031E5D30708F026C1C83ED10508F09CC0FF
:1012F000C03ED10560F5C83AD10508F087C0C53AAF
:10130000D10508F0EFC0C130D10509F12097F9F0FF
:10131000C430D105E0F440C08533910509F45AC0CA
:10132000C997C1F68091A604837089F0C0EED0E021
:101330000EC0833E910599F170F4803E910501F154
:10134000823E910539F68091A60482FD21C0CE012E
:10135000DF91CF910895863E910561F1873E910519
:1013600071F1843E910509F0B5CF8091A70481FF0A
:10137000EECF8091A604C7EED0E084FD0DC0E7CF8C
:101380008091A60480FD07C19091A70490FFDFCF54
:10139000C3EED0E084FFDBCFD0E0C0E0D8CF8091B7
:1013A000A60482FDFBC09091A70490FDBFCF84FFEF
:1013B000CECFF2CF8091A60483FDDDCFC8CF809140
:1013C000A60483FDEEC09091A70491FFF0CFC4EE78
:1013D000D0E0BDCF8091A60485FFB9CFC9E2D0E0AF
:1013E000B6CF8091A60485FFB2CFC5E3D0E0AFCFE2
:1013F0008091A60486FFABCFCAE2D0E0A8CF80914F
:10140000A60486FFA4CFC1E3D0E0A1CFCF3BD10596
:1014100018F6C85AD0E0CC0FDD1FCB54DC4F099032
:10142000D881C02DD46493CFC11540E5D40708F00E
:1014300064C0C11580E4D80708F05CC0CE019A955D
:1014400081159F4108F483CFA7CFC11536E5D30797
:1014500018F5C11545E5D40708F084C0C11584E529
:10146000D80708F07AC09C2F969596959E01237018
:101470003327C115D34508F462C0C1E0D0E002C0F3
:10148000CC0FDD1F2A95E2F730E2939FC0011124B3
:10149000C82BD92BDA685BCFC1158AE5D80778F459
:1014A000C11599E5D90708F068C0C11528E5D2072C
:1014B00008F472CFDC2FCC27C06FD06A48CFCE01A2
:1014C00090568115904208F067CF8D2F8F710E9442
:1014D000140990E0982F882788279F719C012C2B56
:1014E000E90149C0C55AD0E0CE54DC4FC881D0E0F4
:1014F000D0642DCFDF70D06A2ACFCE01E4E096957C
:101500008795EA95E1F783702C2F26952695237011
:1015100040E2249F90011124382B8C2F8370C1E06E
:10152000D0E002C0CC0FDD1F8A95E2F7C22BD32B8F
:10153000DC680DCFDC2FCC27C16FD06A08CFC1E0AB
:10154000D0E002C0CC0FDD1F2A95E2F720E2929F87
:10155000C0011124C82BD92BEBCFDC2FCC27C46FB3
:10156000D06AF5CE8C2F0E941409C82FD0E0DC2F52
:10157000CC27CC27DF71D062EACE8C2F8F700E94EF
:10158000140934E0D695C7953A95E1F7CF709C2FB2
:10159000EC01D069DCCEC9E3D0E0D9CEC2EED0E018
:1015A000D6CEC6EED0E0D3CE80918C0481111092BD
:1015B0008C040895809590918B04982390938B04CC
:1015C0000895E4E4F4E09191891303C0DF011197D9
:1015D0001C9294E0EA34F907B1F70895A4E4B4E06A
:1015E000EFEF90E02D91821751F0EF3F19F42111A8
:1015F00001C0E92F9F5F9630A9F7EF3F09F40895E6
:101600000E2E000CFF0BEE5BFB4F82830895809142
:10161000870490915604981301C008958F5F8770D6
:10162000FACF990F990F890F982F97708695869505
:10163000869523E0829FF0011124E35BFB4F50E08D
:1016400040E080E0219130E0092E02C036952795D8
:101650000A94E2F721703327042E01C0220F0A9466
:10166000EAF7822B4F5F5F4F4330510559F70895DA
:10167000990F990F890F982F977041E001C0440F7F
:101680009A95EAF786958695869593E0899FF0016D
:101690001124E35BFB4F30E020E070E05191DF016B
:1016A0001197CB01022E02C0969587950A94E2F716
:1016B000817081958527842385278C932F5F3F4FE9
:1016C0002330310559F70895829590E09C01220F4F
:1016D000331F220F331F2C7C959587959595879501
:1016E0008373282B30E0C901880F991F8A7A3595BA
:1016F00027952575822B08959FB7F89410921505AC
:101700009FBF90912405943009F048C02091E900D2
:101710002F703091EC00932F917030FD90E8922B58
:1017200025E02093E9002091EB0020FF34C02091B8
:10173000EE0027FF30C020911405222321F02091D4
:10174000E80025FF28C01092140526E03091E8003B
:1017500035FF14C08093F1008091E80085FD27C01B
:101760008091E80080FFFCCF8091E8008E77809325
:10177000E8009F709093E90080E00895309124057F
:10178000343049F43091EB0035FD05C0215041F46F
:1017900081E0809314059F709093E9008FEF089586
:1017A000EFE9FFE03197F1F700C00000CFCF8FB72E
:1017B000F89421E0209315058FBFDBCF80931105AE
:1017C0007093130560931205809124058430F9F419
:1017D0008093E9008FEF9091E800815095FD06C05D
:1017E00095ED9A95F1F700008111F5CF8091E80011
:1017F00085FF0DC050E040E063E070E081E195E0DE
:101800000E944E068091E8008E778093E80008954C
:10181000BC0184E00C94DE0BBC0183E00C94DE0B75
:10182000CF93DF93EC0181E08093E9008FEF9091FB
:10183000E800815095FD06C095ED9A95F1F70000FE
:101840008111F5CF8091E80085FF14C050E040E0A1
:1018500068E070E0CE010E944E068091E8008E772D
:101860008093E80088E0FE01AAE1B5E001900D92C6
:101870008A95E1F7DF91CF91089581E08093E000B0
:1018800080E28093D8001092C9008FE19EE4019716
:10189000F1F700C0000087E090EBDC018093850544
:1018A00090938605A0938705B093880588E19CE016
:1018B0000FB6F894A895809360000FBE90936000D7
:1018C000FFCF8091010580FD0AC0E1EDF4E01182B7
:1018D00010821282339655E0E130F507C1F7539A32
:1018E0003BB1377F2BB128604FB7F89481ED94E07E
:1018F000FC015191CF0168E02BB9000000C057FFF7
:101900003BB9550F000000C000C000C03BB900C08B
:101910006A9591F7F5E081309F0751F74FBF8FE54A
:1019200094E00197F1F700C000000895EF92FF9254
:101930000F931F93CF93DF938C01C1EDD4E0F12C73
:10194000E12CF80194816091030580910205F8E093
:10195000EF16F104FCF49923F9F09E01409104057F
:101960000E94F5072FEFE21AF20A239680E1E816AB
:10197000F10439F70E94610CF801848190E001962E
:10198000817099278483DF91CF911F910F91FF90F0
:10199000EF900895992309F39E0140E0E1CF8F92E3
:1019A0009F92AF92BF92CF92DF92EF92FF920F93EE
:1019B0001F93CF93DF93EC014C81042F10E098012B
:1019C000D8010E9402319B01AC010E9418314B01E9
:1019D0005C01E0E2F0E0E01BF10BA5E5B0E0AC015A
:1019E0009B010E9418316B017C019F01DF010E9465
:1019F000FA309B01AC010E9423319B01AC01280D00
:101A0000391D4A1D5B1DC701B6010E94CB30F22E65
:101A1000822F90E039E23F15D8F143E0249F9001F6
:101A2000112435952795122F109591EDC92E94E02C
:101A3000D92E00E085E5E82EEF188E2D01FD8F2DC3
:101A40009601412F609103050E94F5070F5F53E057
:101A5000C50ED11C003189F70E94610C9C8181E088
:101A6000992319F0903219F48FEF80938D038091B0
:101A70008D03890F8C83DF91CF911F910F91FF9080
:101A8000EF90DF90CF90BF90AF909F908F90089590
:101A900025E530E0A901481B590BCA019A01220F24
:101AA000331F280F391F37FFBCCF2F5F3F4FB9CFF0
:101AB0000F931F93CF93DF93C1EDD4E0FE0111820A
:101AC00010821282339685E0E130F807C1F710E00A
:101AD00000E08091CF04082E000C990B081719071D
:101AE0008CF180918C03082E000C990B80179107C4
:101AF0004CF19E014091040560910305809102051F
:101B00000E94F5070F5F1F4F23960031110509F75B
:101B10000E94610C80918B039091CF04980F909359
:101B2000CF0420918C03280F20938C03121614F4F9
:101B30009F301CF0819580938B03DF91CF911F9193
:101B40000F910895198218821A82DCCFCF92DF920A
:101B5000EF92FF920F931F93CF93DF93FC0182814B
:101B6000DD24DA9480FD02C0DD24D394C1EDD4E0FD
:101B700010E000E0198218821A8294E0E92EF12C1C
:101B8000C12C8091CE048C0D8131CCF18F70082E48
:101B9000000C990B8017910791F4809104058E9D9C
:101BA000A0018F9D500D112455954795559547954A
:101BB0009E0160910305809102050E94F507CD0CFE
:101BC000F1E0EF1AF108E9F60F5F1F4F239600319D
:101BD000110581F60E94610C8091CE0491E0D9122A
:101BE00014C0811110C08FE08093CE04DF91CF919B
:101BF0001F910F91FF90EF90DF90CF90089587FF96
:101C0000C6CF805FC4CF8150EFCF90E001968F7038
:101C10009927EACFEF92FF921F93CF93DF93EC01C6
:101C200081EDE82E84E0F82E10E08C819701409140
:101C3000040560910305810F0E94F507115F83E0A1
:101C4000E80EF11C103F89F70E94610C9A818C818B
:101C500090FF08C08F5F8C83DF91CF911F91FF9021
:101C6000EF9008958150F7CF9091010590FF0CC03F
:101C7000E1EDF4E0818360834283339695E0E130C7
:101C8000F907C1F70C94610C08950F931F93CF933C
:101C9000DF9300D00F92CDB7DEB78C018091D004D6
:101CA00081110AC09E012F5F3F4F4FEF6FEF0E94DF
:101CB000F5078A818093D004F8016481613069F06E
:101CC0008091D00440E0662361F040E0623011F47E
:101CD0004091D00480E060E004C06091D00440E016
:101CE00080E00E94340EF801848190E0019663E068
:101CF00070E00E94B73084830F900F900F90DF91B7
:101D0000CF911F910F910895CF93DF9300D00F9241
:101D1000CDB7DEB79091010590FF0AC09E012F5FFD
:101D20003F4F0E94F5074B8169818A810E94340EE2
:101D30000F900F900F90DF91CF910895CF93DF9385
:101D4000EC01E1E0F5E0438162818C810E94840E28
:101D50008C818F5F8C83DF91CF910895CF93DF9338
:101D6000EC01EC81F0E0E355F84F4491E1E0F5E05F
:101D7000628181810E94840E8C818F5F8C83DF91D0
:101D8000CF910895CF93DF93C7E6D0E060E0CE0116
:101D90000E943F312196C11584E0D807B9F7DF9141
:101DA000CF9108956F927F928F929F92AF92BF9240
:101DB000CF92DF92EF92FF920F931F93CF93DF9317
:101DC0008DEAC82E88E0D82E0FE310E0E801609776
:101DD00036011CC0F50185909490692DC7010E94C1
:101DE0003F31682DC70101960E943F3182E0A80E65
:101DF000B11C82E0E80EF11CCE15DF0559F788E032
:101E0000680E711C28960C171D0731F07E0188E0C2
:101E1000E81AF1085301DECF005F1F4F80E1C80EC2
:101E2000D11C0F37110591F6DF91CF911F910F91C2
:101E3000FF90EF90DF90CF90BF90AF909F908F90EA
:101E40007F906F900895CF93C82F6FEF811162E25A
:101E500083E290E00E943F316FEFC11163E084E2C2
:101E600090E00E943F316FEFC11166E085E290E0A3
:101E7000CF910C943F3180E00E94230F60E086E216
:101E800090E00E943F310E94D20E0E94C20E81E07B
:101E90000C94230F0F931F93CF93DF9328E0629F3F
:101EA000E001112450E0440F551FC40FD51F30E14D
:101EB000839FC0011124C80FD91FCE0187960E94AD
:101EC0002B31082F10E0102F0027CE0188960E949A
:101ED0002B319801282BC901DF91CF911F910F91D0
:101EE0000895462F843038F4723028F4643018F4A2
:101EF000672F0C944A0F90E080E00895CF92DF9214
:101F0000FF920F931F93CF93DF936C0100912E05E7
:101F100080918D04082BC7E0D0E010E0FC2EC801B2
:101F20000C2E02C0959587950A94E2F780FD0CC0AF
:101F30002197A0F7F12C8F2DDF91CF911F910F9159
:101F4000FF90DF90CF900895B6018C2F0E94710F03
:101F50000E945709019761F3EECFCF93DF93EC0115
:101F60000E947E0FBE010E94710FDF91CF910C94F1
:101F70005709FC01808191810E94AD0F292F2F709C
:101F800092959F7092509E3078F4E92FF0E0EA5BD2
:101F9000FA4C0C94ED30803F19F020F4883E20F488
:101FA00081E00895843FE1F380E00895883EC0F326
:101FB000813FD1F7F5CF822F869586958695089536
:101FC00083E290E00E942B31823289F484E290E037
:101FD0000E942B31833059F485E290E00E942B312E
:101FE00091E0863009F090E0892F8170089580E0BB
:101FF000FCCFCF9384E090E00E942B31C82F82E287
:1020000090E00E942B31982F8C2FCF910895109241
:10201000CD048091CB0480FF08C084E997E09F93B2
:102020008F930E94C8050F900F900895809101052D
:102030008E7F809301058091CB0480FF0CC01F929E
:102040001F9289EC96E09F938F930E94C8050F9092
:102050000F900F900F900E9407102FEF80E792E0F3
:10206000215080409040E1F700C000000C94610CCA
:10207000EF92FF920F931F93CF93DF9380918B0486
:1020800090918A04892B90918904892B8093420432
:1020900090918C04992391F0892B8093420420E045
:1020A00084E494E0FC013191CF0131112F5FF4E021
:1020B0008A349F07B9F721110E94D40AE0910805DC
:1020C000F09109053097C9F10280F381E02D82E497
:1020D00094E009958091CB0482FF2FC080FF04C05B
:1020E0008AE793E00E942F05C2E4D4E08AE4E82E58
:1020F00084E0F82E04E713E08091CB0480FF0BC04E
:1021000088811F928F931F930F930E94C8050F9091
:102110000F900F900F902196EC16FD0669F78091B5
:10212000CB0480FF0AC082E793E0DF91CF911F913B
:102130000F91FF90EF900C942F05DF91CF911F919D
:102140000F91FF90EF90089590E080E00E94BF070C
:1021500090E080E00E94A90710928A0410928904FE
:102160000C94381080932E050C94A41080912E05A9
:10217000982F9670963019F488600C94B210877F6F
:10218000FCCF21E030E001C0220F8A95EAF72095CC
:1021900080912E0582230C94B21090918804809532
:1021A000892380938804282F277091F4282F082EE4
:1021B000000C330B9217130659F09091A70492FD6F
:1021C00007C08595859585950E94C1101092880459
:1021D000089521E030E001C0220F8A95EAF780914E
:1021E0002E05822B0C94B21080938D040C94A410B5
:1021F000882321F00E94DA0A0C943810089588236D
:1022000039F090918B04982B90938B040C94381098
:102210000895882309F44BC0823871F40E94D507D1
:1022200081FF45C089E30E94EE0A0E94381089E3CD
:102230000E94E10A0C943810833859F40E94D507A3
:1022400080FF35C083E50E94EE0A0E94381083E5C6
:10225000EFCF843859F40E94D50782FF28C087E465
:102260000E94EE0A0E94381087E4E2CF9CEF980F9C
:10227000913AF0F290E2980F983050F4877091E024
:1022800001C0990F8A95EAF7892F0E94DA0AD2CF06
:102290009BE5980F933020F490E080E00C94BF070A
:1022A000885A873120F490E080E00C94A9070895C3
:1022B000CF93C82F882309F488C08238C1F40E94C4
:1022C000D50781FD82C089E30E94EE0A0E94381082
:1022D0002FEF81EE94E0215080409040E1F700C064
:1022E000000089E30E94E10ACF910C9438108338F2
:1022F000A1F40E94D50780FD68C083E50E94EE0A24
:102300000E9438102FEF81EE94E0215080409040E1
:10231000E1F700C0000083E5E5CF8438A1F40E9416
:10232000D50782FD52C087E40E94EE0A0E94381051
:102330002FEF81EE94E0215080409040E1F700C003
:10234000000087E4CFCF8CEF8C0F813A68F4E4E48F
:10235000F4E08191C81799F124E0EA34F207C9F753
:102360008C2F0E94EE0AC0CF80E28C0F883068F478
:10237000C77021E030E001C0220FCA95EAF78091D2
:102380008B04822B80938B04AFCFEBE5EC0FE33013
:1023900040F4F0E0EE54FC4F808190E0CF910C943B
:1023A000BF07C85AC73188F4EC2FF0E0EE0FFF1FCB
:1023B000EB54FC4F80819181CF910C94A9078C2F15
:1023C0000E94E10A0E943810CBCFCF9108951F934D
:1023D000CF93DF93182FD0E0C0E0893311F4C0E52C
:1023E000D0E0812F0E945811209731F4812FDF9186
:1023F000CF911F910C9409118FE99FE00197F1F79C
:1024000000C000002197F0CF0F931F93CF93DF936D
:10241000C62FD42F022FFC0182818823A1F0609364
:1024200031050E949D079093300580932F05C7705A
:1024300081E001C0880FCA95EAF7DF91CF911F9123
:102440000F910C94FF1080913105681335C0809175
:102450002F05909130050E948E07883C910560F50C
:1024600010E21D0FCD17B9F080E28C0F883040F4D8
:10247000C77081E001C0880FCA95EAF70E94F81082
:10248000183048F481E09D2F977001C0880F9A950D
:10249000EAF70E94FF10802F0E94E711183098F48D
:1024A000D77081E001C0880FDA95EAF7DF91CF910C
:1024B0001F910F910C94F810C77081E001C0880F34
:1024C000CA95EAF7F3CFDF91CF911F910F9108954D
:1024D000CF93DF93D82FC091A704C2FB882780F940
:1024E0008D1711F1D0FBC2F9C093A7046091A60427
:1024F00084E090E00E943F316C2F82E290E00E94E5
:102500003F3182E00E94CD108091CB0480FF0CC04F
:102510001F92DF938DE593E09F938F930E94C805F0
:102520000F900F900F900F90DF91CF9108956091D1
:102530000105669570E04BE050E080E893E00E9472
:102540002A35892B19F481E08093CD040E949D07E0
:102550009093C6048093C5048091CB0480FF08C08B
:102560008BE797E09F938F930E94C8050F900F9081
:102570000895CF92DF92EF92FF926B017C010E944F
:10258000E607B701A60188E090E0FF90EF90DF90AA
:10259000CF900C9451312F923F924F925F926F9255
:1025A0007F928F929F92AF92BF92CF92DF92EF92E3
:1025B000FF920F931F93CF93DF9300D000D0CDB73E
:1025C000DEB7182F462E542E222E9091010590FF33
:1025D00046C0E92FE695AE2FB0E0A95FBB4F8C91C6
:1025E0008093CC049E7F923009F050C09E012F5FF3
:1025F0003F4F812F0E94F5074B8169818A810E949C
:10260000340E1093020540920305509204052220D7
:1026100009F49DC060910105709102058091030548
:10262000909104050E94B9128091CB0480FF17C0DD
:10263000809104051F928F93809103051F928F93C1
:10264000809102051F928F938AE297E09F938F9368
:102650000E94C8050FB6F894DEBF0FBECDBF0F9025
:102660000F900F900F90DF91CF911F910F91FF90DE
:10267000EF90DF90CF90BF90AF909F908F907F9022
:102680006F905F904F903F902F900895823019F493
:1026900050900405B6CF863019F410910205B1CFE1
:1026A0008930D9F3893109F0ACCFE9512E2F21704F
:1026B0002C838E2F80958170382EE695F0E0EA58B5
:1026C000F84FC590D490DD2431EDA32E34E0B32E25
:1026D000912C812CF12CE12C4FE4642E47E0742ED8
:1026E000C40124E0969587952A95E1F72C81012F66
:1026F00021112BC0080F8091CB0480FF11C0DF9205
:10270000CF921F923F921F920F93FF92EF927F9270
:102710006F920E94C8050FB6F894DEBF0FBECDBF02
:102720009501452D642D802F0E94F5079FEFE91A32
:10273000F90A8C0C9D1C23E0A20EB11C80E1E81666
:10274000F10471F60E94610C5CCF081BD4CF80911C
:10275000CB0480FF84CF1F925F921F924F921F92F3
:102760001F9383E097E072CFE1E0F5E0438128E03A
:10277000421B08F440E021E0628181810C94CB127D
:10278000E1E0F5E0438128E0420F08F44FEF21E05B
:10279000628181810C94CB12E1E0F5E0628128E056
:1027A000621B08F460E021E0438181810C94CB122C
:1027B000E1E0F5E0628128E0620F08F46FEF21E0CC
:1027C000438181810C94CB12E1E0F5E0818121E02D
:1027D0004381628188500C94CB12E1E0F5E0818165
:1027E00021E043816281885F0C94CB1280910505C2
:1027F000882319F08150809305056091010570913F
:10280000020580910305909104050C94B912809102
:102810000505833018F48F5F8093050560910105ED
:102820007091020580910305909104050C94B912F2
:102830009091010590FF55C0917081113CC092604C
:10284000909301056623F1F16091010570910205F5
:1028500080910305909104050E94B9128091CB04E8
:1028600080FF0FC08091010586951F928F9384E7AA
:1028700096E09F938F930E94C8050F900F900F9042
:102880000F9060910105669570E04BE050E080E8A4
:1028900093E00E942A35892B09F10E94071081E0FC
:1028A0008093C80420E04091040560910305809165
:1028B00002050C94CB12853210F09864C1CF880FBA
:1028C000982BBECF8091CB0480FFDBCF8091010598
:1028D00086951F928F9386E596E0CBCF0E94971244
:1028E000DECF08958091010581608093010580917C
:1028F000CB0480FF0DC01F9281E08F9380E996E0AA
:102900009F938F930E94C8050F900F900F900F9088
:102910008091010560E086950C9418148091010562
:102920008695815009F484E261E00C94181480913A
:10293000010586958F5F853208F081E061E00C9497
:1029400018149091010590FF07C09695981720F0F4
:10295000961710F40C94971461E00C941814E1E0AD
:10296000F5E087E1808311828FEF82838383148275
:1029700060817181828193810C94B9128554990B85
:10298000BC01990F880B990B0E941B3220E030E0AC
:1029900040E451E40E9478319B01AC0160E070E0BA
:1029A00080E090E40E94383320E030E04CED53E4C6
:1029B0000E94CB32089510928B04E4E4F4E086E0A8
:1029C000DF011D928A95E9F70C94A4101F93CF9311
:1029D000DF93CDB7DEB7AA970FB6F894DEBF0FBE70
:1029E000CDBF86E295E02091F100DC012D93CD0171
:1029F000B5E08E329B07B9F780912705833009F443
:102A000072C0B8F4813009F449C0823009F4B3C00F
:102A10008091E80083FF91C280912605909127055F
:102A20009A3008F08AC2E92FF0E0EC5AFA4C0C9484
:102A3000ED308A3009F48EC08B3009F471C08930D2
:102A400039F780912605813219F780912A059091F6
:102A50002B05009711F00297D9F68091E800877F47
:102A60008093E8008091E80082FF38C09091F300E5
:102A70008091F200029731F48091F100813011F0E1
:102A8000863021F48091F100809319058091E8004F
:102A90008B778093E8000E947806BACF8091260554
:102AA000813A09F0B5CF8091E800877F8093E800F4
:102AB00080912A0590912B05892B61F468E08AE1C9
:102AC00095E070E00E942A078091E8008B77809360
:102AD000E8009ECF60E090E080E0F3CF8091240595
:102AE0008111C0CF95CF80912605813A09F090CF12
:102AF00080912A0590912B05892B09F089CF80912F
:102B0000E800877F8093E8008091E80080FFFCCF99
:102B100080918E038093F1008091E8008E77B9CF89
:102B200080912605813209F073CF80912A0590911A
:102B30002B05892B09F06CCF8091E800877F80936B
:102B4000E8000E9478068091280580938E030E94F9
:102B5000DB145ECF80912605813209F059CF809138
:102B6000E800877F8093E8000E947806809129051D
:102B7000809318054DCF80912605813A09F048CF02
:102B80008091E800877F8093E8008091E80080FFD3
:102B9000FCCF80911805BECF803899F0823809F0BB
:102BA000CCC180912A058F70873008F0C6C1809310
:102BB000E9008091EB0085FB882780F91092E900FD
:102BC00006C0809122059091230591118260909119
:102BD000E800977F9093E8008093F1001092F10055
:102BE0008091E8008E77A5C1882309F493C18230D3
:102BF00009F0A3C180912805811196C180912A0511
:102C00008F702FEF280F263008F097C18093E900CE
:102C10002091EB0020FF88C1933031F48091EB00CC
:102C200080628093EB0080C19091EB009061909363
:102C3000EB0021E030E001C0220F8A95EAF72093F3
:102C4000EA001092EA008091EB008860EACF8111DF
:102C500074C1109128051F778091E3008078812B43
:102C60008093E3008091E800877F8093E8000E94D2
:102C700078068091E80080FFFCCF8091E3008068B7
:102C80008093E30082E0111183E08093240555C115
:102C90008058823008F051C12091280530912905D3
:102CA0002C3DE3E03E07A1F583E08A838AE2898335
:102CB0004FB7F894DE01139620E03EE051E2E32F97
:102CC000F0E050935700E49120FF03C0E295EF70CD
:102CD0003F5FEF708E2F90E0EA30C0F0C7968D9383
:102CE0009D932F5F243159F74FBF8091E800877F74
:102CF0008093E8006AE270E0CE0101960E942A0704
:102D00008091E8008B778093E80017C1C096E7CFE9
:102D100080912A0590912B05432F5527433051056B
:102D200009F44AC078F54130510509F47AC08BE7BF
:102D300090E0E1E0F9E04230510509F0FEC0209159
:102D4000E800277F2093E80020912C0530912D0585
:102D50008217930708F49C0140E02115310509F022
:102D600065C0411163C08091E80082FDC9CF8091A8
:102D70002405882329F2853019F28091E80083FF29
:102D8000F2CFBECF4132510509F43CC04232510569
:102D900009F0D3C08430910508F0CFC0FC01EE0FDC
:102DA000FF1FE05DFB4F0190F081E02D845D9B4FA4
:102DB000DC018C9190E01AC0332721303105D1F02D
:102DC0002115310561F02230310509F0B6C0EEE879
:102DD000F9E0E4918E2F90E0EEE8F9E007C0E0EB37
:102DE000F9E0E4918E2F90E0E0EBF9E0009709F430
:102DF000A4C0A5CFE0EAF9E0E4918E2F90E0E0EAEC
:102E0000F9E0F4CF8430910508F097C0880F991F3E
:102E1000FC01E85CFB4F0190F081E02D89E090E03F
:102E20008ECF82E190E0ECE7F9E089CF8091240534
:102E3000882309F465CF853009F462CF8091E800DA
:102E400083FD5ECF8091E80082FD8DCF8091E80008
:102E500080FF83CF9091F3008091F200211531051E
:102E600019F08830910550F041E0089709F040E0F2
:102E70008091E8008E778093E8006FCF4491409373
:102E8000F1003196215031090196E8CF803809F0E0
:102E900054C08091E800877F8093E80080912505E9
:102EA0008093F1009DCE811148C010912805123009
:102EB00008F043C08091E800877F8093E80010937A
:102EC00025050E947806112311F084E005C0809149
:102ED000E30087FDFACF81E08093240542E061ECB6
:102EE00081E00E94970642E261EC84E00E9497062E
:102EF00042E261EC82E00E94970642E260EC83E0ED
:102F00000E94970642E261EC85E00E94970680915C
:102F1000240513C080912805813079F481E0933035
:102F200009F080E0809323051092E9008091E80089
:102F3000877F8093E8000E9478068091E80083FFF5
:102F40000AC08091E800877F8093E8008091EB00C1
:102F500080628093EB00AA960FB6F894DEBF0FBE96
:102F6000CDBFDF91CF911F91089569EE7EEF90E084
:102F700080E00E945D3160E082E090E00E943F319D
:102F800060E083E090E00E943F3110928D0460E0A9
:102F900084E090E00E943F3160E082E290E00E9495
:102FA0003F3160E085E090E00E943F3160E086E0E4
:102FB00090E00E943F316FEF87E090E00E943F3148
:102FC00040E050E0BA0188E090E00E94513160E0BA
:102FD0008DE090E00E943F3140E050E0BA0188E18E
:102FE00090E00E94513160E087E190E00E943F3123
:102FF00040E050E0BA018CE190E00E94513170E075
:1030000060E080E290E00E945D3140E050E0BA0173
:1030100088E190E00E94513180E00E94230F0E94DD
:103020003B0F40E050E0BA018FE090E00E94513148
:1030300040E050E0BA0183E190E00C94513190E01F
:1030400080E00E943931893E9E4F11F40C94E00FCC
:1030500080E0089580914005811141C00E941F18B1
:10306000811102C00E94B51787E090E00E942B31C9
:1030700080934105E4E4F5E080E090E0A0E8BFEB58
:103080001182108282839383A483B5831782168270
:10309000389625E0E438F20799F7809140058111D0
:1030A0000CC00E948B083E9A82E0809390008AE1D7
:1030B0008093910081E0809340050E94E708809111
:1030C000410580FF06C063E070E087E892E00E945F
:1030D0002F190E949D07909335058093340508951C
:1030E0007F928F929F92AF92BF92CF92DF92EF9298
:1030F000FF920F931F93CF93DF934B015C017A01F3
:103100008091410580FF81C080914005811102C0FE
:103110000E942A1820E030E0A901C501B4010E94F4
:10312000733187FF04C0B7FAB094B7F8B0947090C9
:103130008405872D8150990B6C01EC01CF3FDC0792
:1031400009F04DC081E0870D893008F485C088E022
:103150008093840584E495E028E0FC013896DC0146
:1031600001900D922A95E1F7089625E08C37920799
:1031700099F781E08093BA0480933F05C09184055C
:10318000C150DD0B0E949D07FE0123E0EE0FFF1FE3
:103190002A95E1F7EC5BFA4F9183808382829382D8
:1031A000A482B582F782E6820E949D078091BF02C9
:1031B000882359F180917100826080937100809121
:1031C000900080688093900080913F05882321F0D3
:1031D0000E94D1050E9496081092BF0216C08E016F
:1031E00033E0000F111F3A95E1F70C5B1A4FA50170
:1031F0009401F80162817381848195810E94733109
:10320000811128C0CC15DD0574F0DF91CF911F919D
:103210000F91FF90EF90DF90CF90BF90AF909F9075
:103220008F907F900895219688E0F8013896D80114
:1032300001900D928A95E1F70E949D07F801918710
:10324000808782869386A486B586F786E686085FA1
:103250001F4FD8CF219772CF809384058ACFCF920A
:10326000DF92EF92FF92CF93DF93EC017B0180918D
:10327000410580FD08C0DF91CF91FF90EF90DF9076
:10328000CF900C94E70880914005811102C00E9404
:103290002A1880913F0581110E94E70881E0809300
:1032A0003E0510923D05D0933C05C0933B05F0923E
:1032B0003A05E092390510923805109237051092C0
:1032C00036056C817D818E819F810E94EA319B0150
:1032D000A0E6BAEE0E940231C12C2EE1D22EE12CE2
:1032E000F12CA70196010E94CB30688179818A81F7
:1032F0009B81A9010E9470180E949D07909335053B
:1033000080933405E0913B05F0913C0580913605B2
:103310009091370533E0880F991F3A95E1F7E80F50
:10332000F91F64817581868197810E94EA319B0132
:10333000A0E6BAEE0E940231A70196010E94CB30AE
:103340003093330520933205DF91CF91FF90EF90BA
:10335000DF90CF90089581E08093C40468E070E02E
:1033600080E493E00C942F190E940E091092C3047C
:1033700068E070E080E093E00C942F1981E0809386
:10338000C30468E070E080EC92E00C942F1962E0D6
:1033900070E08FEA92E00E942F192FEF81EE94E007
:1033A000215080409040E1F700C000000E94E708F3
:1033B000609141056E7F6093410587E090E00C9439
:1033C0003F316091410561606093410587E090E085
:1033D0000E943F3162E070E08FE992E00C942F1977
:1033E0000E94BE144FEF5FEF0C947018CF92DF92E3
:1033F000EF92FF920F931F93CF93DF936B017C01AA
:1034000020E030E0A9010E94733187FF04C0F7FA81
:10341000F094F7F8F09480913F05882309F458C0A0
:1034200080914005811102C00E942A1804E415E031
:10343000C7E0D0E0A7019601F80162AD73AD84AD9D
:1034400095AD0E94733181113CC083E0CC0FDD1F2C
:103450008A95E1F7CC5BDA4F1982188280E090E020
:10346000A0E8BFEB8A839B83AC83BD831F821E824F
:10347000AC01BD01F5E0CC37DF0789F4C1E0C093B2
:10348000BA0480918405815080938405811120C005
:103490000E948B08C093BF0210923F0519C088E0BC
:1034A000FE013896DE0101900D928A95E1F71986AA
:1034B00018864A875B876C877D871F861E862896BD
:1034C000D9CF219708501109CF3FDC0709F0B2CFBF
:1034D000DF91CF911F910F91FF90EF90DF90CF90F0
:1034E00008953F924F925F926F927F928F929F9238
:1034F000AF92BF92CF92DF92EF92FF920F931F9302
:10350000CF93DF93CDB7DEB7A3970FB6F894DEBFA6
:103510000FBECDBF8C01DC0113968D919C91149749
:10352000892B39F08C9111969C9189238F3F09F05A
:1035300096C7A3960FB6F894DEBF0FBECDBFDF913E
:10354000CF911F910F91FF90EF90DF90CF90BF90A0
:10355000AF909F908F907F906F905F904F903F9033
:1035600008950E947E0FF82E682F89819A810E940B
:10357000380B69817A818F2D0E94710F7C01F801CF
:103580008281882309F45EC7970122513F4520318B
:10359000310508F03FC78FEF93E00E942B31FEEE1C
:1035A000EF0E77E6872E912C8823A9F1809188046D
:1035B000877009F4BECFF8018281882309F4B9CF5E
:1035C0008091A70482FDB5CF82E0A3960FB6F89450
:1035D000DEBF0FBECDBFDF91CF911F910F91FF9046
:1035E000EF90DF90CF90BF90AF909F908F907F90A3
:1035F0006F905F904F903F900C94CD10811424E019
:103600009206A1F2C4010E942B31811101C0EA94FB
:103610003FEF831A930AE110F1CF1C821B824424EE
:1036200043946AE0362E74018FEFE81AF80AC40159
:103630000E942B3189831A82882309F4B7CF9FEF28
:10364000980F933000F58A83498292E0890E911C8D
:10365000C7010E942B318B83882309F4A7CFDE0199
:1036600011967D01F70120812223E9F2213009F032
:103670004AC091818281913041F4F2E0EF0EF11C59
:103680000E94E71109C04701EACF923049F422E0D5
:10369000E20EF11C0E945811EFEFEE1AFE0AE2CF83
:1036A000933031F432E0E30EF11C0E940911F4CFA3
:1036B000943021F08FEFE81AF80AEECF92E0E90E8D
:1036C000F11C30E020E0B7016F5F7F4FD70111960A
:1036D0004C918053990B8A30910550F0215031095B
:1036E000D8F2EFE9FFE03197F1F700C00000F6CF24
:1036F000329EF001339EF00D11249C012E0F3F1FCE
:10370000842F7B01E0CFE22FF0E0EC5EFD4F549080
:10371000822F86958695869590E0FC01EC5FFD4FA3
:1037200064902770712C022E02C0759467940A94DD
:10373000E2F731E063227724FC01EC50FE4FA490C5
:10374000B12C022E02C0B594A7940A94E2F7A1E02E
:10375000AA22BB24FC01EC51FE4FC490D12C02C024
:10376000D594C7942A95E2F7B1E0CB22DD24611409
:10377000710419F081EE0E945811A114B10419F0DE
:1037800086EE0E945811852D0E94E711AB2819F092
:1037900086EE0E940911672819F081EE0E94091136
:1037A000CD2809F479CF8CE26BCF81E00E94E9103B
:1037B0000E94B610FBCE81E00E94C110F9CF82E0DA
:1037C000F5CF2EE1E2162CE5F20631F4882309F458
:1037D0008AC00E94C719EACE3FE1E3163CE5F30632
:1037E00041F4882309F47FC08091410580FDF1CF29
:1037F00026C69AE2E9169CE5F90661F4882309F4E5
:1038000072C01092430564E070E080E091E00E9495
:103810002F19CCCEABE2EA16ACE5FA0679F3B6E2A4
:10382000EB16BCE5FB0631F4882309F45CC00E946A
:10383000BE19BCCEE7E2EE16ECE5FE0631F48823B5
:1038400009F451C00E94B419B1CEF8E2EF16FCE5BC
:10385000FF0641F49091C304882309F444C09111F8
:10386000F1CFE5CF2CE2E2162CE5F20629F488230D
:10387000D1F10E94AB199ACE3DE2E3163CE5F30686
:1038800049F4882381F11092C40468E070E080E27A
:1038900091E0BDCF9EE2E9169CE5F90639F4882354
:1038A00011F18091C4048111EECFE3CFA9E2EA16B1
:1038B000ACE5FA06C1F48823B1F00E940E0920910C
:1038C000000230E02F5F3F4F237033272093000228
:1038D00048E2429FC001439F900D112465E070E0D3
:1038E000805A9E4F94CF4091C304411189C090915A
:1038F000C404911185C0B3EFEB16BCE5FB0609F4D7
:1039000051C1C0F4F8EDEF16FCE5FF0609F446C11D
:1039100029EDE2162CE5F20609F450C137EDE31665
:103920003CE5F306B9F426E241EE61EEC8010E94DF
:1039300004123CCE85EFE8168CE5F80609F43AC18E
:1039400008F434C127E245EE66EEA6EFEA16ACE5D0
:10395000FA0661F3D80112968C91882309F492C576
:1039600010923105B3E0EB16BDE5FB0608F029C166
:10397000EAEFEE16ECE5FE0630F4C70182509C45F6
:10398000449708F024C10E94F90F9093A7048093F4
:10399000A60420E1E2162CE5F20609F421C208F0A3
:1039A0006BC188E0E8168CE5F80609F4F1C108F06F
:1039B0003AC1A4E0EA16ACE5FA0609F4DBC108F066
:1039C0001CC1E2E0EE16ECE5FE0609F4CDC18091E3
:1039D000A6048260F3E0EF16FCE5FF0609F4C7C118
:1039E0006091A604F090A70484E090E00E943F312B
:1039F0006F2D82E290E00E943F310E94DB14D6CD11
:103A0000882309F450C0B0EEEB16F10461F40E9473
:103A10000E0981E080934B0410924A041092A50491
:103A20001092A104C3CDE2EEEE16F10471F40E94EF
:103A30000E0980914B04882319F081E080934A0499
:103A400010924B041092A504B1CDF3EEEF16F104E1
:103A500091F490914A04992331F10E940E09109239
:103A60004B0481E08093A5041092A2041092A40458
:103A70001092A3049BCD22E5E216F10451F480914B
:103A8000790290917A020A9790937A028093790250
:103A90008DCD31E5E316F10431F4809179029091F6
:103AA0007A020A96F1CF9091000291112BC0D801B1
:103AB00011969C91119722E030E0291B3109DC908E
:103AC000B0E1DB0EECE02E9FD00C1124882309F42A
:103AD0005CC0442319F08D2D0E94F01980914B0495
:103AE000882351F08091A104E82FF0E0EF56FB4FBE
:103AF000D0828F5F8093A104FFEFEF16F10408F0EE
:103B0000FACE54CD913081F4D80111969C91119741
:103B100022E030E0291B3109D22EDD0CDD0CD20E63
:103B20009C919D5CD90ED2CF923071F4F8019181B5
:103B300022E030E0291B3109D080F3E3DF0E97E06B
:103B4000299FD00C1124C2CF5CE0D52E933009F010
:103B5000BDCF93E2EFE8F3E0DE01119601900D9204
:103B60009A95E1F7D801EC91EC0FFD2FF11D11961C
:103B70009C9122E030E0291B3109D084BCE02B9FCE
:103B8000D00C1124E9E0DE0EA1CF442309F4B4CF18
:103B90008D2D0E94BE140E94F619AECF27E245EE8D
:103BA00065EEC4CE26E241EE60EEC0CE27E245EEE1
:103BB00064EEBCCE26E241EE62EEB8CE28E241E0F1
:103BC000EFCFF1E6EF16FDE5FF0609F4DCCE8091BC
:103BD0008B0426E1E2162CE5F20609F060C48A7A2D
:103BE00091E009F490E090934C04811122C189E2A4
:103BF0000E94EE0A0E943810D9CC8091A604806100
:103C000026E0E2162CE5F20609F4B1C08091A60484
:103C1000886037E0E3163CE5F30608F4A8C080911D
:103C2000A6048062A4C08CE0E8168CE5F80609F4CE
:103C3000CFC060F4AAE0EA16ACE5FA0609F4B2C017
:103C400008F4AAC08091A6048E7F91C08091A6043A
:103C5000877FEEE0EE16ECE5FE0609F488C0809161
:103C6000A6048B7FFFE0EF16FCE5FF0608F47FC09B
:103C70008091A6048F7E7BC02CEFE2162CE5F20625
:103C800009F4AAC0F0F584E1E8168CE5F80609F419
:103C9000BFC0C8F4A2E1EA16ACE5FA0609F4A4C074
:103CA0008091A6048F7BB3E1EB16BCE5FB0608F41C
:103CB0005EC08091A604837F8093A60462E070E0DA
:103CC00081E192E078C0EAEFEE16ECE5FE0609F439
:103CD00055C008F059C025E1E2162CE5F20609F0BE
:103CE0007FCE8091A60482FB992790F921E092274C
:103CF00090FB82F990FB83F98093A60483FFDECFCB
:103D000056C0E1143DE5F30609F474C0C0F49EEF1B
:103D1000E9169CE5F90609F451C08091A7048D7F4E
:103D2000AFEFEA16ACE5FA0660F18091A7048C7F4C
:103D30008093A70462E070E081E092E03CC0B2E0D2
:103D4000EB16BDE5FB0609F472C008F46AC0F1E6A3
:103D5000EF16FDE5FF0609F043CE9091A604892FEA
:103D60008F7E94FF806103C08091A6048160809360
:103D7000A60436CE8091A6048460F9CF8091A70472
:103D800081608093A7042CCE8091A7048260F9CF34
:103D90008091A6048064EBCF0E94DB148091A6047E
:103DA0008068E5CF8091A6048C608093A60464E0CF
:103DB00070E081E492E00E942F1912CE8091A70456
:103DC00083608093A70464E070E081E292E0F3CF27
:103DD0008091A6048D7FCBCF8091A7048E7FD1CF19
:103DE0008091A6048F7DC3CF0E94DB148091A6042E
:103DF0008F77BDCF8091A704982F909591708E7F7B
:103E0000892B90FB81F98093A70481FF93CFDBCFAF
:103E10000E94DB149091A604892F97FB87F98058A4
:103E2000A6CF61E08EE090E00E943F31D9CD60E006
:103E3000F9CF85E3DDCE85E32FC38091CB0480FFEE
:103E400010C080910105809581701F928F9383E04F
:103E500093E09F938F930E94C8050F900F900F904F
:103E60000F908091010580FF2EC08E7F8093010509
:103E70006091010570910205809103059091040500
:103E80000E94B9128091CB0480FF0FC08091010580
:103E900081701F928F9384E992E09F938F930E9489
:103EA000C8050F900F900F900F900E9407103FEFE2
:103EB00080E792E0315080409040E1F700C0000080
:103EC0000E94610C73CB8160809301058091CB04CB
:103ED00080FF0DC01F9281E08F938CEC92E09F9346
:103EE0008F930E94C8050F900F900F900F908091B4
:103EF000010561E086950E94181458CB4EE854E104
:103F000067E974E10E94E10751CB47E954E16EE8AB
:103F100074E1F8CF4DEE53E164EE73E1F3CF4CEC76
:103F200053E168ED73E1EECF44EB53E160EC73E1F4
:103F3000E9CF40EC53E164EB73E1E4CF47E054E1B7
:103F400066EF73E1DFCF61E081E0D5CF65E082E02D
:103F50000E94A1142BCB68E086E0FACF64E18FE0E9
:103F6000F7CF67E185E1F4CF62E289E1F1CF61E06B
:103F700083E2C1CF2BE5E2162DE5F20609F44AC033
:103F80003CE5E3163DE5F306D9F18AE5E8168DE553
:103F9000F80609F0B6C281E03AC00E94DB140E9424
:103FA0000E090E949D078C0163E070E081E692E0BB
:103FB0000E942F19C8010E948E078A3F910520F0A8
:103FC0000E94E7080E943D0CAFE9BFE01197F1F7AE
:103FD00000C00000EFCF9091CB04892F8E7F90FF1F
:103FE00081608093CB0480FF05C08CE493E00E9445
:103FF0002F05DCCA8AE393E0FACF0E94B517D6CA30
:104000008091A70482FB882780F991E089270E948C
:10401000681277C280E0FBCFC7010E94110BD82E37
:1040200081C22F2D2F70C22E8F2D807F19F0C29448
:1040300090EFC922DD20B9F0CC2069F080E28E0D2E
:10404000883010F0811009C080918B04C82AC0927A
:104050008B040E9438108E2D50C080918A04C82A8B
:10406000C0928A04F6CF8E2D0E940911CC2009F44B
:1040700046C080E28E0D883010F0811004C08C2D77
:104080000E94DA0A06C0C09480918A04C822C092B5
:104090008A040E94381033C03F2D3F70C32E8F2DED
:1040A000807F803219F0C29480EFC8228820A1F06E
:1040B00081E0881609F482C0DD2009F48CC0BB20A1
:1040C00009F482C0D80115968C91159780FFC3CF53
:1040D0008F7015968C9378C02091A70422FF4BC057
:1040E000DD2009F442C0CC2039F080918B04C82A2D
:1040F000C0928B040E94381080E00E945811A92DB4
:10410000A850BB0B149710F40E94D507AA2009F4FD
:1041100010CA8091880480FD0CCAF801128285952E
:10412000859585950E94E910C8010E94711A8091B9
:104130008804859585958595A3960FB6F894DEBF7E
:104140000FBECDBFDF91CF911F910F91FF90EF90E8
:10415000DF90CF90BF90AF909F908F907F906F90A7
:104160005F904F903F900C94C11080E00E94091125
:10417000CC2029F284CFDD20A1F090918C048C2DED
:10418000892BB11003C00E94FF10B9CFA1E0BA1271
:10419000FACF22FDB4CF981709F4B1CF80938C04E5
:1041A000AECFB11006C00E94D40A8C2D0E94F81028
:1041B000A6CFB1E0BB1609F4A2CFF5CFDD2031F0D8
:1041C000E5E0EB1508F49BCF8C2DDDCFF4E0FB157B
:1041D00008F495CFEACFBB2041F3B9E38B1213C1AA
:1041E000EFEFF7EE23E0E150F0402040E1F700C0B0
:1041F000000009C18F2D86958695837061F081300E
:1042000009F07DCFC7019370D11002C090E080E02B
:104210000E94A90774CFC7019370D11002C090E02B
:1042200080E00E94BF076BCF8F2D837091F5D11076
:1042300066CF4E2D429546954770440F440F8E2D04
:104240008F70042E01C0880F0A94EAF72E2D20717A
:10425000E4FE07C02FE030E001C0220F4A95EAF7E4
:1042600020953F2D369536953370323069F050F4F5
:1042700040918D04313029F0822B84230E94F41068
:104280003ECF842B822BFACF282B80918D0482275E
:10429000F5CF8695DD2011F08F2D8170882309F4EC
:1042A0002ECF4E2D429546954770440F440F8E2DCC
:1042B0008F70042E01C0880F0A94EAF72E2D20710A
:1042C000E4FE07C02FE030E001C0220F4A95EAF774
:1042D00020953F2D369536953370323069F050F485
:1042E00040912E05313029F0822B84230E94B21098
:1042F00006CF842B822BFACF282B80912E05822784
:10430000F5CF3F2D3F70F32EDD2029F0832F0E9443
:10431000E9108E2D38CF8E2D0E94F8108F2D0E941F
:10432000C110EDCE8E2D92EF8916B1F1981570F077
:10433000A0EF8A16D1F0B1EF8B1691F0DD2009F4D1
:104340005DC0B11088CE8F2D8F712AC0E3EF8E161D
:1043500051F1F4EF8F12F2CF8091A70482FF2FC0AA
:104360008F2D8F71DD20D9F21BC0DD2081F024E07C
:104370002B1508F4C4CE2F2D2F7181E090E001C0E1
:10438000880F2A95EAF790912E058927AFCF35E05F
:104390003B1508F4B4CEEFCF8F2D8F71D110BFCF66
:1043A0000E94E910ACCE80E0DD2009F49FCF9F2D64
:1043B0009F7181E001C0880F9A95EAF797CFDD20C1
:1043C00091F08F2D8F71F82E0E94E9108091A70433
:1043D00082FD07C0A8E0FA9EC0011124836080938B
:1043E00088048F2DDDCF81E00E94CD10B1E0BB1598
:1043F00008F085CE82E00E94CD1081CEBB2039F03E
:10440000893309F4EDCE8E2D0E94091178CE8F2DBF
:104410008F7185CFF0E1EF16FFE5FF0609F4C5C9FE
:1044200021E1E2162FE5F20609F4C9C9FDE1EF1614
:10443000FCE5FF0609F0C5C9882309F454CA0E94A7
:10444000E119B4C830E1E3163FE5F30609F4B3C956
:1044500091E1E9169FE5F90649F782E0ADC985E0EB
:10446000F801DE01119601900D928A95E1F7D801CD
:1044700012962C9189819A81211173C80E94110B87
:10448000F82E77C8B6E1EB16BCE5FB06D1F58091B6
:104490004C048111D0CC89E20E94E10AABCB82723C
:1044A000ECECEE16ECE5FE0609F448CD08F0ADC0E4
:1044B00026ECE2162CE5F20609F42CCD08F07CC0BF
:1044C00093ECE9169CE5F90609F418CD08F063C0F1
:1044D000B2ECEB16BCE5FB0609F4AFCCAEEDEA1688
:1044E000ACE5FA0609F489CD08F044CDE114ECE519
:1044F000FE0609F452CDF1E0EF16FCE5FF0609F4E3
:104500006ACDD80112968C911297ED90FC90882379
:1045100009F482CDC7010E947E0FD82E682FC701F3
:104520000E94380BB7018D2D0E94710F0E94570910
:104530007C01882EF801D280B580B2943FE0B3228E
:10454000809188048770C1F0AD2CDD20B1F08F2DF3
:10455000807F803421F080E28E0D883068F0809179
:10456000A70482FD09C082E00E94CD1080918804DA
:104570008770AA24A3948111A12C9F2C92942FE0E0
:104580009222FBE0F91508F4BACDE92DF0E0E25AE9
:10459000FA4C0C94ED30E4ECEE16ECE5FE0609F472
:1045A000B4CC44EE53E16DEE73E1F5ECEF16FCE5AF
:1045B000FF0609F4A7CC92CF29ECE2162CE5F2060F
:1045C00009F4B2CC88F497ECE9169CE5F90609F4F5
:1045D000A6CC48ED53E16CEC73E1A8ECEA16ACE52F
:1045E000FA0609F48FCC7ACFBAECEB16BCE5FB06E1
:1045F00009F49FCC46EF53E167E074E1EBECEE1673
:10460000ECE5FE0609F47ECC69CFF1EDEF16FCE592
:10461000FF0609F4A3CCB8F43EECE3163CE5F30640
:1046200009F494CC08F48FCC9FECE9169CE5F906CC
:1046300009F491CC6EE089E0A0EDEA16ACE5FA064B
:1046400009F486CC4BCFB4EDEB16BCE5FB0609F4C0
:104650008BCC78F4F2EDEF16FCE5FF0609F481CC83
:1046600061E088E123EDE2162CE5F20609F443CC83
:1046700035CF35EDE3163CE5F30609F478CC8DE54E
:10468000E816F80611F40C94D61A28CF1F93CF938E
:10469000DF9380915504807FA9F480915204882390
:1046A00089F080918704D0915604609150047091F4
:1046B0005104A0915304B0915404C62FC72316E0AF
:1046C000D81304C0DF91CF911F91089590E0109707
:1046D00011F0CF3F19F401968770F2CF189F900127
:1046E000199F300D1124F901E95AFB4F41814713FD
:1046F000F2CF40814613EFCF42814111ECCF43818D
:1047000054814A1B5B0B483C510528F780915504A6
:104710008F70806180935504F901E45AFB4F8081CA
:104720008F708061808380E594E00E94711ADF9130
:10473000CF911F910C94070BAF92BF92CF92DF9253
:10474000EF92FF920F931F93CF93DF93CDB7DEB716
:1047500061970FB6F894DEBF0FBECDBF8C0185E028
:10476000F801DE011D9601900D928A95E1F7F8019E
:10477000E28080E5A82E84E0B82E60915304709109
:1047800054046115710509F432C1909150044091AF
:104790005104892F84238F3F09F429C1208131815D
:1047A000C380D480F0905204F601E61BF70BFF2083
:1047B00009F4E8C080915504582F507FE83CF1057A
:1047C00008F0ABC0511177C0FE2C431321C09213E7
:1047D0001FC0E1101DC08F70806180935504C5011A
:1047E0000E94711A80915504F80185838F2D61967E
:1047F0000FB6F894DEBF0FBECDBFDF91CF911F91F2
:104800000F91FF90EF90DF90CF90BF90AF90089501
:10481000CD2829F0822F83238F3F09F003C180E048
:10482000F82FF170DF2E80FF3CC08091870440910B
:10483000560456E0841315C02D873E878D859E85CE
:104840000E94AD0F292F22952F702230F0F02430D6
:1048500018F59F70F1F0F8019581907FD1F4D12C7B
:104860001EC090E0589FF001599FF00D1124E95AA5
:10487000FB4F6181361306C06081261303C062813D
:10488000E6120FC001968770D5CF9F7011F0882374
:1048900031F3805E883018F3C8010E94711AFD2C34
:1048A000A5CFEE2009F4A2CF8091550481608093BA
:1048B0005504F12C9BCF431306C0921304C0F8019A
:1048C000EE2009F479C0C8010E94B90F882309F1CC
:1048D000EE20F9F080915504803270F02091500460
:1048E0003091510438872F831986DB86CA868C87DE
:1048F000CE0107960E94711A86E0F801A0E5B4E0A7
:1049000001900D928A95E1F70E944623FF24F394CB
:104910006DCFC8010E94711AF9CF51110AC080E50C
:1049200094E00E94711A86E0F50111928A95E9F7E8
:10493000C0CF43130FC092130DC0E1100BC0F8019C
:104940008583C8010E94711A86E0F50111928A954B
:10495000E9F74CCFC8010E94B90F8823D1F2EE20AD
:10496000C1F280915504803238F220915004309188
:1049700051043A8329831B82DD82CC828E83CE014F
:104980000196B8CFE83CF105F8F6FE2CEE2009F2CE
:1049900043131FC092131DC08091550480FD10C0A9
:1049A000982F907F69F0F8018583903F31F0982F20
:1049B000907F905F8F70892B8583C8010E94711A48
:1049C00086E0F801A0E5B4E001900D928A95E1F748
:1049D0000DCFC8010E94B90F81118ECF809155046F
:1049E000816080935504C8010E94711AFFCEEE20A9
:1049F00009F48FCFC8010E94B90FF82E882309F45B
:104A000088CF86E0F801A0E5B4E001900D928A9588
:104A1000E1F780915004909151040E94AD0F0E94E3
:104A20004623E4CE81E08E25FBCE1F93CF93DF9308
:104A3000CDB7DEB767970FB6F894DEBF0FBECDBF18
:104A40004B8B5C8B6D8B7E8B8F8B611110928A04EC
:104A50001A8A198A85E0FE017396DE011D9601907F
:104A60000D928A95E1F786E0FE013D96DE011796EC
:104A700001900D928A95E1F7CE0107960E949C2342
:104A8000882389F016E08091870490915604891359
:104A900049C067960FB6F894DEBF0FBECDBFDF9159
:104AA000CF911F91089586E0FE013796DE011196A1
:104AB00001900D928A95E1F78A859B85892B11F3E8
:104AC0008F81988589238F3FE9F22091560430E049
:104AD000C9010196877099274091870448171906E4
:104AE00071F40E94DB14109256041092870486E041
:104AF000E0E5F4E0DF011D928A95E9F7C3CF96E087
:104B0000929FD001939FB00D1124A95ABB4FFE0173
:104B1000319601900D929A95E1F7809356040E9488
:104B2000070BB0CF819FC0011124895A9B4F0E946F
:104B30009C23882309F4ADCF8091870490E00196EF
:104B400087709927809387049ECFCF92DF92FF9240
:104B50000F931F93CF93DF9300D000D000D00F921C
:104B6000CDB7DEB7E3EEF3E041E030E021912F3F37
:104B700009F048C0440F83E0E73EF807B9F73E83E9
:104B8000E7EEF3E06BEE73E041E030E021912F3F80
:104B900009F04CC0440F6E177F07C1F73F8342E016
:104BA00050E0BE016A5F7F4F88EA94E00E9437358B
:104BB000FF24F394009709F4F12C892B09F44AC0DF
:104BC0008E819F819093A9048093A80481E08093B3
:104BD00090040E949D0790938F0480938E0480918F
:104BE0008E0490918F040E948E070597B8F18091F2
:104BF000A8048093B8048091A9048093B90410920A
:104C000090042CC0A22FA295AF70B0E090968C912A
:104C100090E02F7002C0959587952A95E2F780FD68
:104C200003C0842F382BA6CF80E0FCCFA22FA29503
:104C3000AF70B0E090968C9190E02F7002C0959587
:104C400087952A95E2F780FD03C0842F382BA2CFE9
:104C500080E0FCCF809190048111C1CF8091A504A8
:104C60008823F9F08091A3049091A404009781F423
:104C70000E949D079093A4048093A3048091A204B2
:104C8000282F30E0882309F445C0C901019746C0A8
:104C90000E948E072091790230917A0228173907F5
:104CA00038F38DEAC82E84E0D82E10E000E0F6013B
:104CB00081916F018823D1F08695F80109F451C0E4
:104CC000E151FC4F808191819A8389831B820E94EC
:104CD0009D078160782F9D838C83F6013197108228
:104CE00049815A816B818D810E9415250E5F1F4F6E
:104CF00004301105E1F68F2D27960FB6F894DEBF2C
:104D00000FBECDBFDF91CF911F910F91FF90DF902C
:104D1000CF9008958091A1048150990B4091C304D4
:104D2000442399F02F563B4FF90110818F569B4F2A
:104D3000FC0180810E94BE140E94F6198091C30478
:104D4000882319F0812F0E94F0198091A20490E02D
:104D500001966091A10470E00E94B7308093A20494
:104D6000A0CFE551FC4FAECF1F920F920FB60F921E
:104D700011242F933F934F935F936F937F938F9360
:104D80009F93AF93BF93CF93DF93EF93FF93D09114
:104D9000E900DF708091EC00C82FC17080FDC0E891
:104DA0001092E9008091F000877F8093F000789462
:104DB0000E94E6141092E9008091F00088608093D0
:104DC000F000CD2BCF70C093E900FF91EF91DF9100
:104DD000CF91BF91AF919F918F917F916F915F9193
:104DE0004F913F912F910F900FBE0F901F901895EC
:104DF0001F920F920FB60F9211242F933F934F9350
:104E00005F936F937F938F939F93AF93BF93EF9332
:104E1000FF938091E10082FF15C08091E20082FF44
:104E200011C08091E1008B7F8093E10020911605F5
:104E30002F5F822F62E30E949730992309F4C0C04C
:104E4000209316058091DA0080FF28C08091D80059
:104E500080FF24C08091DA008E7F8093DA008091F9
:104E6000D90080FFE3C080E189BD82E189BD09B43A
:104E700000FEFDCF81E0809324058DEE98E00E9436
:104E80002F0580911705811109C00E94FE050E941F
:104E9000C9068091E20084608093E2008091E10085
:104EA00080FF1BC08091E20080FF17C08091E2006C
:104EB0008E7F8093E2008091E20080618093E20027
:104EC0008091D80080628093D80019BC85E08093DF
:104ED000240585EF98E00E942F058091E10084FF72
:104EE0002FC08091E20084FF2BC080E189BD82E168
:104EF00089BD89B5982F917080FFFBCF8091D80034
:104F00008F7D8093D8008091E1008F7E8093E100B7
:104F10008091E2008F7E8093E2008091E2008160C8
:104F20008093E20080912505882309F489C084E0FC
:104F30008093240589EF98E00E942F058091240535
:104F40008091E10083FF2BC08091E20083FF27C0A6
:104F50008091E100877F8093E10082E080932405C7
:104F6000109225058091E1008E7F8093E100809171
:104F7000E2008E7F8093E2008091E2008061809366
:104F8000E20042E060E080E00E9497068091F0003D
:104F900088608093F0008DEF98E00E942F05FF91CC
:104FA000EF91BF91AF919F918F917F916F915F91A1
:104FB0004F913F912F910F900FBE0F901F9018951A
:104FC0001092160580911505882309F43BCF809136
:104FD00024058430C1F49091E9009F702091EC0089
:104FE000822F817020FD80E8892B95E09093E90065
:104FF0009091EB0090FF04C09091EE0097FD08C0E7
:105000008F708093E900109215051CCF1092F1006B
:105010009091E80095FDFACF9091E80090FFF0CFD5
:105020009091E8009E779093E800EACF19BC109227
:10503000240581EF98E00E942F05109217052ECFCE
:105040008091E30087FD93E09093240573CF7894DB
:105050001F921FB61F9211248F939F93AF93BF93FC
:1050600080910D0590910E05A0910F05B09110054E
:105070000196A11DB11D80930D0590930E05A0937F
:105080000F05B0931005BF91AF919F918F911F9025
:105090001FBE1F9018951F921FB61F9211248F9349
:1050A0009F93AF93BF9380910C05811113C08091A2
:1050B0000D0590910E05A0910F05B0911005419638
:1050C000A11DB11D80930D0590930E05A0930F05B2
:1050D000B0931005BF91AF919F918F911F901FBE0C
:1050E0001F9018951F920F920FB60F9211247F9266
:1050F0008F929F92AF92BF92CF92DF92EF92FF92E8
:105100000F931F932F933F934F935F936F937F93CF
:105110008F939F93AF93BF93CF93DF93EF93FF93BF
:105120008091BF049091C004A091C104B091C204C9
:105130000196A11DB11D8093BF049093C004A0935C
:10514000C104B093C2046091BF047091C004809107
:10515000C1049091C2040E9419326B017C0120E0CD
:1051600030E040E85CE36091BB047091BC04809146
:10517000BD049091BE040E94CB329B01AC01C701DB
:10518000B6010E94733187FDB2C01092BF04109225
:10519000C0041092C1041092C20470903E05809128
:1051A0003F05811103C0772009F497C00E949D0735
:1051B0006C0171101DC0712C80913F05882379F01E
:1051C000809142058111782EC4E4D5E010E000E022
:1051D000809184058017110611F00CF007C18091B1
:1051E000BA04882309F479C01092BA04782E75C0E5
:1051F0000091340510913505C8010E948E07C091B9
:105200003205D09133058C179D07A8F2C8010E9482
:105210008E077C01EC1AFD0AD0923505C092340548
:105220008090360590903705E4012196D09337059C
:10523000C09336050E949D07C0903905D0903A056D
:10524000CC15DD0548F080913805882309F442C06B
:10525000109237051092360500913B0510913C05E0
:10526000C0913605D091370580913D055E0163E020
:10527000AA0CBB1C6A95E1F7811157C0F40153E0F9
:10528000EE0FFF1F5A95E1F7E00FF11FD801AA0DAD
:10529000BB1D2D913D914D915C9160817181828109
:1052A00093810E947331811140C081E080933D055C
:1052B0004FE050E060E070E0CB010E9470189092E7
:1052C0003705809236058FE090E090933305809308
:1052D000320572CF0E94E708712C80913F05811141
:1052E0009DC080913E05811199C00E948B08FF915D
:1052F000EF91DF91CF91BF91AF919F918F917F916E
:105300006F915F914F913F912F911F910F91FF905E
:10531000EF90DF90CF90BF90AF909F908F907F9055
:105320000F900FBE0F901F90189510923D05F80139
:10533000EA0DFB1D64817581868197810E94EA31A7
:105340009B01A0E6BAEE0E94023120E03EE140E07F
:1053500050E00E94CB3081E0C81AD108812C4EE188
:10536000942EA12CB12C2E153F05F0F0D0933705CB
:10537000C0933605E216F306A8F5C9018E199F09F8
:105380007C0183E0CC0FDD1F8A95E1F7C00FD11FB0
:10539000688179818A819B81A7010E947018F092AF
:1053A0003305E092320508CFCC15DD05F8F6E21A98
:1053B000F30A2196FE0123E0EE0FFF1F2A95E1F785
:1053C000E00FF11F64817581868197810E94EA3127
:1053D0009B01A0E6BAEE0E940231A50194010E9451
:1053E000CB30C1CFEE24E394F12CCBCFEE80FF8005
:1053F000C70101978E3F9F4F68F4888199810E9471
:105400008E078E159F0530F06A817B818C819D818E
:105410000E94F6190F5F1F4F2896DACE772009F405
:1054200066CF0E94D1050E94960861CFCDB7DEB746
:10543000E0970FB6F894DEBF0FBECDBF84B7877F6D
:1054400084BF0FB6F894A89580916000886180931E
:105450006000109260000FBE80E890E00FB6F894F4
:1054600080936100909361000FBE85B7806885BF0F
:1054700085B7806885BF8CE79BE09093410480935B
:1054800040040E94FE050E94C9068091E2008460EB
:105490008093E2007894809124058823A1F01091F4
:1054A000E9001F709091EC00892F817090FD80E8D9
:1054B000182B1092E9008091E80083FD0E94E61409
:1054C0001F701093E90082E084BD93E095BD9AEFD0
:1054D00097BD80936E000E94E00F811102C00E9470
:1054E0003B0F23EE33E06BEE73E001E010E0D901F7
:1054F00050E040E08D918F3F91F0E82FE295EF7002
:10550000F0E0D1A08F70780101C0EE0C8A95EAF727
:105510009E2D90959D2191A382A18E2982A34F5FFC
:105520005F4F4430510531F72C5F3F4F62177307CF
:10553000F1F61092B9041092B8041092A9041092D6
:10554000A8040E941F18811102C00E94B51782E0B2
:1055500090E00E942B318093CB040E94F90F90932E
:10556000A7048093A6040E94A5258FE39CE90197D8
:10557000F1F700C000000E94A5258091B80480FFCB
:1055800008C06FEF7FEF90E080E00E945D310E94E5
:105590003D0C83E090E00E942B310E94F4100E94A9
:1055A0002A188091AA048111DDC08091CB0480FF6C
:1055B00014C08EEC94E09F938F930E94C805809155
:1055C000CB040F900F9080FF08C088EB94E09F936E
:1055D0008F930E94C8050F900F900E941F18811191
:1055E00010C08091CB0480FF08C080E994E09F93B5
:1055F0008F930E94C8050F900F900E94B5170E94CC
:10560000AF1488E090E00E943331609301057093FD
:10561000020580930305909304056E7FD1F4809179
:10562000CB0480FF08C087E494E09F938F930E948F
:10563000C8050F900F900E94AF1488E090E00E9480
:1056400033316093010570930205809303059093B5
:1056500004050E94E6078091CB0480FF76C08EE2AD
:1056600094E09F938F930E94C8058091CB040F9084
:105670000F9080FF6AC08091010581701F928F9307
:1056800081E194E09F938F930E94C8058091CB04A1
:105690000F900F900F900F9080FF57C080910105E1
:1056A00086951F928F9386EF93E09F938F930E942E
:1056B000C8058091CB040F900F900F900F9080FF42
:1056C00044C0809102051F928F938CED93E09F93CD
:1056D0008F930E94C8058091CB040F900F900F907C
:1056E0000F9080FF32C0809103051F928F9382EC50
:1056F00093E09F938F930E94C8058091CB040F90F5
:105700000F900F900F9080FF20C0809104051F9292
:105710008F9388EA93E09F938F930E94C8058091AE
:10572000CB040F900F900F900F9080FF0EC08091D0
:1057300005051F928F938CE893E09F938F930E94AF
:10574000C8050F900F900F900F901092CD0480918C
:10575000010580FF04C060E086950E94181481E076
:105760008093AA0467E074E043E054E0A5E0B4E06D
:1057700021E030E08D91E82FE295EF70F0E0F1A0AC
:105780008F70890101C0000F8A95EAF7902F9095DC
:105790009F2191A382A1802B82A3FA018191AF0165
:1057A000E82FE295EF70F0E0F1A08F70890101C061
:1057B000000F8A95EAF7902F90959F2191A382A1DF
:1057C000802B82A36A177B07A9F68FE891E00197E7
:1057D000F1F700C0000086B1881F8827881F1D9937
:1057E00069C090E0892B8093B30489B190E0880F61
:1057F000892F881F990B4C995FC020E0822B8093E2
:10580000B4048BE792E09093090580930805772410
:1058100073946624639455245394809124058530B1
:10582000C1F485EE94E00E942F0510E102E1809121
:105830002405853009F442C00E94DB140E94D5077C
:105840001092AC048091AB0481110E9472140E94EA
:1058500097120E94A525882359F08FB7F89440919C
:105860000D0550910E0560910F05709110058FBFC9
:1058700058EB852E54E0952E66EBA62E64E0B62EEE
:1058800010E000E073EFE72E74E0F72EEBEECE2E83
:10589000E4E0DE2E202ED4013D904D01F501419033
:1058A0005F01431069C00130110509F42BC201E00A
:1058B00010E0F0CF92E096CF22E0A0CF80912405B7
:1058C000843009F435C00E94E7080E9407108091D7
:1058D000AC04811109C05092AC0480910105817023
:1058E0008093AB040E94161010920C05A8E1B0E062
:1058F000E0E40FB6F894A895A09360000FBEE09383
:10590000600083B7817F846083BF83B7816083BF7A
:105910007894889583B78E7F83BF0FB6F894A89547
:1059200080916000886180936000109260000FBEDB
:1059300080912305882309F47ACF0E94A5258091C0
:10594000B8049091B904892B09F471CF19BD09BD30
:1059500009B400FEFDCF8091D8008F7D8093D800E0
:105960008091E00082608093E0008091E00081FD02
:10597000FCCF0E94DB145BCF8091CB0481FD82C100
:10598000942D932580E044244394242D292309F465
:10599000B3C189A32AA2342081E009F480E08BA35B
:1059A0000E949D078160782F9DA38CA349A15AA1D5
:1059B0006BA18DA10E941525F801EA54FB4F80814F
:1059C000482640828091CD048823D1F18091CC0477
:1059D000E0910105E695E81BE093C704823009F0E9
:1059E000A2C1F0E0EB5EFA4FE4910E2F10E04EEA18
:1059F000E42E4EE0F42E8091C804882361F01092CA
:105A0000C8040E949D079093C6048093C504109219
:105A1000CA041092C9040E949D07E091C504F09148
:105A2000C6048E1B9F0B8F3F9F4750F4E00FF11F62
:105A3000F093C604E093C50485EC94E0F701099562
:105A400043EB842E44E0942E01EB14E05FEAE52E54
:105A500054E0F52E6DEAA62E64E0B62E83E094E0C5
:105A60009CA78BA7A5E0B4E0BEA7ADA7D12CC12C05
:105A7000412C74E0272E312CD401ED914D01EE0F15
:105A8000EE0FADA5BEA52D91BEA7ADA7A22FA295E5
:105A9000AF70B0E090968C9190E02F7002C0959519
:105AA00087952A95E2F781709927ABA5BCA54D9102
:105AB000BCA7ABA7A42FA295AF70B0E090962C9195
:105AC00030E04F7002C0359527954A95E2F7A9015D
:105AD0004170552720FF02C042E050E0842BE82BA4
