:100000000C945A020C9492020C9492020C94920258
:100010000C9492020C9492020C9492020C94920210
:100020000C9492020C9492020C9421170C94DD16FD
:100030000C942C180C9492020C9492020C94920240
:100040000C9492020C9492020C9492020C949202E0
:100050000C9492020C9408180C9492020C94920244
:100060000C9492020C9492020C9492020C949202C0
:100070000C9492020C9492020C9492020C949202B0
:100080000C9492020C9492020C9492020C949202A0
:100090000C9492020C9492020C9492020C94920290
:1000A0000C9492020C9492020C9492020501098025
:1000B000A101850319012AB700150126B700950192
:1000C00075108100C0050C0901A101850419012AE0
:1000D000A002150126A002950175108100C00660DE
:1000E000FF0961A1010962150026FF00952075082E
:1000F00081020963150026FF00952075089102C052
:1001000005010906A101050719E029E715002501E8
:10011000950875018102950175088101050719008F
:1001200029FF150026FF00950675088100050819AE
:1001300001290515002501950575019102950175A7
:10014000039101C00000000000000000000000005A
:10015000000000000000000000000000000000009F
:1001600000000000000000007E0F00D4FFFFFFC76A
:100170000000007800000000000000002A2B28008A
:100180000000000000000000000000000000002946
:10019000000000002C1E3420212224342627252E86
:1001A000362D3738271E1F202122232425263333BE
:1001B000362E37381F0405060708090A0B0C0D0EEA
:1001C0000F101112131415161718191A1B1C1D2FB6
:1001D0003130232D350405060708090A0B0C0D0ED6
:1001E0000F101112131415161718191A1B1C1D2F96
:1001F0003130354C2A004C002E002D0027002600FF
:100200002500240023002200210020001F001E00E2
:10021000310030002F00130012000C0018001C00E9
:100220001700150008001A0014002B0028003200E7
:10023000340033000F000E000D000B000A0009000F
:100240000700160004003900E500E500380037001B
:100250003600100011000500190006001B001D00EB
:100260006400E100E400E7002152E6000000000025
:100270002C00000000000000167CE200E300E0001B
:100280004C004C0045004400430042004100400047
:100290003F003E003D003C003B003A0001000100F1
:1002A0000100010001000100010001000100010046
:1002B0000100010001000100010001000100010036
:1002C0000100010001000100010001000100010026
:1002D0000100010001000100010001000100010016
:1002E0000100010001000100010001000100010006
:1002F00001000100010001000000000001000000F9
:1003000000000000350201000100010001000100B1
:1003100001000100010001000100010001000100D5
:1003200001000100010001000100010001000100C5
:1003300001000100010001000100010001000100B5
:1003400001000100010001000100010001000100A5
:100350000100010001000100010001000100010095
:100360000100010001000100010001000100010085
:100370000100010001000100010001000100010075
:10038000010001000000000001000000000000006A
:100390000100010001000100010001000100010055
:1003A0000100010001000100010001000100010045
:1003B0000100010001000100010001000100010035
:1003C0000100010001000100010001000100010025
:1003D0000100010001000100010001000100010015
:1003E0000100010001000100010001000100010005
:1003F00001000100010001000100010001000100F5
:1004000001000100010001000100010001000100E4
:1004100000000000010000000000000001000100D9
:100420000100010009025B00030100A0FA090400B9
:10043000000103010100092111010001224400070C
:1004400005810308000109040100020300000009FE
:10045000211101000122220007058203200001076B
:100460000503032000010904020001030000000944
:10047000211101000122320007058403200001122E
:100480000100020000000810CB3713010001020038
:10049000010C035700540046003600300000000EE7
:1004A000034B0065006500620069006F00000004F6
:1004B0000309040011241FBECFEFDAE0DEBFCDBF79
:1004C00004B603FE18C080912A0290912B02A091DD
:1004D0002C02B0912D028730904BA740B04B59F4BD
:1004E00010922A0210922B0210922C0210922D02CE
:1004F000E0E0F8E3099511E0A0E0B1E0EAE5F9E316
:1005000002C005900D92AA36B107D9F722E0AAE6FB
:10051000B1E001C01D92AA32B207E1F70E94531860
:100520000C94591C0C940000482F209122029091A9
:10053000E90157E0291302C080E0089530E0529F9E
:10054000F001539FF00D1124E651FE4F8181681395
:1005500006C08081481303C085818111EECF2F5FD3
:100560003F4F2770E7CFE8EDF0E080818E7F8083FA
:100570001092E2001092DA001092E100A0EEB0E0DA
:100580008C9181608C9380818F77808319BCA7EDDB
:10059000B0E08C918E7F8C9380818F7E80831092CF
:1005A000D40108952091E4003091E50095E6A90179
:1005B0002091EC00822F817020FF06C08091E8001E
:1005C00080FF06C080E008952091E80022FD1AC057
:1005D0008091DF01882389F0853089F08091EB00DC
:1005E00085FD0FC02091E4003091E50042175307CC
:1005F000F9F29150E1F684E0089582E0089583E0F5
:10060000089581E008958091E10187FF13C08091F2
:10061000E80082FF06C08091E8008B778093E800B5
:1006200004C08091DF018111F2CF08958091DF0134
:100630008823D9F38091E80080FFF8CF8091E8000B
:100640008E77ECCF982F9093E900242F762F50E0EF
:10065000891731F07091EC002091ED005091F0007D
:1006600021FD07C09F5F973071F78093E90081E01B
:1006700008953091EB003E7F3093EB003091ED0018
:100680003D7F3093ED003091EB0031603093EB0013
:100690007093EC002093ED005093F0002091EE0059
:1006A00027FDE0CF80E00895B0E0A0E0EAE5F3E0C8
:1006B0000C94CD1BC8EDD0E088818F7E8883E7ED58
:1006C000F0E080818160808384E082BF81E080935C
:1006D000D40188818E7F888302EE10E0F8011082B9
:1006E0001092DA0081EEC82ED12CF601108288819A
:1006F0008F77888388818068888388818F7D8883CD
:1007000019BC1092DF011092E0011092DE011092EC
:10071000DD0190EEE92EF12CF70180818B7F808343
:1007200088818160888342E060E080E00E9422034B
:10073000F60180818E7F8083F801808181608083D3
:10074000808188608083F70180818E7F80838881AB
:1007500080618883CDB7DEB7E8E00C94E91BFC012B
:100760008091E7019091E80186179707A0F0611545
:10077000710529F49091E8009E779093E80090E04D
:100780006115710551F4911108C08091E80082FF54
:1007900034C080E00895BC01F2CF8091DF0188234E
:1007A000C1F18530C1F18091E80083FD30C08091B6
:1007B000E80082FDEACF8091E80080FFE1CF8091E0
:1007C000F3002091F200382F6115710519F02830DF
:1007D000310558F091E02830310509F090E0209182
:1007E000E8002E772093E800CBCF81918093F10031
:1007F000615071092F5F3F4FE7CF8091DF01882360
:1008000041F0853041F08091E80083FFBECF81E068
:10081000089582E0089583E00895089508952FB71C
:10082000F8948091230290912402A0912502B09126
:1008300026022FBF089580910B010895EEE6F1E0A6
:100840009191891303C0DF0111971C9291E0E43765
:10085000F907B1F70895AEE6B1E0EFEF90E02D9122
:10086000821751F0EF3F19F4211101C0E92F9F5F6A
:100870009630A9F7EF3F09F408950E2E000CFF0BF8
:10088000E459FE4F82830895A3E0B0E0EAE4F4E087
:100890000C94D31B2091D1013091D2012817390734
:1008A000A1F09093D2018093D101E091CF01F0911A
:1008B000D001309751F024E029839B838A83008400
:1008C000F185E02DCE01019609952396E2E00C9486
:1008D000EF1BA3E0B0E0EFE6F4E00C94D31B209113
:1008E000CD013091CE0128173907A1F09093CE01A8
:1008F0008093CD01E091CF01F091D001309751F07C
:1009000023E029839B838A830084F185E02DCE0137
:10091000019609952396E2E00C94EF1BE091CF013C
:10092000F091D001309729F00190F081E02D0995E8
:10093000089580E0089580E00895F894E82FE29506
:10094000EF70F0E031A1282F2F7081E090E001C01E
:10095000880F2A95EAF7982F9095932391A392A157
:10096000892B82A3789408959091B50192FF10C0CD
:1009700041E0282F2471243009F040E031E0282F95
:100980002871283009F030E0431711F02CE082275D
:1009900093FF10C041E0282F2471243109F040E07A
:1009A00031E0282F2871283109F030E0431711F089
:1009B0002CE082273091B60130FF10C051E0282F83
:1009C0002171213009F050E041E0282F28712830B2
:1009D00009F040E0541711F029E0822731FF10C0E0
:1009E00041E0282F2171213109F040E031E0282F2A
:1009F0002871283109F030E0431711F029E08227EF
:100A000094FD877E089582389105B9F1B0F4813361
:100A1000910509F47DC048F48932910509F46DC04F
:100A20008A32910509F47BC008958533910509F454
:100A30005FC08933910509F10895833E9105D9F18D
:100A400038F4803E910529F1823E910579F10895AF
:100A5000863E9105D9F1873E910509F43EC0843E5A
:100A6000910541F52091B60121FF24C08091B50187
:100A700084FD19C087EE90E008952091B5012370A0
:100A800009F05AC02091B60123FF14C089E290E01A
:100A900008952091B50120FD38C03091B60130FF96
:100AA00009C024FF43C090E080E008952091B50183
:100AB00022FDF7CF08952091B50122FD3AC0309173
:100AC000B60130FD39C024FFF5CFEDCF2091B5013F
:100AD00023FFF0CF24FDE7CFCDCF2091B50123FD3B
:100AE0002EC03091B60131FFEECF84EE90E0089534
:100AF0002091B50125FFDECFC9CF2091B50125FD9D
:100B000021C02091B60123FFD5CF89E390E0D2CF59
:100B10002091B50126FFCECF8AE290E00895209182
:100B2000B50126FFC7CF81E390E0089583EE90E002
:100B3000089582EE90E0089580EE90E0089586EEAC
:100B400090E0089585E390E008951F93CF93DF939D
:100B50000E940305EC01C11580E5D807F0F5C11529
:100B600080E4D80708F09CC0C03ED10520F5CD3CFC
:100B7000D10508F082C0C83AD10578F4C53AD1054C
:100B800008F073C0C130D10519F1209709F1C430C4
:100B9000D105F0F4D0E0C0E01BC0C33CD105D0F7D4
:100BA000C85AD0E0CC0FDD1FCF5EDE4F0990D88150
:100BB000C02DD4640DC0C11580E2D80708F0D1C0A3
:100BC000C11581E0D80708F05AC0C83ED10510F71A
:100BD000CE01DF91CF911F910895C03682E5D807ED
:100BE00018F5C03482E5D80708F06BC0C03282E542
:100BF000D80708F05FC0C11582E5D80708F497C090
:100C00002C2F2695269580E2289F900111248C2F69
:100C10008370C1E0D0E002C0CC0FDD1F8A95E2F7FF
:100C2000C22BD32BDD68D4CFC03A82E5D80760F45D
:100C3000C03882E5D80708F459C0CF71D0E0DC2F66
:100C4000CC27C46FD06AC4CFC03C82E5D80708F473
:100C500062C0C03E82E5D80708F09CCFDC2FCC27CD
:100C6000CC27DF71C06FD06AB3CFC55AD0E0C25F66
:100C7000DE4FC881D0E0D064ABCFD065A9CF8D2F37
:100C80000E94B404182FCE0199270E940305C12F9A
:100C9000D0E0DC2FCC27CC27DF71C82BD92B98CF05
:100CA000CE0199270E940305CC27DF70C82BD92BD2
:100CB000D06A8ECFCF71D0E0DC2FCC27C16FD06A45
:100CC00087CF2C2F26952695277080E2289F9001AC
:100CD00011248C2F8370C1E0D0E002C0CC0FDD1F47
:100CE0008A95E2F7C22BD32BDC6872CF2C2F269586
:100CF0002695277080E2289F900111248C2F837005
:100D0000C1E0D0E002C0CC0FDD1F8A95E2F7C22B14
:100D1000D32BDA685DCF8C2F8F710E94B404C82F5B
:100D2000D0E0DC2FCC27CC27DF71D06251CF8C2FC5
:100D30008F710E94B40455E0D695C7955A95E1F796
:100D4000CF70D0E0DC2FCC27282F30E084FF05C007
:100D500044E0220F331F4A95E1F7C22BD32BD06911
:100D600037CF8D2F8F710E94B404182FCE01992791
:100D70000E940305C12FD0E0DC2FCC27CC27DF71E8
:100D8000C82BD92BD2CF80959091A3019823909313
:100D9000A3010895809122029091E901981301C066
:100DA00008958F5F8770FACF292F953078F58E30B0
:100DB00068F590E03EE0239F800D911D1124682F7F
:100DC000677023E0969587952A95E1F7FC01EE0F71
:100DD000FF1FE80FF91FEA58FE4F50E040E080E0A7
:100DE000219130E0062E02C0369527950A94E2F74D
:100DF00021703327042E01C0220F0A94EAF7822BB8
:100E00004F5F5F4F4330510559F7089580E00895D3
:100E1000292F953098F58E3088F590E03EE0239F9D
:100E2000800D911D1124282F277041E001C0440F2F
:100E30002A95EAF723E0969587952A95E1F7FC0134
:100E4000EE0FFF1FE80FF91FEA58FE4F30E020E0D9
:100E500070E05191DF011197CB01022E02C09695EF
:100E600087950A94E2F781708195852784238527E9
:100E70008C932F5F3F4F2330310559F708958093AE
:100E8000B40108959091B40121E030E0F90101C06E
:100E9000EE0F8A95EAF7D90102C0AA0FBB1F6A9527
:100EA000E2F7EA2B01C0220F4A95EAF7892F8E2339
:100EB000E81305C0292B822F0E943F070895209533
:100EC0002923F9CF21E030E001C0220F8A95EAF70B
:100ED00020958091B40182230E943F07089590914C
:100EE00098018095892380939801282F277069F4B1
:100EF000891759F09091B60192FF07C086958695A3
:100F000086950E94620710929801089521E030E0D2
:100F100001C0220F8A95EAF78091B401822B0E94CA
:100F20003F0708958093B30108950F931F93CF93C4
:100F3000DF938B01EA019091DF01943061F580939A
:100F4000E9008FEF9091E800815095FD06C095ED86
:100F50009A95F1F700008111F5CF8091E80085FFA7
:100F60001AC00E94D202811111C08091E80085FD53
:100F700006C08091E8008E778093E800F2CFF801F8
:100F800081918F018093F100219779F78091E8009A
:100F90008E778093E800DF91CF911F910F91089594
:100FA00043E050E0BC0184E00E9495070895CF9390
:100FB000DF93EC0148E050E0BC0181E00E9495071E
:100FC00088E0FE01A5EDB1E001900D928A95E1F770
:100FD000DF91CF91089581E08093E00080E28093DB
:100FE000D8001092C9008FE19EE40197F1F700C08C
:100FF000000087E090EBDC0180932A0290932B02A3
:10100000A0932C02B0932D0288E19CE00FB6F894D7
:10101000A895809360000FBE90936000FFCFCF93A0
:10102000C82F6FEF811163E284E290E00E94181CE8
:101030006FEFC11161E185E290E00E94181C6FEF33
:10104000C11167E286E290E00E94181CCF910895DA
:10105000CF93DF93C8E5D2E060E0CE010E94181C78
:101060002196C11584E0D807B9F7DF91CF91089593
:101070001F93CF93DF93122F8430E0F46530D0F4C8
:101080004E30C0F4C42FD0E0CC0FDD1F9CE1699F2F
:10109000C00DD11D11249CE8899FC00DD11D1124C4
:1010A000632FCE0188960E94181C612FCE0189966D
:1010B0000E94181CDF91CF911F910895AF92BF92AB
:1010C000CF92DF92EF92FF921F93CF93DF9384EF43
:1010D000C82E81E0D82ED0E07601C0E014C0F50122
:1010E00025913491412F6C2F8D2F0E94380882E07A
:1010F000A80EB11C1F5F1E3091F78CE1E80EF11CA9
:10110000CF5FC53019F0570110E0E9CFDF5F8CE801
:10111000C80ED11CD43001F7DF91CF911F91FF9001
:10112000EF90DF90CF90BF90AF90089580E00E9445
:101130000F0860E087E290E00E94181C0E945E08A1
:101140000E94280881E00E940F08089584E290E040
:101150000E94FA1B833289F485E290E00E94FA1B18
:10116000813159F486E290E00E94FA1B91E08732C7
:1011700009F090E0892F8170089580E0FCCF0F93F3
:101180001F93CF93DF93843030F5653020F54E30D8
:1011900010F5C42FD0E0CC0FDD1F2CE1629FC00DF5
:1011A000D11D11243CE8839FC00DD11D1124CE0117
:1011B00088960E94FA1B082F10E0102F0027CE01FE
:1011C00089960E94FA1B9801282BC901DF91CF91C3
:1011D0001F910F91089590E080E0F8CF462F753071
:1011E00040F46E3030F4843020F4672F0E94BF0842
:1011F000089590E080E00895CF92DF92FF920F93E0
:101200001F93CF93DF936C010091B4018091B301E0
:10121000082BC3E0D0E010E0FC2EC8010C2E02C069
:10122000959587950A94E2F780FD0CC02197A0F769
:10123000F12C8F2DDF91CF911F910F91FF90DF90B7
:10124000CF900895B6018C2F0E94EE080E94A5054C
:10125000019761F3EECFCF93DF93EC010E94FC087E
:10126000BE010E94EE080E94A505DF91CF9108956E
:10127000FC0124812223C1F0808191810E942B09ED
:1012800092959F70963091F058F4925F9F709230D3
:1012900058F4803F19F030F4883E30F481E008952E
:1012A0009A5FF4CF843FD1F380E00895883EB0F395
:1012B000813FD1F7F3CFA6E0B0E0E1E6F9E00C948E
:1012C000D21B49835A8349815A819923A1F0222351
:1012D00091F0CA010E94FC08182F682F89819A8119
:1012E0000E94080769817A81812F0E94EE08269664
:1012F000E3E00C94EE1BCA010E94D406182FF2CF33
:101300009091B60192FB222720F9281779F080FBF3
:1013100092F99093B6016091B5017091B60184E0A5
:1013200090E00E94361C82E00E946F070895209191
:10133000A30180919A01282B80919901882381F043
:10134000282B30E08EE691E0FC014191CF01411164
:101350003F5FF1E084379F07B9F73111109299018F
:1013600020936C0148E050E06BE971E08CE691E07D
:101370000E944C1C892BA9F088E0ECE6F1E0ABE977
:10138000B1E001900D928A95E1F7E091CF01F091E3
:10139000D001309731F00280F381E02D8CE691E0AE
:1013A000099508951092A301EEE6F1E086E0DF01D1
:1013B0001D928A95E9F790E080E00E94690490E030
:1013C00080E00E94440410929A010E9497090895B7
:1013D000AAE2B0E0EEEEF9E00C94D21B81EE91E0CF
:1013E0002091F100DC012D93CD01B1E0893E9B07F6
:1013F000B9F78091E201833009F472C0B8F481300A
:1014000009F449C0823009F4B7C08091E80083FF35
:101410003FC18091E1019091E2019A3008F038C11A
:10142000E92FF0E0E55AF34E0C94B61B8A3009F42C
:1014300092C08B3009F471C0893039F78091E10195
:10144000813219F78091E5019091E601009711F042
:101450000297D9F68091E800877F8093E800809119
:10146000E80082FF38C09091F3008091F20002976B
:1014700031F48091F100813011F0863021F48091B7
:10148000F10080930B018091E8008B778093E80056
:101490000E940303BACF8091E101813A09F0B5CFF0
:1014A0008091E800877F8093E8008091E50190912A
:1014B000E601892B61F468E085ED91E070E00E941F
:1014C000AF038091E8008B778093E8009ECF60E0C7
:1014D00090E080E0F3CF8091DF018111C0CF95CF04
:1014E0008091E101813A09F090CF8091E5019091DE
:1014F000E601892B09F089CF8091E800877F8093EE
:10150000E8008091E80080FFFCCF80910C0180937F
:10151000F1008091E8008E77B9CF8091E1018132AE
:1015200009F073CF8091E5019091E601892B09F0D4
:101530006CCF8091E800877F8093E8000E940303CE
:1015400081E09091E301911101C080E080930C0152
:101550000E94D2095ACF8091E101813209F055CF22
:101560008091E800877F8093E8000E9403038091C8
:10157000E40180930A0149CF8091E101813A09F0A9
:1015800044CF8091E800877F8093E8008091E80055
:1015900080FFFCCF80910A01BACF803899F0823861
:1015A00009F076C08091E5018F70873008F070C037
:1015B0008093E9008091EB0085FB882780F91092E9
:1015C000E90006C08091DD019091DE0191118260F9
:1015D0009091E800977F9093E8008093F10010923B
:1015E000F1008091E8008E77B8C1882309F4A5C185
:1015F000823009F04DC08091E3018111A9C1809131
:10160000E5018F702FEF280F263008F041C080933E
:10161000E9002091EB0020FF9BC1933031F48091D1
:10162000EB0080628093EB0093C19091EB0090619E
:101630009093EB0021E030E001C0220F8A95EAF799
:101640002093EA001092EA008091EB008860EACFD4
:1016500081111EC01091E3011F778091E300807813
:10166000812B8093E3008091E800877F8093E800DE
:101670000E9403038091E80080FFFCCF8091E3008B
:1016800080688093E30082E0111183E08093DF01A2
:101690008091E80083FF0AC08091E800877F8093F3
:1016A000E8008091EB0080628093EB00AA96E3E073
:1016B0000C94EE1B8058823058F72091E301309152
:1016C000E4012C3DE3E03E07A1F583E08A838AE252
:1016D00089834FB7F894DE01139620E03EE051E293
:1016E000E32FF0E050935700E49120FF03C0E29510
:1016F000EF703F5FEF708E2F90E0EA30C0F0C7963A
:101700008D939D932F5F243159F74FBF8091E8004F
:10171000877F8093E8006AE270E0CE0101960E9424
:10172000AF038091E8008B778093E800B1CFC0963B
:10173000E7CF8091E5019091E601432F5527433093
:10174000510509F44AC078F54130510509F47AC0D1
:101750008BE590E0E4E2F4E04230510509F098CFE7
:101760002091E800277F2093E8002091E701309145
:10177000E8018217930708F49C0140E02115310528
:1017800009F065C0411163C08091E80082FDC9CFB6
:101790008091DF01882329F2853019F28091E800D9
:1017A00083FFF2CFBECF4132510509F43CC0423233
:1017B000510509F06DCF8330910508F069CFFC0128
:1017C000EE0FFF1FE35AFE4F0190F081E02D865A85
:1017D0009E4FDC018C9190E01AC0332721303105F7
:1017E000D1F02115310561F02230310509F050CFDB
:1017F000E1E9F4E0E4918E2F90E0E1E9F4E007C044
:10180000EFEAF4E0E4918E2F90E0EFEAF4E0009745
:1018100009F43ECFA5CFEFE9F4E0E4918E2F90E0FC
:10182000EFE9F4E0F4CF8330910508F031CF880F71
:10183000991FFC01ED59FE4F0190F081E02D89E0E8
:1018400090E08ECF82E190E0EFE7F4E089CF8091E5
:10185000DF01882309F465CF853009F462CF8091D8
:10186000E80083FD5ECF8091E80082FD8DCF8091FE
:10187000E80080FF83CF9091F3008091F200211562
:10188000310519F08830910550F041E0089709F0D2
:1018900040E08091E8008E778093E8006FCF44911C
:1018A0004093F1003196215031090196E8CF8038FC
:1018B00009F0EECE8091E800877F8093E800809168
:1018C000E0018093F1008DCE8111E2CE1091E30111
:1018D000123008F0DDCE8091E800877F8093E80029
:1018E0001093E0010E940303112311F084E005C06E
:1018F0008091E30087FDFACF81E08093DF0142E031
:1019000061EC81E00E94220342E261EC84E00E94EB
:10191000220342E261EC82E00E94220342E260EC98
:1019200083E00E9422038091DF01843021F081E076
:1019300080930D01ADCE82E0FBCF8091E301813039
:1019400009F0A6CE81E0933009F080E08093DE01BB
:101950001092E9008091E800877F8093E8000E9460
:10196000030396CE0E94D2092FEF84E39CE021501E
:1019700080409040E1F700C0000088E19CE00FB695
:10198000F894A895809360000FBE90936000FFCFFD
:10199000882321F00E94C3060E9497090895882396
:1019A00039F09091A301982B9093A3010E9497097D
:1019B0000895882309F44DC0823879F40E948E047A
:1019C00081FF47C089E30E942B040E94970989E3A5
:1019D0000E941E040E9497090895833859F40E94BA
:1019E0008E0480FF36C083E50E942B040E94970975
:1019F00083E5EECF843859F40E948E0482FF29C01B
:101A000087E40E942B040E94970987E4E1CF9CEFB2
:101A1000980F913AE8F290E2980F983050F487705E
:101A200091E001C0990F8A95EAF7892F0E94C306B9
:101A3000D1CF9BE5980F933028F490E080E00E948E
:101A400069040895885A8B3120F490E080E00E9468
:101A500044040895CF93C82F8823C9F08238C9F46D
:101A60000E948E0481FD13C089E30E942B040E9412
:101A700097092FEF87EE93E0215080409040E1F7E7
:101A800000C0000089E30E941E040E949709CF91C4
:101A900008958338A1F40E948E0480FDF8CF83E579
:101AA0000E942B040E9497092FEF81EE94E02150B1
:101AB00080409040E1F700C0000083E5E4CF843827
:101AC000A1F40E948E0482FDE2CF87E40E942B04E1
:101AD0000E9497092FEF81EE94E0215080409040C2
:101AE000E1F700C0000087E4CECF8CEF8C0F813A85
:101AF00070F4EEE6F1E084E791E02191C21799F1EC
:101B00008E179F07D1F78C2F0E942B04BECF80E247
:101B10008C0F883068F4C77021E030E001C0220FDC
:101B2000CA95EAF78091A301822B8093A301ADCFE0
:101B3000EBE5EC0FE33040F4F0E0E25FFE4F808134
:101B400090E00E946904A3CFC85ACB3108F09FCF20
:101B5000EC2FF0E0EE0FFF1FEF5EFE4F80819181D2
:101B60000E94440494CF8C2F0E941E040E94970967
:101B7000CACFAAE0B0E0EFEBFDE00C94C71B8E01EA
:101B80000F5F1F4F8AE0F80111928A95E9F797E4F9
:101B9000E92E91E0F92E68012CE4622E21E0722EEC
:101BA00088248394912CF70181917F018F3F09F460
:101BB00046C0F894E82FE295EF70F0E021A18F7015
:101BC000A40102C0440F551F8A95E2F7CA01922F63
:101BD000982B91A392A18095892382A3789400C029
:101BE000ECE4F1E021E030E0B12CA12C41914F3F39
:101BF00009F44CC0A42FA295AF70B0E090968C91E0
:101C000090E04F7002C0959587954A95E2F780FD68
:101C10003DC0C901A82AB92A220F331F51E0EA3575
:101C2000F50721F7F701319780818F3F11F00E946E
:101C30009D0480EA8A95F1F7F601B182A082F2E074
:101C4000CF0ED11C6E147F0409F0ADCF4AE050E0F6
:101C5000B80189EA91E00E944C1C892BE1F08AE0EE
:101C6000F801A9EAB1E001900D928A95E1F781E0CF
:101C70008093A8010E940F049093A7018093A6016E
:101C800010E0812F2A96EEE00C94E31B90E080E0B8
:101C9000C1CF10E02AC01091A801112389F320912F
:101CA000A6013091A7014FB7F8948091230290913B
:101CB0002402A0912502B09126024FBF821B930BF4
:101CC0000597F0F24AE050E069EA71E083EC91E0B8
:101CD0000E944C1C892BE9F28AE0E9EAF1E0A3ECCE
:101CE000B1E001900D928A95E1F71092A801C9CF59
:101CF0001F93CF93DF93182FEB010E942A0D20979B
:101D000039F4812F0E94D90CDF91CF911F91089552
:101D10008FE99FE00197F1F700C000002197EFCF16
:101D20000F931F93CF93DF93C62FD42F022FFC0165
:101D300085818823A9F0609329020E940F04909363
:101D4000280280932702C77081E001C0880FCA95DE
:101D5000EAF70E94CF0CDF91CF911F910F91089568
:101D600080912902681340C02091270230912802F7
:101D70004FB7F8948091230290912402A0912502FC
:101D8000B09126024FBF821B930B883C910560F5F2
:101D900010E21D0F6D17B9F080E2860F883040F415
:101DA000C77081E001C0880FCA95EAF70E94C80C8D
:101DB000183048F481E09D2F977001C0880F9A95E4
:101DC000EAF70E94CF0C70E060E0802F0E94780E4E
:101DD000183008F0C0CFD77081E001C0880FDA95C5
:101DE000EAF70E94C80CB7CFC77081E001C0880F26
:101DF000CA95EAF7F6CFA8E0B0E0E1E0FFE00C9486
:101E0000C51B8C01DC0114968C911497882309F46E
:101E1000BEC021E04C9111965C91119712966C9185
:101E2000129713967C91139715969C910E945B09CB
:101E30007C01F8018581882309F448C1970137574F
:101E40002038310508F018C5FFE0FE1508F48FC0F2
:101E50008FEF93E00E94FA1B811189C068E5A62EDE
:101E600062E0B62EE1104DC0FE01339686E0DF0140
:101E70001D928A95E9F75AE0452E7501BFEFEB1ADE
:101E8000FB0AC5010E94FA1B89831A82882309F480
:101E90006EC0813009F07FC06501E2E0CE0ED11C3A
:101EA000C7010E94FA1B8A83882309F460C09FEF50
:101EB000980F9330A0F5F3E0AF0EB11CC6010E945D
:101EC000FA1B8B83882309F452C01C82DE01119611
:101ED0007D01F7012081222381F2213009F09DC08C
:101EE00091818281913009F058C0F2E0EF0EF11C2F
:101EF00070E060E0893311F460E570E00E94780ED4
:101F000053C0A11424E0B20691F1C5010E94FA1B4E
:101F1000811101C0EA943FEFA31AB30AA3CF56017F
:101F20008430A1F642E0E42EF12C56012FEFA21AE4
:101F3000B20AC6010E94FA1BE1E0F0E0EC0FFD1FBF
:101F4000EE0DFF1D8083882391F08C3741F4E2E091
:101F5000F0E0EC0FFD1FEE0DFF1D1082B7CF3FEF3D
:101F6000E31AF30A650187E0E816F104F1F68091BF
:101F70009801877061F0D80115968C91882339F00B
:101F80008091B60182FF03C082E00E946F0728960D
:101F9000E0E10C94E11B570199CF923049F422E023
:101FA000E20EF11C0E942A0D9FEFE91AF90A91CF67
:101FB000933031F432E0E30EF11C0E94D90CF4CFDF
:101FC000943021F08FEFE81AF80AEECF92E0E90E94
:101FD000F11C30E020E0B7016F5F7F4FD701119611
:101FE0004C918053990B8A30910560F02115310591
:101FF000D9F2EFE9FFE03197F1F700C0000021507E
:102000003109F4CF429EF001439EF00D11249C0152
:102010002E0F3F1F842F7B01DECFE22FF0E0EC5824
:10202000FE4F5490822F86958695869590E0FC0110
:10203000EC59FE4F64902770712C022E02C07594EB
:1020400067940A94E2F7F1E06F227724FC01EC5ADE
:10205000FE4F8490912C022E02C0959487940A948E
:10206000E2F731E083229924FC01EC5BFE4FC4903F
:10207000D12C02C0D594C7942A95E2F781E0C822FA
:10208000DD246114710419F081EE0E942A0D81147F
:10209000910419F086EE0E942A0D70E060E0852D13
:1020A0000E94780E8114910419F086EE0E94D90CDA
:1020B0006114710419F081EE0E94D90CC114D1048D
:1020C00009F472CF70E060E08CE218CFF701E851BC
:1020D000FC47E730F10508F0C2C3EB59F34E0C940E
:1020E000B61B26E241EE61EEC8010E94900E3FCF82
:1020F00027E245EE65EEF8CF26E241EE60EEF4CF42
:1021000027E245EE64EEF0CF26E241EE62EEECCF40
:1021100027E245EE66EEE8CF28E241E0EBCF809182
:10212000B50181608093B50195C08091B60188604A
:102130008093B6018FC08091B5018260F3CF80910A
:10214000B5018460EFCF8091B5018860EBCF8091BD
:10215000B6018160EDCF8091B6018260E9CF8091B8
:10216000B5018061DFCF8091B5018062DBCF8091C6
:10217000B5018064D7CF0E94D2098091B5018068F3
:10218000D1CF8091B5018C60CDCF8091B6018360B5
:10219000CFCF8091B5018E7FC5CF8091B601877F6B
:1021A000C7CF8091B5018D7FBDCF8091B5018B7F69
:1021B000B9CF8091B501877FB5CF8091B6018E7F71
:1021C000B7CF8091B6018D7FB3CF8091B5018F7E5F
:1021D000A9CF8091B5018F7DA5CF8091B5018F7B6F
:1021E000A1CF0E94D2098091B5018F779BCF8091BA
:1021F000B501837F97CF8091B6018C7F99CF809175
:10220000B50182FB992790F921E0922790FB82F992
:1022100090FB83F987CF8091B601982F90959170AC
:102220008E7F892B90FB81F983CF9091B501892F07
:102230008F7B96FF806476CF0E94D2099091B50182
:10224000892F97FB87F980586DCF61E08EE090E091
:102250000E94181C6091B5017091B60184E090E075
:102260000E94361C0E94D20982CE60E0EFCF90918E
:10227000B501892F8F7E94FF806154CF9091B50175
:10228000892F8E7F90FF81604DCF9091B601892F6D
:10229000877F93FF88604CCF85E3DCC285E3E9C28A
:1022A000A7E7EA16ACE7FA0601F1B8E7EB16BCE7D8
:1022B000FB0641F19701205E32452032310520F5C1
:1022C000811137C0EE2DEF7181E090E07C0102C0FA
:1022D000EE0CFF1CEA95E2F76E2D83E090E00E9481
:1022E000181C8E2D0E94920742CE81E00E94860724
:1022F00043E062E081E00E94420739CE81E00E9423
:102300006207F6CF82E0F2CF882399F0E3E0EE1681
:10231000ECE7FE0609F480C008F05FC0E1142CE78A
:10232000F20609F46CC031E0E3163CE7F30609F469
:1023300079C0F8018581E080F180882309F480C0AC
:10234000C7010E94FC08D82E682FC7010E94080709
:10235000B7018D2D0E94EE080E94A5057C01882EF4
:10236000D8011596AC90159716969C9092943FE0E4
:10237000932280919801877009F1DA2CAA20F9F054
:102380008F2D807F803469F080E28E0D8830B0F030
:102390008F2D807E803229F4B1E0BE1578F499202B
:1023A00069F08091B60182FF09C082E00E946F0748
:1023B000809198018770DD24D3948111D12CCF2C8A
:1023C000C2942FE0C222EBE0EC1508F4A1C0EC2D82
:1023D000F0E0E459F34E0C94B61B8BE5E8168CE75D
:1023E000F80661F19CE5E9169CE7F906E9F0AAE533
:1023F000EA16ACE7FA0609F09CCF81E01CC00E9407
:10240000D209BFEFE4E3FCE0B150E040F040E1F777
:1024100000C000000E94EB076FEF7FEF90E080E0CC
:102420000E94361C0E94B20C8091B60182FB882764
:1024300080F991E089270E9480097BCF80E0FBCF63
:10244000C7010E94D406D82E83CFFF2DFF70BF2E68
:102450008F2D807F19F0B29490EFB922AA20B9F0A5
:10246000BB2069F080E28E0D883010F0811009C029
:102470008091A301B82AB092A3010E9497098E2DE2
:1024800045C080919A01B82AB0929A01F6CF8E2D5C
:102490000E94D90CBB20E1F180E28E0D883010F053
:1024A000811004C08B2D0E94C30606C0B094809199
:1024B0009A01B822B0929A010E94970929C02F2D43
:1024C0002F70B22E8F2D807F803219F0B29480EF62
:1024D000B822882059F031E0831609F47BC0AA2085
:1024E00009F487C0992009F448C0C9CF8091B6018A
:1024F00082FD3FC0AA20B9F1BB2039F08091A30131
:102500008B298093A3010E94970980E00E942A0DE5
:102510002C2D2850330B2430310510F40E948E04EA
:10252000DD20B1F08091980180FD12C0D801159690
:102530001C928695869586950E948607C8010E9402
:10254000FB0E809198018695869586950E9462077C
:1025500020E0F801408151816281738184819581FD
:102560000E945B0914CD80E00E94D90CBB2081F24F
:1025700099CFAA20A1F0911004C08B2D0E94CF0CFE
:10258000C7CF81E09812C4CF809199019B2D9823E9
:10259000B91609F4BDCF8B2980939901B9CF911059
:1025A000B7CF8B2D0E94C80C909199018B2D892358
:1025B00029F08B2D80958923809399019091750145
:1025C0008B2D892309F4A4CF8B2D809589238093AB
:1025D00075019ECFAA2029F095E0991508F498CFAF
:1025E000CCCFA4E0A91508F493CF8B2D0E94C80C82
:1025F0008FCF9920D1F3B9E38B1209C0EFEFF7EE3B
:1026000023E0E150F0402040E1F700C000008E2DB3
:102610000E94D90C7DCF8F2D86958695837061F0B1
:10262000813009F075CFC7019370A11002C080E01E
:1026300090E00E9444046CCFC7019370A11002C0C7
:1026400080E090E00E94690463CF8F2D837091F544
:10265000A1105ECF4E2D429546954770440F440F12
:102660008E2D8F70042E01C0880F0A94EAF72E2D4C
:102670002071E4FE07C02FE030E001C0220F4A9530
:10268000EAF720953F2D369536953370323069F054
:1026900050F44091B301313029F0822B84230E9401
:1026A000920736CF842B822BFACF282B8091B3014F
:1026B0008227F5CF8695AA2011F08F2D817088236F
:1026C00009F426CF4E2D429546954770440F440F8E
:1026D0008E2D8F70042E01C0880F0A94EAF72E2DDC
:1026E0002071E4FE07C02FE030E001C0220F4A95C0
:1026F000EAF720953F2D369536953370323069F0E4
:1027000050F44091B401313029F0822B84230E948F
:102710003F07FECE842B822BFACF282B8091B40169
:102720008227F5CF3F2D3F70F32EAA2029F0832F6B
:102730000E9486078E2D22CF8E2D0E94C80C8F2DD1
:102740000E946207E5CE8E2D92EF8916B1F19815A1
:1027500070F0A0EF8A16D1F0B1EF8B1691F0AA209D
:1027600009F457C091108BCE8F2D8F712AC0E3EFE3
:102770008E1651F1F4EF8F12F2CF9091B60192FDC7
:102780002FC08F2D8F71AA20D9F21BC0AA2081F0F3
:1027900024E0291508F4BCCE2F2D2F7181E090E0A4
:1027A00001C0880F2A95EAF79091B4018927AFCF2D
:1027B00035E0391508F4ACCEEFCF8F2D8F71A11015
:1027C000BFCF0E948607A4CE80E0AA2009F49FCF45
:1027D0009F2D9F7181E001C0880F9A95EAF797CFEE
:1027E000AA2061F08F2D8F7192FFEBCF98E0899F27
:1027F00090011124236020939801E3CF81E00E948F
:102800006F07A1E0A91508F083CE82E00E946F0750
:102810007FCE992059F0893309F0F9CEBFEFE7EE6A
:10282000F3E0B150E040F040E1F7EFCE8F2D8F7133
:1028300087CFF6E1EF16FCE7FF0609F031CD809176
:10284000A3018A7A91E009F490E0909374018111D8
:1028500023CD89E20E942B040E94970988CB26E1B0
:10286000E2162CE7F20649F580917401811116CD2C
:1028700089E20E941E04F0CFF701E851FC47E730DF
:10288000F10508F42ACC109229029701305723321F
:10289000310578F684E090E00E94021C9093B60126
:1028A0008093B501F701E150F047E232F10508F0FD
:1028B00036CCE858F34E0C94B61B37E7E3163CE7EA
:1028C000F30609F41BCD98E7E9169CE7F90609F031
:1028D000F1CC82E014CDCF93DF9380919701807F7C
:1028E00009F04DC080919601882309F448C0E09119
:1028F00022025091E901C0919201D0919101609121
:1029000093017091940147E05E17C9F18E2F90E01A
:10291000E49FF0011124E651FE4F2481222391F11E
:10292000489FF001499FF00D1124DF01A651BE4FD1
:1029300011962C9111972C1325C02C912D1322C088
:1029400015962C91159721111DC012962D913C9131
:10295000261B370B283C3105A8F4809197018F7016
:10296000806180939701E051FE4F80818F7080617C
:10297000808381E991E00E94FB0E0E94CA06DF91EC
:10298000CF910895FC013196E770BECFA4E1B0E08D
:10299000ECECF4E10C94C91B8C0186E0F801DE013B
:1029A0001F9601900D928A95E1F7F8018481E580E8
:1029B00091E9A92E91E0B92E90919501911128C02D
:1029C000882319F1EE20F1F0C8010E943809F82E91
:1029D0008823C1F087E0F801D50101900D928A9516
:1029E000E1F780919501813031F4809191019091CE
:1029F00092010E942B090E946B148F2D6496ECE0CB
:102A00000C94E51BC8010E94FB0EFF24F394F5CF44
:102A1000D080C18082809380F090960120919301B4
:102A200030919401A401421B530BFF2009F4D9C03B
:102A3000483C510508F092C08823F9F29091920128
:102A400080919701282F207F09F056C0C91214C029
:102A500090919101D91210C0E11048C08F7080612F
:102A60008093970181E991E00E94FB0E809197018C
:102A7000F8018683F12CC1CFE11038C06C2D8D2D6B
:102A80000E9494026C2D8D2D0E949402E82E8111DB
:102A9000F1CFDF86C88A8F8598890E942B09292F5C
:102AA00022952F70243058F49F70223088F099239B
:102AB00099F0F8019681907F79F4FE2C9ECF2A5FE1
:102AC0002F70223068F0C8010E94FB0EEF2CF5CF6A
:102AD000992311F0882389F3805E883070F3F3CF57
:102AE000803F58F3815F833070F7E7CF8091970183
:102AF000816080939701BECFC91207C09091910168
:102B0000D91203C0EE2009F48DC0C8010E94380913
:102B1000882309F477CFEE2009F474CF80919701D0
:102B2000803288F020919101309192013987288775
:102B30009B868A86909195019C871D868E87CE0103
:102B400008960E94FB0E87E0F801A1E9B1E0019030
:102B50000D928A95E1F70E946B1457CF90919701DF
:102B6000292F207F51F481E991E00E94FB0E87E03C
:102B7000F50111928A95E9F77DCF882309F43DCFBD
:102B8000809192018C1110C080919101D8120CC0DB
:102B9000E1100AC09683C8010E94FB0E87E0F50190
:102BA00011928A95E9F729CFC8010E943809882334
:102BB00009F428CFEE2009F425CF809197018032C7
:102BC00010F220919101309192013A8329839C82E5
:102BD0008B82909195019D831E828F83CE010196F9
:102BE000B0CF483C5105D0F6882309F40ECFFE2C17
:102BF000EE2009F407CF809192018C1120C08091C2
:102C00009101D8121CC08091970180FD0FC0982FB0
:102C1000907F61F08683903F31F0982F907F905F96
:102C20008F70892B8683C8010E94FB0E87E0F80114
:102C3000A1E9B1E001900D928A95E1F7DECEC801DD
:102C40000E94380981117FCF809197018160809324
:102C50009701C8010E94FB0ED0CEABE1B0E0E3E3E8
:102C6000F6E10C94D11B4E8B5F8B688F798F8A8F26
:102C70009B8F192F911110929A011D8A86E0FE01F7
:102C80007696DE011F9601900D928A95E1F70A8DE6
:102C9000002341F021E04F85588969897A89C8016C
:102CA0000E945B090B8B1C8B87E0FE013F96DE01C7
:102CB000189601900D928A95E1F7CE0108960E9430
:102CC000C61481110CC087E0FE013896DE01119612
:102CD00001900D928A95E1F78C8581110BC017E068
:102CE000809122029091E901891331C06B96E4E052
:102CF0000C94ED1B2091E90130E0C9010196877029
:102D00009927409122024817190699F097E0929F5F
:102D1000D001939FB00D1124A651BE4FFE013196F4
:102D200001900D929A95E1F78093E9010E94CA06FD
:102D3000D6CF0E94D2091092E9011092220287E0B8
:102D4000E1E9F1E0DF011D928A95E9F7C8CF819FA3
:102D5000C001112486519E4F0E94C614882331F26F
:102D60008091220290E00196877099278093220239
:102D7000B7CFA6E0B0E0EFEBF6E10C94D11B0E94D8
:102D80000F048C018091A4019091A50180179107F7
:102D900081F019821A820E940F04682F49815A819A
:102DA000792F80E090E00E942D161093A5010093EA
:102DB000A4012696E4E00C94ED1B1F920F920FB62F
:102DC0000F9211242F933F934F935F936F937F93B1
:102DD0008F939F93AF93BF93CF93DF93EF93FF9323
:102DE000D091E900DF708091EC00C82FC17080FDA8
:102DF000C0E81092E9008091F000877F8093F00096
:102E000078940E94E8091092E9008091F0008860AF
:102E10008093F000CD2BCF70C093E900FF91EF912C
:102E2000DF91CF91BF91AF919F918F917F916F91E2
:102E30005F914F913F912F910F900FBE0F901F9078
:102E400018951F920F920FB60F9211242F933F9354
:102E50004F935F936F937F938F939F93AF93BF93A2
:102E6000EF93FF938091E10082FF09C08091E2001F
:102E700082FF05C08091E1008B7F8093E10080910B
:102E8000DA0080FF24C08091D80080FF20C08091AC
:102E9000DA008E7F8093DA008091D90080FFAAC08B
:102EA00080E189BD82E189BD09B400FEFDCF81E0EA
:102EB0008093DF018091D401811109C00E94B30287
:102EC0000E9454038091E20084608093E20080912C
:102ED000E10080FF1AC08091E20080FF16C080915F
:102EE000E2008E7F8093E2008091E2008061809317
:102EF000E2008091D80080628093D80019BC85E000
:102F00008093DF0183E080930D018091E10084FFD5
:102F100030C08091E20084FF2CC080E189BD82E155
:102F200089BD99B5892F817090FFFBCF9091D80012
:102F30009F7D9093D8009091E1009F7E9093E10057
:102F40009091E2009F7E9093E2009091E200916068
:102F50009093E2009091E001992309F451C094E02C
:102F60009093DF019091DF01943009F482E0809327
:102F70000D018091E10083FF2CC08091E20083FF6E
:102F800028C08091E100877F8093E10082E08093F8
:102F9000DF011092E0018091E1008E7F8093E100DB
:102FA0008091E2008E7F8093E2008091E200806158
:102FB0008093E20042E060E080E00E942203809182
:102FC000F00088608093F00081E080930D01809391
:102FD0000C01FF91EF91BF91AF919F918F917F91E4
:102FE0006F915F914F913F912F910F900FBE0F9076
:102FF0001F90189519BC1092DF011092D40167CF71
:103000009091E30097FD02C0982FAACF93E0A8CF3C
:1030100078941F921FB61F9211248F939F93AF93A2
:10302000BF938091230290912402A0912502B09138
:1030300026020196A11DB11D8093230290932402C4
:10304000A0932502B0932602BF91AF919F918F91DB
:103050001F901FBE1F9018951F921FB61F9211241C
:103060008F939F93AF93BF938091D301811113C02E
:103070008091230290912402A0912502B091260212
:103080004196A11DB11D8093230290932402A09329
:103090002502B0932602BF91AF919F918F911F900F
:1030A0001FBE1F901895CDB7DEB7A6970FB6F89440
:1030B000DEBF0FBECDBF85B7806885BF85B780688E
:1030C00085BF84B7877F84BF0FB6F894A895809199
:1030D0006000886180936000109260000FBE80E8FD
:1030E00090E00FB6F89480936100909361000FBE5A
:1030F00081E080930D018BE994E090936B018093C4
:103100006A010E94B3020E9454038091E20084602D
:103110008093E20078948091DF018823A1F01091E0
:10312000E9001F709091EC00892F817090FD80E87C
:10313000182B1092E9008091E80083FD0E94E809B5
:103140001F701093E90082E084BD93E095BD9AEF73
:1031500097BD80936E000E94A608811102C00E9454
:10316000960807E411E0BCE4EB2EB1E0FB2ED80199
:103170008D918D018F3F11F00E949D04E016F106A4
:10318000B1F70CE411E0F80181918F018F3F11F04C
:103190000E949D04F1E00A351F07A9F78AE0E3ECDD
:1031A000F1E0DF01282F1D922A95E9F7E9EAF1E025
:1031B000DF011D928A95E9F790E080E00E94021CF1
:1031C000853E9E4F21F40E94A608811163C065EEE2
:1031D0007EEF90E080E00E94361C60E082E090E0AC
:1031E0000E94181C81E08093B30161E083E090E0CD
:1031F0000E94181C60E074E184E090E00E94361C9C
:1032000060E086E090E00E94181C60E087E090E0BB
:103210000E94181C40E050E0BA0188E090E00E9453
:103220002A1C60E083E290E00E94181C60E08CE0C1
:1032300090E00E94181C60E08DE090E00E94181C55
:1032400019821A821B821C821D821E821F8218868E
:1032500048E050E067E170E0CE0101960E94081C52
:1032600040E050E0BA018FE190E00E942A1C80E02B
:103270000E940F080E94960840E050E0BA018FE0DB
:1032800090E00E942A1C40E050E0BA0183E190E007
:103290000E942A1C82E090E00E94FA1B8093B701F2
:1032A00084E090E00E94021C9093B6018093B501E7
:1032B0000E94B90DEFEFF6E721E0E150F040204029
:1032C000E1F700C000000E94B90D8091C30180FFAA
:1032D00008C06FEF7FEF90E080E00E94361C0E94F4
:1032E000EB0783E090E00E94FA1B0E94920780E0C7
:1032F00091E09093D0018093CF01FDEC4F2EF1E04F
:103300005F2EA2EC6A2EA1E07A2E8091DF0110E4FC
:10331000853009F492C00E94B90D78EBA72E71E0B8
:10332000B72EE3EC8E2EE1E09E2ED401F501219123
:1033300031918D919D916E167F0609F488C02817F2
:103340003907A9F3312CF401019111914F01D501F5
:10335000CD90DD905D01C016D10661F1C026D12669
:10336000212CEE24E394F12CC6018E219F21892B80
:10337000B9F029A23AA20E940F049CA38BA3B1E04A
:10338000BDA391E098012E213F21232B09F490E069
:103390009EA349A15AA16BA17CA18DA10E942D16CB
:1033A0002394EE0CFF1CEEE02E12DECFF5013297D7
:1033B000118300833394F5E03F12C5CF8FB7F894A3
:1033C00040912302509124026091250270912602BF
:1033D0008FBF43C08091DF01843019F11092D30177
:1033E00088E190E00FB6F894A895809360000FBE36
:1033F0001093600083B7817F846083BF83B781604F
:1034000083BF7894889583B78E7F83BF0FB6F89477
:10341000A8958091600088618093600010926000A0
:103420000FBE0E94B90DE3ECF1E081919191892BDF
:1034300009F076C14E165F06C1F78091DF01853035
:1034400009F4C8CF0E94D2090E948E0464CF2817C5
:10345000390709F077CF0E94B9160E948E04909127
:10346000C201891769F08093C2018FB7F894409127
:1034700023025091240260912502709126028FBF91
:103480008091DF01843009F040CF83E08093E90030
:103490008091E80082FF39CF8091E80090E085FFBD
:1034A0000BC00E94D20240E2E42EF12C8E010F5F8D
:1034B0001F4F8823D9F091E08091E8008B778093AB
:1034C000E800992309F421CFE981E150E33138F58F
:1034D000F0E0E656F34E0C94B61B8091F100D80153
:1034E0008D938D01B1E0EB1AF10829F38091E8008A
:1034F00085FDF3CF8091E8008B778093E8000E94F0
:10350000D202882399F3D7CF1A828CE08B8324C010
:103510008A81823009F421C128F4813061F08FEF73
:1035200089831AC0833009F18430C9F71B821C8259
:103530001D821E8211C02FB7F894609123027091F2
:10354000240280912502909126022FBF0E94BC1B6D
:103550006B837C838D839E8340E250E0BE016F5F6E
:103560007F4F82E00E949507D0CE2B81822F90E082
:10357000FE013196225F8530910570F7DC01AA0FBC
:10358000BB1FAD53BE4F3C9111964C914383348386
:10359000019632962813EFCFDFCF8A81823019F05F
:1035A0008530D1F2BCCF6B817C818D819E810E9460
:1035B000BC1B87E290E00E94181CCECF4C816B812F
:1035C0008A810E94BF089827892798279E838D8328
:1035D000C3CF2D813E813227232732274C816B8137
:1035E0008A810E943808B8CF0E945E08B5CFE0E11A
:1035F000EA83B2CFF1E0FA8388EA88CFEA80FB80E1
:10360000FE24EF24FE248E010F5F1F4FCC80C00EDE
:10361000D12ED11CC701885A9D4F0C151D0509F4E8
:103620009BCF28EAE21621E0F20658F40E94FA1B2A
:10363000D80114968C93FFEFEF1AFF0A0F5F1F4F0C
:10364000E9CFF8011482F7CF0A811B8110270127E7
:103650001027CE0101966C01EC80E00EF12EF11CDA
:10366000C801885A9D4F0E151F0509F475CF083AF9
:10367000A1E01A0720F4F60164810E94181CFFEFF4
:10368000CF1ADF0A0F5F1F4FEBCF0E94280864CFCD
:1036900084E08A8361CFEA80FB80FE24EF24FE244D
:1036A0008E010F5F1F4FCC80C00ED12ED11CC701E1
:1036B00088960C151D0509F44FCF20E3E21622E091
:1036C000F20658F40E94FA1BD80114968C93FFEF6F
:1036D000EF1AFF0A0F5F1F4FEACFF8011482F7CFEE
:1036E0000A811B81102701271027CE0101966C014A
:1036F000EC80E00EF12EF11CC80188960E151F0516
:1037000009F42ACF0033A2E01A0720F4F6016481FD
:103710000E94181CFFEFCF1ADF0A0F5F1F4FECCF7C
:103720008091DE01882309F488CE90E199BDA2E161
:10373000A9BD09B400FEFDCF8091D8008F7D809394
:10374000D8008091E00082608093E0008091E000EA
:1037500081FDFCCF0E94D20970CE87E290E00E94EA
:10376000FA1B1B821C821D828E83F6CEEE0FFF1F7A
:103770000590F491E02D0994692796276927782709
:103780008727782708952F923F924F925F926F92EA
:103790007F928F929F92AF92BF92CF92DF92EF92E1
:1037A000FF920F931F93CF93DF93CDB7DEB7CA1B62
:1037B000DB0B0FB6F894DEBF0FBECDBF09942A888D
:1037C000398848885F846E847D848C849B84AA8435
:1037D000B984C884DF80EE80FD800C811B81AA81C2
:1037E000B981CE0FD11D0FB6F894DEBF0FBECDBF8D
:1037F000ED010895F999FECF92BD81BDF89A992700
:1038000080B50895A8E1B0E042E050E00C943E1C81
:10381000DC01A40FB51F4150504048F0CB01840F8C
:10382000951F2E910E94191C41505040D0F70895C9
:10383000262FF999FECF92BD81BDF89A019700B469
:10384000021639F01FBA20BD0FB6F894FA9AF99A09
:103850000FBE08950396272F0E94191C0E94181C62
:10386000252F0E94191C242F0C94191C0196272F18
:103870000E94191C0C94181CDC01CB01FC01F99965
:10388000FECF06C0F2BDE1BDF89A319600B40D92AC
:1038900041505040B8F70895FB01DC0104C08D9100
:1038A0000190801921F441505040C8F7881B990BB2
:1038B0000895F894FFCFCD0AF50A480BF50A480B96
:1038C000280B5A0B480B570C640C7C10801071109D
:1038D0007810841088108C10251225125F125F1248
:1038E0000B1388128812881225139213A313A313A3
:1038F000C9103E11D1109B109F10D510A310D910E4
:10390000E510AF103711B310E910B710ED10151115
:10391000BB10F1101C11C110F710FF10A710DD1023
:10392000AB10E110C510FB100B11251135119510CE
:10393000CD104511841A881ACD1ADE1AE91AF41A24
:103940008F1A8F1A8F1A8F1A8F1AF71AFA1AFE1AED
:0A395000241B451B481B4B1B701B7A
:10395A001B04D7070D040E04D00700000100818262
:10396A0083E200E900EA00B500B600B700CD0083A3
:10397A0001CC008A0192019401210223022402252A
:10398A0002260227022A02B300B4006F0070009FC9
:10399A0001CB019F02A002F0F1F4F5F63435366747
:1039AA00F73132339293959496974422320001DE8E
:0A39BA0000AC0036044F046F040057
:00000001FF
