:100000000C940A060C94E6160C9451060C945106B6
:100010000C9451060C9451060C9451060C94510604
:100020000C9451060C9451060C94142F0C94E82F48
:100030000C94E2240C9451060C9451060C94510635
:100040000C9451060C9451060C9451060C945106D4
:100050000C9451060C9448250C9451060C945106AE
:100060000C9451060C9451060C9451060C945106B4
:100070000C9451060C9451060C9451060C945106A4
:100080000C9451060C9451060C9451060C94510694
:100090000C9451060C9451060C9451060C94510684
:1000A0000C9451060C9451060C94510635001E0018
:1000B0001F002000210022002B0014001A0008005D
:1000C00015001700290004001600070009000A00A7
:1000D000E1001D001B00060019000500FC5CE000AB
:1000E000E200E300FA5C2C00230024002500260037
:1000F00027002A001C0018000C00120013004C00FE
:100100000B000D000E000F00330034001100100032
:1001100036003700380028002C00FB5C50005100EE
:1001200052004F0035001E001F0020002100220059
:100130002B0014001A00090013000A002900040013
:100140001500160017000700E1001D001B00060047
:1001500019000500FC5CE000E200E300FA5C2C0002
:10016000230024002500260027002A000D000F0090
:1001700018001C0033004C000B00110008000C009C
:10018000120034000E00100036003700380028003E
:100190002C00FB5C5000510052004F0035001E0047
:1001A0001F002000210022002B0034003600370001
:1001B00013001C00290004001200080018000C00A5
:1001C000E100330014000D000E001B00FC5CE00099
:1001D000E200E300FA5C2C00230024002500260046
:1001E00027002A0009000A00060015000F004C0035
:1001F00007000B0017001100160038000500100062
:100200001A0019001D0028002C00FB5C5000510052
:1002100052004F0035021E021F022002210222025C
:1002200035021E021F022002210222024C003A0067
:100230003B003C003D003E00010040004100420008
:100240004300440001000100010001000100010021
:10025000230224022502260227022A002302240266
:100260002502260227024C003F002D022E022F02FB
:100270003002310245003202640201000100010037
:1002800001000100AB00AA00A900AE0035001E006D
:100290001F0020002100220035001E001F0020004A
:1002A000210022004C003A003B003C003D003E0093
:1002B00001004000410042004300440001000100F1
:1002C0000100010001000100230024002500260098
:1002D00027002A00230024002500260027004C00C8
:1002E0003F002D002E002F0030003100450032006D
:1002F000640001000100010001000100AB00AA0040
:10030000A900AE0000000000000000000000000096
:1003100000000000000000000000000000000000DD
:1003200000000000000000000000000000000000CD
:1003300000000000000000000000000000000000BD
:1003400000000000000000000000000000000000AD
:100820000000000000000000000000003A003B0053
:100830003C003D003E003F000100005CC25CC35C28
:10084000C65CC55C0100010001001D5C1E5C135C00
:100850000100010001000100010001000100010090
:10086000010001000100010040004100420043007E
:1008700044004500C85CC75CCA5CC95C01004C0010
:100880000A5CF75CF85CF95C010001000100010002
:100890000100010001000100010001000100010050
:1008A0000100010000047F3F1F6432146432147899
:1008B0003C1E1E140A052223252628292A2C2D2F0A
:1008C0003032333536383A3B3D3E40424345474966
:1008D0004A4C4E5051535557595A5C5E606264669B
:1008E00068696B6D6F71737577797B7D7F818385A7
:1008F00087898A8C8E90929496989A9C9E9FA1A3A9
:10090000A5A7A8AAACAEAFB1B3B4B6B8B9BBBCBECC
:10091000BFC1C2C3C5C6C7C9CACBCCCDCED0D1D248
:10092000D2D3D4D5D6D7D7D8D9D9DADADBDBDBDC4A
:10093000DCDCDCDCDDDDDDDDDCDCDCDCDCDBDBDBF6
:10094000DADAD9D9D8D7D7D6D5D4D3D2D2D1D0CE56
:10095000CDCCCBCAC9C7C6C5C3C2C1BFBEBCBBB95B
:10096000B8B6B4B3B1AFAEACAAA8A7A5A3A19F9ED9
:100970009C9A98969492908E8C8A89878583817FA1
:100980007D7B79777573716F6D6B69686664626082
:100990005E5C5A5957555351504E4C4A494745434E
:1009A00042403E3D3B3A3836353332302F2D2C2AEB
:1009B000292826252322FFAA7F5540000000000099
:1009C000000000000001010101010101010102021A
:1009D00002020202020203030303030303040404EA
:1009E00004040505050505060606060607070707AC
:1009F000080808080909090A0A0A0B0B0B0C0C0C59
:100A00000D0D0D0E0E0E0F0F1010101111121213EE
:100A1000131414151516161717181819191A1A1B66
:100A20001C1C1D1D1E1F1F202121222323242525C0
:100A300026272828292A2B2C2C2D2E2F30313132F5
:100A4000333435363738393A3B3C3D3E3F404142FE
:100A5000434445464748494B4C4D4E4F50525354E2
:100A6000555758595A5C5D5E606163646567686A92
:100A70006B6C6E6F7172747677797A7C7D7F818210
:100A8000848687898B8D8E9092949597999B9D9F54
:100A9000A1A2A4A6A8AAACAEB0B2B4B6B9BBBDBF61
:100AA000C1C3C5C8CACCCED0D3D5D7DADCDEE1E32A
:100AB000E6E8EAEDEFF2F4F7F9FCFF04033000009A
:100AC000002A0354006800650020004E0079007180
:100AD00000750069007300740020004B0065007908
:100AE0000062006F0061007200640000000E034BA2
:100AF0000065006500620069006F000000040309E2
:100B00000409023B00020100A0FA090400000103ED
:100B100001010009211101000122400007058103A4
:100B200008000A0904010001030000000921110165
:100B300000012285000705820320000A120110012E
:100B40000000000810CB561100030102030105014B
:100B50000902A10185020901A10005091901290560
:100B60001500250195057501810295017503810127
:100B70000501093009311581257F95027508810627
:100B800009381581257F950175088106050C0A38FD
:100B9000021581257F950175088106C0C0050109F0
:100BA00080A10185031601002603001A81002A8313
:100BB00000751095018100C0050C0901A101850493
:100BC000160100269C021A01002A9C02751095014C
:100BD0008100C005010906A101050719E029E715F3
:100BE00000250195087501810295017508810105AF
:100BF0000819012905950575019102950175039163
:100C0000010507190029FF150026FF009506750844
:100C10008100C00011241FBECFEFDAE0DEBFCDBFE0
:100C200004B603FE27C08091920290919302A09196
:100C30009402B09195028730904BA740B04BD1F40D
:100C400010929202109293021092940210929502C6
:100C500014BE84B7877F84BF0FB6F894A89580919F
:100C60006000886180936000109260000FBEE0E039
:100C7000F8E3099511E0A0E0B1E0EAE4F5E602C08E
:100C800005900D92A437B107D9F722E0A4E7B1E0AF
:100C900001C01D92A239B207E1F70E943E2C0C94CC
:100CA00069320C9400000C94A10CCF93DF93EC01FB
:100CB0000E94C223BE0190E080E0DF91CF910C94AE
:100CC0001621CF93FB01893F2CE5920751F158F48F
:100CD000873F2CE59207B1F0883F9C45E1F0C1E0E9
:100CE0008C2FCF9108958B3F2CE5920761F1F8F09E
:100CF0008C3F9C45A1F7C28180E1CC2379F10E9411
:100D0000782107C0C28181E090E0CC2349F30E94A2
:100D10005506C0E0E5CFC28182E090E0CC2301F32C
:100D2000F6CFC281CC23E1F284E090E0F0CFC28123
:100D300083E0CC2359F00E94782140E164E083E015
:100D40000E944207E6CFC28184E0F3CF0E9499213E
:100D500040E164E083E00E944207C2CF0E949921F3
:100D6000BFCF81E008950C9461061F93CF93DF936A
:100D700000D000D00F92CDB7DEB749835A836B8382
:100D80002091C20189819A8121111BC06623A9F09B
:100D90000E946B22182F682F89819A810E94142249
:100DA00069817A81812F0F900F900F900F900F9093
:100DB000DF91CF911F910C94010A0E944222182FBB
:100DC000EFCF0E946B2269817A81EDCFFC014081D7
:100DD00051816281738184810C94B5068F929F92B8
:100DE000AF92BF92CF92DF92EF92FF920F931F9339
:100DF0006B017C0181E090E0A0E0B0E04C015D017E
:100E000004C0880C991CAA1CBB1C4A95D2F7B501DA
:100E1000A4014C015D0104C0880C991CAA1CBB1CD8
:100E20002A95D2F7482959296A297B2904C0880FB5
:100E3000991FAA1FBB1F0A95D2F78A019B010C219B
:100E40001D212E213F21041715072607370789F496
:100E50008C299D29AE29BF29BC01CD011F910F917D
:100E6000FF90EF90DF90CF90BF90AF909F908F90CA
:100E7000089580959095A095B0958C219D21AE21E7
:100E8000BF21EACF0F93382F262F60912302709154
:100E900024028091250290912602042F432F0E9464
:100EA000EE060F910C9452210C94A30CE82FE295BE
:100EB000EF70F0E032A1282F2F7081E090E001C0A8
:100EC000880F2A95EAF78095832382A30895CF920D
:100ED000DF92EF92FF92883028F5811124C0909123
:100EE00080009F7790938000282F30E0AFEFBFEF16
:100EF0000E94FA3127E030E040E050E00E94D23119
:100F0000C9012C3764E1360790F469E070E00E9473
:100F1000AA317093890060938800FF90EF90DF9072
:100F2000CF90089587E0909180009068DBCF2A50A1
:100F3000374D4F4F5F4F942F832F722F662725EF2A
:100F400038E241E050E00E94D23169017A01CA01E1
:100F5000B9010E949A319B01AC01C701B6010E9400
:100F60009A31672F782F892F99276115710521E014
:100F70008207910571F66FEF7FEFCBCF259A85E35E
:100F80000E94560782E88093800089E18093810067
:100F90008FEF9FEF90938700809386000C94C22977
:100FA0000E94AF23811102C00E9443240E94BE0709
:100FB0000C94530608950C94DA070C94DB070895FB
:100FC0000E94541D0E94DF072FEF84E39CE0215014
:100FD00080409040E1F700C000000C946C250F9316
:100FE0001F93CF93DF938C010E94E606EC01B801BA
:100FF0000E94B306882309F4C9C0B801CE010E943B
:10100000F115882309F4C2C0CA3C8CE5D80709F45D
:10101000FEC008F051C0C33CECE5DE0709F4D0C0C7
:1010200040F5C5318CE5D807A8F4C2309CE5D90756
:1010300008F051C1C115ECE5DE0709F4A2C0C130CA
:10104000DC4509F4A9C0C801DF91CF911F910F9130
:101050000C94B106C6318CE5D80709F4AEC1C23C88
:10106000DC4589F7F8018281811190C00E940E143D
:101070008DC0C63CECE5DE0709F4B8C078F4C43C8A
:101080008CE5D80709F4A7C0C53CDC45E1F6F801BA
:10109000828181117BC00E941A1178C0F80182817F
:1010A000C83CFCE5DF0709F4ADC008F4A6C0811117
:1010B0006DC00E9454116AC0C13DECE5DE0709F421
:1010C000D9C070F5CD3C8CE5D80709F4AFC088F4E1
:1010D000CB3CECE5DE0709F4A1C0CC3CDC4509F0D3
:1010E000B2CFF8018281882309F450C00E94A30F77
:1010F0004DC0F8018281CF3CFCE5DF0709F4ACC0AC
:1011000008F49DC0882309F441C00E948A0F8930E9
:1011100028F00E948A0F8E3008F465C089E08CC0E8
:10112000C53DECE5DE0709F4C8C0B0F4F8018281E2
:10113000C33DFCE5DF0709F4BBC008F4ABC088235E
:1011400029F10E948A0F893128F00E948A0F823289
:1011500008F449C089E170C0CD3DECE5DE0709F433
:10116000B3C0CE3DFCE5DF0721F1CC3DDC4509F005
:101170006ACFF8018281882349F080E00E94DC2C4C
:1011800005C0F801828181110E94E00780E0DF91B3
:10119000CF911F910F910895F80182818823B1F3B7
:1011A00090913802892F8E7F90FF81608093380262
:1011B000EDCFF8018281882349F30E944324E6CFD2
:1011C000F8018281882311F30E940023827259F072
:1011D0000E940014DBCFF80182818823B9F20E94BB
:1011E00000238272A9F30E94F313D0CFF801828109
:1011F0008111CCCF0E942711C9CF8111C7CF0E9486
:101200003611C4CF8111C2CF0E944511BFCFF80162
:1012100082818111BBCF0E946311B8CFF801828116
:10122000882309F4B3CF0E94920FB0CFF8018281D6
:10123000882309F4ABCF81E00E940314A7CF882351
:1012400009F4A4CF0E948A0F823020F00E948A0FF6
:10125000853048F282E0F0CF882309F497CF0E94CE
:101260008A0F863028F00E948A0F883008F4BBCF9E
:1012700086E0E2CFF8018281882309F487CF0E94BB
:101280008A0F8F3028F00E948A0F843108F4ABCF88
:101290008FE0D2CF882309F479CF0E948A0F85315D
:1012A00028F00E948A0F873108F49DCF85E1C4CFD2
:1012B000882309F46BCF88E1BFCFF80182818823AE
:1012C00009F464CF83E2B8CFF8018281882309F45E
:1012D0005DCF82E053CFF8018281882309F4B3CE39
:1012E0000E94AF23811102C00E9443240E94C723A1
:1012F00090E09093830280938202FE01E350FC45CC
:10130000809182028160E231F10538F4E559FD4CAB
:101310000C94F431809182028260809382028091E9
:1013200082020E94CB230E94541D30CF8091820202
:101330008460F3CF809182028860EFCF8091820237
:101340008061EBCF809182028062E7CF8091820240
:101350008064E3CF809182028068DFCF8091820237
:101360008C60DBCF809182028E7FD7CF809182020A
:101370008D7FD3CF809182028B7FCFCF80918202ED
:10138000877FCBCF809182028F7EC7CF80918202F0
:101390008F7DC3CF809182028F7BBFCF80918202ED
:1013A0008F77BBCF80918202837FB7CF90918202EB
:1013B000892F97FB87F98058B0CF0E940023F8014E
:1013C0009281992381F08A7A91E009F490E09093D8
:1013D0007401811106C089E20E94DB220E944C2325
:1013E000D5CE85E3F9CF80917401811104C089E2E3
:1013F0000E94E222F3CF85E3FBCF90E080E00895E6
:101400000895972F70E026E0929F600D711D1124C2
:10141000FB019CE3899FE00DF11D1124EE0FFF1FDE
:10142000E455FF4F859194910895FC01EE0FFF1F45
:10143000EC55F74F859194910895CF93DF930E94D7
:10144000010A0E94030CEC01811521E5920708F0C6
:1014500049C0811530E5930708F030C1883E9105F9
:1014600008F5803E910570F5883A910570F4853A4B
:10147000910508F0AEC08130910521F1009711F17E
:10148000049700F5D0E0C0E01DC08F3B910508F443
:10149000ABC0805C9109C03CD105A0F30E94150A45
:1014A000EC0110C08115904388F4C11580E2D80783
:1014B00008F0FBC0C03FD10528F3CF3FD10509F0AC
:1014C00008F4F1C0CE01DF91CF910895C11590E4E9
:1014D000D90708F0F0C0CE019927D3FFE9C0EC018D
:1014E000D86CF0CF811529E5920760F5811538E5B4
:1014F000930708F029C1811544E5940778F4C115D4
:1015000083E5D80708F007C1C11592E5D90708F0AF
:10151000F1C0DC2FCC27C16FD06AD4CF811525E56F
:10152000920708F40CC1811536E5930708F0AACF9D
:101530000E947E0CC82FD0E0DC2FCC27CC27DF7197
:10154000D062C0CF8D3B9C4509F403C1CE3B8CE5F6
:10155000D807D0F4CB3B9CE5D90709F4FDC008F0CF
:10156000FEC0C1153AE5D30708F08CCF8C2F8F70E1
:101570000E947E0C34E0D695C7953A95E1F7CF707E
:101580009C2FEC01D0699ECFC03C4CE5D40709F4F8
:10159000E9C060F4CE3B9CE5D90709F4E6C0CF3B37
:1015A000DC4509F06FCFC0E0D2ED8CCFCE01905674
:1015B0008115904208F066CF8D2F8F710E947E0CAE
:1015C00090E0982F882788279F719C012C2BE90198
:1015D000B7CF853A910509F4CBC0863A910509F059
:1015E000CAC0C2E8D0E46ECF883A910509F4C6C0FB
:1015F000893A910509F4C5C08A3A910509F4C4C035
:101600008B3A910509F4C3C08C3A910509F4C2C024
:101610008B3B910509F4C1C08C3B910509F4C0C016
:101620008D3A910509F4BFC0803B910509F4BEC015
:101630008E3A910509F4BDC08F3A910509F4BCC0FA
:10164000813B910509F4BBC0823B910509F4BAC006
:10165000833B910509F4B9C0843B910509F4B8C0F6
:10166000853B910509F4B7C0863B910509F4B6C0E6
:10167000873B910509F4B5C0883B910509F4B4C0D6
:10168000893B910509F4B3C08D3B910509F4B2C0C3
:101690008E3B910509F4B1C08A3B910509F4B0C0B5
:1016A000C0E0D4E40FCFD0650DCFCE019F70F6CE51
:1016B000EC01D06C07CFDF70D06A04CFE4E09695E0
:1016C0008795EA95E1F783702C2F26952695237050
:1016D00040E2249F90011124382B8C2F8370C1E0AD
:1016E000D0E002C0CC0FDD1F8A95E2F7C22BD32BCE
:1016F000DC68E8CECE018370992721E030E002C09B
:10170000220F331F8A95E2F7C695C69580E2C89FDF
:10171000E0011124EBCFCE018370992721E030E066
:1017200002C0220F331F8A95E2F7C695C69590E254
:10173000C99FE0011124C22BD32BDA68C3CED82F66
:10174000CC27C46FD06ABECED82FCC27C06FD06A4A
:10175000B9CEC0E0D1EDB6CEC0E0D4EDB3CEC0E09E
:10176000D5EDB0CEC0E0D3EDADCEC0E0D0EDAACE89
:10177000C1E8D0E4A7CEC3E8D0E4A4CEC2EED4E45E
:10178000A1CEC9EED4E49ECECAEED4E49BCEC5EB86
:10179000D4E498CEC6EBD4E495CEC3EBD4E492CE99
:1017A000C4EBD4E48FCEC7EBD4E48CCECCECD4E441
:1017B00089CECDECD4E486CEC3E8D5E483CECAE8A6
:1017C000D5E480CEC2E9D5E47DCEC4E9D5E47ACEB5
:1017D000C1E2D6E477CEC3E2D6E474CEC4E2D6E466
:1017E00071CEC5E2D6E46ECEC6E2D6E46BCEC7E2D9
:1017F000D6E468CECFE6D4E465CEC0E7D4E462CECA
:10180000CAE2D6E45FCE8238910549F1B0F4813363
:10181000910509F462C048F48932910509F456C073
:101820008A32910509F460C008958533910509F461
:1018300046C08933910599F00895833E910531F1B1
:1018400038F4803E910591F0823E9105B1F0089503
:10185000863E910521F1873E910551F10895209131
:1018600082022370D9F080EE90E0089520918202E8
:1018700020FF14C089E390E008952091820222FFA6
:101880000DC024FD09C083EE90E0089520918202EE
:1018900022FD31C024FF02C090E080E00895209135
:1018A000820223FFFBCF24FDF7CF87EE90E008955F
:1018B0002091820223FFEECF86EE90E008952091E2
:1018C000820225FFEBCF89E290E008952091820209
:1018D00025FFE4CF85E390E008952091820226FF62
:1018E000DDCF8AE290E008952091820226FFD6CFD4
:1018F00081E390E0089582EE90E008959091820255
:1019000092FF06C0282F2871283069F4877F8460F1
:1019100093FF06C0282F2871283161F4877E8461E7
:1019200094FD877E0895282F2471243089F78B7FBA
:101930008860EECF282F2471243191F78B7E886147
:10194000EFCF089508950C94A20C0895E82FF0E0CD
:10195000E558FE4F808108950895CF93DF938091DD
:1019600038028B60809338028091000180910001E1
:1019700095E0811190E09093520285E0891B80935D
:101980005102AAE3B1E061E070E08D91E82FE295A9
:10199000EF70F0E041A18F709B0101C0220F8A958A
:1019A000EAF7922F9095942391A382A1822B82A390
:1019B00081E0AF33B80749F7A4E3B1E04AE351E06F
:1019C000C1E0D0E08D91E82FE295EF70F0E061A1E9
:1019D0008F709E0101C0220F8A95EAF7922F909591
:1019E000962391A382A1822B82A34A175B0751F70A
:1019F000EBE7F1E085E891E011928E179F07E1F7A0
:101A000085E00E94C50DDF91CF910C94D0076F92B5
:101A10007F928F929F92AF92BF92CF92DF92EF927E
:101A2000FF920F931F93CF93DF9326E731E04AE3B2
:101A3000E42E41E0F42E712CCC24C394D12CE90186
:101A400079919E01DE011E92F70181917F01E82FBD
:101A5000E295EF70F0E091A18F70860101C0000F58
:101A60008A95EAF7892F802B81A382A1602E60944A
:101A7000862182A380EA8A95F1F794E3A92E91E06A
:101A8000B92E50E040E0E50169915E01862E829416
:101A90008FE08822912CE40188A190E06F7002C051
:101AA000959587956A95E2F7812C80FD06C04601E1
:101AB000042E01C0880C0A94EAF78C91882A8C9233
:101AC0004F5F5F4F46305105F1F681A1862181A31A
:101AD00082A1082B02A381E09C91971301C080E0B2
:101AE000782AD1E02B373D0709F0A9CF6091520247
:101AF00070E065587E4F272D45E086E791E00E9413
:101B0000C60D872DDF91CF911F910F91FF90EF9020
:101B1000DF90CF90BF90AF909F908F907F906F900D
:101B20000895CF930E94070DC82F0E94020E8823AC
:101B300011F18091510290E085589E4F0E945D0EF8
:101B4000811116C0809175018F5F80937501863079
:101B500050F0E0915102F0E0E558FE4F1082118202
:101B60001282138214820E9454078C2FCF91089501
:101B700010927501F8CF8091520290E085589E4FE7
:101B80000E94840E0E94A50CF0CF0895FF920F933F
:101B90001F93CF93DF93F82E092F162FD72FC42F23
:101BA000222349F081E0809387010E9412259093BF
:101BB000860180938501809187018823A1F080911F
:101BC0008501909186010E941E25069760F0EF2DF9
:101BD000F02FA12FBD2FCE0FDF2FD11DEC17FD074A
:101BE00041F410928701DF91CF911F910F91FF90E7
:101BF000089581918D93F2CF559889B185FB8827FF
:101C000080F9089580918801811111C08091D800D8
:101C100080618093D8008AE18A95F1F700C09091A5
:101C2000D900892F817090FF82E08093880181E044
:101C300090918801913009F080E008950E94FC0D98
:101C4000809300018091000166E0882349F080E0E4
:101C50000E943B0F0E94020E882321F00C94340E48
:101C600086E0F6CF0C943A0E62E070E081E091E0FD
:101C70000C94931662E070E081E091E00C949C1665
:101C80000E943A13882361F081E991E00E94401399
:101C900081E090E00E947517892B11F40C943D139C
:101CA000089580919001883039F460E081E991E0F5
:101CB0000E945514109290010895CF93DF93D82F6E
:101CC000C92F0E94400E90E080E00E947517009797
:101CD000C9F4ED2FFC2FDC01A557BE4F2C912193A9
:101CE000019685309105B9F70E94432A882341F077
:101CF0000E94902A80938A0181E0DF91CF9108951C
:101D000080E0F8CF80E0F9CFCF93DF93D82FC92FB1
:101D10000E94510EED2FFC2F90E080E02191DC011C
:101D2000A557BE4F2C93019685309105B9F7809148
:101D30008A01DF91CF910C946707AF92BF92CF9247
:101D4000DF92FF920F931F93CF93DF93362F472F8E
:101D5000282FF82EE82FF0E071110FC0E554F64F50
:101D60006491762F862FDF91CF911F910F91FF9075
:101D7000DF90CF90BF90AF900895072F10E056E00E
:101D8000659FC0011124CFEFD0E0BE010E94AA31AF
:101D9000832F90E0880F991F35E5369FD001379F3C
:101DA000B00D11248A1B9B0B982F990F980F6E0171
:101DB000C01AD10ACE9ED001CF9EB00DDE9EB00DCE
:101DC00011248B2F949FA0011124452F55276E01BC
:101DD000C41AD50ACE9EA001CF9E500DDE9E500D96
:101DE00011245E01A91AB108A09E6001A19ED00C29
:101DF000B09ED00C1124CD2CDD24CC19DD09CE9F52
:101E00008001CF9F100DDE9F100D1124912F6230A5
:101E1000710509F148F46115710569F061307105CA
:101E2000F1F09B2F852F07C064307105D9F0F0F0D9
:101E300066307105B1F7E22FF0E0E554F64F74918A
:101E4000E92FF0E0E554F64F6491E82FF0E0E55417
:101E5000F64F849188CF922F2B2F812FECCF922F8A
:101E6000252FE9CF9B2F822F212FE5CF2B2F8F2DD1
:101E7000952FE1CF08958093A001609315010895F7
:101E8000CF93DF93762FE901682F842F0E949D0E58
:101E9000798368838A83DF91CF910895809153027B
:101EA000982F9E7F29F48170826080935302089559
:101EB0008A34E8F381708864F8CF88E090E00C946D
:101EC0002932CF92DF92EF92FF926B017C010E9448
:101ED0004E0FB701A60188E090E0FF90EF90DF90F1
:101EE000CF900C944732E3E5F2E083E080831182E7
:101EF0008FEF828383831482A8EAB1E012968C91DB
:101F00001297836012968C93608171818281938194
:101F10000C94610F8091530280FF02C08695089552
:101F200080E0089580915702833018F48F5F80938A
:101F30005702609153027091540280915502909122
:101F400056020C94610F80915702882319F081503A
:101F50008093570260915302709154028091550210
:101F6000909156020C94610F6091150170E0809180
:101F7000530280FF0AC08091A00123E0829FC0012C
:101F80001124885A9D4F0C94811580919F01909146
:101F9000140123E0829FF0011124E85AFD4F8917B4
:101FA00050F71182108212828F5F3396F8CF909192
:101FB000530290FF14C090919F012091140133E0CF
:101FC000939FF0011124E85AFD4F921710F00C94E2
:101FD000B40F8183608342839F5F3396F6CF089569
:101FE000CF93DF9300D00F92CDB7DEB7909153021D
:101FF00090FF0AC09E012F5F3F4F0E94400F4B8110
:1020000069818A810E94D70F0F900F900F90DF9106
:10201000CF910895CF93DF93EC01EC81F0E0EA5487
:10202000F74F4491E3E5F2E0628181810E94F00F75
:102030008C818F5F8C83DF91CF910895CF93DF9355
:10204000EC01E3E5F2E0438162818C810E94F00FB4
:102050008C818F5F8C83DF91CF9108950F931F93B5
:10206000CF93DF9300D00F92CDB7DEB78C01809174
:10207000990181110AC09E012F5F3F4F4FEF6FEF13
:102080000E94400F8A8180939901F8016481613038
:1020900069F08091990140E0662361F040E0623090
:1020A00011F44091990180E060E004C060919901D1
:1020B00040E080E00E94D70FF801848190E0019613
:1020C00063E070E00E94BE3184830F900F900F9008
:1020D000DF91CF911F910F910895AF92BF92CF9250
:1020E000DF92EF92FF920F931F93CF93DF9300D075
:1020F0000F92CDB7DEB7182FF62E042FE22E909157
:10210000530290FF3AC0E92FE695AE2FB0E0AC5BEA
:10211000BE4F8C918093A8019E7F9230E1F59E0185
:102120002F5F3F4F812F0E94400F4B8169818A8131
:102130000E94D70F80915402811308C080915502EC
:102140008F1104C080915602801729F08091AA0156
:1021500082608093AA0110935402F092550200937A
:102160005602EE2051F0609153027091540280911A
:102170005502909156020E94610F0F900F900F90A0
:10218000DF91CF911F910F91FF90EF90DF90CF9053
:10219000BF90AF900895823019F400915602CACFD3
:1021A000863019F410915402C5CF8930D9F38931A2
:1021B00009F6E9518E2F8170D82EE695F0E0EA54A9
:1021C000F64FA590B490C12CBB2460911301C616A4
:1021D00018F00E94B40FAECF2C2D30E0A29EC001AB
:1021E000A39E900DB29E900D112470E00E94AA3122
:1021F000812FD11013C0860F40919F01420F532FA2
:10220000511D9A01220F331F240F351F285A3D4FAD
:10221000402F6F2D0E94400FC394D7CF861BECCF69
:10222000E3E5F2E09181282F4381628188E0890F04
:102230000C946D1081E00C941011E3E5F2E09181B3
:10224000282F4381628188EF890F0C946D1081E003
:102250000C941D11E3E5F2E0628121E1620F08F4C4
:102260006FEF282F438181810C946D1081E00C94D5
:102270002A11E3E5F2E0628121E1621B08F460E0EB
:10228000282F438181810C946D1081E00C943911C9
:10229000E3E5F2E0438121E1420F08F44FEF282FFC
:1022A000628181810C946D1081E00C944811E3E50A
:1022B000F2E0438121E1421B08F440E0282F6281D3
:1022C00081810C946D1081E00C94571120E00C94E6
:1022D0006D10EF92FF921F93CF93DF93EC0110E00C
:1022E000EE24EA94F12C60911301161770F00E940D
:1022F000B40F9A818C8190FF27C08F5F8C83DF9110
:10230000CF911F91FF90EF90089520919F01422F50
:10231000410F5527551FCA019A01220F331F280F5D
:10232000391F285A3D4F70E0C7010E94BE31962FD9
:102330008C814091560260915502199F800D1124A5
:102340000E94400F1F5FCFCF8150D8CF9F92AF9296
:10235000BF92CF92DF92EF92FF920F931F93CF9392
:10236000DF938C01FC018281BB24BA9480FD02C002
:10237000BB24B394F801848181110BC0F1E0BF123A
:1023800029C080911301815080939B0181E0F80165
:102390008483A12C80911301A816F8F00E94B40F39
:1023A00080919B0191E0B9125AC0811152C0809175
:1023B0001301815080939B01F8011482DF91CF912A
:1023C0001F910F91FF90EF90DF90CF90BF90AF9053
:1023D0009F90089510929B01D9CFC0919F01CA2C64
:1023E000D12CCC0DDD2DD11DCE01880F991FC80F2A
:1023F000D91FC85ADD4F198218821A8234E0E32EA1
:10240000F12C912C80919B01890D87FF03C0909145
:102410001301890F082E000C990BC816D90691F4E8
:10242000809156028E9DA0018F9D500D11245595CF
:102430004795559547959E016091550280915402AC
:102440000E94400F9B0CF1E0EF1AF108D9F6A3941B
:10245000A1CF815080939B01F801B482AFCF90E06F
:1024600001966091130170E00E94BE3180939B0140
:10247000F8018483A3CFEF92FF920F931F93CF9322
:10248000DF93EC018C81811109C081E08C83109273
:102490009A0192E0909312018093110180919F0123
:1024A0009091140123E0829FF0011124E85AFD4F1E
:1024B000891768F110E003E060911301161768F1C5
:1024C0000E94B40F8091110120919A01280F20934E
:1024D0009A0190911201980F90931201191654F4D9
:1024E000022E000C330B409113014150550B241761
:1024F000350734F0819580931101813009F41C82F5
:10250000DF91CF911F910F91FF90EF90089511826D
:10251000108212828F5F3396CBCFE12EF12C70E0C8
:10252000C7010E94BE3120919F01820F482F50E0C9
:1025300020919A01022E000C330BE216F306BCF038
:1025400020911201022E000C330B2E153F057CF05A
:10255000809F90011124285A3D4F4091560260916E
:102560005502809154020E94400F1F5FA5CFFA01CF
:10257000EE0FFF1FE40FF51FE85AFD4F1182108286
:102580001282F3CF0F931F93CF93DF938C01FC0143
:102590008481958101968170992795838483C0E019
:1025A000D5E580911301C81730F0DF91CF911F91CD
:1025B0000F910C94B40F20919F01422F4C0F55277F
:1025C000551FCA019A01220F331F280F391F285A9D
:1025D0003D4F8C2F8695F80144815581840F952FAE
:1025E000911D817040915602609155028D9F802D02
:1025F00011240E94400FCF5FD4CF0F931F93CF932E
:10260000DF93EC0110E000E09091130190171106A8
:1026100009F06CF40E94B40F8C8190E001968170F7
:1026200099278C83DF91CF911F910F91089520916D
:102630009F01A801420F511D9A01220F331F240F41
:10264000351F285A3D4F4C816091550280915402AC
:1026500096959017110651F04CF0442349F04091A3
:1026600056020E94400F0F5F1F4FCECF4423B9F395
:1026700040E0F7CF8091AA0108951092AA01089531
:1026800025E0E3E5F2E0DC0101900D922A95E1F707
:102690002091A8013091A9014091AA01FC01258354
:1026A000368347830895E8EAF1E0118282818460ED
:1026B00082830895E3E5F2E080818E7F80830E942B
:1026C0005313E8EAF1E08281816082832FEF80E793
:1026D00092E0215080409040E1F700C000000C944F
:1026E000B40FE3E5F2E080818E7F808360817181A9
:1026F000828193810E94610F0E945313E8EAF1E006
:102700008281816082832FEF80E792E021508040B8
:102710009040E1F700C000000C94B40F60915302A8
:10272000669570E04BE050E086E191E00E94143243
:10273000892B19F481E08093A9010E9412259093BE
:10274000A2018093A1018091AA0184608093AA01D3
:1027500008959091530290FF3AC0917081112DC05D
:102760009260909353028091AA0181608093AA01A4
:10277000662351F06091530270915402809155028A
:10278000909156020E94610F60915302669570E02D
:102790004BE050E086E191E00E941432892BA1F0D9
:1027A0000E94531381E08093A401409156026091EE
:1027B0005502809154020C946611853210F0986491
:1027C000D0CF880F982BCDCF0E948E13EBCF0895DA
:1027D000682F90915302969581E0890F853208F019
:1027E00081E00C94A91381E00C94E813682F909178
:1027F000530296958FEF890F09F484E20C94A91384
:1028000081E00C94F61361E00C94A913E3E5F2E087
:1028100080818160808386950C940314809153029B
:1028200080FD0C9471130C94061460E00C94A913B1
:102830008091A701811138C0809138028160809316
:1028400038020E94AF23811104C00E9443240E94D9
:10285000730F0E945D0F6093530270935402809334
:102860005502909356028091AA0183608093AA0139
:102870006E7F61F40E94730F0E945D0F609353029C
:102880007093540280935502909356020E944E0F0B
:102890000E9453138091530280FF03C086950E94CB
:1028A000151481E08093A70108951F93CF93DF93C0
:1028B000EC01162F8F8180FF0CC0888180FF24C01F
:1028C00080915302816080935302888186950E9493
:1028D000A9138F8181FF06C0212F4B816A818981D5
:1028E0000E946D108F8182FF05C08E81882379F050
:1028F0000E948E138F8183FF03C081E08093A40127
:10290000DF91CF911F9108950E945A13E2CF0E9448
:102910005313F0CFEF92FF920F931F93CF93DF9358
:102920008091A901882309F468C08091A801E091F1
:102930005302E695E81BE093A301823009F064C0DE
:10294000F0E0EE54F74FE491CE2FD0E00AE010E132
:102950008091A401882389F01092A4010E9412257D
:102960009E0120953095820F931F9093A201809332
:10297000A1011092A6011092A5018091A101909150
:10298000A2010E941E258C179D07B8F180919E011F
:102990008823B1F010929E0180919C0190919D013D
:1029A0000E941E258033954758F00E94122590936F
:1029B0009D0180939C018091AA0188608093AA0167
:1029C000E090A501F090A601E091A101F091A20193
:1029D000CE0FDF1FD093A201C093A10181EA91E045
:1029E000F80109958091A5019091A601892B29F400
:1029F000EF2819F081E080939E01DF91CF911F9124
:102A00000F91FF90EF900895863049F4F0E0E15582
:102A1000F74FE491CE2FD0E00EE110E199CF89304D
:102A200051F4E695F0E0E455F74FE491CE2FD0E075
:102A300009E611E18DCF8F3051F4E695F0E0E755CE
:102A4000F74FE491CE2FD0E006EA11E181CF853136
:102A500049F4F0E0EA55F74FE491CE2FD0E00BE3D4
:102A600012E176CFC8EED3E002EC12E1883109F42E
:102A70006FCF833239F4E4EAF8E0C591D4910EE2E5
:102A800010E166CFC4EFD1E00DEF12E1843209F41A
:102A90005FCFC0EDD7E00AE31FE05ACF35B1242F56
:102AA0002095232335B1432B3FB7F894680F791F46
:102AB0008617970711F43FBF0895FC015191CF018C
:102AC000E8E045B9000000C057FF25B9550F0000E8
:102AD00000C000C000C025B900C0EA9591F7E8CF5A
:102AE00024B1242B24B99B01220F331F620F731FC3
:102AF0000E944E1587EC90E00197F1F700C00000AE
:102B0000089540E10C9470150F931F93CF93DF93BA
:102B1000C62FD42F022FFC0182818823C9F0609335
:102B2000AD010E9412259093AC018093AB0180E22D
:102B30008C0F883008F050C0C77081E001C0880F4A
:102B4000CA95EAF7DF91CF911F910F910C94971AD4
:102B50001091AD01161335C08091AB019091AC017D
:102B60000E941E25883C910560F5C0E2CD0F1D171F
:102B7000B9F080E2810F883040F4177081E001C025
:102B8000880F1A95EAF70E949E1AC83048F481E02F
:102B90009D2F977001C0880F9A95EAF70E94971AA7
:102BA000802F0E94841AC830B8F4D77081E001C029
:102BB000880FDA95EAF7DF91CF911F910F910C946E
:102BC0009E1A80E28C0F883038F4C77081E001C013
:102BD000880FCA95EAF7EFCFDF91CF911F910F9140
:102BE00008959C01CB01203F4CE5340731F190F46E
:102BF000283DFCE53F07E9F0293D4CE5340769F144
:102C0000273D3C4579F426E241EE61EE0E948415B1
:102C100080E00895223FFCE53F07B9F090F0233FA4
:102C20003C45B9F0FC0182818823D1F01092AD01BE
:102C3000089527E245EE65EEE9CF26E241EE60EE2B
:102C4000E5CF27E245EE64EEE1CF26E241EE62EE0B
:102C5000DDCF27E245EE66EED9CF28E241E0EBCFAB
:102C600081E008958EE1489B02C08150E1F7489BC6
:102C7000FECF0895589880E28A95F1F7589A089502
:102C8000FC013BE03A95F1F720E090E080E031E094
:102C900040E14A95F1F7880F489B02C081602327E5
:102CA00042E04A95F1F7000040E14A95F1F79F5F55
:102CB0006913EECF90E19A95F1F799B132E03A9528
:102CC000F1F7000040E14A95F1F7917092272081D9
:102CD000920F90830895EF92FF920F931F93CF93DB
:102CE000DF930F92CDB7DEB719828C017C01E60E1F
:102CF000F11C0E151F0561F481E09981911180E0AE
:102D00000F90DF91CF911F910F91FF90EF90089559
:102D10000E94321668E0CE0101960E944016F8012A
:102D200081938F01E6CF9093B0018093AF016093C0
:102D3000AE01509A589A08959093B0018093AF01D4
:102D40006093AE015098589AE89AE9E6F0E08081E5
:102D50008C7F808308956150770B91E001C0990FBB
:102D60006A95EAF720E031E0911108C0222391F042
:102D7000589A80E28A95F1F758980895492F482388
:102D800039F0589A232740E24A95F1F79695ECCF0F
:102D90005898F9CF5898EDCFFF920F931F93CF9388
:102DA000DF93EC018C01060F111DC017D10731F420
:102DB000DF91CF911F910F91FF900895F9900E949C
:102DC0003A1668E08F2D0E94AB16EFCF1F920F923C
:102DD0000FB60F9211240F931F932F933F934F938E
:102DE0005F936F937F938F939F93AF93BF93EF9373
:102DF000FF93CF93DF930F92CDB7DEB719820E9476
:102E0000321667E0CE0101960E944016082F069503
:102E100006950695982F92959570202F2570920F04
:102E2000292F2370969596958770920F891344C029
:102E30008981811141C08091AE018017E8F120E1C4
:102E40002A95F1F7589A509A82E08A95F1F700C0D6
:102E5000A8E00A9FC00111240091AF011091B001B8
:102E6000080F191F5898F8016581662321F08681A3
:102E700097810E94CC160E943A16F0E1FA95F1F77C
:102E800058985098589A20E12A95F1F7D80112964F
:102E90006C911297662331F113968D919C910E944B
:102EA0006B16D801ED91FC91882311F088E001C0E8
:102EB00082E080830E9432160F90DF91CF91FF91C4
:102EC000EF91BF91AF919F918F917F916F915F91A2
:102ED0004F913F912F911F910F910F900FBE0F9027
:102EE0001F901895ED91FC91E1CF0F931F93CF9315
:102EF000DF932091AE01281719060CF471C08C01E4
:102F000093E0000F111F9A95E1F7C091AF01D091A6
:102F1000B001C00FD11FF894509A589825E02A9517
:102F2000F1F70000982F969595708570980F892F6E
:102F3000837096959695980F092B0E943A1600C0BB
:102F400067E0802F0E94AB1680E18A95F1F75098D8
:102F5000589A489B17C087E090E0489915C06D814A
:102F6000662321F18E819F810E946B1681111EC004
:102F7000509A589AE881F98182E08083789482E0BF
:102F800090E00DC000C0E5CF019771F4509A589AB7
:102F9000E881F98181E08083789481E090E0DF919D
:102FA000CF911F910F91089500C0D7CF0E94321684
:102FB00020E22A95F1F75898509A80E18A95F1F726
:102FC0006A81662321F08B819C810E94CC160E942D
:102FD0003A16E881F9811082789490E080E0DFCFA2
:102FE00084E090E0DCCF9093B6018093B501089522
:102FF000E091B501F091B601309721F00190F08198
:10300000E02D099480E00895E091B501F091B601BA
:10301000309721F00280F381E02D09940895E0912A
:10302000B501F091B601309739F022E0DC012C9324
:103030000480F581E02D099408952091B301309129
:10304000B4012817390771F09093B4018093B3014C
:10305000E091B501F091B601309721F00680F7813B
:10306000E02D099408952091B1013091B201281703
:10307000390771F09093B2018093B101E091B501ED
:10308000F091B601309721F00084F185E02D09948C
:10309000089585B7806885BF85B7806885BF089526
:1030A00008950C94501808950C9453180E944918D0
:1030B0000E941E0E0C9451180E9409250E94AD0C0E
:1030C0000E9490250E94C2290E9418140C94541842
:1030D000BF92CF92DF92EF92FF920F931F93CF9305
:1030E000DF93CDB7DEB72A970FB6F894DEBF0FBED9
:1030F000CDBF0E94910D0E94020E882309F471C079
:1031000088EBC82E81E0D82E10E000E0B02E802F92
:103110000E94A60CE82EF601F1906F01F81609F452
:103120005AC08091380281FD0E94AC0C90E080E092
:10313000FE242F2D30E0482FB901082E02C07595CE
:1031400067950A94E2F760FF41C08E83BF8281E0F9
:1031500090E06C0102C0CC0CDD1C4A95E2F72E2DEC
:1031600030E02C213D21232B09F480E088870E9448
:1031700012258160782F9A8789874E815F816885C3
:103180008A850E941219F801E854FE4F80818C252F
:1031900080830E941E270E94F8179091B70189171B
:1031A00089F10E94F8178093B7012A960FB6F89418
:1031B000DEBF0FBECDBFDF91CF911F910F91FF906A
:1031C000EF90DF90CF90BF900C94DD070196863092
:1031D000910509F0B0CF0F5F1F4F0A30110509F0BC
:1031E00095CF8FEF89838A831B820E94122581608D
:1031F000782F9D838C8349815A816B818D810E94B8
:103200001219C7CF2A960FB6F894DEBF0FBECDBFF6
:10321000DF91CF911F910F91FF90EF90DF90CF90B2
:10322000BF900895CF93DF93CDB7DEB72B970FB63E
:10323000F894DEBF0FBECDBF4F83588769877A876A
:103240008B871E821D8285E0FE013796DE01119676
:1032500001900D928A95E1F749815A816B817C81B9
:103260008D819E812B960FB6F894DEBF0FBECDBF29
:10327000DF91CF910C94F41FFC01808191810C941B
:10328000AD22CF93C82F882309F4E6C08238C1F459
:103290000E94F81781FDE0C089E30E94DB220E94B2
:1032A0004C232FEF81EE94E0215080409040E1F7D5
:1032B00000C0000089E30E94E222CF910C944C23CD
:1032C0008338A1F40E94F81780FDC6C083E50E94F0
:1032D000DB220E944C232FEF81EE94E021508040AE
:1032E0009040E1F700C0000083E5E5CF8438A1F409
:1032F0000E94F81782FDB0C087E40E94DB220E9482
:103300004C232FEF81EE94E0215080409040E1F774
:1033100000C0000087E4CFCF8CEF8C0F813A48F4D7
:103320008C2F0E943929811197C08C2F0E94DB229B
:10333000C4CF80E28C0F883048F4C77081E001C0B0
:10334000880FCA95EAF70E940323B7CF8BE58C0F4D
:10335000833068F481E890E0C53A31F083E890E08A
:10336000C63A11F482E890E0CF910C941D1888E5DC
:103370008C0F873108F068C082EE90E0C83A09F4FB
:1033800060C089EE90E0C93A09F45BC08AEE90E033
:10339000CA3A09F456C085EB90E0CB3A09F451C023
:1033A00086EB90E0CC3A09F44CC083EB90E0CB3B49
:1033B00009F447C084EB90E0CC3B09F442C087EBB2
:1033C00090E0CD3AF1F18CEC90E0C03BD1F18DEC86
:1033D00090E0CE3AB1F183E891E0CF3A91F18AE8FA
:1033E00091E0C13B71F182E991E0C23B51F184E986
:1033F00091E0C33B31F181E292E0C43B11F183E201
:1034000092E0C53BF1F084E292E0C63BD1F085E268
:1034100092E0C73BB1F086E292E0C83B91F087E2D0
:1034200092E0C93B71F08FE690E0CD3B51F080E730
:1034300090E0CE3B31F090E080E0CA3B11F48AE2AC
:1034400092E0CF910C943318C03F30F08C2F0E9443
:103450002C26CF910C941327CF910895882309F43B
:1034600052C0823871F40E94F81781FF4CC089E382
:103470000E94DB220E944C2389E30E94E2220C94EA
:103480004C23833859F40E94F81780FF3CC083E531
:103490000E94DB220E944C2383E5EFCF843859F44D
:1034A0000E94F81782FF2FC087E40E94DB220E944F
:1034B0004C2387E4E2CF9CEF980F913AF0F290E230
:1034C000980F983050F4877091E001C0990F8A9559
:1034D000EAF7892F0E940923D2CF9BE5980F9330FA
:1034E00020F490E080E00C941D1898E5980F973137
:1034F00020F490E080E00C943318803F20F00E948C
:1035000094260C9413270895CF93C82F0E94411935
:10351000C93349F42FEF87EE93E02150804090406B
:10352000E1F700C000008C2FCF910C942E1A882355
:1035300021F00E9403230C944C230895882321F04A
:103540000E9409230C944C230895BF92CF92DF92DE
:10355000EF92FF920F931F93CF93DF936C01D62FBF
:10356000C72FFC01058102950F70128111110E9475
:1035700020230E94F922E82E882371F01123B1F054
:1035800080E28D0F883090F082E00E9497230E94A5
:10359000F92291E0E82EE926BC2EB2949FE0B922F0
:1035A000EB2DF0E0E358FD4C0C94F431E12CF4CF1A
:1035B0000C2F0F70C07F11F00295007F1123A9F02E
:1035C000002359F080E28D0F883010F0D11109C02E
:1035D000802F0E9403230E944C238D2F0E944119AB
:1035E00014C0802F0E941323F6CF8D2F0E942E1A15
:1035F000002359F080E28D0F883010F0D1112CC0DB
:10360000802F0E9409230E944C232B2D2850330B1E
:103610002430310520F40E94F8170E94DD07EE20C7
:1036200009F4F8C10E94F52280FDF4C1F60112826E
:103630000E94EF220E947821C6010E94141D0E9460
:10364000EF22DF91CF911F910F91FF90EF90DF90CC
:10365000CF90BF900C949921802F0E941923D3CF33
:10366000FC2FFF70FF2EC07FC03219F0F29480EF64
:10367000F822DD2369F0D13049F1112391F10023C3
:1036800051F1F601858180FFA8CF8F70858323C01B
:10369000112381F0011106C00E9433238F290E945B
:1036A000971AB3CF0130C1F70E9433238F290E94AC
:1036B0003923ABCF011106C00E9442238F2D0E94F7
:1036C0009E1AA3CF013009F4A0CFF6CF112329F021
:1036D000063008F09ACF8F2DE2CF053008F095CF55
:1036E000EDCF002359F3D93349F4FFEF27EE33E050
:1036F000F15020403040E1F700C000008D2F0E94C3
:103700002E1A83CF8C2F86958695837069F0813031
:1037100009F07BCF8D2F9C2F9370111102C090E088
:1037200080E00E94331871CF8D2F9C2F9370111160
:1037300002C090E080E00E941D1867CF112309F1BC
:10374000D53F99F0D63FB9F0D43F49F480917C023F
:1037500090917D02816090937D0280937C028D2FF9
:103760000E942C260E94132750CF80917C029091BA
:103770007D028260F0CF80917C0290917D02846016
:10378000EACFD53F89F0D63FA9F0D43F49F48091E4
:103790007C0290917D028E7F90937D0280937C02CB
:1037A0008D2F0E949426DECF80917C0290917D0225
:1037B0008D7FF2CF80917C0290917D028B7FECCF48
:1037C0008C2F837009F041C011111FCF4D2F4295EE
:1037D00046954770440F440F0D2F0F7010E030E0F6
:1037E00020E0042E04C0000F111F221F331F0A9473
:1037F000D2F760E070E0CB01D4FF0FC06FE070E063
:1038000080E090E004C0660F771F881F991F4A95DB
:10381000D2F76095709580959095C695C695C370C2
:10382000602B712B822B932BC23049F058F4C1309E
:1038300019F00E942A21E9CE0E941821E6CE0E94AA
:103840003C21E3CE0E941621E0CE8695112311F093
:103850008C2F8170882309F4D8CE4D2F4295469540
:103860004770440F440F0D2F0F7010E030E020E040
:10387000042E04C0000F111F221F331F0A94D2F719
:1038800060E070E0CB01D4FF0FC06FE070E080E03B
:1038900090E004C0660F771F881F991F4A95D2F7E2
:1038A0006095709580959095C695C695C370602B70
:1038B000712B822B932BC23049F058F4C13019F090
:1038C0000E94EF21A2CE0E94DD219FCE0E94012204
:1038D0009CCE0E94522199CECF70112329F08C2FBB
:1038E0000E9478218D2FDBCE8D2F0E949E1A8C2F67
:1038F0000E9499218ACED23F89F160F4D03FC9F06D
:10390000D13F29F1112309F442C0011166CE8C2F59
:103910008F7121C0D33F39F1D43FA1F7112369F151
:10392000CF718C2F0E94782163E08C2F0E9482231C
:103930006CCE112341F0053008F067CE8C2F8F71CB
:103940000E94BC2162CE063008F05FCEF7CF8C2FEC
:103950008F71112369F20E94782157CE8C2F8F71BD
:103960001123C9F3C5CF112329F08C2F8F710E9429
:1039700063214BCE0E945E2148CE81E00E949723B6
:10398000023008F442CE82E00E9497233ECE00230C
:1039900059F0D93309F0B2CE8FEF97EEE3E08150C2
:1039A0009040E040E1F7A8CE8C2F8F71A1CF4C2F33
:1039B0004F706D2FC6010E94FD090E948E2025CEFA
:1039C000111123CECF70C230B1F040F4CC2381F07E
:1039D000C13009F01ACE0E94FC2917CEC43089F0FC
:1039E00068F080E0C53009F010CE0E94702A0DCE3C
:1039F0000E94DE290ACE0E943C2A07CE0E94472A56
:103A000004CE87E0F2CF4C2F4F706D2FC6010E947D
:103A1000000AFBCDDF91CF911F910F91FF90EF90A6
:103A2000DF90CF90BF9008950F931F93CF93DF93B4
:103A3000EC018B819C81892B29F0888199818923D4
:103A40008F3F29F4DF91CF911F910F910895CE01FF
:103A50000E94EF078823B1F3688179818A810E94EF
:103A6000B7228C010E9413220E941521B801CE01B9
:103A7000DF91CF911F910F910C94A51A0E942023E2
:103A80000E9430230E944C230E94B5270E941327D6
:103A900090E080E00E941D1890E080E00C943318C4
:103AA0000E94E9220C943E1D0E9410230C94501D8C
:103AB000E92FE295EF70E250EE3070F4F0E0E3575A
:103AC000FD4C0C94F431803F19F020F4883E20F432
:103AD00081E00895843FE1F380E00895883EC0F3DB
:103AE000813FD1F7F5CF93FB882780F908950E9495
:103AF000AD220C94581DCF93DF9300D000D00F92CD
:103B0000CDB7DEB70F900F900F900F900F90DF9111
:103B1000CF910895CF93DF9300D000D000D0CDB7E0
:103B2000DEB726960FB6F894DEBF0FBECDBFDF918D
:103B3000CF9108951F93CF93DF93C091C30116E0F7
:103B40008091C4018C1304C0DF91CF911F9108951F
:103B5000D0E01C9FF0011D9FF00D1124EB53FE4F90
:103B60004081518162817381848195810E948A1D87
:103B70002196C770E5CF4091F5015091F601609113
:103B8000F7017091F8018091F9019091FA010C947C
:103B90008A1D1F93CF93DF938091FA01807FC1F438
:103BA0008091F7018823A1F08091C301C091C401E5
:103BB0006091F5017091F6014091F8015091F90181
:103BC000D62FD723DA01A095B09516E0C81304C00C
:103BD000DF91CF911F91089590E04115510511F0AB
:103BE000DF3F31F401968770F1CF2A0F3B1F17C0DA
:103BF000189FF001199FF00D1124EB53FE4F218106
:103C00002713F0CF20812613EDCF22812111EACF97
:103C1000238134812417350740F3241B350B283CBE
:103C2000310500F72091FA012F7020612093FA01ED
:103C300026E0289FF001299FF00D1124E653FE4F46
:103C400080818F708061808385EF91E00E94141DD8
:103C5000DF91CF911F910C949A1DBF92CF92DF926A
:103C6000EF92FF920F931F93CF93DF93CDB7DEB701
:103C700061970FB6F894DEBF0FBECDBF8C0185E013
:103C8000F801DE011D9601900D928A95E1F7D801A9
:103C90004C9111965C9111971296EC90129780912D
:103CA000F8019091F901009709F47FC12091F50185
:103CB0003091F601622F63236F3F09F476C11396AA
:103CC000CD90DC90B090F701BB2009F411C1C8166B
:103CD000D906D0F1F601E81BF90BCF01FF24F394CC
:103CE000883C910508F0F12C8091FA01982F907F83
:103CF000FF2009F4B8C091117FC0FE2C351329C0F4
:103D0000241327C0E11025C08F7080618093FA01D1
:103D10000E94BB1D85EF91E00E94141D8091FA0165
:103D2000D80115968C938F2D61960FB6F894DEBF4F
:103D30000FBECDBFDF91CF911F910F91FF90EF90FC
:103D4000DF90CF90BF900895809590958C0D9D1D2C
:103D5000C5CFCD2829F0852F84238F3F09F041C19D
:103D600080E0B82FB170DB2E80FF3CC08091C30192
:103D70002091C40136E0821315C04D875E878D8582
:103D80009E850E94AD22292F22952F702230F0F0BF
:103D9000243018F59F70F1F0F8019581907FD1F4EF
:103DA000D12C1EC090E0389FF001399FF00D1124F6
:103DB000EB53FE4F6181651306C06081641303C03D
:103DC0006281E6120FC001968770D5CF9F7011F007
:103DD000882331F3805E883018F3C8010E94141DD7
:103DE000FD2CA1CFEE2009F49ECF8091FA018160D5
:103DF0008093FA01F12C97CF351306C0241304C029
:103E0000D801EE2009F49AC04D875E878D859E8586
:103E10000E94771D882319F1EE2009F18091FA01A3
:103E2000803270F02091F5013091F60138872F83B0
:103E30001986DB86CA868C87CE0107960E94141DE0
:103E400086E0F801A5EFB1E001900D928A95E1F7C7
:103E50000E94C91D0E94BB1DFF24F39464CFC801BA
:103E60000E94141DF9CF911113C07C2DD98AC88AE4
:103E70006E2D89890E947B1D85EF91E00E94141DA3
:103E800086E0E5EFF1E0DF011D928A95E9F763C076
:103E9000351312C0241310C0E1100EC0F801858341
:103EA000C8010E94141DE5EFF1E086E0DF011D92DC
:103EB0008A95E9F7FB2C37CF4D875E878D859E85E8
:103EC0000E94771D882359F2EE2049F28091FA0171
:103ED000803208F4B5CF2091F5013091F6013A8394
:103EE00029831B82DD82CC828E83CE010196A6CFF0
:103EF000C816D90698F1F601E81BF90BCF01F12C91
:103F0000883C910508F049C0FE2CEE2009F4A7CFAB
:103F1000351332C0241330C08091FA0180FD23C0D4
:103F2000982F907F01F1D80115968C931597903FAB
:103F300039F0982F907F905F8F70892B15968C9316
:103F4000C8010E94141D86E0F801A5EFB1E00190C0
:103F50000D928A95E1F70E94BB1DE5CE8095909564
:103F60008C0D9D1DCCCF86E0F801A5EFB1E001904E
:103F70000D928A95E1F7D7CE4D875E878D859E8518
:103F80000E94771D81115CCF8091FA01816080933E
:103F9000FA01C8010E94141DC6CE7C2DD98AC88A98
:103FA0006E2D89890E947B1D6BCFEE2009F457CFBF
:103FB0004D875E878D859E850E94771DF82E88230C
:103FC00009F44DCF86E0F801A5EFB1E001900D9224
:103FD0008A95E1F785EF91E00E943C190E94C91D86
:103FE000BACF81E08E25BDCE1F93CF93DF93CDB79F
:103FF000DEB72C970FB6F894DEBF0FBECDBF4F8350
:10400000588769877A878B879C87CE0107960E949D
:104010002D1E882369F08A859B85892B39F04F8175
:104020005885842F85238F3F09F071C016E05FC04B
:1040300086E0FE013796DE01119601900D928A9579
:10404000E1F78A859B85892B89F388859F81892360
:104050008F3F61F32091C40130E0C9010196877060
:1040600099274091C3014817190671F40E94541D05
:104070001092C4011092C30186E0E5EFF1E0DF0188
:104080001D928A95E9F7D2CF96E0929FD001939F37
:10409000B00D1124AB53BE4FFE01319601900D922D
:1040A0009A95E1F78093C4010E949A1DBFCF819F2A
:1040B000C00111248B539E4F0E942D1E8823E9F0CE
:1040C000E091C3011E9FF0011124EB53FE4F40818C
:1040D000518162817381848195810E948A1D8091C2
:1040E000C30190E00196877099278093C301809166
:1040F000C3019091C4018913DACF2C960FB6F894BE
:10410000DEBF0FBECDBFDF91CF911F9108956985AE
:104110007A858B859C850E948A1D88CFEF92FF92BD
:104120000F931F93CF93DF938C01892B81F0F12C98
:10413000EE24E394E8012196F8018491843770F429
:10414000843008F05FC08130B1F08230A1F1DF919E
:10415000CF911F910F91FF90EF900895853709F44B
:104160004CC008F43DC09CE7980F903780F78F77DC
:104170000E942E1A49C00E5F1F4FFE01849190E2EB
:10418000980F983060F48770FE2D01C0FF0F8A955C
:10419000EAF78F2F0E9423230E944C2302C00E9423
:1041A00041198F2D815030F2EFE9FFE03197F1F79F
:1041B00000C00000F7CF0E5F1F4FFE01849190E218
:1041C000980F983050F48770FE2D01C0FF0F8A952C
:1041D000EAF78F2F0E942923DFCF0E942E1AE1CF0A
:1041E0000E5F1F4FFE01C491C150D8F28FE99FE0CE
:1041F0000197F1F700C00000F7CF0E5F1F4FFE01DF
:10420000F490CFCF0E9441198E01CBCF08950C942A
:1042100006210E9407216093270270932802809351
:10422000290290932A020C943E1D08950C940921B2
:104230000F931F93009127021091280220912902C9
:1042400030912A02602B712B822B932B1F910F919F
:104250000C9409210F931F930091270210912802BB
:104260002091290230912A02602371238223932313
:104270001F910F910C9409210F931F930091270216
:10428000109128022091290230912A02602771277B
:10429000822793271F910F910C9409210C940621DA
:1042A0000C944E210E9450216093230270932402AB
:1042B00080932502909326020C943E1D60E070E0EE
:1042C000CB010C9452210F931F9341E050E060E02A
:1042D00070E08A019B0104C0000F111F221F331FD1
:1042E0008A95D2F7C901B8011F910F910C94522100
:1042F0000F931F9341E050E060E070E004C0440F72
:10430000551F661F771F8A95D2F7809123029091DF
:104310002402A0912502B09126028A019B01082B5C
:10432000192B2A2B3B2BC901B8011F910F910C941B
:1043300052210F931F9341E050E060E070E004C011
:10434000440F551F661F771F8A95D2F7CB01BA011C
:1043500060957095809590950091230210912402AC
:10436000209125023091260260237123822393231A
:104370001F910F910C9452210F931F9341E050E035
:1043800060E070E004C0440F551F661F771F8A95D8
:10439000D2F78091230290912402A0912502B0913E
:1043A00026028A019B01082719272A273B27C901D2
:1043B000B8011F910F910C9452210F931F930091FC
:1043C0002302109124022091250230912602602BB5
:1043D000712B822B932B1F910F910C9452210F93D1
:1043E0001F93009123021091240220912502309105
:1043F000260260237123822393231F910F910C9433
:1044000052210F931F9300912302109124022091B7
:1044100025023091260260277127822793271F915A
:104420000F910C9452210895E92FEE0FE90FEE0F32
:104430008E0F982F977041E001C0440F9A95EAF7CC
:1044400086958695869595E0899FF0011124E55023
:10445000FE4F30E020E070E05191DF011197CB0179
:10446000022E02C0969587950A94E2F78170819595
:104470008527842385278C932F5F3F4F2530310577
:1044800059F70895E92FEE0FE90FEE0F8E0F982FD1
:10449000977086958695869525E0829FF001112478
:1044A000E550FE4F50E040E080E0219130E0092EE1
:1044B00002C0369527950A94E2F721703327042E1F
:1044C00001C0220F0A94EAF7822B4F5F5F4F4530FD
:1044D000510559F70895BF92CF92DF92EF92FF9264
:1044E0000F931F93CF93DF938C01C0902302D09042
:1044F0002402E0902502F0902602809127029091FC
:104500002802A0912902B0912A02C82AD92AEA2AAF
:10451000FB2ACFE1D0E0BC2ED701C6010C2E04C08F
:10452000B695A795979587950A94D2F780FD0EC00A
:10453000219788F7B12C8B2DDF91CF911F910F918F
:10454000FF90EF90DF90CF90BF900895B8018C2F2F
:104550000E941D0A019761F3EECFCF93DF93EC0128
:104560000E946B22BE01DF91CF910C941D0A1F9314
:10457000CF93DF93EB019091C201992331F0CB01EE
:10458000DF91CF911F910C94AD22882379F0CB015C
:104590000E946B22182F682FCE010E941422BE01A8
:1045A000812FDF91CF911F910C941D0ACB010E94A6
:1045B0004222182FF4CF682F80912101909122017F
:1045C0000C947E24682F80912101909122010C94FB
:1045D000802480912101909122010C948224809169
:1045E0002B02859585958595089580912B0287707E
:1045F000089590912B02977081E009F480E008956E
:1046000080913702089590913702892B8093370269
:1046100008958095909137029823909337020895DA
:1046200010923702089590913602892B80933602BA
:1046300008958095909136029823909336020895BC
:1046400010923602089590913502892B809335029D
:10465000089580959091350298239093350208959E
:1046600010923502089580912C02089508950C94BB
:10467000362390912C02981721F080932C020C94F1
:104680003723089580912C02882329F010922C0260
:1046900080E00C9437230895E0912101F0912201EC
:1046A000809137028083E0912101F0912201808185
:1046B00090913602892B8083E0912101F0912201B3
:1046C000808190913502892B808390912C029923CF
:1046D00081F0E0912101F09122018081892B80837A
:1046E00080912101909122010E94452481110E9414
:1046F000422380912101909122010C940418089585
:104700000C947F2398E0899F90011124622B609381
:104710002B020E94782180912B02859585958595A5
:104720000C94802310922B0280E00C9480239091B3
:104730002B028095892380932B02282F277071F4F8
:10474000282F082E000C330B9217130639F085958D
:10475000859585950E9499210C949223089590E067
:1047600080E00E942F3221E08D3E9E4F09F020E034
:10477000822F089582E090E00C94213283E090E053
:104780000C942132682F83E090E00C94353284E061
:1047900090E00C942132682F84E090E00C94353244
:1047A00086E090E00C942132682F86E090E00C9433
:1047B0003532AB01BC018FE090E00C944732AB0185
:1047C000BC0183E190E00C94473260E070E0CB01E3
:1047D0000C94DF2360E070E0CB010E94D9230C949D
:1047E000E5236DEE7EEF90E080E00E94533260E0C2
:1047F00082E090E00E94353260E083E090E00E9429
:10480000353210922702109228021092290210923B
:104810002A0260E084E090E00E94353260E085E0AA
:1048200090E00E94353260E086E090E00E943532F0
:104830006FEF87E090E00E94353240E050E0BA012F
:1048400088E090E00E94473260E08DE090E00E94B6
:10485000353240E050E0BA0188E190E00E944732F2
:1048600060E087E190E00E94353240E050E0BA011C
:104870008CE190E00E94473260E080E290E00E948C
:1048800035320C94EA230C94F1239C012E5F3F4FA8
:10489000AC01485F5F4F80E02417350709F40895A5
:1048A000F90191919F019923B9F38F5FF5CF9C0195
:1048B000FC0132969FEF80E04191461751F09F3FF7
:1048C00019F4411101C0982F8F5F8630A9F79F3FDF
:1048D00009F40895290F311D97FD3A95F901628376
:1048E0000895FC01329608962191261303C0DF013A
:1048F00011971C92E817F907B9F708950C945724FB
:104900000C947124029626E0FC0111922A95E9F795
:104910000895089508950C948A240E948B24809110
:104920008902843061F11092390288E190E020E43C
:104930000FB6F894A895809360000FBE2093600096
:1049400080E00E94670780E00E94DD070E948B24C0
:1049500083B7817F846083BF83B7816083BF78948E
:10496000889583B78E7F83BF0FB6F894A895809102
:104970006000886180936000109260000FBE08950F
:104980000895CF930E9489240E94910D0E94C02413
:10499000C0E08C2F0E94A60C811105C0CF5FCA30E9
:1049A000C1F7CF91089581E0FCCF08950C94D524F0
:1049B0000E94541D0E94C2290E94F8170E94DD0720
:1049C0000C94D6241F921FB61F9211248F939F938D
:1049D000AF93BF9380913902811113C080917E0201
:1049E00090917F02A0918002B09181024196A11D19
:1049F000B11D80937E0290937F02A0938002B093BA
:104A00008102BF91AF919F918F911F901FBE1F9008
:104A1000189582E084BD93E095BD9AEF97BD809391
:104A20006E0008952FB7F89480917E0290917F02D6
:104A3000A0918002B09181022FBF0895CF92DF92A2
:104A4000EF92FF920F931F932FB7F89440917E023D
:104A500050917F0260918002709181022FBF6A01A4
:104A60007B01EE24FF248C0130E020E0C016D1064B
:104A7000E206F30650F0481B590BCA011F910F9133
:104A8000FF90EF90DF90CF90089541505109F3CF00
:104A900078941F921FB61F9211248F939F93AF9308
:104AA000BF9380917E0290917F02A0918002B0918D
:104AB00081020196A11DB11D80937E0290937F0219
:104AC000A0938002B0938102BF91AF919F918F918B
:104AD0001F901FBE1F90189581E08093E00080E238
:104AE0008093D8001092C9008FE19EE40197F1F7FE
:104AF00000C0000087E090EBDC018093920290936D
:104B00009302A0939402B093950288E19CE00FB6C3
:104B1000F894A895809360000FBE90936000FFCF3B
:104B20000E94AF23811102C00E9443240E94BA2335
:104B3000809338020E94C72390E090938302809371
:104B400082020E94BE23682F70E090E080E00C9407
:104B5000162180913D0280FF12C06091260185E000
:104B6000689FB001112475956795759567956038B4
:104B70007105A8F561157105A1F1862F089581FFD2
:104B800009C06091260185E0689FB00111247595E8
:104B90006795EDCF6091260182FD0AC080913C02AD
:104BA0008823D1F09091250160912601891728F082
:104BB00085E0689FB0011124DACF869FB0011124EF
:104BC00085E0869F9001879F300D1124692F70E04A
:104BD000C9010E94BE31CBCF65E070E0CECF8FE738
:104BE000089581E0089580913D0280FF0CC060919E
:104BF000240170E075956795759567956115710548
:104C000049F1862F089581FF06C06091240170E06C
:104C100075956795F3CF6091240182FD0BC090914B
:104C20003C029923A1F06091230180912401961701
:104C300038F0682F70E06038710500F38FE7089551
:104C4000899FC001112470E00E94BE31F4CF61E061
:104C500070E0D7CF81E00895803F31F40E94A9250C
:104C60008195809341020895813F19F40E94A925FE
:104C7000F8CF823F31F40E94A925819580934002AC
:104C80000895833F19F40E94A925F8CF893F29F49C
:104C90000E94F3258093420208958A3F21F40E94E6
:104CA000F3258195F7CF8B3F31F40E94F325819551
:104CB0008093430208958C3F19F40E94F325F8CFA6
:104CC000843F31F480913F02816080933F020895D8
:104CD000853F21F480913F028260F7CF863F21F427
:104CE00080913F028460F1CF873F21F480913F02A1
:104CF0008860EBCF883F21F480913F028061E5CF4F
:104D00008D3F31F480913D02816080933D02089592
:104D10008E3F21F480913D028260F7CF8F3FB9F73B
:104D200080913D028460F1CF90914002803F41F438
:104D30008091410287FD10924102992371F00895FC
:104D4000813F29F4809141021816ACF3F6CF823FDF
:104D500081F497FFF2CF109240028091410290912E
:104D60004202892B90914302892B49F710923C0211
:104D70000895833F19F4191674F3DFCF893F39F48E
:104D8000809142021816CCF610924202D6CF8A3F8A
:104D900029F48091420287FFD0CFF6CF8B3F39F4C0
:104DA0008091430287FFC9CF10924302C6CF8C3F48
:104DB00029F4809143021816BCF3BFCF843F31F42D
:104DC00080913F028E7F80933F02B7CF853F21F4D1
:104DD00080913F028D7FF7CF863F21F480913F0283
:104DE0008B7FF1CF873F21F480913F02877FEBCF0C
:104DF000883F21F480913F028F7EE5CF8D3F31F4D3
:104E000080913D028E7F80933D0297CF8E3F21F4AB
:104E100080913D028D7FF7CF8F3F09F08ECF80913B
:104E20003D028B7FF0CF8EE392E00E940F180E942C
:104E3000122590933B0280933A0208951F93CF93DB
:104E4000DF9380913A0290913B020E941E25AC01B3
:104E500090913C022091270130E0911106C02091F1
:104E600028018AE0289F900111244217530778F007
:104E700020914002C0914102D09142021091430220
:104E8000211109C08C2F8D2B812B09F06AC0DF9175
:104E9000CF911F9108959F3F19F09F5F90933C021F
:104EA000121624F40E94A9258093400280914002AA
:104EB00087FF05C00E94A9258195809340021C169A
:104EC00024F40E94A925809341028091410287FF2A
:104ED00005C00E94A925819580934102309140022E
:104EE0003323A1F020914102222381F045EB3403CA
:104EF000C0011124992369F19093400245EB2403EA
:104F000090011124332349F1309341021D1624F4FA
:104F10000E94F325809342028091420287FF05C0E0
:104F20000E94F325819580934202111624F40E9479
:104F3000F325809343028091430287FF05C00E94BE
:104F4000F325819580934302DF91CF911F910C94BB
:104F5000132781E080934002D1CF81E0809341020A
:104F6000D5CF9F3F09F099CFAACF86E0EEE3F2E0DC
:104F7000DF011D928A95E9F710923C0210923D02E2
:104F80000895833081F128F4813059F08230D1F0D6
:104F90000895853009F449C0B8F1863009F456C047
:104FA000089580912801482F460F5527551F4F3FE0
:104FB000510524F4680F6093280108958FEF8093C2
:104FC0002801089580912701482F460F5527551F26
:104FD0004F3F510524F4680F6093270108958FEF28
:104FE00080932701089580912601482F460F552769
:104FF000551F4F3F510524F4680F60932601089513
:105000008FEF80932601089580912501482F460F48
:105010005527551F4F3F510524F4680F6093250114
:1050200008958FEF80932501089580912401482FE2
:10503000460F5527551F4F3F510524F4680F6093C5
:10504000240108958FEF8093240108958091230116
:10505000482F460F5527551F4F3F510524F4680F21
:105060006093230108958FEF809323010895833087
:1050700011F128F4813049F0823091F008958530A3
:1050800081F120F18630C1F10895809128016817DF
:1050900020F4861B8093280108951092280108951A
:1050A00080912701681720F4861B809327010895BB
:1050B00010922701089580912601681720F4861B1D
:1050C000809326010895109226010895809125016C
:1050D000681720F4861B80932501089510922501FE
:1050E000089580912401681720F4861B8093240181
:1050F000089510922401089580912301681720F4E7
:10510000861B8093230108951092230108950F9325
:105110001F9341E050E060E070E08A019B0104C011
:10512000000F111F221F331F8A95D2F7C901B80142
:105130000E9416211F910F910C94541D8B3109F47C
:105140006EC040F58B3071F078F4863009F450C0B1
:1051500020F4853059F180E00895873009F451C07A
:105160008830C9F781E00895803109F466C068F499
:105170008E3089F790913802892F8B7F92FF84605F
:105180008093380282FD55C0EDCF863159F38931C5
:1051900049F3E1CF8A3249F1B8F4873211F120F4B2
:1051A0008E31C8F28D511EC08932A9F60E94541D5D
:1051B0002FEF83ED90E3215080409040E1F700C055
:1051C00000000E946C25CECF833440F48A3308F06F
:1051D0003FC0853331F0883329F2BDCF833409F0E5
:1051E000BACF80E00E948728BDCF0E944324BACF67
:1051F00080913802807F8093380281E0809345025D
:10520000089590913802892F8E7F90FF816080935E
:10521000380280FDA7CF817F80933802A3CF909181
:105220003802892F8D7F91FF82608093380281FF41
:1052300099CF809138028160EFCF90913802892F09
:10524000877F93FF88608093380283FDF2CF8ACFF7
:105250008953C8CF80E008950C942A298E518A3052
:1052600030F4E82FF0E0E759FE4F8081089580E0A8
:105270000895CF93C82F809145028130B9F08823DB
:1052800031F08230A1F11092450280E00DC00E9401
:1052900000238232D1F78C2F0E942A2981111BC052
:1052A0008C2F0E949E288170CF9108950E94002328
:1052B000823289F38C2F0E942C2981110AC0C431BB
:1052C00099F060F4CB3029F0C03169F782E0809327
:1052D000450281E0E8CF81E090E0E5CFC93221F0DE
:1052E000C833B9F380E0DFCF10924502FBCFC9325B
:1052F00019F188F4C43101F120F4C73081F181E063
:10530000D3CF82EE8C0F8630D0F78C2F0E942E29BF
:1053100080934402F4CFCE3401F140F46AE0CB3400
:1053200071F7809144020E94C127E9CFC13579F01D
:1053300061E0C235B1F3E3CF80914402882319F0D4
:1053400010924402DCCF81E080934502ADCF61E052
:10535000809144020E943728D2CF6AE0F9CF8EE1D3
:105360008093280182E3809327018AE080932601BD
:1053700084E18093250188E08093240188E2809372
:105380002301BDCF0E94AF23811102C00E9443249C
:105390000E94D02380938402803420F08770886339
:1053A0008093840290918402892F817090FF04C0C1
:1053B000892F8695869586950C946707809184023F
:1053C000982F969596959695973040F49F5F990FF4
:1053D000990F990F8770892B8093840280918402A2
:1053E0008160809384020E94D423809184028695F8
:1053F000869586950C94670780918402982F987FF4
:1054000079F0885080938402887F91E009F490E0DD
:105410008091840290FB80F9809384020E94D423BF
:10542000809184028695869586950C946707809175
:10543000840280FD13C0816080938402813019F45E
:1054400089E080938402809184020E94D423809119
:1054500084028695869586950C94670708958091B9
:10546000840280FF08C08E7F809384020E94D42330
:1054700080E00C94670708958091840280FD0C946D
:105480002F2A0C94172A809184028170089590919C
:105490008402892F8695869586958F5F8F71977088
:1054A0008830D8F4880F880F880F892B8093840266
:1054B00080918402887F91E009F490E080918402D9
:1054C00090FB80F9809384020E94D423809184020F
:1054D0008695869586950C94670790938402E8CF0D
:1054E000883008F087E0982F990F990F990F8091D5
:1054F00084028770892B80938402887F91E009F46D
:1055000090E08091840290FB80F9809384020E9455
:10551000D423809184028695869586950C9467079E
:1055200080918402869586958695089580914E0295
:1055300008950F931F93CF93DF9300D00F92CDB7B1
:10554000DEB78C010E94EC2C823011F0843021F502
:1055500084E089831B830A8382E08093E9008FEFD4
:105560009091E800815095FD06C095ED9A95F1F770
:1055700000008111F5CF8091E80085FF0DC050E05B
:1055800040E063E070E0CE0101960E94092D809119
:10559000E8008E778093E8000F900F900F90DF91D6
:1055A000CF911F910F910895CF93DF9300D00F9269
:1055B000CDB7DEB720918902243031F523E029836D
:1055C000805891099B838A8382E08093E9008FEF62
:1055D0009091E800815095FD06C095ED9A95F1F700
:1055E00000008111F5CF8091E80085FF0DC050E0EB
:1055F00040E063E070E0CE0101960E94092D8091A9
:10560000E8008E778093E8000F900F900F90DF9165
:10561000CF910895CF93DF93EC010E94EC2C823060
:1056200011F08430F9F482E08093E9008FEF9091DB
:10563000E800815095FD06C095ED9A95F1F70000C0
:105640008111F5CF8091E80085FF0CC050E040E06B
:1056500066E070E0CE010E94092D8091E8008E770F
:105660008093E800DF91CF910895CF93DF93EC0111
:105670000E94EC2C823011F0843039F581E0809367
:10568000E9008FEF9091E800815095FD06C095EDFF
:105690009A95F1F700008111F5CF8091E80085FF20
:1056A00014C050E040E068E070E0CE010E94092D97
:1056B0008091E8008E778093E80088E0FE01A6E400
:1056C000B2E001900D928A95E1F7DF91CF910895B4
:1056D00080918802811109C00E94992E0E94F62EA5
:1056E0008091E20084608093E20008951092880225
:1056F0000895089508950C94D82442E061EC81E067
:105700000E94152E42E261EC82E00C94152E8091ED
:105710008B02833009F45FC030F48130C1F18230F4
:1057200009F49BC008958A3009F487C08B3009F4CE
:105730006DC0893009F04EC080918A02813209F033
:1057400049C080918E0290918F02029708F042C06A
:105750008091E800877F8093E8008091E80082FFD5
:1057600035C09091F3008091F200029729F4809166
:10577000F1008B7F813021F48091F10080934E0203
:105780008091E8008B778093E8000C94492E8091FB
:105790008A02813AF9F48091E800877F8093E800DB
:1057A00080918E0290918F02892B61F468E086E4EB
:1057B00092E070E00E94582D8091E8008B778093F2
:1057C000E800089560E090E080E0F3CF80918902E6
:1057D0008111C3CF089580918A02813AD9F78091CF
:1057E0008E0290918F02892BA9F78091E800877F24
:1057F0008093E8008091E80080FFFCCF8091330126
:105800008093F1008091E8008E77BDCF80918A026D
:10581000813201F780918E0290918F02892BD1F60F
:105820008091E800877F8093E8000E94492E809154
:105830008C02809333010C94541D80918A02813232
:1058400049F68091E800877F8093E8000E94492E06
:1058500080918D0280934F02089580918A02813A4F
:1058600009F0B8CF8091E800877F8093E8008091AD
:10587000E80080FFFCCF80914F02C2CF84B7877FC2
:1058800084BF0FB6F894A8958091600088618093DA
:105890006000109260000FBE80E88093610010925B
:1058A00061000E9456180E94992E0E94F62E809147
:1058B000E20084608093E20078940E947F310E942D
:1058C0005C1889E291E00E94F3178091890285308B
:1058D00029F00E9468180E948A14F7CF0E948D2434
:1058E00080918702882389F30E94C124882369F369
:1058F0000E94F32CEACF0C947D2C292F33272330E0
:10590000310519F168F42130310509F44AC022301B
:10591000310509F44BC090E080E030E020E028C081
:105920002132310579F122323105A9F780E490E086
:1059300023ED3BE061157105D9F085E890E02EE498
:105940003BE061307105A1F0E6CF992781309105E8
:1059500099F0009741F08230910589F00397D9F6CC
:10596000EBEBFAE002C0EDEFFAE0849190E09F01EA
:10597000FA01318320830895EDEEFAE0F6CFE1ECF1
:10598000FAE0F3CF89E090E023E13BE06115710597
:1059900079F389E090E02CE23BE06130710541F35E
:1059A000BACF82E190E02CE33BE0E2CF8BE390E0E2
:1059B00021E03BE0DDCF0895CF93C82F0E94DB2C80
:1059C000C0935002CF91089580918902843011F4E0
:1059D00082E0089581E0089580915002811102C013
:1059E0000C94E42C089580E189BD82E189BD09B45D
:1059F00000FEFDCF8091D8008F7D8093D8008091EC
:105A0000E00082608093E0008091E00081FDFCCFA7
:105A10000895AF92BF92CF92DF92FF920F931F93A0
:105A2000CF93DF936C01EB018A010E94682EF82E60
:105A3000811123C00115110539F0F8018081918190
:105A4000C81BD90BC80ED91EB12CA12C2097A9F0C8
:105A50008091E80085FD22C08091E8008E778093D8
:105A6000E80001151105A1F0F80180819181A80ECF
:105A7000B91EB182A08285E0F82E8F2DDF91CF91E3
:105A80001F910F91FF90DF90CF90BF90AF9008953E
:105A90000E94682E8823D1F2F82EEFCFF601819173
:105AA0006F018093F1002197FFEFAF1ABF0ACECFAD
:105AB000FC01809190029091910286179707A0F0C7
:105AC0006115710529F49091E8009E779093E800A4
:105AD00090E06115710551F4911108C08091E800C2
:105AE00082FF34C080E00895BC01F2CF809189022A
:105AF0008823C1F18530C1F18091E80083FD30C079
:105B00008091E80082FDEACF8091E80080FFE1CF3C
:105B10008091F3002091F200382F6115710519F082
:105B20002830310558F091E02830310509F090E037
:105B30002091E8002E772093E800CBCF81918093CD
:105B4000F100615071092F5F3F4FE7CF80918902CB
:105B5000882341F0853041F08091E80083FFBECF7B
:105B600081E0089582E0089583E00895FC0180912A
:105B700090029091910286179707A0F06115710528
:105B800029F48091E8008E778093E80090E0611519
:105B9000710551F4911108C08091E80082FF35C071
:105BA00080E00895BC01F2CF809189028823C9F179
:105BB0008530C9F18091E80083FD31C08091E80013
:105BC00082FDEACF8091E80080FFE1CF8091F30071
:105BD0002091F200382F6115710519F02830310538
:105BE00058F091E02830310509F090E08091E8000C
:105BF0008E778093E800CBCF84918093F10031962B
:105C0000615071092F5F3F4FE6CF80918902882351
:105C100041F0853041F08091E80083FFBDCF81E005
:105C2000089582E0089583E00895982F973028F032
:105C30008F708093E90081E008959093E900242F0C
:105C4000762F50E0981731F07091EC002091ED0024
:105C50005091F00021FD02C09F5FE8CF3091EB0032
:105C60003E7F3093EB003091ED003D7F3093ED00AF
:105C70003091EB0031603093EB007093EC00209397
:105C8000ED005093F0002091EE0027FDE5CF80E07D
:105C9000089580918A0287FF13C08091E80082FFF7
:105CA00006C08091E8008B778093E80004C0809163
:105CB00089028111F2CF0895809189028823D9F356
:105CC0008091E80080FFF8CF8091E8008E77ECCFDC
:105CD0002091E4003091E50095E6A9012091EC00C7
:105CE000822F817020FF06C08091E80080FF06C0EF
:105CF00080E008952091E80022FD1AC08091890279
:105D0000882389F0853089F08091EB0085FD0FC0F4
:105D10002091E4003091E50042175307F9F29150C9
:105D2000E1F684E0089582E0089583E0089581E03B
:105D300008950E94072F0E940F2FE0EEF0E080816F
:105D400081608083E8EDF0E080818F77808319BCEB
:105D5000A7EDB0E08C918E7F8C9380818F7E8083C5
:105D60001092880208950F931F93CF93DF930E94A0
:105D7000072F0E940F2FC8EDD0E088818F7788838E
:105D800088818068888388818F7D888319BC109280
:105D9000890210928502109287021092860200EE0C
:105DA00010E0F80180818B7F808388818160888307
:105DB00042E060E080E00E94152EE1EEF0E080819C
:105DC0008E7F8083E2EEF0E080818160808380813D
:105DD00088608083F80180818E7F808388818061E4
:105DE0008883DF91CF911F910F910895E8EDF0E046
:105DF00080818F7E8083E7EDF0E080818160808309
:105E000084E082BF81E0809388020C94B32EE8ED99
:105E1000F0E080818E7F80831092E20008951092DE
:105E2000DA001092E10008951F920F920FB60F92C0
:105E300011242F933F934F935F936F937F938F938F
:105E40009F93AF93BF93EF93FF938091E10082FF05
:105E50000BC08091E20082FF07C08091E1008B7F40
:105E60008093E1000E947E318091DA0080FF19C0AA
:105E70008091D80080FF15C08091DA008E7F8093DA
:105E8000DA008091D90080FF96C080E189BD82E16F
:105E900089BD09B400FEFDCF81E0809389020E9494
:105EA000682B8091E10080FF19C08091E20080FFA3
:105EB00015C08091E2008E7F8093E2008091E20025
:105EC00080618093E2008091D80080628093D80046
:105ED00019BC85E0809389020E947A2B8091E100B1
:105EE00084FF2BC08091E20084FF27C080E189BD40
:105EF00082E189BD89B5982F917080FFFBCF809199
:105F0000D8008F7D8093D8008091E1008F7E8093B0
:105F1000E1008091E2008F7E8093E2008091E200B8
:105F200081608093E20080918502882309F449C052
:105F300084E0809389020E947B2B8091E10083FFA3
:105F400029C08091E20083FF25C08091E100877F16
:105F50008093E10082E08093890210928502809113
:105F6000E1008E7F8093E1008091E2008E7F80933C
:105F7000E2008091E20080618093E20042E060E014
:105F800080E00E94152E8091F00088608093F000E0
:105F90000E94792BFF91EF91BF91AF919F918F91CB
:105FA0007F916F915F914F913F912F910F900FBE15
