:100000000C946A060C94F5320C94A2060C94A20689
:100010000C94A2060C94A2060C94A2060C94A206C0
:100020000C94A2060C94A2060C94FC290C94B829FA
:100030000C944F2B0C94A2060C94A2060C94A206CE
:100040000C94A2060C94A2060C94A2060C94A20690
:100050000C94A2060C942B2B0C94A2060C94A206D2
:100060000C94A2060C94A2060C94A2060C94A20670
:100070000C94A2060C94A2060C94A2060C94A20660
:100080000C94A2060C94A2060C94A2060C94A20650
:100090000C94A2060C94A2060C94A2060C94A20640
:1000A0000C94A2060C94A2060C94A2060631FF0939
:1000B00074A1010975150026FF00952075088102BD
:1000C0000976150026FF00952075089102C00501EC
:1000D0000980A101850319012AB700150126B7007F
:1000E000950175108100C0050C0901A10185041955
:1000F000012AA002150126A002950175108100C0F9
:100100000660FF0961A1010962150026FF00952024
:10011000750881020963150026FF00952075089176
:1001200002C005010906A101050719E029E715002C
:100130002501950875018102950175088101050762
:10014000190029FF150026FF009506750881000596
:10015000081901290595057501910295017503910D
:1001600001C00000000000000000000000000000CE
:10017000000000000000000000000000000000007F
:100180000000000000007E0F00D4FFFFFFC700004A
:10019000007800000000000000002A2B280000006A
:1001A0000000000000000000000000000029000026
:1001B00000002C1E3420212224342627252E362D03
:1001C0003738271E1F202122232425263333362E9D
:1001D00037381F0405060708090A0B0C0D0E0F100F
:1001E0001112131415161718191A1B1C1D2F313054
:1001F000232D350405060708090A0B0C0D0E0F10F8
:100200001112131415161718191A1B1C1D2F313033
:10021000354C6261636B6C696768742064656372F6
:10022000656173653A2025750A006261636B6C69CC
:1002300067687420696E6372656173653A2025751D
:100240000A006261636B6C6967687420737465701F
:100250003A2025750A007267626C696768742064C9
:10026000697361626C65205B454550524F4D5D3A44
:10027000207267626C696768745F636F6E66696736
:100280002E656E61626C65203D2025750A007267DF
:10029000626C6967687420656E61626C65205B459D
:1002A0004550524F4D5D3A207267626C69676874C1
:1002B0005F636F6E6669672E656E61626C65203D77
:1002C0002025750A007267626C6967687420746F14
:1002D00067676C65205B454550524F4D5D3A207213
:1002E00067626C696768745F636F6E6669672E65C5
:1002F0006E61626C65203D2025750A0044454255BB
:10030000473A2064697361626C65642E0A00444553
:100310004255473A20656E61626C65642E0A000A98
:10032000002530325820006B6579626F6172645F1E
:100330007265706F72743A20005461726765742040
:10034000636F6E6E65637465640D0A005461726755
:10035000657420646973636F6E6E65637465642C85
:10036000207468726F74746C696E6720636F6E6E50
:10037000656374696F6E20617474656D7074730D5C
:100380000A004661696C656420746F206578656356
:100390007574652025730A007267626C69676874FA
:1003A0005F636F6E6669672E7370656564203D20BC
:1003B00025640A007267626C696768745F636F6EB8
:1003C0006669672E76616C203D2025640A0072679D
:1003D000626C696768745F636F6E6669672E7361CC
:1003E00074203D2025640A007267626C6967687436
:1003F0005F636F6E6669672E687565203D202564B2
:100400000A007267686C696768745F636F6E66691B
:10041000672E6D6F6465203D2025640A0072676257
:100420006C696768745F636F6E6669672E656E617D
:10043000626C65203D2025640A007267626C696702
:1004400068745F636F6E66696720454550524F4D13
:100450003A0A007267626C696768745F696E6974F2
:10046000207267626C696768745F636F6E66696744
:100470002E6D6F6465203D20302E205772697465A3
:100480002064656661756C742076616C7565732097
:10049000746F20454550524F4D2E0A007267626CB2
:1004A000696768745F696E6974206565636F6E66FD
:1004B0006967206973206E6F7420656E61626C6578
:1004C000642E0A007267626C696768745F696E699E
:1004D00074207374617274210A007267626C6967B8
:1004E00068745F696E69742063616C6C65642E0A60
:1004F000005B735D000A0025303862003A20002559
:10050000303258000A722F6320303132333435369E
:10051000370A007267626C6967687420616E696D82
:100520006174696F6E207469636B207265706F729D
:100530007420746F20736C6176650A001E0F0500CD
:10054000047F3F1F643214643214783C1E1E140A68
:10055000050A0025303258006C65645F7461736B66
:100560003A20007267626C69676874207365742052
:100570007370656564205B4E4F454550524F4D5D2D
:100580003A2025750A007267626C69676874207486
:100590006F67676C65205B4E4F454550524F4D5D10
:1005A0003A207267626C696768745F636F6E666930
:1005B000672E656E61626C65203D2025750A00001E
:1005C0000101010101010101010202020202020214
:1005D00002020303030303030303040404040404E7
:1005E00004050505050506060606060707070707AD
:1005F00008080808090909090A0A0A0B0B0B0C0C60
:100600000C0D0D0D0E0E0E0F0F0F101011111112FB
:100610001213131414151516161717181819191A7A
:100620001A1B1B1C1D1D1E1E1F20202122222324DD
:1006300024252626272829292A2B2C2D2D2E2F301C
:10064000313232333435363738393A3B3C3D3E3F30
:10065000404142434445464748494A4C4D4E4F501D
:10066000515354555658595A5B5D5E5F61626465DB
:100670006668696B6C6D6F7072737577787A7B7D65
:100680007E8082838587888A8C8E8F9193959698B9
:100690009A9C9EA0A2A3A5A7A9ABADAFB1B3B5B7D5
:1006A000BABCBEC0C2C4C6C9CBCDCFD1D4D6D8DBAC
:1006B000DDDFE2E4E7E9EBEEF0F3F5F8FAFDFF72D7
:1006C00067626C69676874206D6F6465205B4E4F6C
:1006D000454550524F4D5D3A2025750A00726762BC
:1006E0006C69676874206D6F6465205B4545505286
:1006F0004F4D5D3A2025750A007267626C69676824
:100700007420656E61626C65205B4E4F45455052AA
:100710004F4D5D3A207267626C696768745F636F02
:100720006E6669672E656E61626C65203D20257579
:100730000A007267626C6967687420646973616239
:100740006C65205B4E4F454550524F4D5D3A2072CF
:1007500067626C696768745F636F6E6669672E6550
:100760006E61626C65203D2025750A007267626CBF
:10077000696768742073657420687376205B4E4FD8
:10078000454550524F4D5D3A2025752C25752C2539
:10079000750A007267626C696768742073657420FB
:1007A000687376205B454550524F4D5D3A20257564
:1007B0002C25752C25750A007267626C6967687450
:1007C000207261696E626F7720736574206873763A
:1007D0003A2025642C25642C25642C25750A00FFFD
:1007E000AA7F5540000102030C0D0E0F04050607F9
:1007F00008090A0B7267626C696768742074696D16
:10080000657220656E61626C65642E0A00726762B3
:100810006C696768742074696D65722064697361BE
:10082000626C652E0A002223252628292A2C2D2FCA
:100830003032333536383A3B3D3E404243454749F6
:100840004A4C4E5051535557595A5C5E606264662B
:1008500068696B6D6F71737577797B7D7F81838537
:1008600087898A8C8E90929496989A9C9E9FA1A339
:10087000A5A7A8AAACAEAFB1B3B4B6B8B9BBBCBE5D
:10088000BFC1C2C3C5C6C7C9CACBCCCDCED0D1D2D9
:10089000D2D3D4D5D6D7D7D8D9D9DADADBDBDBDCDB
:1008A000DCDCDCDCDDDDDDDDDCDCDCDCDCDBDBDB87
:1008B000DADAD9D9D8D7D7D6D5D4D3D2D2D1D0CEE7
:1008C000CDCCCBCAC9C7C6C5C3C2C1BFBEBCBBB9EC
:1008D000B8B6B4B3B1AFAEACAAA8A7A5A3A19F9E6A
:1008E0009C9A98969492908E8C8A89878583817F32
:1008F0007D7B79777573716F6D6B69686664626013
:100900005E5C5A5957555351504E4C4A49474543DE
:1009100042403E3D3B3A3836353332302F2D2C2A7B
:100920002928262523226261636B6C69676874201D
:1009300064697361626C650A006261636B6C69670C
:10094000687420746F67676C653A2025750A0062C9
:1009500061636B6C6967687420656E61626C650ABF
:1009600000A800290035001E001F002000210022E1
:10097000004A0000002B0014001A000800150017A0
:10098000004D000000390004001600070009000AAD
:10099000004B000000E1001D001B000600190005CF
:1009A000004E000000E000E300E20021522C002C89
:1009B00000230024002500260027002D002E002AF9
:1009C000001C0018000C00120013002F0030003132
:1009D000000B000D000E000F003300340000002853
:1009E0000011001000360037003800E5000000213B
:1009F000522C002C000000E600E70076000000E426
:100A000000A800007C010024782378010001000187
:100A1000000578000001002678257801000100011A
:100A200000217800000100287827780100010001EA
:100A300000A9000000010001000100010001000107
:100A400000AA0000000100010001000100010001F6
:100A50000001000100010001000100010001004C43
:100A60000001002400250026000100010001000112
:100A7000000100210022002300010001000000010C
:100A80000001001E001F0020000100010000000105
:100A9000000100270000000100010001000000012A
:100AA000000100010001000100010001000100013E
:100AB000000100000001000100010001000100012F
:100AC000000100000001000100010001000100011F
:100AD000000100000001000100010001000100010F
:100AE00000010000000100010001000100010001FF
:100AF00000010001000100010001000100010001EE
:100B000000010001000100010001000100010001DD
:100B100000010001000100010001000100000001CE
:100B200000010001000100010001000100000001BE
:100B300000010001000000010001000100000001AF
:100B4000000100010001000100010001000100019D
:100B5000000100000001000100010001000100018E
:100B6000000100000001000100010001000100017E
:100B7000000100000001000100010001000100016E
:100B8000000100000001000100010001000100015E
:100B9000000100010001000100010001000100014D
:100BA000000100010001000100010001000100013D
:100BB000000100010001000100010001000000012E
:100BC000000100010001000100010001000000011E
:100BD000000100010000000100010001000000010F
:100BE00000A900AA0000000000217822780000007F
:100BF0000023782478000000002578267800000083
:100C0000005B435D005B445D005B535D005B575DD3
:100C1000005B525D0009027B00040100A0FA090498
:100C2000000001030101000921110100012240001F
:100C30000705810308000109040100020300000008
:100C40000921110100012222000705820320000171
:100C5000070503032000010904020001030000004E
:100C6000092111010001223200070584032000013F
:100C70000904030002030000000921110100012200
:100C80002200070585032000010705050320000158
:100C9000120100020000000810CB581300010102ED
:100CA00000011C0346006F006C0064004B00420012
:100CB00020005200650076002E0020003100000068
:100CC0000E034B0065006500620069006F000000C4
:100CD0000403090411241FBECFEFDAE0DEBFCDBF4D
:100CE00004B603FE18C08091C0039091C103A09187
:100CF000C203B091C3038730904BA740B04B59F467
:100D00001092C0031092C1031092C2031092C30349
:100D1000E0E0F8E3099523E0A4E2B2E001C01D920F
:100D2000A03CB207E1F712E0A0E0B1E0EAE7FCE6A0
:100D300002C005900D92A432B107D9F70E94762B1C
:100D40000C94D2350C940000FF93EF93E0912402B1
:100D5000F0912502309709F00995EF91FF910895E0
:100D6000FC018591803011F0EFDFFBCF0895FF2764
:100D7000E0E230E247FF0CC0419597FF09C0EDE289
:100D80006095709580959095611D711D811D911DD7
:100D900027FF02C0219530E350E2AA27660F771F94
:100DA000881F991FAA1FA41710F0A41B63955A95BA
:100DB000A9F7AA3008F0A95FA05DAF93F39561157C
:100DC00071058105910541F7ED3211F4EF93F3952B
:100DD000F21718F43F93F395FBCF8F91B5DFFA9597
:100DE000E1F70895E991F9918591803021F08532FC
:100DF00019F0AADFF9CF089520E0E8945591553213
:100E0000C1F3503311F4689455915A3348F4505358
:100E100090F3220F022E220F220F200D250FF4CF68
:100E20000EF4219589919991533619F3533729F18D
:100E3000533559F1BC0188279927E8945C3621F491
:100E40008991999168945591543639F446EF7EF022
:100E500077FF0DC08FEF9FEF0AC055374AE039F09A
:100E6000583540E121F0523642E009F00895FF93F1
:100E7000EF937DDFEF91FF91B7CFFF93EF93FC01ED
:100E800081918030B9F360DFFBCFFF93EF9368DF90
:100E9000F1CFDF93CF93CDB7DEB72596A3DFCF9108
:100EA000DF910895E8EDF0E080818E7F80831092DD
:100EB000E2001092DA001092E100A0EEB0E08C9116
:100EC00081608C9380818F77808319BCA7EDB0E01F
:100ED0008C918E7F8C9380818F7E80831092A6036D
:100EE00008952091E4003091E50095E6A901209154
:100EF000EC00822F817020FF06C08091E80080FF07
:100F000006C080E008952091E80022FD1AC080917B
:100F1000B303882389F0853089F08091EB0085FD4B
:100F20000FC02091E4003091E50042175307F9F219
:100F30009150E1F684E0089582E0089583E00895F9
:100F400081E008958091B50387FF13C08091E80088
:100F500082FF06C08091E8008B778093E80004C090
:100F60008091B3038111F2CF08958091B303882358
:100F7000D9F38091E80080FFF8CF8091E8008E7768
:100F8000ECCF982F9093E900242F762F50E089170B
:100F900031F07091EC002091ED005091F00021FDB6
:100FA00007C09F5F973071F78093E90081E0089553
:100FB0003091EB003E7F3093EB003091ED003D7FB0
:100FC0003093ED003091EB0031603093EB00709383
:100FD000EC002093ED005093F0002091EE0027FDEF
:100FE000E0CF80E00895B0E0A0E0E9EFF7E00C94F6
:100FF0001B34C8EDD0E088818F7E8883E7EDF0E078
:1010000080818160808384E082BF81E08093A60339
:1010100088818E7F888302EE10E0F80110821092A2
:10102000DA0081EEC82ED12CF601108288818F77EC
:10103000888388818068888388818F7D888319BCB4
:101040001092B3031092B4031092B2031092B10342
:1010500090EEE92EF12CF70180818B7F80838881CF
:101060008160888342E060E080E00E94C107F60171
:1010700080818E7F8083F801808181608083808180
:1010800088608083F70180818E7F80838881806182
:101090008883CDB7DEB7E8E00C943734FC0180914B
:1010A000BB039091BC0386179707A0F061157105EB
:1010B00029F49091E8009E779093E80090E0611504
:1010C000710551F4911108C08091E80082FF34C08D
:1010D00080E00895BC01F2CF8091B3038823C1F171
:1010E0008530C1F18091E80083FD30C08091E80037
:1010F00082FDEACF8091E80080FFE1CF8091F3008C
:101100002091F200382F6115710519F02830310552
:1011100058F091E02830310509F090E02091E80086
:101120002E772093E800CBCF81918093F10061501E
:1011300071092F5F3F4FE7CF8091B303882341F0C0
:10114000853041F08091E80083FFBECF81E00895B3
:1011500082E0089583E00895089508958091A8039A
:1011600008959C014FB7F89480919F039091A0033C
:10117000A091A103B091A2034FBF821B930B0895CE
:101180002FB7F89460919F037091A0038091A10301
:101190009091A2032FBF08952FB7F89480919F03D9
:1011A0009091A003A091A103B091A2032FBF089535
:1011B0009C01FC0132969FEF80E04191461751F06F
:1011C0009F3F19F4411101C0982F8F5F8630A9F716
:1011D0009F3F09F40895290F311D97FD3A95F901B4
:1011E00062830895A3E0B0E0E8EFF8E00C942134C6
:1011F00020919C0330919D0328173907A1F090930B
:101200009D0380939C03E0919A03F0919B03309798
:1012100051F024E029839B838A830680F781E02DA7
:10122000CE01019609952396E2E00C943D34A3E0AB
:10123000B0E0EDE1F9E00C94213420919803309175
:10124000990328173907A1F0909399038093980385
:10125000E0919A03F0919B03309751F023E02983AA
:101260009B838A830680F781E02DCE010196099544
:101270002396E2E00C943D34FC01680F791F8FEF58
:1012800091E32191822728E030E087FF09C0880F91
:10129000892721503109C9F7E617F70791F7089513
:1012A000880FF7CF8F929F92AF92BF92EF92FF92EB
:1012B0000F931F93CF93DF938430B8F5811136C01D
:1012C000909180009F77909380002D98A091860048
:1012D000B0918700282F30E00E94C33523E030E032
:1012E00040E050E00E94A13589019A01809186007A
:1012F000909187006CE070E00E9464346017710781
:10130000D8F0C80169E070E00E94643470938900ED
:1013100060938800DF91CF911F910F91FF90EF9024
:10132000BF90AF909F908F90089583E09091800040
:10133000906890938000CACF80918600909187003A
:10134000E0908600F0908700E0918600F0918700A1
:10135000C6E0D0E0BE010E946434060F171F211DB5
:10136000311D4801590185E0880C991CAA1CBB1C41
:101370008A95D1F7C701BE010E9464349F0150E0F5
:1013800040E0260F371F411D511DC501B4010E94C9
:10139000A13549015A01E0918600F0918700CA0108
:1013A000B9010E9448349B01AC01DF010E948E35D7
:1013B0009B01AC01C501B4010E9448342FE0969511
:1013C0008795779567952A95D1F7009186001091BA
:1013D000870030E020E0061717072807390708F0D4
:1013E00095CF609186007091870090CF282F220FB3
:1013F000220F220F909197039770922B909397034F
:10140000987F21E009F420E09091970320FB90F968
:10141000909397030E9452090895FA01811101C027
:10142000FB010995089580919103982F9E7F29F4DF
:10143000817082608093910308958635E8F381700E
:101440008465F8CFAF92BF92DF92EF92FF920F9335
:101450001F93CF93DF93082F162FE901E42FF0E0BD
:10146000E154FA4F611110C0E4915E2F4E2F498371
:10147000E8835A83DF91CF911F910F91FF90EF90F6
:10148000DF90BF90AF900895E62EF12C4491D42EBA
:10149000E42FF0E026E0829FC00111242FEF30E01E
:1014A000B9010E946434802F90E0880F991F55E5A0
:1014B000569FD001579FB00D11248A1B9B0B982F6C
:1014C000990F890F5901AE18BF08AE9ED001AF9E8B
:1014D000B00DBE9EB00D11245B2F189F800111240A
:1014E000012F11275901A01AB10AAE9E8001AF9EAB
:1014F000100DBE9E100D11245901A81AB108AE9C02
:10150000C001AF9C900DBE9C900D1124892F99278E
:10151000281B390B2E9FC0012F9F900D3E9F900DD1
:101520001124E92F62307105A1F050F461157105A5
:1015300009F49DCF6130710581F0EB2F512F97CFCA
:101540006430710569F080F06630710509F48FCF61
:10155000F4CFE42F4B2F592F8ACFE42F412F87CF81
:10156000EB2F542F492F83CF4B2F5D2DE12F7FCFB2
:10157000F894E82FE295EF70F0E031A1282F2F705A
:1015800081E090E001C0880F2A95EAF7982F9095A6
:10159000932391A392A1892B82A37894089590918B
:1015A000E20292FF06C0282F28712830F9F4877FC5
:1015B000846093FF06C0282F28712831F1F4877EBC
:1015C00084612091E30220FF06C0382F3871383043
:1015D000D9F4877F816021FF06C0282F2871283128
:1015E000D1F4877E816194FD877E0895282F247130
:1015F0002430F9F68B7F8860DCCF282F24712431CA
:1016000001F78B7E8861DDCF382F3171313019F7CA
:101610008E7F8860E0CF282F2171213121F78E7EC7
:101620008861E1CF82389105B9F1B0F48133910539
:1016300009F47DC048F48932910509F46DC08A32FD
:10164000910509F47BC008958533910509F45FC0C5
:101650008933910509F10895833E9105D9F138F454
:10166000803E910529F1823E910579F10895863EEB
:101670009105D9F1873E910509F43EC0843E91055C
:1016800041F52091E30221FF24C08091E20284FD14
:1016900019C087EE90E008952091E202237009F0CE
:1016A0005AC02091E30223FF14C089E290E008951C
:1016B0002091E20220FD38C03091E30230FF09C0E2
:1016C00024FF43C090E080E008952091E20222FDD3
:1016D000F7CF08952091E20222FD3AC03091E30253
:1016E00030FD39C024FFF5CFEDCF2091E20223FF7A
:1016F000F0CF24FDE7CFCDCF2091E20223FD2EC015
:101700003091E30231FFEECF84EE90E00895209116
:10171000E20225FFDECFC9CF2091E20225FD21C0E4
:101720002091E30223FFD5CF89E390E0D2CF20912F
:10173000E20226FFCECF8AE290E008952091E202F5
:1017400026FFC7CF81E390E0089583EE90E00895EF
:1017500082EE90E0089580EE90E0089586EE90E0AD
:10176000089585E390E008951F93CF93DF930E943F
:10177000120BEC01C11580E5D807F0F5C11580E426
:10178000D80708F0AAC0C03ED10520F5CD3CD10550
:1017900008F090C0C83AD10578F4C53AD10508F0F0
:1017A00081C0C130D10519F1209709F1C430D105AC
:1017B000F0F4D0E0C0E01BC0C33CD105D0F7C85A5C
:1017C000D0E0CC0FDD1FC157DE4F0990D881C02D6E
:1017D000D4640DC0C11580E2D80708F0C9C0C11596
:1017E00081E0D80708F068C0C83ED10510F7CE01E7
:1017F000DF91CF911F910895C03682E5D80718F583
:10180000C03482E5D80708F079C0C03282E5D80735
:1018100008F06DC0C11582E5D80708F48FC02C2FE1
:101820002695269580E2289F900111248C2F8370A5
:10183000C1E0D0E002C0CC0FDD1F8A95E2F7C22BD9
:10184000D32BDD68D4CFC03C82E5D807F8F4C03A8A
:1018500082E5D80708F067C0C03882E5D80708F0ED
:10186000A8CF2C2F26952695277080E2289F9001DF
:1018700011248C2F8370C1E0D0E002C0CC0FDD1F9B
:101880008A95E2F7C22BD32BDA68B1CFC03E82E54E
:10189000D80708F08ECFDC2FCC27CC27DF71C06FA4
:1018A000D06AA5CFC55AD0E0C457DE4FC881D0E07A
:1018B000D0649DCFD0659BCF8D2F0E94CF0A182F6B
:1018C000CE0199270E94120BC12FD0E0DC2FCC272C
:1018D000CC27DF71C82BD92B8ACFCE0199270E9444
:1018E000120BCC27DF70C82BD92BD06A80CFCF71D9
:1018F000D0E0DC2FCC27C16FD06A79CF2C2F269572
:101900002695277080E2289F900111248C2F8370E8
:10191000C1E0D0E002C0CC0FDD1F8A95E2F7C22BF8
:10192000D32BDC6864CF8C2F8F710E94CF0AC82F15
:10193000D0E0DC2FCC27CC27DF7159CF8C2F8F71D3
:101940000E94CF0A55E0D695C7955A95E1F7CF701A
:10195000D0E0DC2FCC27282F30E084FF05C044E006
:10196000220F331F4A95E1F7C22BD32BD0693FCF0B
:101970008D2F8F710E94CF0A182FCE0199270E94B8
:10198000120BC12FD0E0DC2FCC27CC27DF71C82B66
:10199000D92BD0622CCF0E94C008089520918702D5
:1019A0009091560256E0291302C080E0089530E07D
:1019B000529FF001539FF00D1124E95AFD4F7181A0
:1019C000761306C07081781303C07281741304C04B
:1019D0002F5F3F4F2770E7CF81E008958091870206
:1019E00090915602981301C008958F5F8770FACFC7
:1019F000A82FA77023E0969587952A95E1F7FC011B
:101A0000EE0FFF1FE80FF91FE60FF71F50E040E051
:101A100080E0219130E00A2E02C0369527950A9485
:101A2000E2F721703327042E01C0220F0A94EAF74F
:101A3000822B4F5F5F4F4330510559F708959A301D
:101A400070F4883098F448E0949F9001112462E388
:101A500072E0820F932F911D0E94F80C08959C5FF5
:101A6000923020F46FE272E090E0F6CF80E00895CB
:101A7000262F277091E001C0990F2A95EAF723E0FD
:101A8000769567952A95E1F7FB01EE0FFF1FE60FAC
:101A9000F71FE40FF51F50E040E0682F70E08191E0
:101AA000DF0111979B01042E02C0369527950A94F9
:101AB000E2F7217021952827292328272C934F5FAF
:101AC0005F4F4330510559F70895282F862F9A30DC
:101AD00068F4283050F438E0939FB0011124620F6D
:101AE000711D42E352E00E94380D08959C5F9230D0
:101AF000E0F7622F70E04FE252E0F5CF8093E10211
:101B000008959091E10221E030E0F90101C0EE0F6B
:101B10008A95EAF7D90102C0AA0FBB1F6A95E2F7BE
:101B2000EA2B01C0220F4A95EAF7892F8E23E8138A
:101B300005C0292B822F0E947E0D08952095292310
:101B4000F9CF21E030E001C0220F8A95EAF7209515
:101B50008091E10282230E947E0D089521E030E011
:101B600001C0220F8A95EAF78091E102822B0E9440
:101B70007E0D0895809392020895829590E09C01D5
:101B8000220F331F220F331F2C7C95958795959537
:101B900087958373282B30E0C901880F991F8A7AB3
:101BA000359527952575822B08959FB7F894109247
:101BB000A4039FBF9091B303943009F048C02091D3
:101BC000E9002F703091EC00932F917030FD90E878
:101BD000922B25E02093E9002091EB0020FF34C0F8
:101BE0002091EE0027FF30C02091A303222321F093
:101BF0002091E80025FF28C01092A30326E0309131
:101C0000E80035FF14C08093F1008091E80085FD65
:101C100027C08091E80080FFFCCF8091E8008E779C
:101C20008093E8009F709093E90080E008953091E0
:101C3000B303343049F43091EB0035FD05C0215039
:101C400041F481E08093A3039F709093E9008FEFAC
:101C50000895EFE9FFE03197F1F700C00000CFCF22
:101C60008FB7F89421E02093A4038FBFDBCF0F93AD
:101C70001F93CF93DF938B01EA019091B3039430CC
:101C800061F58093E9008FEF9091E800815095FD18
:101C900006C095ED9A95F1F700008111F5CF80917E
:101CA000E80085FF1AC00E947107811111C0809160
:101CB000E80085FD06C08091E8008E778093E800FB
:101CC000F2CFF80181918F018093F100219779F78C
:101CD0008091E8008E778093E800DF91CF911F918B
:101CE0000F91089543E050E0BC0184E00E94370E5C
:101CF0000895CF93DF93EC0148E050E0BC0181E010
:101D00000E94370E88E0FE01A9EAB3E001900D922F
:101D10008A95E1F7DF91CF91089581E08093E0000B
:101D200080E28093D8001092C9008FE19EE4019771
:101D3000F1F700C0000087E090EBDC018093C00366
:101D40009093C103A093C203B093C30388E19CE0C6
:101D50000FB6F894A895809360000FBE9093600032
:101D6000FFCFCF92DF92EF920F931F93CF93DF932A
:101D7000CDB7DEB7E0970FB6F894DEBF0FBECDBF8C
:101D8000609154018091910380FF4BC0E4EEF7E035
:101D90009E012F5F3F4F8E010F5C1F4FC901A49121
:101DA0004A2F50E0DA01AA0FBB1FA40FB51FAF5E88
:101DB000BC4FCD90DD90EC90D901CD92DD92ED92AB
:101DC0009D013196A017B10751F72091530143E0CF
:101DD000249F800D911D11246E9A2EB12F7B3EB150
:101DE00030645FB7F894FC01649FE00DF11D11248D
:101DF000BF018617970741F55FBFEFE5F4E0319724
:101E0000F1F700C00000E0960FB6F894DEBF0FBEF9
:101E1000CDBFDF91CF911F910F91EF90DF90CF90C9
:101E20000895809155019091560123E0829FF00121
:101E30001124EF5EFC4F891708F0A8CF11821082A1
:101E400012828F5F3396F7CFDC014D91CD01E8E030
:101E50003EB9000000C047FF2EB9440F000000C08B
:101E600000C000C02EB900C0EA9591F7C2CF0F9311
:101E70001F93CF93DF93EC0110E000E090915701A6
:101E80009017110609F06CF40E94B10E8C8190E05D
:101E90000196817099278C83DF91CF911F910F91CB
:101EA000089520915501A801420F511D9A01220F5A
:101EB000331F240F351F2F5E3C4F4C8160919303DD
:101EC0008091920396959017110651F04CF044239F
:101ED00049F0409194030E94220A0F5F1F4FCECF1A
:101EE0004423B9F340E0F7CFB0E0A0E0EAE7FFE039
:101EF0000C941734EC014C81042F10E09801D801A8
:101F00000E94C3359B01AC010E948E354B015C01E0
:101F1000E0E2F0E0E01BF10BA5E5B0E0AC019B01D5
:101F20000E948E356B017C019F01DF010E94993474
:101F30009B01AC010E9499359B01AC01280D391D14
:101F40004A1D5B1DC701B6010E94A135F22E822FEA
:101F500090E039E23F1520F143E0249F90011124E5
:101F600035952795122F109500E085E5E82EEF189E
:101F700080915701081718F10E94B10E9C8181E0F1
:101F8000992319F0903219F48FEF809352018091C8
:101F90005201890F8C83CDB7DEB7ECE00C9433345B
:101FA00025E530E0B901681B790B9B01220F331F37
:101FB000260F371F37FFD4CF2F5F3F4FD1CF8E2D46
:101FC00001FD8F2D20915501622F600F7727771F1C
:101FD0009B01220F331F260F371F2F5E3C4F412FCF
:101FE000609193030E94220A0F5FC2CFEF92FF928B
:101FF0000F931F93CF93DF93EC018C81811109C064
:1020000081E08C8310920F0392E0909351018093B2
:102010005001809155019091560123E0829FF0017B
:102020001124EF5EFC4F891758F110E003E0609136
:102030005701161758F10E94B10E8091500120915E
:102040000F03280F20930F0390915101980F909345
:102050005101191654F4022E000C330B4091570114
:102060004150550B2417350734F08195809350016A
:10207000813009F41C82CDB7DEB7E6E00C94393428
:102080001182108212828F5F3396CDCFE12EF12C18
:1020900070E0C7010E94783420915501820F482FCB
:1020A00050E020910F03022E000C330BE216F306D2
:1020B000BCF020915101022E000C330B2E153F0570
:1020C0007CF0809F900111242F5E3C4F409194033F
:1020D00060919303809192030E94220A1F5FA7CF11
:1020E000FA01EE0FFF1FE40FF51FEF5EFC4F1182A8
:1020F00010821282F3CFB0E0A0E0E1E8F0E10C94AE
:102100001834EC018A81BB24BA9480FD02C0BB2440
:10211000B394A09057018C81811109C081E0B8125D
:102120001EC08FEF8A0D80930E0381E08C83F12C0B
:10213000E12CEA14B8F00E94B10E80910E0391E0F8
:10214000B91254C081114DC08091570181508093C4
:102150000E031C82CDB7DEB7EBE00C943434109242
:102160000E03E3CF009155010E0D1F2D111DC80167
:10217000880F991F080F191F0F5E1C4FF80111825D
:102180001082128234E0C32ED12C912C80910E0348
:10219000890D813114F18F70082E000C990B8E156A
:1021A0009F0591F4809194038C9DA0018D9D500D0D
:1021B000112455954795559547959801609193033E
:1021C000809192030E94220A9B0CF1E0CF1AD10861
:1021D000E9F68FEFE81AF80AACCF87FFDDCF8A0D5A
:1021E000DBCF815080930E03BC82B4CF90E0019688
:1021F0006091570170E00E94783480930E038C83C5
:10220000A9CFEF92FF921F93CF93DF93EC0110E0E1
:10221000EE24EA94F12C60915701161770F00E9499
:10222000B10E9A818C8190FF27C08F5F8C83DF91E4
:10223000CF911F91FF90EF90089520915501422F6B
:10224000410F5527551FCA019A01220F331F280F2E
:10225000391F2F5E3C4F70E0C7010E947834962FE3
:102260008C814091940360919303199F800D1124F8
:102270000E94220A1F5FCFCF8150D8CF9091910347
:1022800090FF0EC0909155012091560133E0939F2D
:10229000F0011124EF5EFC4F921718F00E94B10E6E
:1022A00008958183608342839F5F3396F5CFA3E0D7
:1022B000B0E0EDE5F1E10C941F348C018091100346
:1022C00081110AC09E012F5F3F4F4FEF6FEF0E94B9
:1022D000220A8A8180931003F8016481613069F0D9
:1022E0008091100340E0662361F040E0623011F419
:1022F0004091100380E060E004C06091100340E072
:1023000080E00E943E11F801848190E0019663E034
:1023100070E00E94783484832396E4E00C943B348C
:10232000A3E0B0E0E6E9F1E10C942134909191034F
:1023300090FF0AC09E012F5F3F4F0E94220A4B81EF
:1023400069818A810E943E112396E2E00C943D341B
:10235000CF93DF93EC01E1E9F3E0438162818C816B
:102360000E9490118C818F5F8C83DF91CF910895B3
:10237000CF93DF93EC01EC81F0E0EA5DF74F4491FD
:10238000E1E9F3E0628181810E9490118C818F5F8D
:102390008C83DF91CF91089580919F02811110C0AD
:1023A0008091D80080618093D8008AE18A95F1F706
:1023B00000C08091D90080FF0AC081E080939F0215
:1023C00081E090919F02913009F080E0089582E0D1
:1023D00080939F020E9452071092B303F1CF0E9494
:1023E000CC11882359F0E0919A03F0919B03309728
:1023F00029F00190F081E02D0995089580E008957D
:102400000F931F930E94CC11882329F00E94C008CB
:102410001F910F9108950E94C0080091CF02109162
:10242000D0022091D1023091D202600F711F821F21
:10243000931FEECF0E94CC11882319F00E94CC0884
:1024400008950E940012CB010895CF93DF93C6EC4C
:10245000D2E060E0CE010E943B352196C11584E0B8
:10246000D807B9F7DF91CF9108950F931F93CF93BA
:10247000DF93142F022F843020F5623010F598E09E
:10248000899FE001112484E0689FB0011124C60FE8
:10249000D71FCA55DD4F82E090E0442311F090E051
:1024A00080E0632F8C0F9D1F0E943B3583E090E0FE
:1024B000112311F081E090E0602F8C0F9D1F0E948E
:1024C0003B35DF91CF911F910F9108951F93CF93CB
:1024D000DF93122F8430E0F46A30D0F44830C0F437
:1024E00090E1699FE001112450E0440F551FC40F93
:1024F000D51F90EA899FC00DD11D1124632FCE01F5
:1025000086960E943B35612FCE0187960E943B350F
:10251000DF91CF911F910895B0E0A0E0E2E9F2E1F0
:102520000C94173481EEE82E8BE0F82E01E619E0CA
:10253000C0E05801D0E015C0F401259134914D2D33
:102540006D2F8C2F0E94661282E0880E911CD3940E
:1025500088E0D812F1CF80E1A80EB11CDF5FDA303D
:1025600019F04501D12CE8CF6701D0E0F6012591A3
:10257000349141E06D2F8C2F0E943512F601329676
:102580002591349140E06D2F8C2F0E94351284E00C
:10259000C80ED11CD13071F488E0E80EF11CCF5F79
:1025A00000561F4FC43009F0C4CFCDB7DEB7ECE002
:1025B0000C943334D1E0DACFCF93C82F6FEF811171
:1025C00062E282E290E00E943B356FEFC11163E06E
:1025D00083E290E00E943B356FEFC11160E184E23D
:1025E00090E00E943B35CF91089580E00E94DC127C
:1025F00060E085E290E00E943B350E948C120E94D0
:10260000251281E00E94DC120895682F86E090E098
:102610000E943B3508950E94F609809197030E941D
:1026200005130895FF920F931F93CF93DF93F42E1A
:10263000843070F5623060F528E0829F80011124BB
:1026400034E0639FB0011124060F171F0A551D4F78
:1026500082E090E0442311F090E080E0800F911F31
:102660000E942735C82FD0E0DC2FCC2783E090E0F4
:10267000FF2011F081E090E0800F911F0E9427352C
:102680009E01282BC901CDB7DEB7E5E00C943A34A2
:1026900090E080E0F8CF0F931F93CF93DF938430C7
:1026A00030F56A3020F5483010F520E1629F800156
:1026B000112450E0440F551F040F151F30EA839F6B
:1026C000000D111D1124C80186960E942735C82FC0
:1026D000D0E0DC2FCC27C80187960E9427359E01C9
:1026E000282BC901DF91CF911F910F91089590E0A0
:1026F00080E0F8CF7A3048F4683070F4843060F4C9
:10270000462F672F0E944B1308957D3F41F462309E
:1027100018F441E0843050F090E080E008957C3F70
:10272000D9F76230C8F78430B8F740E00E9412133E
:102730000895CF92DF92FF920F931F93CF93DF9371
:102740006C010091E10280919202082BC3E0D0E07D
:1027500010E0FC2EC8010C2E02C0959587950A94B6
:10276000E2F780FD0CC02197A0F7F12C8F2DDF91AF
:10277000CF911F910F91FF90DF90CF900895B601F8
:102780008C2F0E947A130E94B40B019761F3EECF55
:10279000CF93DF93EC010E949913BE010E947A133C
:1027A0000E94B40BDF91CF910895FC018381948145
:1027B000892B29F08081918189238F3F51F480E01A
:1027C0000895843FE1F717C0883EA8F0813FB9F72C
:1027D00012C0808191810E94C81392959F7096309B
:1027E00099F358F4925F9F70923048F7803F19F048
:1027F00040F7883E20F781E008959A5FF4CF82E2A7
:1028000090E00E942735823289F483E290E00E94B2
:102810002735833059F484E290E00E94273591E017
:10282000803109F090E0892F8170089580E0FCCF1D
:102830008091970380FD1FC0816080939703813052
:1028400019F489E080939703809197030E94051300
:102850008091960380FF08C08FE499E09F938F9347
:102860000E9449070F900F90809197038695869557
:1028700086950E9452090895CF93C0919703C17025
:102880008091960380FF2AC01F92CF9389E399E03D
:102890009F938F930E9449070F900F900F900F9076
:1028A000CC23F1F08091970380FF16C080919703AD
:1028B0008E7F809397030E9405138091960380FF7B
:1028C00008C086E299E09F938F930E9449070F907A
:1028D0000F9080E00E945209CF910895C111E6CF78
:1028E0000E941814F9CF10920C0380910D0384609C
:1028F00080930D038091960380FF08C08DE098E0DF
:102900009F938F930E9449070F900F900895809195
:1029100091038E7F809391038091960380FF0CC07A
:102920001F921F9282E397E09F938F930E94490723
:102930000F900F900F900F900E94731480910D03D1
:10294000816080930D030E94B10E0895B0E0A0E075
:10295000ECEAF4E10C9416347C015B01842E752EB4
:1029600069018091A00201E010E08A3010F40AE0D1
:1029700010E0C1E0D0E0B501C701F6010995982E3D
:10298000811114C021960C171D07B4F48091960391
:1029900080FF0CC07F928F9282E893E09F938F9389
:1029A0000E9449070F900F900F900F90892DCDB77F
:1029B000DEB7EDE00C943234CC9F9001CD9F300D0A
:1029C000300D112490E080E045E34A95F1F70000D6
:1029D000019628173907C1F7CECFB0E0A0E0E3EFAA
:1029E000F4E10C941334FC016280448081E0848320
:1029F000E6E2F8E07490E5EAF8E0E491C09194032F
:102A0000C695C158D0E0CC0FDD1FCD2FDD27812C1E
:102A100075E0972EAA24AA94B12C55245A94E7194C
:102A2000EE2EF12C80915701881638F00E94B10EDD
:102A3000CDB7DEB7E0E10C942F34C82CD12C82E066
:102A4000861568F09C9CF0019D9CF00D1124EF5BB5
:102A5000FC4F809192038083809193038183411086
:102A600023C09C9CF0019D9CF00D1124EF5BFC4F5A
:102A70001382128220915501C601820F911D9C0183
:102A8000220F331F280F391F2F5E3C4F9C9CF001F3
:102A90009D9CF00D1124EF5BFC4F42816181808190
:102AA0000E94220A8394BECF9C9C80019D9C100DA5
:102AB00011240F5B1C4FF80183818823F1F08150B2
:102AC0008383859DC0011124648170E00E94643479
:102AD000FB01FF27EA5DF74F8491E82FE719E59D99
:102AE000C0011124B7010E94643480919403689F4F
:102AF000B0011124F8017283BDCF0E94F434B501F6
:102B00000E9478348C179D070CF0B4CFF2E0F615D4
:102B100098F40E94F434B5010E947834F80180835F
:102B20000E94F434209193032695622F70E00E9456
:102B30007834280FF80121839C9CF0019D9CF00DB6
:102B40001124EF5BFC4F128280919403893C58F072
:102B500088EC9C9CF0019D9CF00D1124EF5BFC4FD8
:102B60008483838387CF8431A0F784E1F2CF60919F
:102B70009103669570E04BE050E085E491E00E949F
:102B80000435892B19F481E080930C030E941A12FA
:102B9000909306038093050380910D0384608093D6
:102BA0000D038091960380FF08C084EF97E09F9308
:102BB0008F930E9449070F900F900895CF92DF9254
:102BC000EF92FF926B017C010E94130AB701A601EC
:102BD00088E090E00E944D35FF90EF90DF90CF901D
:102BE0000895A3E0B0E0E7EFF5E10C941434082F6A
:102BF000E62EF42EC22E9091910390FF59C02091A1
:102C00009203281308C080919303861304C0809117
:102C10009403841729F080910D03826080930D0343
:102C2000E92FE695AE2FB0E0AC51BE4F8C9180936A
:102C30000B039E7F923009F03FC09E012F5F3F4FF4
:102C40004F2D6E2D802F0E94220A4B8169818A812F
:102C50000E943E1100939203E0929303F09294033A
:102C6000CC2009F486C06091910370919203809109
:102C70009303909194030E94DE158091960380FF48
:102C800017C0809194031F928F93809193031F929A
:102C90008F93809192031F928F9383E997E09F9384
:102CA0008F930E9449070FB6F894DEBF0FBECDBFC9
:102CB0002396EFE00C943034823019F4F0909403B2
:102CC000C9CF863009F453C0893009F450C0893126
:102CD00009F6E9518E2F8170782E8E2F80958170A4
:102CE000D82EE695F0E0E152F84F1491612C98EB64
:102CF000A92E97E0B92E60915701661618F00E9430
:102D0000B10EA8CF619EC001112470E00E9464340E
:102D1000502E71102AC0560E862C912C809196034D
:102D200080FF11C01F921F931F92DF921F925F922C
:102D30001F926F92BF92AF920E9449070FB6F8940C
:102D4000DEBF0FBECDBF20915501820E911C9401B4
:102D5000220F331F280D391D2F5E3C4F4F2D6E2D36
:102D6000852D0E94220A6394C6CF561AD5CF022F12
:102D700071CF8091960380FF9BCF1F92FF921F928D
:102D8000EF921F920F938CE697E089CFE1E9F3E091
:102D9000438121E1421B08F440E021E0628181810E
:102DA0000E94F1150895E1E9F3E0438121E1420F2A
:102DB00008F44FEF21E0628181810E94F1150895AE
:102DC000E1E9F3E0628121E1621B08F460E021E0C7
:102DD000438181810E94F1150895E1E9F3E0628168
:102DE00021E1620F08F46FEF21E0438181810E94AD
:102DF000F1150895E1E9F3E0818121E043816281E9
:102E000088500E94F1150895E1E9F3E0818121E005
:102E100043816281885F0E94F11508958091950336
:102E2000882319F0815080939503609191037091EC
:102E3000920380919303909194030E94DE1508956C
:102E400080919503833018F48F5F80939503609190
:102E500091037091920380919303909194030E9447
:102E6000DE1508959091910390FF45C091708111F6
:102E700043C092609093910380910D038160809391
:102E80000D03662309F43FC0609191037091920392
:102E900080919303909194030E94DE158091960394
:102EA00080FF0FC08091910386951F928F938DEDC7
:102EB00096E09F938F930E9449070F900F900F9079
:102EC0000F9060919103669570E04BE050E085E4CF
:102ED00091E00E940435892B11F10E94731481E066
:102EE0008093080320E040919403609193038091C4
:102EF00092030E94F11508958B3210F09465BACFB9
:102F0000880F982BB7CF8091960380FFDACF8091FE
:102F1000910386951F928F938FEB96E0CACF0E9404
:102F2000B715DDCF809191038160809391038091EB
:102F3000960380FF0DC01F9281E08F9389EF96E08A
:102F40009F938F930E9449070F900F900F900F90BF
:102F50008091910360E086950E94321708958091D8
:102F600091038695815009F48AE261E00E9432174C
:102F700008958091910386958F5F8B3208F081E0F0
:102F800061E00E94321708959091910390FF08C06C
:102F90009695981728F0961718F40E94B917089577
:102FA00061E00E9432170895E1E9F3E087E1808350
:102FB00011828FEF828383831482ABE0B3E0129699
:102FC0008C911297836012968C93608171818281BB
:102FD00093810E94DE15089567EE7EEF90E080E019
:102FE0000E94593560E082E090E00E943B3560E04D
:102FF00083E090E00E943B351092920260E074E121
:1030000084E090E00E94593560E086E090E00E9404
:103010003B356FEF87E090E00E943B3540E050E0A9
:10302000BA0188E090E00E944D3560E08DE090E0CC
:103030000E943B3540E050E0BA0188E190E00E94F8
:103040004D3560E087E190E00E943B3540E050E084
:10305000BA018CE190E00E944D3570E060E080E2C2
:1030600090E00E94593540E050E0BA0188E190E0DC
:103070000E944D3580E00E94DC120E94F5120E94F1
:10308000181483E00E940B1340E050E0BA018FE077
:1030900090E00E944D3540E050E0BA0183E190E0BD
:1030A0000E944D35089590E080E00E943535873EBE
:1030B0009E4F19F40E94FF13089580E008950E9426
:1030C000531881110AC00E94EC17809197038470F5
:1030D0008961809397030E94051386E090E00E9427
:1030E000273580939703803220F087708861809322
:1030F000970390919703892F817090FF04C0892FC7
:103100008695869586950E9452090895A4E0B0E0C0
:10311000ECE8F8E10C9420344091C3025091C402D1
:103120006091C5027091C6022FB7F89480919F03F9
:103130009091A003A091A103B091A2032FBF841B83
:10314000950BA60BB70B11E084369105A105B105CF
:1031500070F10E9400126E5F7F4F8F4F9F4F698307
:103160007A838B839C8380912501909126018255DF
:103170009D4F4091240150E04530510510F044E04E
:1031800050E0BE016F5F7F4F0E941E3584E090E0EB
:103190000E949B33182F882351F00E94C00860932F
:1031A000C3027093C4028093C5029093C602812F1C
:1031B0002496E3E00C943C344F925F926F927F929E
:1031C0008F929F92AF92BF92EF92FF920F931F93B5
:1031D000CF93DF937B01FB0140805180628073803D
:1031E0009FB7F89480909F039090A003A090A103B4
:1031F000B090A2039FBF84189508A608B708F4E60C
:103200008F169104A104B10418F4C1E0442329F1FC
:10321000C82F880FDD0BFE0183E0EE0FFF1F8A959C
:10322000E1F7EC5FFE4F8181928182559D4F408195
:1032300050E00417150708F4A801B9010E941E35D3
:10324000CE010E949B33C82F882339F00E94C0080A
:10325000F70160837183828393838C2FDF91CF91F9
:103260001F910F91FF90EF90BF90AF909F908F9024
:103270007F906F905F904F900895A8E0B0E0E3E4F6
:10328000F9E10C941F3485E0E1E9F3E0DE011196E9
:1032900001900D928A95E1F780910B0390910C03B8
:1032A000A0910D038E839F83A88741E088858111BB
:1032B00001C040E008E010E09E012F5F3F4F6BEC43
:1032C00072E086E00E94DC18811110920D032896AE
:1032D000E4E00C943B34A1E0B0E0E1E7F9E10C94C8
:1032E0001F348091970380FF18C086958695869538
:1032F000898341E09091BA02981301C040E001E057
:1033000010E09E012F5F3F4F67EC72E085E00E9466
:10331000DC182196E4E00C943B3480E0E9CF4F9236
:103320005F927F928F929F92AF92BF92CF92DF92E5
:10333000EF92FF920F931F93CF93DF930F92CDB72E
:10334000DEB7C62E4A015901482E880F5508C20122
:103350000E949B33782E882309F480C0C20133E099
:10336000880F991F3A95E1F7FC01EC5FFE4F43810E
:1033700050E04115510511F041E050E08C5F9E4F47
:10338000FC016481758162557D4FCE0101960E94DA
:103390001E35F40140815181628173812FB7F89409
:1033A00080919F039091A003A091A103B091A203EB
:1033B0002FBF841B950BA60BB70B84369105A10577
:1033C000B10540F4B701C8010E943C0999818917F1
:1033D00009F444C00C2C000CDD08C6010E949B338C
:1033E000782E811113C0712C872D0F90DF91CF9112
:1033F0001F910F91FF90EF90DF90CF90BF90AF9013
:103400009F908F907F905F904F900895C60123E02A
:10341000880F991F2A95E1F7FC01EC5FFE4F43816D
:1034200050E0E416F50608F4A7018C5F9E4FFC01FE
:103430006481758162557D4FC5010E941E35B701BB
:10344000C8010E943C0999818913CDCF0E94C00810
:10345000F4016083718382839383C6CFA701B8018F
:10346000C5010E941E35C0CFA5E0B0E0EAE3FAE155
:103470000C941B346B0185E0E82EF12C0FEA12E06E
:103480009E012F5F3F4F46EA52E061E080E00E94DC
:103490008F19882349F095E0FE013196A1EAB2E048
:1034A00001900D929A95E1F795E0E1EAF2E0D601FC
:1034B00001900D929A95E1F72596E8E00C94373447
:1034C000A2E1B0E0E6E6FAE10C9416348E010F5F5B
:1034D0001F4F8AE0D8011D928A95E9F787ECC82E24
:1034E00081E0D82EF12CE12CAA24A394B12C24ED58
:1034F000822E21E0922EF60181916F018F3F09F417
:1035000042C0F894E82FE295EF70F0E021A18F70AF
:10351000A50102C0440F551F8A95E2F7CA01922FF8
:10352000982B91A392A18095892382A3789400C0BF
:10353000ECECF1E0712C31E021912F3F09F46BC0EC
:10354000A22FA295AF70B0E090968C9190E02F7072
:1035500002C0959587952A95E2F780FD5CC0832F80
:10356000782A330F8E169F0639F7F601319780813E
:103570008F3F11F00E94B80A50EA5A95F1F7F8010E
:10358000EE0DFF1D70828FEFE81AF80A95E0E9163C
:10359000F10409F0B0CF4AE050E0B80185ED92E0C7
:1035A0000E941135009741F02AE0F801A5EDB2E044
:1035B00001900D922A95E1F70091E002892B69F1C3
:1035C00081E0809397020E94CC08909396028093AA
:1035D000950280919502909196020E94B1080597FC
:1035E00000F110E005501D4F45E050E065ED72E040
:1035F000C8010E941135C12C892B51F085E0E5ED01
:10360000F2E0D80101900D928A95E1F7CC24C394A1
:103610001092970207C080E0A3CF8091970281119A
:10362000D8CFC12C0E94CC11D82EE091E002DE014F
:103630001B967D01882309F4A4C085E01D928A951C
:10364000E9F70E2F10E005501D4FB090A002B9E031
:10365000BB1508F452C024E33AE149E551E0B70153
:10366000C8010E94A614882309F469C027E339E23F
:1036700046E651E0B701C8010E94A614882309F468
:103680005EC026E838E14EE651E0B701C8010E946D
:10369000A614882309F453C02BE639E149E751E029
:1036A000B701C8010E94A614882309F448C02DE37D
:1036B00039E143E851E0B701C8010E94A61488230C
:1036C000F1F1F9E0FB1508F453C01092A0028091CB
:1036D000DF0290E045E050E0B70185509D4F0E9429
:1036E000113521E020939E02892BE1F4D12C8D2D00
:1036F0008C296296EDE00C9432348091980290917E
:1037000099020E94B108843F914008F0A4CF8091B3
:103710009E02882359F385E0D7011D928A95E9F727
:1037200010929E02A091DF02B0E0A550BD4F85E04F
:10373000FE013B9601900D928A95E1F7D8CF8091DA
:10374000A0028F3F31F08F5F8093A0028A3008F48F
:10375000BECF0E94CC0890939902809398028091EA
:10376000960380FFD4CF8CE493E00E94B006CFCFC5
:103770008091960380FFA9CF89E393E00E94B00671
:10378000A4CFF0E0E550FD4F85E0AFEAB2E0019054
:103790000D928A95E1F765E070E08FEA92E00E9471
:1037A0003C098093AE024091F70250E06091F6022E
:1037B00070E06E507D4FC7010E941E358B8580934F
:1037C000B50261E070E0C7010E943C098093B40239
:1037D0008090B6029090B702A090B802B090B90263
:1037E00080919A0290919B02A0919C02B0919D02BF
:1037F00088169906AA06BB06D1F080929A0290928A
:103800009B02A0929C02B0929D020E94CC11811159
:103810000EC00E94C008861A970AA80AB90A8092A8
:10382000CF029092D002A092D102B092D2028091A7
:10383000BA020E94520988E0EBEBF2E0DE011B962F
:1038400001900D928A95E1F78091BB028695F090E8
:10385000BC02E090BD02B090BE020091C102109186
:10386000C2021092C202112309F441CF10FF0BC013
:103870009B8590FF1CC09091910391609093910360
:1038800060E00E94321711FF06C020E04B2D6E2D24
:103890008F2D0E94F11512FF04C0002359F00E94E1
:1038A000B71513FF24CF81E08093080320CF0E9437
:1038B0008714E9CF0E947314F4CF0F931F93CF9313
:1038C000DF938091910290919002892B8093260240
:1038D00048E050E068E872E086E292E00E9411352C
:1038E000892B09F441C088E0E6E2F2E0A8E8B2E002
:1038F00001900D928A95E1F7E0919A03F0919B0374
:10390000309791F10280F381E02D86E292E00995F3
:103910008091960382FF28C080FF04C087E293E075
:103920000E94B006D0E0C0E001E213E0809196036F
:1039300080FF0EC0FE01EA5DFD4F80811F928F93D4
:103940001F930F930E9449070F900F900F900F90B5
:103950002196C830D10551F78091960380FF04C0AD
:103960008FE193E00E94B006DF91CF911F910F91FC
:10397000089510929102E8E2F2E086E0DF011D92E4
:103980008A95E9F790E080E00E94170990E080E0D6
:103990000E94F208109290020E945D1C0895AAE213
:1039A000B0E0E5EDFCE10C94203485EB93E0209150
:1039B000F100DC012D93CD01B3E08D3B9B07B9F7FE
:1039C0008091B603833009F472C0B8F4813009F4F1
:1039D00049C0823009F4B3C08091E80083FF91C2EE
:1039E0008091B5039091B6039A3008F08AC2E92F0E
:1039F000F0E0EC52FA4C0C948C348A3009F48EC00E
:103A00008B3009F471C0893039F78091B503813268
:103A100019F78091B9039091BA03009711F00297BA
:103A2000D9F68091E800877F8093E8008091E800D4
:103A300082FF38C09091F3008091F200029731F438
:103A40008091F100813011F0863021F48091F100F5
:103A50008093A8038091E8008B778093E8000E9410
:103A6000A207BACF8091B503813A09F0B5CF809112
:103A7000E800877F8093E8008091B9039091BA03B2
:103A8000892B61F468E089EA93E070E00E944E08B7
:103A90008091E8008B778093E8009ECF60E090E013
:103AA00080E0F3CF8091B3038111C0CF95CF809197
:103AB000B503813A09F090CF8091B9039091BA0390
:103AC000892B09F089CF8091E800877F8093E800F7
:103AD0008091E80080FFFCCF809158018093F10035
:103AE0008091E8008E77B9CF8091B503813209F0DB
:103AF00073CF8091B9039091BA03892B09F06CCFF1
:103B00008091E800877F8093E8000E94A20780915F
:103B1000B703809358010E94B91C5ECF8091B50312
:103B2000813209F059CF8091E800877F8093E800C7
:103B30000E94A2078091B8038093A7034DCF809184
:103B4000B503813A09F048CF8091E800877F8093E0
:103B5000E8008091E80080FFFCCF8091A703BECFF2
:103B6000803899F0823809F0CCC18091B9038F7008
:103B7000873008F0C6C18093E9008091EB0085FB97
:103B8000882780F91092E90006C08091B1039091D6
:103B9000B203911182609091E800977F9093E800C2
:103BA0008093F1001092F1008091E8008E77A5C11A
:103BB000882309F493C1823009F0A3C18091B7032F
:103BC000811196C18091B9038F702FEF280F263095
:103BD00008F097C18093E9002091EB0020FF88C195
:103BE000933031F48091EB0080628093EB0080C1D0
:103BF0009091EB0090619093EB0021E030E001C0E8
:103C0000220F8A95EAF72093EA001092EA00809149
:103C1000EB008860EACF811174C11091B7031F7760
:103C20008091E3008078812B8093E3008091E8000D
:103C3000877F8093E8000E94A2078091E80080FFC0
:103C4000FCCF8091E30080688093E30082E0111153
:103C500083E08093B30355C18058823008F051C18E
:103C60002091B7033091B8032C3DE3E03E07A1F566
:103C700083E08A838AE289834FB7F894DE01139642
:103C800020E03EE051E2E32FF0E050935700E49152
:103C900020FF03C0E295EF703F5FEF708E2F90E042
:103CA000EA30C0F0C7968D939D932F5F243159F76A
:103CB0004FBF8091E800877F8093E8006AE270E060
:103CC000CE0101960E944E088091E8008B77809388
:103CD000E80017C1C096E7CF8091B9039091BA036D
:103CE000432F55274330510509F44AC078F5413038
:103CF000510509F47AC08BE790E0E5E1FCE0423041
:103D0000510509F0FEC02091E800277F2093E800CC
:103D10002091BB033091BC038217930708F49C01E8
:103D200040E02115310509F065C0411163C0809163
:103D3000E80082FDC9CF8091B303882329F2853042
:103D400019F28091E80083FFF2CFBECF41325105D6
:103D500009F43CC04232510509F0D3C084309105CA
:103D600008F0CFC0FC01EE0FFF1FED5EFD4F01908C
:103D7000F081E02D815F9D4FDC018C9190E01AC0B5
:103D8000332721303105D1F02115310561F0223082
:103D9000310509F0B6C0E2EAFCE0E4918E2F90E034
:103DA000E2EAFCE007C0E0EDFCE0E4918E2F90E059
:103DB000E0EDFCE0009709F4A4C0A5CFE0ECFCE046
:103DC000E4918E2F90E0E0ECFCE0F4CF843091059C
:103DD00008F097C0880F991FFC01E55EFD4F019028
:103DE000F081E02D89E090E08ECF82E190E0E0E983
:103DF000FCE089CF8091B303882309F465CF853037
:103E000009F462CF8091E80083FD5ECF8091E800E5
:103E100082FD8DCF8091E80080FF83CF9091F300E9
:103E20008091F2002115310519F08830910550F08C
:103E300041E0089709F040E08091E8008E77809398
:103E4000E8006FCF44914093F10031962150310941
:103E50000196E8CF803809F054C08091E800877F50
:103E60008093E8008091B4038093F1009DCE81118E
:103E700048C01091B703123008F043C08091E800A9
:103E8000877F8093E8001093B4030E94A207112358
:103E900011F084E005C08091E30087FDFACF81E056
:103EA0008093B30342E061EC81E00E94C10742E2EB
:103EB00061EC84E00E94C10742E261EC82E00E9472
:103EC000C10742E260EC83E00E94C10742E261EC7C
:103ED00085E00E94C1078091B30313C08091B703AE
:103EE000813079F481E0933009F080E08093B2036F
:103EF0001092E9008091E800877F8093E8000E949B
:103F0000A2078091E80083FF0AC08091E800877FC4
:103F10008093E8008091EB0080628093EB00AA968A
:103F2000E3E00C943C340E94B91C2FEF84E39CE046
:103F3000215080409040E1F700C0000088E19CE003
:103F40000FB6F894A895809360000FBE9093600020
:103F5000FFCF882341F0809590919102892380932F
:103F600091020E945D1C0895882339F0909191027E
:103F7000982B909391020E945D1C08958823C1F1B3
:103F80009CEF980F913A78F4E8E2F2E0919189136E
:103F900003C0DF0111971C9242E0EE32F407B1F743
:103FA0000E945D1C089590E2980F983088F4877005
:103FB00021E030E0A90102C0440F551F8A95E2F7C5
:103FC000CA01809590919102892380939102E8CF54
:103FD0009BE5980F933028F490E080E00E94170949
:103FE0000895885A8B3120F490E080E00E94F20816
:103FF0000895CF93C82F8823B1F08CEF8C0F813AAE
:1040000000F5E8E2F2E08EE292E0DF012D91C217C6
:1040100061F08A179B07D1F76C2F86E292E00E942D
:10402000D8080E945D1CCF9108952191C21303C04E
:10403000DF0111971C928E179F07B9F70E945D1C34
:10404000EBCF80E28C0F883068F4C77021E030E05D
:1040500001C0220FCA95EAF780919102822B8093CA
:104060009102DFCFEBE5EC0FE33040F4F0E0E457F2
:10407000FE4F808190E00E941709D5CFC85ACB31FE
:1040800090F6EC2FF0E0EE0FFF1FE157FE4F80811E
:1040900091810E94F208C7CF1F93CF93DF93182F0F
:1040A000D0E0C0E0893311F4C0E5D0E0812F0E9458
:1040B000F91F209739F4812F0E94BE1FDF91CF9105
:1040C0001F9108958FE99FE00197F1F700C000006C
:1040D0002197EFCF0F931F93CF93DF93C62FD42F4A
:1040E000022FFC0182818823A9F06093BF030E9404
:1040F000CC089093BE038093BD03C77081E001C0DC
:10410000880FCA95EAF70E94B41FDF91CF911F91E3
:104110000F9108958091BF03681332C08091BD0351
:104120009091BE030E94B108883C910548F510E2C9
:104130001D0FCD17B9F080E28C0F883040F4C770A6
:1041400081E001C0880FCA95EAF70E94A91F1830C4
:1041500048F481E09D2F977001C0880F9A95EAF787
:104160000E94B41F802F0E944C20183070F6D77028
:1041700081E001C0880FDA95EAF70E94A91FC5CF38
:10418000C77081E001C0880FCA95EAF7F6CFA8E0B2
:10419000B0E0EDECF0E20C9415347C01DC011396F8
:1041A0008D919C911497892B39F08C9111969C914B
:1041B00089238F3F09F05FC52896EEE00C943134D7
:1041C0000E949913182F682F89819A810E94650D8A
:1041D00069817A81812F0E947A138C01F701928183
:1041E000992309F4B7C5980137572038310508F0ED
:1041F00019C1003108F78FEF93E00E942735811134
:10420000DBCF96ECE92E92E0F92E011146C0FE01BB
:10421000339686E0DF011D928A95E9F78AE0682EE1
:1042200087010F5F1F4FC7010E94273589831A82BC
:10423000882311F2813009F066C06701B2E0CB0E2D
:10424000D11CC8010E9427358A83882309F4B4CF82
:104250009FEF980F933080F5E3E0EE0EF11CC6015E
:104260000E9427358B83882309F4A6CF1C828E01F8
:104270000F5F1F4FD8012C91222391F2213009F0BA
:104280007CC011969C91119712968C919130E9F512
:104290000E5F1F4F0E944C203EC0E114F4E0FF0669
:1042A00009F48ACFC7010E942735811101C001504E
:1042B0002FEFE21AF20AA9CF76018430C1F602E0AC
:1042C00010E07601FFEFEF1AFF0AC6010E942735C2
:1042D000E1E0F0E0EC0FFD1FE00FF11F8083882389
:1042E00009F46ACF8C3741F4E2E0F0E0EC0FFD1FF7
:1042F000E00FF11F1082BBCF0F5F1F4F6701073028
:104300001105F9F659CF7801B2CF923039F40E5F2A
:104310001F4F0E94F91F0F5F1F4FACCF933029F43E
:104320000E5F1F4F0E94BE1FF6CF943019F00F5F33
:104330001F4FF1CF0E5F1F4F30E020E0B8016F5FDD
:104340007F4FF80141818053990B8A30910550F0DD
:104350002150310900F38FE99FE00197F1F700C088
:104360000000F6CF629EF001639EF00D11249C01C7
:104370002E0F3F1F842F8B01E1CFE22FF0E0EE568E
:10438000FE4F7490822F86958695869590E0FC016D
:10439000EE57FE4FC4902770D12C022E02C0D59448
:1043A000C7940A94E2F7A1E0CA22DD24FC01EE588A
:1043B000FE4FA490B12C022E02C0B594A7940A948B
:1043C000E2F7B1E0AB22BB24FC01EE59FE4F849032
:1043D000912C02C0959487942A95E2F7E1E08E2211
:1043E0009924C114D10419F081EE0E94F91FA1147F
:1043F000B10419F086EE0E94F91F872D0E944C200F
:10440000A114B10419F086EE0E94BE1FC114D1049C
:1044100019F081EE0E94BE1F8114910409F47BCF34
:104420008CE238CF0230F8E71F0709F4C0C068F506
:10443000011538E7130709F460C080E0013048E750
:10444000140709F45BC0F801E851FC47E730F105B7
:1044500008F487C41092BF03980130572332310506
:1044600008F01CC484E090E00E9435359093E3028C
:104470008093E202F801E150F047E232F10508F0E2
:10448000BAC0E252FA4C0C948C34043058E7150749
:1044900009F468C0B0F10530A8E71A07A1F69091B9
:1044A0009703892F8695869586958F5F8F71977074
:1044B000843008F07FC0880F880F880F892B809385
:1044C000970380919703887F91E009F490E08091B1
:1044D000970390FB80F9809397030E9405138091C6
:1044E000960380FF37C080919703869586958695C1
:1044F0001F928F9382E492E025C083E00E940B1309
:104500005BCE80919703982F987F79F088508093A5
:104510009703887F91E009F490E08091970390FBE6
:1045200080F9809397030E9405138091960380FF82
:1045300011C0809197038695869586951F928F93DB
:1045400082E192E09F938F930E9449070F900F9012
:104550000F900F90809197038695869586950E947F
:1045600052092ACE80919703982F96959695969505
:10457000933040F49F5F990F990F990F8770892BA3
:1045800080939703809197038160809397030E94A3
:1045900005138091960380FFDDCF80919703869568
:1045A000869586951F928F938AE292E0CBCF0E94E8
:1045B0003C1402CE9093970384CF26E241EE61EE45
:1045C000C7010E946A20F8CD27E245EE65EEF8CFDC
:1045D00026E241EE60EEF4CF27E245EE64EEF0CF46
:1045E00026E241EE62EEECCF27E245EE66EEE8CF42
:1045F00028E241E0EBCF8091E20281608093E20209
:1046000095C08091E30288608093E3028FC080911F
:10461000E2028260F3CF8091E2028460EFCF80916A
:10462000E2028860EBCF8091E3028160EDCF809160
:10463000E3028260E9CF8091E2028061DFCF809166
:10464000E2028062DBCF8091E2028064D7CF0E94D9
:10465000B91C8091E2028068D1CF8091E2028C6027
:10466000CDCF8091E3028360CFCF8091E2028E7F35
:10467000C5CF8091E302877FC7CF8091E2028D7F13
:10468000BDCF8091E2028B7FB9CF8091E202877F1C
:10469000B5CF8091E3028E7FB7CF8091E3028D7F0B
:1046A000B3CF8091E2028F7EA9CF8091E2028F7D0D
:1046B000A5CF8091E2028F7BA1CF0E94B91C80918F
:1046C000E2028F779BCF8091E202837F97CF809128
:1046D000E3028C7F99CF8091E20282FB992790F9C7
:1046E00021E0922790FB82F990FB83F987CF80919C
:1046F000E302982F909591708E7F892B90FB81F922
:1047000083CF9091E202892F8F7B96FF806476CFD2
:104710000E94B91C9091E202892F97FB87F980587B
:104720006DCF61E08EE090E00E943B356091E20247
:104730007091E30284E090E00E9459350E94B91C18
:104740003BCD60E0EFCF9091E202892F8F7E94FF06
:10475000806154CF9091E202892F8E7F90FF81601B
:104760004DCF9091E302892F877F93FF88604CCFD4
:1047700085E3B3C28091960380FF10C080919103BE
:10478000809581701F928F9385EC92E09F938F9319
:104790000E9449070F900F900F900F908091910306
:1047A00080FF2AC08E7F8093910360919103709166
:1047B000920380919303909194030E94DE1580915F
:1047C000960380FF0FC08091910381701F928F9399
:1047D00086E592E09F938F930E9449070F900F9078
:1047E0000F900F900E94731480910D03816080934D
:1047F0000D030E94B10EE0CC816080939103809103
:10480000960380FF0DC01F9281E08F938EE892E0A7
:104810009F938F930E9449070F900F900F900F90D6
:104820008091910361E086950E943217C5CC4FEAD2
:1048300057E169EB77E10E940D0ABECC49EB57E1E5
:104840006FEA77E1F8CF4AEF56E164E077E1F3CF22
:1048500044E057E16AEF76E1EECF40EE56E16DEECF
:1048600076E1E9CF4DEE56E160EE76E1E4CF46EC3D
:1048700056E163ED76E1DFCF43ED56E166EC76E19C
:10488000DACF4EE057E160E277E1D5CF40E257E181
:104890006EE077E1D0CF61E081E0C6CF65E082E0F5
:1048A0000E94C41789CC68E086E0FACF6EE089E008
:1048B000F7CF64E18FE0F4CF67E185E1F1CF61E00C
:1048C00088E1B2CF62E289E1EBCF61E083E2ACCF75
:1048D0006AE285E2E5CF0737ECE71E0799F1083772
:1048E000FCE71F07F1F1F70100811181992309F419
:1048F0005CC0C8010E949913D82E682FC8010E947D
:10490000650DB8018D2D0E947A130E94B40B182FEB
:10491000B82ED70112962C91129715964C91342FE0
:1049200032953F70892F82958F70C82ED12C8C3094
:1049300008F073C0F601E050FA4C0C948C3481E01E
:10494000911107C081E00E94A10D05C0992349F093
:1049500082E00E94AE0D43E062E081E00E94810DA2
:104960002BCC82E0F0CF02305CE7150761F003301A
:104970001C4709F0B8CF6FEF7FEF90E080E00E9416
:1049800059350E94931F90919603892F8E7F90FF37
:1049900081608093960380FF05C08EE093E00E94C3
:1049A000B0060ACC8CEF92E0FACFC8010E941F0D2E
:1049B000D82EA7CF092F0F70907F11F00295007F9E
:1049C000812F2223C9F0002369F090E2910F9830E3
:1049D00010F011110BC080919102082B00939102ED
:1049E0000E945D1C812F0E94F91F17C080919002C8
:1049F000082B00939002F4CF0E94BE1F002369F0A1
:104A00000095105E183010F0B11012C08091910224
:104A10000823009391020E945D1C38E0C31AD1085C
:104A200044E0C416D10408F0C7CB0E94EF11C4CBF8
:104A300080919002082300939002EDCF892F8F7010
:104A4000907F903211F08295807FB1E0BB120CC054
:104A5000222329F0363008F70E94B41FDECF35300C
:104A6000E0F60E94A91FD9CF222341F03323A1F3FE
:104A700040FFB8CF4F70F7014583EECF332389F362
:104A8000193349F4FFEF27EE33E0F1502040304076
:104A9000E1F700C00000812F0E94BE1FBECF892F0A
:104AA00086958695837061F0813009F0B6CF812FAD
:104AB0009370211102C080E090E00E94F208ADCF17
:104AC000812F9370211102C080E090E00E941709AD
:104AD000A4CF892F8370A1F521119FCF812F8295BB
:104AE00086958770880F880F412F4F70082E01C060
:104AF000440F0A94EAF7212F207114FF07C02FE01A
:104B000030E001C0220F8A95EAF720959695969598
:104B10009370923081F0822F842B933030F4809107
:104B20009202913029F0242B82230E94BA0D75CF76
:104B3000842B822BFACF242B809192028227F5CFEF
:104B40008695222311F0892F8170882309F465CF7F
:104B5000812F829586958770880F880F412F4F701F
:104B6000082E01C0440F0A94EAF7212F207114FF88
:104B700007C02FE030E001C0220F8A95EAF72095A8
:104B8000969596959370923081F0822F842B933076
:104B900030F48091E102913029F0242B82230E948D
:104BA0007E0D3BCF842B822BFACF242B8091E10208
:104BB0008227F5CF092F0F70222329F0802F0E9422
:104BC000AE0D812F49CF812F0E94A91F802F0E94F7
:104BD000A10D23CF812F41EF141789F1411750F018
:104BE00050EF1517B9F02223B1F13111FBCE892F07
:104BF0008F7129C0A2EF1A1749F1B3EF1B13F3CF3E
:104C000080E0222361F29F7181E001C0880F9A95B4
:104C1000EAF7C5CF222379F0353008F0FECE292FF0
:104C20002F7181E090E001C0880F2A95EAF79091FA
:104C3000E1028927B4CF363008F0EFCEF0CF892FCC
:104C40008F71222321F20E94AE0DE7CE892F8F7142
:104C50002223C9F3BCCF332359F0893309F01BCF8A
:104C6000EFEFF7EE23E0E150F0402040E1F711CF05
:104C7000892F8F71ACCF85E0F701DE01119601908D
:104C80000D928A95E1F7D70112962C9189819A812C
:104C9000211196CA0E941F0D182F9ACA0631BCE72F
:104CA0001B0741F5809191028A7A91E009F490E026
:104CB00090932E0269E2811165E386E292E00E9400
:104CC000D8080E945D1C78CA0631ECE71E07A1F5E2
:104CD00080912E0281114CCD89E2E8E2F2E09191BF
:104CE000891303C0DF0111971C92B2E0EE32FB077B
:104CF000B1F7E7CF0737FCE71F0709F420CE0837E5
:104D00002CE7120709F422CE01302CE7120709F430
:104D100038CE08F028CE01151C4709F0E4CD0E94DA
:104D2000B91C9FEFA4E3BCE09150A040B040E1F774
:104D300000C000000E948D0E809191028272F801E5
:104D4000E052F847E531F10508F0C5CDE45FF94CD4
:104D50000C948C34F801E851FC47E730F10508F079
:104D6000B3CFEF5DF94C0C948C341F93CF93DF934A
:104D700080915502807F09F04BC0809152028823B8
:104D800009F446C080918702C091560240915002BA
:104D9000509151026091530270915402D42FD52347
:104DA00016E0C817A9F190E061157105A9F1DF3F80
:104DB00099F1189FF001199FF00D1124DF01A95AF4
:104DC000BD4F11962C911197251326C02C912413B9
:104DD00023C012962C91129721111EC013962D916B
:104DE0003C91261B370B283C3105B0F480915502CD
:104DF0008F70806180935502E45AFD4F80818F70DF
:104E00008061808380E592E00E94C7200E94EE0CC2
:104E1000DF91CF911F91089501968770C2CFA1E1D4
:104E2000B0E0E5E1F7E20C9417348C0185E0F8017D
:104E3000DE011D9601900D928A95E1F7F801E2805E
:104E400080E5882E82E0982E4091530250915402C2
:104E50004115510509F430C1909150022091510241
:104E6000892F82238F3F09F427C1D080C180A3807E
:104E7000B480F0905202B501641B750BFF2009F459
:104E8000E7C080915502382F307F683C710508F0EB
:104E9000ABC0311178C0FE2C2C1114C09D1112C072
:104EA000E11010C08F70806180935502C4010E9490
:104EB000C72080915502F80185838F2D6196ECE023
:104EC0000C943334A114B104C9F18D2D8C218F3F82
:104ED000A9F181E08E2580FF05C04E2D6C2D8D2D12
:104EE0000E94CE0CA114B10459F18D2D8C218F3F5D
:104EF00039F181E08E25F82FF170BF2E80FF39C087
:104F00004E2D6C2D8D2D0E94CE0CA82E811131C0FE
:104F1000DD86CE868D859E850E94C813292F229519
:104F20002F70243078F49F702230A8F09923B9F0C4
:104F3000F8019581907F99F4FA2CBFCF80E0CBCF18
:104F400080E0D9CF2A5F2F70223068F0C8010E941C
:104F5000C720AB2CF1CF992311F0882369F3805E31
:104F6000883050F3F3CF803F38F3815F833070F7A0
:104F7000E3CFEE2009F4A1CF8091550281608093A8
:104F80005502F12C9ACF2C1105C09D1103C0EE20C3
:104F900009F477C0C8010E94D513882309F1EE20D7
:104FA000F9F080915502803270F0209150023091DA
:104FB000510238872F831986BB86AA868C87CE013B
:104FC00007960E94C72086E0F801A0E5B2E00190B4
:104FD0000D928A95E1F70E94B526FF24F3946DCFD8
:104FE000C8010E94C720F9CF31110AC080E592E0C4
:104FF0000E94C72086E0F40111928A95E9F7C1CF9B
:105000002C110EC09D110CC0E1100AC08583C8018F
:105010000E94C72086E0F40111928A95E9F74DCFEE
:10502000C8010E94D5138823D9F2EE20C9F28091DD
:105030005502803240F220915002309151023A8361
:1050400029831B82BD82AC828E83CE010196B9CFAB
:10505000683C7105F8F6FE2CEE2011F22C111EC0F2
:105060009D111CC08091550280FD0FC0982F907F2C
:1050700061F08583903F31F0982F907F905F8F7023
:10508000892B8583C8010E94C72086E0F801A0E52E
:10509000B2E001900D928A95E1F70FCFC8010E940E
:1050A000D513811190CF8091550281608093550274
:1050B000C8010E94C72001CFEE2009F491CFC8019A
:1050C0000E94D513F82E882309F48ACF86E0F801D0
:1050D000A0E5B2E001900D928A95E1F7809150022F
:1050E000909151020E94C8130E94B526E6CEA7E116
:1050F000B0E0EDE7F8E20C9420344B8B5C8B6D8BC9
:105100007E8B8F8B6111109290021A8A198A85E02A
:10511000FE017396DE011D9601900D928A95E1F7CE
:1051200086E0FE013D96DE01179601900D928A956C
:10513000E1F7CE0107960E940F27882359F016E069
:105140008091870290915602891343C06796E3E0ED
:105150000C943C3486E0FE013796DE0111960190F6
:105160000D928A95E1F78A859B85892B41F38F8182
:10517000988589238F3F19F32091560230E0C901A9
:10518000019687709927409187024817190671F494
:105190000E94B91C109256021092870286E0E0E548
:1051A000F2E0DF011D928A95E9F7C9CF96E0929F60
:1051B000D001939FB00D1124A95ABD4FFE01319625
:1051C00001900D929A95E1F7809356020E94EE0CA1
:1051D000B6CF819FC0011124895A9D4F0E940F278D
:1051E000882309F4B3CF8091870290E001968770FD
:1051F000992780938702A4CFAAE0B0E0E2E0F9E229
:105200000C941F34182F062F662339F10E94CC0806
:105210001E832DEF2F8321E0288781609A8789875D
:105220004E815F81688579858A850E947728002371
:10523000C9F00E94CC0819832DEF2A831B8281605C
:105240009D838C8349815A816B817C818D810E94F1
:1052500077282A96E4E00C943B340E94CC081E8305
:105260002CEFD8CF0E94CC0819832CEFE6CFA1E019
:10527000B0E0EDE3F9E20C941A34EE24E394F12C5F
:1052800005EB12E09E012F5F3F4F4AEA52E063E0D8
:1052900082E00E948F19C82E882339F100E080E057
:1052A0001DC0D090D402D00E2D2D30E0A9014E505B
:1052B0005D4F7A01E1E0F0E0EC0FFD1FE00FF11D22
:1052C0001081FA019081191BB12E1B149CF0912FB3
:1052D00017FD90E0191B111118C00F5F9091D302B8
:1052E0000917F8F281110E94CB0C8C2D2196E9E070
:1052F0000C943634BA94F70180818F5F808360E02C
:105300008D2D0E94FC288C2DE0CF1F5FF70180813E
:105310008150808361E08D2D0E94FC288C2DDBCF95
:10532000A5E0B0E0E6E9F9E20C941F340E94CC0855
:105330008C01809193029091940280179107A1F0C3
:105340008FEF89838A831B820E94CC088160782F2B
:105350009D838C8349815A816B818D810E9477283E
:1053600010939402009393022596E4E00C943B344E
:105370001F920F920FB60F9211242F933F934F93CA
:105380005F936F937F938F939F93AF93BF93CF93CD
:10539000DF93EF93FF93D091E900DF708091EC00F1
:1053A000C82FC17080FDC0E81092E9008091F00024
:1053B000877F8093F00078940E94CF1C1092E900C0
:1053C0008091F00088608093F000CD2BCF70C09367
:1053D000E900FF91EF91DF91CF91BF91AF919F9144
:1053E0008F917F916F915F914F913F912F910F908E
:1053F0000FBE0F901F9018951F920F920FB60F922D
:1054000011242F933F934F935F936F937F938F93C9
:105410009F93AF93BF93EF93FF938091E10082FF3F
:1054200015C08091E20082FF11C08091E1008B7F66
:105430008093E1002091A5032F5F822F62E30E94F9
:105440005834992309F4C0C02093A5038091DA0051
:1054500080FF28C08091D80080FF24C08091DA00AE
:105460008E7F8093DA008091D90080FFE3C080E1D5
:1054700089BD82E189BD09B400FEFDCF81E0809342
:10548000B30381E09CE00E94B0068091A6038111E5
:1054900009C00E9452070E94F3078091E2008460D5
:1054A0008093E2008091E10080FF1BC08091E200C8
:1054B00080FF17C08091E2008E7F8093E200809190
:1054C000E20080618093E2008091D8008062809346
:1054D000D80019BC85E08093B30389E09CE00E946A
:1054E000B0068091E10084FF2FC08091E20084FF2C
:1054F0002BC080E189BD82E189BD89B5982F91706B
:1055000080FFFBCF8091D8008F7D8093D800809161
:10551000E1008F7E8093E1008091E2008F7E809396
:10552000E2008091E20081608093E2008091B40308
:10553000882309F489C084E08093B3038DE09CE064
:105540000E94B0068091B3038091E10083FF2BC0DD
:105550008091E20083FF27C08091E100877F8093E4
:10556000E10082E08093B3031092B4038091E100E4
:105570008E7F8093E1008091E2008E7F8093E20035
:105580008091E20080618093E20042E060E080E090
:105590000E94C1078091F00088608093F00081E153
:1055A0009CE00E94B006FF91EF91BF91AF919F9157
:1055B0008F917F916F915F914F913F912F910F90BC
:1055C0000FBE0F901F9018951092A5038091A40311
:1055D000882309F43BCF8091B3038430C1F49091C8
:1055E000E9009F702091EC00822F817020FD80E8FF
:1055F000892B95E09093E9009091EB0090FF04C017
:105600009091EE0097FD08C08F708093E900109292
:10561000A4031CCF1092F1009091E80095FDFACF01
:105620009091E80090FFF0CF9091E8009E779093E2
:10563000E800EACF19BC1092B30385E09CE00E9419
:10564000B0061092A6032ECF8091E30087FD93E071
:105650009093B30373CF78941F921FB61F921124B7
:105660008F939F93AF93BF9380919F039091A003DB
:10567000A091A103B091A2030196A11DB11D809339
:105680009F039093A003A093A103B093A203BF91A3
:10569000AF919F918F911F901FBE1F9018951F92E1
:1056A0001FB61F9211248F939F93AF93BF93809146
:1056B0009E03811113C080919F039091A003A0913C
:1056C000A103B091A2034196A11DB11D80939F0338
:1056D0009093A003A093A103B093A203BF91AF91B5
:1056E0009F918F911F901FBE1F901895CDB7DEB769
:1056F000A6970FB6F894DEBF0FBECDBF85B7806802
:1057000085BF85B7806885BF84B7877F84BF0FB6A4
:10571000F894A89580916000886180936000109251
:1057200060000FBE80E890E00FB6F89480936100AF
:10573000909361000FBE85ED9DE0909325028093CC
:1057400024020E9452070E94F3078091E2008460C5
:105750008093E20078948091B3038823A1F01091A4
:10576000E9001F709091EC00892F817090FD80E816
:10577000182B1092E9008091E80083FD0E94CF1C55
:105780001F701093E90082E084BD93E095BD9AEF0D
:1057900097BD80936E001092CF021092D0021092AB
:1057A000D1021092D2020E94FF13811102C00E9406
:1057B000F51287988F988FE891E00197F1F700C074
:1057C00000008FB1881F8827881F80933C0180913B
:1057D0003C01882309F495C01092530188E080931E
:1057E00054010E94CC1181110E94AF3290913C0172
:1057F00081E098279093F602A82FA91BA093D402CA
:1058000090913C018093F70290913C018093D302E8
:1058100085988D9A86988E9AEFE8F1E03197F1F7A6
:1058200000C000002091F70248EF52E0FA018E2FED
:10583000841B821708F469C080913C0180913C016F
:1058400095E0811190E09093E00285E0891B8093C0
:10585000DF0207EC11E06CECE62E61E0F62ED801D9
:105860008D918D018F3F11F00E94B80AE016F1066C
:10587000B1F70CEC11E0F80181918F018F3F11F02D
:105880000E94B80AF1E0043D1F07A9F78AE0EBEF98
:10589000F2E0DF01282F1D922A95E9F7E5EDF2E00D
:1058A000DF011D928A95E9F70E945318811102C009
:1058B0000E94EC1782E090E00E94273580939603C7
:1058C00084E090E00E9435359093E3028093E202F9
:1058D0000E94601ABFEFE6E7F1E0B150E040F0400F
:1058E000E1F700C000000E94601A8091FB0280FF77
:1058F00018C06FEF7FEF90E080E00E9459350E9462
:105900008D0E88E0809353016ACF8FB185FB882785
:1059100080F97E9904C090E0892B819388CF92E032
:10592000FBCF83E090E00E9427350E94BA0D259AB4
:105930002D9882E88093800089E1809381008FEF29
:105940009FEF90938700809386000E945F180E94CB
:105950005F188091E4028111E7C08091960380FF77
:1059600014C08AED94E09F938F930E944907809121
:1059700096030F900F9080FF08C084EC94E09F93F3
:105980008F930E9449070F900F900E945318811126
:1059900010C08091960380FF08C08CE994E09F932B
:1059A0008F930E9449070F900F900E94EC170E945E
:1059B000D41788E090E00E942F3560939103709394
:1059C0009203809393039093940380910D038360DB
:1059D00080930D036E7FD1F48091960380FF08C001
:1059E00083E594E09F938F930E9449070F900F9057
:1059F0000E94D41788E090E00E942F3560939103B5
:105A00007093920380939303909394030E94130ADC
:105A10008091960380FF76C08AE394E09F938F93F2
:105A20000E944907809196030F900F9080FF6AC0F3
:105A30008091910381701F928F938DE194E09F93E9
:105A40008F930E944907809196030F900F900F90BB
:105A50000F9080FF57C08091910386951F928F937E
:105A600082E094E09F938F930E9449078091960370
:105A70000F900F900F900F9080FF44C08091920381
:105A80001F928F9388EE93E09F938F930E94490714
:105A9000809196030F900F900F900F9080FF32C06F
:105AA000809193031F928F938EEC93E09F938F933B
:105AB0000E944907809196030F900F900F900F90CE
:105AC00080FF20C0809194031F928F9384EB93E01A
:105AD0009F938F930E944907809196030F900F9098
