:100000000C94B0030C94C5170C94F7030C94F703ED
:100010000C94F7030C94F7030C94F7030C94F70378
:100020000C94F7030C94F7030C94A72C0C947B2DE1
:100030000C944A250C94F7030C94F7030C94F703E3
:100040000C94F7030C94F7030C94F7030C94F70348
:100050000C94F7030C94BC250C94F7030C94F70351
:100060000C94F7030C94F7030C94F7030C94F70328
:100070000C94F7030C94F7030C94F7030C94F70318
:100080000C94F7030C94F7030C94F7030C94F70308
:100090000C94F7030C94F7030C94F7030C94F703F8
:1000A0000C94F7030C94F7030C94F70329001E003B
:1000B0001F002000210022002B0014001A0008005D
:1000C00015001700E00004001600070009000A00F0
:1000D000E1001D001B0006001900050000000000E3
:1000E0004A00E300105F28002A00270026002500B0
:1000F000240023004C00130012000C0018001C0008
:10010000340033000F000E000D000B00E500380036
:100110003700360010001100000000004D00E20022
:10012000115F2C0035021E021F0220022102220252
:10013000005C1E001F002000210022004C00010076
:1001400050004F0052002F00C05C01000100010070
:1001500051002F02000000002602010001004C00A7
:100160002A0027022602250224022302010027007A
:10017000260025002400230031022E025E005D00CF
:100180005C00300001002D005B005A005900300275
:10019000000000002702620001004C0045003A0008
:1001A0003B003C003D003E00C25C1E021F022002DC
:1001B00021022202C35CAC00AB00A9004B002D025F
:1001C000A800AD00AE00AA004E002D000000000007
:1001D00026020100010001004400430042004100EA
:1001E00040003F00010027022602250224022302CC
:1001F0003100C95CC75CC55C4A002E000100CA5CC6
:10020000C85CC65C4D002E02000000000100010029
:1002100001000100010001000100010001000100D6
:1002200001000100010001000100010001000100C6
:1002300001000100010001000100010001000100B6
:1002400001000100000000000100010001000100A8
:100250000100010001000100010001000100010096
:100260000100010001000100010001000100010086
:100270000100010001000100010001000100010076
:10028000000000000100010001000100000000006A
:10029000000000002A2B28000000000000000000E1
:1002A0000000000000000029000000002C1E342087
:1002B000212224342627252E362D3738271E1F20AD
:1002C0002122232425263333362E37381F040506F2
:1002D0000708090A0B0C0D0E0F1011121314151636
:1002E0001718191A1B1C1D2F3130232D3504050634
:1002F0000708090A0B0C0D0E0F1011121314151616
:100300001718191A1B1C1D2F3130354C0000000026
:1003100000000000000000000000000000000000DD
:1003200000000000000000000000000000000000CD
:1003300000000000000000000000000000000000BD
:1003400000000000000000000000000000000000AD
:10035000000000000000000000000000000000009D
:10036000000000000000000000000000000000008D
:10037000000000000000000000000000000000007D
:10038000000000000000000000000000000000006D
:10039000000000000000000000000000000000005D
:1003A000000000000000000000000000000101014A
:1003B0000101010001010101000000000000000036
:1003C0000000000000000100010001010101010125
:1003D000010101010101010101010101010101010D
:1003E0000101010101010100000001010000000004
:1003F00000000000000000000000000000000000FD
:1004000000000000000000010101010000047F3F26
:100410001F643214643214783C1E1E140A05222311
:10042000252628292A2C2D2F3032333536383A3BD1
:100430003D3E4042434547494A4C4E505153555723
:10044000595A5C5E6062646668696B6D6F71737542
:1004500077797B7D7F81838587898A8C8E90929442
:1004600096989A9C9E9FA1A3A5A7A8AAACAEAFB14F
:10047000B3B4B6B8B9BBBCBEBFC1C2C3C5C6C7C999
:10048000CACBCCCDCED0D1D2D2D3D4D5D6D7D7D853
:10049000D9D9DADADBDBDBDCDCDCDCDCDDDDDDDDA5
:1004A000DCDCDCDCDCDBDBDBDADAD9D9D8D7D7D6AD
:1004B000D5D4D3D2D2D1D0CECDCCCBCAC9C7C6C564
:1004C000C3C2C1BFBEBCBBB9B8B6B4B3B1AFAEACAA
:1004D000AAA8A7A5A3A19F9E9C9A98969492908E55
:1004E0008C8A89878583817F7D7B79777573716F2E
:1004F0006D6B6968666462605E5C5A59575553510A
:10050000504E4C4A4947454342403E3D3B3A3836BF
:10051000353332302F2D2C2A292826252322FFAAD5
:100520007F554000000000000000000000010101B4
:10053000010101010101020202020202020203039F
:100540000303030303040404040405050505050669
:100550000606060607070707080808080909090A22
:100560000A0A0B0B0B0C0C0C0D0D0D0E0E0E0F0FC3
:10057000101010111112121313141415151616174A
:1005800017181819191A1A1B1C1C1D1D1E1F1F20B5
:10059000212122232324252526272828292A2B2CFC
:1005A0002C2D2E2F30313132333435363738393A1D
:1005B0003B3C3D3E3F404142434445464748494B12
:1005C0004C4D4E4F50525354555758595A5C5D5EDE
:1005D000606163646567686A6B6C6E6F7172747674
:1005E00077797A7C7D7F8182848687898B8D8E90D6
:1005F00092949597999B9D9FA1A2A4A6A8AAACAE00
:10060000B0B2B4B6B9BBBDBFC1C3C5C8CACCCED0E9
:10061000D3D5D7DADCDEE1E3E6E8EAEDEFF2F4F792
:10062000F9FCFF0403300000001C0349007200695C
:1006300000730020004B006500790062006F0061CC
:10064000007200640000000E034B0065006500624C
:100650000069006F0000000403090409025B000345
:100660000100A0FA090400000103010100092111A1
:100670000100012240000705810308000A09040265
:1006800000010300000009211101000122360007CA
:1006900005840320000A0904010002030000000988
:1006A0002111010001222200070582032000010719
:1006B000050303200001120110010000000810CB07
:1006C00056120003010203010660FF0961A101093E
:1006D00062150026FF009520750881020963150048
:1006E00026FF00952075089102C005010980A1012F
:1006F00085031601002603001A81002A8300751065
:1007000095018100C0050C0901A1018504160100B5
:10071000269C021A01002A9C02751095018100C0D6
:1007200005010906A101050719E029E715002501C2
:100730009508750181029501750881010508190167
:10074000290595057501910295017503910105072C
:10075000190029FF150026FF00950675088100C0C5
:1007600011241FBECFEFDAE0DEBFCDBF04B603FE1B
:1007700027C08091970290919802A0919902B09120
:100780009A028730904BA740B04BD1F41092970259
:10079000109298021092990210929A0214BE84B795
:1007A000877F84BF0FB6F894A89580916000886118
:1007B00080936000109260000FBEE0E0F8E30995BE
:1007C00011E0A0E0B1E0EEECF0E602C005900D9281
:1007D000A238B107D9F722E0A2E8B1E001C01D922A
:1007E000A739B207E1F70E9456290C9403300C9404
:1007F000000080E290E00E94C92F8F31954459F4A7
:1008000082E290E00E94BB2F91E0883009F090E0F6
:10081000892F8170089580E0FCCFCF93C82F6FEFB0
:100820007FEF882311F06FE175E480E290E00E9491
:10083000ED2F6FEFC11168E082E290E0CF910C9450
:10084000CF2F80E00E940D040C9422241F93CF939D
:10085000DF93EC01162FE881E150E33108F08CC002
:10086000F0E0EB5FFF4C0C94872F198288E08A83BD
:10087000612FCE01DF91CF911F910C944A2889817D
:10088000813009F079C00E9486250E948D2F6A83ED
:100890007B838C839D83ECCF4B816A8189810E940D
:1008A000EB149827892798279D838C83E1CF2C818F
:1008B0003D813227232732274B816A8189810E941B
:1008C0000415D6CF0E941915D3CF0E94AE15898387
:1008D000CFCF0E94B0159827892798279A838983BC
:1008E000C7CF6B8170E089819A81AE014C5F5F4F09
:1008F0009827892798270E94B315BACF6B8170E09B
:1009000089819A81AE014C5F5F4F9827892798278C
:100910000E94DA15ADCF0E940516AACF0E94D91405
:10092000D6CF6B8170E089819A81AE014C5F5F4FB9
:100930009827892798270E9451159ACF6B8170E0DC
:1009400089819A81AE014C5F5F4F9827892798274C
:100950000E9477158DCF0E9421048ACF0E944A28D9
:100960002FEF81EE94E0215080409040E1F700C0ED
:1009700000000E94E0257CCF8FEF888379CF0E9412
:10098000F903811107C00E9419150E94051681E024
:100990000C940D0408950E945C0C8FE19EE4019775
:1009A000F1F700C000008FE19EE40197F1F700C06D
:1009B00000000E945C0C80E00E94710B80FF04C06C
:1009C0000E9421040C94E02508950E94CB040E940B
:1009D000BF040C946E0B0C946F0BFB0122818031D1
:1009E000FFE59F0781F081313FE59307C1F02223A6
:1009F000D9F09C0122513F4520313105A8F48251A4
:100A00000E9415160AC081E0222359F00E94EB21B2
:100A100043E062E081E00E94170680E0089582E0F2
:100A2000F3CF0E940C22F4CF0C942105811106C053
:100A30008EE4611101C08BE40C94441B089581E0A5
:100A4000089581E008951F93CF93DF9300D000D0E5
:100A50000F92CDB7DEB749835A836B832091D401BF
:100A600089819A8121111BC06623A9F00E94DE2290
:100A7000182F682F89819A810E94872269817A8143
:100A8000812F0F900F900F900F900F90DF91CF91CB
:100A90001F910C94A1150E94B522182FEFCF0E9430
:100AA000DE2269817A81EDCFFC0140815181628132
:100AB000738184810C9423051F93CF93DF9390E07F
:100AC000FC01E457FD4F1491FC01E457FC4FD49115
:100AD000845F9C4FFC01C491DD2319F081EE0E94DC
:100AE000101ACC2319F086EE0E94101A812F0E9452
:100AF000441BCC2319F086EE0E94F51ADD2331F059
:100B000081EEDF91CF911F910C94F51ADF91CF9177
:100B10001F910895FF920F931F93CF93DF93EC01E2
:100B2000F62E8881882331F18E010F5F1F4F8130AF
:100B300041F4C9818C2F0E94101A8C2F0E94F51A43
:100B400005C0823079F489810E94101AE80121964B
:100B50008F2D815030F3EFE9FFE03197F1F700C0BE
:100B60000000F7CF833011F48981E8CF0E945C0543
:100B70008E01ECCFDF91CF911F910F91FF900895DF
:100B800060E00C948A058F929F92AF92BF92CF92B1
:100B9000DF92EF92FF920F931F936B017C0181E034
:100BA00090E0A0E0B0E04C015D0104C0880C991C0D
:100BB000AA1CBB1C4A95D2F7B501A4014C015D01EA
:100BC00004C0880C991CAA1CBB1C2A95D2F7482982
:100BD00059296A297B2904C0880F991FAA1FBB1FA6
:100BE0000A95D2F78A019B010C211D212E213F215C
:100BF000041715072607370789F48C299D29AE2984
:100C0000BF29BC01CD011F910F91FF90EF90DF90A4
:100C1000CF90BF90AF909F908F90089580959095C2
:100C2000A095B0958C219D21AE21BF21EACF0F93D5
:100C3000382F262F6091350270913602809137024D
:100C400090913802042F432F0E94C3050F910C94FA
:100C5000C5210E9474140C94EB04E82FE295EF7008
:100C6000F0E032A1282F2F7081E090E001C0880FC2
:100C70002A95EAF78095832382A30895CF92DF9285
:100C8000EF92FF92863028F5811124C09091800068
:100C90009F7D90938000282F30E0AFEFBFEF0E9440
:100CA000942F25E030E040E050E00E94652FC9011C
:100CB0002C3764E1360790F469E070E00E943D2F24
:100CC00070938B0060938A00FF90EF90DF90CF903D
:100CD000089585E0909180009062DBCF2A50374DD7
:100CE0004F4F5F4F942F832F722F662725EF38E2E7
:100CF00041E050E00E94652F69017A01CA01B90103
:100D00000E942D2F9B01AC01C701B6010E942D2F1F
:100D1000672F782F892F99276115710521E08207A8
:100D2000910571F66FEF7FEFCBCF269A86E30E9495
:100D30002D0682E28093800089E1809381008FEF0D
:100D40009FEF90938700809386000C94E8260E9482
:100D50002824811102C00E94AB240E9495060E94A3
:100D60005E140C94E50408950C94B3060C94B40638
:100D700008950E94C71D0E94B8062FEF84E39CE0EF
:100D8000215080409040E1F700C0000087E797E7DE
:100D900090930108809300080C94E0250F931F9313
:100DA000CF93DF938C010E945405EC01B8010E949F
:100DB000ED04882309F4C9C0B801CE010E94D01601
:100DC000882309F4C2C0CA3C8CE5D80709F4FEC0E8
:100DD00008F051C0C33CECE5DE0709F4D0C040F593
:100DE000C5318CE5D807A8F4C2309CE5D90708F0D6
:100DF00051C1C115ECE5DE0709F4A2C0C130DC45E4
:100E000009F4A9C0C801DF91CF911F910F910C94F3
:100E10001F05C6318CE5D80709F4AEC1C23CDC45DC
:100E200089F7F8018281811190C00E94E6128DC07D
:100E3000C63CECE5DE0709F4B8C078F4C43C8CE5A8
:100E4000D80709F4A7C0C53CDC45E1F6F80182816A
:100E500081117BC00E94F20F78C0F8018281C83CEA
:100E6000FCE5DF0709F4ADC008F4A6C081116DC030
:100E70000E942C106AC0C13DECE5DE0709F4D9C020
:100E800070F5CD3C8CE5D80709F4AFC088F4CB3CB5
:100E9000ECE5DE0709F4A1C0CC3CDC4509F0B2CF9B
:100EA000F8018281882309F450C00E947B0E4DC056
:100EB000F8018281CF3CFCE5DF0709F4ACC008F4FF
:100EC0009DC0882309F441C00E94620E893028F039
:100ED0000E94620E8E3008F465C089E08CC0C53D6A
:100EE000ECE5DE0709F4C8C0B0F4F8018281C33D27
:100EF000FCE5DF0709F4BBC008F4ABC0882329F187
:100F00000E94620E893128F00E94620E823208F43B
:100F100049C089E170C0CD3DECE5DE0709F4B3C0FE
:100F2000CE3DFCE5DF0721F1CC3DDC4509F06ACF81
:100F3000F8018281882349F080E00E94202A05C0C0
:100F4000F801828181110E94B90680E0DF91CF9182
:100F50001F910F910895F80182818823B1F3909138
:100F60004A02892F8E7F90FF816080934A02EDCFE5
:100F7000F8018281882349F30E94AB24E6CFF8016F
:100F80008281882311F30E947323827259F00E9498
:100F9000D812DBCFF80182818823B9F20E94732333
:100FA0008272A9F30E94CB12D0CFF8018281811105
:100FB000CCCF0E94FF0FC9CF8111C7CF0E940E1066
:100FC000C4CF8111C2CF0E941D10BFCFF801828112
:100FD0008111BBCF0E943B10B8CFF80182818823DA
:100FE00009F4B3CF0E946A0EB0CFF8018281882342
:100FF00009F4ABCF81E00E94DB12A7CF882309F46C
:10100000A4CF0E94620E823020F00E94620E8530D2
:1010100048F282E0F0CF882309F497CF0E94620E55
:10102000863028F00E94620E883008F4BBCF86E03C
:10103000E2CFF8018281882309F487CF0E94620EF3
:101040008F3028F00E94620E843108F4ABCF8FE01D
:10105000D2CF882309F479CF0E94620E853128F01F
:101060000E94620E873108F49DCF85E1C4CF8823AA
:1010700009F46BCF88E1BFCFF8018281882309F49E
:1010800064CF83E2B8CFF8018281882309F45DCF71
:1010900082E053CFF8018281882309F4B3CE0E9405
:1010A0002824811102C00E94AB240E943B2490E0BE
:1010B0009093880280938702FE01E350FC45809163
:1010C00087028160E231F10538F4E85EFF4C0C9450
:1010D000872F8091870282608093870280918702A8
:1010E0000E943F240E94C71D30CF809187028460F8
:1010F000F3CF809187028860EFCF80918702806173
:10110000EBCF809187028062E7CF80918702806475
:10111000E3CF809187028068DFCF809187028C6067
:10112000DBCF809187028E7FD7CF809187028D7F22
:10113000D3CF809187028B7FCFCF80918702877F2B
:10114000CBCF809187028F7EC7CF809187028F7D22
:10115000C3CF809187028F7BBFCF809187028F772B
:10116000BBCF80918702837FB7CF90918702892F71
:1011700097FB87F98058B0CF0E947323F8019281C2
:10118000992381F08A7A91E009F490E090938201AA
:10119000811106C089E20E944E230E94BF23D5CE52
:1011A00085E3F9CF80918201811104C089E20E9418
:1011B0005523F3CF85E3FBCF90E080E008950895B9
:1011C000FC01EE0FFF1FE45FFB4F859194910895A2
:1011D000CF93DF930E94A1150E94D00AEC018115E4
:1011E00021E5920708F049C0811530E5930708F022
:1011F00032C1883E910508F5803E910570F5883A28
:10120000910570F4853A910508F0B0C081309105E0
:1012100021F1009711F1049700F5D0E0C0E01DC066
:101220008F3B910508F4ADC0805C9109C03CD105AD
:10123000A0F30E94E008EC0110C08115904388F4EF
:10124000C11580E2D80708F0FDC0C03FD10528F3E2
:10125000CF3FD10509F008F4F3C0CE01DF91CF9163
:101260000895C11590E4D90708F0F2C0CE0199277E
:10127000D3FFEBC0EC01D86CF0CF811529E59207C4
:1012800060F5811538E5930708F02BC1811544E519
:10129000940778F4C11583E5D80708F009C1C11592
:1012A00092E5D90708F0F3C0DC2FCC27C16FD06AD4
:1012B000D4CF811525E5920708F40EC1811536E5D6
:1012C000930708F0AACF0E944B0BC82FD0E0DC2F69
:1012D000CC27CC27DF71D062C0CF8D3B9C4509F471
:1012E00005C1CE3B8CE5D807E0F4CB3B9CE5D907A4
:1012F00009F4FFC008F000C1C1153AE5D30708F0B2
:101300008CCF8C2F8F700E944B0B34E0D695C795F5
:101310003A95E1F79C2F9F70C82FCF70C06ED92FE0
:1013200098C0C03C4CE5D40709F4E9C060F4CE3B5A
:101330009CE5D90709F4E6C0CF3BDC4509F06DCF49
:10134000C0E0D2ED8ACFCE0190568115904208F0D0
:1013500064CF8D2F8F710E944B0B90E0982F8827C0
:1013600088279F719C012C2BE901B5CF853A910507
:1013700009F4CBC0863A910509F0CAC0C2E8D0E4AE
:101380006CCF883A910509F4C6C0893A910509F4F1
:10139000C5C08A3A910509F4C4C08B3A910509F495
:1013A000C3C08C3A910509F4C2C08B3B910509F486
:1013B000C1C08C3B910509F4C0C08D3A910509F478
:1013C000BFC0803B910509F4BEC08E3A910509F477
:1013D000BDC08F3A910509F4BCC0813B910509F469
:1013E000BBC0823B910509F4BAC0833B910509F467
:1013F000B9C0843B910509F4B8C0853B910509F457
:10140000B7C0863B910509F4B6C0873B910509F446
:10141000B5C0883B910509F4B4C0893B910509F436
:10142000B3C08D3B910509F4B2C08E3B910509F420
:10143000B1C08A3B910509F4B0C0C0E0D4E40DCF3F
:10144000D0650BCFCE019F70F4CEEC01D06C05CFF0
:10145000DF70D06A02CFE4E096958795EA95E1F7D0
:1014600083702C2F26952695237040E2249F9001AF
:101470001124382B8C2F8370C1E0D0E002C0CC0F38
:10148000DD1F8A95E2F7C22BD32BDC68E6CECE01B6
:101490008370992721E030E002C0220F331F8A9524
:1014A000E2F7C695C69580E2C89FE0011124EBCF14
:1014B000CE018370992721E030E002C0220F331F54
:1014C0008A95E2F7C695C69590E2C99FE00111247E
:1014D000C22BD32BDA68C1CED82FCC27C46FD06AE9
:1014E000BCCED82FCC27C06FD06AB7CEC0E0D1ED2C
:1014F000B4CEC0E0D4EDB1CEC0E0D5EDAECEC0E00C
:10150000D3EDABCEC0E0D0EDA8CEC1E8D0E4A5CEFF
:10151000C3E8D0E4A2CEC2EED4E49FCEC9EED4E4B8
:101520009CCECAEED4E499CEC5EBD4E496CEC6EBFD
:10153000D4E493CEC3EBD4E490CEC4EBD4E48DCE0C
:10154000C7EBD4E48ACECCECD4E487CECDECD4E4A3
:1015500084CEC3E8D5E481CECAE8D5E47ECEC2E924
:10156000D5E47BCEC4E9D5E478CEC1E2D6E475CE2D
:10157000C3E2D6E472CEC4E2D6E46FCEC5E2D6E4CE
:101580006CCEC6E2D6E469CEC7E2D6E466CECFE63C
:10159000D4E463CEC0E7D4E460CECAE2D6E45DCE44
:1015A0008238910549F1B0F48133910509F462C0A4
:1015B00048F48932910509F456C08A32910509F43C
:1015C00060C008958533910509F446C089339105BB
:1015D00099F00895833E910531F138F4803E9105EC
:1015E00091F0823E9105B1F00895863E910521F17A
:1015F000873E910551F10895209187022370D9F01B
:1016000080EE90E008952091870220FF14C089E3C6
:1016100090E008952091870222FF0DC024FD09C0AB
:1016200083EE90E008952091870222FD31C024FFCF
:1016300002C090E080E008952091870223FFFBCF55
:1016400024FDF7CF87EE90E008952091870223FFD5
:10165000EECF86EE90E008952091870225FFEBCF34
:1016600089E290E008952091870225FFE4CF85E389
:1016700090E008952091870226FFDDCF8AE290E076
:1016800008952091870226FFD6CF81E390E0089548
:1016900082EE90E008959091870292FF06C0282F75
:1016A0002871283069F4877F846093FF06C0282F53
:1016B0002871283161F4877E846194FD877E0895C6
:1016C000282F2471243089F78B7F8860EECF282F54
:1016D0002471243191F78B7E8861EFCF08950895AE
:1016E0000895E82FF0E0E757FE4F808108950895B0
:1016F000CF93DF9380914A028B6080934A0280915E
:1017000000018091000195E0811190E090935902D1
:1017100085E0891B80935802A4E3B1E061E070E0AA
:101720008D91E82FE295EF70F0E041A18F709B0161
:1017300001C0220F8A95EAF7922F9095942391A3E6
:1017400082A1822B82A381E0A933B80749F7AEE2D8
:10175000B1E044E351E0C1E0D0E08D91E82FE295A3
:10176000EF70F0E061A18F709E0101C0220F8A9599
:10177000EAF7922F9095962391A382A1822B82A3C0
:101780004A175B0751F7E9E8F1E083E991E011922C
:101790008E179F07E1F785E00E94920CDF91CF91B1
:1017A0000C94A7066F927F928F929F92AF92BF92F6
:1017B000CF92DF92EF92FF920F931F93CF93DF931D
:1017C00024E831E044E3E42E41E0F42E712CCC24F3
:1017D000C394D12CE90179919E01DE011E92F7019B
:1017E00081917F01E82FE295EF70F0E091A18F7079
:1017F000860101C0000F8A95EAF7892F802B81A30B
:1018000082A1602E6094862182A380EA8A95F1F7F6
:101810009EE2A92E91E0B92E50E040E0E5016991E9
:101820005E01862E82948FE08822912CE40188A1AB
:1018300090E06F7002C0959587956A95E2F7812CCC
:1018400080FD06C04601042E01C0880C0A94EAF708
:101850008C91882A8C924F5F5F4F46305105F1F68C
:1018600081A1862181A382A1082B02A381E09C9102
:10187000971301C080E0782AD1E029383D0709F0AC
:10188000A9CF6091590270E067577E4F272D45E040
:1018900084E891E00E94930C872DDF91CF911F91F6
:1018A0000F91FF90EF90DF90CF90BF90AF909F90FF
:1018B0008F907F906F900895CF930E94D20BC82F86
:1018C0000E94CD0C882311F18091580290E0875737
:1018D0009E4F0E94280D811116C0809183018F5F59
:1018E00080938301863050F0E0915802F0E0E75792
:1018F000FE4F108211821282138214820E942906E6
:101900008C2FCF91089510928301F8CF80915902C6
:1019100090E087579E4F0E94530D0E9474140E94BE
:10192000700BEECF0895FF920F931F93CF93DF9329
:10193000F82E092F162FD72FC42F222349F081E02C
:10194000809395010E947A2590939401809393014E
:10195000809195018823A1F0809193019091940149
:101960000E949225069760F0EF2DF02FA12FBD2F3A
:10197000CE0FDF2FD11DEC17FD0741F4109295011A
:10198000DF91CF911F910F91FF90089581918D93D9
:10199000F2CF80988FB18170089580919601811166
:1019A00011C08091D80080618093D8008AE18A9527
:1019B000F1F700C09091D900892F817090FF82E0EB
:1019C0008093960181E090919601913009F080E03A
:1019D00008950E94C90C809300018091000166E087
:1019E000882349F080E00E94110E0E94CD0C8823CC
:1019F00021F00C94FF0C86E0F6CF0C94050D62E00C
:101A000070E081E091E00C94721762E070E081E098
:101A100091E00C947B170E941212882361F080EAF7
:101A200091E00E94181281E090E00E945418892BE6
:101A300011F40C941512089580919F01883039F4A7
:101A400060E080EA91E00E942D1310929F010895BA
:101A5000CF93DF93D82FC92F0E940B0D90E080E029
:101A60000E9454180097E9F4ED2FFC2FDC01A756D3
:101A7000BE4F2C912193019685309105B9F70E94B4
:101A80005D27882361F00E94A027809398018EE94A
:101A900091E00E94B41481E0DF91CF91089580E03D
:101AA000F4CF80E0F9CFCF93DF93D82FC92F0E94D6
:101AB0001C0DED2FFC2F90E080E02191DC01A7565A
:101AC000BE4F2C93019685309105B9F7809198010E
:101AD0000E943E068EE991E0DF91CF910C94AF1405
:101AE000AF92BF92CF92DF92EF92FF920F931F932C
:101AF000CF93DF93362FE72E282FF82EE82FF0E034
:101B0000711110C0ED5DFA4F6491762F862FDF9131
:101B1000CF911F910F91FF90EF90DF90CF90BF90EA
:101B2000AF900895072F10E046E0649FC001112494
:101B3000CFEFD0E0BE010E943D2FAB01832F90E09C
:101B4000880F991F35E5349FB001359F700D112422
:101B5000861B970B982F990F980FBE01601B710B76
:101B60006E9FD0016F9FB00D7E9FB00D11248B2F03
:101B70009E9DB0011124672F77276E01C61AD70AE0
:101B8000B6016E9F60016F9FD00C7E9FD00C112418
:101B90005E01A91AB108A09EB001A19E700DB09E71
:101BA000700D1124672F7727C61BD70BCE9F80019E
:101BB000CF9F100DDE9F100D1124712F4230510563
:101BC00009F148F44115510569F041305105F1F032
:101BD0007B2F8D2D07C044305105D9F0F0F04630F1
:101BE0005105B1F7E22FF0E0ED5DFA4F6491E72F78
:101BF000F0E0ED5DFA4F7491E82FF0E0ED5DFA4F03
:101C0000849185CF2B2F812F7F2DECCF722F2D2DFF
:101C1000E9CF212F7B2F8F2DE5CF7D2D2B2FFBCFD4
:101C200008958093AF01609315010895CF93DF93DA
:101C3000762FE901682F842F0E94700D362F272FF1
:101C4000398328838A83DF91CF91089580915A0246
:101C5000982F9E7F29F48170826080935A020895A4
:101C60008A34E8F381708864F8CF88E090E00C94BF
:101C7000C32FCF92DF92EF92FF926B017C010E9403
:101C8000260EB701A60188E090E0FF90EF90DF906C
:101C9000CF900C94E12FEAE5F2E083E0808311829B
:101CA0008FEF828383831482A7EBB1E012968C912D
:101CB0001297836012968C936081718182819381E7
:101CC0000C94390E80915A0280FF02C086950895C7
:101CD00080E0089580915E02833018F48F5F8093D6
:101CE0005E0260915A0270915B0280915C02909159
:101CF0005D020C94390E80915E02882319F08150A8
:101D000080935E0260915A0270915B0280915C0246
:101D100090915D020C94390E6091150170E08091F4
:101D20005A0280FF0AC08091AF0123E0829FC00168
:101D30001124815A9D4F0C9459148091AE019091B9
:101D4000140123E0829FF0011124E15AFD4F89170D
:101D500050F71182108212828F5F3396F8CF9091E4
:101D60005A0290FF14C09091AE012091140133E00B
:101D7000939FF0011124E15AFD4F921710F00C943B
:101D80008C0E8183608342839F5F3396F6CF0895E4
:101D9000CF93DF9300D00F92CDB7DEB790915A0268
:101DA00090FF0AC09E012F5F3F4F0E94160E4B818D
:101DB00069818A810E94AF0E0F900F900F90DF9182
:101DC000CF910895CF93DF93EC01EC81F0E0E25ED8
:101DD000FB4F4491EAE5F2E0628181810E94C80EE6
:101DE0008C818F5F8C83DF91CF910895CF93DF93A8
:101DF000EC01EAE5F2E0438162818C810E94C80E29
:101E00008C818F5F8C83DF91CF9108950F931F9307
:101E1000CF93DF9300D00F92CDB7DEB78C018091C6
:101E2000A80181110AC09E012F5F3F4F4FEF6FEF56
:101E30000E94160E8A818093A801F80164816130A6
:101E400069F08091A80140E0662361F040E06230D3
:101E500011F44091A80180E060E004C06091A80105
:101E600040E080E00E94AF0EF801848190E001968E
:101E700063E070E00E94512F84830F900F900F90C9
:101E8000DF91CF911F910F910895AF92BF92CF92A2
:101E9000DF92EF92FF920F931F93CF93DF9300D0C7
:101EA0000F92CDB7DEB7182FF62E042FE22E9091A9
:101EB0005A0290FF3AC0E92FE695AE2FB0E0A25C3F
:101EC000BE4F8C918093B7019E7F9230E1F59E01C9
:101ED0002F5F3F4F812F0E94160E4B8169818A81AF
:101EE0000E94AF0E80915B02811308C080915C025A
:101EF0008F1104C080915D02801729F08091B90193
:101F000082608093B90110935B02F0925C020093AF
:101F10005D02EE2051F060915A0270915B02809157
:101F20005C0290915D020E94390E0F900F900F900D
:101F3000DF91CF911F910F91FF90EF90DF90CF90A5
:101F4000BF90AF900895823019F400915D02CACF1E
:101F5000863019F410915B02C5CF8930D9F38931ED
:101F600009F6E9518E2F8170D82EE695F0E0E25EF9
:101F7000FA4FA590B490C12CBB2460911301C616F2
:101F800018F00E948C0EAECF2C2D30E0A29EC00126
:101F9000A39E900DB29E900D112470E00E943D2FE3
:101FA000812FD11013C0860F4091AE01420F532FE5
:101FB000511D9A01220F331F240F351F215A3D4F07
:101FC000402F6F2D0E94160EC394D7CF861BECCFE7
:101FD000EAE5F2E09181282F4381628188E0890F50
:101FE0000C94450F81E00C94E80FEAE5F2E0918152
:101FF000282F4381628188EF890F0C94450F81E07F
:102000000C94F50FEAE5F2E0628121E1620F08F439
:102010006FEF282F438181810C94450F81E00C9450
:102020000210EAE5F2E0628121E1621B08F460E05F
:10203000282F438181810C94450F81E00C9411106D
:10204000EAE5F2E0438121E1420F08F44FEF282F47
:10205000628181810C94450F81E00C942010EAE5A7
:10206000F2E0438121E1421B08F440E0282F628125
:1020700081810C94450F81E00C942F1020E00C948A
:10208000450FEF92FF921F93CF93DF93EC0110E087
:10209000EE24EA94F12C60911301161770F00E945F
:1020A0008C0E9A818C8190FF27C08F5F8C83DF918B
:1020B000CF911F91FF90EF9008952091AE01422F94
:1020C000410F5527551FCA019A01220F331F280FB0
:1020D000391F215A3D4F70E0C7010E94512F962FA2
:1020E0008C8140915D0260915C02199F800D1124EA
:1020F0000E94160E1F5FCFCF8150D8CF9F92AF9214
:10210000BF92CF92DF92EF92FF920F931F93CF93E4
:10211000DF938C01FC018281BB24BA9480FD02C054
:10212000BB24B394F801848181110BC0F1E0BF128C
:1021300029C08091130181508093AA0181E0F801A8
:102140008483A12C80911301A816F8F00E948C0EB4
:102150008091AA0191E0B9125AC0811152C08091B8
:10216000130181508093AA01F8011482DF91CF916D
:102170001F910F91FF90EF90DF90CF90BF90AF90A5
:102180009F9008951092AA01D9CFC091AE01CA2C98
:10219000D12CCC0DDD2DD11DCE01880F991FC80F7C
:1021A000D91FC15ADD4F198218821A8234E0E32EFA
:1021B000F12C912C8091AA01890D87FF03C0909189
:1021C0001301890F082E000C990BC816D90691F43B
:1021D00080915D028E9DA0018F9D500D112455951B
:1021E0004795559547959E0160915C0280915B02F1
:1021F0000E94160E9B0CF1E0EF1AF108D9F6A39499
:10220000A1CF81508093AA01F801B482AFCF90E0B2
:1022100001966091130170E00E94512F8093AA01F2
:10222000F8018483A3CFEF92FF920F931F93CF9374
:10223000DF93EC018C81811109C081E08C831092C5
:10224000A90192E090931201809311018091AE0157
:102250009091140123E0829FF0011124E15AFD4F77
:10226000891768F110E003E060911301161768F117
:102270000E948C0E809111012091A901280F2093BA
:10228000A90190911201980F90931201191654F41C
:10229000022E000C330B409113014150550B2417B3
:1022A000350734F0819580931101813009F41C8247
:1022B000DF91CF911F910F91FF90EF9008951182C0
:1022C000108212828F5F3396CBCFE12EF12C70E01B
:1022D000C7010E94512F2091AE01820F482F50E07C
:1022E0002091A901022E000C330BE216F306BCF07C
:1022F00020911201022E000C330B2E153F057CF0AD
:10230000809F90011124215A3D4F40915D026091C0
:102310005C0280915B020E94160E1F5FA5CFFA013E
:10232000EE0FFF1FE40FF51FE15AFD4F11821082DF
:102330001282F3CF0F931F93CF93DF938C01FC0195
:102340008481958101968170992795838483C0E06B
:10235000D5E580911301C81730F0DF91CF911F911F
:102360000F910C948C0E2091AE01422F4C0F5527EB
:10237000551FCA019A01220F331F280F391F215AF6
:102380003D4F8C2F8695F80144815581840F952F00
:10239000911D817040915D0260915C028D9F802D46
:1023A00011240E94160ECF5FD4CF0F931F93CF93AB
:1023B000DF93EC0110E000E09091130190171106FB
:1023C00009F06CF40E948C0E8C8190E00196817073
:1023D00099278C83DF91CF911F910F9108952091C0
:1023E000AE01A801420F511D9A01220F331F240F85
:1023F000351F215A3D4F4C8160915C0280915B02F8
:1024000096959017110651F04CF0442349F04091F5
:102410005D020E94160E0F5F1F4FCECF4423B9F30B
:1024200040E0F7CF8091B90108951092B901089565
:1024300025E0EAE5F2E0DC0101900D922A95E1F752
:102440002091B7013091B8014091B901FC01258379
:10245000368347830895E7EBF1E01182828184603F
:1024600082830895EAE5F2E080818E7F80830E9476
:102470002B12E7EBF1E08281816082832FEF80E70E
:1024800092E0215080409040E1F700C000000C94A1
:102490008C0EEAE5F2E080818E7F8083608171811D
:1024A000828193810E94390E0E942B12E7EBF1E0AA
:1024B0008281816082832FEF80E792E0215080400B
:1024C0009040E1F700C000000C948C0E60915A021D
:1024D000669570E04BE050E086E191E00E94AE2FFF
:1024E000892B19F481E08093B8010E947A2590939A
:1024F000B1018093B0018091B90184608093B901EA
:10250000089590915A0290FF3AC0917081112DC0A8
:10251000926090935A028091B90181608093B901D1
:10252000662351F060915A0270915B0280915C02C7
:1025300090915D020E94390E60915A02669570E09A
:102540004BE050E086E191E00E94AE2F892BA1F094
:102550000E942B1281E08093B30140915D02609153
:102560005C0280915B020C943E10853210F09864FE
:10257000D0CF880F982BCDCF0E946612EBCF089555
:10258000682F90915A02969581E0890F853208F064
:1025900081E00C94811281E00C94C012682F90911C
:1025A0005A0296958FEF890F09F484E20C948112F8
:1025B00081E00C94CE1261E00C948112EAE5F2E025
:1025C00080818160808386950C94DB1280915A0211
:1025D00080FD0C9449120C94DE1260E00C94811280
:1025E0008091B601811138C080914A028160809348
:1025F0004A020E942824811104C00E94AB240E9438
:102600004B0E0E94350E60935A0270935B028093CA
:102610005C0290935D028091B90183608093B9015F
:102620006E7F61F40E944B0E0E94350E60935A0239
:1026300070935B0280935C0290935D020E94260E71
:102640000E942B1280915A0280FF03C086950E943F
:10265000ED1281E08093B60108951F93CF93DF932D
:10266000EC01162F8F8180FF0CC0888180FF24C071
:1026700080915A02816080935A02888186950E94D7
:1026800081128F8181FF06C0212F4B816A81898150
:102690000E94450F8F8182FF05C08E81882379F0CB
:1026A0000E9466128F8183FF03C081E08093B30193
:1026B000DF91CF911F9108950E943212E2CF0E94C4
:1026C0002B12F0CFEF92FF920F931F93CF93DF93D4
:1026D0008091B801882309F468C08091B701E09126
:1026E0005A02E695E81BE093B201823009F064C01B
:1026F000F0E0E65EFB4FE491CE2FD0E002EE1EE06C
:102700008091B301882389F01092B3010E947A2549
:102710009E0120953095820F931F9093B101809375
:10272000B0011092B5011092B4018091B001909166
:10273000B1010E9492258C179D07B8F18091AD01DF
:102740008823B1F01092AD018091AB019091AC0162
:102750000E9492258033954758F00E947A259093E5
:10276000AC018093AB018091B90188608093B9017D
:10277000E090B401F090B501E091B001F091B101A9
:10278000CE0FDF1FD093B101C093B00180EB91E079
:10279000F80109958091B4019091B501892B29F434
:1027A000EF2819F081E08093AD01DF91CF911F9167
:1027B0000F91FF90EF900895863049F4F0E0E95EC4
:1027C000FB4FE491CE2FD0E006EF1EE099CF893089
:1027D00051F4E695F0E0EC5EFB4FE491CE2FD0E0B3
:1027E00001E410E18DCF8F3051F4E695F0E0EF5E1B
:1027F000FB4FE491CE2FD0E00EE710E181CF853181
:1028000049F4F0E0E25FFB4FE491CE2FD0E003E12A
:1028100011E176CFC8EED3E00AE911E1883109F47D
:102820006FCF833239F4ECE0F4E0C591D49106E047
:102830001FE066CFC4EFD1E005ED11E1843209F469
:102840005FCFC0EDD7E000E11EE05ACF31B3242FB7
:102850002095232331B3432B3FB7F894680F791F9A
:102860008617970711F43FBF0895FC015191CF01DE
:10287000E8E041BB000000C057FF21BB550F00003E
:1028800000C000C000C021BB00C0EA9591F7E8CFAE
:1028900020B3242B20BB9B01220F331F620F731F19
:1028A0000E94261487EC90E00197F1F700C0000029
:1028B000089540E80C9448140C94160525982D9A18
:1028C00027982F9A83B185FB882780F923B130E0C0
:1028D000220F232F221F330B90E0232B09F092E0CD
:1028E000892B8093BC010895E091BC01EE0FEE0F9F
:1028F000E093BC0183B185FB222720F983B190E0EE
:10290000880F892F881F990B009711F082E090E0C3
:10291000822BE82BE093BC01EF70F0E0ED59FE4F05
:1029200080819091BA01890F8093BA01843024F09C
:1029300060E080E00E945C148091BA018D3F24F435
:1029400061E080E00E945C148091BA01837887FF87
:1029500003C081508C6F8F5F8093BA0108952091DE
:10296000BC01FC0120830895DC01EC91EF70F0E0E4
:10297000ED59FE4F80819091BB01890F8093BB017F
:10298000843024F060E081E00E945C148091BB01FF
:102990008D3F24F461E081E00E945C148091BB01D2
:1029A000837887FF03C081508C6F8F5F8093BB015A
:1029B000089584E0089550E0440F551F9CE0699FFE
:1029C000400D511D112498E7899F400D511D112480
:1029D000CA01839608950F931F93CF93DF930E94AC
:1029E000DB148C010E94BB2FC82FD0E0DC2FCC273A
:1029F000C80101960E94BB2F9E01282BC901DF91BF
:102A0000CF911F910F9108950F931F93CF93DF9351
:102A1000122F032F0E94DB14EC01602F0E94CF2F96
:102A2000612FCE010196DF91CF911F910F910C94F0
:102A3000CF2FAF92BF92CF92DF92EF92FF921F9370
:102A4000CF93DF938CEAC82E80E0D82ED0E07601B9
:102A5000C0E014C0F50125913491412F6C2F8D2FCA
:102A60000E94041582E0A80EB11C1F5F163091F77A
:102A70008CE0E80EF11CCF5FCA3019F0570110E06E
:102A8000E9CFDF5F88E7C80ED11CD43001F7DF91B2
:102A9000CF911F91FF90EF90DF90CF90BF90AF90BC
:102AA0000895EF92FF920F931F93CF93DF93EC0162
:102AB0008A017C01E60EF71ECE018396CE15DF0556
:102AC00039F4DF91CF911F910F91FF90EF9008950E
:102AD000C03E21E0D20740F40E94BB2FF801808362
:102AE0000F5F1F4F2196E8CFF8011082F9CFCF92E8
:102AF000DF92EF92FF920F931F93CF93DF937C01AE
:102B00006A018C01060F171FEC01CE018396C017D6
:102B1000D10749F4DF91CF911F910F91FF90EF9072
:102B2000DF90CF900895C03E21E0D20740F4FE012F
:102B3000EE19FF09EC0DFD1D60810E94CF2F21963B
:102B4000E4CF462F843038F47A3028F4663018F415
:102B5000672F0C94EB1490E080E0089580E10895D5
:102B60008DEF91E00895EF92FF920F931F93CF9313
:102B7000DF93EC018A017C01E60EF71ECE018D5F2A
:102B80009D4FCE15DF0539F4DF91CF911F910F9145
:102B9000FF90EF900895CD3F21E0D20740F40E94CE
:102BA000BB2FF80180830F5F1F4F2196E7CFF801FD
:102BB0001082F9CFCF92DF92EF92FF920F931F9383
:102BC000CF93DF937C016A018C01060F171FEC0184
:102BD000CE018D5F9D4FC017D10749F4DF91CF9192
:102BE0001F910F91FF90EF90DF90CF900895CD3F10
:102BF00021E0D20740F4FE01EE19FF09EC0DFD1DA6
:102C000060810E94CF2F2196E3CFCF93DF93C3E063
:102C1000D2E060E0CE010E94CF2F2196C11584E062
:102C2000D807B9F7DF91CF910895EF92FF920F93F4
:102C30001F93CF93DF9300D00F92CDB7DEB7F82E5E
:102C40008FE08F1540F08FEF93E00E94BB2F03E0E1
:102C500012E08823B1F00F900F900F90DF91CF9189
:102C60001F910F91FF90EF900895011584E01807D0
:102C700091F3C8010E94BB2F811101C0FA940F5F2C
:102C80001F4FF110F2CF19821A821B8278018FEF49
:102C9000E81AF80AC8010E94BB2F89831A82882388
:102CA000D1F28150833068F40E5F1F4FC7010E943C
:102CB000BB2F8A83882379F2CE0101960E94C0053A
:102CC000E5CF8701F9CF0F931F93CF93DF93C62FE3
:102CD000D42F022FFC0182818823C9F06093BF01A9
:102CE0000E947A259093BE018093BD0180E28C0FF3
:102CF000883008F050C0C77081E001C0880FCA95C5
:102D0000EAF7DF91CF911F910F910C94571B10910F
:102D1000BF01161335C08091BD019091BE010E9484
:102D20009225883C910560F5C0E2CD0F1D17B9F0E2
:102D300080E2810F883040F4177081E001C0880F75
:102D40001A95EAF70E945E1BC83048F481E09D2F77
:102D5000977001C0880F9A95EAF70E94571B802F41
:102D60000E94441BC830B8F4D77081E001C0880FBE
:102D7000DA95EAF7DF91CF911F910F910C945E1BCA
:102D800080E28C0F883038F4C77081E001C0880F72
:102D9000CA95EAF7EFCFDF91CF911F910F91089578
:102DA0009C01CB01203F4CE5340731F190F4283DE4
:102DB000FCE53F07E9F0293D4CE5340769F1273D83
:102DC0003C4579F426E241EE61EE0E94631680E014
:102DD0000895223FFCE53F07B9F090F0233F3C45C2
:102DE000B9F0FC0182818823D1F01092BF010895CF
:102DF00027E245EE65EEE9CF26E241EE60EEE5CF53
:102E000027E245EE64EEE1CF26E241EE62EEDDCF51
:102E100027E245EE66EED9CF28E241E0EBCF81E034
:102E200008958EE1489B02C08150E1F7489BFECF98
:102E30000895589880E28A95F1F7589A0895FC0110
:102E40003BE03A95F1F720E090E080E031E040E1AE
:102E50004A95F1F7880F489B02C08160232742E022
:102E60004A95F1F7000040E14A95F1F79F5F691339
:102E7000EECF90E19A95F1F799B132E03A95F1F7FA
:102E8000000040E14A95F1F7917092272081920F5E
:102E900090830895EF92FF920F931F93CF93DF9348
:102EA0000F92CDB7DEB719828C017C01E60EF11CC2
:102EB0000E151F0561F481E09981911180E00F905A
:102EC000DF91CF911F910F91FF90EF9008950E9495
:102ED000111768E0CE0101960E941F17F801819337
:102EE0008F01E6CF9093C2018093C1016093C0012E
:102EF000509A589A08959093C2018093C1016093AB
:102F0000C0015098589AE89AE9E6F0E080818C7FF9
:102F1000808308956150770B91E001C0990F6A9505
:102F2000EAF720E031E0911108C0222391F0589A8D
:102F300080E28A95F1F758980895492F482339F08F
:102F4000589A232740E24A95F1F79695ECCF589886
:102F5000F9CF5898EDCFFF920F931F93CF93DF9344
:102F6000EC018C01060F111DC017D10731F4DF9160
:102F7000CF911F910F91FF900895F9900E9419171A
:102F800068E08F2D0E948A17EFCF1F920F920FB625
:102F90000F9211240F931F932F933F934F935F939F
:102FA0006F937F938F939F93AF93BF93EF93FF9311
:102FB000CF93DF930F92CDB7DEB719820E9411171E
:102FC00067E0CE0101960E941F17082F069506950F
:102FD0000695982F92959570202F2570920F292F86
:102FE0002370969596958770920F891344C08981B6
:102FF000811141C08091C0018017E8F120E12A953C
:10300000F1F7589A509A82E08A95F1F700C0A8E04B
:103010000A9FC00111240091C1011091C201080F43
:10302000191F5898F8016581662321F086819781E0
:103030000E94AB170E941917F0E1FA95F1F7589822
:103040005098589A20E12A95F1F7D80112966C9180
:103050001297662331F113968D919C910E944A1725
:10306000D801ED91FC91882311F088E001C082E045
:1030700080830E9411170F90DF91CF91FF91EF9104
:10308000BF91AF919F918F917F916F915F914F9180
:103090003F912F911F910F910F900FBE0F901F9096
:1030A0001895ED91FC91E1CF0F931F93CF93DF9390
:1030B0002091C001281719060CF471C08C0193E00F
:1030C000000F111F9A95E1F7C091C101D091C20183
:1030D000C00FD11FF894509A589825E02A95F1F71F
:1030E0000000982F969595708570980F892F8370A2
:1030F00096959695980F092B0E94191700C067E0C6
:10310000802F0E948A1780E18A95F1F75098589A8B
:10311000489B17C087E090E0489915C06D816623F1
:1031200021F18E819F810E944A1781111EC0509A01
:10313000589AE881F98182E08083789482E090E077
:103140000DC000C0E5CF019771F4509A589AE881FC
:10315000F98181E08083789481E090E0DF91CF91E4
:103160001F910F91089500C0D7CF0E94111720E240
:103170002A95F1F75898509A80E18A95F1F76A817B
:10318000662321F08B819C810E94AB170E94191746
:10319000E881F9811082789490E080E0DFCF84E0CC
:1031A00090E0DCCF9093C8018093C7010895E0912F
:1031B000C701F091C801309721F00190F081E02D16
:1031C000099480E00895E091C701F091C80130971B
:1031D00021F00280F381E02D099408952091C5012A
:1031E0003091C6012817390771F09093C60180937A
:1031F000C501E091C701F091C801309721F0068028
:10320000F781E02D099408952091C3013091C40104
:103210002817390771F09093C4018093C301E0919E
:10322000C701F091C801309721F00084F185E02DAD
:103230000994089585B7806885BF85B7806885BF84
:10324000089508950C94211908950C9424190E944E
:103250001A190E94E90C0C9422190E9471250E94EF
:10326000780B0E94F1250E94E8260E94F0120C942F
:103270002519BF92CF92DF92EF92FF920F931F9387
:10328000CF93DF93CDB7DEB72A970FB6F894DEBFA2
:103290000FBECDBF0E945C0C0E94CD0C882309F4A8
:1032A0006FC08AECC82E81E0D82E10E000E0B02E6E
:1032B000802F0E94710BE82EF601F1906F01F81635
:1032C00009F458C080914A0281FD0E94770B90E07A
:1032D00080E0FE242F2D30E0482FB901082E02C0D7
:1032E000759567950A94E2F760FF3FC08E83BF82B1
:1032F00081E090E06C0102C0CC0CDD1C4A95E2F745
:103300002E2D30E02C213D21232B09F480E08887ED
:103310000E947A258160782F9A8789874E815F8104
:1033200068858A850E94E119F801E653FE4F808185
:103330008C2580830E94D7189091C901891789F143
:103340000E94D7188093C9012A960FB6F894DEBF61
:103350000FBECDBFDF91CF911F910F91FF90EF90E6
:10336000DF90CF90BF900C94B60601968630910501
:1033700009F0B2CF0F5F1F4F0A30110509F097CF48
:103380008FEF89838A831B820E947A258160782F40
:103390009D838C8349815A816B818D810E94E119C3
:1033A000C9CF2A960FB6F894DEBF0FBECDBFDF910E
:1033B000CF911F910F91FF90EF90DF90CF90BF9032
:1033C0000895CF93DF93CDB7DEB72B970FB6F89460
:1033D000DEBF0FBECDBF4F83588769877A878B8743
:1033E0001E821D8285E0FE013796DE011196019056
:1033F0000D928A95E1F749815A816B817C818D819B
:103400009E812B960FB6F894DEBF0FBECDBFDF9125
:10341000CF910C946720FC01808191810C94202332
:10342000CF93C82F882309F4DEC08238C1F40E94EC
:10343000D71881FDD8C089E30E944E230E94BF2384
:103440002FEF81EE94E0215080409040E1F700C0E2
:10345000000089E30E945523CF910C94BF23833849
:10346000A1F40E94D71880FDBEC083E50E944E23C0
:103470000E94BF232FEF81EE94E0215080409040C6
:10348000E1F700C0000083E5E5CF8438A1F40E9495
:10349000D71882FDA8C087E40E944E230E94BF2354
:1034A0002FEF81EE94E0215080409040E1F700C082
:1034B000000087E4CFCF8CEF8C0F813A48F48C2F3B
:1034C0000E94B12681118FC08C2F0E944E23C4CF41
:1034D00080E28C0F883048F4C77081E001C0880F0B
:1034E000CA95EAF70E947623B7CF8BE58C0F83301D
:1034F00068F481E890E0C53A31F083E890E0C63A9C
:1035000011F482E890E0CF910C94EE1888E58C0FCE
:10351000873108F068C082EE90E0C83A09F460C0D4
:1035200089EE90E0C93A09F45BC08AEE90E0CA3AAD
:1035300009F456C085EB90E0CB3A09F451C086EB14
:1035400090E0CC3A09F44CC083EB90E0CB3B09F41B
:1035500047C084EB90E0CC3B09F442C087EB90E09D
:10356000CD3AF1F18CEC90E0C03BD1F18DEC90E0E4
:10357000CE3AB1F183E891E0CF3A91F18AE891E057
:10358000C13B71F182E991E0C23B51F184E991E0E4
:10359000C33B31F181E292E0C43B11F183E292E05E
:1035A000C53BF1F084E292E0C63BD1F085E292E0C7
:1035B000C73BB1F086E292E0C83B91F087E292E02F
:1035C000C93B71F08FE690E0CD3B51F080E790E091
:1035D000CE3B31F090E080E0CA3B11F48AE292E009
:1035E000CF910C940419CF910895882309F44BC00E
:1035F000823871F40E94D71881FF45C089E30E9488
:103600004E230E94BF2389E30E9455230C94BF23BD
:10361000833859F40E94D71880FF35C083E50E9493
:103620004E230E94BF2383E5EFCF843859F40E94D4
:10363000D71882FF28C087E40E944E230E94BF2330
:1036400087E4E2CF9CEF980F913AF0F290E2980F66
:10365000983050F4877091E001C0990F8A95EAF78D
:10366000892F0E947C23D2CF9BE5980F933020F4C2
:1036700090E080E00C94EE18885A873120F490E0B6
:1036800080E00C9404190895CF93C82F0E94101A5B
:10369000C93349F42FEF83EC99E0215080409040EA
:1036A000E1F700C000008C2FCF910C94F51A88230D
:1036B00021F00E9476230C94BF230895882321F0E3
:1036C0000E947C230C94BF230895BF92CF92DF9277
:1036D000EF92FF920F931F93CF93DF936C01D62F3E
:1036E000C72FFC01058102950F70128111110E94F4
:1036F00093230E946C23B82E882371F01123B1F01C
:1037000080E28D0F883090F082E00E940A240E94AF
:103710006C2391E0B82EB926EC2EE2949FE0E922CA
:10372000EE2DF0E0E65DFF4C0C94872FB12CF4CF2A
:103730000C2F0F70C07F11F00295007F1123A9F0AC
:10374000002359F080E28D0F883010F0D11109C0AC
:10375000802F0E9476230E94BF238D2F0E94101A73
:1037600014C0802F0E948623F6CF8D2F0E94F51A59
:10377000002359F080E28D0F883010F0D11130C055
:10378000802F0E947C230E94BF2398E0E91639F025
:10379000E91648F086E08E0D8F70823020F40E948A
:1037A000D7180E94B606BB2009F4ABC10E9468235B
:1037B00080FDA7C1F60112820E9462230E94EB21C4
:1037C000C6010E948B1D0E946223DF91CF911F9141
:1037D0000F91FF90EF90DF90CF90BF900C940C2250
:1037E000802F0E948C23CFCFFC2FFF70FF2EC07F35
:1037F000C03219F0F29480EFF822DD2369F0D13065
:1038000049F1112391F1002351F1F601858180FFE7
:10381000A4CF8F70858323C0112381F0011106C0CE
:103820000E94A6238F290E94571BAFCF0130C1F7FA
:103830000E94A6238F290E94AC23A7CF011106C0A6
:103840000E94B5238F2D0E945E1B9FCF013009F48B
:103850009CCFF6CF112329F0063008F096CF8F2D9C
:10386000E2CF053008F091CFEDCF002359F38D2F33
:103870000E94F51A8ACF8C2F86958695837069F001
:10388000813009F082CF8D2F9C2F9370111102C0CF
:1038900090E080E00E94041978CF8D2F9C2F9370C8
:1038A000111102C090E080E00E94EE186ECF8C2FC4
:1038B000837009F041C0111168CF4D2F4295469594
:1038C0004770440F440F0D2F0F7010E030E020E0E0
:1038D000042E04C0000F111F221F331F0A94D2F7B9
:1038E00060E070E0CB01D4FF0FC06FE070E080E0DB
:1038F00090E004C0660F771F881F991F4A95D2F782
:103900006095709580959095C695C695C370602B0F
:10391000712B822B932BC23049F058F4C13019F02F
:103920000E949D2132CF0E948B212FCF0E94AF2178
:103930002CCF0E94892129CF8695112311F08C2F3D
:103940008170882309F421CF4D2F42954695477009
:10395000440F440F0D2F0F7010E030E020E0042ED4
:1039600004C0000F111F221F331F0A94D2F760E01A
:1039700070E0CB01D4FF0FC06FE070E080E090E01A
:1039800004C0660F771F881F991F4A95D2F760956C
:10399000709580959095C695C695C370602B712BD8
:1039A000822B932BC23049F058F4C13019F00E9499
:1039B0006222EBCE0E945022E8CE0E947422E5CE15
:1039C0000E94C521E2CEE0E2ED0FE53108F04DC0E6
:1039D000F0E0E65CFF4C0C94872FDF708C2F8F712A
:1039E000112321F00E94EB218D2F1DCF0E940C226C
:1039F0008D2F29CF112341F0053008F0C6CE8C2F32
:103A00008F710E942F22C1CE063008F0BECEF7CFB4
:103A10008C2F8F71112339F00E94EB21B6CE8C2FA1
:103A20008F711123C9F30E940C22AFCE112329F00C
:103A30008C2F8F710E94D621A8CE0E94D121A5CEB5
:103A4000112349F0CF718C2F0E94EB2163E08C2F62
:103A50000E94F5239ACE81E00E940A24023008F4E5
:103A600094CE82E00E940A2490CE112329F0011105
:103A700074CE8C2F8F71D0CF002369F0D93309F029
:103A8000F6CEFFEF23EC89E0F15020408040E1F7D3
:103A900000C00000ECCE8C2F8F71C5CF4C2F4F7023
:103AA0006D2FC6010E94DC080E9401216ECE11110B
:103AB0006CCECF70C230B1F040F4CC2381F0C13075
:103AC00009F063CE0E941A2760CEC43089F068F0F6
:103AD00080E0C53009F059CE0E94842756CE0E945E
:103AE000022753CE0E94562750CE0E9461274DCE0A
:103AF00085E0F2CF4C2F4F706D2FC6010E94DF087A
:103B000044CEDF91CF911F910F91FF90EF90DF9006
:103B1000CF90BF9008950F931F93CF93DF93EC0145
:103B20008B819C81892B29F08881998189238F3F02
:103B300029F4DF91CF911F910F910895CE010E943A
:103B4000CE068823B1F3688179818A810E942A2375
:103B50008C010E9486220E948821B801CE01DF914B
:103B6000CF911F910F910C94651B0E9493230E948B
:103B7000A3230E94BF2390E080E00E94EE1890E013
:103B800080E00C9404190E945C230C94B51D0E94E3
:103B900083230C94C31DE92FE295EF70E250EE30C1
:103BA00070F4F0E0E15BFF4C0C94872F803F19F03C
:103BB00020F4803E20F481E00895843FE1F380E02A
:103BC0000895803EC0F3813FD1F7F5CF93FB88275E
:103BD00080F908950E9420230C94CB1DCF93DF938E
:103BE00000D000D00F92CDB7DEB70F900F900F909E
:103BF0000F900F90DF91CF910895CF93DF9300D076
:103C000000D000D0CDB7DEB726960FB6F894DEBF51
:103C10000FBECDBFDF91CF9108951F93CF93DF9358
:103C2000C091D50116E08091D6018C1304C0DF91BC
:103C3000CF911F910895D0E01C9FF0011D9FF00DC2
:103C40001124E952FE4F4081518162817381848148
:103C500095810E94FD1D2196C770E5CF4091070216
:103C6000509108026091090270910A0280910B0242
:103C700090910C020C94FD1D1F93CF93DF938091C4
:103C80000C02807FC1F4809109028823A1F0809109
:103C9000D501C091D6016091070270910802409150
:103CA0000A0250910B02D62FD723DA01A095B095C6
:103CB00016E0C81304C0DF91CF911F91089590E0E2
:103CC0004115510511F0DF3F31F401968770F1CFB6
:103CD0002A0F3B1F17C0189FF001199FF00D1124E8
:103CE000E952FE4F21812713F0CF20812613EDCF1B
:103CF00022812111EACF238134812417350740F333
:103D0000241B350B283C310500F720910C022F7045
:103D1000206120930C0226E0289FF001299FF00DDE
:103D20001124E452FE4F80818F708061808387E090
:103D300092E00E948B1DDF91CF911F910C940D1E7C
:103D4000BF92CF92DF92EF92FF920F931F93CF9388
:103D5000DF93CDB7DEB761970FB6F894DEBF0FBE25
:103D6000CDBF8C0185E0F801DE011D9601900D921A
:103D70008A95E1F7D8014C9111965C9111971296B2
:103D8000EC90129780910A0290910B02009709F42F
:103D90007FC12091070230910802622F63236F3F99
:103DA00009F476C11396CD90DC90B0900902BB2047
:103DB00009F411C1C816D906D0F1F601E81BF90BB8
:103DC000CF01FF24F394883C910508F0F12C8091F9
:103DD0000C02982F907FFF2009F4B8C091117FC08A
:103DE000FE2C351329C0241327C0E11025C08F7085
:103DF000806180930C020E942E1E87E092E00E9458
:103E00008B1D80910C02D80115968C938F2D619695
:103E10000FB6F894DEBF0FBECDBFDF91CF911F91DB
:103E20000F91FF90EF90DF90CF90BF900895809515
:103E300090958C0D9D1DC5CFCD2829F0852F84230D
:103E40008F3F09F041C180E0B82FB170DB2E80FFB9
:103E50003CC08091D5012091D60136E0821315C077
:103E60004D875E878D859E850E942023292F229570
:103E70002F702230F0F0243018F59F70F1F0F80127
:103E80009581907FD1F4D12C1EC090E0389FF00135
:103E9000399FF00D1124E952FE4F6181651306C070
:103EA0006081641303C06281E6120FC001968770BF
:103EB000D5CF9F7011F0882331F3805E883018F3DE
:103EC000C8010E948B1DFD2CA1CFEE2009F49ECFCE
:103ED00080910C02816080930C02F12C97CF3513F6
:103EE00006C0241304C0D801EE2009F49AC04D87FF
:103EF0005E878D859E850E94EA1D882319F1EE203C
:103F000009F180910C02803270F02091070230910B
:103F1000080238872F831986DB86CA868C87CE01F4
:103F200007960E948B1D86E0F801A7E0B2E00190A1
:103F30000D928A95E1F70E943C1E0E942E1EFF24DE
:103F4000F39464CFC8010E948B1DF9CF911113C067
:103F50007C2DD98AC88A6E2D89890E94EE1D87E042
:103F600092E00E948B1D86E0E7E0F2E0DF011D9207
:103F70008A95E9F763C0351312C0241310C0E1100D
:103F80000EC0F8018583C8010E948B1DE7E0F2E0B6
:103F900086E0DF011D928A95E9F7FB2C37CF4D872C
:103FA0005E878D859E850E94EA1D882359F2EE204A
:103FB00049F280910C02803208F4B5CF20910702BB
:103FC000309108023A8329831B82DD82CC828E8362
:103FD000CE010196A6CFC816D90698F1F601E81BC6
:103FE000F90BCF01F12C883C910508F049C0FE2C5B
:103FF000EE2009F4A7CF351332C0241330C08091CE
:104000000C0280FD23C0982F907F01F1D8011596F6
:104010008C931597903F39F0982F907F905F8F7019
:10402000892B15968C93C8010E948B1D86E0F801A0
:10403000A7E0B2E001900D928A95E1F70E942E1E52
:10404000E5CE809590958C0D9D1DCCCF86E0F80136
:10405000A7E0B2E001900D928A95E1F7D7CE4D87A7
:104060005E878D859E850E94EA1D81115CCF8091BF
:104070000C02816080930C02C8010E948B1DC6CE89
:104080007C2DD98AC88A6E2D89890E94EE1D6BCF3E
:10409000EE2009F457CF4D875E878D859E850E945F
:1040A000EA1DF82E882309F44DCF86E0F801A7E039
:1040B000B2E001900D928A95E1F787E092E00E94CC
:1040C0000B1A0E943C1EBACF81E08E25BDCE1F93F5
:1040D000CF93DF93CDB7DEB72C970FB6F894DEBF42
:1040E0000FBECDBF4F83588769877A878B879C87A0
:1040F000CE0107960E94A01E882369F08A859B85C1
:10410000892B39F04F815885842F85238F3F09F003
:1041100071C016E05FC086E0FE013796DE011196A1
:1041200001900D928A95E1F78A859B85892B89F309
:1041300088859F8189238F3F61F32091D60130E0EC
:10414000C9010196877099274091D5014817190632
:1041500071F40E94C71D1092D6011092D50186E01D
:10416000E7E0F2E0DF011D928A95E9F7D2CF96E011
:10417000929FD001939FB00D1124A952BE4FFE0112
:10418000319601900D929A95E1F78093D6010E94A5
:104190000D1EBFCF819FC001112489529E4F0E94E6
:1041A000A01E8823E9F0E091D5011E9FF0011124A3
:1041B000E952FE4F408151816281738184819581F2
:1041C0000E94FD1D8091D50190E00196877099278E
:1041D0008093D5018091D5019091D6018913DACFD2
:1041E0002C960FB6F894DEBF0FBECDBFDF91CF91F6
:1041F0001F91089569857A858B859C850E94FD1D98
:1042000088CFEF92FF920F931F93CF93DF938C0190
:10421000892B81F0F12CEE24E394E8012196F8013A
:104220008491843770F4843008F05FC08130B1F03D
:104230008230A1F1DF91CF911F910F91FF90EF900C
:104240000895853709F44CC008F43DC09CE7980FE9
:10425000903780F78F770E94F51A49C00E5F1F4F85
:10426000FE01849190E2980F983060F48770FE2DE3
:1042700001C0FF0F8A95EAF78F2F0E9496230E94B4
:10428000BF2302C00E94101A8F2D815030F2EFE937
:10429000FFE03197F1F700C00000F7CF0E5F1F4F2E
:1042A000FE01849190E2980F983050F48770FE2DB3
:1042B00001C0FF0F8A95EAF78F2F0E949C23DFCF62
:1042C0000E94F51AE1CF0E5F1F4FFE01C491C1504D
:1042D000D8F28FE99FE00197F1F700C00000F7CF17
:1042E0000E5F1F4FFE01F490CFCF0E94101A8E0177
:1042F000CBCF08950C9479210E947A2160933902E2
:1043000070933A0280933B0290933C020C94B51D4B
:1043100008950C947C210F931F9300913902109102
:104320003A0220913B0230913C02602B712B822B90
:10433000932B1F910F910C947C210F931F9300914D
:10434000390210913A0220913B0230913C026023E5
:104350007123822393231F910F910C947C210F933F
:104360001F930091390210913A0220913B02309143
:104370003C0260277127822793271F910F910C948D
:104380007C210C9479210C94C1210E94C32160935B
:1043900035027093360280933702909338020C9462
:1043A000B51D60E070E0CB010C94C5210F931F9305
:1043B00041E050E060E070E08A019B0104C0000F22
:1043C000111F221F331F8A95D2F7C901B8011F910F
:1043D0000F910C94C5210F931F9341E050E060E0D2
:1043E00070E004C0440F551F661F771F8A95D2F7EF
:1043F0008091350290913602A0913702B091380237
:104400008A019B01082B192B2A2B3B2BC901B801D0
:104410001F910F910C94C5210F931F9341E050E021
:1044200060E070E004C0440F551F661F771F8A9537
:10443000D2F7CB01BA016095709580959095009167
:1044400035021091360220913702309138026023F4
:104450007123822393231F910F910C94C5210F93F5
:104460001F9341E050E060E070E004C0440F551F2E
:10447000661F771F8A95D2F7809135029091360298
:10448000A0913702B09138028A019B0108271927B1
:104490002A273B27C901B8011F910F910C94C52110
:1044A0000F931F930091350210913602209137022D
:1044B00030913802602B712B822B932B1F910F911F
:1044C0000C94C5210F931F93009135021091360271
:1044D0002091370230913802602371238223932385
:1044E0001F910F910C94C5210F931F9300913502DA
:1044F00010913602209137023091380260277127DF
:10450000822793271F910F910C94C5210895E92FBD
:10451000EE0FE90FEE0F8E0F982F977041E001C05C
:10452000440F9A95EAF786958695869595E0899F3A
:10453000F0011124E35FFD4F30E020E070E0519185
:10454000DF011197CB01022E02C0969587950A9440
:10455000E2F7817081958527842385278C932F5FCF
:104560003F4F2530310559F70895E92FEE0FE90F38
:10457000EE0F8E0F982F977086958695869525E07D
:10458000829FF0011124E35FFD4F50E040E080E0A6
:10459000219130E0092E02C0369527950A94E2F762
:1045A00021703327042E01C0220F0A94EAF7822BD0
:1045B0004F5F5F4F4530510559F70895BF92CF9235
:1045C000DF92EF92FF920F931F93CF93DF938C01B3
:1045D000C0903502D0903602E0903702F090380259
:1045E0008091390290913A02A0913B02B0913C0235
:1045F000C82AD92AEA2AFB2ACFE1D0E0BC2ED7016B
:10460000C6010C2E04C0B695A795979587950A9478
:10461000D2F780FD0EC0219788F7B12C8B2DDF914A
:10462000CF911F910F91FF90EF90DF90CF90BF90AF
:104630000895B8018C2F0E94E808019761F3EECF2E
:10464000CF93DF93EC010E94DE22BE01DF91CF9178
:104650000C94E8081F93CF93DF93EB019091D40162
:10466000992331F0CB01DF91CF911F910C9420233E
:10467000882379F0CB010E94DE22182F682FCE010B
:104680000E948722BE01812FDF91CF911F910C9450
:10469000E808CB010E94B522182FF4CF682F809133
:1046A0002101909122010C94E624682F8091210130
:1046B000909122010C94E824809121019091220193
:1046C0000C94EA2480913D02859585958595089501
:1046D00080913D028770089590913D02977081E02E
:1046E00009F480E00895809149020895909149026B
:1046F000892B8093490208958095909149029823CF
:1047000090934902089510924902089590914802A9
:10471000892B8093480208958095909148029823B0
:10472000909348020895109248020895909147028C
:10473000892B809347020895809590914702982392
:1047400090934702089510924702089580913E0287
:10475000089508950C94A92390913E02981721F092
:1047600080933E020C94AA23089580913E028823F0
:1047700029F010923E0280E00C94AA230895E09163
:104780002101F0912201809149028083E091210171
:10479000F0912201808190914802892B8083E091E1
:1047A0002101F0912201808190914702892B808321
:1047B00090913E02992381F0E0912101F091220134
:1047C0008081892B808380912101909122010E9418
:1047D000AD2481110E94B523809121019091220185
:1047E0000C94E31808950C94F22398E0899F9001AB
:1047F0001124622B60933D020E94EB2180913D02C7
:104800008595859585950C94F32310923D0280E063
:104810000C94F32390913D028095892380933D026F
:10482000282F277071F4282F082E000C330B9217B5
:10483000130639F08595859585950E940C220C9478
:10484000052408956FEF7FEF90E080E00C94ED2F4A
:1048500090E080E00E94C92F21E08D3E9E4F09F03C
:1048600020E0822F089582E090E00C94BB2F83E03B
:1048700090E00C94BB2F84E090E00C94BB2F682F49
:1048800084E090E00C94CF2F86E090E00C94BB2F56
:10489000682F86E090E00C94CF2FAB01BC018FE035
:1048A00090E00C94E12FAB01BC0183E190E00C940B
:1048B000E12F60E070E0CB010C94532460E070E0E5
:1048C000CB010E944D240C9459246DEE7EEF90E0B4
:1048D00080E00E94ED2F60E082E090E00E94CF2F08
:1048E00060E083E090E00E94CF2F10923902109296
:1048F0003A0210923B0210923C0260E084E090E0A9
:104900000E94CF2F60E085E090E00E94CF2F60E012
:1049100086E090E00E94CF2F6FEF87E090E00E944A
:10492000CF2F40E050E0BA0188E090E00E94E12FF4
:1049300060E08DE090E00E94CF2F40E050E0BA01AF
:1049400088E190E00E94E12F60E087E190E00E9422
:10495000CF2F0C945E240C9465249C012E5F3F4F56
:10496000AC01485F5F4F80E02417350709F40895D4
:10497000F90191919F019923B9F38F5FF5CF9C01C4
:10498000FC0132969FEF80E04191461751F09F3F26
:1049900019F4411101C0982F8F5F8630A9F79F3F0E
:1049A00009F40895290F311D97FD3A95F9016283A5
:1049B0000895FC01329608962191261303C0DF0169
:1049C00011971C92E817F907B9F708950C94BF24C2
:1049D0000C94D924029626E0FC0111922A95E9F75D
:1049E0000895089508950C94F2240E94F324809170
:1049F0008E02843061F110924B0288E190E020E455
:104A00000FB6F894A895809360000FBE20936000C5
:104A100080E00E943E0680E00E94B6060E94F324D9
:104A200083B7817F846083BF83B7816083BF7894BD
:104A3000889583B78E7F83BF0FB6F894A895809131
:104A40006000886180936000109260000FBE08953E
:104A50000895CF930E94F1240E945C0C0E942825A7
:104A6000C0E08C2F0E94710B811105C0CF5FCA304E
:104A7000C1F7CF91089581E0FCCF08950C943D25B6
:104A80000E94C71D0E94E8260E94D7180E94B60601
:104A90000C943E251F921FB61F9211248F939F9353
:104AA000AF93BF9380914B02811113C08091830219
:104AB00090918402A0918502B09186024196A11D39
:104AC000B11D8093830290938402A0938502B093DA
:104AD0008602BF91AF919F918F911F901FBE1F9033
:104AE000189582E084BD93E095BD9AEF97BD8093C1
:104AF0006E0008952FB7F8948091830290918402FC
:104B0000A0918502B09186022FBF08952FB7F89427
:104B10006091830270918402809185029091860257
:104B20002FBF0895CF92DF92EF92FF920F931F93C2
:104B30002FB7F894409183025091840260918502CE
:104B4000709186022FBF6A017B01EE24FF248C0145
:104B500030E020E0C016D106E206F30650F0481B14
:104B6000590BCA011F910F91FF90EF90DF90CF90EA
:104B7000089541505109F3CF78941F921FB61F92A8
:104B800011248F939F93AF93BF9380918302909151
:104B90008402A0918502B09186020196A11DB11DEB
:104BA0008093830290938402A0938502B09386023F
:104BB000BF91AF919F918F911F901FBE1F9018952D
:104BC00087E797E7909301088093000888E19AE0CF
:104BD0000FB6F894A895809360000FBE9093600084
:104BE000FFCF0E942824811102C00E94AB240E94A2
:104BF000332480934A020E943B2490E090938802E1
:104C0000809387020E943724682F70E090E080E054
:104C10000C9489210F931F9341E050E060E070E015
:104C20008A019B0104C0000F111F221F331F8A95A8
:104C3000D2F7C901B8010E9489211F910F910C94EC
:104C4000C71D8B3109F46EC040F58B3071F078F4DC
:104C5000863009F450C020F4853059F180E0089581
:104C6000873009F451C08830C9F781E00895803158
:104C700009F466C068F48E3089F790914A02892F52
:104C80008B7F92FF846080934A0282FD55C0EDCFF6
:104C9000863159F3893149F3E1CF8A3249F1B8F4C9
:104CA000873211F120F48E31C8F28D511EC0893245
:104CB000A9F60E94C71D2FEF83ED90E3215080409D
:104CC0009040E1F700C000000E94E025CECF833481
:104CD00040F48A3308F03FC0853331F0883329F23D
:104CE000BDCF833409F0BACF80E00E940A26BDCF41
:104CF0000E94AB24BACF80914A02807F80934A02FF
:104D000081E080934C02089590914A02892F8E7F12
:104D100090FF816080934A0280FDA7CF817F8093BE
:104D20004A02A3CF90914A02892F8D7F91FF826022
:104D300080934A0281FF99CF80914A028160EFCF30
:104D400090914A02892F877F93FF886080934A025F
:104D500083FDF2CF8ACF8953C8CF80E008950C94A9
:104D6000AD26CF93C82F80914C02882331F081303B
:104D700099F010924C0280E00DC00E9473238232A1
:104D8000D1F78C2F0E94AD26811116C08C2F0E9466
:104D900021268170CF9108950E947323823289F376
:104DA0008C2F0E94AF26811105C0C43171F038F4F8
:104DB000CB3079F781E0EDCF81E090E0EACFC932E6
:104DC00021F0C833B9F380E0E4CF10924C02FBCF5E
:104DD0000E942824811102C00E94AB240E94442416
:104DE000809389028C3020F081708A6080938902E0
:104DF00090918902892F817090FF02C0892F86953A
:104E00000C943E0680918902982F9695953030F447
:104E10009F5F990F8170892B80938902809189020D
:104E20008160809389020E9448248091890286953E
:104E30000C943E0680918902982F9E7F79F08250D3
:104E4000809389028E7F91E009F490E0809189023D
:104E500090FB80F9809389020E9448248091890206
:104E600086950C943E068091890280FD11C0816078
:104E700080938902813019F483E0809389028091C4
:104E800089020E9448248091890286950C943E06EE
:104E900008958091890280FF08C08E7F80938902E7
:104EA0000E94482480E00C943E0608958091890277
:104EB00080FD0C9449270C943327809189028170DE
:104EC000089590918902892F86958F5F8F779170D1
:104ED0008630B8F4880F892B8093890280918902EB
:104EE0008E7F91E009F490E08091890290FB80F937
:104EF000809389020E9448248091890286950C94AF
:104F00003E0690938902EACF863008F085E0982F1C
:104F1000990F809189028170892B809389028E7FFD
:104F200091E009F490E08091890290FB80F98093F0
:104F300089020E9448248091890286950C943E063D
:104F4000809189028695089580915502089508956B
:104F50000F931F93CF93DF9300D00F92CDB7DEB79F
:104F60008C010E94302A823011F0843019F584E0DF
:104F700089831B830A838093E9008FEF9091E80077
:104F8000815095FD06C095ED9A95F1F700008111CD
:104F9000F5CF8091E80085FF0DC050E040E063E070
:104FA00070E0CE0101960E944D2A8091E8008E7734
:104FB0008093E8000F900F900F90DF91CF911F9199
:104FC0000F910895CF93DF9300D00F92CDB7DEB746
:104FD00020918E02243029F533E0398380589109DD
:104FE0009B838A832093E9008FEF9091E8008150A2
:104FF00095FD06C095ED9A95F1F700008111F5CF6A
:105000008091E80085FF0DC050E040E063E070E073
:10501000CE0101960E944D2A8091E8008E77809300
:10502000E8000F900F900F90DF91CF910895CF93EC
:10503000DF93EC010E94302A823011F0843039F580
:1050400081E08093E9008FEF9091E800815095FD19
:1050500006C095ED9A95F1F700008111F5CF80918A
:10506000E80085FF14C050E040E068E070E0CE0149
:105070000E944D2A8091E8008E778093E80088E0B6
:10508000FE01ADE4B2E001900D928A95E1F7DF9167
:10509000CF910895CF93FC01603221F580918E026B
:1050A000843001F5C091E900CF702091EC00922F7F
:1050B000917020FD90E8C92B82E08093E9008091F7
:1050C000E80080FF0CC050E040E060E270E0CF01FB
:1050D0000E944D2A8091E8008E778093E800CF707F
:1050E000C093E900CF91089580918D02811109C08C
:1050F0000E942C2C0E94892C8091E2008460809375
:10510000E200089510928D020895089508950C9478
:10511000402542E061EC81E00E94A82B42E261EC74
:1051200084E00E94A82B42E261EC82E00E94A82B5E
:1051300042E260EC83E00C94A82B809190028330D3
:1051400009F461C030F48130D1F1823009F49DC09E
:1051500008958A3009F489C08B3009F46FC0893012
:1051600009F050C080918F02813209F04BC08091CC
:10517000930290919402009719F0029709F042C0AF
:105180008091E800877F8093E8008091E80082FFAB
:1051900035C09091F3008091F200029729F480913C
:1051A000F1008B7F813021F48091F10080935502D2
:1051B0008091E8008B778093E8000C94DC2B809141
:1051C0008F02813AF9F48091E800877F8093E800AC
:1051D0008091930290919402892B61F468E08DE4B0
:1051E00092E070E00E94EB2A8091E8008B77809338
:1051F000E800089560E090E080E0F3CF80918E02B7
:105200008111C3CF089580918F02813AD9F780919F
:10521000930290919402892BA9F78091E800877FEF
:105220008093E8008091E80080FFFCCF80912D0101
:105230008093F1008091E8008E77BDCF80918F023E
:10524000813201F78091930290919402892BD1F6DB
:105250008091E800877F8093E8000E94DC2B80919A
:10526000910280932D010C94C71D80918F02813291
:1052700049F68091E800877F8093E8000E94DC2B4C
:105280008091920280935602089580918F02813A14
:1052900009F0B8CF8091E800877F8093E800809183
:1052A000E80080FFFCCF80915602C2CFCDB7DEB7B9
:1052B000A0970FB6F894DEBF0FBECDBF84B7877F2F
:1052C00084BF0FB6F894A8958091600088618093A0
:1052D0006000109260000FBE80E880936100109221
:1052E00061000E9427190E942C2C0E94892C809119
:1052F000E20084608093E20078940E94122F0E9462
:105300002D1983E291E00E94D21813E080918E0261
:10531000853049F10E9439190E94621380918E02F2
:105320008430A1F71093E9008091E80082FFEECF6E
:105330008091E80090E085FF09C050E040E060E225
:1053400070E0CE0101960E949C2A91E08091E800D5
:105350008B778093E8009923C9F260E2CE01019631
:105360000E942604D3CF0E94F52480918C028823CA
:1053700069F20E942925882349F20E94372AC6CF64
:105380000C94C229292F33272330310521F168F4E9
:105390002130310509F449C02230310509F44AC0F1
:1053A00090E080E030E020E029C02132310581F139
:1053B00022323105A9F76330710590F7FB01EE0F3A
:1053C000FF1FEA58FE4F208131816D587E4FFB014F
:1053D000808190E013C099278130910599F0009762
:1053E00041F08230910589F00397D1F6E3E2F6E0CF
:1053F00002C0E7E5F6E0849190E09F01FA01318375
:1054000020830895E7E4F6E0F6CFE9E2F6E0F3CF93
:105410006330710528F6660F771FFB01E458FE4FD5
:105420002081318189E090E0E9CF82E190E026EBB4
:1054300036E0E4CF8BE590E02BE536E0DFCF089552
:10544000CF93C82F0E941F2AC0935702CF9108956F
:1054500080918E02843011F482E0089581E00895F5
:1054600080915702811102C00C94282A089580E18E
:1054700089BD82E189BD09B400FEFDCF8091D800CD
:105480008F7D8093D8008091E00082608093E0005F
:105490008091E00081FDFCCF0895AF92BF92CF9242
:1054A000DF92FF920F931F93CF93DF936C01EB0179
:1054B0008A010E94FB2BF82E811123C001151105D2
:1054C00039F0F80180819181C81BD90BC80ED91E13
:1054D000B12CA12C2097A9F08091E80085FD22C075
:1054E0008091E8008E778093E80001151105A1F006
:1054F000F80180819181A80EB91EB182A08285E059
:10550000F82E8F2DDF91CF911F910F91FF90DF909B
:10551000CF90BF90AF9008950E94FB2B8823D1F2CB
:10552000F82EEFCFF60181916F018093F100219762
:10553000FFEFAF1ABF0ACECFAF92BF92CF92DF92EA
:10554000FF920F931F93CF93DF936C01EB018A01BE
:105550000E94FB2BF82E811123C00115110539F093
:10556000F80180819181C81BD90BC80ED91EB12CBE
:10557000A12C2097A9F08091E80085FD22C08091A0
:10558000E8008B778093E80001151105A1F0F80180
:1055900080819181A80EB91EB182A08285E0F82E8B
:1055A0008F2DDF91CF911F910F91FF90DF90CF90C2
:1055B000BF90AF9008950E94FB2B8823D1F2F82E64
:1055C000EFCF8091F100F60181936F012197FFEFFA
:1055D000AF1ABF0ACECFFC0180919502909196023E
:1055E00086179707A0F06115710529F49091E800DE
:1055F0009E779093E80090E06115710551F4911148
:1056000008C08091E80082FF34C080E00895BC01AA
:10561000F2CF80918E028823C1F18530C1F1809153
:10562000E80083FD30C08091E80082FDEACF8091E0
:10563000E80080FFE1CF8091F3002091F200382F45
:105640006115710519F02830310558F091E02830C6
:10565000310509F090E02091E8002E772093E800D2
:10566000CBCF81918093F100615071092F5F3F4F43
:10567000E7CF80918E02882341F0853041F0809100
:10568000E80083FFBECF81E0089582E0089583E0C3
:105690000895FC01809195029091960286179707D4
:1056A000A0F06115710529F48091E8008E77809350
:1056B000E80090E06115710551F4911108C08091E6
:1056C000E80082FF35C080E00895BC01F2CF8091F0
:1056D0008E028823C9F18530C9F18091E80083FDED
:1056E00031C08091E80082FDEACF8091E80080FF20
:1056F000E1CF8091F3002091F200382F6115710500
:1057000019F02830310558F091E02830310509F0C2
:1057100090E08091E8008E778093E800CBCF849171
:105720008093F1003196615071092F5F3F4FE6CFB2
:1057300080918E02882341F0853041F08091E8000D
:1057400083FFBDCF81E0089582E0089583E008954E
:10575000982F973028F08F708093E90081E00895AA
:105760009093E900242F762F50E0981731F0709134
:10577000EC002091ED005091F00021FD02C09F5FF0
:10578000E8CF3091EB003E7F3093EB003091ED009D
:105790003D7F3093ED003091EB0031603093EB00B2
:1057A0007093EC002093ED005093F0002091EE00F8
:1057B00027FDE5CF80E0089580918F0287FF13C019
:1057C0008091E80082FF06C08091E8008B7780938B
:1057D000E80004C080918E028111F2CF089580917B
:1057E0008E028823D9F38091E80080FFF8CF809162
:1057F000E8008E77ECCF2091E4003091E50095E64B
:10580000A9012091EC00822F817020FF06C08091B9
:10581000E80080FF06C080E008952091E80022FDA6
:105820001AC080918E02882389F0853089F080919A
:10583000EB0085FD0FC02091E4003091E500421798
:105840005307F9F29150E1F684E0089582E008955B
:1058500083E0089581E008950E949A2C0E94A22C72
:10586000E0EEF0E0808181608083E8EDF0E080810F
:105870008F77808319BCA7EDB0E08C918E7F8C93DD
:1058800080818F7E808310928D0208950F931F93E5
:10589000CF93DF930E949A2C0E94A22CC8EDD0E0F7
:1058A00088818F77888388818068888388818F7DCD
:1058B000888319BC10928E0210928A0210928C0278
:1058C00010928B0200EE10E0F80180818B7F8083C4
:1058D00088818160888342E060E080E00E94A82B9C
:1058E000E1EEF0E080818E7F8083E2EEF0E0808167
:1058F00081608083808188608083F80180818E7FD1
:105900008083888180618883DF91CF911F910F917F
:105910000895E8EDF0E080818F7E8083E7EDF0E090
:1059200080818160808384E082BF81E080938D02EA
:105930000C94462CE8EDF0E080818E7F80831092FD
:10594000E20008951092DA001092E10008951F928B
:105950000F920FB60F9211242F933F934F935F93A3
:105960006F937F938F939F93AF93BF93EF93FF9327
:105970008091E10082FF0BC08091E20082FF07C0AE
:105980008091E1008B7F8093E1000E94112F809134
:10599000DA0080FF19C08091D80080FF15C0809187
:1059A000DA008E7F8093DA008091D90080FF96C064
:1059B00080E189BD82E189BD09B400FEFDCF81E0AF
:1059C00080938E020E9474288091E10080FF19C0AC
:1059D0008091E20080FF15C08091E2008E7F80936D
:1059E000E2008091E20080618093E2008091D80023
:1059F00080628093D80019BC85E080938E020E945B
:105A000086288091E10084FF2BC08091E20084FF12
:105A100027C080E189BD82E189BD89B5982F917049
:105A200080FFFBCF8091D8008F7D8093D80080913C
:105A3000E1008F7E8093E1008091E2008F7E809371
:105A4000E2008091E20081608093E20080918A020E
:105A5000882309F449C084E080938E020E9487283D
:105A60008091E10083FF29C08091E20083FF25C07F
:105A70008091E100877F8093E10082E080938E0235
:105A800010928A028091E1008E7F8093E1008091E4
:105A9000E2008E7F8093E2008091E200806180933B
:105AA000E20042E060E080E00E94A82B8091F000DC
:105AB00088608093F0000E948528FF91EF91BF914C
:105AC000AF919F918F917F916F915F914F913F9196
:105AD0002F910F900FBE0F901F90189519BC109228
