:100000000C9444060C9416310C948B060C948B06BD
:100010000C948B060C948B060C948B060C948B061C
:100020000C948B060C948B060C94AB270C946727CE
:100030000C943B300C948B060C948B060C948B0622
:100040000C948B060C948B060C948B060C948B06EC
:100050000C948B060C9417300C948B060C948B0626
:100060000C948B060C948B060C948B060C948B06CC
:100070000C948B060C948B060C948B060C948B06BC
:100080000C948B060C948B060C948B060C948B06AC
:100090000C948B060C948B060C948B060C948B069C
:1000A0000C948B060C948B060C948B060631FF097E
:1000B00074A1010975150026FF00952075088102BD
:1000C0000976150026FF00952075089102C00501EC
:1000D0000980A101850319012AB700150126B7007F
:1000E000950175108100C0050C0901A10185041955
:1000F000012AA002150126A002950175108100C0F9
:100100000660FF0961A1010962150026FF00952024
:10011000750881020963150026FF00952075089176
:1001200002C005010906A101050719E029E715002C
:100130002501950875018102950175088101050762
:10014000190029FF150026FF009506750881000596
:10015000081901290595057501910295017503910D
:1001600001C00001010101010101010102020202BD
:100170000202020202030303030303030304040451
:10018000040404040505050505060606060607071A
:1001900007070708080808090909090A0A0A0B0BD2
:1001A0000B0C0C0C0D0D0D0E0E0E0F0F0F10101171
:1001B00011111212131314141515161617171818F7
:1001C00019191A1A1B1B1C1D1D1E1E1F202021225F
:1001D00022232424252626272829292A2B2C2D2DA5
:1001E0002E2F30313232333435363738393A3B3CC2
:1001F0003D3E3F404142434445464748494A4C4DB5
:100200004E4F50515354555658595A5B5D5E5F617D
:100210006264656668696B6C6D6F70727375777810
:100220007A7B7D7E8082838587888A8C8E8F91936E
:100230009596989A9C9EA0A2A3A5A7A9ABADAFB195
:10024000B3B5B7BABCBEC0C2C4C6C9CBCDCFD1D47A
:10025000D6D8DBDDDFE2E4E7E9EBEEF0F3F5F8FA20
:10026000FDFF7267626C69676874206D6F6465205A
:100270005B4E4F454550524F4D5D3A2025750A0063
:100280007267626C69676874206D6F6465205B4596
:100290004550524F4D5D3A2025750A007267626CD9
:1002A0006967687420656E61626C65205B454550C6
:1002B000524F4D5D3A207267626C696768745F6384
:1002C0006F6E6669672E656E61626C65203D2025E4
:1002D000750A007267626C6967687420646973618B
:1002E000626C65205B4E4F454550524F4D5D3A2044
:1002F0007267626C696768745F636F6E6669672EA8
:10030000656E61626C65203D2025750A007267622A
:100310006C696768742073657420687376205B4E1F
:100320004F454550524F4D5D3A2025752C25752C73
:1003300025750A007267626C69676874207365745A
:1003400020687376205B454550524F4D5D3A20251D
:10035000752C25752C25750A007267626C696768B3
:1003600074207261696E626F7720736574206873A0
:10037000763A2025642C25642C25642C25750A00EA
:10038000FFAA7F55400102030C0D0E0F0007060562
:10039000040B0A09087267626C69676874207469E3
:1003A0006D657220656E61626C65642E0A0072670D
:1003B000626C696768742074696D65722064697322
:1003C00061626C652E0A002223252628292A2C2DFD
:1003D0002F3032333536383A3B3D3E404243454775
:1003E000494A4C4E5051535557595A5C5E606264AD
:1003F0006668696B6D6F71737577797B7D7F8183BB
:100400008587898A8C8E90929496989A9C9E9FA1BB
:10041000A3A5A7A8AAACAEAFB1B3B4B6B8B9BBBCDC
:10042000BEBFC1C2C3C5C6C7C9CACBCCCDCED0D151
:10043000D2D2D3D4D5D6D7D7D8D9D9DADADBDBDB49
:10044000DCDCDCDCDCDDDDDDDDDCDCDCDCDCDBDBEA
:10045000DBDADAD9D9D8D7D7D6D5D4D3D2D2D1D03E
:10046000CECDCCCBCAC9C7C6C5C3C2C1BFBEBCBB3B
:10047000B9B8B6B4B3B1AFAEACAAA8A7A5A3A19FB3
:100480009E9C9A98969492908E8C8A898785838177
:100490007F7D7B79777573716F6D6B696866646258
:1004A000605E5C5A5957555351504E4C4A49474526
:1004B0004342403E3D3B3A3836353332302F2D2CC7
:1004C0002A2928262523226261636B6C6967687478
:1004D00020656E61626C650A003A003B00165C1E86
:1004E000001F0020002100220023003C003D002BC3
:1004F0000014001A0008001500170000003E003F1D
:1005000000390004001600070009000A000000403E
:10051000004100E10064001D001B000600190005F9
:100520000042004300E000E200E30001512C002CF7
:1005300000000024002500260027002D002E004C7E
:10054000002A004A001C0018000C00120013002FA3
:1005500000300031004D000B000D000E000F003385
:10056000003400320028004B001100100036003724
:100570000038000000E50052004E0001512C00E65A
:1005800000E400E7000000500051004F00010001AE
:1005900000165C3A003B003C003D003E003F00017D
:1005A000000100C25CC35C010052000100010000B8
:1005B000000100010001000100500051004F000146
:1005C0000000000100010001000100010001000124
:1005D00000010001000100010035020100010001DD
:1005E00000010001000000400041004200430044BF
:1005F0000045004C002A000100010001000100013B
:1006000000010001000100010001000100010001E2
:1006100000010001000100010001000100010001D2
:1006200000010001000100000001000100010001C3
:1006300000010001000100010000000100010001B3
:1006400000010001000100010001000100010001A2
:100650000001000100010001000100010001000192
:100660000001000000010001000100010001000183
:100670000001000100000001000100010001000173
:100680000001000100010001000100010001000162
:100690000001000100010001000000010001000153
:1006A0000001000100010001000100010001000142
:1006B0000001000100010001000100010001000132
:1006C0000001000100010001000100010001000122
:1006D0000001000100010001000100000001000113
:1006E0000001000100010001000100010000000103
:1006F00000010001000100010001000100010001F2
:1007000000010001000100010001000100010001E1
:1007100000010001000100000001000100010001D2
:1007200000010001000100010000000100010001C2
:1007300000010001000100010001000100010001B1
:1007400000010001000100010001000100000001A2
:100750000001000100010001000100010001000191
:100760000001000100010001000100010001000181
:100770000001000100010001000100010001000171
:100780000001000100010001000100010001000062
:100790000001000100010001000100010001000151
:1007A0000000000100010001000000000000000046
:1007B000000000000000000000000000007E0F00AC
:1007C000D4FFFFFFC7000000780000000000000019
:1007D000002A2B280000000000000000000000009C
:1007E0000000000029000000002C1E3420212224DB
:1007F000342627252E362D3738271E1F2021222369
:100800002425263333362E37381F040506070809FA
:100810000A0B0C0D0E0F10111213141516171819C0
:100820001A1B1C1D2F3130232D350405060708091E
:100830000A0B0C0D0E0F10111213141516171819A0
:100840001A1B1C1D2F3130354C6261636B6C69675C
:1008500068742064656372656173653A2025750A62
:10086000006261636B6C6967687420696E637265AE
:100870006173653A2025750A006261636B6C696774
:1008800068742064697361626C650A006261636BFD
:100890006C6967687420746F67676C653A202575AA
:1008A0000A006261636B6C696768742073746570B9
:1008B0003A2025750A007267626C69676874206463
:1008C000697361626C65205B454550524F4D5D3ADE
:1008D000207267626C696768745F636F6E666967D0
:1008E0002E656E61626C65203D2025750A00726779
:1008F000626C6967687420746F67676C65205B451C
:100900004550524F4D5D3A207267626C696768745A
:100910005F636F6E6669672E656E61626C65203D10
:100920002025750A0044454255473A2064697361A1
:10093000626C65642E0A0044454255473A20656E54
:1009400061626C65642E0A000A002530325820006E
:100950006B6579626F6172645F7265706F72743A11
:1009600020007267626C696768745F636F6E6669A6
:10097000672E7370656564203D2025640A007267E8
:10098000626C696768745F636F6E6669672E766113
:100990006C203D2025640A007267626C6967687488
:1009A0005F636F6E6669672E736174203D202564F6
:1009B0000A007267626C696768745F636F6E66696C
:1009C000672E687565203D2025640A007267686C93
:1009D000696768745F636F6E6669672E6D6F6465C3
:1009E000203D2025640A007267626C696768745F45
:1009F000636F6E6669672E656E61626C65203D206F
:100A000025640A007267626C696768745F636F6E61
:100A100066696720454550524F4D3A0A0072676239
:100A20006C696768745F696E6974207267626C696B
:100A30006768745F636F6E6669672E6D6F646520AB
:100A40003D20302E2057726974652064656661759B
:100A50006C742076616C75657320746F2045455009
:100A6000524F4D2E0A007267626C696768745F6945
:100A70006E6974206565636F6E66696720697320AF
:100A80006E6F7420656E61626C65642E0A00726719
:100A9000626C696768745F696E69742073746172EF
:100AA00074210A007267626C696768745F696E69B5
:100AB000742063616C6C65642E0A000A0025303175
:100AC0003662003A200025303258000A722F632027
:100AD0003031323334353637383941424344454674
:100AE0000A007267626C6967687420616E696D6183
:100AF00074696F6E207469636B207265706F7274B5
:100B000020746F20736C6176650A0000047F3F1FBC
:100B1000643214643214783C1E1E140A050A00253F
:100B2000303258006B6579626F6172645F7365740F
:100B30005F6C65643A20007267626C696768742054
:100B4000656E61626C65205B4E4F454550524F4D5E
:100B50005D3A207267626C696768745F636F6E6686
:100B600069672E656E61626C65203D2025750A00FF
:100B70007267626C6967687420736574207370654E
:100B80006564205B4E4F454550524F4D5D3A2025E0
:100B9000750A005B735D004B6579626F617264205A
:100BA00073746172742E0A005B435D005B445D00E8
:100BB0005B535D005B575D005B525D0009027B008B
:100BC000040100A0FA090400000103010100092149
:100BD000110100012240000705810308000A0904F1
:100BE000010002030000000921110100012222007E
:100BF0000705820320000107050303200001090403
:100C0000020001030000000921110100012232004D
:100C10000705840320000A09040300020300000002
:100C2000092111010001222200070585032000018E
:100C30000705050320000112011001000000081043
:100C4000CB572200020102030104033000000022FE
:100C5000035100750065006600720065006E006358
:100C600000790020005200650076002E002000323E
:100C70000000000E034B0065006500620069006F14
:100C8000000000040309040011241FBECFEFDAE0C6
:100C9000DEBFCDBF04B603FE27C080912303909131
:100CA0002403A0912503B09126038730904BA740E1
:100CB000B04BD1F410922303109224031092250319
:100CC0001092260314BE84B7877F84BF0FB6F894B2
:100CD000A895809160008861809360001092600008
:100CE0000FBEE0E0F8E3099523E0A2ECB1E001C01B
:100CF0001D92A332B207E1F711E0A0E0B1E0E4EA0F
:100D0000F6E602C005900D92A23CB107D9F70E9409
:100D1000E0280C9405330C940000FF93EF93E091CE
:100D2000C201F091C301309709F00995EF91FF914D
:100D30000895FC018591803011F0EFDFFBCF08951D
:100D4000FF27E0E230E247FF0CC0419597FF09C062
:100D5000EDE26095709580959095611D711D811DE6
:100D6000911D27FF02C0219530E350E2AA27660FAC
:100D7000771F881F991FAA1FA41710F0A41B639543
:100D80005A95A9F7AA3008F0A95FA05DAF93F39533
:100D9000611571058105910541F7ED3211F4EF936D
:100DA000F395F21718F43F93F395FBCF8F91B5DFCE
:100DB000FA95E1F70895E991F9918591803021F054
:100DC000853219F0AADFF9CF089520E0E894559113
:100DD0005532C1F3503311F4689455915A3348F4A5
:100DE000505390F3220F022E220F220F200D250FB9
:100DF000F4CF0EF4219589919991533619F3533715
:100E000029F1533559F1BC0188279927E8945C36BC
:100E100021F48991999168945591543639F446EFAB
:100E20007EF077FF0DC08FEF9FEF0AC055374AE085
:100E300039F0583540E121F0523642E009F008958A
:100E4000FF93EF937DDFEF91FF91B7CFFF93EF9388
:100E5000FC0181918030B9F360DFFBCFFF93EF930A
:100E600068DFF1CFDF93CF93CDB7DEB72596A3DF51
:100E7000CF91DF910895E8EDF0E080818E7F80834F
:100E80001092E2001092DA001092E100A0EEB0E0C1
:100E90008C9181608C9380818F77808319BCA7EDC2
:100EA000B0E08C918E7F8C9380818F7E80831092B6
:100EB000050308952091E4003091E50095E6A9012D
:100EC0002091EC00822F817020FF06C08091E80005
:100ED00080FF06C080E008952091E80022FD1AC03E
:100EE00080911B03882389F0853089F08091EB0085
:100EF00085FD0FC02091E4003091E50042175307B3
:100F0000F9F29150E1F684E0089582E0089583E0DB
:100F1000089581E00895EF92FF920F931F93CF936E
:100F20007C018B010E945A07C82F811117C0809144
:100F3000E80085FD0BC08091E8008E778093E80083
:100F40000E945A07882399F3C82F08C0F70181919E
:100F50007F018093F1000150110949F78C2FCF9147
:100F60001F910F91FF90EF900895CF93FC01809116
:100F70001B03843001F5C091E900CF702091EC0093
:100F8000922F917020FD90E8C92B82E08093E900B8
:100F90008091E80080FF0CC050E040E060E270E02B
:100FA000CF010E948B078091E8008E778093E80044
:100FB000CF70C093E900CF9108958091130387FF0C
:100FC00013C08091E80082FF06C08091E8008B7713
:100FD0008093E80004C080911B038111F2CF089533
:100FE00080911B038823D9F38091E80080FFF8CF1C
:100FF0008091E8008E77ECCF982F9093E900242F12
:10100000762F50E0891731F07091EC002091ED00BF
:101010005091F00021FD07C09F5F973071F78093DA
:10102000E90081E008953091EB003E7F3093EB00C2
:101030003091ED003D7F3093ED003091EB00316059
:101040003093EB007093EC002093ED005093F00090
:101050002091EE0027FDE0CF80E00895CF92DF924F
:10106000EF92FF920F931F93CF93DF93C8EDD0E0E1
:1010700088818F7E8883E7EDF0E0808181608083C6
:1010800084E082BF81E08093050388818E7F88831E
:1010900002EE10E0F80110821092DA0081EEC82E04
:1010A000D12CF601108288818F77888388818068AF
:1010B000888388818F7D888319BC10921B031092CE
:1010C0001203109211031092100390EEE92EF12CEE
:1010D000F70180818B7F808388818160888342E0F3
:1010E00060E080E00E94FC07F60180818E7F8083B3
:1010F000F801808181608083808188608083F7012E
:1011000080818E7F8083888180618883DF91CF9109
:101110001F910F91FF90EF90DF90CF900895FC0109
:101120008091190390911A0386179707A0F0611513
:10113000710529F49091E8009E779093E80090E083
:101140006115710551F4911108C08091E80082FF8A
:1011500034C080E00895BC01F2CF80911B03882346
:10116000C1F18530C1F18091E80083FD30C08091EC
:10117000E80082FDEACF8091E80080FFE1CF809116
:10118000F3002091F200382F6115710519F0283015
:10119000310558F091E02830310509F090E02091B8
:1011A000E8002E772093E800CBCF81918093F10067
:1011B000615071092F5F3F4FE7CF80911B03882358
:1011C00041F0853041F08091E80083FFBECF81E09F
:1011D000089582E0089583E0089508950895809128
:1011E000070308959C014FB7F8948091FF029091F6
:1011F0000003A0910103B09102034FBF821B930B28
:1012000008952FB7F8948091FF0290910003A09168
:101210000103B09102032FBF0895829590E09C01D5
:10122000220F331F220F331F2C7C959587959595A0
:1012300087958373282B30E0C901880F991F8A7A1C
:10124000359527952575822B089580919D028111F2
:1012500010929D020895E6ECF1E09191891303C08C
:10126000DF0111971C9291E0EC3CF907B1F708956A
:10127000A6ECB1E0EFEF90E02D91821751F0EF3F37
:1012800019F4211101C0E92F9F5F9630A9F7EF3FB4
:1012900009F408950E2E000CFF0BEC53FE4F8283D1
:1012A000089529E0929F800D1124982F97708695BC
:1012B0008695869525E0829FF0011124E35AFD4F23
:1012C00050E040E080E0219130E0092E02C03695E8
:1012D00027950A94E2F721703327042E01C0220FCC
:1012E0000A94EAF7822B4F5F5F4F4530510559F75B
:1012F000089529E0929F800D1124982F977041E066
:1013000001C0440F9A95EAF786958695869595E0F3
:10131000899FF0011124E35AFD4F90E080E070E0D6
:101320005191DF0111979B01082E02C03695279538
:101330000A94E2F7217021952527242325272C9351
:1013400001968530910561F7089580915C02909136
:101350002B02981301C008958F5F8770FACF2091F8
:101360002102309122022817390771F0909322024E
:1013700080932102E091C002F091C102309721F0E8
:101380000084F185E02D0994089520911F02309189
:1013900020022817390771F09093200280931F02D2
:1013A000E091C002F091C102309721F00680F781F0
:1013B000E02D09940895E091C002F091C1023097A8
:1013C00021F00190F081E02D099480E00895CF9202
:1013D000DF92EF92FF92843030F5811125C0909119
:1013E00080009F77909380002D98282F30E0AFEFFA
:1013F000BFEF0E94963223E030E040E050E00E94D0
:101400006732C9012C3764E13607A0F469E070E067
:101410000E943F327093890060938800FF90EF90A4
:10142000DF90CF90089583E0909180009068909332
:101430008000DBCF2A50374D4F4F5F4F942F832FC3
:10144000722F662725EF38E241E050E00E946732B4
:1014500069017A01CA01B9010E9423329B01AC01E2
:10146000C701B6010E942332672F782F892F992751
:101470006115710521E08207910561F66FEF7FEF3D
:10148000C9CF282F220F220F220F9091E4029770CC
:10149000922B9093E402987F21E009F420E0909150
:1014A000E40220FB90F99093E4020C94E709FA011E
:1014B000811101C0FB0109948091E602982F9E7F63
:1014C00029F4817082608093E60208958A34E8F3FB
:1014D00081708864F8CFAF92BF92DF92EF92FF9253
:1014E0000F931F93CF93DF93082F162FE901E42F5B
:1014F000F0E0EE59FE4F611110C0E4915E2F4E2FC7
:101500004983E8835A83DF91CF911F910F91FF9018
:10151000EF90DF90BF90AF900895E62EF12C4491AC
:10152000D42EE42FF0E026E0829FC00111242FEF9B
:1015300030E0B9010E943F32802F90E0880F991F60
:1015400055E5569FD001579FB00D11248A1B9B0B68
:10155000982F990F890F5901AE18BF08AE9ED00180
:10156000AF9EB00DBE9EB00D11245B2F189F800161
:101570001124012F11275901A01AB10AAE9E800132
:10158000AF9E100DBE9E100D11245901A81AB1086E
:10159000AE9CC001AF9C900DBE9C900D1124892F74
:1015A0009927281B390B2E9FC0012F9F900D3E9F1E
:1015B000900D1124E92F62307105A1F050F46115EE
:1015C000710509F49DCF6130710581F0EB2F512F2A
:1015D00097CF6430710569F080F06630710509F4C9
:1015E0008FCFF4CFE42F4B2F592F8ACFE42F412FE9
:1015F00087CFEB2F542F492F83CF4B2F5D2DE12F1A
:101600007FCF9091BD0292FF06C0282F287128300D
:10161000F9F4877F846093FF06C0282F2871283152
:10162000F1F4877E84612091BE0220FF06C0382F2E
:1016300038713830D9F4877F816021FF06C0282FA8
:1016400028712831D1F4877E816194FD877E0895C9
:10165000282F24712430F9F68B7F8860DCCF282F67
:101660002471243101F78B7E8861DDCF382F3171F1
:10167000313019F78E7F8860E0CF282F217121311A
:1016800021F78E7E8861E1CF90913301992329F073
:1016900081FD02C02E9A08952E9808959FB7F89460
:1016A000109203039FBF90911B03943009F048C030
:1016B0002091E9002F703091EC00932F917030FD54
:1016C00090E8922B25E02093E9002091EB0020FF89
:1016D00034C02091EE0027FF30C02091A2022223C7
:1016E00021F02091E80025FF28C01092A20226E0F8
:1016F0003091E80035FF14C08093F1008091E8003C
:1017000085FD27C08091E80080FFFCCF8091E80034
:101710008E778093E8009F709093E90080E00895B1
:1017200030911B03343049F43091EB0035FD05C096
:10173000215041F481E08093A2029F709093E900D0
:101740008FEF0895EFE9FFE03197F1F700C0000057
:10175000CFCF8FB7F89421E0209303038FBFDBCF67
:10176000CF93DF9300D00F92CDB7DEB790911B03DC
:10177000943011F589837B836A839093E9008FEF1E
:101780009091E800815095FD06C095ED9A95F1F78E
:1017900000008111F5CF8091E80085FF0DC050E079
:1017A00040E063E070E0CE0101960E948B078091DB
:1017B000E8008E778093E8000F900F900F90DF91F4
:1017C000CF91089520911B03243021F4BC0184E0C3
:1017D0000C94B00B0895BC0183E00C94B00BCF9334
:1017E000DF93EC0180911B03843039F581E0809315
:1017F000E9008FEF9091E800815095FD06C095EDCE
:101800009A95F1F700008111F5CF8091E80085FFEE
:1018100014C050E040E068E070E0CE010E948B0709
:101820008091E8008E778093E80088E0FE01A8E0D0
:10183000B3E001900D928A95E1F7DF91CF91089581
:1018400081E08093E00080E28093D8001092C9008C
:101850008FE19EE40197F1F700C0000087E090EB74
:10186000DC018093230390932403A0932503B0937A
:10187000260388E19CE00FB6F894A8958093600059
:101880000FBE90936000FFCFCF92DF92EF921F9335
:10189000CF93DF93CDB7DEB7E0970FB6F894DEBFF6
:1018A0000FBECDBF10910D018091E60280FD0AC0F0
:1018B000EAEEF1E0118210821282339682E0EA3180
:1018C000F807C1F7E5E8F3E09E012F5F3F4FBE0147
:1018D0006F5C7F4FC901A4914A2F50E0DA01AA0F33
:1018E000BB1FA40FB51FA651BE4FCD90DD90EC904D
:1018F000D901CD92DD92ED929D013196A617B707E1
:1019000051F72091A30243E0249F800D911D1124E3
:101910006E9A2EB12F7B3EB130645FB7F894BC0154
:10192000149F600D711D112468177907A1F45FBF22
:1019300087EC90E00197F1F700C00000E0960FB649
:10194000F894DEBF0FBECDBFDF91CF911F91EF9016
:10195000DF90CF900895FC014191CF01E8E03EB9BE
:10196000000000C047FF2EB9440F000000C000C0B7
:1019700000C02EB900C0EA9591F7D6CFEF92FF9242
:101980000F931F93CF93DF938C01CAEED1E0F12C1C
:10199000E12CF80194816091E8028091E702F8E07F
:1019A000EF16F104FCF49923F9F09E014091E9024D
:1019B0000E946B0A2FEFE21AF20A239680E1E816E2
:1019C000F10439F70E94440CF801848190E00196FB
:1019D000817099278483DF91CF911F910F91FF90A0
:1019E000EF900895992309F39E0140E0E1CFEF9233
:1019F000FF921F93CF93DF93EC018AEEE82E81E0F4
:101A0000F82E10E08C8197014091E9026091E80284
:101A1000810F0E946B0A115F83E0E80EF11C103FFA
:101A200089F70E94440C9A818C8190FF08C08F5FD7
:101A30008C83DF91CF911F91FF90EF90089581509B
:101A4000F7CFAF92BF92CF92DF92EF92FF920F93B8
:101A50001F93CF93DF93EC018A81BB24BA9480FD5E
:101A600002C0BB24B3948C81811108C081E0B812FC
:101A700056C08FE08093E70181E08C830AEE11E08D
:101A8000F12CE12CF80111821082128294E0C92E0F
:101A9000D12CA12C8091E7018A0D81310CF442C038
:101AA0008F70082E000C990B8E159F0591F4809174
:101AB000E9028C9DA0018D9D500D112455954795EF
:101AC0005595479598016091E8028091E7020E9440
:101AD0006B0AAB0CF1E0CF1AD108E1F68FEFE81AF0
:101AE000F80A0D5F1F4F90E1E916F10459F60E94C4
:101AF000440C8091E701E1E0BE121DC0811116C0C7
:101B00008FE08093E7011C82DF91CF911F910F91AD
:101B1000FF90EF90DF90CF90BF90AF90089510921C
:101B2000E701AACF87FFBDCF805FBBCF81508093F5
:101B3000E701BC82E9CF90E001968F7099278093EE
:101B4000E7018C83E1CFEF92FF920F931F93CF9326
:101B5000DF937C01FC018481811109C081E08483D1
:101B60001092E80192E090930C0180930B01CAEE71
:101B7000D1E0FE01118210821282339682E0EA31B6
:101B8000F807C1F710E000E08091E801082E000C92
:101B9000990B08171907BCF180910C01082E000C55
:101BA000990B801791077CF19E014091E9026091A9
:101BB000E8028091E7020E946B0A0F5F1F4F239695
:101BC0000031110509F70E94440C80910B0190919E
:101BD000E801980F9093E80120910C01280F2093C1
:101BE0000C01121614F49F303CF0819580930B0188
:101BF000813011F4F7011482DF91CF911F910F9181
:101C0000FF90EF900895198218821A82D6CFEF9232
:101C1000FF920F931F93CF93DF93EC018C819D81F3
:101C20000196817099279D838C838AEEE82E81E04E
:101C3000F82E10E005E5812F86952C813D81820FDD
:101C4000932F911D817097014091E9026091E80204
:101C5000809F802D11240E946B0A1F5F83E0E80E95
:101C6000F11C103141F7DF91CF911F910F91FF903F
:101C7000EF900C94440C9091E60290FF0CC0EAEEB9
:101C8000F1E0818360834283339692E0EA31F90781
:101C9000C1F70C94440C08950F931F93CF93DF93D7
:101CA00000D00F92CDB7DEB78C018091E901811190
:101CB0000AC09E012F5F3F4F4FEF6FEF0E946B0AEC
:101CC0008A818093E901F8016481613069F0809133
:101CD000E90140E0662361F040E0623011F4409198
:101CE000E90180E060E004C06091E90140E080E04B
:101CF0000E943B0EF801848190E0019663E070E061
:101D00000E94533284830F900F900F90DF91CF91F8
:101D10001F910F910895CF93DF9300D00F92CDB70D
:101D2000DEB79091E60290FF0AC09E012F5F3F4F01
:101D30000E946B0A4B8169818A810E943B0E0F9041
:101D40000F900F90DF91CF910895CF93DF93EC0127
:101D5000EC81F0E0E953FC4F4491E6EEF2E0628161
:101D600081810E948B0E8C818F5F8C83DF91CF915C
:101D70000895CF93DF93EC01E6EEF2E043816281B8
:101D80008C810E948B0E8C818F5F8C83DF91CF9131
:101D900008958091E601811111C08091D800806181
:101DA0008093D8008AE18A95F1F700C09091D9001C
:101DB000892F817090FF82E08093E60181E090910D
:101DC000E601913009F080E00895CF9384E090E03F
:101DD0000E94B032C82F81E290E00E94B032982F6A
:101DE0008C2FCF9108950F931F93CF93DF93C42F20
:101DF000D0E0CC0FDD1F22E1629FC00DD11D112468
:101E000034EB839FC00DD11D1124CE0187960E9413
:101E1000B032082F10E0102F0027CE0188960E94C4
:101E2000B0329801282BC901DF91CF911F910F91FA
:101E30000895462F843038F47A3028F4693018F445
:101E4000672F0C94F30E90E080E00895CF93DF931A
:101E50000E94190FEC0182389105A9F1D8F5813360
:101E6000910509F496C048F58932910509F48AC0B4
:101E70008A9709F495C0C11522E5D20708F0B6C0CB
:101E8000C11531E5D30708F026C1C83ED10508F0D9
:101E90009CC0C13ED10560F5C83AD10508F087C0A5
:101EA000C53AD10508F0EFC0C130D10509F120973E
:101EB000F9F0C430D105E0F440C08533910509F450
:101EC0005AC0C997C1F68091BD02837089F0C0EEF7
:101ED000D0E00EC0833E910599F170F4803E9105EB
:101EE00001F1823E910539F68091BD0282FD21C04B
:101EF000CE01DF91CF910895863E910561F1873E35
:101F0000910571F1843E910509F0B5CF8091BE0233
:101F100081FFEECF8091BD02C7EED0E084FD0DC001
:101F2000E7CF8091BD0280FD07C19091BE0290FF76
:101F3000DFCFC3EED0E084FFDBCFD0E0C0E0D8CF6E
:101F40008091BD0282FDFBC09091BE0290FDBFCF8B
:101F500084FFCECFF2CF8091BD0283FDDDCFC8CF0D
:101F60008091BD0283FDEEC09091BE0291FFF0CF43
:101F7000C4EED0E0BDCF8091BD0285FFB9CFC9E2EC
:101F8000D0E0B6CF8091BD0285FFB2CFC5E3D0E0EF
:101F9000AFCF8091BD0286FFABCFCAE2D0E0A8CF21
:101FA0008091BD0286FFA4CFC1E3D0E0A1CFCF3B9B
:101FB000D10518F6C85AD0E0CC0FDD1FC058DE4F4F
:101FC0000990D881C02DD46493CFC11540E5D407C2
:101FD00008F064C0C11580E4D80708F05CC0CE01E9
:101FE0009A9581159F4108F483CFA7CFC11536E597
:101FF000D30718F5C11545E5D40708F084C0C1150D
:1020000084E5D80708F07AC09C2F969596959E0196
:1020100023703327C115D34508F462C0C1E0D0E076
:1020200002C0CC0FDD1F2A95E2F730E2939FC0017A
:102030001124C82BD92BDA685BCFC1158AE5D807E4
:1020400078F4C11599E5D90708F068C0C11528E5ED
:10205000D20708F472CFDC2FCC27C06FD06A48CFEC
:10206000CE0190568115904208F067CF8D2F8F7169
:102070000E94010B90E0982F882788279F719C0170
:102080002C2BE90149C0C55AD0E0C358DE4FC881A6
:10209000D0E0D0642DCFDF70D06A2ACFCE01E4E04B
:1020A00096958795EA95E1F783702C2F26952695CE
:1020B000237040E2249F90011124382B8C2F8370D1
:1020C000C1E0D0E002C0CC0FDD1F8A95E2F7C22B41
:1020D000D32BDC680DCFDC2FCC27C16FD06A08CFA3
:1020E000C1E0D0E002C0CC0FDD1F2A95E2F720E26C
:1020F000929FC0011124C82BD92BEBCFDC2FCC270A
:10210000C46FD06AF5CE8C2F0E94010BC82FD0E08F
:10211000DC2FCC27CC27DF71D062EACE8C2F8F70DA
:102120000E94010B34E0D695C7953A95E1F7CF7040
:102130009C2FEC01D069DCCEC9E3D0E0D9CEC2EE51
:10214000D0E0D6CEC6EED0E0D3CEBF92CF92DF9213
:10215000EF92FF920F931F93CF93DF938C01C09068
:102160001C03D0901D03E0901E03F0901F0380918C
:102170009E0290919F02A091A002B091A102C82A54
:10218000D92AEA2AFB2ACFE1D0E0BC2ED701C6012A
:102190000C2E04C0B695A795979587950A94D2F70B
:1021A00080FD0EC0219788F7B12C8B2DDF91CF9148
:1021B0001F910F91FF90EF90DF90CF90BF90089507
:1021C000B8018C2F0E94260F019761F3EECFCF93B9
:1021D000DF93EC010E94A510BE01DF91CF910C941A
:1021E000260F0E94E710292F2F7092959F70925012
:1021F0009E3078F4E92FF0E0E95FFC4C0C948932D2
:10220000803F19F020F4883E20F481E00895843F57
:10221000E1F380E00895883EC0F3813FD1F7F5CF28
:10222000822F86958695869508956F927F928F92DC
:102230009F92AF92BF92CF92DF92EF92FF920F9355
:102240001F93CF93DF9389EDC82E84E0D82E9DEEA7
:10225000E92EF12CE701C45BD10936011BC0F50161
:1022600085909490692DC8010E94C432682DC801E0
:1022700001960E94C43282E0A80EB11C0E5F1F4F6F
:10228000C017D10761F782E1680E711C6296CE1506
:10229000DF0529F08E01025111095301E0CF7E01C3
:1022A00084EBE80EF11C84EBC80ED11C8DEBE81614
:1022B00083E0F80679F6DF91CF911F910F91FF909F
:1022C000EF90DF90CF90BF90AF909F908F907F90D6
:1022D0006F900895682F86E090E00C94C4320E94BD
:1022E000410A8091E4020C946A11CF93DF93C7EF07
:1022F000D2E060E0CE010E94C4322196C11584E094
:10230000D807B9F7DF91CF910895CF93C82F6FEF1A
:10231000811160E282E290E00E94C4326FEFC1114D
:1023200064E083E290E00E94C4326FEFC11168E282
:1023300084E290E0CF910C94C432EF92FF920F931D
:102340001F93CF93DF9380919C0290919B02892BE6
:1023500090919A02892B8093C40190919D029923B8
:1023600091F0892B8093C40120E086EC91E0FC0180
:102370003191CF0131112F5FF1E08C3C9F07B9F70C
:1023800021110E942509E091C002F091C10230970D
:10239000C9F10280F381E02D84EC91E009958091F0
:1023A000E50282FF2FC080FF04C080E599E00E9413
:1023B0009906C4ECD1E08CECE82E81E0F82E0AE41A
:1023C00019E08091E50280FF0BC088811F928F93F6
:1023D0001F930F930E9432070F900F900F900F9052
:1023E0002196EC16FD0669F78091E50280FF0AC090
:1023F00088E499E0DF91CF911F910F91FF90EF90CA
:102400000C949906DF91CF911F910F91FF90EF905F
:10241000089510929B0210929A020E949D1190E0E2
:1024200080E00E94C50990E080E00C94AF096093C1
:102430001C0370931D0380931E0390931F030C9441
:1024400009120F931F9360911C0370911D038091DB
:102450001E0390911F038B019C01067011272227F8
:102460003327063011052105310529F468601F91D5
:102470000F910C941712677FFACF0F931F9341E0CF
:1024800050E060E070E004C0440F551F661F771FE6
:102490008A95D2F7CB01BA01609570958095909599
:1024A00000911C0310911D0320911E0330911F0306
:1024B00060237123822393231F910F910C94171291
:1024C000909199028095892380939902282F2770F3
:1024D00071F4282F082E000C330B9217130639F0D5
:1024E0008595859585950E943D12109299020895D3
:1024F0000F931F9341E050E060E070E004C0440F90
:10250000551F661F771F8A95D2F780911C03909103
:102510001D03A0911E03B0911F038A019B01082B8C
:10252000192B2A2B3B2BC901B8011F910F910C9439
:10253000171260939E0270939F028093A002909363
:10254000A1020C940912882341F0809590919C027D
:10255000892380939C020C949D110895882339F05F
:1025600090919C02982B90939C020C949D1108953D
:10257000882309F452C0823871F40E94DB0981FF7C
:102580004CC089E30E9438090E949D1189E30E9492
:102590002B090C949D11833859F40E94DB0980FFAC
:1025A0003CC083E50E9438090E949D1183E5EFCF6E
:1025B000843859F40E94DB0982FF2FC087E40E940F
:1025C00038090E949D1187E4E2CF9CEF980F913A61
:1025D000F0F290E2980F983088F4877021E030E0B4
:1025E000A90102C0440F551F8A95E2F7CA018095E0
:1025F00090919C02892380939C02CBCF9BE5980FFE
:10260000933020F490E080E00C94C509885A87311B
:1026100020F490E080E00C94AF090895CF93C82F88
:10262000882309F488C08238C1F40E94DB0981FD47
:1026300082C089E30E9438090E949D112FEF81EE2C
:1026400094E0215080409040E1F700C0000089E311
:102650000E942B09CF910C949D118338A1F40E9404
:10266000DB0980FD68C083E50E9438090E949D1146
:102670002FEF81EE94E0215080409040E1F700C0C0
:10268000000083E5E5CF8438A1F40E94DB0982FDD8
:1026900052C087E40E9438090E949D112FEF81EEFD
:1026A00094E0215080409040E1F700C0000087E4B2
:1026B000CFCF8CEF8C0F813A68F4E6ECF1E081919A
:1026C000C81799F121E0EC3CF207C9F78C2F0E9462
:1026D0003809C0CF80E28C0F883068F4C77021E0E1
:1026E00030E001C0220FCA95EAF780919C02822B4C
:1026F00080939C02AFCFEBE5EC0FE33040F4F0E0C9
:10270000E358FE4F808190E0CF910C94C509C85AE0
:10271000C73188F4EC2FF0E0EE0FFF1FE058FE4FBA
:1027200080819181CF910C94AF098C2F0E942B094D
:102730000E949D11CBCFCF910895CF93C82F0E94B7
:102740000E13C93349F42FEF87EE93E021508040F8
:102750009040E1F700C000008C2FCF910C94B8128C
:102760000F931F93CF93DF93C62FD42F022FFC011B
:1027700082818823A1F0609323020E940109909333
:102780001E0280931D02C77081E001C0880FCA95A8
:10279000EAF7DF91CF911F910F910C94AE12109137
:1027A0002302161335C080911D0290911E020E94D3
:1027B000F208883C910560F5C0E2CD0F1D17B9F015
:1027C00080E2810F883040F4177081E001C0880FEB
:1027D0001A95EAF70E94A312C83048F481E09D2FB1
:1027E000977001C0880F9A95EAF70E94AE12802F69
:1027F0000E949D13C83098F4D77081E001C0880F03
:10280000DA95EAF7DF91CF911F910F910C94A31203
:10281000C77081E001C0880FCA95EAF7F3CFDF9156
:10282000CF911F910F910895811106C08EE461111F
:1028300001C08BE40C949D13813029F489EA611165
:10284000F9CF8AEAF7CF0895CF93E091A602EE0F71
:10285000EE0F20910F01A22FA295AF70B0E09096DD
:102860008C9190E02F7002C0959587952A95E2F79C
:102870008170992740910E01A42FA295AF70B0E00E
:1028800090962C9130E04F7002C0359527954A956F
:10289000E2F7A9014170552720FF02C042E050E055
:1028A000842BE82BE093A602C091A502EF70F0E024
:1028B000E359FE4F808190911C02890F80931C0286
:1028C00084306CF0EC2F0C2E000CFF0BE65EFD4FFD
:1028D00080818F5F808360E08C2F0E941414809130
:1028E0001C028D3F6CF4EC2F0C2E000CFF0BE65EEF
:1028F000FD4F80818150808361E08C2F0E941414F1
:1029000080911C02837887FF03C081508C6F8F5F9A
:1029100080931C02CF9108958091E40280FD1FC036
:1029200081608093E402813019F489E08093E402AD
:102930008091E4020E946A118091E50280FF08C044
:1029400087EC94E09F938F930E9432070F900F9033
:102950008091E4028695869586950C94E709089502
:102960001092CD028091CE0284608093CE0280913D
:10297000E50280FF08C08EEA93E09F938F930E9448
:1029800032070F900F9008958091E6028E7F80931A
:10299000E6028091E50280FF0CC01F921F9283ED3A
:1029A00092E09F938F930E9432070F900F900F90A9
:1029B0000F900E94B0148091CE0281608093CE026D
:1029C0002FEF80E792E0215080409040E1F700C077
:1029D00000000C94440C90E080E00E94BE3221E0A4
:1029E0008C3E9E4F09F020E0822F0895CF92DF9217
:1029F000EF92FF926B017C010E945C0AB701A60175
:102A000088E090E0FF90EF90DF90CF900C94D6326A
:102A10008091EA02833018F48F5F8093EA0260911C
:102A2000E6027091E7028091E8029091E9020C942D
:102A3000F6148091EA02882319F081508093EA020B
:102A40006091E6027091E7028091E8029091E902BC
:102A50000C94F6142F923F924F925F926F927F9256
:102A60008F929F92AF92BF92CF92DF92EF92FF929E
:102A70000F931F93CF93DF9300D000D0CDB7DEB775
:102A8000182F462E042F222E9091E60290FF57C059
:102A9000E92FE695AE2FB0E0A85BBE4F8C918093F6
:102AA000CC029E7F923009F061C09E012F5F3F4FA4
:102AB000812F0E946B0A4B8169818A810E943B0EA3
:102AC0008091E702811308C08091E802841104C05C
:102AD0008091E902801729F08091CE028260809374
:102AE000CE021093E7024092E8020093E90222200E
:102AF00009F49DC06091E6027091E7028091E802BE
:102B00009091E9020E94F6148091E50280FF17C0BF
:102B10008091E9021F928F938091E8021F928F9318
:102B20008091E7021F928F9384E393E09F938F93AA
:102B30000E9432070FB6F894DEBF0FBECDBF0F90D4
:102B40000F900F900F90DF91CF911F910F91FF90F9
:102B5000EF90DF90CF90BF90AF909F908F907F903D
:102B60006F905F904F903F902F900895823019F4AE
:102B70000091E902A5CF863019F41091E702A0CFA9
:102B80008930D9F3893109F09BCFE9512E2F21707B
:102B90002C838E2F80958170382EE695F0E0E058DA
:102BA000FC4FC590D490DD243AEEA32E31E0B32E35
:102BB000912C812CF12CE12C49E5642E43E0742EFC
:102BC000C40124E0969587952A95E1F72C81512E32
:102BD00021112BC0580E8091E50280FF11C0DF92B9
:102BE000CF921F923F921F925F92FF92EF927F923D
:102BF0006F920E9432070FB6F894DEBF0FBECDBFB2
:102C00009501402F642D852D0E946B0A9FEFE91AD4
:102C1000F90A8C0C9D1C23E0A20EB11C80E1E81681
:102C2000F10471F60E94440C4BCF581AD4CF809116
:102C3000E50280FF84CF1F920F931F924F921F9245
:102C40001F938DE093E072CFE6EEF2E0438121E145
:102C5000421B08F440E021E0628181810C942A1536
:102C6000E6EEF2E0438121E1420F08F44FEF21E06C
:102C7000628181810C942A15E6EEF2E0628121E105
:102C8000621B08F460E021E0438181810C942A15E5
:102C9000E6EEF2E0628121E1620F08F46FEF21E0DD
:102CA000438181810C942A15E6EEF2E0818121E0D6
:102CB0004381628188500C942A15E6EEF2E081810E
:102CC00021E043816281885F0C942A15E6EEF2E0F0
:102CD00083E0808311828FEF828383831482ACEC44
:102CE000B2E012968C911297836012968C93608159
:102CF0007181828193810C94F61410929C02E6EC0F
:102D0000F1E086E0DF011D928A95E9F70C94091243
:102D10001F93CF93DF93CDB7DEB7AA970FB6F89482
:102D2000DEBF0FBECDBF83E193E02091F100DC0157
:102D30002D93CD01B3E08B319B07B9F7809114033C
:102D4000833009F471C0B8F4813009F448C082308E
:102D500009F4B2C08091E80083FF99C28091130307
:102D6000909114039A3008F092C2E92FF0E0EB5EE4
:102D7000FC4C0C9489328A3009F48DC08B3009F4F4
:102D800070C0893039F780911303813219F780912F
:102D9000170390911803009711F00297D9F68091CC
:102DA000E800877F8093E8008091E80082FF37C0C9
:102DB0009091F3008091F200029729F48091F10044
:102DC0008B7F813021F48091F10080930703809103
:102DD000E8008B778093E8000E94DD07BBCF8091ED
:102DE0001303813A09F0B6CF8091E800877F809382
:102DF000E8008091170390911803892B61F468E033
:102E000088E093E070E00E948F088091E8008B7763
:102E10008093E8009FCF60E090E080E0F3CF809166
:102E20001B038111C1CF96CF80911303813A09F022
:102E300091CF8091170390911803892B09F08ACFC5
:102E40008091E800877F8093E8008091E80080FF10
:102E5000FCCF80913E018093F1008091E8008E7755
:102E6000B9CF80911303813209F074CF8091170399
:102E700090911803892B09F06DCF8091E800877F2E
:102E80008093E8000E94DD078091150380933E0146
:102E90000E947D165FCF80911303813209F05ACFD3
:102EA0008091E800877F8093E8000E94DD07809191
:102EB0001603809306034ECF80911303813A09F0E5
:102EC00049CF8091E800877F8093E8008091E800F7
:102ED00080FFFCCF80910603BECF803899F0823806
:102EE00009F0D5C1809117038F70873008F0CFC1EA
:102EF0008093E9008091EB0085FB882780F9109290
:102F0000E90006C080911003909111039111826035
:102F10009091E800977F9093E8008093F1001092E1
:102F2000F1008091E8008E77AEC1882309F49CC13E
:102F3000823009F0ACC18091150381119FC180914D
:102F400017038F702FEF280F263008F0A0C1809351
:102F5000E9002091EB0020FF91C1933031F4809182
:102F6000EB0080628093EB0089C19091EB0090614F
:102F70009093EB0021E030E001C0220F8A95EAF740
:102F80002093EA001092EA008091EB008860EACF7B
:102F900081117DC1109115031F778091E300807826
:102FA000812B8093E3008091E800877F8093E80085
:102FB0000E94DD078091E80080FFFCCF8091E30054
:102FC00080688093E30082E0111183E080931B030B
:102FD0005EC18058823008F05AC1209115033091AB
:102FE00016032C3DE3E03E07A1F583E08A838AE2E5
:102FF00089834FB7F894DE01139620E03EE051E25A
:10300000E32FF0E050935700E49120FF03C0E295D6
:10301000EF703F5FEF708E2F90E0EA30C0F0C79600
:103020008D939D932F5F243159F74FBF8091E80016
:10303000877F8093E8006AE270E0CE0101960E94EB
:103040008F088091E8008B778093E80020C1C096BC
:10305000E7CF8091170390911803432F55274330F2
:10306000510509F44AC078F54130510509F485C08D
:103070008BE790E0ECEBFBE04230510509F007C133
:103080002091E800277F2093E800209119033091D8
:103090001A038217930708F49C0140E021153105BB
:1030A00009F070C041116EC08091E80082FDC9CF67
:1030B00080911B03882329F2853019F28091E80062
:1030C00083FFF2CFBECF4132510509F447C04232EF
:1030D000510509F0DCC08430910508F0D8C0FC012E
:1030E000EE0FFF1FEE54FE4F0190F081E02D825550
:1030F0009E4FDC018C9190E01DC0332721303105BB
:10310000E9F02115310579F022303105F9F023304D
:10311000310509F0BCC0E9E4FCE0E4918E2F90E0B9
:10312000E9E4FCE007C0E3E8FCE0E4918E2F90E0E6
:10313000E3E8FCE0009709F4AAC0A2CFE3E7FCE0D3
:10314000E4918E2F90E0E3E7FCE0F4CFEFE4FCE0C5
:10315000E4918E2F90E0EFE4FCE0ECCF8430910519
:1031600008F095C0880F991FFC01E654FE4F0190AE
:10317000F081E02D89E090E083CF82E190E0E7E309
:10318000FCE07ECF80911B03882309F45ACF853061
:1031900009F457CF8091E80083FD53CF8091E80078
:1031A00082FD82CF8091E80080FF78CF9091F3007C
:1031B0008091F2002115310519F08830910550F009
:1031C00041E0089709F040E08091E8008E77809315
:1031D000E80064CF44914093F100319621503109C9
:1031E0000196E8CF803809F052C08091E800877FCF
:1031F0008093E800809112038093F10092CE8111B8
:1032000046C010911503123008F041C08091E800CB
:10321000877F8093E800109312030E94DD0711233B
:1032200011F084E005C08091E30087FDFACF81E0D2
:1032300080931B0342E061EC81E00E94FC0742E2C4
:1032400061EC84E00E94FC0742E261EC82E00E94B3
:10325000FC0742E260EC83E00E94FC0742E261EC82
:1032600085E00E94FC0713C080911503813079F43A
:1032700081E0933009F080E0809311031092E9001F
:103280008091E800877F8093E8000E94DD078091AD
:10329000E80083FF0AC08091E800877F8093E80000
:1032A0008091EB0080628093EB00AA960FB6F894B1
:1032B000DEBF0FBECDBFDF91CF911F91089560910A
:1032C000E602669570E04BE050E080E091E00E94FD
:1032D000F832892B19F481E08093CD020E94010914
:1032E0009093C7028093C6028091CE02846080933F
:1032F000CE028091E50280FF08C085E993E09F93AC
:103300008F930E9432070F900F9008959091E602DC
:1033100090FF5AC09170811141C092609093E60273
:103320008091CE0281608093CE026623F1F160919C
:10333000E6027091E7028091E8029091E9020E9412
:10334000F6148091E50280FF0FC08091E602869519
:103350001F928F9380E892E09F938F930E94320791
:103360000F900F900F900F906091E602669570E0BD
:103370004BE050E080E091E00E94F832892B09F1A7
:103380000E94B01481E08093C90220E04091E902DC
:103390006091E8028091E7020C942A15853210F0C2
:1033A0009864BCCF880F982BB9CF8091E50280FF3D
:1033B000DBCF8091E60286951F928F9382E692E0A2
:1033C000CBCF0E945F19DECF08958091E602816025
:1033D0008093E6028091E50280FF0DC01F9281E09C
:1033E0008F938CE992E09F938F930E9432070F9006
:1033F0000F900F900F908091E60261E086950C94FB
:1034000086196CEE7EEF90E080E00E94E23260E090
:1034100082E090E00E94C43260E083E090E00E948D
:10342000C43210929E0210929F021092A00210923B
:10343000A10260E084E090E00E94C43260E081E29A
:1034400090E00E94C43260E085E090E00E94C432C7
:1034500060E086E090E00E94C4326FEF87E090E089
:103460000E94C43240E050E0BA0188E090E00E943F
:10347000D63260E08DE090E00E94C43240E050E03F
:10348000BA0188E190E00E94D63260E087E190E0E6
:103490000E94C43240E050E0BA018CE190E00E940A
:1034A000D63260E080E290E00E94C4320E948C1428
:1034B00083E00E946F110E94E51921E04FEF6FEF4A
:1034C00080E00E942A1561E08BE00E94861940E0AE
:1034D00050E0BA018FE090E00E94D63240E050E028
:1034E000BA0183E190E00C94D6320E94EB14811172
:1034F00002C00E94011A86E090E00E94B0328093E0
:10350000E402803220F0877088618093E402909119
:10351000E402892F817090FF04C0892F86958695DB
:1035200086950C94E7098091E6028695815009F40E
:1035300084E261E00C9486198091E60286958F5FA3
:10354000853208F081E061E00C9486199091E602E2
:1035500090FF07C09695981720F0961710F40C94DA
:103560009C1A61E00C9486193F924F925F926F9281
:103570007F928F929F92AF92BF92CF92DF92EF9203
:10358000FF920F931F93CF93DF9300D000D00F9241
:10359000CDB7DEB77C01FC0183819481892B31F0AA
:1035A0008081918189238F3F09F08BC70F900F9005
:1035B0000F900F900F90DF91CF911F910F91FF907F
:1035C000EF90DF90CF90BF90AF909F908F907F90C3
:1035D0006F905F904F903F9008950E94A510182F14
:1035E000682F89819A810E94790969817A81812F66
:1035F0000E94190F8C01F7019281992309F435C7B4
:10360000980122513F452031310508F0E0C68FEF87
:1036100093E00E94B032025157EFA52E52E0B52E32
:103620008111C4CF011138C01C821B82882483946D
:103630004AE0742E85010F5F1F4FC5010E94B03212
:1036400089831A82882309F4B1CF9FEF980F9330B2
:1036500090F58A83898232E0A30EB11CC8010E94D2
:10366000B0328B83882309F4A1CF8E010F5F1F4FE7
:10367000F80120812223F1F2213009F056C0818126
:10368000F2808130D1F40E5F1F4F8F2D0E940E13F8
:103690008F2D0E94B81218C0A114F4E0BF0609F4DF
:1036A00085CFC5010E94B032811101C001502FEFBA
:1036B000A21AB20AB7CF5801D8CF823041F40E5FB8
:1036C0001F4F8F2D0E940E130F5F1F4FD1CF8330DE
:1036D00019F40E5F1F4FDCCF843019F00F5F1F4FBE
:1036E000F3CF0E5F1F4F30E020E0B8016F5F7F4FD8
:1036F000F8014181EF2DE053FF0BCF013A9750F0D5
:103700002150310908F38FE99FE00197F1F700C0DC
:103710000000F6CF729EF001739EF00D11249C0103
:103720002E0F3F1FF42E8B01E0CFE22FF0E0E75386
:10373000F84F9490822F86958695869590E0FC01AF
:10374000E754F84FC4902770D12C022E02C0D594B4
:10375000C7940A94E2F7E1E0CE22DD24FC01E755AC
:10376000F84FE490F12C02C0F594E7942A95E2F723
:10377000F1E0EF22FF24C114D10419F081EE0E9480
:103780000E13E114F10419F086EE0E940E13892D38
:103790000E949D13EF2819F086EE0E94B812CD28E2
:1037A00009F492CF81EE75CF81E00E94781203C0B8
:1037B00081E00E943D120F900F900F900F900F909C
:1037C000DF91CF911F910F91FF90EF90DF90CF90FD
:1037D000BF90AF909F908F907F906F905F904F9031
:1037E0003F900C94211282E0E0CF82E0E2CF0F3BC9
:1037F000FCE51F0709F4A2C008F47BC0003C3CE5CF
:10380000130709F000C69091E402892F86958695EA
:1038100086958F5F8F719770843008F0D5C0880FC0
:10382000880F880F892B8093E4028091E402887FBF
:1038300091E009F490E08091E40290FB80F980939C
:10384000E4020E946A118091E50280FF4CC08091E1
:10385000E4028695869586951F928F9382EA98E07A
:103860003AC083E00F900F900F900F900F90DF9170
:10387000CF911F910F91FF90EF90DF90CF90BF906D
:10388000AF909F908F907F906F905F904F903F9000
:103890000C946F118091E402982F987F79F08850F2
:1038A0008093E402887F91E009F490E08091E40243
:1038B00090FB80F98093E4020E946A118091E502F6
:1038C00080FF11C08091E4028695869586951F92AF
:1038D0008F9389E498E09F938F930E9432070F9013
:1038E0000F900F900F908091E402869586958695B3
:1038F00053C08091E402982F9695969596959330B3
:1039000040F49F5F990F990F990F8770892B8093CF
:10391000E4028091E40281608093E4020E946A11D3
:103920008091E50280FFDFCF8091E4028695869545
:1039300086951F928F9381E698E0CDCF1091E40297
:1039400011708091E50280FFCDC51F921F938CE816
:1039500098E09F938F930E9432070F900F900F90E3
:103960000F90112309F4C0C58091E40280FF1ECEA0
:103970008091E4028E7F8093E4020E946A1180911C
:10398000E50280FF08C089E798E09F938F930E942B
:1039900032070F900F9080E00F900F900F900F90D4
:1039A0000F90DF91CF911F910F91FF90EF90DF90DB
:1039B000CF90BF90AF909F908F907F906F905F90CF
:1039C0004F903F900C94E7099093E4022ECF27E2AA
:1039D00045EE65EE31C526E241EE60EE2DC527E2EB
:1039E00045EE64EE29C526E241EE62EE25C528E2E9
:1039F00041E0EFCF8091BD02806106303CE51307C6
:103A000009F47FC008F484C08091BD02806279C04F
:103A10008091BD028D7F0C309CE5190709F471C0BF
:103A200070F48091BD028C600A30FCE51F0709F438
:103A300068C008F479C08091BD028E7F62C0809119
:103A4000BD02877F0E303CE5130709F45AC008F425
:103A500071C08091BD028F7E54C00B3F9CE5190759
:103A600009F45AC030F50331FCE51F0709F472C0B0
:103A700078F401313CE5130709F468C002311C45B4
:103A800009F0B8C50E947D168091BD028F7739C0BC
:103A900005319CE5190709F465C008F479C08091E7
:103AA000BE0281600A3F1C4509F0A4C58093BE0296
:103AB000A1C50F3F2CE5120709F450C070F40D3F6B
:103AC0008CE51807D9F18091BE028E7F0E3F1C4510
:103AD00068F38091BE028360E9CF0130EDE51E07F7
:103AE00009F45FC008F44AC060E002301D4509F0E7
:103AF00081C58EE090E00E94C4327CC58091BD02F9
:103B000081608093BD0276C58091BD028460F9CF4B
:103B10008091BD028860F5CF8091BE028260C6CFE1
:103B20008091BD028064EDCF0E947D168091BD0220
:103B30008068E7CF8091BD028B7FE3CF8091BE028A
:103B40008D7FB4CF8091BD028F7DDBCF8091BD0290
:103B50008F7BD7CF8091BD02837FD3CF8091BE0270
:103B60008C7FA4CF8091BD0282FB992790F921E040
:103B7000922790FB82F990FB83F9C3CF8091BE021C
:103B8000982F909591708E7F892B90FB81F98ECF25
:103B90000E947D169091BD02892F97FB87F980586E
:103BA000B0CF61E0A6CF06313CE5130709F0B4C4FD
:103BB00080919C028A7A91E009F490E0909324022B
:103BC00081111BC089E20E9438090F900F900F905D
:103BD0000F900F90DF91CF911F910F91FF90EF9079
:103BE000DF90CF90BF90AF909F908F907F906F901D
:103BF0005F904F903F900C949D1185E3E4CF85E357
:103C00005DC48091E50280FF10C08091E60280953E
:103C100081701F928F938EEE98E09F938F930E94F6
:103C200032070F900F900F900F908091E60280FF67
:103C300048C08E7F8093E6026091E6027091E702B1
:103C40008091E8029091E9020E94F6148091E502C9
:103C500080FF0FC08091E60281701F928F9386EBE8
:103C600098E09F938F930E9432070F900F900F90D0
:103C70000F900E94B0148091CE0281608093CE029A
:103C80008FEF90E7E2E081509040E040E1F700C024
:103C900000000F900F900F900F900F90DF91CF9139
:103CA0001F910F91FF90EF90DF90CF90BF90AF905A
:103CB0009F908F907F906F905F904F903F900C946B
:103CC000440C0F900F900F900F900F90DF91CF91B9
:103CD0001F910F91FF90EF90DF90CF90BF90AF902A
:103CE0009F908F907F906F905F904F903F900C943B
:103CF000E51943E95AE16CE97AE10F900F900F90D2
:103D00000F900F90DF91CF911F910F91FF90EF9047
:103D1000DF90CF90BF90AF909F908F907F906F90EB
:103D20005F904F903F900C94570A4CE95AE163E939
:103D30007AE1E3CF44E556E16DE576E1DECF4DE58E
:103D400056E164E576E1D9CF4CE356E168E476E1EB
:103D5000D4CF48E456E16CE376E1CFCF44E256E1BC
:103D600060E376E1CACF40E356E164E276E1C5CF95
:103D700049E155E168E075E1C0CF48E055E169E10E
:103D800075E1BBCF61E081E00F900F900F900F9035
:103D90000F90DF91CF911F910F91FF90EF90DF90E7
:103DA000CF90BF90AF909F908F907F906F905F90DB
:103DB0004F903F900C94861965E082E00F900F9031
:103DC0000F900F900F90DF91CF911F910F91FF9067
:103DD000EF90DF90CF90BF90AF909F908F907F90AB
:103DE0006F905F904F903F900C94A61A68E086E029
:103DF000E5CF6EE089E0E2CF64E18FE0DFCF67E1FD
:103E000085E1DCCF61E088E1BFCF62E289E1D6CF16
:103E100061E083E2B9CF9091E502892F8E7F90FF18
:103E200081608093E50280FF1AC087E399E00F90DC
:103E30000F900F900F900F90DF91CF911F910F91E6
:103E4000FF90EF90DF90CF90BF90AF909F908F90BA
:103E50007F906F905F904F903F900C94990685E211
:103E600099E0E5CF0F900F900F900F900F90DF919A
:103E7000CF911F910F91FF90EF90DF90CF90BF9067
:103E8000AF909F908F907F906F905F904F903F90FA
:103E90000C94011AF701008111819923D1F1C80115
:103EA0000E94A510D82E682FC8010E947909B80178
:103EB0008D2D0E94260FB82E192F082FF7019580FF
:103EC00092943FE09322A280A11010929B028091D5
:103ED0009902877079F0AA2069F080E28B0D883012
:103EE00048F082E00E94601280919902877033242A
:103EF00033948111312CD12ED2942FE0D222FBE0C9
:103F0000FD1508F441C0ED2DF0E0E15EFC4C0C9491
:103F10008932C8010E945109D82EC9CF212F2F7094
:103F2000C22E107F19F0C29490EFC922AA20C9F0C6
:103F3000CC2069F080E28B0D883010F001110BC0AD
:103F400080919C02C82AC0929C020E949D118B2DD8
:103F50000E940E1319C080919B02C82AC0929B0236
:103F6000F4CF8B2D0E94B812CC2071F0C09480E267
:103F70008B0D883010F001113EC080919C02C82248
:103F8000C0929C020E949D11ED2DE850FF0B3497CA
:103F900020F40E94DB090E94440B332009F406CB75
:103FA0008091990280FD02CBF7011282859585955B
:103FB00085950E947812C7010E94B41A80919902D7
:103FC0008595859585950F900F900F900F900F9088
:103FD000DF91CF911F910F91FF90EF90DF90CF90E5
:103FE000BF90AF909F908F907F906F905F904F9019
:103FF0003F900C943D1280919B02C822C0929B027C
:10400000C1CF312F3F70C32E107F103219F0C294F0
:1040100080EFC8228B2D002369F0013061F1AA20C6
:10402000B9F1992071F1F701858180FF90CF8F70F0
:10403000858327C0AA2091F090919D028C2D892B19
:10404000911003C00E94AE129FCFE1E09E12FACF02
:10405000891709F499CF80939D0296CF911006C0DD
:104060000E9425098C2D0E94A3128ECFF1E09F168D
:1040700009F48ACFF5CFAA2031F025E0291508F4FC
:1040800083CF8C2DDFCF34E0391508F47DCFEACF14
:10409000992041F3893349F4FFEF27EE33E0F150E3
:1040A00020403040E1F700C000008B2D0E94B81284
:1040B0006BCF812F86958695837069F0813009F0EA
:1040C00063CF8B2D912F9370A11002C090E080E000
:1040D0000E94AF0959CF8B2D912F9370A11002C070
:1040E00090E080E00E94C5094FCF812F837009F0D6
:1040F0006CC0A11049CF8B2D829586958770880F53
:10410000880F6B2D6F70462E512C712C612C082E50
:1041100004C0440C551C661C771C0A94D2F740E07E
:1041200050E0BA01B4FE0FC04FE050E060E070E034
:1041300004C0440F551F661F771F8A95D2F740951C
:10414000509560957095169516951370123019F16B
:10415000A8F580909E0290909F02A090A002B0903F
:10416000A102113069F04429552966297729CB012C
:10417000BA01682179218A219B210E94991204CFDA
:1041800084289528A628B728CB01BA01682979295F
:104190008A299B29F2CF44295529662977298090BD
:1041A0009E0290909F02A090A002B090A102CB012D
:1041B000BA01682579258A259B25DFCFCB01BA0175
:1041C0006429752986299729D8CF8695AA2011F0C8
:1041D000812F8170882309F4D7CE8B2D8295869507
:1041E0008770880F880F6B2D6F70462E512C712CA5
:1041F000612C082E04C0440C551C661C771C0A94C4
:10420000D2F740E050E0BA01B4FE0FC04FE050E0FA
:1042100060E070E004C0440F551F661F771F8A9549
:10422000D2F7409550956095709516951695137038
:10423000123019F1A8F580901C0390901D03A090F6
:104240001E03B0901F03113069F0442955296629D7
:104250007729CB01BA01682179218A219B210E940B
:10426000171292CE84289528A628B728CB01BA0128
:10427000682979298A299B29F2CF44295529662959
:10428000772980901C0390901D03A0901E03B0908E
:104290001F03CB01BA01682579258A259B25DFCF2D
:1042A000CB01BA016429752986299729D8CF1F70B7
:1042B000AA2029F0812F0E9478128B2DC3CE8B2D3E
:1042C0000E94A312812F0E943D125ECE8B2D023FD1
:1042D00009F44AC060F4003FF9F0013FE9F1AA2077
:1042E00009F465C0911033CE812F8F713AC0033F1E
:1042F00009F43FC0043F99F7AA2009F44DC01F718B
:10430000812F0E947812E8E01E9FC0011124836073
:1043100080939902812F25C0AA20C9F084E08915D5
:1043200008F432CE1F7161E070E080E090E004C0DC
:10433000660F771F881F991F1A95D2F780901C036C
:1043400090901D03A0901E03B0901F03A4CF95E092
:10435000991508F419CEE6CF812F8F71AA2009F4A0
:10436000B2CF0E94781210CE812F8F71AA20C9F38C
:10437000AACF60E070E0CB01AA2009F470CF1F71D2
:1043800061E070E080E090E004C0660F771F881F56
:10439000991F1A95D2F763CF81E00E946012F1E075
:1043A000F91508F0F1CD82E00E946012EDCD992060
:1043B00059F0893309F079CE2FEF37EE83E02150A1
:1043C00030408040E1F76FCE812F8F717CCF00317C
:1043D000FFE51F0709F4E8C901312FE5120709F4C9
:1043E00002CA0D3B2CE5120709F454CA08F0FFC9B4
:1043F0000B3B8CE5180709F434CA80E00C3BECE574
:104400001E0709F42FCA033FECE51E0709F4E3CAAF
:1044100008F0ABC0083D2CE5120709F4D8CA093DE5
:104420003CE5130709F4E3CA073D8CE5180709F0DA
:10443000A8C026E241EE61EEC7010F900F900F90E9
:104440000F900F90DF91CF911F910F91FF90EF9000
:10445000DF90CF90BF90AF909F908F907F906F90A4
:104460005F904F903F900C94B01300313FE51307DD
:1044700009F49EC901318FE5180709F4B6C9033F55
:104480003CE5130709F4A7CA08F0D9C0083DECE5DC
:104490001E0709F49CCA093DFCE51F0709F4A7CAD9
:1044A000073D2CE5120729F20631FCE51F0709F04C
:1044B0004EC0809124028111A2CB89E20E942B0977
:1044C00084CB85E0DE01119601900D928A95E1F78B
:1044D000F701228189819A8121117FC80E945109A7
:1044E000182F83C8111144CA0F900F900F900F908E
:1044F0000F90DF91CF911F910F91FF90EF90DF9080
:10450000CF90BF90AF909F908F907F906F905F9073
:104510004F903F900C948C1401302CE5120709F455
:104520007ACC0E3D3CE5130709F49CCC01151C45E3
:1045300009F0B0CC0E947D16FFEF24E33CE0F1507F
:1045400020403040E1F700C000000E94200C809124
:104550009C028272F801E25CFC45E431F10508F04E
:1045600099CCE55DFC4C0C948932053FECE51E07C7
:1045700009F439CA08F433CA063F2CE5120709F4D6
:104580006AC01092230202308CE5180708F40BCBA6
:104590000631ECE51E0738F098012A5F3C452930CA
:1045A000310508F000CB0E94E50E9093BE02809387
:1045B000BD020031FCE51F0709F4C4CA08F04DCA6A
:1045C00008303CE5130709F4ABCA08F021CA0430EF
:1045D0009CE5190709F498CA08F00CCA0230FCE5FA
:1045E0001F0709F48BCA8091BD02826003301C450D
:1045F00009F487CA6091BD021091BE0284E090E088
:104600000E94C432612F81E290E00E94C4320F9078
:104610000F900F900F900F90DF91CF911F910F91FE
:10462000FF90EF90DF90CF90BF90AF909F908F90D2
:104630007F906F905F904F903F900C947D16053F58
:104640003CE5130709F4CFC908F4C9C9063FECE5F6
:104650001E0709F029CF27E245EE66EEEDCE1F9347
:10466000CF93DF9380912A02807FA9F48091270263
:10467000882389F080915C02D0912B026091250201
:1046800070912602A0912802B0912902C62FC7235B
:1046900016E0D81304C0DF91CF911F91089590E0E8
:1046A000109711F0CF3F19F401968770F2CF189F41
:1046B0009001199F300D1124F901E45DFD4F4181F6
:1046C0004713F2CF40814613EFCF42814111ECCF27
:1046D000438154814A1B5B0B483C510528F780916C
:1046E0002A028F70806180932A02F901EF5CFD4FEE
:1046F00080818F708061808385E292E00E94B41A8D
:10470000DF91CF911F910C94A509AF92BF92CF92E8
:10471000DF92EF92FF920F931F93CF93DF93CDB76A
:10472000DEB761970FB6F894DEBF0FBECDBF8C0128
:1047300085E0F801DE011D9601900D928A95E1F762
:10474000F80180819181E28025E2A22E22E0B22E42
:1047500060912802709129026115710509F43EC12A
:104760003091250240912602232F24232F3F09F464
:1047700035C1C380D480F0902702F601E61BF70B09
:10478000FF2009F4FBC020912A02522F507FE83C01
:10479000F10508F0BBC0511178C0FE2C491321C0AF
:1047A00038131FC0E1101DC02F70206120932A0212
:1047B000C5010E94B41A80912A02F80185838F2DC9
:1047C00061960FB6F894DEBF0FBECDBFDF91CF91DB
:1047D0001F910F91FF90EF90DF90CF90BF90AF901F
:1047E0000895CD2829F0282F29232F3F09F014C13F
:1047F00020E0F22FF170DF2E20FF3DC020915C02FF
:1048000040912B0256E0241315C08D879E878D851D
:104810009E850E94E710292F22952F702230F8F0F4
:10482000243020F59F70F9F0F8019581907FD9F43C
:10483000D12C1FC030E0529FF001539FF00D112486
:10484000E45DFD4F6181961306C06081861303C04D
:104850006281E61210C02F5F3F4F2770D4CF9F7048
:1048600011F0882329F3805E883010F3C8010E947C
:10487000B41AFD2CA4CFEE2009F4A1CF80912A0216
:10488000816080932A02F12C9ACF491312C0381309
:1048900010C0E1100EC0F8012583C8010E94B41AAF
:1048A00086E0F801A5E2B2E001900D928A95E1F769
:1048B00086CF8D879E878D859E850E94F1108823E7
:1048C00009F1EE20F9F080912A02803270F02091F7
:1048D00025023091260238872F831986DB86CA8607
:1048E0008C87CE0107960E94B41A86E0F801A5E2F3
:1048F000B2E001900D928A95E1F70E942F23FF24E8
:10490000F3945DCFC8010E94B41AF9CF51110AC0C7
:1049100085E292E00E94B41A86E0F50111928A9530
:10492000E9F7B1CF49130FC038130DC0E1100BC028
:10493000F8012583C8010E94B41A86E0F50111929E
:104940008A95E9F73CCF8D879E878D859E850E944D
:10495000F1108823B9F2EE20A9F280912A02803268
:1049600020F220912502309126023A8329831B826E
:10497000DD82CC828E83CE010196B5CFE83CF10575
:10498000E0F6FE2CEE2009F4BDCF491316C0381313
:1049900014C080912A0280FD83CF982F907F09F464
:1049A0007FCFF8018583903F09F477CF982F907FD0
:1049B000905F8F70892B858370CF8D879E878D85C3
:1049C0009E850E94F110811190CF80912A02816012
:1049D00080932A02C8010E94B41AF1CEEE2009F495
:1049E00091CF8D879E878D859E850E94F110F82E30
:1049F000882309F487CF86E0F801A5E2B2E00190B0
:104A00000D928A95E1F780912502909126020E94ED
:104A1000E7100E942F23D3CE21E02E25EACE1F934C
:104A2000CF93DF93CDB7DEB767970FB6F894DEBFAD
:104A30000FBECDBF4B8B5C8B6D8B7E8B8F8B1A8AA1
:104A4000198A85E0FE017396DE011D9601900D9294
:104A50008A95E1F786E0FE013D96DE01179601900A
:104A60000D928A95E1F7CE0107960E948523811168
:104A700012C086E0FE013796DE01119601900D927C
:104A80008A95E1F78A859B85892B29F08F81988506
:104A900089238F3FB1F516E080915C0290912B0243
:104AA00089131DC067960FB6F894DEBF0FBECDBF49
:104AB000DF91CF911F91089596E0929FD001939F2F
:104AC000B00D1124A45DBD4FFE01319601900D92F1
:104AD0009A95E1F780932B020E94A509DCCF819F74
:104AE000C0011124845D9D4F0E9485238823D1F24B
:104AF00080915C0290E001968770992780935C0218
:104B0000CBCF20912B0230E0C90101968770992705
:104B100040915C024817190679F60E947D161092A2
:104B20002B0210925C0286E0E5E2F2E0DF011D92CA
:104B30008A95E9F7B0CF8F929F92AF92BF92CF92B2
:104B4000DF92EF92FF920F931F93CF93DF9307EAC9
:104B500012E049E251E0D801812C61E070E0AD90B3
:104B6000BD90FD0112921292EA012991AE01822FAD
:104B700082958F7090E0EC01F9A02F70EB0102C0DC
:104B8000CC0FDD1F2A95E2F79E013F2D322BEC0161
:104B900039A33AA1209523232AA3D0EADA95F1F785
:104BA00090E2C92E91E0D92E30E020E0E601999004
:104BB0006E01892D82958F7090E0EC0188A1E080D4
:104BC000F18090E0D92DDF7002C095958795DA9538
:104BD000E2F780FD5CC0CB01022E02C0880F991F56
:104BE0000A94E2F7E82AF92AF182E0822F5F3F4F28
:104BF00029303105D9F6CA010197EC012881822FAD
:104C000082958F7090E0EC01D9A02F707B0101C0DC
:104C1000EE0C2A95EAF73E2D30953D2139A32AA1C5
:104C20002E292AA381E0208131812A153B0509F430
:104C300080E0882AD2E0A13BBD0709F090CFF09038
:104C4000BC02882039F181E08093CF010E940109E4
:104C50009093CE018093CD018091CD019091CE01B2
:104C60000E94F2080697D0F0EF2DF0E0EE0FFF1F44
:104C7000E551FD4FD8018D919D918D0181939193C7
:104C8000B2E0013B1B07B1F71092CF0107C090E0E3
:104C900080E0A8CF8091CF018111DECF0E94C90EA4
:104CA000882309F4B2C01091BB028091CE02882300
:104CB000E9F085E0E6EEF2E0A0EDB1E001900D92C2
:104CC0008A95E1F78091CC029091CD02A091CE021D
:104CD0008093D5019093D601A093D70181E090E015
:104CE0000E94A531892B11F41092CE0290E080E051
:104CF0000E94A5310097C1F08091E5018F5F8093FC
:104D0000E501863008F05AC00E942414882DDF91F6
:104D1000CF911F910F91FF90EF90DF90CF90BF90B8
:104D2000AF909F908F900895E12FF0E0EE0FFF1F5E
:104D3000E551FD4FDC01AA0FBB1FA652BE4F2D91BE
:104D40003C912193319301968530910599F780919B
:104D5000E40280FF1DC08695869586958093D901D3
:104D6000D091A4028D2F90E0FC01E65EFD4F7F0103
:104D70001091E4018081181B012F10165CF0812F27
:104D800017FD80E0181B11110FC01092E501BCCF78
:104D900080E0E4CF0150D7018C918F5F8C9360E06D
:104DA0008D2F0E941414E9CF1F5FF701808181507D
:104DB000808361E08D2F0E941414E5CF8091BB02A7
:104DC00090E0FC01EE0FFF1FE551FD4F11821082B4
:104DD000FC01EE0FFF1FE351FD4F11821082FC0119
:104DE000EE0FFF1FE151FD4F11821082FC01EE0F0B
:104DF000FF1FEF50FD4F11821082880F991FFC0199
:104E0000ED50FD4F118210827FCF1091BC02809136
:104E1000D801883099F58091D70180FF0FC080912B
:104E2000D00180FF4EC08091E60281608093E6024F
:104E30008091D00160E086950E9486198091D7010B
:104E400081FF09C020E04091D3016091D20180919F
:104E5000D1010E942A158091D70182FF06C080915E
:104E6000D601882389F10E945F198091D70183FFC1
:104E700003C081E08093C9021092D801E12FF0E0D5
:104E8000EE0FFF1FE551FD4F90E080E02191319141
:104E9000DC01AA0FBB1FA652BE4F11963C932E9366
:104EA00001968530910591F78091D9010E94E7091B
:104EB000E091A502F0E0E65EFD4F80818093E40181
:104EC00023CF0E94C414BACF0E94B014CECF1F9239
:104ED0000F920FB60F9211242F933F934F935F932E
:104EE0006F937F938F939F93AF93BF93CF93DF93F2
:104EF000EF93FF93D091E900DF708091EC00C82F11
:104F0000C17080FDC0E81092E9008091F000877FB9
:104F10008093F00078940E9488161092E9008091A6
:104F2000F00088608093F000CD2BCF70C093E90033
:104F3000FF91EF91DF91CF91BF91AF919F918F91B1
:104F40007F916F915F914F913F912F910F900FBE85
:104F50000F901F9018951F920F920FB60F92112469
:104F60002F933F934F935F936F937F938F939F9371
:104F7000AF93BF93EF93FF938091E10082FF15C041
:104F80008091E20082FF11C08091E1008B7F8093CD
:104F9000E100209104032F5F822F62E30E943332ED
:104FA000992309F4C6C0209304038091DA0080FF9E
:104FB00028C08091D80080FF24C08091DA008E7FC5
:104FC0008093DA008091D90080FFE9C080E189BD3B
:104FD00082E189BD09B400FEFDCF81E080931B030F
:104FE00088EA9BE00E94990680910503811109C01F
:104FF0000E943B070E942E088091E200846080930B
:10500000E2008091E10080FF1BC08091E20080FF00
:1050100017C08091E2008E7F8093E2008091E200D1
:1050200080618093E2008091D80080628093D800F4
:1050300019BC85E080931B0380EB9BE00E949906DE
:105040008091E10084FF35C08091E20084FF31C08F
:1050500080E189BD82E189BD89B5982F917080FF7B
:10506000FBCF8091D8008F7D8093D8008091E100A4
:105070008F7E8093E1008091E2008F7E8093E2003A
:105080008091E20081608093E20080911203882386
:1050900009F48FC084E080931B0384EB9BE00E94A3
:1050A00099060E947D160E94751A0E94DB090E94D3
:1050B000440B8091E10083FF2BC08091E20083FFCD
:1050C00027C08091E100877F8093E10082E0809398
:1050D0001B03109212038091E1008E7F8093E10008
:1050E0008091E2008E7F8093E2008091E2008061F7
:1050F0008093E20042E060E080E00E94FC07809143
:10510000F00088608093F00088EB9BE00E94990695
:10511000FF91EF91BF91AF919F918F917F916F918F
:105120005F914F913F912F910F900FBE0F901F9065
:1051300018951092040380910303882309F435CF56
:1051400080911B038430C1F49091E9009F702091FD
:10515000EC00822F817020FD80E8892B95E09093F0
:10516000E9009091EB0090FF04C09091EE0097FD54
:1051700008C08F708093E9001092030316CF10923D
:10518000F1009091E80095FDFACF9091E80090FF32
:10519000F0CF9091E8009E779093E800EACF19BC99
:1051A00010921B038CEA9BE00E9499061092050363
:1051B00028CF8091E30087FD93E090931B036DCF90
:1051C000CDB7DEB7E1970FB6F894DEBF0FBECDBF07
:1051D00084B7877F84BF0FB6F894A895809160004C
:1051E000886180936000109260000FBE80E890E0BC
:1051F0000FB6F89480936100909361000FBE85B75D
:10520000806885BF85B7806885BF0E943B070E9484
:105210002E088091E20084608093E2008EE49BE09F
:105220009093C3018093C201789480911B038823DB
:10523000A1F01091E9001F709091EC00892F81700E
:1052400090FD80E8182B1092E9008091E80083FD22
:105250000E9488161F701093E90082E084BD93E0DD
:1052600095BD9AEF97BD80936E0087988F988FB108
:10527000881F8827881F80933301809133018823FA
:1052800009F4D5C01092A30288E080930D010E941A
:10529000C90E882331F062E070E080E191E00E9465
:1052A000C3308091330181112FC0FE01359686E015
:1052B000DF011D928A95E9F783E3898382E38A837C
:1052C00086E38B8384E38C8387E98D833497A9E21B
:1052D000B1E0CE010B9621912D938E179F07D9F740
:1052E00089E0EFE3F1E0DE01919601900D928A955D
:1052F000E1F7FE01B196A0E2B1E0CE018A962191DC
:105300002D938E179F07D9F78091330195E0811176
:1053100090E09093BC0285E0891B8093BB02E9E298
:10532000F1E04EE251E021E030E09191A92FA29509
:10533000AF70B0E091966C9191979F70890102C017
:10534000000F111F9A95E2F7C80180958623919668
:105350008C93DF0111978C91A82FA295AF70B0E0CC
:1053600092969C9192978F70B90101C0660F8A95B1
:10537000EAF7892F862B92968C934E175F07A9F632
:10538000E0E2F1E049E251E021E030E09191A92F23
:10539000A295AF70B0E091966C9191979F70890142
:1053A00002C0000F111F9A95E2F7C801809586236D
:1053B00091968C93DF0111978C91A82FA295AF70D5
:1053C000B0E092969C9192978F70B90101C0660FE0
:1053D0008A95EAF7892F862B92968C934E175F0752
:1053E000A9F6E7EAF2E08BEB92E0ABEEB2E01192C5
:1053F00011921D921D928E179F07C9F70E949B253F
:105400008FE39CE90197F1F700C000000E949B2503
:105410008091EB0280FF0FC080E00E9485116FEF4A
:105420007FEF90E080E00E94E2320E94200C88E052
:105430008093A3022ACF0E94EB14811102C00E9424
:10544000011A259A2D9882E88093800089E1809343
:1054500081008FEF9FEF90938700809386000E94DA
:10546000751A80913301811106C086E980930F017E
:1054700084E980930E0120910F01A22FA295AF70B5
:10548000B0E091963C9191972F7081E090E0BC0143
:10549000022E01C0660F0A94EAF7462F4095432377
:1054A00091964C93919792963C919297362B929627
:1054B0003C93929740910E01E42FE295EF70F0E05B
:1054C00031A14F70042E01C0880F0A94EAF7982F7B
:1054D0009095932391A392A1892B82A390968C916E
:1054E00090E002C0959587952A95E2F7817020A1FA
:1054F00030E002C0359527954A95E2F792E020FF0B
:1055000090E0892B8093A6029091330181E0982747
:105510009093A502891B8093A402269A0E94C90E2B
:10552000811106C062E070E080E191E00E94CC3021
:1055300082E290E00E94B032803209F066C583E2D8
:1055400090E00E94B032843009F05FC584E290E0C0
:105550000E94B032883209F058C50E94EB148111C4
:1055600002C00E94011A82E090E00E94B032809353
:10557000E5020E94E50E9093BE028093BD0283E097
:1055800090E00E94B032682F70E090E080E00E94CE
:1055900099120E94751A8091BF028111E7C0809113
:1055A000E50280FF14C084EA9AE09F938F930E94E3
:1055B00032078091E5020F900F9080FF08C08EE8BF
:1055C0009AE09F938F930E9432070F900F900E9452
:1055D000EB14811110C08091E50280FF08C086E6BF
:1055E0009AE09F938F930E9432070F900F900E9432
:1055F000011A0E94661688E090E00E94B83260931B
:10560000E6027093E7028093E8029093E9028091AA
:10561000CE0283608093CE026E7FD1F48091E5024A
:1056200080FF08C08DE19AE09F938F930E9432071C
:105630000F900F900E94661688E090E00E94B832AA
:105640006093E6027093E7028093E8029093E90288
:105650000E945C0A8091E50280FF76C084E09AE0B7
:105660009F938F930E9432078091E5020F900F90D5
:1056700080FF6AC08091E60281701F928F9387EE4F
:1056800099E09F938F930E9432078091E5020F90DB
:105690000F900F900F9080FF57C08091E602869583
:1056A0001F928F938CEC99E09F938F930E94320707
:1056B0008091E5020F900F900F900F9080FF44C0F3
:1056C0008091E7021F928F9382EB99E09F938F93D3
:1056D0000E9432078091E5020F900F900F900F907B
:1056E00080FF32C08091E8021F928F9388E999E091
:1056F0009F938F930E9432078091E5020F900F9045
:105700000F900F9080FF20C08091E9021F928F932D
:105710008EE799E09F938F930E9432078091E50274
:105720000F900F900F900F9080FF0EC08091EA02B3
:105730001F928F9382E699E09F938F930E94320786
:105740000F900F900F900F901092CD028091CE028B
:1057500084608093CE028091E60280FF04C060E006
:1057600086950E94861981E08093BF0284E391E0D0
:105770009093C1028093C00287E99BE00E94990642
:1057800073E0272E312C80911B03853009F4EBC088
:105790000E949B250E94C90E81112AC18FEF8AA702
:1057A0008BA71CA60E9401098160782F9EA78DA758
:1057B0004AA55BA56CA58EA50E940F258091CD0200
:1057C000882309F477C08091CC02E091E602E69547
:1057D000E81BE093C802823009F09CC1F0E0E75E6C
:1057E000F44FE4910E2F10E095EAE92E9EE0F92E99
:1057F0008091C902882389F01092C9020E94010990
:10580000980120953095820F931F9093C702809343
:10581000C6021092CB021092CA028091C6029091E9
:10582000C7020E94F2088017910708F443C08091D4
:10583000C502882311F11092C5028091C302909194
:10584000C4020E94F20880339547B8F00E94010913
:105850009093C4028093C3028091E50280FF08C048
:1058600082EE9AE09F938F930E9432070F900F90E1
:105870008091CE0288608093CE02C090CA02D09000
:10588000CB02E091C602F091C7020E0F1F1F1093CA
:10589000C7020093C60286EC92E0F7010995809159
:1058A000CA029091CB02892B29F4CD2819F081E00E
:1058B0008093C5020E94DB099091CF02891751F1B4
:1058C0000E94DB09182F8093CF028091E50282FFAE
:1058D0001EC080FF1CC084E29BE00E94990680915C
:1058E000E50280FF14C01F921F938FE19BE09F93FE
:1058F0008F930E9432078091E5020F900F900F90D6
:105900000F9080FF04C08DE19BE00E949906812FDB
:105910000E94440B80911B03843009F034CF83E054
:105920008093E9008091E80082FF2DCF8091E8000C
:1059300090E085FF06C00E945A07882309F444C1FD
:1059400091E08091E8008B778093E800992309F437
:105950001ACFE981E150E33108F0B6C1F0E0E15C33
:10596000FC4C0C94893283E99BE00E94990680915B
:105970001B03843051F11092C20288E190E020E4D0
:105980000FB6F894A895809360000FBE2093600036
:1059900080E00E94E70980E00E94440B83B7817F8A
:1059A000846083BF83B7816083BF7894889583B711
:1059B0008E7F83BF0FB6F894A895809160008861B0
:1059C00080936000109260000FBE809111038823C5
:1059D00009F4D9CE0E949B25EBEEF2E081919191E2
:1059E000892B09F0FCC292E0EF3FF907B9F7CBCE63
:1059F00000ED12E018AB0FA76BEE662E62E0762E7C
:105A000010E000E0502ED301ED90FD903D01EFA598
:105A1000F8A9A190B190F8ABEFA7AE14BF0431F490
:105A20000F5F1F4F0A30110569F7B8CE8091E5026C
:105A300081FD2DC080E0CC24C394D12CAE24BF24A2
:105A400095012C213D21232B09F45DC089A35AA285
:105A5000EC20FD2081E0EF2809F480E08BA30E9478
:105A600001098160782F9DA38CA349A15AA16BA144
:105A70008DA10E940F25000F111FF801E053FD4F6B
:105A800080819181C826D926D182C08297CE8BECA5
:105A90009AE00E9499064BEE842E42E0942ED12C7F
:105AA000C12CDF92CF9286EC9AE09F938F930E9455
:105AB000320783EC9AE00E949906F4018081F1811B
:105AC000F9AB22E0820E911C0E940D09482E89A993
:105AD0000E940D094F928F938DEB9AE09F938F93C5
