:100000000C9424060C9446310C946B060C946B06ED
:100010000C946B060C946B060C946B060C946B069C
:100020000C946B060C946B060C942E1A0C94EA1923
:100030000C946D1C0C946B060C946B060C946B0664
:100040000C946B060C946B060C946B060C946B066C
:100050000C946B060C94491C0C946B060C946B0668
:100060000C946B060C946B060C946B060C946B064C
:100070000C946B060C946B060C946B060C946B063C
:100080000C946B060C946B060C946B060C946B062C
:100090000C946B060C946B060C946B060C946B061C
:1000A0000C946B060C946B060C946B060631FF09DE
:1000B00074A1010975150026FF00952075088102BD
:1000C0000976150026FF00952075089102C00501EC
:1000D0000980A101850319012AB700150126B7007F
:1000E000950175108100C0050C0901A10185041955
:1000F000012AA002150126A002950175108100C0F9
:100100000660FF0961A1010962150026FF00952024
:10011000750881020963150026FF00952075089176
:1001200002C005010906A101050719E029E715002C
:100130002501950875018102950175088101050762
:10014000190029FF150026FF009506750881000596
:10015000081901290595057501910295017503910D
:1001600001C00001010101010101010102020202BD
:100170000202020202030303030303030304040451
:10018000040404040505050505060606060607071A
:1001900007070708080808090909090A0A0A0B0BD2
:1001A0000B0C0C0C0D0D0D0E0E0E0F0F0F10101171
:1001B00011111212131314141515161617171818F7
:1001C00019191A1A1B1B1C1D1D1E1E1F202021225F
:1001D00022232424252626272829292A2B2C2D2DA5
:1001E0002E2F30313232333435363738393A3B3CC2
:1001F0003D3E3F404142434445464748494A4C4DB5
:100200004E4F50515354555658595A5B5D5E5F617D
:100210006264656668696B6C6D6F70727375777810
:100220007A7B7D7E8082838587888A8C8E8F91936E
:100230009596989A9C9EA0A2A3A5A7A9ABADAFB195
:10024000B3B5B7BABCBEC0C2C4C6C9CBCDCFD1D47A
:10025000D6D8DBDDDFE2E4E7E9EBEEF0F3F5F8FA20
:10026000FDFF7267626C69676874206D6F6465205A
:100270005B4E4F454550524F4D5D3A2025750A0063
:100280007267626C69676874206D6F6465205B4596
:100290004550524F4D5D3A2025750A007267626CD9
:1002A000696768742064697361626C65205B4E4F96
:1002B000454550524F4D5D3A207267626C696768E0
:1002C000745F636F6E6669672E656E61626C652030
:1002D0003D2025750A007267626C69676874207337
:1002E000657420687376205B4E4F454550524F4DE4
:1002F0005D3A2025752C25752C25750A00726762DC
:100300006C696768742073657420687376205B4538
:100310004550524F4D5D3A2025752C25752C25757D
:100320000A007267626C69676874207261696E6244
:100330006F7720736574206873763A2025642C25C6
:10034000642C25642C25750A00FFAA7F5540000106
:1003500002030C0D0E0F0405060708090A0B72674D
:10036000626C696768742074696D657220656E617E
:10037000626C65642E0A007267626C69676874203B
:1003800074696D65722064697361626C652E0A0020
:100390002223252628292A2C2D2F30323335363892
:1003A0003A3B3D3E4042434547494A4C4E505153EB
:1003B0005557595A5C5E6062646668696B6D6F710F
:1003C000737577797B7D7F81838587898A8C8E9011
:1003D000929496989A9C9E9FA1A3A5A7A8AAACAE1A
:1003E000AFB1B3B4B6B8B9BBBCBEBFC1C2C3C5C65A
:1003F000C7C9CACBCCCDCED0D1D2D2D3D4D5D6D703
:10040000D7D8D9D9DADADBDBDBDCDCDCDCDCDDDD40
:10041000DDDDDCDCDCDCDCDBDBDBDADAD9D9D8D730
:10042000D7D6D5D4D3D2D2D1D0CECDCCCBCAC9C7D2
:10043000C6C5C3C2C1BFBEBCBBB9B8B6B4B3B1AF09
:10044000AEACAAA8A7A5A3A19F9E9C9A98969492A9
:10045000908E8C8A89878583817F7D7B7977757380
:10046000716F6D6B6968666462605E5C5A5957555E
:100470005351504E4C4A4947454342403E3D3B3A1A
:100480003836353332302F2D2C2A292826252322A1
:100490006261636B6C6967687420656E61626C652C
:1004A0000A00A800290035001E001F0020002100BE
:1004B00022004A0000002B0014001A00080015005A
:1004C00017004D0000003900040016000700090065
:1004D0000A004B000000E1001D001B00060019008F
:1004E00005004E000000E000E300E20001512C0096
:1004F0002C00230024002500260027002D002E00BC
:100500002A001C0018000C00120013002F003000FD
:1005100031000B000D000E000F003300340000000E
:10052000280011001000360037003800E5000000F8
:1005300001512C002C000000E600E70076000000CE
:10054000E400A800005C0100C65CC55C010001007D
:100550000100C05C00000100C85CC75C0100010034
:100560000100C35C00000100CA5CC95C010001001D
:100570000100A900000001000100010001000100CC
:100580000100AA00000001000100010001000100BB
:100590000100010001000100010001000100010053
:1005A0004C0001002400250026000100010001008C
:1005B00001000100210022002300010001000000D1
:1005C000010001001E001F002000010001000000CA
:1005D00001000100270000000100010001000000EF
:1005E0000100010001000100010001000100010003
:1005F00001000100000001000100010001000100F4
:1006000001000100000001000100010001000100E3
:1006100001000100000001000100010001000100D3
:1006200001000100000001000100010001000100C3
:1006300001000100010001000100010001000100B2
:1006400001000100010001000100010001000100A2
:100650000100010001000100010001000100000093
:100660000100010001000100010001000100000083
:100670000100010001000000010001000100000074
:100680000100010001000100010001000100010062
:100690000100010000000100010001000100010053
:1006A0000100010000000100010001000100010043
:1006B0000100010000000100010001000100010033
:1006C0000100010000000100010001000100010023
:1006D0000100010001000100010001000100010012
:1006E0000100010001000100010001000100010002
:1006F00001000100010001000100010001000000F3
:1007000001000100010001000100010001000000E2
:1007100001000100010000000100010001000000D3
:1007200001000000000000000000000000000000C8
:1007300000000000000000000000000000000000B9
:100740000000000000007E0F00D4FFFFFFC7000084
:10075000007800000000000000002A2B28000000A4
:100760000000000000000000000000000029000060
:1007700000002C1E3420212224342627252E362D3D
:100780003738271E1F202122232425263333362ED7
:1007900037381F0405060708090A0B0C0D0E0F1049
:1007A0001112131415161718191A1B1C1D2F31308E
:1007B000232D350405060708090A0B0C0D0E0F1032
:1007C0001112131415161718191A1B1C1D2F31306E
:1007D000354C6261636B6C69676874206465637231
:1007E000656173653A2025750A006261636B6C6907
:1007F00067687420696E6372656173653A20257558
:100800000A006261636B6C69676874206469736174
:10081000626C650A006261636B6C6967687420745E
:100820006F67676C653A2025750A006261636B6CBF
:100830006967687420737465703A2025750A0072C0
:1008400067626C696768742064697361626C6520B3
:100850005B454550524F4D5D3A207267626C696747
:1008600068745F636F6E6669672E656E61626C6542
:10087000203D2025750A007267626C6967687420E4
:10088000656E61626C65205B454550524F4D5D3A27
:10089000207267626C696768745F636F6E66696710
:1008A0002E656E61626C65203D2025750A007267B9
:1008B000626C6967687420746F67676C65205B455C
:1008C0004550524F4D5D3A207267626C696768749B
:1008D0005F636F6E6669672E656E61626C65203D51
:1008E0002025750A0044454255473A2064697361E2
:1008F000626C65642E0A0044454255473A20656E95
:1009000061626C65642E0A004F6E6573686F743A9D
:10091000206163746976653A2025640A000A00251F
:1009200030325820006B6579626F6172645F726566
:10093000706F72743A20007267626C696768745FE6
:10094000636F6E6669672E7370656564203D202550
:10095000640A007267626C696768745F636F6E66D1
:1009600069672E76616C203D2025640A00726762FB
:100970006C696768745F636F6E6669672E73617414
:10098000203D2025640A007267626C696768745FA5
:10099000636F6E6669672E687565203D2025640A61
:1009A000007267686C696768745F636F6E66696719
:1009B0002E6D6F6465203D2025640A007267626CAD
:1009C000696768745F636F6E6669672E656E6162E2
:1009D0006C65203D2025640A007267626C69676857
:1009E000745F636F6E66696720454550524F4D3A9C
:1009F0000A007267626C696768745F696E69742067
:100A00007267626C696768745F636F6E6669672E90
:100A10006D6F6465203D20302E205772697465200B
:100A200064656661756C742076616C75657320749D
:100A30006F20454550524F4D2E0A007267626C6917
:100A40006768745F696E6974206565636F6E666957
:100A500067206973206E6F7420656E61626C6564D7
:100A60002E0A007267626C696768745F696E6974E8
:100A7000207374617274210A007267626C6967681E
:100A8000745F696E69742063616C6C65642E0A0022
:100A90000A0025303862003A200025303258000A1A
:100AA000722F632030313233343536370A007267A3
:100AB000626C6967687420616E696D6174696F6EDC
:100AC000207469636B207265706F727420746F207C
:100AD000736C6176650A0000047F3F1F6432146402
:100AE0003214783C1E1E140A050A002530325800C4
:100AF0006B6579626F6172645F7365745F6C656466
:100B00003A20007267626C6967687420656E616282
:100B10006C65205B4E4F454550524F4D5D3A2072FB
:100B200067626C696768745F636F6E6669672E657C
:100B30006E61626C65203D2025750A007267626CEB
:100B40006967687420736574207370656564205BE1
:100B50004E4F454550524F4D5D3A2025750A005B7A
:100B6000735D004B6579626F6172642073746172AA
:100B7000742E0A005B435D005B445D005B535D00C7
:100B80005B575D005B525D0009027B00040100A021
:100B9000FA0904000001030101000921110100010B
:100BA0002240000705810308000A0904010002032E
:100BB0000000000921110100012222000705820323
:100BC00020000107050303200001090402000103BE
:100BD00000000009211101000122320007058403F1
:100BE00020000A090403000203000000092111018A
:100BF00000012222000705850320000107050503E7
:100C0000200001120110010000000810CB58120052
:100C100001010200011C0346006F006C0064004BE0
:100C200000420020005200650076002E00200031B6
:100C30000000000E034B0065006500620069006F54
:100C4000000000040309040011241FBECFEFDAE006
:100C5000DEBFCDBF04B603FE27C08091F70290919E
:100C6000F802A091F902B091FA028730904BA740A8
:100C7000B04BD1F41092F7021092F8021092F902E0
:100C80001092FA0214BE84B7877F84BF0FB6F8941F
:100C9000A895809160008861809360001092600048
:100CA0000FBEE0E0F8E3099511E0A0E0B1E0EAE072
:100CB000F7E602C005900D92AC3BB107D9F722E0F0
:100CC000ACEBB1E001C01D92A73FB207E1F70E9473
:100CD00005290C944C330C940000FF93EF93E091A2
:100CE000BC01F091BD01309709F00995EF91FF919A
:100CF0000895FC018591803011F0EFDFFBCF08955E
:100D0000FF27E0E230E247FF0CC0419597FF09C0A2
:100D1000EDE26095709580959095611D711D811D26
:100D2000911D27FF02C0219530E350E2AA27660FEC
:100D3000771F881F991FAA1FA41710F0A41B639583
:100D40005A95A9F7AA3008F0A95FA05DAF93F39573
:100D5000611571058105910541F7ED3211F4EF93AD
:100D6000F395F21718F43F93F395FBCF8F91B5DF0E
:100D7000FA95E1F70895E991F9918591803021F094
:100D8000853219F0AADFF9CF089520E0E894559153
:100D90005532C1F3503311F4689455915A3348F4E5
:100DA000505390F3220F022E220F220F200D250FF9
:100DB000F4CF0EF4219589919991533619F3533755
:100DC00029F1533559F1BC0188279927E8945C36FD
:100DD00021F48991999168945591543639F446EFEC
:100DE0007EF077FF0DC08FEF9FEF0AC055374AE0C6
:100DF00039F0583540E121F0523642E009F00895CB
:100E0000FF93EF937DDFEF91FF91B7CFFF93EF93C8
:100E1000FC0181918030B9F360DFFBCFFF93EF934A
:100E200068DFF1CFDF93CF93CDB7DEB72596A3DF91
:100E3000CF91DF910895E8EDF0E080818E7F80838F
:100E40001092E2001092DA001092E100A0EEB0E001
:100E50008C9181608C9380818F77808319BCA7ED02
:100E6000B0E08C918E7F8C9380818F7E80831092F6
:100E7000BD0208952091E4003091E50095E6A901B6
:100E80002091EC00822F817020FF06C08091E80045
:100E900080FF06C080E008952091E80022FD1AC07E
:100EA0008091CA02882389F0853089F08091EB0017
:100EB00085FD0FC02091E4003091E50042175307F3
:100EC000F9F29150E1F684E0089582E0089583E01C
:100ED000089581E00895EF92FF920F931F93CF93AF
:100EE0007C018B010E943A07C82F811117C08091A5
:100EF000E80085FD0BC08091E8008E778093E800C4
:100F00000E943A07882399F3C82F08C0F7018191FE
:100F10007F018093F1000150110949F78C2FCF9187
:100F20001F910F91FF90EF9008958091CC0287FF61
:100F300013C08091E80082FF06C08091E8008B77A3
:100F40008093E80004C08091CA028111F2CF089515
:100F50008091CA028823D9F38091E80080FFF8CFFE
:100F60008091E8008E77ECCF982F9093E900242FA2
:100F7000762F50E0891731F07091EC002091ED0050
:100F80005091F00021FD07C09F5F973071F780936B
:100F9000E90081E008953091EB003E7F3093EB0053
:100FA0003091ED003D7F3093ED003091EB003160EA
:100FB0003093EB007093EC002093ED005093F00021
:100FC0002091EE0027FDE0CF80E00895CF92DF92E0
:100FD000EF92FF920F931F93CF93DF93C8EDD0E072
:100FE00088818F7E8883E7EDF0E080818160808357
:100FF00084E082BF81E08093BD0288818E7F8883F8
:1010000002EE10E0F80110821092DA0081EEC82E94
:10101000D12CF601108288818F778883888180683F
:10102000888388818F7D888319BC1092CA021092B0
:10103000CB021092C9021092C80290EEE92EF12C58
:10104000F70180818B7F808388818160888342E083
:1010500060E080E00E94B407F60180818E7F80838B
:10106000F801808181608083808188608083F701BE
:1010700080818E7F8083888180618883DF91CF919A
:101080001F910F91FF90EF90DF90CF900895FC019A
:101090008091D2029091D30286179707A0F0611534
:1010A000710529F49091E8009E779093E80090E014
:1010B0006115710551F4911108C08091E80082FF1B
:1010C00034C080E00895BC01F2CF8091CA02882329
:1010D000C1F18530C1F18091E80083FD30C080917D
:1010E000E80082FDEACF8091E80080FFE1CF8091A7
:1010F000F3002091F200382F6115710519F02830A6
:10110000310558F091E02830310509F090E0209148
:10111000E8002E772093E800CBCF81918093F100F7
:10112000615071092F5F3F4FE7CF8091CA0288233A
:1011300041F0853041F08091E80083FFBECF81E02F
:10114000089582E0089583E00895089508958091B8
:10115000BF0208952FB7F8946091D4027091D50220
:101160008091D6029091D7022FBF08952FB7F8949F
:101170008091D4029091D502A091D602B091D7026D
:101180002FBF08958091710281111092710208950C
:10119000E0ECF1E09191891303C0DF0111971C92FB
:1011A00091E0E63CF907B1F70895A0ECB1E0EFEF6C
:1011B00090E02D91821751F0EF3F19F4211101C0F9
:1011C000E92F9F5F9630A9F7EF3F09F408950E2E9F
:1011D000000CFF0BE254FE4F82830895990F990F84
:1011E000990F890F982F977086958695869525E09B
:1011F000829FF0011124E55CFD4F50E040E080E06B
:10120000219130E0092E02C0369527950A94E2F725
:1012100021703327042E01C0220F0A94EAF7822B93
:101220004F5F5F4F4530510559F70895990F990F5A
:10123000990F890F982F977041E001C0440F9A953C
:10124000EAF786958695869595E0899FF0011124A9
:10125000E55CFD4F30E020E070E05191DF01119737
:10126000CB01022E02C0969587950A94E2F7817011
:1012700081958527842385278C932F5F3F4F2530C9
:10128000310559F7089580913A0290910902981317
:1012900001C008958F5F8770FACF0C94AA0820913F
:1012A0000002309101022817390771F09093010272
:1012B00080930002E0918B02F0918C02309721F034
:1012C0000084F185E02D099408952091FE0130916C
:1012D000FF012817390771F09093FF018093FE01F9
:1012E000E0918B02F0918C02309721F00680F7811B
:1012F000E02D09940895E0918B02F0918C023097D3
:1013000021F00190F081E02D099480E00895FA0128
:10131000811101C0FB0109948091AC02982F9E7F3E
:1013200029F4817082608093AC0208958A34E8F3D6
:1013300081708864F8CFAF92BF92DF92EF92FF92F4
:101340000F931F93CF93DF93082F162FE901E42FFC
:10135000F0E0EE59FE4F611110C0E4915E2F4E2F68
:101360004983E8835A83DF91CF911F910F91FF90BA
:10137000EF90DF90BF90AF900895E62EF12C44914E
:10138000D42EE42FF0E026E0829FC00111242FEF3D
:1013900030E0B9010E946F32802F90E0880F991FD2
:1013A00055E5569FD001579FB00D11248A1B9B0B0A
:1013B000982F990F890F5901AE18BF08AE9ED00122
:1013C000AF9EB00DBE9EB00D11245B2F189F800103
:1013D0001124012F11275901A01AB10AAE9E8001D4
:1013E000AF9E100DBE9E100D11245901A81AB10810
:1013F000AE9CC001AF9C900DBE9C900D1124892F16
:101400009927281B390B2E9FC0012F9F900D3E9FBF
:10141000900D1124E92F62307105A1F050F461158F
:10142000710509F49DCF6130710581F0EB2F512FCB
:1014300097CF6430710569F080F06630710509F46A
:101440008FCFF4CFE42F4B2F592F8ACFE42F412F8A
:1014500087CFEB2F542F492F83CF4B2F5D2DE12FBB
:101460007FCFF894E82FE295EF70F0E031A1282FBC
:101470002F7081E090E001C0880F2A95EAF7982F3D
:101480009095932391A392A1892B82A37894089598
:1014900090917B0292FF06C0282F28712830F9F422
:1014A000877F846093FF06C0282F28712831F1F4CC
:1014B000877E846120917C0220FF06C0382F38711E
:1014C0003830D9F4877F816021FF06C0282F28712A
:1014D0002831D1F4877E816194FD877E0895282F7D
:1014E00024712430F9F68B7F8860DCCF282F24719B
:1014F000243101F78B7E8861DDCF382F3171313097
:1015000019F78E7F8860E0CF282F2171213121F7D4
:101510008E7E8861E1CF829590E09C01220F331F7F
:10152000220F331F2C7C959587959595879583730E
:10153000282B30E0C901880F991F8A7A35952795A5
:101540002575822B0895CF9384E090E00E94F732B6
:10155000C82F82E290E00E94F732982F8C2FCF9113
:1015600008950F931F93CF93DF9320E1629FE001D3
:10157000112450E0440F551FC40FD51F30EA839F3C
:10158000C00DD11D1124CE0187960E94F732082F7D
:1015900010E0102F0027CE0188960E94F7329801A4
:1015A000282BC901DF91CF911F910F910895462FEC
:1015B000843038F47A3028F4683018F4672F0C94AB
:1015C000B10A90E080E00895CF93DF930E94D70A9C
:1015D000EC0182389105A9F1D8F58133910509F420
:1015E00096C048F58932910509F48AC08A9709F4B2
:1015F00095C0C11522E5D20708F0B6C0C11531E586
:10160000D30708F026C1C83ED10508F09CC0C13EF2
:10161000D10560F5C83AD10508F087C0C53AD105B3
:1016200008F0EFC0C130D10509F12097F9F0C430BE
:10163000D105E0F440C08533910509F45AC0C9973B
:10164000C1F680917B02837089F0C0EED0E00EC0BD
:10165000833E910599F170F4803E910501F1823E3F
:10166000910539F680917B0282FD21C0CE01DF9188
:10167000CF910895863E910561F1873E910571F104
:10168000843E910509F0B5CF80917C0281FFEECFB9
:1016900080917B02C7EED0E084FD0DC0E7CF809142
:1016A0007B0280FD07C190917C0290FFDFCFC3EEEB
:1016B000D0E084FFDBCFD0E0C0E0D8CF80917B02C8
:1016C00082FDFBC090917C0290FDBFCF84FFCECF06
:1016D000F2CF80917B0283FDDDCFC8CF80917B026A
:1016E00083FDEEC090917C0291FFF0CFC4EED0E07C
:1016F000BDCF80917B0285FFB9CFC9E2D0E0B6CFE4
:1017000080917B0285FFB2CFC5E3D0E0AFCF80915F
:101710007B0286FFABCFCAE2D0E0A8CF80917B02EC
:1017200086FFA4CFC1E3D0E0A1CFCF3BD10518F60F
:10173000C85AD0E0CC0FDD1FC95ADE4F0990D881BE
:10174000C02DD46493CFC11540E5D40708F064C020
:10175000C11580E4D80708F05CC0CE019A958115C8
:101760009F4108F483CFA7CFC11536E5D30718F5FD
:10177000C11545E5D40708F084C0C11584E5D80734
:1017800008F07AC09C2F969596959E01237033277A
:10179000C115D34508F462C0C1E0D0E002C0CC0F4F
:1017A000DD1F2A95E2F730E2939FC0011124C82B78
:1017B000D92BDA685BCFC1158AE5D80778F4C11553
:1017C00099E5D90708F068C0C11528E5D20708F4E3
:1017D00072CFDC2FCC27C06FD06A48CFCE01905695
:1017E0008115904208F067CF8D2F8F710E94480AB3
:1017F00090E0982F882788279F719C012C2BE90166
:1018000049C0C55AD0E0CC5ADE4FC881D0E0D06480
:101810002DCFDF70D06A2ACFCE01E4E09695879570
:10182000EA95E1F783702C2F26952695237040E2E8
:10183000249F90011124382B8C2F8370C1E0D0E0BD
:1018400002C0CC0FDD1F8A95E2F7C22BD32BDC68D8
:101850000DCFDC2FCC27C16FD06A08CFC1E0D0E01C
:1018600002C0CC0FDD1F2A95E2F720E2929FC00153
:101870001124C82BD92BEBCFDC2FCC27C46FD06A17
:10188000F5CE8C2F0E94480AC82FD0E0DC2FCC2741
:10189000CC27DF71D062EACE8C2F8F700E94480A6D
:1018A00034E0D695C7953A95E1F7CF709C2FEC01BF
:1018B000D069DCCEC9E3D0E0D9CEC2EED0E0D6CE3E
:1018C000C6EED0E0D3CEBF92CF92DF92EF92FF92DE
:1018D0000F931F93CF93DF938C01C090DB02D090C6
:1018E000DC02E090DD02F090DE02809172029091C5
:1018F0007302A0917402B0917502C82AD92AEA2A0B
:10190000FB2ACFE1D0E0BC2ED701C6010C2E04C0CB
:10191000B695A795979587950A94D2F780FD0EC046
:10192000219788F7B12C8B2DDF91CF911F910F91CB
:10193000FF90EF90DF90CF90BF900895B8018C2F6B
:101940000E94E40A019761F3EECFCF93DF93EC019D
:101950000E94630CBE01DF91CF910C94E40A0E94B7
:10196000A50C292F2F7092959F7092509E3078F47D
:10197000E92FF0E0E25BFC4C0C94B932803F19F0A7
:1019800020F4883E20F481E00895843FE1F380E074
:101990000895883EC0F3813FD1F7F5CF822F869519
:1019A0008695869508956F927F928F929F92AF92BF
:1019B000BF92CF92DF92EF92FF920F931F93CF933C
:1019C000DF9382EAC82E84E0D82E07ED10E0E8010C
:1019D000C05AD10936011CC0F50185909490692D3B
:1019E000C7010E940B33682DC70101960E940B337B
:1019F00082E0A80EB11C82E0E80EF11CCE15DF05D6
:101A000059F780E1680E711C60960C171D0731F0C4
:101A10007E0180E1E81AF1085301DECF00561F4F26
:101A200080EAC80ED11C073583E0180781F6DF91E4
:101A3000CF911F910F91FF90EF90DF90CF90BF90CB
:101A4000AF909F908F907F906F900895CF93DF938A
:101A5000C7EAD2E060E0CE010E940B332196C115A7
:101A600084E0D807B9F7DF91CF910895682F86E019
:101A700090E00C940B33EF92FF920F931F93CF9350
:101A8000DF938091700290916F02892B90916E028A
:101A9000892B8093BE0190917102992391F0892B3B
:101AA0008093BE0120E080EC91E0FC013191CF01F8
:101AB00031112F5FF1E0863C9F07B9F721110E9499
:101AC000C208E0918B02F0918C023097C9F102803C
:101AD000F381E02D8EEB91E009958091AB0282FFBE
:101AE0002FC080FF04C085E299E00E947906CEEB0A
:101AF000D1E086ECE82E81E0F82E0FE119E080912C
:101B0000AB0280FF0BC088811F928F931F930F93AE
:101B10000E9412070F900F900F900F902196EC16D5
:101B2000FD0669F78091AB0280FF0AC08DE199E064
:101B3000DF91CF911F910F91FF90EF900C94790658
:101B4000DF91CF911F910F91FF90EF90089590E05A
:101B500080E00E94650990E080E00E944F091092A9
:101B60006F0210926E020C943B0D6093DB02709337
:101B7000DC028093DD029093DE020C94A70D0F939C
:101B80001F936091DB027091DC028091DD029091E5
:101B9000DE028B019C0106701127222733270630B5
:101BA00011052105310529F468601F910F910C94EE
:101BB000B50D677FFACF0F931F9341E050E060E0CF
:101BC00070E004C0440F551F661F771F8A95D2F737
:101BD000CB01BA0160957095809590950091DB02DC
:101BE0001091DC022091DD023091DE02602371232E
:101BF000822393231F910F910C94B50D90916D0248
:101C00008095892380936D02282F277039F4282F1F
:101C1000082E000C330B9217130621F490917C02CE
:101C200092FF07C08595859585950E94DB0D1092E2
:101C30006D0208950F931F9341E050E060E070E063
:101C400004C0440F551F661F771F8A95D2F78091F5
:101C5000DB029091DC02A091DD02B091DE028A01EC
:101C60009B01082B192B2A2B3B2BC901B8011F9173
:101C70000F910C94B50D6093720270937302809370
:101C80007402909375020C94A70D882341F08095FF
:101C9000909170028923809370020C943B0D0895FB
:101CA000882339F090917002982B909370020C94D5
:101CB0003B0D0895882309F452C0823871F40E94C4
:101CC0007B0981FF4CC089E30E94D5080E943B0D2F
:101CD00089E30E94C8080C943B0D833859F40E9494
:101CE0007B0980FF3CC083E50E94D5080E943B0D24
:101CF00083E5EFCF843859F40E947B0982FF2FC01F
:101D000087E40E94D5080E943B0D87E4E2CF9CEF58
:101D1000980F913AF0F290E2980F983088F487701B
:101D200021E030E0A90102C0440F551F8A95E2F777
:101D3000CA01809590917002892380937002CBCF65
:101D40009BE5980F933020F490E080E00C946509B7
:101D5000885A873120F490E080E00C944F09089570
:101D6000CF93DF93D82FC0917C02C2FB882780F9E4
:101D70008D17F9F0D0FBC2F9C0937C0260917B0211
:101D800084E090E00E940B336C2F82E290E00E948E
:101D90000B338091AB0280FF0CC01F92DF9388E071
:101DA00099E09F938F930E9412070F900F900F90CE
:101DB0000F90DF91CF91089510929802809199022F
:101DC0008460809399028091AB0280FF08C087E70E
:101DD00093E09F938F930E9412070F900F900895A6
:101DE0009FB7F8941092BB029FBF9091CA029430A3
:101DF00009F048C02091E9002F703091EC00932F3A
:101E0000917030FD90E8922B25E02093E90020911D
:101E1000EB0020FF34C02091EE0027FF30C020915E
:101E20007602222321F02091E80025FF28C010929D
:101E3000760226E03091E80035FF14C08093F1006F
:101E40008091E80085FD27C08091E80080FFFCCFED
:101E50008091E8008E778093E8009F709093E9006E
:101E600080E008953091CA02343049F43091EB009B
:101E700035FD05C0215041F481E0809376029F70CA
:101E80009093E9008FEF0895EFE9FFE03197F1F7C4
:101E900000C00000CFCF8FB7F89421E02093BB02A1
:101EA0008FBFDBCFCF93DF9300D00F92CDB7DEB7DC
:101EB0009091CA02943011F589837B836A83909351
:101EC000E9008FEF9091E800815095FD06C095EDF7
:101ED0009A95F1F700008111F5CF8091E80085FF18
:101EE0000DC050E040E063E070E0CE0101960E943A
:101EF0006B078091E8008E778093E8000F900F9039
:101F00000F90DF91CF910895BC0184E00C94520FA3
:101F1000BC0183E00C94520FCF93DF93EC0181E07E
:101F20008093E9008FEF9091E800815095FD06C005
:101F300095ED9A95F1F700008111F5CF8091E800B9
:101F400085FF14C050E040E068E070E0CE010E94E0
:101F50006B078091E8008E778093E80088E0FE01AF
:101F6000A0ECB2E001900D928A95E1F7DF91CF915C
:101F7000089581E08093E00080E28093D800109281
:101F8000C9008FE19EE40197F1F700C0000087E0EF
:101F900090EBDC018093F7029093F802A093F90292
:101FA000B093FA0288E19CE00FB6F894A89580936C
:101FB00060000FBE90936000FFCFCF93C82F88239F
:101FC00009F488C08238C1F40E947B0981FD82C077
:101FD00089E30E94D5080E943B0D2FEF81EE94E02B
:101FE000215080409040E1F700C0000089E30E944A
:101FF000C808CF910C943B0D8338A1F40E947B0953
:1020000080FD68C083E50E94D5080E943B0D2FEF3C
:1020100081EE94E0215080409040E1F700C0000044
:1020200083E5E5CF8438A1F40E947B0982FD52C08C
:1020300087E40E94D5080E943B0D2FEF81EE94E0CB
:10204000215080409040E1F700C0000087E4CFCFEE
:102050008CEF8C0F813A68F4E0ECF1E08191C817C5
:1020600099F121E0E63CF207C9F78C2F0E94D508D0
:10207000C0CF80E28C0F883068F4C77021E030E078
:1020800001C0220FCA95EAF780917002822B8093DB
:102090007002AFCFEBE5EC0FE33040F4F0E0EC5A28
:1020A000FE4F808190E0CF910C946509C85AC731EA
:1020B00088F4EC2FF0E0EE0FFF1FE95AFE4F80810D
:1020C0009181CF910C944F098C2F0E94C8080E94D7
:1020D0003B0DCBCFCF9108951F93CF93DF93182F54
:1020E000D0E0C0E0893311F4C0E5D0E0812F0E9438
:1020F000DD0F209731F4812FDF91CF911F910C9448
:102100005A0E8FE99FE00197F1F700C00000219778
:10211000F0CF0F931F93CF93DF93C62FD42F022FAF
:10212000FC0182818823A1F06093DA020E94B60844
:102130009093D9028093D802C77081E001C0880FC4
:10214000CA95EAF7DF91CF911F910F910C94500E31
:102150008091DA02681340C02091D8023091D902F0
:102160004FB7F8948091D4029091D502A091D602F5
:10217000B091D7024FBF821B930B883C910560F54D
:1021800010E21D0F6D17B9F080E2860F883040F421
:10219000C77081E001C0880FCA95EAF70E94450E1A
:1021A000183048F481E09D2F977001C0880F9A95F0
:1021B000EAF70E94500E802F0E946C10183098F49D
:1021C000D77081E001C0880FDA95EAF7DF91CF91EF
:1021D0001F910F910C94450EC77081E001C0880FCC
:1021E000CA95EAF7F3CFDF91CF911F910F91089530
:1021F000CF92DF92EF920F931F93CF93DF93CDB7E0
:10220000DEB7E0970FB6F894DEBF0FBECDBF60918A
:102210000F018091AC0280FF4BC0EEE4F3E09E0121
:102220002F5F3F4F8E010F5C1F4FC901A4914A2FB2
:1022300050E0DA01AA0FBB1FA40FB51FA253BE4F77
:10224000CD90DD90EC90D901CD92DD92ED929D0183
:102250003196A017B10751F720910E0143E0249F5A
:10226000800D911D11246E9A2EB12F7B3EB13064EA
:102270005FB7F894FC01649FE00DF11D1124BF01CC
:102280008617970741F55FBFEFE5F4E03197F1F767
:1022900000C00000E0960FB6F894DEBF0FBECDBFC1
:1022A000DF91CF911F910F91EF90DF90CF90089524
:1022B000809110019091110123E0829FF00111247F
:1022C000E253FE4F891708F0A8CF118210821282C4
:1022D0008F5F3396F7CFDC014D91CD01E8E03EB939
:1022E000000000C047FF2EB9440F000000C000C02E
:1022F00000C02EB900C0EA9591F7C2CF0F931F938B
:10230000CF93DF93EC0110E000E090911201901761
:10231000110609F06CF40E94F8108C8190E001968F
:10232000817099278C83DF91CF911F910F91089530
:1023300020911001A801420F511D9A01220F331F55
:10234000240F351F22533E4F4C816091AE02809185
:10235000AD0296959017110651F04CF0442349F0C8
:102360004091AF020E949B090F5F1F4FCECF4423C5
:10237000B9F340E0F7CFEF92FF921F93CF93DF9333
:10238000EC0110E0EE24EA94F12C60911201161792
:1023900070F00E94F8109A818C8190FF27C08F5FA7
:1023A0008C83DF91CF911F91FF90EF900895209142
:1023B0001001422F410F5527551FCA019A01220FC4
:1023C000331F280F391F22533E4F70E0C7010E9470
:1023D0008332962F8C814091AF026091AE02199F9B
:1023E000800D11240E949B091F5FCFCF8150D8CF51
:1023F0009F92AF92BF92CF92DF92EF92FF920F9394
:102400001F93CF93DF93EC018A81BB24BA9480FDA4
:1024100002C0BB24B394A09012018C81811109C029
:1024200081E0B81225C08FEF8A0D8093CB0181E047
:102430008C83F12CE12CEA14F0F00E94F8108091CA
:10244000CB0191E0B9125BC0811154C0809112019F
:1024500081508093CB011C82DF91CF911F910F910E
:10246000FF90EF90DF90CF90BF90AF909F90089536
:102470001092CB01DCCF009110010E0D1F2D111D0C
:10248000C801880F991F080F191F02531E4FF8012A
:1024900011821082128234E0C32ED12C912C8091B3
:1024A000CB01890D813114F18F70082E000C990B2E
:1024B0008E159F0591F48091AF028C9DA0018D9D9A
:1024C000500D112455954795559547959801609164
:1024D000AE028091AD020E949B099B0CF1E0CF1AE5
:1024E000D108E9F68FEFE81AF80AA5CF87FFDDCF0C
:1024F0008A0DDBCF81508093CB01BC82ADCF90E0C1
:1025000001966091120170E00E9483328093CB01AA
:102510008C83A2CFEF92FF920F931F93CF93DF9301
:10252000EC018C81811109C081E08C831092CC0177
:1025300092E090930C0180930B0180911001909197
:10254000110123E0829FF0011124E253FE4F89170D
:1025500068F110E003E060911201161768F10E9423
:10256000F81080910B012091CC01280F2093CC0111
:1025700090910C01980F90930C01191654F4022EAF
:10258000000C330B409112014150550B24173507B5
:1025900034F0819580930B01813009F41C82DF9126
:1025A000CF911F910F91FF90EF90089511821082AB
:1025B00012828F5F3396CBCFE12EF12C70E0C701F2
:1025C0000E94833220911001820F482F50E0209109
:1025D000CC01022E000C330BE216F306BCF0209166
:1025E0000C01022E000C330B2E153F057CF0809F52
:1025F0009001112422533E4F4091AF026091AE02F0
:102600008091AD020E949B091F5FA5CFFA01EE0FDA
:10261000FF1FE40FF51FE253FE4F1182108212825A
:10262000F3CF8F929F92AF92BF92CF92DF92EF92B1
:10263000FF920F931F93CF93DF93EC014C81042FF4
:1026400010E09801D8010E94CE329B01AC010E949B
:10265000E4324B015C01E0E2F0E0E01BF10BA5E5A8
:10266000B0E0AC019B010E94E4326B017C019F0150
:10267000DF010E94C6329B01AC010E94EF329B0138
:10268000AC01280D391D4A1D5B1DC701B6010E9412
:102690009732F22E822F90E039E23F1560F143E04D
:1026A000249F9001112435952795122F109500E055
:1026B00085E5E82EEF1880911201081758F10E9465
:1026C000F8109C8181E0992319F0903219F48FEF72
:1026D00080930D0180910D01890F8C83DF91CF9143
:1026E0001F910F91FF90EF90DF90CF90BF90AF9030
:1026F0009F908F90089525E530E0B901681B790B14
:102700009B01220F331F260F371F37FFCCCF2F5FC0
:102710003F4FC9CF8E2D01FD8F2D20911001622FCB
:10272000600F7727771F9B01220F331F260F371F5C
:1027300022533E4F412F6091AE020E949B090F5FD2
:10274000BACF9091AC0290FF14C0909110012091EB
:10275000110133E0939FF0011124E253FE4F9217D1
:1027600010F00C94F8108183608342839F5F33964E
:10277000F6CF08950F931F93CF93DF9300D00F925E
:10278000CDB7DEB78C018091CD0181110AC09E01C9
:102790002F5F3F4F4FEF6FEF0E949B098A8180931D
:1027A000CD01F8016481613069F08091CD0140E094
:1027B000662361F040E0623011F44091CD0180E089
:1027C00060E004C06091CD0140E080E00E94A11370
:1027D000F801848190E0019663E070E00E9483320A
:1027E00084830F900F900F90DF91CF911F910F91E5
:1027F0000895CF93DF9300D00F92CDB7DEB79091BD
:10280000AC0290FF0AC09E012F5F3F4F0E949B09C0
:102810004B8169818A810E94A1130F900F900F90C4
:10282000DF91CF910895CF93DF93EC01EC81F0E03D
:10283000E057FC4F4491ECEAF2E0628181810E9412
:10284000F9138C818F5F8C83DF91CF910895CF93A3
:10285000DF93EC01ECEAF2E0438162818C810E941B
:10286000F9138C818F5F8C83DF91CF9108958091D4
:10287000AC028E7F8093AC028091AB0280FF0CC0D3
:102880001F921F928CE992E09F938F930E941207F0
:102890000F900F900F900F900E94DC0E8091990284
:1028A0008160809399022FEF80E792E02150804071
:1028B0009040E1F700C000000C94F8108091CA012C
:1028C000811110C08091D80080618093D8008AE186
:1028D0008A95F1F700C08091D90080FF0AC081E09D
:1028E0008093CA0181E09091CA01913009F080E0A3
:1028F000089582E08093CA010E941B071092CA02C9
:10290000F1CFCF92DF92EF92FF926B017C010E9498
:102910008C09B701A60188E090E0FF90EF90DF906E
:10292000CF900C941D334F925F926F927F928F9253
:102930009F92AF92BF92CF92DF92EF92FF920F934E
:102940001F93CF93DF9300D00F92CDB7DEB7182F30
:10295000F62E042F722E9091AC0290FF57C0E92FF3
:10296000E695AE2FB0E0A15DBE4F8C9180939702AB
:102970009E7F923009F05EC09E012F5F3F4F812FF6
:102980000E949B094B8169818A810E94A1138091D9
:10299000AD02811308C08091AE028F1104C08091F6
:1029A000AF02801729F0809199028260809399028A
:1029B0001093AD02F092AE020093AF02772009F4BB
:1029C0009CC06091AC027091AD028091AE0290917A
:1029D000AF020E9481148091AB0280FF17C08091EA
:1029E000AF021F928F938091AE021F928F938091BE
:1029F000AD021F928F938DEF92E09F938F930E9471
:102A000012070FB6F894DEBF0FBECDBF0F900F9028
:102A10000F90DF91CF911F910F91FF90EF90DF907A
:102A2000CF90BF90AF909F908F907F906F905F906E
:102A30004F900895823019F40091AF02A8CF8630EC
:102A400019F41091AD02A3CF8930D9F3893109F07F
:102A50009ECFE9518E2F8170682E8E2F80958170C8
:102A6000E82EE695F0E0E75BFC4FC590D490412C52
:102A7000DD2492E2A92E93E0B92E60911201461650
:102A800018F00E94F81083CF842C912C8C9CC001EC
:102A90008D9C900D9C9C900D112470E00E946F32D3
:102AA000512E611028C0560E8091AB0280FF11C0DC
:102AB000DF92CF921F92EF921F925F921F924F92DE
:102AC000BF92AF920E9412070FB6F894DEBF0FBEFE
:102AD000CDBF20911001820E911C9401220F331F53
:102AE000280D391D22533E4F402F6F2D852D0E94FA
:102AF0009B094394C2CF561AD7CF8091AB0280FF77
:102B000085CF1F920F931F92FF921F921F9386ED06
:102B100092E073CFECEAF2E0438121E1421B08F43A
:102B200040E021E0628181810C949314ECEAF2E0B0
:102B3000438121E1420F08F44FEF21E0628181815E
:102B40000C949314ECEAF2E0628121E1621B08F438
:102B500060E021E0438181810C949314ECEAF2E07F
:102B6000628121E1620F08F46FEF21E043818181EE
:102B70000C949314ECEAF2E0818121E043816281BC
:102B800088500C949314ECEAF2E0818121E04381B7
:102B90006281885F0C9493148091B002882319F0AD
:102BA00081508093B0026091AC027091AD0280912F
:102BB000AE029091AF020C9481148091B0028330E8
:102BC00018F48F5F8093B0026091AC027091AD02F7
:102BD0008091AE029091AF020C948114ECEAF2E085
:102BE00087E1808311828FEF828383831482A7E938
:102BF000B2E012968C911297836012968C9360814A
:102C00007181828193810C94811410927002E0ECA6
:102C1000F1E086E0DF011D928A95E9F70C94A70D9B
:102C20001F93CF93DF93CDB7DEB7AA970FB6F89473
:102C3000DEBF0FBECDBF8CEC92E02091F100DC0135
:102C40002D93CD01B2E0843D9B07B9F78091CD0271
:102C5000833009F471C0B8F4813009F448C082307F
:102C600009F4B2C08091E80083FF3AC18091CC02A0
:102C70009091CD029A3008F033C1E92FF0E0E45A88
:102C8000FC4C0C94B9328A3009F48DC08B3009F4B5
:102C900070C0893039F78091CC02813219F7809168
:102CA000D0029091D102009711F00297D9F680914D
:102CB000E800877F8093E8008091E80082FF37C0BA
:102CC0009091F3008091F200029729F48091F10035
:102CD0008B7F813021F48091F1008093BF0280913D
:102CE000E8008B778093E8000E949507BBCF809126
:102CF000CC02813A09F0B6CF8091E800877F8093BB
:102D0000E8008091D0029091D102892B61F468E0B3
:102D100080EC92E070E00E9447088091E8008B7799
:102D20008093E8009FCF60E090E080E0F3CF809157
:102D3000CA028111C1CF96CF8091CC02813A09F0AD
:102D400091CF8091D0029091D102892B09F08ACF46
:102D50008091E800877F8093E8008091E80080FF01
:102D6000FCCF80911E018093F1008091E8008E7766
:102D7000B9CF8091CC02813209F074CF8091D0021A
:102D80009091D102892B09F06DCF8091E800877F67
:102D90008093E8000E9495078091CE0280931E01E7
:102DA0000E9405165FCF8091CC02813209F05ACF84
:102DB0008091E800877F8093E8000E9495078091CA
:102DC000CF028093BE024ECF8091CC02813A09F0AF
:102DD00049CF8091E800877F8093E8008091E800E8
:102DE00080FFFCCF8091BE02BECF803899F0823840
:102DF00009F076C08091D0028F70873008F070C0E3
:102E00008093E9008091EB0085FB882780F9109280
:102E1000E90006C08091C8029091C90291118260B8
:102E20009091E800977F9093E8008093F1001092D2
:102E3000F1008091E8008E77BAC1882309F4A7C118
:102E4000823009F04DC08091CE028111ABC18091DA
:102E5000D0028F702FEF280F263008F041C08093EA
:102E6000E9002091EB0020FF9DC1933031F4809167
:102E7000EB0080628093EB0095C19091EB00906134
:102E80009093EB0021E030E001C0220F8A95EAF731
:102E90002093EA001092EA008091EB008860EACF6C
:102EA00081111EC01091CE021F778091E3008078BF
:102EB000812B8093E3008091E800877F8093E80076
:102EC0000E9495078091E80080FFFCCF8091E3008D
:102ED00080688093E30082E0111183E08093CA024E
:102EE0008091E80083FF0AC08091E800877F80938B
:102EF000E8008091EB0080628093EB00AA960FB609
:102F0000F894DEBF0FBECDBFDF91CF911F91089522
:102F10008058823028F72091CE023091CF022C3D8C
:102F2000E3E03E07A1F583E08A838AE289834FB715
:102F3000F894DE01139620E03EE051E2E32FF0E04A
:102F400050935700E49120FF03C0E295EF703F5F7C
:102F5000EF708E2F90E0EA30C0F0C7968D939D936E
:102F60002F5F243159F74FBF8091E800877F80930E
:102F7000E8006AE270E0CE0101960E944708809165
:102F8000E8008B778093E800ABCFC096E7CF8091C5
:102F9000D0029091D102432F55274330510509F4B7
:102FA0004AC078F54130510509F47AC08BE790E0CA
:102FB000E8E8FBE04230510509F092CF2091E800AB
:102FC000277F2093E8002091D2023091D30282170C
:102FD000930708F49C0140E02115310509F065C014
:102FE000411163C08091E80082FDC9CF8091CA027F
:102FF000882329F2853019F28091E80083FFF2CF0F
:10300000BECF4132510509F43CC04232510509F0AE
:1030100067CF8430910508F063CFFC01EE0FFF1FEE
:10302000E555FE4F0190F081E02D89559E4FDC0162
:103030008C9190E01AC0332721303105D1F0211551
:10304000310561F02230310509F04ACFE5E1FCE0BD
:10305000E4918E2F90E0E5E1FCE007C0E3E4FCE0C2
:10306000E4918E2F90E0E3E4FCE0009709F438CF80
:10307000A5CFE3E3FCE0E4918E2F90E0E3E3FCE0F6
:10308000F4CF8430910508F02BCF880F991FFC01F5
:10309000ED54FE4F0190F081E02D89E090E08ECF5D
:1030A00082E190E0E3E0FCE089CF8091CA028823CE
:1030B00009F465CF853009F462CF8091E80083FD83
:1030C0005ECF8091E80082FD8DCF8091E80080FF87
:1030D00083CF9091F3008091F2002115310519F012
:1030E0008830910550F041E0089709F040E0809168
:1030F000E8008E778093E8006FCF44914093F10011
:103100003196215031090196E8CF803809F0E8CE98
:103110008091E800877F8093E8008091CB028093C4
:10312000F10087CE8111DCCE1091CE02123008F072
:10313000D7CE8091E800877F8093E8001093CB0280
:103140000E949507112311F084E005C08091E300EF
:1031500087FDFACF81E08093CA0242E061EC81E012
:103160000E94B40742E261EC84E00E94B40742E2AC
:1031700061EC82E00E94B40742E260EC83E00E94CE
:10318000B40742E261EC85E00E94B407A9CE8091C9
:10319000CE02813009F0A4CE81E0933009F080E0C6
:1031A0008093C9021092E9008091E800877F8093A4
:1031B000E8000E94950794CE8F929F92AF92BF92A3
:1031C000CF92DF92EF92FF920F931F93CF93DF93F3
:1031D00000D000D00F92CDB7DEB705E811E08DE743
:1031E000C82E82E0D82E4601F12CAA24A394B12C3B
:1031F000D8018D918D01F894E82FE295EF70F0E001
:1032000021A18F70A50102C0440F551F8A95E2F7D6
:10321000CA01922F982B91A392A18095892382A312
:10322000789400C0EFE8F1E030E020E0E12C41913B
:10323000A42FA295AF70B0E090968C9190E04F7063
:1032400002C0959587954A95E2F780FD53C08A2D77
:10325000022E01C0880F0A94EAF7E82A2F5F3F4F39
:103260002830310521F7F801319780810E94310A19
:1032700050EA5A95F1F7D4018C91E816E9F1EC92F5
:1032800081E0F82ABFEF8B1A9B0AE1E00A381E079B
:1032900009F0AECF10918802FF2081F181E0809388
:1032A000C8010E94B6089093C7018093C60120917F
:1032B000C6013091C7014FB7F8948091D402909124
:1032C000D502A091D602B091D7024FBF821B930BBB
:1032D0000697C0F0E12FF0E0EF54FD4FD6018D913D
:1032E0006D018193B2E8CB16B2E0DB06B9F710921C
:1032F000C80108C080E0B1CF80E0C3CF8091C80191
:103300008111D5CF0E945E14E82E60918802882337
:1033100009F455C08E010F5F1F4F85E0F80111922F
:103320008A95E9F7862F90E0B8018F549D4F0E944F
:103330003230811127C08091C9018F5F8093C9010C
:103340008630D8F1E0918702F0E0EF54FD4F108213
:103350001182128213821482F11001C0FE2C8F2D73
:103360000F900F900F900F900F90DF91CF911F91C2
:103370000F91FF90EF90DF90CF90BF90AF909F9014
:103380008F9008951092C901A0918702B0E0AF54C8
:10339000BD4F9E012A5F3F4FE12C4D91F801919165
:1033A0008F01491731F0AD0141505109FA01908365
:1033B000E82E0217130789F7CFCFE12CCDCF70E0AD
:1033C0006F547D4F8091870290E08F549D4F0E94F3
:1033D0006B30C2CF1F920F920FB60F9211242F9312
:1033E0003F934F935F936F937F938F939F93AF938D
:1033F000BF93CF93DF93EF93FF93D091E900DF70FA
:103400008091EC00C82FC17080FDC0E81092E900E7
:103410008091F000877F8093F00078940E941016CE
:103420001092E9008091F00088608093F000CD2B2D
:10343000CF70C093E900FF91EF91DF91CF91BF91E1
:10344000AF919F918F917F916F915F914F913F913C
:103450002F910F900FBE0F901F9018951F920F92F3
:103460000FB60F9211242F933F934F935F936F9357
:103470007F938F939F93AF93BF93EF93FF9380912D
:10348000E10082FF15C08091E20082FF11C08091AF
:10349000E1008B7F8093E1002091BC022F5F822F9F
:1034A00062E30E946332992309F4BEC02093BC02F8
:1034B0008091DA0080FF28C08091D80080FF24C06E
:1034C0008091DA008E7F8093DA008091D90080FFAE
:1034D000E1C080E189BD82E189BD09B400FEFDCF74
:1034E00081E08093CA0284E79BE00E947906809184
:1034F000BD02811109C00E941B070E94E60780914E
:10350000E20084608093E2008091E10080FF1BC0B4
:103510008091E20080FF17C08091E2008E7F80934F
:10352000E2008091E20080618093E2008091D80007
:1035300080628093D80019BC85E08093CA028CE732
:103540009BE00E9479068091E10084FF2DC080916C
:10355000E20084FF29C080E189BD82E189BD89B58F
:10356000982F917080FFFBCF8091D8008F7D809342
:10357000D8008091E1008F7E8093E1008091E2008D
:103580008F7E8093E2008091E20081608093E20070
:103590008091CB02882309F487C084E08093CA021B
:1035A00080E89BE00E9479068091E10083FF2BC0B8
:1035B0008091E20083FF27C08091E100877F8093A4
:1035C000E10082E08093CA021092CB028091E10078
:1035D0008E7F8093E1008091E2008E7F8093E200F5
:1035E0008091E20080618093E20042E060E080E050
:1035F0000E94B4078091F00088608093F00084E816
:103600009BE00E947906FF91EF91BF91AF919F914E
:103610008F917F916F915F914F913F912F910F907B
:103620000FBE0F901F9018951092BC028091BB02A4
:10363000882309F43DCF8091CA028430C1F490916F
:10364000E9009F702091EC00822F817020FD80E8BE
:10365000892B95E09093E9009091EB0090FF04C0D6
:103660009091EE0097FD08C08F708093E900109252
:10367000BB021ECF1092F1009091E80095FDFACFA9
:103680009091E80090FFF0CF9091E8009E779093A2
:10369000E800EACF19BC1092CA0288E79BE00E94BA
:1036A00079061092BD0230CF8091E30087FD93E050
:1036B0009093CA0275CF8091AA02869586958695C9
:1036C00008950F931F930E945E14882321F01F9189
:1036D0000F910C94AA080E94AA08009177021091F9
:1036E00078022091790230917A02600F711F821F57
:1036F000931F1F910F9108950E945E1481110C94E5
:10370000B6080E94611BCB0108956091AC026695DA
:1037100070E04BE050E080E091E00E943F33892B65
:1037200019F481E0809398020E947C1B909392028E
:103730008093910280919902846080939902809194
:10374000AB0280FF08C08EE593E09F938F930E94A9
:1037500012070F900F9008959091AC0290FF5AC0FD
:103760009170811141C092609093AC028091990256
:103770008160809399026623F1F16091AC027091AF
:10378000AD028091AE029091AF020E9481148091AF
:10379000AB0280FF0FC08091AC0286951F928F9381
:1037A00080E892E09F938F930E9412070F900F90F2
:1037B0000F900F906091AC02669570E04BE050E086
:1037C00080E091E00E943F33892B09F10E94DC0EDA
:1037D00081E08093940220E04091AF026091AE02BC
:1037E0008091AD020C949314853210F09864BCCF94
:1037F000880F982BB9CF8091AB0280FFDBCF8091EF
:10380000AC0286951F928F9382E692E0CBCF0E9406
:10381000851BDECF08958091AC028695815009F416
:1038200084E261E00C94AC1B8091AC0286958F5FC2
:10383000853208F081E061E00C94AC1B9091AC0201
:1038400090FF07C09695981720F0961710F40C94E7
:10385000141C61E00C94AC1BCF92DF92EF92FF92AC
:103860006B017C010E945E1481110EC00E94AA08A7
:10387000C61AD70AE80AF90AC0927702D0927802EB
:10388000E0927902F0927A02FF90EF90DF90CF9071
:10389000089578941F921FB61F9211248F939F93BF
:1038A000AF93BF938091D4029091D502A091D6029C
:1038B000B091D7020196A11DB11D8093D4029093BF
:1038C000D502A093D602B093D702BF91AF919F913A
:1038D0008F911F901FBE1F9018951F921FB61F92A9
:1038E00011248F939F93AF93BF9380918D02811189
:1038F00013C08091D4029091D502A091D602B091CC
:10390000D7024196A11DB11D8093D4029093D50298
:10391000A093D602B093D702BF91AF919F918F91A0
:103920001F901FBE1F901895FF920F931F93CF9368
:10393000DF93D0918A020D2F10E006561D4FFC0137
:10394000C081F8018081C81BFC2E80E01F147CF030
:103950009C2FC7FD90E0C91BC11118C0882329F115
:10396000DF91CF911F910F91FF900C944D09FA9424
:10397000F80180818F5F80838AEADD2319F0D130DE
:1039800019F48BE40E946C1081E0E0CFCF5FF80166
:1039900080818150808389EADD2319F0D13019F4C8
:1039A0008EE40E946C1081E0D7CFDF91CF911F9100
:1039B0000F91FF900895E0919D02F0E0E656FD4FD3
:1039C0002081FC0120830895CF92DF92EF92FF9235
:1039D000843030F5811125C0909180009F779093BD
:1039E00080002D98282F30E0AFEFBFEF0E94CE323D
:1039F00023E030E040E050E00E949732C9012C37CC
:103A000064E13607A0F469E070E00E946F327093C1
:103A1000890060938800FF90EF90DF90CF90089529
:103A200083E090918000906890938000DBCF2A50D3
:103A3000374D4F4F5F4F942F832F722F662725EFFF
:103A400038E241E050E00E94973269017A01CA01F0
:103A5000B9010E9453329B01AC01C701B6010E941B
:103A60005332672F782F892F99276115710521E02F
:103A70008207910561F66FEF7FEFC9CF282F220FE4
:103A8000220F220F9091AA029770922B9093AA0274
:103A9000987F21E009F420E09091AA0220FB90F9A0
:103AA0009093AA020C94E41C0E943E1D8091AA02ED
:103AB0000C94360D8091AA0280FD1FC08160809316
:103AC000AA02813019F489E08093AA028091AA02A7
:103AD0000E94360D8091AB0280FF08C080E994E01F
:103AE0009F938F930E9412070F900F908091AA02CC
:103AF0008695869586950C94E41C08956AEE7EEF73
:103B000090E080E00E94293360E082E090E00E9433
:103B10000B3360E083E090E00E940B33109272025E
:103B200010927302109274021092750260E084E0A9
:103B300090E00E940B3360E082E290E00E940B3341
:103B400060E085E090E00E940B3360E086E090E06A
:103B50000E940B336FEF87E090E00E940B3340E050
:103B600050E0BA0188E090E00E941D3360E08DE0F3
:103B700090E00E940B3340E050E0BA0188E190E011
:103B80000E941D3360E087E190E00E940B3340E02B
:103B900050E0BA018CE190E00E941D3370E060E0DB
:103BA00080E290E00E94293340E050E0BA0188E1D1
:103BB00090E00E941D330E945A1D83E00E94541D14
:103BC00040E050E0BA018FE090E00E941D3340E0F9
:103BD00050E0BA0183E190E00C941D333F924F9284
:103BE0005F926F927F928F929F92AF92BF92CF928D
:103BF000DF92EF92FF920F931F93CF93DF9300D04A
:103C000000D00F92CDB7DEB78C01FC018381948187
:103C1000892B31F08081918189238F3F09F0FDC686
:103C20000F900F900F900F900F90DF91CF911F91F9
:103C30000F91FF90EF90DF90CF90BF90AF909F904B
:103C40008F907F906F905F904F903F9008950E946B
:103C5000630CF82E682F89819A810E941609698168
:103C60007A818F2D0E94D70A7C01F80182818823F6
:103C700009F4A6C6C70182519F45409708F015C6B2
:103C80008FEF93E00E94F732FEEEEF0E57EA852E9B
:103C900052E0952E882381F180916D02877009F49E
:103CA000BFCFF8018281882309F4BACF82E00F9058
:103CB0000F900F900F900F90DF91CF911F910F9168
:103CC000FF90EF90DF90CF90BF90AF909F908F903C
:103CD0007F906F905F904F903F900C94FE0D8114F9
:103CE00024E09206C9F2C4010E94F732811101C09A
:103CF000EA943FEF831A930AE110F1CF1C821B82F2
:103D0000442443944AE0342E74018FEFE81AF80AF1
:103D1000C4010E94F73289831A82882309F4BCCF38
:103D20009FEF980F933000F58A83498292E0890EC5
:103D3000911CC7010E94F7328B83882309F4ACCF12
:103D4000FE0131967F01F70120812223E9F2213023
:103D500009F049C091818281913041F4F2E0EF0E87
:103D6000F11C0E946C1009C04701EACF923049F45F
:103D700022E0E20EF11C0E94DD0F3FEFE31AF30A8E
:103D8000E2CF933031F432E0E30EF11C0E945A0E80
:103D9000F4CF943021F08FEFE81AF80AEECF92E0DA
:103DA000E90EF11C30E020E0B7016F5F7F4FF701B3
:103DB00041818053990B8A30910550F0215031098F
:103DC000E0F28FE99FE00197F1F700C00000F6CF25
:103DD000329EF001339EF00D11249C012E0F3F1FE7
:103DE000842F7B01E1CFE22FF0E0EE5AF84F5490A0
:103DF000822F86958695869590E0FC01EE5BF84FC4
:103E000064902770712C022E02C0759467940A94F6
:103E1000E2F7E1E06E227724FC01EE5CF84FA4901B
:103E2000B12C022E02C0B594A7940A94E2F7F1E0F7
:103E3000AF22BB24FC01EE5DF84FC490D12C02C030
:103E4000D594C7942A95E2F721E0C222DD246114BB
:103E5000710419F081EE0E94DD0FA114B10419F074
:103E600086EE0E94DD0F852D0E946C10AB2819F0A4
:103E700086EE0E945A0E672819F081EE0E945A0EB3
:103E8000CD2809F47ACF8CE26CCF81E00E941A0E23
:103E900003C081E00E94DB0D0E94BF0DFDCE82E0D9
:103EA000F5CF82E0F7CF2FEBE2162CE5F20609F40E
:103EB0008EC008F467C080ECE8168CE5F80609F0BF
:103EC00015C59091AA02892F8695869586958F5F54
:103ED0008F719770843008F0ADC0880F880F880FFD
:103EE000892B8093AA028091AA02887F91E009F42D
:103EF00090E08091AA0290FB80F98093AA020E9430
:103F0000360D8091AB0280FF37C08091AA02869562
:103F1000869586951F928F938BE298E025C083E06B
:103F20000E94541DB9CE8091AA02982F987F79F0F3
:103F300088508093AA02887F91E009F490E08091F4
:103F4000AA0290FB80F98093AA020E94360D80910C
:103F5000AB0280FF11C08091AA0286958695869556
:103F60001F928F9382ED97E09F938F930E94120789
:103F70000F900F900F900F908091AA0286958695D2
:103F8000869555C08091AA02982F969596959695FC
:103F9000933040F49F5F990F990F990F8770892B89
:103FA0008093AA028091AA0281608093AA020E9453
:103FB000360D8091AB0280FFDFCF8091AA028695FB
:103FC000869586951F928F938AEE97E0CDCFF090DD
:103FD000AA02F0FAFF24F0F88091AB0280FF2EC510
:103FE0001F92FF9285E198E09F938F930E941207A2
:103FF0000F900F900F900F90FF2009F421C5809132
:10400000AA0280FF49CE8091AA028E7F8093AA02E5
:104010000E94360D8091AB0280FF08C082E098E0DC
:104020009F938F930E9412070F900F9080E00E9441
:10403000E41C32CE9093AA0256CF27E245EE65EEFD
:10404000E8C426E241EE60EEE4C427E245EE64EE09
:10405000E0C426E241EE62EEDCC428E241E0EFCFAC
:1040600080917B02806136E0E3163CE5F30609F4BB
:1040700092C008F497C080917B0280628CC08091CE
:104080007B028D7F9CE0E9169CE5F90609F483C06C
:1040900078F480917B028C60FAE0EF16FCE5FF0675
:1040A00009F479C008F48AC080917B028E7F73C0C6
:1040B00080917B02877F3EE0E3163CE5F30609F43E
:1040C0006AC008F481C080917B028F7E64C09BEF40
:1040D000E9169CE5F90609F469C068F5F3E1EF1605
:1040E000FCE5FF0609F480C090F431E1E3163CE5FD
:1040F000F30609F475C082E1E8168CE5F80609F0CC
:104100004FC40E94051680917B028F7744C095E1D1
:10411000E9169CE5F90609F46FC008F483C08091A4
:104120007C028160FAEFEF16FCE5FF0609F038C467
:1041300080937C0235C42FEFE2162CE5F20609F4D9
:1041400057C090F48DEFE8168CE5F80609F440C0EE
:1041500080917C028E7F9EEFE9169CE5F90640F384
:1041600080917C028360E4CFE1E0EE16EDE5FE068F
:1041700009F461C008F44CC060E022E0E2162DE5CD
:10418000F20609F00DC48EE090E00E940B3308C4E3
:1041900080917B02816080937B0202C480917B02CC
:1041A0008460F9CF80917B028860F5CF80917C029A
:1041B0008260BECF80917B028064EDCF0E940516A5
:1041C00080917B028068E7CF80917B028B7FE3CF79
:1041D00080917C028D7FACCF80917B028F7DDBCF85
:1041E00080917B028F7BD7CF80917B02837FD3CF5F
:1041F00080917C028C7F9CCF80917B0282FB9927EF
:1042000090F921E0922790FB82F990FB83F9C3CFCC
:1042100080917C02982F909591708E7F892B90FBD6
:1042200081F986CF0E94051690917B02892F97FB1A
:1042300087F98058B0CF61E0A6CF36E1E3163CE5C0
:10424000F30609F000C4809170028A7A91E009F4C3
:1042500090E090930202811106C089E20E94D50885
:104260000E943B0D19CD85E3F9CF85E320C5816020
:104270008093AC028091AB0280FF0DC01F9281E061
:104280008F9387E798E09F938F930E9412070F9078
:104290000F900F900F908091AC0261E086950E9484
:1042A000AC1BFACC4BE05CE164E17CE10E94870945
:1042B000F3CC44E15CE16BE07CE1F8CF43EC55E109
:1042C0006AEB75E1F3CF42EA55E16EEA75E1EECFB4
:1042D0004AE855E166E975E1E9CF46E955E16AE862
:1042E00075E1E4CF4DED55E16CEC75E1DFCF61E0B8
:1042F00081E0D5CF65E082E00E941E1CCDCC68E055
:1043000086E0FACF64E18FE0F7CF67E185E1F4CF93
:1043100062E289E1F1CF61E083E2C1CF0E9405163C
:10432000FFEF24E33CE0F15020403040E1F700C0D3
:1043300000000E94B90F85EE98E0A3C30E947E1D85
:10434000ABCC80917C0282FB882780F991E08927A1
:104350000E94B00EF8018281E080F180882309F488
:104360003DC0C7010E94630CD82E682FC7010E9470
:104370001609B7018D2D0E94E40A7C01882EF801F0
:10438000D280A580A2943FE0A32280916D02877025
:10439000A1F0CD2CDD2091F08F2D807F803421F095
:1043A00080E28E0D883048F082E00E94FE0D809100
:1043B0006D028770CC24C3948111C12C3F2C3294A0
:1043C0002FE03222FBE0F31508F444C0E32DF0E0C7
:1043D000EA59FC4C0C94B93280E0BACFC7010E9474
:1043E000EE08D82EC6CF2F2D2F70A22E8F2D807FB6
:1043F00019F0A29490EFA922DD20C9F0AA2069F05B
:1044000080E28E0D883010F081100BC08091700218
:10441000A82AA09270020E943B0D8E2D0E94DD0FF3
:1044200019C080916F02A82AA0926F02F4CF8E2D3E
:104430000E945A0EAA2071F0A09480E28E0D88305E
:1044400010F081103DC080917002A822A0927002ED
:104450000E943B0D232D2850330B2430310510F4DE
:104460000E947B09CC2009F4DBCB80916D0280FD9A
:10447000D7CBF80112828595859585950E941A0EF5
:10448000C8010E94EE1D80916D02859585958595E8
:104490000F900F900F900F900F90DF91CF911F9181
:1044A0000F91FF90EF90DF90CF90BF90AF909F90D3
:1044B0008F907F906F905F904F903F900C94DB0DAA
:1044C00080916F02A822A0926F02C2CF3F2D3F7051
:1044D000932E8F2D807F803219F0929480EF982256
:1044E000882071F081E0881681F1DD20D9F1AA20C1
:1044F00091F1F801858180FF90CF8F7085832BC06B
:10450000DD20B1F090917102892D892BA11003C09B
:104510000E94500E9FCFE1E0AE12FACF20917C02B4
:1045200022FD98CF981709F495CF8093710292CF0E
:10453000A11006C00E94C208892D0E94450E8ACF94
:10454000F1E0AF1609F486CFF5CFDD2031F025E09C
:104550002A1508F47FCF892DDBCF34E03A1508F413
:1045600079CFEACFAA2041F3F9E38F1209C02FEFE8
:1045700037EE83E0215030408040E1F700C000007A
:104580008E2D0E945A0E66CF8F2D8695869583704C
:1045900061F0813009F05ECFC7019370D11002C085
:1045A00090E080E00E944F0955CFC7019370D11071
:1045B00002C090E080E00E9465094CCF8F2D83708F
:1045C00009F066C0D11046CF8E2D829586958770F2
:1045D000880F880F6E2D6F70462E512C712C612C18
:1045E000082E04C0440C551C661C771C0A94D2F794
:1045F00040E050E0BA01E4FE0FC04FE050E060E060
:1046000070E004C0440F551F661F771F8A95D2F7CC
:1046100040955095609570958F2D86958695837001
:10462000823019F1D8F48090720290907302A090B9
:104630007402B0907502813069F0442955296629C9
:104640007729CB01BA01682179218A219B210E9417
:104650003B0E00CF482859286A287B28CB01BA0195
:104660006429752986299729F2CF44295529662975
:10467000772940907202509073026090740270909B
:104680007502CB01BA016425752586259725DFCFF4
:104690008695DD2011F08F2D8170882309F4DACE04
:1046A0008E2D829586958770880F880F6E2D6F707E
:1046B000462E512C712C612C082E04C0440C551C24
:1046C000661C771C0A94D2F740E050E0BA01E4FE81
:1046D0000FC04FE050E060E070E004C0440F551F91
:1046E000661F771F8A95D2F7409550956095709513
:1046F0008F2D869586958370823019F1D8F480903D
:10470000DB029090DC02A090DD02B090DE028130EE
:1047100069F04429552966297729CB01BA01682116
:1047200079218A219B210E94B50D94CE48285928D1
:104730006A287B28CB01BA01642975298629972923
:10474000F2CF44295529662977294090DB02509001
:10475000DC026090DD027090DE02CB01BA016425BC
:10476000752586259725DFCF9F2D9F70F92EDD209B
:1047700029F0892F0E941A0E8E2DCACE8E2D0E94EE
:10478000450E8F2D0E94DB0D65CE8E2DE2EF8E162D
:1047900009F457C0E81578F0F0EF8F1649F121EFD2
:1047A000821609F446C0DD2009F46FC0A11035CE91
:1047B0008F2D8F7143C033EF831609F447C094EFF8
:1047C0008912F1CFDD2009F455C02F2D2F71F22E63
:1047D000822F0E941A0E80917C0282FD07C038E071
:1047E000F39EC0011124836080936D028F2D26C03B
:1047F000DD20D1F0E4E0EA1508F42CCE2F2D2F7146
:1048000061E070E080E090E004C0660F771F881FD1
:10481000991F2A95D2F74090DB025090DC026090FD
:10482000DD027090DE029BCFF5E0FA1508F412CE9F
:10483000E5CF8F2D8F71DD2009F4A4CF0E941A0ED1
:1048400009CE8F2D8F71DD20C9F39CCF60E070E021
:10485000CB01DD2009F467CF2F2D2F7161E070E0CF
:1048600080E090E004C0660F771F881F991F2A958B
:10487000D2F759CF81E00E94FE0D81E08A1508F041
:10488000E9CD82E00E94FE0DE5CDAA2059F08933E2
:1048900009F076CE9FEFE7EEF3E09150E040F04074
:1048A000E1F76CCE8F2D8F716DCFF0E1EF16FFE544
:1048B000FF0609F4EACA21E1E2162FE5F20609F43F
:1048C000EECA8DEBE8168CE5F80609F42CCB08F05F
:1048D000EACAEBEBEE16ECE5FE0609F420CB80E02D
:1048E000FCEBEF16FCE5FF0609F41ACB83EFE816A4
:1048F0008CE5F80609F4A5CB08F0DCC1E8EDEE166E
:10490000ECE5FE0609F499CBF9EDEF16FCE5FF06A0
:1049100009F4A3CB27EDE2162CE5F20609F476C0E4
:104920001092DA0292E0E9169CE5F90608F485CCCB
:10493000E6E1EE16ECE5FE0630F0C7018A5F9C4525
:10494000099708F07ACC0E94A30A90937C02809386
:104950007B02F0E1EF16FCE5FF0609F43DCC08F020
:10496000B6CB38E0E3163CE5F30609F423CC08F0B7
:1049700086CB94E0E9169CE5F90609F40FCC08F023
:104980006FCBF2E0EF16FCE5FF0609F401CC809155
:104990007B02826023E0E2162CE5F20609F4FBCBF1
:1049A00060917B02F0907C0284E090E00E940B33E7
:1049B0006F2D82E290E00E940B330E9405166CC9B5
:1049C00030E1E3163FE5F30609F463CA81E1E81636
:1049D0008FE5F80609F465CA23EFE2162CE5F20626
:1049E00009F42FCB08F04BC188EDE8168CE5F806EA
:1049F00009F423CB99EDE9169CE5F90609F42DCBD2
:104A0000E7EDEE16ECE5FE0609F046C126E241EEC2
:104A100061EEC8010E9489103FC985E0DE01119650
:104A200001900D928A95E1F7F801228189819A819E
:104A300021110DC90E94EE08F82E11C9F110E3CA28
:104A40000E945A1D29C92EEDE2162CE5F20609F442
:104A500075CCD0F4E1148CE5F80609F45FCC91E054
:104A6000E9169CE5F90609F075CC9091AB02892F07
:104A70008E7F90FF81608093AB0280FF5CCC87EFDC
:104A800098E00E94790608C9EBE5EE16EDE5FE0612
:104A900009F4A2CCFCE5EF16FDE5FF0609F451CCC4
:104AA0002AE5E2162DE5F20609F054CC81E050CC5F
:104AB0008091700282723CECE3163CE5F30609F447
:104AC00011CC08F09BC0E6ECEE16ECE5FE0609F40E
:104AD000F5CB08F06AC023ECE2162CE5F20609F4E7
:104AE000E1CB08F051C082ECE8168CE5F80609F03D
:104AF00031CC8091AB0280FF10C08091AC028095D8
:104B000081701F928F938EEA98E09F938F930E94FB
:104B100012070F900F900F900F908091AC0280FFC2
:104B2000A6CB8E7F8093AC026091AC027091AD02F7
:104B30008091AE029091AF020E9481148091AB02ED
:104B400080FF0FC08091AC0281701F928F938FE322
:104B500098E09F938F930E9412070F900F900F90F1
:104B60000F900E94DC0E80919902816080939902DF
:104B70008FEF90E7E2E081509040E040E1F700C025
:104B800000000E94F81088C894ECE9169CE5F9062C
:104B900009F48FCB4AEB55E163EC75E1E5ECEE16D9
:104BA000ECE5FE0609F482CBD5CBF9ECEF16FCE57B
:104BB000FF0609F48DCB88F437ECE3163CE5F306E9
:104BC00009F481CB4EEA55E162EA75E198ECE91609
:104BD0009CE5F90609F46ACBBDCBEAECEE16ECE5F0
:104BE000FE0609F47ACB4CEC55E16DED75E1FBEC7A
:104BF000EF16FCE5FF0609F459CBACCB21EDE2162C
:104C00002CE5F20609F47ECBB8F48EECE8168CE5C0
:104C1000F80609F46FCB08F46ACBEFECEE16ECE57E
:104C2000FE0609F46CCB6EE089E0F0EDEF16FCE5D2
:104C3000FF0609F461CB8ECB24EDE2162CE5F206DB
:104C400009F466CB78F482EDE8168CE5F80609F4F1
:104C50005CCB61E088E193EDE9169CE5F90609F487
:104C60001ECB78CBE5EDEE16ECE5FE0609F453CB52
:104C7000FDE5EF16FF0611F40C944C1E6BCBF5EF1F
:104C8000EF16FCE5FF0609F4E4C908F4DEC936EFC7
:104C9000E3163CE5F306E1F0F6E1EF16FCE5FF066E
:104CA00009F006CF809102028111DFCA89E20E94D9
:104CB000C808D6CA35EFE3163CE5F30609F4C9C9BE
:104CC00008F4C3C996EFE9169CE5F90609F028CE69
:104CD00027E245EE66EE9DCE1F93CF93DF93809142
:104CE0000802807FA9F480910502882389F08091D1
:104CF0003A02D09109026091030270910402A091DE
:104D00000602B0910702C62FC72316E0D81304C0CD
:104D1000DF91CF911F91089590E0109711F0CF3F50
:104D200019F401968770F2CF189F9001199F300DEA
:104D30001124F901E65FFD4F41814713F2CF408115
:104D40004613EFCF42814111ECCF438154814A1B7E
:104D50005B0B483C510528F7809108028F708061F9
:104D600080930802F901E15FFD4F80818F708061BF
:104D7000808383E092E00E94EE1DDF91CF911F912E
:104D80000C944309AF92BF92CF92DF92EF92FF92C1
:104D90000F931F93CF93DF93CDB7DEB761970FB615
:104DA000F894DEBF0FBECDBF8C0185E0F801DE01B7
:104DB0001D9601900D928A95E1F7F801808191810D
:104DC000E28023E0A22E22E0B22E609106027091D2
:104DD00007026115710509F43EC13091030240914B
:104DE0000402232F24232F3F09F435C1C380D4802C
:104DF000F0900502F601E61BF70BFF2009F4FBC05B
:104E000020910802522F507FE83CF10508F0BBC00A
:104E1000511178C0FE2C491321C038131FC0E11076
:104E20001DC02F70206120930802C5010E94EE1D55
:104E300080910802F80185838F2D61960FB6F89452
:104E4000DEBF0FBECDBFDF91CF911F910F91FF90BD
:104E5000EF90DF90CF90BF90AF900895CD2829F0CC
:104E6000282F29232F3F09F014C120E0F22FF170E1
:104E7000DF2E20FF3DC020913A024091090256E00A
:104E8000241315C08D879E878D859E850E94A50C55
:104E9000292F22952F702230F8F0243020F59F70B2
:104EA000F9F0F8019581907FD9F4D12C1FC030E042
:104EB000529FF001539FF00D1124E65FFD4F618179
:104EC000961306C06081861303C06281E61210C08B
:104ED0002F5F3F4F2770D4CF9F7011F0882329F3A5
:104EE000805E883010F3C8010E94EE1DFD2CA4CF17
:104EF000EE2009F4A1CF809108028160809308021E
:104F0000F12C9ACF491312C0381310C0E1100EC013
:104F1000F8012583C8010E94EE1D86E0F801A3E098
:104F2000B2E001900D928A95E1F786CF8D879E873A
:104F30008D859E850E94AF0C882309F1EE20F9F043
:104F400080910802803270F02091030230910402B7
:104F500038872F831986DB86CA868C87CE01079611
:104F60000E94EE1D86E0F801A3E0B2E001900D92F0
:104F70008A95E1F70E946C26FF24F3945DCFC80167
:104F80000E94EE1DF9CF51110AC083E092E00E9409
:104F9000EE1D86E0F50111928A95E9F7B1CF49132C
:104FA0000FC038130DC0E1100BC0F8012583C801F4
:104FB0000E94EE1D86E0F50111928A95E9F73CCF3B
:104FC0008D879E878D859E850E94AF0C8823B9F2C0
:104FD000EE20A9F280910802803220F22091030293
:104FE000309104023A8329831B82DD82CC828E8336
:104FF000CE010196B5CFE83CF105E0F6FE2CEE209F
:1050000009F4BDCF491316C0381314C080910802AB
:1050100080FD83CF982F907F09F47FCFF80185839F
:10502000903F09F477CF982F907F905F8F70892BF6
:10503000858370CF8D879E878D859E850E94AF0C5E
:10504000811190CF80910802816080930802C8018D
:105050000E94EE1DF1CEEE2009F491CF8D879E8740
:105060008D859E850E94AF0CF82E882309F487CF8A
:1050700086E0F801A3E0B2E001900D928A95E1F795
:1050800080910302909104020E94A50C0E946C265C
:10509000D3CE21E02E25EACE1F93CF93DF93CDB759
:1050A000DEB767970FB6F894DEBF0FBECDBF342FC3
:1050B0004B8B252F5C8B6D8B7E8B8F8B8E899F8985
:1050C000611110926F021A8A198A3D872E876F87A5
:1050D000998B888B86E0FE013D96DE011796019044
:1050E0000D928A95E1F7CE0107960E94C226882389
:1050F00089F016E080913A0290910902891349C023
:1051000067960FB6F894DEBF0FBECDBFDF91CF918B
:105110001F91089586E0FE013796DE0111960190F9
:105120000D928A95E1F78A859B85892B11F38F81F2
:10513000988589238F3FE9F22091090230E0C90167
:1051400001968770992740913A024817190671F421
:105150000E9405161092090210923A0286E0E3E0DE
:10516000F2E0DF011D928A95E9F7C3CF96E0929FA6
:10517000D001939FB00D1124A65FBD4FFE01319663
:1051800001900D929A95E1F7809309020E944309DC
:10519000B0CF819FC0011124865F9D4F0E94C2261F
:1051A000882309F4ADCF80913A0290E00196877090
:1051B000992780933A029ECF90E080E00E940533C9
:1051C0008A3E9E4F51F00E947E1D8091AA028470FB
:1051D00089618093AA020E94360D86E090E00E94C9
:1051E000F7328093AA02803220F087708861809322
:1051F000AA029091AA02892F817090FF04C0892F82
:105200008695869586950C94E41CCDB7DEB7AC9751
:105210000FB6F894DEBF0FBECDBF84B7877F84BFC3
:105220000FB6F894A8958091600088618093600023
:10523000109260000FBE80E890E00FB6F894809363
:105240006100909361000FBE85B7806885BF85B708
:10525000806885BF80EF9EE09093BD018093BC0184
:105260000E941B070E94E6078091E2008460809301
:10527000E20078948091CA028823A1F01091E9009D
:105280001F709091EC00892F817090FD80E8182BA1
:105290001092E9008091E80083FD0E9410161F70B3
:1052A0001093E90082E084BD93E095BD9AEF97BD2D
:1052B00080936E0010927702109278021092790219
:1052C00010927A0287988F988FB1881F8827881F3D
:1052D0008093130180911301882309F479C01092FF
:1052E0000E0188E080930F010E945E1481110E94DC
:1052F0000930809113018091130195E0811190E0B4
:105300009093880285E0891B8093870281E30E9445
:10531000310A82E30E94310A87E60E94310A84E35F
:105320000E94310A87E90E94310A0FE811E047E93B
:10533000E42E41E0F42EF80181918F010E94310AA0
:10534000E016F106C1F7EDE7F2E087E892E0A1EBA5
:10535000B2E011921D928E179F07D9F790E080E07E
:105360000E9405338A3E9E4F11F00E947E1D82E00E
:1053700090E00E94F7328093AB020E94A30A9093C0
:105380007C0280937B020E94DC188FE39CE90197EA
:10539000F1F700C000000E94DC188091B10280FF8C
:1053A0001BC06FEF83E290E00E940B336FEF84E24B
:1053B00090E00E940B336FEF85E290E00E940B3388
:1053C0006FEF7FEF90E080E00E9429330E94B90FD9
:1053D00088E080930E0186CF83E090E00E94F73250
:1053E000682F70E090E080E00E943B0E259A2D9897
:1053F00082E88093800089E1809381008FEF9FEFA6
:1054000090938700809386000E94DC280E945E149F
:10541000811102C00E940F3083E290E00E94F732B7
:10542000813209F083C584E290E00E94F732873030
:1054300009F07CC585E290E00E94F732843209F0E1
:1054400075C50E94DC28809189028111EAC0809193
:10545000AB0280FF14C089E79AE09F938F930E946C
:1054600012078091AB020F900F9080FF08C083E677
:105470009AE09F938F930E9412070F900F9090E0F5
:1054800080E00E9405338A3E9E4F81F08091AB02FE
:1054900080FF08C08BE39AE09F938F930E941207CE
:1054A0000F900F900E947E1D0E94EE1588E090E004
:1054B0000E94FF326093AC027093AD028093AE0203
:1054C0009093AF02809199028360809399026E7FDE
:1054D000D1F48091AB0280FF08C082EF99E09F93E6
:1054E0008F930E9412070F900F900E94EE1588E094
:1054F00090E00E94FF326093AC027093AD02809303
:10550000AE029093AF020E948C098091AB0280FFA3
:1055100076C089ED99E09F938F930E941207809146
:10552000AB020F900F9080FF6AC08091AC02817037
:105530001F928F938CEB99E09F938F930E94120799
:105540008091AB020F900F900F900F9080FF57C08B
:105550008091AC0286951F928F9381EA99E09F9388
:105560008F930E9412078091AB020F900F900F90C3
:105570000F9080FF44C08091AD021F928F9387E807
:1055800099E09F938F930E9412078091AB020F9036
:105590000F900F900F9080FF32C08091AE021F924B
:1055A0008F938DE699E09F938F930E9412078091CD
:1055B000AB020F900F900F900F9080FF20C0809152
:1055C000AF021F928F9383E599E09F938F930E9480
:1055D00012078091AB020F900F900F900F9080FFF9
:1055E0000EC08091B0021F928F9387E399E09F9342
:1055F0008F930E9412070F900F900F900F901092B0
:105600009802809199028460809399028091AC0203
:1056100080FF04C060E086950E94AC1B81E080930F
:10562000890285988D9A86988E9A8FB185FB8827F6
:1056300080F97E9962C090E0892B80939E029091C0
:10564000130181E0982790939D02891B80938A0221
:1056500084E191E090938C0280938B0283E69BE03F
:105660000E94790681EB92E0FAE0F80FFCA78091A6
:10567000CA02853081F48FE59BE00E94790600E143
:1056800012E18091CA028530D1F10E9405160E9474
:10569000DC280E947B090E94DC1881110E94AA0864
:1056A00090EA492E92E0592E21EB622E22E0722ED2
:1056B00010E000E03AE9C32E3AE0D32E0BA7F30145
:1056C00031903F01F20121902F01231053C00F5F51
:1056D0001F4F0A30110591F78FEF8EA38FA318A6E5
:1056E0000E94B6088160782F9AA789A74EA15FA172
:1056F00068A58AA50E944C2867C092E09DCF809142
:10570000CA02843039F180E00E94E41C10928D02BC
:1057100048E150E080E40FB6F894A895409360000B
:105720000FBE8093600083B7817F846083BF83B79F
:10573000816083BF7894889583B78E7F83BF0FB6CF
:10574000F894A89580916000886180936000109221
:1057500060000FBE8091C902882309F492CF0E9495
:10576000DC18E1EBF2E081918111CAC39CA59E1384
:10577000FACF87CF8091AB0281FD49C12324E12C70
:10578000FF24F394822D8F2109F473C10E945E14CB
:105790008823A1F0E9A22BA52AA33F2081E009F4E8
:1057A00080E08BA30E94B6088160782F9DA38CA314
:1057B00049A15AA16BA18DA10E944C28F801E05685
:1057C000FD4F8081F826F08280919802882309F4A9
:1057D00076C080919702E091AC02E695E81BE093D9
:1057E0009302823009F04BC1F0E0EB51F54FE491A8
:1057F0000E2F10E0B3E1CB2EB4E1DB2E80919402AA
:10580000882361F0109294020E947C1B9093920274
:105810008093910210929602109295020E947C1B36
:105820002091910230919202FC01E21BF30B9F0147
:105830002F3F3F4708F043C020919002222311F1EF
:105840001092900220918E0230918F02821B930B56
:105850008F3F9F47B8F4205D3A4830938F022093E2
:105860008E028091AB0280FF08C08EEA9AE09F937F
:105870008F930E9412070F900F9080919902886079
:1058800080939902E0909502F0909602E091910247
:10589000F09192020E0F1F1F10939202009391023B
:1058A00081E992E0F6010995809195029091960226
:1058B000892B29F4EF2819F081E080939002E09180
:1058C0009E02EE0FEE0FE0939E028FB185FBAA249D
:1058D000A0F87E992EC180E08A29E82BE0939E02F1
:1058E00010919D02EF70F0E0E956FE4F808190919B
:1058F0009C02890F80939C0220E0843084F0E12F89
:10590000F0E0E656FD4F80818F5F80838AEA1123A5
:1059100019F0113019F48BE40E946C1021E0809191
:105920009C028D3F84F4E12FF0E0E656FD4F80812C
:105930008150808389EA112319F0113019F48EE423
:105940000E946C1021E080919C02082E000C990BA3
:1059500064E070E00E94833280939C0221110E94D7
:105960004D090E947B0990919F02891739F10E948D
:105970007B09182F80939F028091AB0282FF1EC08B
:1059800080FF1CC080EF9AE00E9479068091AB02F4
:1059900080FF14C01F921F938BEE9AE09F938F930A
:1059A0000E9412078091AB020F900F900F900F9002
:1059B00080FF04C089EE9AE00E9479068091CA02B5
:1059C000843009F054CE83E08093E9008091E800B0
:1059D00082FF4DCE8091E80090E085FF06C00E94D6
:1059E0003A07882309F4A8C091E08091E8008B77FA
:1059F0008093E800992309F43ACEE981E150E3313C
:105A000008F00CC1F0E0EE58FC4C0C94B9328FE970
:105A10009AE00E94790681EB882E82E0982EF12C84
:105A2000E12CFF92EF92DF92CF920E94120787E95A
:105A30009AE00E947906F40181914F010E948B0A3D
:105A40001F928F9342E95AE05F934F930E9412078F
:105A500080E99AE00E9479069FEFE91AF90A0FB6E9
:105A6000F894DEBF0FBECDBFFAE0EF16F104C9F621
:105A700085CEE394FF0C48E0E41284CE28CE863035
:105A800059F4F0E0EE51F54FE4910E2F10E0A7E24B
:105A9000CA2EA4E1DA2EB2CE893061F4E695F0E0A8
:105AA000E152F54FE4910E2F10E0FBEBCF2EF1E128
:105AB000DF2EA4CE8F3061F4E695F0E0E452F54F8E
:105AC000E4910E2F10E0E8EFCE2EE1E1DE2E96CE2F
:105AD000853159F4F0E0E752F54FE4910E2F10E0D4
