:100000000C94B0030C9463190C94F7030C94F7034D
:100010000C94F7030C94F7030C94F7030C94F70378
:100020000C94F7030C94F7030C94D82D0C94AC2E7D
:100030000C942F270C94F7030C94F7030C94F703FC
:100040000C94F7030C94F7030C94F7030C94F70348
:100050000C94F7030C94A1270C94F7030C94F7036A
:100060000C94F7030C94F7030C94F7030C94F70328
:100070000C94F7030C94F7030C94F7030C94F70318
:100080000C94F7030C94F7030C94F7030C94F70308
:100090000C94F7030C94F7030C94F7030C94F703F8
:1000A0000C94F7030C94F7030C94F70329001E003B
:1000B0001F002000210022002B0014001A0008005D
:1000C00015001700E00004001600070009000A00F0
:1000D000E1001D001B0006001900050000000000E3
:1000E000E300105F28004A002A00270026002500B0
:1000F000240023004C00130012000C0018001C0008
:10010000340033000F000E000D000B00E500380036
:10011000370036001000110000000000E200115FFF
:100120002C004D0035021E021F0220022102220275
:10013000005C1E001F002000210022004C00010076
:1001400050004F0052002F00C05C01000100010070
:1001500051002F0200000000010001004C002602A7
:100160002A0027022602250224022302010027007A
:10017000260025002400230031022E025E005D00CF
:100180005C00300001002D005B005A005900300275
:1001900000000000620001004C00270245003A0008
:1001A0003B003C003D003E00C25C1E021F022002DC
:1001B00021022202C35CAC00AB00A9004B002D025F
:1001C000A800AD00AE00AA004E002D000000000007
:1001D00001000100010026024400430042004100EA
:1001E00040003F00010027022602250224022302CC
:1001F0003100C95CC75CC55C4A002E000100CA5CC6
:10020000C85CC65C4D002E02000000000100010029
:1002100001000100010001000100010001000100D6
:1002200001000100010001000100010001000100C6
:1002300001000100010001000100010001000100B6
:1002400001000100000000000100010001000100A8
:100250000100010001000100010001000100010096
:100260000100010001000100010001000100010086
:100270000100010001000100010001000100010076
:10028000000000000100010001000100000000006A
:10029000000000002A2B28000000000000000000E1
:1002A0000000000000000029000000002C1E342087
:1002B000212224342627252E362D3738271E1F20AD
:1002C0002122232425263333362E37381F040506F2
:1002D0000708090A0B0C0D0E0F1011121314151636
:1002E0001718191A1B1C1D2F3130232D3504050634
:1002F0000708090A0B0C0D0E0F1011121314151616
:100300001718191A1B1C1D2F3130354C0000000026
:1003100000000000000000000000000000000000DD
:1003200000000000000000000000000000000000CD
:1003300000000000000000000000000000000000BD
:1003400000000000000000000000000000000000AD
:10035000000000000000000000000000000000009D
:10036000000000000000000000000000000000008D
:10037000000000000000000000000000000000007D
:10038000000000000000000000000000000000006D
:10039000000000000000000000000000000000005D
:1003A000000000000000000000000000000101014A
:1003B0000101010001010101000000000000000036
:1003C0000000000000000100010001010101010125
:1003D000010101010101010101010101010101010D
:1003E0000101010101010100000001010000000004
:1003F00000000000000000000000000000000000FD
:1004000000000000000000010101010000047F3F26
:100410001F643214643214783C1E1E140A05222311
:10042000252628292A2C2D2F3032333536383A3BD1
:100430003D3E4042434547494A4C4E505153555723
:10044000595A5C5E6062646668696B6D6F71737542
:1004500077797B7D7F81838587898A8C8E90929442
:1004600096989A9C9E9FA1A3A5A7A8AAACAEAFB14F
:10047000B3B4B6B8B9BBBCBEBFC1C2C3C5C6C7C999
:10048000CACBCCCDCED0D1D2D2D3D4D5D6D7D7D853
:10049000D9D9DADADBDBDBDCDCDCDCDCDDDDDDDDA5
:1004A000DCDCDCDCDCDBDBDBDADAD9D9D8D7D7D6AD
:1004B000D5D4D3D2D2D1D0CECDCCCBCAC9C7C6C564
:1004C000C3C2C1BFBEBCBBB9B8B6B4B3B1AFAEACAA
:1004D000AAA8A7A5A3A19F9E9C9A98969492908E55
:1004E0008C8A89878583817F7D7B79777573716F2E
:1004F0006D6B6968666462605E5C5A59575553510A
:10050000504E4C4A4947454342403E3D3B3A3836BF
:10051000353332302F2D2C2A292826252322FFAAD5
:100520007F554000010101010101010101020202A8
:10053000020202020202030303030303030304048F
:100540000404040404050505050506060606060759
:100550000707070708080808090909090A0A0A0B12
:100560000B0B0C0C0C0D0D0D0E0E0E0F0F0F1010B3
:10057000111111121213131414151516161717183A
:100580001819191A1A1B1B1C1D1D1E1E1F202021A5
:100590002222232424252626272829292A2B2C2DEC
:1005A0002D2E2F30313232333435363738393A3B0D
:1005B0003C3D3E3F404142434445464748494A4C02
:1005C0004D4E4F50515354555658595A5B5D5E5FCE
:1005D000616264656668696B6C6D6F707273757764
:1005E000787A7B7D7E8082838587888A8C8E8F91C6
:1005F000939596989A9C9EA0A2A3A5A7A9ABADAFF0
:10060000B1B3B5B7BABCBEC0C2C4C6C9CBCDCFD1D9
:10061000D4D6D8DBDDDFE2E4E7E9EBEEF0F3F5F882
:10062000FAFDFF0403300000001C0349007200695A
:1006300000730020004B006500790062006F0061CC
:10064000007200640000000E034B0065006500624C
:100650000069006F0000000403090409025B000345
:100660000100A0FA090400000103010100092111A1
:100670000100012240000705810308000A09040265
:1006800000010300000009211101000122360007CA
:1006900005840320000A0904010002030000000988
:1006A0002111010001222200070582032000010719
:1006B000050303200001120110010000000810CB07
:1006C00056120004010203010660FF0961A101093D
:1006D00062150026FF009520750881020963150048
:1006E00026FF00952075089102C005010980A1012F
:1006F00085031A81002A8300160100260300950154
:1007000075108100C0050C0901A10185041A0100C2
:100710002A9C02160100269C02950175108100C0DA
:1007200005010906A101050719E029E715002501C2
:100730009508750181029501750881010507190069
:1007400029FF150026FF0095067508810005081988
:10075000012905950575019102950175039101C067
:1007600011241FBECFEFDAE0DEBFCDBF04B603FE1B
:1007700027C08091A0029091A102A091A202B09105
:10078000A3028730904BA740B04BD1F41092A00247
:100790001092A1021092A2021092A30214BE84B77A
:1007A000877F84BF0FB6F894A89580916000886118
:1007B00080936000109260000FBEE0E0F8E30995BE
:1007C00011E0A0E0B1E0E2EEF2E602C005900D9289
:1007D000AA38B107D9F722E0AAE8B1E001C01D921A
:1007E000A03AB207E1F70E94872A0C9434310C94A6
:1007F000000082E290E00E94FA308F31954459F473
:1008000084E290E00E94EC3091E0883009F090E0C2
:10081000892F8170089580E0FCCFCF93C82F6FEFB0
:100820007FEF882311F06FE175E482E290E00E948F
:100830001E316FEFC11168E084E290E0CF910C941B
:10084000003180E00E940D040C94E5251F93CF93A6
:10085000DF93EC01162FE881E150E33108F08CC002
:10086000F0E0EA5CFE4C0C94B830198288E08A8390
:10087000612FCE01DF91CF911F910C947B2989814B
:10088000813009F079C00E946B270E94BE306A83D4
:100890007B838C839D83ECCF4B816A8189810E940D
:1008A00089169827892798279D838C83E1CF2C81EF
:1008B0003D813227232732274B816A8189810E941B
:1008C000A216D6CF0E94B716D3CF0E944C178983A9
:1008D000CFCF0E944E179827892798279A8389831C
:1008E000C7CF6B8170E089819A81AE014C5F5F4F09
:1008F0009827892798270E945117BACF6B8170E0FB
:1009000089819A81AE014C5F5F4F9827892798278C
:100910000E947817ADCF0E94A317AACF0E94771626
:10092000D6CF6B8170E089819A81AE014C5F5F4FB9
:100930009827892798270E94EF169ACF6B8170E03D
:1009400089819A81AE014C5F5F4F9827892798274C
:100950000E9415178DCF0E9421048ACF0E947B2907
:100960002FEF81EE94E0215080409040E1F700C0ED
:1009700000000E94C5277CCF8FEF888379CF0E942B
:10098000F903811107C00E94B7160E94A31781E0E6
:100990000C940D0408950E94BF0D8FE19EE4019711
:1009A000F1F700C000008FE19EE40197F1F700C06D
:1009B00000000E94BF0D80E00E94700C80FF04C008
:1009C0000E9421040C94C52708950E94CB040E9424
:1009D000BF040C946D0C0C946E0CFB0122818031D1
:1009E000FFE59F0781F081313FE59307C1F02223A6
:1009F000D9F09C0122513F4520313105A8F48251A4
:100A00000E94B3170AC081E0222359F00E94AE234E
:100A100043E062E081E00E94600680E0089582E0A9
:100A2000F3CF0E94CF23F4CF0C946A059C013F5072
:100A30002F3F310509F058F49C013327A901415398
:100A400051094230510518F4C901986F0895FC010D
:100A5000EE0FFF1FE45FFB4F859194910895CF93B4
:100A6000DF93EC01262F2153330B22303105C8F4DC
:100A70008A818823C9F082E0613309F481E00E9411
:100A8000AE238D81982F907F49F080FD07C0803381
:100A900040F083E0DF91CF910C94F2238D818F7031
:100AA0008D83DF91CF91089582E0613309F481E075
:100AB000DF91CF910C94CF2308950895089581116B
:100AC00006C08EE4611101C08BE40C94001D0895F2
:100AD00081E0089581E008951F93CF93DF9300D0C4
:100AE00000D00F92CDB7DEB749835A836B83209134
:100AF000DE0189819A8121111BC06623A9F00E9421
:100B0000A124182F682F89819A810E944A24698123
:100B10007A81812F0F900F900F900F900F90DF919F
:100B2000CF911F910C943F170E947824182FEFCF7C
:100B30000E94A12469817A81EDCFFC01408151811D
:100B40006281738184810C946C051F93CF93DF9332
:100B500090E0FC01E457FD4F1491FC01E457FC4F79
:100B6000D491845F9C4FFC01C491DD2319F081EE88
:100B70000E94AE1BCC2319F086EE0E94AE1B812F83
:100B80000E94001DCC2319F086EE0E94B11CDD23CB
:100B900031F081EEDF91CF911F910C94B11CDF9168
:100BA000CF911F910895FF920F931F93CF93DF93DF
:100BB000EC01F62E8881882331F18E010F5F1F4FE3
:100BC000813041F4C9818C2F0E94AE1B8C2F0E9472
:100BD000B11C05C0823079F489810E94AE1BE80106
:100BE00021968F2D815030F3EFE9FFE03197F1F737
:100BF00000C00000F7CF833011F48981E8CF0E9454
:100C0000A5058E01ECCFDF91CF911F910F91FF9041
:100C1000089560E00C94D3058F929F92AF92BF929B
:100C2000CF92DF92EF92FF920F931F936B017C01A3
:100C300081E090E0A0E0B0E04C015D0104C0880CD0
:100C4000991CAA1CBB1C4A95D2F7B501A4014C0102
:100C50005D0104C0880C991CAA1CBB1C2A95D2F704
:100C6000482959296A297B2904C0880F991FAA1F7E
:100C7000BB1F0A95D2F78A019B010C211D212E2151
:100C80003F21041715072607370789F48C299D296A
:100C9000AE29BF29BC01CD011F910F91FF90EF90AC
:100CA000DF90CF90BF90AF909F908F9008958095E8
:100CB0009095A095B0958C219D21AE21BF21EACFC2
:100CC0000F93382F262F60913F0270914002809140
:100CD000410290914202042F432F0E940C060F9173
:100CE0000C9488230E943B160C94EB04E82FE295A9
:100CF000EF70F0E032A1282F2F7081E090E001C06A
:100D0000880F2A95EAF78095832382A30895CF92CE
:100D1000DF92EF92FF92863028F5811124C09091E6
:100D200080009F7790938000282F30E0AFEFBFEFD7
:100D30000E94C53025E030E040E050E00E9496304F
:100D4000C9012C3764E1360790F469E070E00E9435
:100D50006E307093890060938800FF90EF90DF9071
:100D6000CF90089585E0909180009068DBCF2A5065
:100D7000374D4F4F5F4F942F832F722F662725EFEC
:100D800038E241E050E00E94963069017A01CA01E0
:100D9000B9010E945E309B01AC01C701B6010E94FF
:100DA0005E30672F782F892F99276115710521E013
:100DB0008207910571F66FEF7FEFCBCF259A85E320
:100DC0000E94760682E88093800089E1809381000A
:100DD0008FEF9FEF90938700809386000C940128FB
:100DE0000E94EB25811102C00E9491260E94DE061E
:100DF0000E94DE150C94E5040C945C0508950E9495
:100E00008A1F0E94FE062FEF84E39CE02150804061
:100E10009040E1F700C000000C94C5270F931F938A
:100E2000CF93DF938C010E949D05EC01B8010E94D5
:100E3000ED04882309F4F9C0B801CE010E946E18B0
:100E4000882309F4F2C0CB3C8CE5D80709F42FC104
:100E500008F04EC0C33CECE5DE0709F400C140F5E4
:100E6000C6318CE5D807A8F4C2309CE5D90708F054
:100E70009CC0C115ECE5DE0709F4D2C0C130DC45E9
:100E800009F4D9C0C801DF91CF911F910F910C9443
:100E90006805C6318CE5D80709F43CC2C23CDC4584
:100EA00089F7F80182818111C0C00E943B14BDC046
:100EB000F8018281C73CFCE5DF0709F4E9C060F472
:100EC000C53CECE5DE0709F4DEC008F4D3C08111AF
:100ED000ACC00E945411A9C0C93C9CE5D90709F4D3
:100EE000E1C008F4DAC08111A0C00E9490119DC039
:100EF000C33DFCE5DF0709F418C190F5F8018281D4
:100F0000CF3CFCE5DF0709F4E7C0A8F4CD3CECE5F5
:100F1000DE0709F4DAC008F4D2C0882309F485C0DA
:100F20000E94B70F823028F00E94B70F853008F476
:100F3000A7C082E0CEC0C13D9CE5D90709F4E7C057
:100F400008F4D7C0882309F470C00E94B70F853118
:100F500028F00E94B70F873108F492C085E1B9C02C
:100F6000CD3DFCE5DF0709F4FEC0A0F4C53D9CE5DE
:100F7000D90709F4F1C008F4DFC0CC3DDC4509F025
:100F800081CFF8018281882309F44FC080E00E945C
:100F9000512B4BC0CE3D8CE5D80709F459C0CE018A
:100FA0008A5F9C45099708F06DCFF80182818823FC
:100FB00009F468CF0E94EB25811102C00E9491269E
:100FC0000E94FE259093910280939002C031FCE52F
:100FD000DF0709F470C108F005C1C8309CE5D907E6
:100FE00009F461C108F0D4C0C430FCE5DF0709F49E
:100FF0004EC108F0BFC0C2309CE5D90709F441C119
:10100000809190028260C330DC4509F43DC180913B
:101010009002909191020E940C260E948A1F05C0A6
:10102000F801828181110E94FF0680E0DF91CF915B
:101030001F910F910895F80182818823B1F3909157
:101040005402892F8E7F90FF816080935402EDCFF0
:10105000F8018281882349F30E949126E6CFF801A6
:101060008281882311F30E943625827249F00E9402
:101070002D14DBCF8823C9F20E9436258272B9F382
:101080000E942014D2CF8111D0CF0E944711CDCF22
:101090008111CBCF0E946311C8CF8111C6CF0E94AE
:1010A0007211C3CF8111C1CF0E948111BECFF8014F
:1010B0008281882309F4B9CF0E94BF0FB6CF88235D
:1010C00009F4B3CF0E94D00FB0CF882309F4ADCF7D
:1010D00081E00E943014A9CF882309F4A6CF0E9492
:1010E000B70F863020F00E94B70F883048F286E0B4
:1010F000F0CF882309F499CF0E94B70F893028F0E8
:101100000E94B70F8E3008F4BBCF89E0E2CF88236E
:1011100009F48BCF0E94B70F8F3028F00E94B70FD1
:10112000843108F4ADCF8FE0D4CFF80182818823D9
:1011300009F47BCF88E1CDCFF8018281882309F4BF
:1011400074CF0E94B70F893128F00E94B70F823206
:1011500008F496CF89E1BDCFF8018281882309F494
:1011600064CF83E2B6CFF8018281882309F45DCF92
:1011700082E00DCF809190028061C630FCE5DF07F0
:1011800009F482C008F487C08091900280627CC01C
:10119000809190028D7FCC309CE5D90709F474C012
:1011A00070F4809190028C60CA30FCE5DF0709F48E
:1011B0006BC008F47CC0809190028E7F65C08091E6
:1011C0009002877FCE309CE5D90709F45DC08091FD
:1011D00090028B7FCF30DC4508F456C0809190029E
:1011E0008F7E52C0CB3FFCE5DF0709F458C020F5E5
:1011F000C3319CE5D90709F466C068F4C131FCE548
:10120000DF0709F45CC0C231DC4509F000CF8091F2
:1012100090028F7739C0C5319CE5D90709F45BC0CE
:1012200008F46FC0809191028160CA3FDC4509F0EB
:10123000EECE80939102EBCECF3F8CE5D80709F438
:1012400046C088F4809191028D7FCD3FECE5DE07AA
:1012500081F3809191028E7FCE3FDC4550F38091E7
:1012600091028360E6CFC1308DE5D80709F450C004
:10127000F0F180E0C230DD4509F0C9CE0E9493262E
:10128000C6CE80919002816080939002C0CE809102
:1012900090028460F9CF809190028860F5CF8091B0
:1012A00091028260C6CF809190028064EDCF8091E0
:1012B00090028068E9CF809190028F7DE5CF809188
:1012C00090028F7BE1CF80919002837FDDCF809170
:1012D00091028C7FAECF8091900282FB992790F98A
:1012E00021E0922790FB82F990FB83F9CDCF80918A
:1012F0009102982F909591708E7F892B90FB81F9A8
:1013000098CF90919002892F97FB87F98058BCCF96
:1013100081E0B4CF0E943625F8019281992381F0B3
:101320008A7A91E009F490E090938A01811106C0D5
:1013300089E20E9411250E94822577CE85E3F9CFAC
:1013400080918A01811104C089E20E941825F3CF9F
:1013500085E3FBCF90E080E00895CF93DF930E9478
:101360003F170E94930BEC01811521E5920708F0CD
:1013700049C0811530E5930708F030C1883E9105DA
:1013800008F5803E910570F5883A910570F4853A2C
:10139000910508F0AEC08130910521F1009711F15F
:1013A000049700F5D0E0C0E01DC08F3B910508F424
:1013B000ABC0805C9109C03CD105A0F30E9416052A
:1013C000EC0110C08115904388F4C11580E2D80764
:1013D00008F0FBC0C03FD10528F3CF3FD10509F08D
:1013E00008F4F1C0CE01DF91CF910895C11590E4CA
:1013F000D90708F0F0C0CE019927D3FFE9C0EC016E
:10140000D86CF0CF811529E5920760F5811538E594
:10141000930708F029C1811544E5940778F4C115B4
:1014200083E5D80708F007C1C11592E5D90708F090
:10143000F1C0DC2FCC27C16FD06AD4CF811525E550
:10144000920708F40CC1811536E5930708F0AACF7E
:101450000E942A0CC82FD0E0DC2FCC27CC27DF71CC
:10146000D062C0CF8D3B9C4509F403C1CE3B8CE5D7
:10147000D807D0F4CB3B9CE5D90709F4FDC008F0B0
:10148000FEC0C1153AE5D30708F08CCF8C2F8F70C2
:101490000E942A0C34E0D695C7953A95E1F7CF70B3
:1014A0009C2FEC01D0699ECFC03C4CE5D40709F4D9
:1014B000E9C060F4CE3B9CE5D90709F4E6C0CF3B18
:1014C000DC4509F06FCFC0E0D2ED8CCFCE01905655
:1014D0008115904208F066CF8D2F8F710E942A0CE3
:1014E00090E0982F882788279F719C012C2BE90179
:1014F000B7CF853A910509F4CBC0863A910509F03A
:10150000CAC0C2E8D0E46ECF883A910509F4C6C0DB
:10151000893A910509F4C5C08A3A910509F4C4C015
:101520008B3A910509F4C3C08C3A910509F4C2C005
:101530008B3B910509F4C1C08C3B910509F4C0C0F7
:101540008D3A910509F4BFC0803B910509F4BEC0F6
:101550008E3A910509F4BDC08F3A910509F4BCC0DB
:10156000813B910509F4BBC0823B910509F4BAC0E7
:10157000833B910509F4B9C0843B910509F4B8C0D7
:10158000853B910509F4B7C0863B910509F4B6C0C7
:10159000873B910509F4B5C0883B910509F4B4C0B7
:1015A000893B910509F4B3C08D3B910509F4B2C0A4
:1015B0008E3B910509F4B1C08A3B910509F4B0C096
:1015C000C0E0D4E40FCFD0650DCFCE019F70F6CE32
:1015D000EC01D06C07CFDF70D06A04CFE4E09695C1
:1015E0008795EA95E1F783702C2F26952695237031
:1015F00040E2249F90011124382B8C2F8370C1E08E
:10160000D0E002C0CC0FDD1F8A95E2F7C22BD32BAE
:10161000DC68E8CECE018370992721E030E002C07B
:10162000220F331F8A95E2F7C695C69580E2C89FC0
:10163000E0011124EBCFCE018370992721E030E047
:1016400002C0220F331F8A95E2F7C695C69590E235
:10165000C99FE0011124C22BD32BDA68C3CED82F47
:10166000CC27C46FD06ABECED82FCC27C06FD06A2B
:10167000B9CEC0E0D1EDB6CEC0E0D4EDB3CEC0E07F
:10168000D5EDB0CEC0E0D3EDADCEC0E0D0EDAACE6A
:10169000C1E8D0E4A7CEC3E8D0E4A4CEC2EED4E43F
:1016A000A1CEC9EED4E49ECECAEED4E49BCEC5EB67
:1016B000D4E498CEC6EBD4E495CEC3EBD4E492CE7A
:1016C000C4EBD4E48FCEC7EBD4E48CCECCECD4E422
:1016D00089CECDECD4E486CEC3E8D5E483CECAE887
:1016E000D5E480CEC2E9D5E47DCEC4E9D5E47ACE96
:1016F000C1E2D6E477CEC3E2D6E474CEC4E2D6E447
:1017000071CEC5E2D6E46ECEC6E2D6E46BCEC7E2B9
:10171000D6E468CECFE6D4E465CEC0E7D4E462CEAA
:10172000CAE2D6E45FCE82389105B1F1B0F48133DC
:10173000910509F475C048F48932910509F469C02E
:101740008A32910509F473C008958533910509F42F
:1017500059C08933910501F10895833E9105A9F19E
:1017600038F4803E9105F9F0823E910549F10895E3
:10177000863E9105A9F1873E9105C9F1843E910508
:1017800019F52091910221FF1FC08091900284FDE4
:1017900014C087EE90E00895209190022370A1F08C
:1017A00080EE90E008952091900220FD47C0309196
:1017B000910230FF09C024FF44C090E080E004C0E3
:1017C0002091900222FDF7CF08952091900222FDF2
:1017D0003BC03091910230FDE3CF24FFF5CFEDCF38
:1017E0002091900223FFF0CF24FDE7CFD2CF2091AC
:1017F000900223FD2CC03091910231FFEECF84EE98
:1018000090E008952091900225FFDECF89E290E0DC
:1018100008952091900225FFD7CF85E390E00895A9
:101820002091900226FFD0CF8AE290E00895209187
:10183000900226FFC9CF81E390E0089589E390E00C
:10184000089583EE90E0089582EE90E0089586EE8C
:1018500090E008959091900292FF06C0282F287181
:101860002830F9F4877F846093FF06C0282F287101
:101870002831F1F4877E84612091910220FF06C017
:10188000382F38713830D9F4877F816021FF06C046
:10189000282F28712831D1F4877E816194FD877EBD
:1018A0000895282F24712430F9F68B7F8860DCCFCF
:1018B000282F2471243101F78B7E8861DDCF382FEA
:1018C0003171313019F78E7F8860E0CF282F217178
:1018D000213121F78E7E8861E1CF08950895089522
:1018E000E82FF0E0EF56FE4F8081089508951F9392
:1018F000CF93DF93CDB7DEB760970FB6F894DEBF16
:101900000FBECDBF809154028B60809354028091B2
:10191000100181112EC0FE01359686E0DF011D9277
:101920008A95E9F781E3898382E38A8382E98B835D
:1019300081EF8C8384EF8D833497A6E0B1E0CE01F4
:101940000B9621912D938E179F07D9F726E0E0E49F
:10195000F1E0DE011B9601900D922A95E1F7FC0162
:10196000A0E0B1E0CE01419621912D938E179F0703
:10197000D9F78091100195E0811190E09093620277
:1019800085E0891B80936102A6E0B1E04BE051E065
:1019900061E070E08D91E82FE295EF70F0E011A129
:1019A0008F709B0101C0220F8A95EAF7922F9095C4
:1019B000912391A382A1822B82A34A175B0751F73F
:1019C000A0E0B1E046E051E061E070E08D91E82FE9
:1019D000E295EF70F0E011A18F709B0101C0220F22
:1019E0008A95EAF7922F9095912391A382A1822B59
:1019F00082A34A175B0751F7E1E9F1E08BE991E037
:101A000011928E179F07E1F785E00E94F50D609611
:101A10000FB6F894DEBF0FBECDBFDF91CF911F91FF
:101A20000C94F006AF92BF92CF92DF92EF92FF92AA
:101A30000F931F93CF93DF93ACE8B1E066E071E0C2
:101A4000A12C81E090E0BD90FD011292EB01499143
:101A5000BE01242F22952F7030E0E90159A14F706B
:101A60008C0101C0000F4A95EAF7452F402B49A38E
:101A7000EB013A91AE01032F02950F7010E0E801DF
:101A8000FAA03F70EC0102C0CC0FDD1F3A95E2F7DF
:101A90009E0120952F21E8012AA3D0EADA95F1F7DB
:101AA00020E0C22E21E0D22E10E000E0E601F99005
:101AB0006E012F2D22952F7030E0E90128A130E032
:101AC000DF2DDF7002C035952795DA95E2F7E12C1E
:101AD00020FD06C07C01002E01C0EE0C0A94EAF73E
:101AE00020812E2920830F5F1F4F06301105F1F64C
:101AF000EA013881032F02950F7010E0E801F9A088
:101B00003F70EC0102C0CC0FDD1F3A95E2F79E0159
:101B100020952F21E80129A3EA014881242F22954D
:101B20002F7030E0E9015AA14F708C0101C0000F05
:101B30004A95EAF7452F402B4AA321E030813B111B
:101B400001C020E0A22AD1E0A139BD0709F07BCF76
:101B50006091620270E06F567E4F2A2D45E08CE85E
:101B600091E00E94F60D8A2DDF91CF911F910F9188
:101B7000FF90EF90DF90CF90BF90AF900895CF93FC
:101B80000E94120DC82F0E94320E882311F18091FD
:101B9000610290E08F569E4F0E948D0E811116C0FB
:101BA00080918B018F5F80938B01863050F0E091A4
:101BB0006102F0E0EF56FE4F108211821282138212
:101BC00014820E9472068C2FCF91089510928B017F
:101BD000F8CF8091620290E08F569E4F0E94B80E1F
:101BE0000E943B160E946F0CEECF0895FF920F9358
:101BF0001F93CF93DF93F82E092F162FD72FC42FC3
:101C0000222349F081E080939D010E945F279093F9
:101C10009C0180939B0180919D018823A1F080917C
:101C20009B0190919C010E947727069760F0EF2D11
:101C3000F02FA12FBD2FCE0FDF2FD11DEC17FD07E9
:101C400041F410929D01DF91CF911F910F91FF9070
:101C5000089581918D93F2CF559889B185FB88279E
:101C600080F9089580919E01811111C08091D80062
:101C700080618093D8008AE18A95F1F700C0909145
:101C8000D900892F817090FF82E080939E0181E0CE
:101C900090919E01913009F080E008950E942C0EF1
:101CA000809310018091100166E0882349F080E064
:101CB0000E94680F0E94320E882321F00C94640E5B
:101CC00086E0F6CF0C946A0E62E070E081E191E06C
:101CD0000C94101962E070E081E191E00C94191904
:101CE0000E946713882361F088EA91E00E946D13D7
:101CF00081E090E00E94F219892B11F40C946A1390
:101D000008958091A701883039F460E088EA91E075
:101D10000E9482141092A7010895CF93DF93D82FC9
:101D2000C92F0E94700E90E080E00E94F219009787
:101D3000E9F4ED2FFC2FDC01AF55BE4F2C91219320
:101D4000019685309105B9F70E948228882361F0B9
:101D50000E94CF288093A00186EA91E00E9471162C
:101D600081E0DF91CF91089580E0F4CF80E0F9CF5A
:101D7000CF93DF93D82FC92F0E94810EED2FFC2F18
:101D800090E080E02191DC01AF55BE4F2C9301968D
:101D900085309105B9F78091A0010E94870686EAF7
:101DA00091E0DF91CF910C946C16AF92BF92CF92DD
:101DB000DF92FF920F931F93CF93DF93362F472F1E
:101DC000E82FF0E0ED5DFA4F71110DC06491762FB0
:101DD000862FDF91CF911F910F91FF90DF90CF90D1
:101DE000BF90AF900895C72FD0E02491F22E022F1C
:101DF00010E056E0659FC0011124EFEFF0E0BF0155
:101E00000E946E30832F90E0880F991F35E5369F32
:101E1000D001379FB00D11248A1B9B0B982F990F6F
:101E2000980F6F01CC1ADD0AC09ED001C19EB00D83
:101E3000D09EB00D11248B2F949FA0011124452F0B
:101E400055276F01C41AD50AC09EA001C19E500D2E
:101E5000D09E500D11245F01A91AB108AC9E6001FB
:101E6000AD9ED00CBC9ED00C1124CD2CDD24EC19E1
:101E7000FD09E09FE001E19FD00DF09FD00D1124FE
:101E8000ED2F62307105A1F048F46115710569F01C
:101E90006130710589F0EB2F852F07C06430710523
:101EA00071F088F066307105B1F76E2F722F91CF07
:101EB000E22F2B2F8D2FF9CFE22F252FF6CFEB2FEF
:101EC000822F2D2FF2CF2B2F8F2DE52FEECF0895C0
:101ED0008093B701609325010895CF93DF93762F08
:101EE000E901682F842F0E94D50E798368838A8345
:101EF000DF91CF91089580916302982F9E7F29F4FE
:101F0000817082608093630208958A34E8F381705F
:101F10008864F8CF88E090E00C94F430CF92DF92A0
:101F2000EF92FF926B017C010E947B0FB701A6012B
:101F300088E090E0FF90EF90DF90CF900C9412310A
:101F4000E3E6F2E083E0808311828FEF8283838374
:101F50001482AFEBB1E012968C91129783601296C7
:101F60008C9360817181828193810C948E0F80911A
:101F7000630280FF02C08695089580E008958091F5
:101F80006702833018F48F5F809367026091630269
:101F90007091640280916502909166020C948E0F9C
:101FA00080916702882319F08150809367026091C5
:101FB00063027091640280916502909166020C94B4
:101FC0008E0F6091250170E08091630280FF0AC04E
:101FD0008091B70123E0829FC001112488599D4F51
:101FE0000C94AE158091B6019091240123E0829F5C
:101FF000F0011124E859FD4F891750F71182108222
:1020000012828F5F3396F8CF9091630290FF14C0D5
:102010009091B6012091240133E0939FF0011124A7
:10202000E859FD4F921710F00C94E10F8183608303
:1020300042839F5F3396F6CF0895CF93DF9300D00E
:102040000F92CDB7DEB79091630290FF0AC09E0158
:102050002F5F3F4F0E946D0F4B8169818A810E94E3
:1020600004100F900F900F90DF91CF910895CF93B0
:10207000DF93EC01EC81F0E0E25EFB4F4491E3E69C
:10208000F2E0628181810E941D108C818F5F8C83C0
:10209000DF91CF910895CF93DF93EC01E3E6F2E077
:1020A000438162818C810E941D108C818F5F8C83A3
:1020B000DF91CF9108950F931F93CF93DF9300D0BB
:1020C0000F92CDB7DEB78C018091B00181110AC0AB
:1020D0009E012F5F3F4F4FEF6FEF0E946D0F8A8180
:1020E0008093B001F8016481613069F08091B001A2
:1020F00040E0662361F040E0623011F44091B001AD
:1021000080E060E004C06091B00140E080E00E94A7
:102110000410F801848190E0019663E070E00E9471
:10212000823084830F900F900F90DF91CF911F9199
:102130000F910895AF92BF92CF92DF92EF92FF92EC
:102140000F931F93CF93DF9300D00F92CDB7DEB7DD
:10215000182FF62E042FE22E9091630290FF3AC0C2
:10216000E92FE695AE2FB0E0AA5BBE4F8C9180932D
:10217000BF019E7F9230E1F59E012F5F3F4F812F7F
:102180000E946D0F4B8169818A810E9404108091A9
:102190006402811308C0809165028F1104C0809190
:1021A0006602801729F08091C10182608093C1018D
:1021B00010936402F092650200936602EE2051F0E3
:1021C0006091630270916402809165029091660251
:1021D0000E948E0F0F900F900F90DF91CF911F9163
:1021E0000F91FF90EF90DF90CF90BF90AF90089548
:1021F000823019F400916602CACF863019F410912A
:102200006402C5CF8930D9F3893109F6E9518E2F9F
:102210008170D82EE695F0E0E25EFA4FA590B4907A
:10222000C12CBB2460912301C61618F00E94E10F57
:10223000AECF2C2D30E0A29EC001A39E900DB29E89
:10224000900D112470E00E946E30812FD11013C0C8
:10225000860F4091B601420F532F511D9A01220F54
:10226000331F240F351F28593D4F402F6F2D0E94DB
:102270006D0FC394D7CF861BECCFE3E6F2E09181DC
:10228000282F4381628188E0890F0C949A1081E0A5
:102290000C943D11E3E6F2E09181282F43816281A5
:1022A00088EF890F0C949A1081E00C944A11E3E6B0
:1022B000F2E0628121E1620F08F46FEF282F438181
:1022C00081810C949A1081E00C945711E3E6F2E0BE
:1022D000628121E1621B08F460E0282F4381818143
:1022E0000C949A1081E00C946611E3E6F2E04381CD
:1022F00021E1420F08F44FEF282F628181810C9475
:102300009A1081E00C947511E3E6F2E0438121E13B
:10231000421B08F440E0282F628181810C949A10BE
:1023200081E00C94841120E00C949A10EF92FF92BB
:102330001F93CF93DF93EC0110E0EE24EA94F12C8D
:1023400060912301161770F00E94E10F9A818C8131
:1023500090FF27C08F5F8C83DF91CF911F91FF90FB
:10236000EF9008952091B601422F410F5527551F38
:10237000CA019A01220F331F280F391F28593D4FD8
:1023800070E0C7010E948230962F8C8140916602D6
:1023900060916502199F800D11240E946D0F1F5FCF
:1023A000CFCF8150D8CF9F92AF92BF92CF92DF9282
:1023B000EF92FF920F931F93CF93DF938C01FC0159
:1023C0008281BB24BA9480FD02C0BB24B394F8017F
:1023D000848181110BC0F1E0BF1229C080912301DB
:1023E00081508093B20181E0F8018483A12C809117
:1023F0002301A816F8F00E94E10F8091B20191E04C
:10240000B9125AC0811152C080912301815080932A
:10241000B201F8011482DF91CF911F910F91FF90CB
:10242000EF90DF90CF90BF90AF909F900895109263
:10243000B201D9CFC091B601CA2CD12CCC0DDD2D63
:10244000D11DCE01880F991FC80FD91FC859DD4F64
:10245000198218821A8234E0E32EF12C912C80919B
:10246000B201890D87FF03C090912301890F082EC7
:10247000000C990BC816D90691F4809166028E9DC6
:10248000A0018F9D500D1124559547955595479561
:102490009E0160916502809164020E946D0F9B0C09
:1024A000F1E0EF1AF108D9F6A394A1CF81508093FF
:1024B000B201F801B482AFCF90E0019660912301A0
:1024C00070E00E9482308093B201F8018483A3CF30
:1024D000EF92FF920F931F93CF93DF93EC018C81C8
:1024E000811109C081E08C831092B10192E0909338
:1024F0002201809321018091B6019091240123E073
:10250000829FF0011124E859FD4F891768F110E00E
:1025100003E060912301161768F10E94E10F80919A
:1025200021012091B101280F2093B1019091220146
:10253000980F90932201191654F4022E000C330BBD
:10254000409123014150550B2417350734F08195F4
:1025500080932101813009F41C82DF91CF911F917A
:102560000F91FF90EF9008951182108212828F5F79
:102570003396CBCFE12EF12C70E0C7010E94823060
:102580002091B601820F482F50E02091B101022E18
:10259000000C330BE216F306BCF020912201022E50
:1025A000000C330B2E153F057CF0809F9001112409
:1025B00028593D4F40916602609165028091640206
:1025C0000E946D0F1F5FA5CFFA01EE0FFF1FE40FF2
:1025D000F51FE859FD4F118210821282F3CF0F933D
:1025E0001F93CF93DF938C01FC0184819581019629
:1025F0008170992795838483C0E0D5E5809123017C
:10260000C81730F0DF91CF911F910F910C94E10F1B
:102610002091B601422F4C0F5527551FCA019A0130
:10262000220F331F280F391F28593D4F8C2F8695B5
:10263000F80144815581840F952F911D817040913F
:102640006602609165028D9F802D11240E946D0F9E
:10265000CF5FD4CF0F931F93CF93DF93EC0110E0A4
:1026600000E0909123019017110609F06CF40E948C
:10267000E10F8C8190E00196817099278C83DF9126
:10268000CF911F910F9108952091B601A801420F9B
:10269000511D9A01220F331F240F351F28593D4F1A
:1026A0004C816091650280916402969590171106A5
:1026B00051F04CF0442349F0409166020E946D0FA6
:1026C0000F5F1F4FCECF4423B9F340E0F7CF809187
:1026D000C10108951092C101089525E0E3E6F2E0FA
:1026E000DC0101900D922A95E1F72091BF01309114
:1026F000C0014091C101FC012583368347830895C1
:10270000EFEBF1E011828281846082830895E3E639
:10271000F2E080818E7F80830E948013EFEBF1E0F6
:102720008281816082832FEF80E792E02150804098
:102730009040E1F700C000000C94E10FE3E6F2E006
:1027400080818E7F808360817181828193810E94EC
:102750008E0F0E948013EFEBF1E082818160828313
:102760002FEF80E792E0215080409040E1F700C0D9
:1027700000000C94E10F60916302669570E04BE0FD
:1027800050E086E291E00E94DF30892B19F481E06D
:102790008093C0010E945F279093B9018093B80194
:1027A0008091C10184608093C1010895909163027A
:1027B00090FF3AC0917081112DC092609093630296
:1027C0008091C10181608093C101662351F06091C5
:1027D00063027091640280916502909166020E948A
:1027E0008E0F60916302669570E04BE050E086E2E8
:1027F00091E00E94DF30892BA1F00E94801381E0DC
:102800008093BB01409166026091650280916402F1
:102810000C949311853210F09864D0CF880F982BC8
:10282000CDCF0E94BB13EBCF0895682F9091630228
:10283000969581E0890F853208F081E00C94D613DB
:1028400081E00C941514682F9091630296958FEF98
:10285000890F09F484E20C94D61381E00C942314BC
:1028600061E00C94D613E3E6F2E08081816080831E
:1028700086950C9430148091630280FD0C949E1315
:102880000C94331460E00C94D6138091BE01811136
:1028900038C0809154028160809354020E94EB25DD
:1028A000811104C00E9491260E94A00F0E948A0FED
:1028B0006093630270936402809365029093660252
:1028C0008091C10183608093C1016E7F61F40E9499
:1028D000A00F0E948A0F609363027093640280933A
:1028E0006502909366020E947B0F0E948013809184
:1028F000630280FF03C086950E94421481E08093AA
:10290000BE0108951F93CF93DF93EC01162F8F81A3
:1029100080FF0CC0888180FF24C0809163028160A9
:1029200080936302888186950E94D6138F8181FFF0
:1029300006C0212F4B816A8189810E949A108F8164
:1029400082FF05C08E81882379F00E94BB138F819E
:1029500083FF03C081E08093BB01DF91CF911F9182
:1029600008950E948713E2CF0E948013F0CFEF9268
:10297000FF920F931F93CF93DF938091C001882321
:1029800009F468C08091BF01E0916302E695E81BFD
:10299000E093BA01823009F064C0F0E0E65EFB4FDC
:1029A000E491CE2FD0E007E310E18091BB018823B2
:1029B00089F01092BB010E945F279E0120953095FF
:1029C000820F931F9093B9018093B8011092BD01BB
:1029D0001092BC018091B8019091B9010E947727B3
:1029E0008C179D07B8F18091B5018823B1F0109242
:1029F000B5018091B3019091B4010E947727803393
:102A0000954758F00E945F279093B4018093B301DB
:102A10008091C10188608093C101E090BC01F09079
:102A2000BD01E091B801F091B901CE0FDF1FD09345
:102A3000B901C093B80188EB91E0F8010995809144
:102A4000BC019091BD01892B29F4EF2819F081E098
:102A50008093B501DF91CF911F910F91FF90EF907F
:102A60000895863049F4F0E0E95EFB4FE491CE2F03
:102A7000D0E00BE410E199CF893051F4E695F0E015
:102A8000EC5EFB4FE491CE2FD0E006E911E18DCF53
:102A90008F3051F4E695F0E0EF5EFB4FE491CE2FDE
:102AA000D0E003ED11E181CF853149F4F0E0E25F40
:102AB000FB4FE491CE2FD0E008E612E176CFC8EECE
:102AC000D3E00FEE12E1883109F46FCF833239F48D
:102AD000ECE0F4E0C591D4910BE510E166CFC4EFD2
:102AE000D1E00AE213E1843209F45FCFC0EDD7E010
:102AF00007E61FE05ACF3BB1242F209523233BB19B
:102B0000432B3FB7F894680F791F8617970711F486
:102B10003FBF0895FC015191CF01E8E04BB900009F
:102B200000C057FF2BB9550F000000C000C000C007
:102B30002BB900C0EA9591F7E8CF2AB1242B2AB926
:102B40009B01220F331F620F731F0E947B1587ECBE
:102B500090E00197F1F700C00000089540E40C9464
:102B60009D150C945F051F93CF93DF93182FC82FEB
:102B7000880FDD0B6F70E62FF0E0E559FE4FCC5368
:102B8000DE4F80819881890F8883843024F060E053
:102B9000812F0E94B11588818D3F24F461E0812F3F
:102BA0000E94B1158881837887FF03C081508C6FA4
:102BB0008F5F8883DF91CF911F91089580911001DD
:102BC000811106C087EF8093320186EF8093310137
:102BD00020913201A22FA295AF70B0E091963C9166
:102BE00091972F7081E090E0BC01022E01C0660F2A
:102BF0000A94EAF7462F4095432391964C93919778
:102C000092963C919297362B92963C939297409154
:102C10003101E42FE295EF70F0E031A14F70042E06
:102C200001C0880F0A94EAF7982F9095932391A3F7
:102C300092A1892B82A390968C9190E002C09595E9
:102C400087952A95E2F7817020A130E002C0359582
:102C500027954A95E2F792E020FF90E0892B809338
:102C6000C6019091100181E098279093C301891BC0
:102C70008093C20108956091C601660F660F20918E
:102C80003201E22FE295EF70F0E080A190E02F702A
:102C900002C0959587952A95E2F781709927409112
:102CA0003101E42FE295EF70F0E020A130E04F70A9
:102CB00002C0359527954A95E2F7A901417055273D
:102CC00020FF02C042E050E0842B682B6093C601D5
:102CD0008091C3010C94B3152091C601FC0120839F
:102CE0000895FC0160818091C2010C94B31584E0C9
:102CF000089550E0440F551F9CE0699F400D511D01
:102D0000112498E7899F400D511D1124CA01859611
:102D100008950F931F93CF93DF930E9479168C0130
:102D20000E94EC30C82FD0E0DC2FCC27C8010196E0
:102D30000E94EC309E01282BC901DF91CF911F9199
:102D40000F9108950F931F93CF93DF93122F032FAB
:102D50000E947916EC01602F0E940031612FCE0194
:102D60000196DF91CF911F910F910C940031AF929A
:102D7000BF92CF92DF92EF92FF921F93CF93DF9398
:102D80008CEAC82E80E0D82ED0E07601C0E014C0D6
:102D9000F50125913491412F6C2F8D2F0E94A216A1
:102DA00082E0A80EB11C1F5F163091F78CE0E80E90
:102DB000F11CCF5FCA3019F0570110E0E9CFDF5F97
:102DC00088E7C80ED11CD43001F7DF91CF911F9155
:102DD000FF90EF90DF90CF90BF90AF900895EF926B
:102DE000FF920F931F93CF93DF93EC018A017C0135
:102DF000E60EF71ECE018596CE15DF0539F4DF917C
:102E0000CF911F910F91FF90EF900895C03E21E068
:102E1000D20740F40E94EC30F80180830F5F1F4F0F
:102E20002196E8CFF8011082F9CFCF92DF92EF928E
:102E3000FF920F931F93CF93DF937C016A018C0164
:102E4000060F171FEC01CE018596C017D10749F474
:102E5000DF91CF911F910F91FF90EF90DF90CF9076
:102E60000895C03E21E0D20740F4FE01EE19FF09AB
:102E7000EC0DFD1D60810E9400312196E4CF462FAC
:102E8000843038F47A3028F4663018F4672F0C94C4
:102E9000891690E080E0089580E108958BEF91E03D
:102EA0000895EF92FF920F931F93CF93DF93EC015E
:102EB0008A017C01E60EF71ECE018B5F9D4FCE1579
:102EC000DF0539F4DF91CF911F910F91FF90EF90C3
:102ED0000895CB3F21E0D20740F40E94EC30F80186
:102EE00080830F5F1F4F2196E7CFF8011082F9CF43
:102EF000CF92DF92EF92FF920F931F93CF93DF93C6
:102F00007C016A018C01060F171FEC01CE018B5F5B
:102F10009D4FC017D10749F4DF91CF911F910F91B9
:102F2000FF90EF90DF90CF900895CB3F21E0D20744
:102F300040F4FE01EE19FF09EC0DFD1D60810E94B9
:102F400000312196E3CFCF93DF93C5E0D2E060E07C
:102F5000CE010E9400312196C11584E0D807B9F74F
:102F6000DF91CF910895EF92FF920F931F93CF932C
:102F7000DF9300D00F92CDB7DEB7F82E8FE08F151C
:102F800040F08FEF93E00E94EC3005E012E08823E0
:102F9000B1F00F900F900F90DF91CF911F910F9193
:102FA000FF90EF900895011584E0180791F3C80190
:102FB0000E94EC30811101C0FA940F5F1F4FF11095
:102FC000F2CF19821A821B8278018FEFE81AF80A71
:102FD000C8010E94EC3089831A828823D1F2815083
:102FE000833068F40E5F1F4FC7010E94EC308A8364
:102FF000882379F2CE0101960E940906E5CF870168
:10300000F9CF0F931F93CF93DF93C62FD42F022FA7
:10301000FC0182818823C9F06093C9010E945F2767
:103020009093C8018093C70180E28C0F883008F02C
:1030300050C0C77081E001C0880FCA95EAF7DF91E0
:10304000CF911F910F910C94131D1091C90116136C
:1030500035C08091C7019091C8010E947727883CB4
:10306000910560F5C0E2CD0F1D17B9F080E2810F28
:10307000883040F4177081E001C0880F1A95EAF794
:103080000E941A1DC83048F481E09D2F977001C03E
:10309000880F9A95EAF70E94131D802F0E94001D49
:1030A000C830B8F4D77081E001C0880FDA95EAF72C
:1030B000DF91CF911F910F910C941A1D80E28C0F1C
:1030C000883038F4C77081E001C0880FCA95EAF7EC
:1030D000EFCFDF91CF911F910F9108959C01CB010C
:1030E000233F4CE5340731F190F4283DFCE53F07E0
:1030F000E9F0293D4CE5340769F1273D3C4579F479
:1031000026E241EE61EE0E94011880E00895253F1D
:10311000FCE53F07B9F090F0263F3C45B9F0FC01D3
:1031200082818823D1F01092C901089527E245EEEB
:1031300065EEE9CF26E241EE60EEE5CF27E245EE0F
:1031400064EEE1CF26E241EE62EEDDCF27E245EE0E
:1031500066EED9CF28E241E0EBCF81E008958EE121
:10316000489B02C08150E1F7489BFECF08955898D4
:1031700080E28A95F1F7589A0895FC013BE03A9570
:10318000F1F720E090E080E031E040E14A95F1F78E
:10319000880F489B02C08160232742E04A95F1F7DF
:1031A000000040E14A95F1F79F5F6913EECF90E18F
:1031B0009A95F1F799B132E03A95F1F7000040E1C4
:1031C0004A95F1F7917092272081920F908308958C
:1031D000EF92FF920F931F93CF93DF930F92CDB790
:1031E000DEB719828C017C01E60EF11C0E151F055D
:1031F00061F481E09981911180E00F90DF91CF918E
:103200001F910F91FF90EF9008950E94AF1868E012
:10321000CE0101960E94BD18F80181938F01E6CF7F
:103220009093CC018093CB016093CA01509A589A35
:1032300008959093CC018093CB016093CA0150987C
:10324000589AE89AE9E6F0E080818C7F80830895BF
:103250006150770B91E001C0990F6A95EAF720E081
:1032600031E0911108C0222391F0589A80E28A95AA
:10327000F1F758980895492F482339F0589A232791
:1032800040E24A95F1F79695ECCF5898F9CF5898C7
:10329000EDCFFF920F931F93CF93DF93EC018C013F
:1032A000060F111DC017D10731F4DF91CF911F9187
:1032B0000F91FF900895F9900E94B71868E08F2D44
:1032C0000E942819EFCF1F920F920FB60F92112470
:1032D0000F931F932F933F934F935F936F937F931E
:1032E0008F939F93AF93BF93EF93FF93CF93DF930E
:1032F0000F92CDB7DEB719820E94AF1867E0CE01FA
:1033000001960E94BD18082F069506950695982FE0
:1033100092959570202F2570920F292F23709695E6
:1033200096958770920F891344C08981811141C09D
:103330008091CA018017E8F120E12A95F1F7589AA7
:10334000509A82E08A95F1F700C0A8E00A9FC00178
:1033500011240091CB011091CC01080F191F58982E
:10336000F8016581662321F0868197810E944919C1
:103370000E94B718F0E1FA95F1F758985098589ACA
:1033800020E12A95F1F7D80112966C9112976623E5
:1033900031F113968D919C910E94E818D801ED911E
:1033A000FC91882311F088E001C082E080830E94B4
:1033B000AF180F90DF91CF91FF91EF91BF91AF9137
:1033C0009F918F917F916F915F914F913F912F913D
:1033D0001F910F910F900FBE0F901F901895ED91B8
:1033E000FC91E1CF0F931F93CF93DF932091CA01FC
:1033F000281719060CF471C08C0193E0000F111FFF
:103400009A95E1F7C091CB01D091CC01C00FD11FAB
:10341000F894509A589825E02A95F1F70000982FD3
:10342000969595708570980F892F837096959695CF
:10343000980F092B0E94B71800C067E0802F0E94E8
:10344000281980E18A95F1F75098589A489B17C03F
:1034500087E090E0489915C06D81662321F18E8147
:103460009F810E94E81881111EC0509A589AE881E5
:10347000F98182E08083789482E090E00DC000C002
:10348000E5CF019771F4509A589AE881F98181E06B
:103490008083789481E090E0DF91CF911F910F912C
:1034A000089500C0D7CF0E94AF1820E22A95F1F707
:1034B0005898509A80E18A95F1F76A81662321F045
:1034C0008B819C810E9449190E94B718E881F9817B
:1034D0001082789490E080E0DFCF84E090E0DCCF51
:1034E0009093D2018093D1010895E091D101F091A0
:1034F000D201309721F00190F081E02D099480E015
:103500000895E091D101F091D201309721F002802D
:10351000F381E02D099408952091CF013091D001DD
:103520002817390771F09093D0018093CF01E09173
:10353000D101F091D201309721F00680F781E02D82
:10354000099408952091CD013091CE0128173907B3
:1035500071F09093CE018093CD01E091D101F09173
:10356000D201309721F00084F185E02D099408956F
:1035700085B7806885BF85B7806885BF0895089541
:103580000C94BF1A08950C94C21A0E94B81A0E9493
:103590004E0E0C94C01A0E9456270E94770C0E946F
:1035A000E9270E9401280E9445140C94C31ABF9277
:1035B000CF92DF92EF92FF920F931F93CF93DF93FF
:1035C000CDB7DEB72A970FB6F894DEBF0FBECDBFDA
:1035D0000E94BF0D0E94320E882309F46FC084ED53
:1035E000C82E81E0D82E10E000E0B02E802F0E947F
:1035F000700CE82EF601F1906F01F81609F458C02E
:103600008091540281FD0E94760C90E080E0FE24BF
:103610002F2D30E0482FB901082E02C0759567950F
:103620000A94E2F760FF3FC08E83BF8281E090E0A2
:103630006C0102C0CC0CDD1C4A95E2F72E2D30E067
:103640002C213D21232B09F480E088870E945F27ED
:103650008160782F9A8789874E815F8168858A8506
:103660000E947F1BF801EC52FE4F80818C258083E5
:103670000E94751A9091D301891789F10E94751AD9
:103680008093D3012A960FB6F894DEBF0FBECDBF4C
:10369000DF91CF911F910F91FF90EF90DF90CF902E
:1036A000BF900C94FC0601968630910509F0B2CFCC
:1036B0000F5F1F4F0A30110509F097CF8FEF8983F5
:1036C0008A831B820E945F278160782F9D838C8371
:1036D00049815A816B818D810E947F1BC9CF2A96B7
:1036E0000FB6F894DEBF0FBECDBFDF91CF911F9113
:1036F0000F91FF90EF90DF90CF90BF900895CF9300
:10370000DF93CDB7DEB72B970FB6F894DEBF0FBEB1
:10371000CDBF4F83588769877A878B871E821D822A
:1037200085E0FE013796DE01119601900D928A9593
:10373000E1F749815A816B817C818D819E812B9635
:103740000FB6F894DEBF0FBECDBFDF91CF910C94C2
:103750002A22FC01808191810C94E324882309F4BE
:10376000FFC08238B9F40E94751A81FDF9C089E35F
:103770000E9411250E9482252FEF81EE94E02150B6
:1037800080409040E1F700C0000089E30E941825C6
:103790000C9482258338A1F40E94751A80FDE0C044
:1037A00083E50E9411250E9482252FEF81EE94E08F
:1037B000215080409040E1F700C0000083E5E6CF53
:1037C0008438A1F40E94751A82FDCAC087E40E9461
:1037D00011250E9482252FEF81EE94E02150804038
:1037E0009040E1F700C0000087E4D0CF9CEF980F35
:1037F000913A18F40E941125CBCF90E2980F98309F
:1038000050F4877091E001C0990F8A95EAF7892FEB
:103810000E943925BDCF9BE5980F933070F4853A0F
:1038200031F0863A39F083E890E00C948C1A81E804
:1038300090E0FBCF82E890E0F8CF98E5980F9731C1
:1038400008F08EC0883A09F446C0893A09F446C0A7
:103850008A3A09F446C08B3A09F446C08C3A09F416
:1038600046C08B3B09F446C08C3B09F446C08D3AF8
:1038700009F446C0803B09F446C08E3A09F446C0BC
:103880008F3A09F446C0813B09F446C0823B09F4F3
:1038900046C0833B09F446C0843B09F446C0853BDF
:1038A00009F446C0863B09F446C0873B09F446C08C
:1038B000883B09F446C0893B09F446C08D3B09F4B6
:1038C00046C08E3B09F446C08A3B09F446C090E0EE
:1038D00080E00C94A21A82EE90E0FBCF89EE90E09B
:1038E000F8CF8AEE90E0F5CF85EB90E0F2CF86EB53
:1038F00090E0EFCF83EB90E0ECCF84EB90E0E9CF6A
:1039000087EB90E0E6CF8CEC90E0E3CF8DEC90E09D
:10391000E0CF83E891E0DDCF8AE891E0DACF82E979
:1039200091E0D7CF84E991E0D4CF81E292E0D1CF8A
:1039300083E292E0CECF84E292E0CBCF85E292E0C8
:10394000C8CF86E292E0C5CF87E292E0C2CF8FE691
:1039500090E0BFCF80E790E0BCCF8AE292E0B9CFA1
:103960000895882309F44BC0823871F40E94751AB7
:1039700081FF45C089E30E9411250E94822589E3C9
:103980000E9418250C948225833859F40E94751AD8
:1039900080FF35C083E50E9411250E94822583E5C2
:1039A000EFCF843859F40E94751A82FF28C087E44B
:1039B0000E9411250E94822587E4E2CF9CEF980F98
:1039C000913AF0F290E2980F983050F4877091E0BD
:1039D00001C0990F8A95EAF7892F0E943F25D2CF1F
:1039E0009BE5980F933020F490E080E00C948C1AC3
:1039F000885A873120F490E080E00C94A21A089550
:103A0000CF93C82F0E94AE1BC93349F42FEF87EE26
:103A100093E0215080409040E1F700C000008C2FDF
:103A2000CF910C94B11C882321F00E9439250C946D
:103A300082250895882321F00E943F250C94822539
:103A40000895BF92CF92DF92EF92FF920F931F9350
:103A5000CF93DF936C01D62FC72FFC010581029510
:103A60000F70128111110E9456250E942F25E82EF9
:103A7000882371F01123B1F080E28D0F883090F02F
:103A800082E00E94CD250E942F2591E0E82EE926B4
:103A9000BC2EB2949FE0B922EB2DF0E0E75BFE4C28
:103AA0000C94B830E12CF4CF0C2F0F70C07F11F0C4
:103AB0000295007F1123A9F0002359F080E28D0FB9
:103AC000883010F0D11109C0802F0E9439250E9442
:103AD00082258D2F0E94AE1B14C0802F0E94492585
:103AE000F6CF8D2F0E94B11C002359F080E28D0F7C
:103AF000883010F0D1112CC0802F0E943F250E94E9
:103B000082252B2D2850330B2430310520F40E94C0
:103B1000751A0E94FC06EE2009F4B6C10E942B25FE
:103B200080FDB2C1F60112820E9425250E94AE23BB
:103B3000C6010E944E1F0E942525DF91CF911F9143
:103B40000F91FF90EF90DF90CF90BF900C94CF2318
:103B5000802F0E944F25D3CFFC2FFF70FF2EC07FF8
:103B6000C03219F0F29480EFF822DD2369F0D130F1
:103B700049F1112391F1002351F1F601858180FF74
:103B8000A8CF8F70858323C0112381F0011106C057
:103B90000E9469258F290E94131DB3CF0130C1F700
:103BA0000E9469258F290E946F25ABCF011106C0A5
:103BB0000E9478258F2D0E941A1DA3CF013009F491
:103BC000A0CFF6CF112329F0063008F09ACF8F2D21
:103BD000E2CF053008F095CFEDCF002359F3D9336C
:103BE00049F4FFEF27EE33E0F15020403040E1F799
:103BF00000C000008D2F0E94B11C83CF8C2F8695B2
:103C00008695837069F0813009F07BCF8D2F9C2FD2
:103C10009370111102C090E080E00E94A21A71CF4F
:103C20008D2F9C2F9370111102C090E080E00E94B4
:103C30008C1A67CF8C2F837009F041C0111161CFAE
:103C40004D2F429546954770440F440F0D2F0F702E
:103C500010E030E020E0042E04C0000F111F221FEE
:103C6000331F0A94D2F760E070E0CB01D4FF0FC09D
:103C70006FE070E080E090E004C0660F771F881F5F
:103C8000991F4A95D2F76095709580959095C69545
:103C9000C695C370602B712B822B932BC23049F0D9
:103CA00058F4C13019F00E9460232BCF0E944E239C
:103CB00028CF0E94722325CF0E944C2322CF8695C5
:103CC000112311F08C2F8170882309F41ACF4D2F06
:103CD000429546954770440F440F0D2F0F7010E02A
:103CE00030E020E0042E04C0000F111F221F331FFC
:103CF0000A94D2F760E070E0CB01D4FF0FC06FE010
:103D000070E080E090E004C0660F771F881F991F65
:103D10004A95D2F76095709580959095C695C69511
:103D2000C370602B712B822B932BC23049F058F457
:103D3000C13019F00E942524E4CE0E941324E1CE64
:103D40000E943724DECE0E948823DBCECF70112361
:103D500029F08C2F0E94AE238D2F1DCF8D2F0E9416
:103D60001A1D8C2F0E94CF23CCCED23F89F160F454
:103D7000D03FC9F0D13F29F1112309F442C001110C
:103D8000A8CE8C2F8F7121C0D33F39F1D43FA1F73A
:103D9000112369F1CF718C2F0E94AE2363E08C2F29
:103DA0000E94B825AECE112341F0053008F0A9CE0F
:103DB0008C2F8F710E94F223A4CE063008F0A1CE82
:103DC000F7CF8C2F8F71112369F20E94AE2399CE09
:103DD0008C2F8F711123C9F3C5CF112329F08C2F9C
:103DE0008F710E9499238DCE0E9494238ACE81E008
:103DF0000E94CD25023008F484CE82E00E94CD25B9
:103E000080CE002359F0D93309F0F4CE8FEF97EE2E
:103E1000E3E081509040E040E1F7EACE8C2F8F71D3
:103E2000A1CF4C2F4F706D2FC6010E94AA090E948E
:103E3000C42267CE111165CECF70C230B1F040F40C
:103E4000CC2381F0C13009F05CCE0E943B2859CED2
:103E5000C43089F068F080E0C53009F052CE0E948D
:103E6000AF284FCE0E941D284CCE0E947B2849CE01
:103E70000E94862846CE85E0F2CF4C2F4F706D2FE2
:103E8000C6010E942F053DCEDF91CF911F910F916A
:103E9000FF90EF90DF90CF90BF9008950F931F9306
:103EA000CF93DF93EC018B819C81892B29F0888152
:103EB000998189238F3F29F4DF91CF911F910F9131
:103EC0000895CE010E940E078823B1F3688179819D
:103ED0008A810E94ED248C010E9449240E944B2378
:103EE000B801CE01DF91CF911F910F910C94211D4C
:103EF0000E9456250E9466250E94822590E080E05F
:103F00000E948C1A90E080E00C94A21A0E941F2557
:103F10000C94781F0E9446250C94861FE92FE29589
:103F2000EF70E250EE3070F4F0E0E75AFE4C0C9483
:103F3000B830803F19F020F4883E20F481E00895E5
:103F4000843FE1F380E00895883EC0F3813FD1F7DC
:103F5000F5CF93FB882780F908950E94E3240C9401
:103F60008E1FCF93DF9300D000D00F92CDB7DEB776
:103F70000F900F900F900F900F90DF91CF910895B9
:103F8000CF93DF9300D000D000D0CDB7DEB7269618
:103F90000FB6F894DEBF0FBECDBFDF91CF9108956D
:103FA0001F93CF93DF93C091DF0116E08091E00172
:103FB0008C1304C0DF91CF911F910895D0E01C9F16
:103FC000F0011D9FF00D1124EF51FE4F40815181F2
:103FD00062817381848195810E94C01F2196C77080
:103FE000E5CF40911102509112026091130270913D
:103FF000140280911502909116020C94C01F1F9319
:10400000CF93DF9380911602807FC1F480911302D9
:104010008823A1F08091DF01C091E001609111023D
:10402000709112024091140250911502D62FD7239D
:10403000DA01A095B09516E0C81304C0DF91CF91C6
:104040001F91089590E04115510511F0DF3F31F4C3
:1040500001968770F1CF2A0F3B1F17C0189FF00100
:10406000199FF00D1124EF51FE4F21812713F0CF3E
:1040700020812613EDCF22812111EACF23813481C3
:104080002417350740F3241B350B283C310500F776
:10409000209116022F7020612093160226E0289F9F
:1040A000F001299FF00D1124EA51FE4F80818F709D
:1040B0008061808381E192E00E944E1FDF91CF9169
:1040C0001F910C94D01FBF92CF92DF92EF92FF927C
:1040D0000F931F93CF93DF93CDB7DEB761970FB6E2
:1040E000F894DEBF0FBECDBF8C0185E0F801DE0184
:1040F0001D9601900D928A95E1F7D8014C91119689
:104100005C9111971296EC90129780911402909105
:104110001502009709F47FC120911102309112021B
:10412000622F63236F3F09F476C11396CD90DC9024
:10413000B0901302BB2009F411C1C816D906D0F102
:10414000F601E81BF90BCF01FF24F394883C91059D
:1041500008F0F12C80911602982F907FFF2009F42F
:10416000B8C091117FC0FE2C351329C0241327C07D
:10417000E11025C08F708061809316020E94F11FAC
:1041800081E192E00E944E1F80911602D80115969F
:104190008C938F2D61960FB6F894DEBF0FBECDBF06
:1041A000DF91CF911F910F91FF90EF90DF90CF9013
:1041B000BF900895809590958C0D9D1DC5CFCD28FD
:1041C00029F0852F84238F3F09F041C180E0B82F6B
:1041D000B170DB2E80FF3CC08091DF012091E001B7
:1041E00036E0821315C04D875E878D859E850E94BF
:1041F000E324292F22952F702230F0F0243018F577
:104200009F70F1F0F8019581907FD1F4D12C1EC000
:1042100090E0389FF001399FF00D1124EF51FE4FCF
:104220006181651306C06081641303C06281E61278
:104230000FC001968770D5CF9F7011F0882331F39E
:10424000805E883018F3C8010E944E1FFD2CA1CF5C
:10425000EE2009F49ECF80911602816080931602B1
:10426000F12C97CF351306C0241304C0D801EE20DB
:1042700009F49AC04D875E878D859E850E94AD1F8B
:10428000882319F1EE2009F180911602803270F036
:10429000209111023091120238872F831986DB8614
:1042A000CA868C87CE0107960E944E1F86E0F801D1
:1042B000A1E1B2E001900D928A95E1F70E94FF1F03
:1042C0000E94F11FFF24F39464CFC8010E944E1F87
:1042D000F9CF911113C07C2DD98AC88A6E2D898996
:1042E0000E94B11F81E192E00E944E1F86E0E1E151
:1042F000F2E0DF011D928A95E9F763C0351312C021
:10430000241310C0E1100EC0F8018583C8010E947B
:104310004E1FE1E1F2E086E0DF011D928A95E9F7A8
:10432000FB2C37CF4D875E878D859E850E94AD1F04
:10433000882359F2EE2049F280911602803208F467
:10434000B5CF20911102309112023A8329831B824A
:10435000DD82CC828E83CE010196A6CFC816D90607
:1043600098F1F601E81BF90BCF01F12C883C91057F
:1043700008F049C0FE2CEE2009F4A7CF351332C057
:10438000241330C08091160280FD23C0982F907FA7
:1043900001F1D80115968C931597903F39F0982F1D
:1043A000907F905F8F70892B15968C93C8010E9427
:1043B0004E1F86E0F801A1E1B2E001900D928A95CE
:1043C000E1F70E94F11FE5CE809590958C0D9D1D23
:1043D000CCCF86E0F801A1E1B2E001900D928A9580
:1043E000E1F7D7CE4D875E878D859E850E94AD1FF4
:1043F00081115CCF80911602816080931602C80102
:104400000E944E1FC6CE7C2DD98AC88A6E2D8989FE
:104410000E94B11F6BCFEE2009F457CF4D875E8706
:104420008D859E850E94AD1FF82E882309F44DCFFF
:1044300086E0F801A1E1B2E001900D928A95E1F7E2
:1044400081E192E00E94A91B0E94FF1FBACF81E088
:104450008E25BDCE1F93CF93DF93CDB7DEB72C97BC
:104460000FB6F894DEBF0FBECDBF4F835887698764
:104470007A878B879C87CE0107960E9463208823CA
:1044800069F08A859B85892B39F04F815885842F67
:1044900085238F3F09F071C016E05FC086E0FE0102
:1044A0003796DE01119601900D928A95E1F78A8583
:1044B0009B85892B89F388859F8189238F3F61F3B1
:1044C0002091E00130E0C901019687709927409161
:1044D000DF014817190671F40E948A1F1092E0014B
:1044E0001092DF0186E0E1E1F2E0DF011D928A95A2
:1044F000E9F7D2CF96E0929FD001939FB00D11249F
:10450000AF51BE4FFE01319601900D929A95E1F7A1
:104510008093E0010E94D01FBFCF819FC001112472
:104520008F519E4F0E9463208823E9F0E091DF01C4
:104530001E9FF0011124EF51FE4F40815181628195
:104540007381848195810E94C01F8091DF0190E07A
:104550000196877099278093DF018091DF01909108
:10456000E0018913DACF2C960FB6F894DEBF0FBEA8
:10457000CDBFDF91CF911F91089569857A858B8595
:104580009C850E94C01F88CFEF92FF920F931F93CC
:10459000CF93DF938C01892B81F0F12CEE24E394EF
:1045A000E8012196F8018491843770F4843008F092
:1045B0005FC08130B1F08230A1F1DF91CF911F91C6
:1045C0000F91FF90EF900895853709F44CC008F4DF
:1045D0003DC09CE7980F903780F78F770E94B11C01
:1045E00049C00E5F1F4FFE01849190E2980F9830F2
:1045F00060F48770FE2D01C0FF0F8A95EAF78F2FB8
:104600000E9459250E94822502C00E94AE1B8F2D58
:10461000815030F2EFE9FFE03197F1F700C0000080
:10462000F7CF0E5F1F4FFE01849190E2980F9830F4
:1046300050F48770FE2D01C0FF0F8A95EAF78F2F87
:104640000E945F25DFCF0E94B11CE1CF0E5F1F4F9C
:10465000FE01C491C150D8F28FE99FE00197F1F7B4
:1046600000C00000F7CF0E5F1F4FFE01F490CFCFC8
:104670000E94AE1B8E01CBCF08950C943C230E9468
:104680003D236093430270934402809345029093CC
:1046900046020C94781F08950C943F230F931F93A8
:1046A000009143021091440220914502309146024C
:1046B000602B712B822B932B1F910F910C943F2316
:1046C0000F931F93009143021091440220914502E1
:1046D0003091460260237123822393231F910F910F
:1046E0000C943F230F931F930091430210914402B7
:1046F0002091450230914602602771278227932737
:104700001F910F910C943F230C943C230C94842311
:104710000E94862360933F0270934002809341027F
:10472000909342020C94781F60E070E0CB010C94EF
:1047300088230F931F9341E050E060E070E08A010E
:104740009B0104C0000F111F221F331F8A95D2F74F
:10475000C901B8011F910F910C9488230F931F93E7
:1047600041E050E060E070E004C0440F551F661F58
:10477000771F8A95D2F780913F0290914002A091D5
:104780004102B09142028A019B01082B192B2A2B6E
:104790003B2BC901B8011F910F910C9488230F93F3
:1047A0001F9341E050E060E070E004C0440F551FEB
:1047B000661F771F8A95D2F7CB01BA016095709575
:1047C0008095909500913F02109140022091410206
:1047D0003091420260237123822393231F910F9112
:1047E0000C9488230F931F9341E050E060E070E049
:1047F00004C0440F551F661F771F8A95D2F780911A
:104800003F0290914002A0914102B09142028A0180
:104810009B01082719272A273B27C901B8011F91A7
:104820000F910C9488230F931F9300913F021091D6
:1048300040022091410230914202602B712B822B69
:10484000932B1F910F910C9488230F931F9300912A
:104850003F021091400220914102309142026023B8
:104860007123822393231F910F910C9488230F931C
:104870001F9300913F02109140022091410230911C
:10488000420260277127822793271F910F910C9472
:1048900088230895E92FEE0FE90FEE0F8E0F982F62
:1048A000977041E001C0440F9A95EAF78695869586
:1048B000869595E0899FF0011124E95EFD4F30E077
:1048C00020E070E05191DF011197CB01022E02C070
:1048D000969587950A94E2F78170819585278423C0
:1048E00085278C932F5F3F4F2530310559F7089569
:1048F000E92FEE0FE90FEE0F8E0F982F9770869528
:104900008695869525E0829FF0011124E95EFD4F92
:1049100050E040E080E0219130E0092E02C0369561
:1049200027950A94E2F721703327042E01C0220F45
:104930000A94EAF7822B4F5F5F4F4530510559F7D4
:104940000895BF92CF92DF92EF92FF920F931F9341
:10495000CF93DF938C01C0903F02D0904002E09053
:104960004102F09042028091430290914402A09152
:104970004502B0914602C82AD92AEA2AFB2ACFE189
:10498000D0E0BC2ED701C6010C2E04C0B695A79569
:10499000979587950A94D2F780FD0EC0219788F7E6
:1049A000B12C8B2DDF91CF911F910F91FF90EF9044
:1049B000DF90CF90BF900895B8018C2F0E94AD0971
:1049C000019761F3EECFCF93DF93EC010E94A12416
:1049D000BE01DF91CF910C94AD091F93CF93DF936C
:1049E000EB019091DE01992331F0CB01DF91CF9162
:1049F0001F910C94E324882379F0CB010E94A12419
:104A0000182F682FCE010E944A24BE01812FDF910A
:104A1000CF911F910C94AD09CB010E947824182FDF
:104A2000F4CF682F80913301909134010C94D126FA
:104A3000682F80913301909134010C94D32680919A
:104A40003301909134010C94D526809147028595CD
:104A50008595859508958091470287700895909176
:104A60004702977081E009F480E008958091530235
:104A7000089590915302892B809353020895809555
:104A800090915302982390935302089510925302E9
:104A9000089590915202892B809352020895809537
:104AA00090915202982390935202089510925202CC
:104AB000089590915102892B809351020895809519
:104AC00090915102982390935102089510925102AF
:104AD000089580914802089508950C946C25909152
:104AE0004802981721F0809348020C946D25089590
:104AF00080914802882329F01092480280E00C94AB
:104B00006D250895E0913301F091340180915302B5
:104B10008083E0913301F0913401808190915202C1
:104B2000892B8083E0913301F09134018081909151
:104B30005102892B808390914802992381F0E09162
:104B40003301F09134018081892B8083809133017E
:104B5000909134010E94982681110E9478258091BD
:104B60003301909134010C94811A08950C94B52569
:104B700098E0899F90011124622B609347020E9464
:104B8000AE23809147028595859585950C94B62531
:104B90001092470280E00C94B625909147028095D0
:104BA000892380934702282F277071F4282F082E1D
:104BB000000C330B9217130639F085958595859572
:104BC0000E94CF230C94C82508956FEF7FEF90E0EB
:104BD00080E00C941E3190E080E00E94FA3021E0E9
:104BE0008C3E9E4F09F020E0822F089582E090E0F5
:104BF0000C94EC3083E090E00C94EC30CF9384E0A4
:104C000090E00E94EC30C82F81E290E00E94EC30EE
:104C1000982F8C2FCF910895CF93C92F682F84E0C0
:104C200090E00E9400316C2F81E290E0CF910C94D3
:104C3000003186E090E00C94EC30682F86E090E044
:104C40000C940031AB01BC018FE090E00C94123168
:104C5000AB01BC0183E190E00C94123160E070E0A4
:104C6000CB010C94282660E070E0CB010E94222644
:104C70000C942E266CEE7EEF90E080E00E941E31B8
:104C800060E082E090E00E94003160E083E090E02C
:104C90000E94003110924302109244021092450289
:104CA0001092460260E084E090E00E94003160E0F3
:104CB00081E290E00E94003160E085E090E00E9497
:104CC000003160E086E090E00E9400316FEF87E005
:104CD00090E00E94003140E050E0BA0188E090E0AE
:104CE0000E94123160E08DE090E00E94003140E0CF
:104CF00050E0BA0188E190E00E94123160E087E163
:104D000090E00E94003140E050E0BA018CE190E078
:104D10000E94123160E080E290E00E9400310C9429
:104D200033260C943A26682F8EE090E00C940031E4
:104D30009C012E5F3F4FAC01485F5F4F80E024171E
:104D4000350709F40895F90191919F019923B9F369
:104D50008F5FF5CF9C01FC0132969FEF80E041917F
:104D6000461751F09F3F19F4411101C0982F8F5FF2
:104D70008630A9F79F3F09F40895290F311D97FD4B
:104D80003A95F90162830895FC01329608962191C3
:104D9000261303C0DF0111971C92E817F907B9F732
:104DA00008950C94AA260C94C426029626E0FC01D1
:104DB00011922A95E9F7089508950E945D05809162
:104DC0009702843061F11092550288E190E020E46E
:104DD0000FB6F894A895809360000FBE20936000F2
:104DE00080E00E94870680E00E94FC060E945D052C
:104DF00083B7817F846083BF83B7816083BF7894EA
:104E0000889583B78E7F83BF0FB6F894A89580915D
:104E10006000886180936000109260000FBE08956A
:104E20000895CF930E94DC260E94BF0D0E94102798
:104E3000C0E08C2F0E94700C811105C0CF5FCA307A
:104E4000C1F7CF91089581E0FCCF0E948A1F0E9494
:104E500001280E94751A0E94FC060C945E051F92A0
:104E60001FB61F9211248F939F93AF93BF9380918E
:104E70005502811113C080918C0290918D02A091F6
:104E80008E02B0918F024196A11DB11D80938C02BC
:104E900090938D02A0938E02B0938F02BF91AF9139
:104EA0009F918F911F901FBE1F90189582E084BD27
:104EB00093E095BD9AEF97BD80936E0008952FB74C
:104EC000F89480918C0290918D02A0918E02B09105
:104ED0008F022FBF08952FB7F89460918C027091C4
:104EE0008D0280918E0290918F022FBF0895CF92F4
:104EF000DF92EF92FF920F931F932FB7F894409198
:104F00008C0250918D0260918E0270918F022FBFA2
:104F10006A017B01EE24FF248C0130E020E0C01602
:104F2000D106E206F30650F0481B590BCA011F9147
:104F30000F91FF90EF90DF90CF900895415051096D
:104F4000F3CF78941F921FB61F9211248F939F93D3
:104F5000AF93BF9380918C0290918D02A0918E02AD
:104F6000B0918F020196A11DB11D80938C02909388
:104F70008D02A0938E02B0938F02BF91AF919F914B
:104F80008F911F901FBE1F90189581E08093E000C5
:104F900080E28093D8001092C9008FE19EE40197CF
:104FA000F1F700C0000087E090EBDC018093A002E5
:104FB0009093A102A093A202B093A30288E19CE087
:104FC0000FB6F894A895809360000FBE9093600090
:104FD000FFCF0E94EB25811102C00E9491260E9402
:104FE000F625809354020E94FE25909391028093AF
:104FF00090020E94FA25682F70E090E080E00C9407
:105000004C230E94EB25811102C00E9491260E9430
:10501000192680939202803320F0877088628093F3
:10502000920290919202892F817090FF04C0892F83
:105030008695869586950C94870680919202982F86
:10504000969596959695953040F49F5F990F990F98
:10505000990F8770892B80939202809192028160D0
:10506000809392020E941D268091920286958695D9
:1050700086950C94870680919202982F987F79F0FC
:10508000885080939202887F91E009F490E08091AB
:10509000920290FB80F9809392020E941D268091DB
:1050A00092028695869586950C9487068091920249
:1050B00080FD13C0816080939202813019F489E0F1
:1050C00080939202809192020E941D26809192020A
:1050D0008695869586950C94870608958091920210
:1050E00080FF08C08E7F809392020E941D2680E080
:1050F0000C94870608958091920280FD0C946E288E
:105100000C94562880919202817008959091920299
:10511000892F8695869586958F5F8F7197708630DB
:10512000D8F4880F880F880F892B80939202809182
:105130009202887F91E009F490E08091920290FBC6
:1051400080F9809392020E941D268091920286959A
:10515000869586950C94870690939202E8CF8630C8
:1051600008F085E0982F990F990F990F809192027E
:105170008770892B80939202887F91E009F490E0F8
:105180008091920290FB80F9809392020E941D26EA
:10519000809192028695869586950C9487068091DB
:1051A0009202869586958695089580915E0208956F
:1051B00008950F931F93CF93DF9300D00F92CDB735
:1051C000DEB78C010E94612B823011F0843019F51A
:1051D00084E089831B830A838093E9008FEF909199
:1051E000E800815095FD06C095ED9A95F1F7000015
:1051F0008111F5CF8091E80085FF0DC050E040E0BF
:1052000063E070E0CE0101960E947E2B8091E80061
:105210008E778093E8000F900F900F90DF91CF91E1
:105220001F910F910895CF93DF9300D00F92CDB7C8
:10523000DEB720919702243029F533E03983805876
:1052400091099B838A832093E9008FEF9091E80076
:10525000815095FD06C095ED9A95F1F700008111FA
:10526000F5CF8091E80085FF0DC050E040E063E09D
:1052700070E0CE0101960E947E2B8091E8008E772F
:105280008093E8000F900F900F90DF91CF910895D9
:10529000CF93DF93EC010E94612B823011F08430B8
:1052A00039F581E08093E9008FEF9091E80081501B
:1052B00095FD06C095ED9A95F1F700008111F5CFA7
:1052C0008091E80085FF14C050E040E068E070E0A5
:1052D000CE010E947E2B8091E8008E778093E800BB
:1052E00088E0FE01A6E5B2E001900D928A95E1F713
:1052F000DF91CF910895CF93FC01603221F5809129
:105300009702843001F5C091E900CF702091EC0044
:10531000922F917020FD90E8C92B82E08093E900E4
:105320008091E80080FF0CC050E040E060E270E057
:10533000CF010E947E2B8091E8008E778093E80059
:10534000CF70C093E900CF910895809196028111AA
:1053500009C00E945D2D0E94BA2D8091E2008460F8
:105360008093E2000895109296020895089508959A
:105370000C94252742E061EC81E00E94D92C42E2A6
:1053800061EC84E00E94D92C42E261EC82E00E9450
:10539000D92C42E260EC83E00C94D92C80919902E4
:1053A000833009F461C030F48130D1F1823009F4E6
:1053B0009DC008958A3009F489C08B3009F46FC00C
:1053C000893009F050C080919802813209F04BC0B9
:1053D00080919C0290919D02009719F0029709F02C
:1053E00042C08091E800877F8093E8008091E800C8
:1053F00082FF35C09091F3008091F200029729F46A
:105400008091F1008B7F813021F48091F1008093B5
:105410005E028091E8008B778093E8000C940D2D5C
:1054200080919802813AF9F48091E800877F809317
:10543000E80080919C0290919D02892B61F468E0C4
:1054400086E592E070E00E941C2C8091E8008B774A
:105450008093E800089560E090E080E0F3CF8091D1
:1054600097028111C3CF089580919802813AD9F7AC
:1054700080919C0290919D02892BA9F78091E80070
:10548000877F8093E8008091E80080FFFCCF8091C7
:105490003F018093F1008091E8008E77BDCF80912D
:1054A0009802813201F780919C0290919D02892B94
:1054B000D1F68091E800877F8093E8000E940D2D4F
:1054C00080919A0280933F010C948A1F80919802E8
:1054D000813249F68091E800877F8093E8000E943E
:1054E0000D2D80919B0280935F0208958091980218
:1054F000813A09F0B8CF8091E800877F8093E80077
:105500008091E80080FFFCCF80915F02C2CFCDB7D1
:10551000DEB7A0970FB6F894DEBF0FBECDBF84B73D
:10552000877F84BF0FB6F894A8958091600088614A
:1055300080936000109260000FBE80E8809361004D
:10554000109261000E94C51A0E945D2D0E94BA2D22
:105550008091E20084608093E20078940E9443305E
:105560000E94CB1A85E391E00E94701A13E08091AB
:105570009702853049F10E94D71A0E94B714809192
:1055800097028430A1F71093E9008091E80082FF30
:10559000EECF8091E80090E085FF09C050E040E048
:1055A00060E270E0CE0101960E94CD2B91E08091E7
:1055B000E8008B778093E8009923C9F260E2CE017E
:1055C00001960E942604D3CF0E94DD268091950289
:1055D000882369F20E941127882349F20E94682BD0
:1055E000C6CF0C94F32A292F33272330310521F11C
:1055F00068F42130310509F449C02230310509F43D
:105600004AC090E080E030E020E029C0213231053E
:1056100081F122323105A9F76330710590F7FB0162
:10562000EE0FFF1FE258FE4F2081318165587E4FFB
:10563000FB01808190E013C099278130910599F09A
:10564000009741F08230910589F00397D1F6E3E2AB
:10565000F6E002C0E7E5F6E0849190E09F01FA01F0
:10566000318320830895E7E4F6E0F6CFE9E2F6E03F
:10567000F3CF6330710528F6660F771FFB01EC57F7
:10568000FE4F2081318189E090E0E9CF82E190E016
:1056900026EB36E0E4CF8BE590E02BE536E0DFCF7C
:1056A0000895CF93C82F0E94502BC0936002CF91D2
:1056B000089580919702843011F482E0089581E08A
:1056C000089580916002811102C00C94592B0895B5
:1056D00080E189BD82E189BD09B400FEFDCF8091E2
:1056E000D8008F7D8093D8008091E0008260809305
:1056F000E0008091E00081FDFCCF0895AF92BF9261
:10570000CF92DF92FF920F931F93CF93DF936C01A1
:10571000EB018A010E942C2DF82E811123C0011566
:10572000110539F0F80180819181C81BD90BC80E91
:10573000D91EB12CA12C2097A9F08091E80085FDFD
:1057400022C08091E8008E778093E8000115110552
:10575000A1F0F80180819181A80EB91EB182A082CA
:1057600085E0F82E8F2DDF91CF911F910F91FF9043
:10577000DF90CF90BF90AF9008950E942C2D88238A
:10578000D1F2F82EEFCFF60181916F018093F100F5
:105790002197FFEFAF1ABF0ACECFAF92BF92CF9241
:1057A000DF92FF920F931F93CF93DF936C01EB0176
:1057B0008A010E942C2DF82E811123C0011511059C
:1057C00039F0F80180819181C81BD90BC80ED91E10
:1057D000B12CA12C2097A9F08091E80085FD22C072
:1057E0008091E8008B778093E80001151105A1F006
:1057F000F80180819181A80EB91EB182A08285E056
:10580000F82E8F2DDF91CF911F910F91FF90DF9098
:10581000CF90BF90AF9008950E942C2D8823D1F295
:10582000F82EEFCF8091F100F60181936F0121975F
:10583000FFEFAF1ABF0ACECFFC0180919E0290917C
:105840009F0286179707A0F06115710529F49091C2
:10585000E8009E779093E80090E06115710551F49F
:10586000911108C08091E80082FF34C080E0089563
:10587000BC01F2CF809197028823C1F18530C1F13C
:105880008091E80083FD30C08091E80082FDEACF7E
:105890008091E80080FFE1CF8091F3002091F20039
:1058A000382F6115710519F02830310558F091E055
:1058B0002830310509F090E02091E8002E77209300
:1058C000E800CBCF81918093F100615071092F5F87
:1058D0003F4FE7CF80919702882341F0853041F018
:1058E0008091E80083FFBECF81E0089582E00895B3
:1058F00083E00895FC0180919E0290919F0286179B
:105900009707A0F06115710529F48091E8008E7762
:105910008093E80090E06115710551F4911108C081
:105920008091E80082FF35C080E00895BC01F2CF8D
:10593000809197028823C9F18530C9F18091E800F0
:1059400083FD31C08091E80082FDEACF8091E800BC
:1059500080FFE1CF8091F3002091F200382F611594
:10596000710519F02830310558F091E028303105E3
:1059700009F090E08091E8008E778093E800CBCF2B
:1059800084918093F1003196615071092F5F3F4FF0
:10599000E6CF80919702882341F0853041F08091D5
:1059A000E80083FFBDCF81E0089582E0089583E0A1
:1059B0000895982F973028F08F708093E90081E048
:1059C00008959093E900242F762F50E0981731F036
:1059D0007091EC002091ED005091F00021FD02C08B
:1059E0009F5FE8CF3091EB003E7F3093EB0030912A
:1059F000ED003D7F3093ED003091EB00316030934E
:105A0000EB007093EC002093ED005093F000209198
:105A1000EE0027FDE5CF80E008958091980287FF92
:105A200013C08091E80082FF06C08091E8008B7768
:105A30008093E80004C0809197028111F2CF08950D
:105A4000809197028823D9F38091E80080FFF8CFF6
:105A50008091E8008E77ECCF2091E4003091E50052
:105A600095E6A9012091EC00822F817020FF06C0ED
:105A70008091E80080FF06C080E008952091E80052
:105A800022FD1AC080919702882389F0853089F021
:105A90008091EB0085FD0FC02091E4003091E5007E
:105AA00042175307F9F29150E1F684E0089582E03D
:105AB000089583E0089581E008950E94CB2D0E940F
:105AC000D32DE0EEF0E0808181608083E8EDF0E0AE
:105AD00080818F77808319BCA7EDB0E08C918E7F99
