:100000000C9481020C94C8020C94C8020C94C8028F
:100010000C94C8020C94C8020C94C8020C94C80238
:100020000C94C8020C94C8020C94591E0C94151E12
:100030000C94A4230C94C8020C94C8020C94C8021B
:100040000C94C8020C94C8020C94C8020C94C80208
:100050000C94C8020C9480230C94C8020C94C8021F
:100060000C94C8020C94C8020C94C8020C94C802E8
:100070000C94C8020C94C8020C94C8020C94C802D8
:100080000C94CB230C94C8020C94C8020C94C802A4
:100090000C94C8020C94C8020C94C8020C94C802B8
:1000A0000C94C8020C94C8020C94C8020763423630
:1000B000B79BD8A71A39685618AEBAAB558C1D3CF9
:1000C000B7CC5763BD6DEDFD753EF6177231BF00BD
:1000D0000000803F08000000BE922449123EABAAF7
:1000E000AA2ABECDCCCC4C3E00000080BEABAAAA52
:1000F000AA3E00000000BF000000803F000000009A
:1001000000084178D3BB4387D1133D190E3CC3BDD2
:100110004282AD2B3E68EC8276BED98FE1A93E4C7F
:1001200080EFFFBE01C4FF7F3F00000000000631EA
:10013000FF0974A1010975150026FF0095207508B7
:1001400081020976150026FF00952075089102C0EE
:1001500005010980A101850319012AB700150126AF
:10016000B700950175108100C0050C0901A101853A
:100170000419012AA002150126A00295017510811B
:1001800000C00660FF0961A1010962150026FF0099
:100190009520750881020963150026FF00952075DA
:1001A000089102C005010906A101050719E029E728
:1001B00015002501950875018102950175088101D9
:1001C0000507190029FF150026FF0095067508810F
:1001D000000508190129059505750191029501751C
:1001E000039101C02A002A002E002D0027002600BE
:1001F0002500240023002200210020001F001E00F3
:10020000310030002F00130012000C0018001C00F9
:100210001700150008001A0014002B002800280001
:10022000340033000F000E000D000B000A0009001F
:100230000700160004003900E500E500380037002B
:100240003600100011000500190006001B001D00FB
:10025000E100E100E4006500E700E60000000000C6
:100260002C000000000000003500E200E300E00088
:100270002A002A002E002D00270026002500240039
:1002800023002200210020001F001E00310030004A
:100290002F00130012000C0018001C00170015009E
:1002A00008001A0014002B00280028003400330036
:1002B0000F000E000D000B000A00090007001600D9
:1002C00004003900E500E500380037003600100072
:1002D00011000500190006001B001D00E100E100EF
:1002E000E4006500E700E600000000002C000000CC
:1002F000000000003500E200E300E0000000000024
:1003000000000000000000000000000000000000ED
:1003100000000000000000000000000000000000DD
:100320007E0F00D4FFFFFFC7000000780000000030
:10033000000000002A2B2800000000000000000040
:100340000000000000000029000000002C1E3420E6
:10035000212224342627252E362D3738271E1F200C
:100360002122232425263333362E37381F04050651
:100370000708090A0B0C0D0E0F1011121314151695
:100380001718191A1B1C1D2F3130232D3504050693
:100390000708090A0B0C0D0E0F1011121314151675
:1003A0001718191A1B1C1D2F3130354C4445425566
:1003B000473A2064697361626C65642E0A004445A3
:1003C0004255473A20656E61626C65642E0A000AE8
:1003D000002530325820006B6579626F6172645F6E
:1003E0007265706F72743A20000A002530313662EF
:1003F000003A200025303258000A722F6320303135
:1004000032333435363738394142434445460A00A1
:100410000A0025303258006B6579626F6172645F43
:100420007365745F6C65643A20005B735D004B65B7
:1004300079626F6172642073746172742E0A005B5A
:10044000435D005B445D005B535D005B575D005B9B
:10045000525D0009027B00040100A0FA09040000BB
:1004600001030101000921110100012240000705DB
:10047000810308000A0904010002030000000921A9
:100480001101000122220007058203200001070557
:1004900003032000010904020001030000000921F8
:1004A000110100012232000705840320000A09041B
:1004B00003000203000000092111010001222200B3
:1004C000070585032000010705050320000112012F
:1004D00010010000000810CB3713010001020001D9
:1004E0000C035700540046003600300000000E0395
:1004F0004B0065006500620069006F0000000403A6
:10050000090411241FBECFEFDAE0DEBFCDBF04B671
:1005100003FE27C080913C0590913D05A0913E05CA
:10052000B0913F058730904BA740B04BD1F410926B
:100530003C0510923D0510923E0510923F0514BEF9
:1005400084B7877F84BF0FB6F894A8958091600028
:10055000886180936000109260000FBEE0E0F8E3D5
:10056000099513E0A0E0B1E0E6E2F4E502C00590F1
:100570000D92AA3FB107D9F725E0AAEFB3E001C079
:100580001D92AC33B207E1F70E94861F0C94DA2962
:100590000C940000FF93EF93E091FA03F091FB03BA
:1005A000309709F00995EF91FF910895FC0185912D
:1005B000803011F0EFDFFBCF0895FF27E0E230E25B
:1005C00047FF0CC0419597FF09C0EDE2609570951B
:1005D00080959095611D711D811D911D27FF02C0A1
:1005E000219530E350E2AA27660F771F881F991FD5
:1005F000AA1FA41710F0A41B63955A95A9F7AA3057
:1006000008F0A95FA05DAF93F395611571058105B1
:10061000910541F7ED3211F4EF93F395F21718F4C9
:100620003F93F395FBCF8F91B5DFFA95E1F70895EE
:10063000E991F9918591803021F0853219F0AADF96
:10064000F9CF089520E0E89455915532C1F3503325
:1006500011F4689455915A3348F4505390F3220F93
:10066000022E220F220F200D250FF4CF0EF421951C
:1006700089919991533619F3533729F1533559F12B
:10068000BC0188279927E8945C3621F489919991D7
:1006900068945591543639F446EF7EF077FF0DC0DB
:1006A0008FEF9FEF0AC055374AE039F0583540E1E7
:1006B00021F0523642E009F00895FF93EF937DDF79
:1006C000EF91FF91B7CFFF93EF93FC0181918030C1
:1006D000B9F360DFFBCFFF93EF9368DFF1CFDF93D8
:1006E000CF93CDB7DEB72596A3DFCF91DF910895E5
:1006F000CF92DF92EF92FF92E0913705EE2309F15E
:10070000E15088E0E802F0011124E950FB4FC2807B
:10071000D380E480F58020E030E0A901C701B60174
:100720000E94232618166CF48091F604811102C0F1
:100730001092F504C701B601FF90EF90DF90CF90C3
:100740000895C12CD12C7601F5CFE8EDF0E0808141
:100750008E7F80831092E2001092DA001092E10006
:10076000A0EEB0E08C9181608C9380818F77808344
:1007700019BCA7EDB0E08C918E7F8C9380818F7E29
:1007800080831092CB0408952091E4003091E5001D
:1007900095E6A9012091EC00822F817020FF06C010
:1007A0008091E80080FF06C080E008952091E80075
:1007B00022FD1AC08091D804882389F0853089F001
:1007C0008091EB0085FD0FC02091E4003091E500A1
:1007D00042175307F9F29150E1F684E0089582E060
:1007E000089583E0089581E00895EF92FF920F93BA
:1007F0001F93CF937C018B010E94C403C82F8111EA
:1008000017C08091E80085FD0BC08091E8008E77CD
:100810008093E8000E94C403882399F3C82F08C07E
:10082000F70181917F018093F1000150110949F78F
:100830008C2FCF911F910F91FF90EF900895809191
:10084000DA0487FF13C08091E80082FF06C0809120
:10085000E8008B778093E80004C08091D804811170
:10086000F2CF08958091D8048823D9F38091E800CD
:1008700080FFF8CF8091E8008E77ECCF982F90938F
:10088000E900242F762F50E0891731F07091EC00A9
:100890002091ED005091F00021FD07C09F5F97303F
:1008A00071F78093E90081E008953091EB003E7F7D
:1008B0003093EB003091ED003D7F3093ED003091AF
:1008C000EB0031603093EB007093EC002093ED006F
:1008D0005093F0002091EE0027FDE0CF80E00895D6
:1008E000CF92DF92EF92FF920F931F93CF93DF93FC
:1008F000C8EDD0E088818F7E8883E7EDF0E08081CD
:100900008160808384E082BF81E08093CB04888112
:100910008E7F888302EE10E0F80110821092DA00D8
:1009200081EEC82ED12CF601108288818F778883C2
:1009300088818068888388818F7D888319BC109224
:10094000D8041092D9041092D7041092D60490EED5
:10095000E92EF12CF70180818B7F80838881816073
:10096000888342E060E080E00E943E04F6018081DE
:100970008E7F8083F80180818160808380818860A0
:100980008083F70180818E7F808388818061888366
:10099000DF91CF911F910F91FF90EF90DF90CF905B
:1009A0000895FC018091E0049091E1048617970777
:1009B000A0F06115710529F49091E8009E7790935D
:1009C000E80090E06115710551F4911108C0809123
:1009D000E80082FF34C080E00895BC01F2CF80912E
:1009E000D8048823C1F18530C1F18091E80083FDEE
:1009F00030C08091E80082FDEACF8091E80080FF5E
:100A0000E1CF8091F3002091F200382F611571053C
:100A100019F02830310558F091E02830310509F0FF
:100A200090E02091E8002E772093E800CBCF8191D1
:100A30008093F100615071092F5F3F4FE7CF8091A4
:100A4000D804882341F0853041F08091E80083FF8D
:100A5000BECF81E0089582E0089583E0089508956F
:100A60008091CD0408959C014FB7F8948091C504FE
:100A70009091C604A091C704B091C8044FBF821BD7
:100A8000930B08952FB7F8948091C5049091C604F4
:100A9000A091C704B091C8042FBF089580919A0413
:100AA000811110929A040895EEEFF3E09191891369
:100AB00003C0DF0111971C9294E0E430F907B1F70D
:100AC0000895AEEFB3E0EFEF90E02D91821751F073
:100AD000EF3F19F4211101C0E92F9F5F9630A9F76C
:100AE000EF3F09F408950E2E000CFF0BE450FC4F6D
:100AF000828308952EE0929F800D1124982F977085
:100B000086958695869525E0829FF0011124E75908
:100B1000FB4F50E040E080E0219130E0092E02C020
:100B2000369527950A94E2F721703327042E01C0E9
:100B3000220F0A94EAF7822B4F5F5F4F4530510531
:100B400059F708952EE0929F800D1124982F9770E9
:100B500041E001C0440F9A95EAF7869586958695FF
:100B600095E0899FF0011124E759FB4F90E080E068
:100B700070E05191DF0111979B01082E02C036955C
:100B800027950A94E2F7217021952527242325270C
:100B90002C9301968530910561F708958091680442
:100BA00090913704981301C008958F5F8770FACF32
:100BB00020911504309116042817390771F090938D
:100BC000160480931504E091AC04F091AD043097C5
:100BD00021F00084F185E02D0994089520911304FB
:100BE000309114042817390771F0909314048093FE
:100BF0001304E091AC04F091AD04309721F006802D
:100C0000F781E02D09940895E091AC04F091AD04D2
:100C1000309721F00190F081E02D099480E0089553
:100C2000E1E7F0E080818D7F8083E0E9F0E0808182
:100C30008F7380830895CF92DF92EF92FF926B01C2
:100C40007C0120E030E0A9010E94232681110AC026
:100C5000809190008F7380939000FF90EF90DF90D1
:100C6000CF90089580919000806880939000C0920A
:100C70000B04D0920C04E0920D04F0920E0420E0DC
:100C800030E040E051E4C701B6010E947B279B01A0
:100C9000AC0160E074E284E79BE40E9428266B01CB
:100CA0007C010E949A26709397006093960020E042
:100CB00030E048E452E4C701B6010E947B2720E0FF
:100CC00030E048EC52E40E9428260E949A26709355
:100CD000990060939800C1CF80913801811122C0A2
:100CE000109237050E9410061092F1041092F2043F
:100CF0001092E6041092E504E7EFF4E080E090E063
:100D0000A0E8BFEB1182108282839383A483B58312
:100D100017821682389625E0E733F20799F781E0CB
:100D200080933801089580912F0481110C946C06F2
:100D30000895F894E82FE295EF70F0E031A1282FA4
:100D40002F7081E090E001C0880F2A95EAF7982F74
:100D50009095932391A392A1892B82A378940895CF
:100D60009091AA0492FF06C0282F28712830F9F428
:100D7000877F846093FF06C0282F28712831F1F403
:100D8000877E84612091AB0420FF06C0382F387124
:100D90003830D9F4877F816021FF06C0282F287161
:100DA0002831D1F4877E816194FD877E0895282FB4
:100DB00024712430F9F68B7F8860DCCF282F2471D2
:100DC000243101F78B7E8861DDCF382F31713130CE
:100DD00019F78E7F8860E0CF282F2171213121F70C
:100DE0008E7E8861E1CF829590E09C01220F331FB7
:100DF000220F331F2C7C9595879595958795837346
:100E0000282B30E0C901880F991F8A7A35952795DC
:100E10002575822B0895CF9384E090E00E94E12510
:100E2000C82F81E290E00E94E125982F8C2FCF916E
:100E300008950F931F93CF93DF93C42FD0E0CC0F6F
:100E4000DD1F2CE1629FC00DD11D11243CE8839F62
:100E5000C00DD11D1124CE0186960E94E125082FD8
:100E600010E0102F0027CE0187960E94E1259801FF
:100E7000282BC901DF91CF911F910F910895462F23
:100E8000843038F4753028F46E3018F4672F0C94E1
:100E9000190790E080E00895CF93DF930E943F0709
:100EA000EC0182389105A9F1D8F58133910509F457
:100EB00096C048F58932910509F48AC08A9709F4E9
:100EC00095C0C11522E5D20708F0B6C0C11531E5BD
:100ED000D30708F026C1C83ED10508F09CC0C13E2A
:100EE000D10560F5C83AD10508F087C0C53AD105EB
:100EF00008F0EFC0C130D10509F12097F9F0C430F6
:100F0000D105E0F440C08533910509F45AC0C99772
:100F1000C1F68091AA04837089F0C0EED0E00EC0C3
:100F2000833E910599F170F4803E910501F1823E76
:100F3000910539F68091AA0482FD21C0CE01DF918E
:100F4000CF910895863E910561F1873E910571F13B
:100F5000843E910509F0B5CF8091AB0481FFEECFBF
:100F60008091AA04C7EED0E084FD0DC0E7CF809148
:100F7000AA0480FD07C19091AB0490FFDFCFC3EEC0
:100F8000D0E084FFDBCFD0E0C0E0D8CF8091AA04CE
:100F900082FDFBC09091AB0490FDBFCF84FFCECF0C
:100FA000F2CF8091AA0483FDDDCFC8CF8091AA043F
:100FB00083FDEEC09091AB0491FFF0CFC4EED0E082
:100FC000BDCF8091AA0485FFB9CFC9E2D0E0B6CFEA
:100FD0008091AA0485FFB2CFC5E3D0E0AFCF809166
:100FE000AA0486FFABCFCAE2D0E0A8CF8091AA04C2
:100FF00086FFA4CFC1E3D0E0A1CFCF3BD10518F647
:10100000C85AD0E0CC0FDD1FCB55DC4F0990D881FA
:10101000C02DD46493CFC11540E5D40708F064C057
:10102000C11580E4D80708F05CC0CE019A958115FF
:101030009F4108F483CFA7CFC11536E5D30718F534
:10104000C11545E5D40708F084C0C11584E5D8076B
:1010500008F07AC09C2F969596959E0123703327B1
:10106000C115D34508F462C0C1E0D0E002C0CC0F86
:10107000DD1F2A95E2F730E2939FC0011124C82BAF
:10108000D92BDA685BCFC1158AE5D80778F4C1158A
:1010900099E5D90708F068C0C11528E5D20708F41A
:1010A00072CFDC2FCC27C06FD06A48CFCE019056CC
:1010B0008115904208F067CF8D2F8F710E94B00686
:1010C00090E0982F882788279F719C012C2BE9019D
:1010D00049C0C55AD0E0CE55DC4FC881D0E0D064BD
:1010E0002DCFDF70D06A2ACFCE01E4E096958795A8
:1010F000EA95E1F783702C2F26952695237040E220
:10110000249F90011124382B8C2F8370C1E0D0E0F4
:1011100002C0CC0FDD1F8A95E2F7C22BD32BDC680F
:101120000DCFDC2FCC27C16FD06A08CFC1E0D0E053
:1011300002C0CC0FDD1F2A95E2F720E2929FC0018A
:101140001124C82BD92BEBCFDC2FCC27C46FD06A4E
:10115000F5CE8C2F0E94B006C82FD0E0DC2FCC2714
:10116000CC27DF71D062EACE8C2F8F700E94B00640
:1011700034E0D695C7953A95E1F7CF709C2FEC01F6
:10118000D069DCCEC9E3D0E0D9CEC2EED0E0D6CE75
:10119000C6EED0E0D3CEBF92CF92DF92EF92FF9215
:1011A0000F931F93CF93DF938C01C0903805D0909D
:1011B0003905E0903A05F0903B0580919B049091B1
:1011C0009C04A0919D04B0919E04C82AD92AEA2AC1
:1011D000FB2ACFE1D0E0BC2ED701C6010C2E04C003
:1011E000B695A795979587950A94D2F780FD0EC07E
:1011F000219788F7B12C8B2DDF91CF911F910F9103
:10120000FF90EF90DF90CF90BF900895B8018C2FA2
:101210000E944C07019761F3EECFCF93DF93EC016F
:101220000E94CB08BE01DF91CF910C944C070E9425
:101230000D09292F2F7092959F7092509E3078F44F
:10124000E92FF0E0E452F64D0C94B125803F19F0FF
:1012500020F4883E20F481E00895843FE1F380E0AB
:101260000895883EC0F3813FD1F7F5CF822F869550
:101270008695869508956F927F928F929F92AF92F6
:10128000BF92CF92DF92EF92FF920F931F93CF9373
:10129000DF9384EEC82E81E0D82E9EECE92EF12C4F
:1012A000E701CC58D10936011BC0F5018590949017
:1012B000692DC8010E94EF25682DC80101960E9482
:1012C000EF2582E0A80EB11C0E5F1F4FC017D1079B
:1012D00061F78CE1680E711C6C96CE15DF0529F064
:1012E0008E010C5111095301E0CF7E018CE8E80E0C
:1012F000F11C8CE8C80ED11C8EEFE81682E0F806CF
:1013000079F6DF91CF911F910F91FF90EF90DF90D1
:10131000CF90BF90AF909F908F907F906F900895E7
:10132000CF93DF93C6E5D2E060E0CE010E94EF25C7
:101330002196C11584E0D807B9F7DF91CF910895C0
:10134000EF92FF920F931F93CF93DF9380919904B5
:1013500090919804892B90919704892B8093FC039A
:1013600090919A04992391F0892B8093FC0320E0BB
:101370008EEF93E0FC013191CF0131112F5FF4E04A
:1013800084309F07B9F721110E944E05E091AC040B
:10139000F091AD043097C9F10280F381E02D8CEF1C
:1013A00093E009958091B00482FF2FC080FF04C0B4
:1013B00087ED93E00E94D602CCEFD3E084E0E82EE4
:1013C00084E0F82E01ED13E08091B00480FF0BC0A3
:1013D00088811F928F931F930F930E946F030F902A
:1013E0000F900F900F902196EC16FD0669F78091F3
:1013F000B00480FF0AC08FEC93E0DF91CF911F9182
:101400000F91FF90EF900C94D602DF91CF911F9136
:101410000F91FF90EF90089590E080E00E94EE051C
:1014200090E080E00E94D8051092980410929704F2
:101430000C94A009609338057093390580933A05A0
:1014400090933B050C940C0A0F931F936091380501
:101450007091390580913A0590913B058B019C0173
:101460000670112722273327063011052105310583
:1014700029F468601F910F910C941A0A677FFACFC4
:101480000F931F9341E050E060E070E004C0440F10
:10149000551F661F771F8A95D2F7CB01BA01609559
:1014A000709580959095009138051091390520919F
:1014B0003A0530913B0560237123822393231F91CA
:1014C0000F910C941A0A9091960480958923809329
:1014D0009604282F277071F4282F082E000C330B48
:1014E0009217130639F08595859585950E94400AD7
:1014F0001092960408950F931F9341E050E060E02E
:1015000070E004C0440F551F661F771F8A95D2F7FD
:101510008091380590913905A0913A05B0913B052D
:101520008A019B01082B192B2A2B3B2BC901B801DF
:101530001F910F910C941A0A60939B0470939C0462
:1015400080939D0490939E040C940C0A882341F090
:101550008095909199048923809399040C94A00913
:101560000895882339F090919904982B90939904C9
:101570000C94A0090895882309F452C0823871F4AC
:101580000E94040681FF4CC089E30E9461050E940D
:10159000A00989E30E9454050C94A009833859F4EA
:1015A0000E94040680FF3CC083E50E9461050E9402
:1015B000A00983E5EFCF843859F40E94040682FF26
:1015C0002FC087E40E9461050E94A00987E4E2CF52
:1015D0009CEF980F913AF0F290E2980F983088F4CF
:1015E000877021E030E0A90102C0440F551F8A95A1
:1015F000E2F7CA0180959091990489238093990418
:10160000CBCF9BE5980F933020F490E080E00C94D2
:10161000EE05885A873120F490E080E00C94D805DC
:1016200008959FB7F8941092C9049FBF9091D80471
:10163000943009F048C02091E9002F703091EC00FF
:10164000932F917030FD90E8922B25E02093E900D4
:101650002091EB0020FF34C02091EE0027FF30C026
:1016600020919F04222321F02091E80025FF28C02B
:1016700010929F0426E03091E80035FF14C080935B
:10168000F1008091E80085FD27C08091E80080FF8F
:10169000FCCF8091E8008E778093E8009F70909354
:1016A000E90080E008953091D804343049F4309155
:1016B000EB0035FD05C0215041F481E080939F048B
:1016C0009F709093E9008FEF0895EFE9FFE0319765
:1016D000F1F700C00000CFCF8FB7F89421E020933E
:1016E000C9048FBFDBCFCF93DF9300D00F92CDB76C
:1016F000DEB79091D804943011F589837B836A8397
:101700009093E9008FEF9091E800815095FD06C01D
:1017100095ED9A95F1F700008111F5CF8091E800E1
:1017200085FF0DC050E040E063E070E0CE0101961F
:101730000E94F5038091E8008E778093E8000F9077
:101740000F900F90DF91CF910895BC0184E00C942D
:10175000730BBC0183E00C94730BCF93DF93EC010C
:1017600081E08093E9008FEF9091E800815095FD32
:1017700006C095ED9A95F1F700008111F5CF8091A3
:10178000E80085FF14C050E040E068E070E0CE0162
:101790000E94F5038091E8008E778093E80088E04E
:1017A000FE01AEECB4E001900D928A95E1F7DF9175
:1017B000CF91089581E08093E00080E28093D8008B
:1017C0001092C9008FE19EE40197F1F700C000007C
:1017D00087E090EBDC0180933C0590933D05A0935E
:1017E0003E05B0933F0588E19CE00FB6F894A895BC
:1017F000809360000FBE90936000FFCFCF93C82FFF
:10180000882309F488C08238C1F40E94040681FD4F
:1018100082C089E30E9461050E94A0092FEF81EE3A
:1018200094E0215080409040E1F700C0000089E33F
:101830000E945405CF910C94A0098338A1F40E9412
:10184000040680FD68C083E50E9461050E94A0092E
:101850002FEF81EE94E0215080409040E1F700C0EE
:10186000000083E5E5CF8438A1F40E94040682FDE0
:1018700052C087E40E9461050E94A0092FEF81EE0B
:1018800094E0215080409040E1F700C0000087E4E0
:10189000CFCF8CEF8C0F813A68F4EEEFF3E08191BB
:1018A000C81799F124E0E430F207C9F78C2F0E94A1
:1018B0006105C0CF80E28C0F883068F4C77021E0EA
:1018C00030E001C0220FCA95EAF780919904822B7B
:1018D00080939904AFCFEBE5EC0FE33040F4F0E0F8
:1018E000EE55FC4F808190E0CF910C94EE05C85AE4
:1018F000C73188F4EC2FF0E0EE0FFF1FEB55FC4FE3
:1019000080819181CF910C94D8058C2F0E94540531
:101910000E94A009CBCFCF9108951F93CF93DF935F
:10192000182FD0E0C0E0893311F4C0E5D0E0812F5A
:101930000E94FE0B209731F4812FDF91CF911F91F0
:101940000C94BB0A8FE99FE00197F1F700C00000FB
:101950002197F0CF0F931F93CF93DF93C62FD42FF0
:10196000022FFC0182818823A1F06093E4040E948D
:1019700042059093E3048093E204C77081E001C0C4
:10198000880FCA95EAF7DF91CF911F910F910C94C0
:10199000B10A8091E404681335C08091E20490910B
:1019A000E3040E943305883C910560F510E21D0FA9
:1019B000CD17B9F080E28C0F883040F4C77081E019
:1019C00001C0880FCA95EAF70E94A60A183048F4A9
:1019D00081E09D2F977001C0880F9A95EAF70E94C9
:1019E000B10A802F0E948D0C183098F4D77081E0D6
:1019F00001C0880FDA95EAF7DF91CF911F910F911F
:101A00000C94A60AC77081E001C0880FCA95EAF756
:101A1000F3CFDF91CF911F910F9108956BEE7EEF81
:101A200090E080E00E940D2660E082E090E00E945D
:101A3000EF2560E083E090E00E94EF2510929B0488
:101A400010929C0410929D0410929E0460E084E029
:101A500090E00E94EF2560E081E290E00E94EF2597
:101A600060E085E090E00E94EF2560E086E090E095
:101A70000E94EF256FEF87E090E00E94EF2540E0A5
:101A800050E0BA0188E090E00E94012660E08DE01D
:101A900090E00E94EF2540E050E0BA0188E190E03C
:101AA0000E94012660E087E190E00E94EF2540E07F
:101AB00050E0BA018CE190E00E94012660E080E2F3
:101AC00090E00E94EF2540E050E0BA0188E190E00C
:101AD0000E94012640E050E0BA018FE090E00E94B1
:101AE000012640E050E0BA0183E190E00C94012629
:101AF0008091F304811134C090E080E00E94E925D8
:101B00008B3E9E4F11F00E940E0D87E090E00E94E8
:101B1000E1258093F404E7EFF4E080E090E0A0E8B2
:101B2000BFEB1182108282839383A483B5831782D3
:101B30001682389625E0E733F20799F78091F3048F
:101B400081110CC00E9410063E9A82E080939000A2
:101B50008AE18093910081E08093F3040C946C06F9
:101B600008957F928F929F92AF92BF92CF92DF9211
:101B7000EF92FF920F931F93CF93DF934B015C0182
:101B80007A018091F40480FF81C08091F304811177
:101B900002C00E94780D20E030E0A901C501B40127
:101BA0000E94232687FF04C0B7FAB094B7F8B09418
:101BB00070903705872D8150990B6C01EC01CF3F58
:101BC000DC0709F04DC081E0870D893008F485C03D
:101BD00088E08093370587EF94E028E0FC01389691
:101BE000DC0101900D922A95E1F7089625E08F32ED
:101BF000920799F781E080930A048093F204C091E0
:101C00003705C150DD0B0E944205FE0123E0EE0FB7
:101C1000FF1F2A95E1F7E950FB4F91838083828271
:101C20009382A482B582F782E6820E944205809167
:101C30003801882359F1809171008260809371008E
:101C4000809190008068809390008091F2048823B6
:101C500021F00E9478030E941B061092380116C0E2
:101C60008E0133E0000F111F3A95E1F709501B4F29
:101C7000A5019401F80162817381848195810E949C
:101C80002326811128C0CC15DD0574F0DF91CF919A
:101C90001F910F91FF90EF90DF90CF90BF90AF908A
:101CA0009F908F907F900895219688E0F801389654
:101CB000D80101900D928A95E1F70E944205F80142
:101CC0009187808782869386A486B586F786E68686
:101CD000085F1F4FD8CF219772CF809337058ACFE7
:101CE000CF92DF92EF92FF92CF93DF93EC017B01D3
:101CF0008091F40480FD08C0DF91CF91FF90EF90B8
:101D0000DF90CF900C946C068091F304811102C097
:101D10000E94780D8091F20481110E946C0681E08E
:101D20008093F1041092F004D093EF04C093EE047A
:101D3000F092ED04E092EC041092EB041092EA04AD
:101D40001092E9046C817D818E819F810E949A2688
:101D50009B01A0E6BAEE0E94BE25C12C2EE1D22E38
:101D6000E12CF12CA70196010E948F2568817981D1
:101D70008A819B81A9010E94B10D0E944205909326
:101D8000E8048093E704E091EE04F091EF04809181
:101D9000E9049091EA0433E0880F991F3A95E1F73E
:101DA000E80FF91F64817581868197810E949A26C8
:101DB0009B01A0E6BAEE0E94BE25A70196010E94F3
:101DC0008F253093E6042093E504DF91CF91FF90B7
:101DD000EF90DF90CF90089581E080932E0468E02B
:101DE00070E089EB91E00C94700E0E9493061092C3
:101DF0002F0468E070E089E791E00C94700E81E0B8
:101E000080932F0468E070E089E391E00C94700EF9
:101E100062E070E088E291E00E94700E2FEF81EEA8
:101E200094E0215080409040E1F700C000000E9403
:101E30006C066091F4046E7F6093F40487E090E098
:101E40000C94EF256091F40461606093F40487E0E2
:101E500090E00E94EF2562E070E088E191E00C9450
:101E6000700ECF92DF92EF92FF920F931F93CF935A
:101E7000DF936B017C0120E030E0A9010E94232662
:101E800087FF04C0F7FAF094F7F8F0948091F20419
:101E9000882309F458C08091F304811102C00E9484
:101EA000780D07EF14E0C7E0D0E0A7019601F80134
:101EB00062AD73AD84AD95AD0E94232681113CC007
:101EC00083E0CC0FDD1F8A95E1F7C950DB4F198203
:101ED000188280E090E0A0E8BFEB8A839B83AC830C
:101EE000BD831F821E82AC01BD01F5E0CF32DF074A
:101EF00089F4C1E0C0930A04809137058150809332
:101F00003705811120C00E941006C093380110923D
:101F1000F20419C088E0FE013896DE0101900D92AE
:101F20008A95E1F7198618864A875B876C877D87D3
:101F30001F861E862896D9CF219708501109CF3FBA
:101F4000DC0709F0B2CFDF91CF911F910F91FF9085
:101F5000EF90DF90CF90089510929904EEEFF3E0A8
:101F600086E0DF011D928A95E9F70C940C0A1F9315
:101F7000CF93DF93CDB7DEB7AA970FB6F894DEBF45
:101F80000FBECDBF8AED94E02091F100DC012D93CE
:101F9000CD01B4E0823E9B07B9F78091DB0483302A
:101FA00009F471C0B8F4813009F448C0823009F4F2
:101FB000B2C08091E80083FF3AC18091DA04909129
:101FC000DB049A3008F033C1E92FF0E0E651F64D1A
:101FD0000C94B1258A3009F48DC08B3009F470C09F
:101FE000893039F78091DA04813219F78091DE0463
:101FF0009091DF04009711F00297D9F68091E800E4
:10200000877F8093E8008091E80082FF37C090913D
:10201000F3008091F200029729F48091F1008B7F08
:10202000813021F48091F1008093CD048091E8000B
:102030008B778093E8000E941F04BBCF8091DA0465
:10204000813A09F0B6CF8091E800877F8093E8005D
:102050008091DE049091DF04892B61F468E08EECBE
:1020600094E070E00E94D1048091E8008B77809327
:10207000E8009FCF60E090E080E0F3CF8091D8044B
:102080008111C1CF96CF8091DA04813A09F091CFC6
:102090008091DE049091DF04892B09F08ACF809132
:1020A000E800877F8093E8008091E80080FFFCCF04
:1020B00080917E038093F1008091E8008E77B9CF04
:1020C0008091DA04813209F074CF8091DE0490911E
:1020D000DF04892B09F06DCF8091E800877F809322
:1020E000E8000E941F048091DC0480937E030E941C
:1020F000AC0F5FCF8091DA04813209F05ACF809122
:10210000E800877F8093E8000E941F048091DD042F
:102110008093CC044ECF8091DA04813A09F049CF04
:102120008091E800877F8093E8008091E80080FF3D
:10213000FCCF8091CC04BECF803899F0823809F072
:1021400076C08091DE048F70873008F070C0809375
:10215000E9008091EB0085FB882780F91092E90067
:1021600006C08091D6049091D7049111826090911D
:10217000E800977F9093E8008093F1001092F100BF
:102180008091E8008E77BAC1882309F4A7C1823014
:1021900009F04DC08091DC048111ABC18091DE0457
:1021A0008F702FEF280F263008F041C08093E90090
:1021B0002091EB0020FF9DC1933031F48091EB0022
:1021C00080628093EB0095C19091EB0090619093B9
:1021D000EB0021E030E001C0220F8A95EAF720935E
:1021E000EA001092EA008091EB008860EACF81114A
:1021F0001EC01091DC041F778091E3008078812B52
:102200008093E3008091E800877F8093E8000E943C
:102210001F048091E80080FFFCCF8091E30080687C
:102220008093E30082E0111183E08093D8048091D1
:10223000E80083FF0AC08091E800877F8093E80070
:102240008091EB0080628093EB00AA960FB6F89421
:10225000DEBF0FBECDBFDF91CF911F910895805893
:10226000823028F72091DC043091DD042C3DE3E03E
:102270003E07A1F583E08A838AE289834FB7F89409
:10228000DE01139620E03EE051E2E32FF0E05093B0
:102290005700E49120FF03C0E295EF703F5FEF70BD
:1022A0008E2F90E0EA30C0F0C7968D939D932F5FFC
:1022B000243159F74FBF8091E800877F8093E80071
:1022C0006AE270E0CE0101960E94D1048091E8009C
:1022D0008B778093E800ABCFC096E7CF8091DE0488
:1022E0009091DF04432F55274330510509F44AC02C
:1022F00078F54130510509F47AC08BE790E0E3E5C9
:10230000F4E04230510509F092CF2091E800277F98
:102310002093E8002091E0043091E10482179307B4
:1023200008F49C0140E02115310509F065C0411118
:1023300063C08091E80082FDC9CF8091D8048823D2
:1023400029F2853019F28091E80083FFF2CFBECFE9
:102350004132510509F43CC04232510509F067CFC2
:102360008430910508F063CFFC01EE0FFF1FE651AA
:10237000FC4F0190F081E02D8A519C4FDC018C9143
:1023800090E01AC0332721303105D1F021153105F5
:1023900061F02230310509F04ACFE0EEF4E0E4913B
:1023A0008E2F90E0E0EEF4E007C0EEEFF4E0E49171
:1023B0008E2F90E0EEEFF4E0009709F438CFA5CF30
:1023C000EEEEF4E0E4918E2F90E0EEEEF4E0F4CF48
:1023D0008430910508F02BCF880F991FFC01EE5037
:1023E000FC4F0190F081E02D89E090E08ECF82E1FA
:1023F00090E0EEECF4E089CF8091D804882309F4D2
:1024000065CF853009F462CF8091E80083FD5ECF0F
:102410008091E80082FD8DCF8091E80080FF83CF1E
:102420009091F3008091F2002115310519F0883068
:10243000910550F041E0089709F040E08091E800F4
:102440008E778093E8006FCF44914093F1003196EE
:10245000215031090196E8CF803809F0E8CE80910B
:10246000E800877F8093E8008091D9048093F10091
:1024700087CE8111DCCE1091DC04123008F0D7CE6B
:102480008091E800877F8093E8001093D9040E9430
:102490001F04112311F084E005C08091E30087FD43
:1024A000FACF81E08093D80442E061EC81E00E94A1
:1024B0003E0442E261EC84E00E943E0442E261ECB0
:1024C00082E00E943E0442E260EC83E00E943E040F
:1024D00042E261EC85E00E943E04A9CE8091DC04DA
:1024E000813009F0A4CE81E0933009F080E0809340
:1024F000D7041092E9008091E800877F8093E8007C
:102500000E941F0494CE8554990BBC01990F880B2F
:10251000990B0E94CB2620E030E040E451E40E9479
:1025200028269B01AC0160E070E080E090E40E940E
:10253000E82720E030E04CED53E40E947B2708952B
:102540000E9483124FEF5FEF0C94B10DAF92BF92D8
:10255000CF92DF92EF92FF920F931F93CF93DF936F
:1025600003ED13E0C0EAD4E0C12CD12CEE24E394B7
:10257000F12CF80181918F01F894E82FE295EF702A
:10258000F0E021A18F70A70102C0440F551F8A956A
:10259000E2F7CA01922F982B91A392A180958923EB
:1025A00082A3789400C0E8EDF3E030E020E0B12CA5
:1025B000A12C4191A42FA295AF70B0E090968C9180
:1025C00090E04F7002C0959587954A95E2F780FD9F
:1025D00067C0C701022E02C0880F991F0A94E2F754
:1025E000A82AB92A2F5F3F4F2E30310511F7F80185
:1025F000319780810E94990654E0C51619F080EA4F
:102600008A95F1F788819981A816B90609F44BC01B
:10261000B982A88281E0D82AC3942296E5E0CE123E
:10262000A8CFDD2009F441C081E0809306040E9418
:1026300042059093050480930404809104049091D2
:1026400005040E9433050697A0F18091A0049091A3
:10265000A1049093BC048093BB048091A204909148
:10266000A3049093BE048093BD048091A404909130
:10267000A5049093C0048093BF048091A604909118
:10268000A7049093C2048093C1048091A804909100
:10269000A9049093C4048093C3041092060409C053
:1026A00090E080E09DCF80E0B6CF8091060481115C
:1026B000C4CF8091090481110CC0809107049091CE
:1026C00008040097F9F40E9442059093080480934F
:1026D000070480912B048823B9F1809127049091FD
:1026E0002804009741F50E944205909328048093A6
:1026F000270480912904282F30E0882389F1C9011B
:10270000019732C00E9433058D32914010F38091C1
:10271000F40480FF06C063E070E080E091E00E9476
:10272000700E0E9442059093E8048093E70481E0D4
:1027300080930904CECF0E9433052091FA02309194
:10274000FB022817390778F28D2DDF91CF911F9169
:102750000F91FF90EF90DF90CF90BF90AF900895D2
:1027600080912A048150990B40912F04442399F0C1
:10277000295E3B4FF901C081895E9B4FFC0180813E
:102780000E9483120E94310F80912F04882319F038
:102790008C2F0E94A0128091290490E001966091F4
:1027A0002A0470E00E947B2580932904CDCF3F92BC
:1027B0004F925F926F927F928F929F92AF92BF9251
:1027C000CF92DF92EF92FF920F931F93CF93DF93FD
:1027D000CDB7DEB7A3970FB6F894DEBF0FBECDBF5F
:1027E0008C01DC0113968D919C911497892B39F003
:1027F0008C9111969C9189238F3F09F05CC7A39619
:102800000FB6F894DEBF0FBECDBFDF91CF911F9101
:102810000F91FF90EF90DF90CF90BF90AF909F907F
:102820008F907F906F905F904F903F9008950E949F
:10283000CB08F82E682F89819A810E94A2056981B0
:102840007A818F2D0E943F077C01F80182818823C5
:1028500009F424C7970122513F452031310508F082
:1028600005C78FEF93E00E94E125FEEEEF0E76E5BF
:10287000872E72E0972E882391F1809196048770BD
:1028800009F4BDCFD80112968C91882309F4B7CFF3
:1028900082E0A3960FB6F894DEBF0FBECDBFDF91E6
:1028A000CF911F910F91FF90EF90DF90CF90BF904D
:1028B000AF909F908F907F906F905F904F903F90E0
:1028C0000C94630A811424E09206B9F2C4010E94B8
:1028D000E125811101C0EA943FEF831A930AE110C8
:1028E000F1CF1C821B82442443946AE0362E74018B
:1028F0008FEFE81AF80AC4010E94E12589831A8241
:10290000882309F4BACF9FEF980F933000F58A839C
:10291000498292E0890E911CC7010E94E1258B83B8
:10292000882309F4AACFDE0111967D01F7012081E9
:102930002223E9F2213009F04AC09181828191304D
:1029400041F4F2E0EF0EF11C0E948D0C09C047012A
:10295000EACF923049F422E0E20EF11C0E94FE0B15
:10296000EFEFEE1AFE0AE2CF933031F432E0E30EDD
:10297000F11C0E94BB0AF4CF943021F08FEFE81ACB
:10298000F80AEECF92E0E90EF11C30E020E0B7014A
:102990006F5F7F4FD70111964C918053990B8A300E
:1029A000910550F021503109D8F2EFE9FFE031975D
:1029B000F1F700C00000F6CF329EF001339EF00D1B
:1029C00011249C012E0F3F1F842F7B01E0CFE22FAB
:1029D000F0E0E45DFC4F5490822F869586958695B5
:1029E00090E0FC01E45EFC4F64902770712C022E95
:1029F00002C0759467940A94E2F731E06322772469
:102A0000FC01E45FFC4FA490B12C022E02C0B594EF
:102A1000A7940A94E2F7A1E0AA22BB24FC01E450A7
:102A2000FD4FC490D12C02C0D594C7942A95E2F7EB
:102A3000B1E0CB22DD246114710419F081EE0E9413
:102A4000FE0BA114B10419F086EE0E94FE0B852D39
:102A50000E948D0CAB2819F086EE0E94BB0A6728F5
:102A600019F081EE0E94BB0ACD2809F479CF8CE2DF
:102A70006BCF81E00E947B0A0E94240AFECE81E097
:102A80000E94400AF9CF82E0F5CF2EE1E2162CE554
:102A9000F20631F4882309F48AC00E94080FEDCEB3
:102AA0003FE1E3163CE5F30641F4882309F47FC0D7
:102AB0008091F40480FDF1CFEEC59AE2E9169CE521
:102AC000F90661F4882309F472C01092F60464E0F8
:102AD00070E089EF91E00E94700ECFCEABE2EA1673
:102AE000ACE5FA0679F3B6E2EB16BCE5FB0631F489
:102AF000882309F45CC00E94FF0EBFCEE7E2EE1609
:102B0000ECE5FE0631F4882309F451C00E94F50E6D
:102B1000B4CEF8E2EF16FCE5FF0641F490912F04E5
:102B2000882309F444C09111F1CFE5CF2CE2E216DD
:102B30002CE5F20629F48823D1F10E94EC0E9DCEFB
:102B40003DE2E3163CE5F30649F4882381F1109257
:102B50002E0468E070E089E192E0BDCF9EE2E916C4
:102B60009CE5F90639F4882311F180912E04811136
:102B7000EECFE3CFA9E2EA16ACE5FA06C1F488236A
:102B8000B1F00E9493062091F90230E02F5F3F4F91
:102B9000237033272093F90248E2429FC001439FEC
:102BA000900D112465E070E0875A9D4F94CF4091BD
:102BB0002F0441118AC090912E04911186C0B3EF69
:102BC000EB16BCE5FB0609F452C1C0F4F8EDEF16B4
:102BD000FCE5FF0609F447C129EDE2162CE5F206F3
:102BE00009F451C137EDE3163CE5F306B9F426E2EA
:102BF00041EE61EEC8010E94AA0C3FCE85EFE816B7
:102C00008CE5F80609F43BC108F435C127E245EE2E
:102C100066EEA6EFEA16ACE5FA0661F3D801129665
:102C20008C91882309F45AC51092E404B2E0EB16A3
:102C3000BCE5FB0608F441C2E6E1EE16ECE5FE0653
:102C400038F097012A5F3C452930310508F035C23C
:102C50000E940B079093AB048093AA04F0E1EF1657
:102C6000FCE5FF0609F4E4C108F04FC138E0E316C3
:102C70003CE5F30609F4BEC108F01EC194E0E91674
:102C80009CE5F90609F4AEC108F000C1B2E0EB160C
:102C9000BCE5FB0609F4A0C18091AA048260E3E0D0
:102CA000EE16ECE5FE0609F49AC16091AA04F090D4
:102CB000AB0484E090E00E94EF256F2D81E290E06C
:102CC0000E94EF250E94AC0FD8CD882309F450C094
:102CD000B0EEEB16F10461F40E94930681E080935C
:102CE0002D0410922C0410922B0410922A04C5CDAE
:102CF000E2EEEE16F10471F40E94930680912D0429
:102D0000882319F081E080932C0410922D041092F6
:102D10002B04B3CDF3EEEF16F10491F490912C0453
:102D2000992331F10E94930610922D0481E0809343
:102D30002B041092290410922804109227049DCD90
:102D400022E5E216F10451F48091FA029091FB021F
:102D50000A979093FB028093FA028FCD31E5E31638
:102D6000F10431F48091FA029091FB020A96F1CFBE
:102D70009091F90291112BC0D80111969C91119755
:102D800025E030E0291B3109DC90B0E1DB0EECE0FE
:102D90002E9FD00C1124882309F45CC0442319F021
:102DA0008D2D0E94A01280912D04882351F08091D6
:102DB0002A04E82FF0E0E95EFB4FD0828F5F80931A
:102DC0002A04FFEFEF16F10408F0F9CE56CD91304A
:102DD00081F4D80111969C91119725E030E0291BD0
:102DE0003109D22EDD0CDD0CD20E9C919D5CD90EEA
:102DF000D2CF923071F4F801918125E030E0291BA7
:102E00003109D080F3E3DF0E97E0299FD00C112425
:102E1000C2CF5CE0D52E933009F0BDCF93E2EFE74F
:102E2000F3E0DE01119601900D929A95E1F7D80139
:102E3000EC91EC0FFD2FF11D11969C9125E030E0F7
:102E4000291B3109D084BCE02B9FD00C1124E9E070
:102E5000DE0EA1CF442309F4B4CF8D2D0E9483123E
:102E60000E94310FAECF27E245EE65EEC3CE26E2DB
:102E700041EE60EEBFCE27E245EE64EEBBCE26E229
:102E800041EE62EEB7CE28E241E0EFCF8091AA0496
:102E90008061F6E0EF16FCE5FF0609F4A0C0809122
:102EA000AA04886027E0E2162CE5F20608F497C031
:102EB0008091AA04806293C03CE0E3163CE5F306EF
:102EC00009F4AEC060F49AE0E9169CE5F90609F44D
:102ED0009BC008F493C08091AA048E7F80C080912B
:102EE000AA04877FBEE0EB16BCE5FB0609F477C0B9
:102EF0008091AA048B7FEFE0EE16ECE5FE0608F465
:102F00006EC08091AA048F7E6AC0FBEFEF16FCE5CD
:102F1000FF0609F46BC068F533E1E3163CE5F30600
:102F200009F48EC090F491E1E9169CE5F90609F4E4
:102F300083C0A2E1EA16ACE5FA0609F0B6CE0E941B
:102F4000AC0F8091AA048F774AC0B5E1EB16BCE5BF
:102F5000FB0609F489C008F4A5C08091AB04816028
:102F6000FAEFEF16FCE5FF0609F09FCE8093AB0465
:102F70009CCE2FEFE2162CE5F20609F46BC0C0F4EC
:102F80008DEFE8168CE5F80609F44EC08091AB048D
:102F90008E7F9EEFE9169CE5F90640F38091AB0425
:102FA00083608093AB0464E070E08CE193E035C013
:102FB000A1E0EA16ADE5FA0609F47DC008F464C0A4
:102FC00060E0E2E0EE16EDE5FE0609F06ECE8EE082
:102FD00090E00E94EF2569CE8091AA0481608093E1
:102FE000AA0463CE8091AA048460F9CF8091AB04D7
:102FF0008260BCCF8091AA048064F1CF0E94AC0FA4
:103000008091AA048068EBCF8091AA048C608093A1
:10301000AA0464E070E08CE393E00E94700E45CE59
:103020008091AA048D7FDBCF8091AB048D7F9ECFF2
:103030008091AA048F7DD3CF8091AA048F7BCFCFBC
:103040008091AA04837F8093AA0462E070E08CE000
:1030500093E0E3CF8091AB048C7F8093AB0462E07C
:1030600070E08CEF92E0D9CF8091AA0482FB99277F
:1030700090F921E0922790FB82F990FB83F98093ED
:10308000AA0483FFE2CFC5CF8091AB04982F90951F
:1030900091708E7F892B90FB81F98093AB0481FF27
:1030A000DECF81CF0E94AC0F9091AA04892F97FBAD
:1030B00087F9805894CF61E08ACFF6E1EF16FCE5FE
:1030C000FF0609F019C3809199048A7A91E009F406
:1030D00090E090933004811106C089E20E9461055E
:1030E0000E94A009CACB85E3F9CF85E302C38FE92B
:1030F0009FE00197F1F700C000001CC39091B0045D
:10310000892F8E7F90FF81608093B00480FF05C07F
:103110008EEB93E00E94D602B0CB8CEA93E0FACF1C
:103120000E940E0DAACBF801E080F180882309F4FB
:103130003EC0C7010E94CB08D82E682FC7010E944D
:10314000A205B7018D2D0E944C077C01882ED80165
:103150001296DC9012971596AC90A2943FE0A322B1
:10316000809196048770A1F0CD2CDD2091F08F2DF9
:10317000807F803421F080E28E0D883048F082E03C
:103180000E94630A809196048770CC24C3948111B5
:10319000C12C3F2C32942FE03222BBE0B31508F44F
:1031A00042C0E32DF0E0EC50F64D0C94B125C70180
:1031B0000E947A05D82EC5CFEF2DEF70AE2E8F2D41
:1031C000807F19F0A29490EFA922DD20C9F0AA20F7
:1031D00069F080E28E0D883010F081100BC0809174
:1031E0009904A82AA09299040E94A0098E2D0E94F9
:1031F000FE0B19C080919804A82AA0929804F4CFDD
:103200008E2D0E94BB0AAA2071F0A09480E28E0D40
:10321000883010F081103DC080919904A822A092BE
:1032200099040E94A009A32DA850BB0B149710F479
:103230000E940406CC2009F4E2CA8091960480FD25
:10324000DECAF80112828595859585950E947B0AD4
:10325000C8010E94D7138091960485958595859520
:10326000A3960FB6F894DEBF0FBECDBFDF91CF910E
:103270001F910F91FF90EF90DF90CF90BF90AF9094
:103280009F908F907F906F905F904F903F900C94A5
:10329000400A80919804A822A0929804C2CFFF2DE2
:1032A000FF709F2E8F2D807F803219F0929480EFD7
:1032B0009822882071F021E0821661F1DD20B9F1B9
:1032C000AA2071F1F801858180FF90CF8F708583EE
:1032D00027C0DD2091F090919A04892D892BA110AF
:1032E00003C00E94B10A9FCF31E0A312FACF981712
:1032F00009F499CF80939A0496CFA11006C00E943A
:103300004E05892D0E94A60A8ECF81E0A81609F4E9
:103310008ACFF5CFDD2031F095E09A1508F483CF00
:10332000892DDFCFA4E0AA1508F47DCFEACFAA202B
:1033300041F3F9E38F1209C02FEF37EE83E02150FC
:1033400030408040E1F700C000008E2D0E94BB0A93
:103350006ACF8F2D86958695837061F0813009F054
:1033600062CFC7019370D11002C090E080E00E944C
:10337000D80559CFC7019370D11002C090E080E00A
:103380000E94EE0550CF8F2D837009F066C0D110DA
:103390004ACF8E2D829586958770880F880F6E2D67
:1033A0006F70462E512C712C612C082E04C0440CD9
:1033B000551C661C771C0A94D2F740E050E0BA0115
:1033C000E4FE0FC04FE050E060E070E004C0440F46
:1033D000551F661F771F8A95D2F7409550956095C7
:1033E00070958F2D869586958370823019F1D8F46B
:1033F00080909B0490909C04A0909D04B0909E04AB
:10340000813069F04429552966297729CB01BA0111
:10341000682179218A219B210E949C0A04CF482897
:1034200059286A287B28CB01BA0164297529862985
:103430009729F2CF442955296629772940909B0482
:1034400050909C0460909D0470909E04CB01BA0142
:103450006425752586259725DFCF8695DD2011F01B
:103460008F2D8170882309F4DECE8E2D829586956E
:103470008770880F880F6E2D6F70462E512C712C1F
:10348000612C082E04C0440C551C661C771C0A9441
:10349000D2F740E050E0BA01E4FE0FC04FE050E048
:1034A00060E070E004C0440F551F661F771F8A95C7
:1034B000D2F740955095609570958F2D869586959D
:1034C0008370823019F1D8F48090380590903905D6
:1034D000A0903A05B0903B05813069F04429552908
:1034E00066297729CB01BA01682179218A219B219C
:1034F0000E941A0A98CE482859286A287B28CB01AE
:10350000BA016429752986299729F2CF44295529BA
:1035100066297729409038055090390560903A0522
:1035200070903B05CB01BA0164257525862597254A
:10353000DFCF9F2D9F70F92EDD2029F0892F0E946B
:103540007B0A8E2DCECE8E2D0E94A60A8F2D0E9434
:10355000400A69CE8E2DA2EF8A1609F453C0A81531
:1035600078F0B0EF8B1629F1E1EF8E1609F442C026
:10357000DD2009F46BC0A11039CE8F2D8F713FC0B3
:10358000F3EF8F1609F443C024EF8212F1CFDD2050
:1035900009F451C09F2D9F71F92E892F0E947B0A3B
:1035A000A8E0FA9EC00111248360809396048F2DB9
:1035B00026C0DD20D1F034E03A1508F434CE2F2DAA
:1035C0002F7161E070E080E090E004C0660F771F2B
:1035D000881F991F2A95D2F74090380550903905D9
:1035E00060903A0570903B059FCF85E08A1508F4FE
:1035F0001ACEE5CF8F2D8F71DD2009F4A8CF0E9460
:103600007B0A11CE8F2D8F71DD20C9F3A0CF60E032
:1036100070E0CB01DD2009F46BCF2F2D2F7161E01D
:1036200070E080E090E004C0660F771F881F991F4C
:103630002A95D2F75DCF81E00E94630AB1E0BA1506
:1036400008F0F1CD82E00E94630AEDCDAA2059F086
:10365000893309F07ACEEFEFF7EE23E0E150F04046
:103660002040E1F770CE8F2D8F7171CFF0E1EF1612
:10367000FFE5FF0609F4FDC921E1E2162FE5F20698
:1036800009F401CAFDE1EF16FCE5FF0609F0FDC9EA
:10369000882309F48CCA0E94220FEFC830E1E31698
:1036A0003FE5F30609F4EBC991E1E9169FE5F90658
:1036B00049F782E0E5C985E0F801DE011196019045
:1036C0000D928A95E1F7D80112962C9189819A8101
:1036D0002111ADC80E947A05F82EB1C8B6E1EB16EB
:1036E000BCE5FB0609F01FCD809130048111FDCCB3
:1036F00089E20E945405F4CCE1E0EE16ECE5FE060A
:1037000009F4FCCCFEEDEF16FCE5FF0609F408CD4C
:10371000E1142CE5F20609F006CD0E94AC0F0E94E0
:1037200093060E9442058C0163E070E08CE593E013
:103730000E94700EC8010E9433058A3F910508F46B
:10374000D6CC0E946C060E94DA0B1F93CF93DF93B6
:1037500080913604807FA9F480913304882389F016
:1037600080916804D09137046091310470913204E3
:10377000A0913404B0913504C62FC72316E0D813A6
:1037800004C0DF91CF911F91089590E0109711F040
:10379000CF3F19F401968770F2CF189F9001199FBF
:1037A000300D1124F901E85CFB4F41814713F2CF42
:1037B00040814613EFCF42814111ECCF43815481C8
:1037C0004A1B5B0B483C510528F7809136048F70EB
:1037D000806180933604F901E35CFB4F80818F7038
:1037E0008061808381E394E00E94D713DF91CF91C1
:1037F0001F910C94CE05AF92BF92CF92DF92EF92C1
:10380000FF920F931F93CF93DF93CDB7DEB76197EE
:103810000FB6F894DEBF0FBECDBF8C0185E0F80176
:10382000DE011D9601900D928A95E1F7F8018081E5
:103830009181E28021E3A22E24E0B22E6091340433
:10384000709135046115710509F43EC13091310460
:1038500040913204232F24232F3F09F435C1C38024
:10386000D480F0903304F601E61BF70BFF2009F437
:10387000FBC020913604522F507FE83CF10508F040
:10388000BBC0511178C0FE2C491321C038131FC092
:10389000E1101DC02F70206120933604C5010E94E5
:1038A000D71380913604F80185838F2D61960FB66A
:1038B000F894DEBF0FBECDBFDF91CF911F910F9166
:1038C000FF90EF90DF90CF90BF90AF900895CD28FC
:1038D00029F0282F29232F3F09F014C120E0F22FCF
:1038E000F170DF2E20FF3DC0209168044091370425
:1038F00056E0241315C08D879E878D859E850E9476
:103900000D09292F22952F702230F8F0243020F550
:103910009F70F9F0F8019581907FD9F4D12C1FC0E8
:1039200030E0529FF001539FF00D1124E85CFB4FF3
:103930006181961306C06081861303C06281E6121E
:1039400010C02F5F3F4F2770D4CF9F7011F0882396
:1039500029F3805E883010F3C8010E94D713FD2C34
:10396000A4CFEE2009F4A1CF80913604816080932A
:103970003604F12C9ACF491312C0381310C0E1104D
:103980000EC0F8012583C8010E94D71386E0F80114
:10399000A1E3B4E001900D928A95E1F786CF8D877F
:1039A0009E878D859E850E941709882309F1EE2048
:1039B000F9F080913604803270F02091310430911A
:1039C000320438872F831986DB86CA868C87CE011E
:1039D00007960E94D71386E0F801A1E3B4E00190B6
:1039E0000D928A95E1F70E94A51BFF24F3945DCF09
:1039F000C8010E94D713F9CF51110AC081E394E0A6
:103A00000E94D71386E0F50111928A95E9F7B1CFAC
:103A100049130FC038130DC0E1100BC0F801258306
:103A2000C8010E94D71386E0F50111928A95E9F743
:103A30003CCF8D879E878D859E850E9417098823A0
:103A4000B9F2EE20A9F280913604803220F2209162
:103A50003104309132043A8329831B82DD82CC8287
:103A60008E83CE010196B5CFE83CF105E0F6FE2C41
:103A7000EE2009F4BDCF491316C0381314C080914D
:103A8000360480FD83CF982F907F09F47FCFF80113
:103A90008583903F09F477CF982F907F905F8F7048
:103AA000892B858370CF8D879E878D859E850E940B
:103AB0001709811190CF809136048160809336047C
:103AC000C8010E94D713F1CEEE2009F491CF8D8763
:103AD0009E878D859E850E941709F82E882309F4FC
:103AE00087CF86E0F801A1E3B4E001900D928A95BA
:103AF000E1F780913104909132040E940D090E94F7
:103B0000A51BD3CE21E02E25EACE1F93CF93DF93C2
:103B1000CDB7DEB767970FB6F894DEBF0FBECDBF47
:103B2000342F4B8B252F5C8B6D8B7E8B8F8B8E89EF
:103B30009F896111109298041A8A198A3D872E87ED
:103B40006F87998B888B86E0FE013D96DE01179684
:103B500001900D928A95E1F7CE0107960E94FB1B1A
:103B6000882389F016E080916804909137048913C6
:103B700049C067960FB6F894DEBF0FBECDBFDF9188
:103B8000CF911F91089586E0FE013796DE011196D0
:103B900001900D928A95E1F78A859B85892B11F317
:103BA0008F81988589238F3FE9F22091370430E097
:103BB000C901019687709927409168044817190632
:103BC00071F40E94AC0F109237041092680486E0E2
:103BD000E1E3F4E0DF011D928A95E9F7C3CF96E0B7
:103BE000929FD001939FB00D1124A85CBB4FFE01A2
:103BF000319601900D929A95E1F7809337040E94D7
:103C0000CE05B0CF819FC0011124885C9B4F0E94DC
:103C1000FB1B882309F4ADCF8091680490E00196E6
:103C200087709927809368049ECF1F920F920FB6DA
:103C30000F9211242F933F934F935F936F937F9332
:103C40008F939F93AF93BF93CF93DF93EF93FF93A4
:103C5000D091E900DF708091EC00C82FC17080FD29
:103C6000C0E81092E9008091F000877F8093F00017
:103C700078940E94B70F1092E9008091F00088605C
:103C80008093F000CD2BCF70C093E900FF91EF91AE
:103C9000DF91CF91BF91AF919F918F917F916F9164
:103CA0005F914F913F912F910F900FBE0F901F90FA
:103CB00018951F920F920FB60F9211242F933F93D6
:103CC0004F935F936F937F938F939F93AF93BF9324
:103CD000EF93FF938091E10082FF15C08091E20095
:103CE00082FF11C08091E1008B7F8093E1002091E1
:103CF000CA042F5F822F62E30E946F25992309F483
:103D0000BEC02093CA048091DA0080FF28C0809151
:103D1000D80080FF24C08091DA008E7F8093DA0083
:103D20008091D90080FFE1C080E189BD82E189BD39
:103D300009B400FEFDCF81E08093D8048FE394E0C6
:103D40000E94D6028091CB04811109C00E94A50374
:103D50000E9470048091E20084608093E200809170
:103D6000E10080FF1BC08091E20080FF17C08091BE
:103D7000E2008E7F8093E2008091E2008061809378
:103D8000E2008091D80080628093D80019BC85E061
:103D90008093D80487E494E00E94D6028091E100E9
:103DA00084FF2DC08091E20084FF29C080E189BD9D
:103DB00082E189BD89B5982F917080FFFBCF8091FA
:103DC000D8008F7D8093D8008091E1008F7E809312
:103DD000E1008091E2008F7E8093E2008091E2001A
:103DE00081608093E2008091D904882309F487C020
:103DF00084E08093D8048BE494E00E94D602809102
:103E0000E10083FF2BC08091E20083FF27C08091F7
:103E1000E100877F8093E10082E08093D8041092D4
:103E2000D9048091E1008E7F8093E1008091E200CF
:103E30008E7F8093E2008091E20080618093E200B7
:103E400042E060E080E00E943E048091F0008860E3
:103E50008093F0008FE494E00E94D602FF91EF91EE
:103E6000BF91AF919F918F917F916F915F914F9192
:103E70003F912F910F900FBE0F901F9018951092A9
:103E8000CA048091C904882309F43DCF8091D804E5
:103E90008430C1F49091E9009F702091EC00822F52
:103EA000817020FD80E8892B95E09093E900909146
:103EB000EB0090FF04C09091EE0097FD08C08F705A
:103EC0008093E9001092C9041ECF1092F1009091E6
:103ED000E80095FDFACF9091E80090FFF0CF909127
:103EE000E8009E779093E800EACF19BC1092D804BE
:103EF00083E494E00E94D6021092CB0430CF8091EC
:103F0000E30087FD93E09093D80475CFCDB7DEB77B
:103F1000AB970FB6F894DEBF0FBECDBF84B7877FD7
:103F200084BF0FB6F894A895809160008861809353
:103F30006000109260000FBE80E890E00FB6F89429
:103F400080936100909361000FBE85B7806885BF44
:103F500085B7806885BF81E19BE09093FB038093E8
:103F6000FA030E94A5030E9470048091E20084601D
:103F70008093E20078948091D8048823A1F0109176
:103F8000E9001F709091EC00892F817090FD80E80E
:103F9000182B1092E9008091E80083FD0E94B70F72
:103FA0001F701093E90082E084BD93E095BD9AEF05
:103FB00097BD80936E0080EF0E94990681EF0E946A
:103FC000990684EF0E94990685EF0E94990686EF74
:103FD0000E94990608ED13E0A6EEEA2EA3E0FA2E61
:103FE000F80181918F010E949906E016F106C1F750
:103FF0001092A1041092A0041092BC041092BB0471
:104000001092A3041092A2041092BE041092BD0458
:104010001092A5041092A4041092C0041092BF0440
:104020001092A7041092A6041092C2041092C10428
:104030001092A9041092A8041092C4041092C30410
:104040000E94A6128FE39CE90197F1F700C00000DF
:104050000E94A6128091BB0480FF17C06FEF82E21E
:1040600090E00E94EF256FEF83E290E00E94EF2541
:104070006FEF84E290E00E94EF256FEF7FEF90E01A
:1040800080E00E940D260E94DA0B90E080E00E9402
:10409000E9258B3E9E4F11F00E940E0D0E94780D77
:1040A00082E290E00E94E125813209F007C383E2B9
:1040B00090E00E94E125853009F000C384E290E0A1
:1040C0000E94E125823109F0F9C290E080E00E946F
:1040D000E9258B3E9E4F11F00E940E0D82E090E08C
:1040E0000E94E1258093B0040E940B079093AB04DB
:1040F0008093AA0483E090E00E94E125682F70E09D
:1041000090E080E00E949C0A84E793E09093AD04E5
:104110008093AC048EE294E00E94D6028091D80491
:10412000853079F48AE294E00E94D60200E112E13F
:104130008091D804853009F440C00E94AC0F0E94E1
:1041400004060E94A612882359F08FB7F894409174
:10415000C5045091C6046091C7047091C8048FBF14
:10416000E1EB4E2EE4E05E2EFBEB6F2EF4E07F2EB3
:1041700010E000E00BA7F301E190F1903F01F201A4
:10418000A190B1902F01AE14BF0409F053C00F5F8E
:104190001F4F0530110571F78FEF8EA38FA318A65F
:1041A0000E9442058160782F9AA789A74EA15FA13E
:1041B00068A58AA50E94851D6EC08091D8048430B0
:1041C00031F10E946C061092AE0488E190E0E0E4C8
:1041D0000FB6F894A895809360000FBEE09360003E
:1041E00083B7817F846083BF83B7816083BF789406
:1041F000889583B78E7F83BF0FB6F894A89580917A
:104200006000886180936000109260000FBE809112
:10421000D704882309F48CCF0E94A612EBEBF4E0BC
:1042200081919191892B09F033C224E0E53CF2079A
:10423000B9F77ECF8091B00481FD89C0AE24BF2440
:1042400080E0CC24C394D12C95012C213D21232B3B
:1042500009F4B8C089A3EBA5EAA3EC20FD2081E016
:10426000EF2809F480E08BA30E9442058160782F3B
:104270009DA38CA349A15AA16BA18DA10E94851D6C
:10428000000F111FF801EF54FB4F80819181C82668
:10429000D926D182C0820E9404069091AF0489176A
:1042A00039F10E940406182F8093AF048091B00466
:1042B00082FF1EC080FF1CC087E194E00E94D602EE
:1042C0008091B00480FF14C01F921F9382E194E09C
:1042D0009F938F930E946F038091B0040F900F9073
:1042E0000F900F9080FF04C080E194E00E94D602FE
:1042F0008091D804843009F011CF83E08093E900E5
:104300008091E80082FF0ACF8091E80090E085FF6D
:104310000CC00E94C40330E2E32EF12C8E010F5F2B
:104320001F4F882309F45FC091E08091E8008B77EC
:104330008093E800992309F4F1CEE981E150E3315B
:1043400008F0E0C0F0E0E050F64D0C94B12589EFA4
:1043500093E00E94D6026BEB862E64E0962ED12C61
:10436000C12CDF92CF9284EF93E09F938F930E94B2
:104370006F0381EF93E00E94D602F40180812180D7
:10438000F2E08F0E911C0E94F306382E822D0E94BF
:10439000F3063F928F938BEE93E09F938F930E944F
:1043A0006F0389EE93E00E94D602FFEFCF1ADF0A77
:1043B0000FB6F894DEBF0FBECDBF95E0C916D1048D
:1043C00081F63CCF8F5FCC0CDD1C8E3009F03CCFEA
:1043D000DECE8091F100F80181938F01F1E0EF1AB8
:1043E000F10809F4A1CF8091E80085FDF2CF80911A
:1043F000E8008B778093E8000E94C403882399F338
:1044000093CF1A8289E08B831AC08A81823009F4A3
:104410006EC18330D9F1813009F074C02FB7F894A0
:104420006091C5047091C6048091C7049091C8043E
:104430002FBF0E94B7256B837C838D839E838091E1
:10444000D804843009F06ACE1091E9001F70909171
:10445000EC00892F817090FD80E8182B82E080931A
:10446000E9008091E80080FF0DC050E040E060E28C
:1044700070E0CE0101960E94F5038091E8008E77EE
:104480008093E8001F701093E90048CE8091BB0430
:104490009091BC049827892798279C838B838091CF
:1044A000BD049091BE049827892798279E838D8309
:1044B0008091BF049091C0049827892798279887F6
:1044C0008F838091C1049091C204982789279827EF
:1044D0009A8789878091C3049091C404982789277B
:1044E00098279C878B87ABCF8A81823059F46B8168
:1044F0007C818D819E810E94B72585E290E00E949B
:10450000EF259DCF8FEF89839ACF4C816B818A8174
:104510000E9419079827892798279E838D838FCF1C
:104520000D811E811027012710278A81EB802CE145
:10453000E29E700111249CE8899FE00CF11C11247B
:104540008C8190E0880F991FE80EF91E612FC7013A
:1045500086960E94EF25602FC7018796D0CF0E94D4
:104560003B096DCF80E18A836ACF81E08A838AEA42
:104570004ACFEA80FB80FE24EF24FE248E010F5FE9
:104580001F4FCC80C00ED12ED11CC7018A5A9D4F1F
:10459000C016D10609F453CFEAEAEE16E1E0FE06B2
:1045A00050F40E94E125F8018483FFEFEF1AFF0A1F
:1045B0000F5F1F4FEACFF8011482F7CF0A811B81EA
:1045C000102701271027CE0101966C01EC80E00E28
:1045D000F12EF11CC8018A5A9D4F0E151F0509F4D2
:1045E0002ECF0A3AE1E01E0720F4F60164810E9412
:1045F000EF25FFEFCF1ADF0A0F5F1F4FEBCF0E94AF
:1046000090091DCF84E0AFCFEA80FB80FE24EF2429
:10461000FE248E010F5F1F4FCC80C00ED12ED11C07
:10462000C7018696C016D10609F409CF20E3E21629
:1046300022E0F20650F40E94E125F8018483FFEFA6
:10464000EF1AFF0A0F5F1F4FEBCFF8011482F7CF6D
:104650000A811B81102701271027CE0101966C01CA
:10466000EC80E00EF12EF11CC8018696E016F106F2
:1046700009F4E5CE0033E2E01E0720F4F601648180
:104680000E94EF25FFEFCF1ADF0A0F5F1F4FECCF1D
:1046900009BD19BD09B400FEFDCF8091D8008F7D02
:1046A0008093D8008091E00082608093E000809148
:1046B000E00081FDFCCF0E94AC0F3ACD60E085E2C6
:1046C00090E00E94EF250E943B090E94900961E260
:1046D00082E290E00E94EF2565E083E290E00E9494
:1046E000EF2562E184E290E00E94EF25EECC85E2C6
:1046F00090E00E94E1251B821C821D828E839FCE4A
:1047000078941F921FB61F9211248F939F93AF939B
:10471000BF938091C5049091C604A091C704B09145
:10472000C8040196A11DB11D8093C5049093C604D1
:10473000A093C704B093C804BF91AF919F918F918C
:104740001F901FBE1F9018951F921FB61F92112415
:104750008F939F93AF93BF938091AE04811113C049
:104760008091C5049091C604A091C704B091C8047B
:104770004196A11DB11D8093C5049093C604A093DA
:10478000C704B093C804BF91AF919F918F911F90C0
:104790001FBE1F9018951F920F920FB60F921124F3
:1047A0007F928F929F92AF92BF92CF92DF92EF92C1
:1047B000FF920F931F932F933F934F935F936F93AA
:1047C0007F938F939F93AF93BF93CF93DF93EF9399
:1047D000FF9380910F0490911004A0911104B09167
:1047E00012040196A11DB11D80930F049093100433
:1047F000A0931104B093120460910F0470911004FF
:1048000080911104909112040E94C9266B017C01D1
:1048100020E030E040E85CE360910B0470910C0410
:1048200080910D0490910E040E947B279B01AC01A6
:10483000C701B6010E94232687FDB2C010920F0463
:104840001092100410921104109212047090F1044E
:104850008091F204811103C0772009F497C00E946F
:1048600042056C0171101DC0712C8091F2048823E7
:1048700079F08091F5048111782EC7EFD4E010E033
:1048800000E0809137058017110611F00CF007C188
:1048900080910A04882309F479C010920A04782EC2
:1048A00075C00091E7041091E804C8010E94330527
:1048B000C091E504D091E6048C179D07A8F2C801C9
:1048C0000E9433057C01EC1AFD0AD092E804C092E4
:1048D000E7048090E9049090EA04E4012196D093E3
:1048E000EA04C093E9040E944205C090EC04D09011
:1048F000ED04CC15DD0548F08091EB04882309F424
:1049000042C01092EA041092E9040091EE04109162
:10491000EF04C091E904D091EA048091F0045E01B3
:1049200063E0AA0CBB1C6A95E1F7811157C0F40142
:1049300053E0EE0FFF1F5A95E1F7E00FF11FD8018A
:10494000AA0DBB1D2D913D914D915C9160817181AE
:10495000828193810E942326811140C081E080934F
:10496000F0044FE050E060E070E0CB010E94B10D38
:104970009092EA048092E9048FE090E09093E6043C
:104980008093E50472CF0E946C06712C8091F20432
:1049900081119DC08091F104811199C00E9410067F
:1049A000FF91EF91DF91CF91BF91AF919F918F9147
:1049B0007F916F915F914F913F912F911F910F9137
:1049C000FF90EF90DF90CF90BF90AF909F908F902F
:1049D0007F900F900FBE0F901F9018951092F004CB
:1049E000F801EA0DFB1D64817581868197810E9423
:1049F0009A269B01A0E6BAEE0E94BE2520E03EE189
:104A000040E050E00E948F2581E0C81AD108812C37
:104A10004EE1942EA12CB12C2E153F05F0F0D09331
:104A2000EA04C093E904E216F306A8F5C9018E1959
:104A30009F097C0183E0CC0FDD1F8A95E1F7C00F51
:104A4000D11F688179818A819B81A7010E94B10D64
:104A5000F092E604E092E50408CFCC15DD05F8F607
:104A6000E21AF30A2196FE0123E0EE0FFF1F2A95BA
:104A7000E1F7E00FF11F64817581868197810E94C3
:104A80009A269B01A0E6BAEE0E94BE25A5019401DC
:104A90000E948F25C1CFEE24E394F12CCBCFEE8082
:104AA000FF80C70101978E3F9F4F68F488819981ED
:104AB0000E9433058E159F0530F06A817B818C81C1
:104AC0009D810E94310F0F5F1F4F2896DACE77200D
:104AD00009F466CF0E9478030E941B0661CF991BE0
:104AE00079E004C0991F961708F0961B881F7A95E5
:104AF000C9F78095089597FB072E16F4009407D008
:104B000077FD09D00E94CD2507FC05D03EF4909595
:104B100081959F4F0895709561957F4F0895A1E20B
:104B20001A2EAA1BBB1BFD010DC0AA1FBB1FEE1F27
:104B3000FF1FA217B307E407F50720F0A21BB30B72
:104B4000E40BF50B661F771F881F991F1A9469F7EE
:104B500060957095809590959B01AC01BD01CF014A
:104B60000895EE0FFF1F0590F491E02D0994692739
:104B7000962769277827872778270895A29FB0016D
:104B8000B39FC001A39F700D811D1124911DB29F81
:104B9000700D811D1124911D0895AA1BBB1B51E1AD
:104BA00007C0AA1FBB1FA617B70710F0A61BB70B9D
:104BB000881F991F5A95A9F780959095BC01CD0142
:104BC0000895F999FECF92BD81BDF89A992780B5D5
:104BD0000895A8E1B0E042E050E00C941526262F9D
:104BE000F999FECF92BD81BDF89A019700B40216E3
:104BF00039F01FBA20BD0FB6F894FA9AF99A0FBE91
:104C000008950396272F0E94F0250E94EF25252F57
:104C10000E94F025242F0C94F0250196272F0E9446
:104C2000F0250C94EF25DC01CB01FC01F999FECFB6
:104C300006C0F2BDE1BDF89A319600B40D92415024
:104C40005040B8F708950E94062708F481E00895BF
:104C50000E943C260C9441270E943A2758F00E945B
:104C6000332740F029F45F3F29F00C942A27511193
:104C70000C9475270C9430270E94522768F39923CF
:104C8000B1F3552391F3951B550BBB27AA27621748
:104C90007307840738F09F5F5F4F220F331F441F55
:104CA000AA1FA9F335D00E2E3AF0E0E832D0915089
:104CB0005040E695001CCAF72BD0FE2F29D0660F76
:104CC000771F881FBB1F261737074807AB07B0E8B9
:104CD00009F0BB0B802DBF01FF2793585F4F3AF0BF
:104CE0009E3F510578F00C942A270C9475275F3F5E
:104CF000E4F3983ED4F3869577956795B795F79545
:104D00009F5FC9F7880F911D9695879597F908952C
:104D1000E1E0660F771F881FBB1F621773078407C8
:104D2000BA0720F0621B730B840BBA0BEE1F88F7D7
:104D3000E09508950E945A2788F09F5798F0B92F60
:104D40009927B751B0F0E1F0660F771F881F991FC0
:104D50001AF0BA95C9F714C0B13091F00E947427C7
:104D6000B1E008950C947427672F782F8827B85FD7
:104D700039F0B93FCCF3869577956795B395D9F718
:104D80003EF490958095709561957F4F8F4F9F4F22
:104D90000895E89409C097FB3EF49095809570952E
:104DA00061957F4F8F4F9F4F9923A9F0F92F96E977
:104DB000BB279395F695879577956795B795F111EC
:104DC000F8CFFAF4BB0F11F460FF1BC06F5F7F4F89
:104DD0008F4F9F4F16C0882311F096E911C077239B
:104DE00021F09EE8872F762F05C0662371F096E8A4
:104DF000862F70E060E02AF09A95660F771F881F73
:104E0000DAF7880F9695879597F90895990F000816
:104E1000550FAA0BE0E8FEEF16161706E807F9078C
:104E2000C0F012161306E407F50798F0621B730B27
:104E3000840B950B39F40A2661F0232B242B252BA8
:104E400021F408950A2609F4A140A6958FEF811D4B
:104E5000811D089597F99F6780E870E060E00895EC
:104E60009FEF80EC089500240A9416161706180682
:104E70000906089500240A9412161306140605065E
:104E80000895092E0394000C11F4882352F0BB0FEF
:104E900040F4BF2B11F460FF04C06F5F7F4F8F4F52
:104EA0009F4F089557FD9058440F551F59F05F3F8D
:104EB00071F04795880F97FB991F61F09F3F79F03C
:104EC00087950895121613061406551FF2CF4695BE
:104ED000F1DF08C0161617061806991FF1CF869540
:104EE0007105610508940895E894BB276627772724
:104EF000CB0197F908950E948E270C9441270E94B8
:104F0000332738F00E943A2720F0952311F00C94B3
:104F10002A270C94302711240C9475270E945227BD
:104F200070F3959FC1F3950F50E0551F629FF001FC
:104F3000729FBB27F00DB11D639FAA27F00DB11D15
:104F4000AA1F649F6627B00DA11D661F829F22279E
:104F5000B00DA11D621F739FB00DA11D621F839F25
:104F6000A00D611D221F749F3327A00D611D231FFB
:104F7000849F600D211D822F762F6A2F11249F5749
:104F800050409AF0F1F088234AF0EE0FFF1FBB1F4C
:104F9000661F771F881F91505040A9F79E3F51050B
:104FA00080F00C942A270C9475275F3FE4F3983E19
:104FB000D4F3869577956795B795F795E7959F5FB5
:104FC000C1F7FE2B880F911D9695879597F9089547
:104FD000FA01EE0FFF1F309621053105A1F1611591
:104FE000710561F48038BFE39B0749F168949038FC
:104FF000810561F08038BFEF9B0741F099234AF5A6
:10500000FF3FE1053105210519F1E8940894E79582
:10501000D901AA2329F4AB2FBE2FF85FD0F310C01B
:10502000FF5F70F4A695E0F7F73950F019F0FF3AFA
:1050300038F49F779F930DD00F9007FC90580895F8
:1050400046F00C94302760E070E080E89FE308951C
:105050004FE79F775F934F933F932F930E94E328EF
:105060002F913F914F915F910E947B270C94402894
:1050700029F416F00C942A270C9474270C943027EA
:105080000E945A27A8F39638A0F707F80F92E894E1
:105090002BE33AEA48EB5FE70E9491270F920F92C9
:1050A0000F924DB75EB70F920E942B29ECEAF0E009
:1050B0000E9472284F915F91EF91FF91E595EE1F4D
:1050C000FF1F49F0FE57E0684427EE0F441FFA9592
:1050D000E1F74195550B0E94A5280F9007FE0C940F
:1050E00099280895DF93CF931F930F93FF92EF9228
:1050F000DF927B018C01689406C0DA2EEF010E94DA
:105100008E27FE01E894A591259135914591559101
:10511000A6F3EF010E947729FE019701A801DA9416
:1051200069F7DF90EF90FF900F911F91CF91DF9182
:1051300008959B01AC0160E070E080E89FE30C946F
:1051400028260C942A270C94CC290E945A27D8F39D
:105150009923C9F3940F511DA3F39150504094F03B
:1051600059F0882332F0660F771F881F9150504006
:10517000C1F79E3F51052CF7880F911D9695879595
:1051800097F908955F3FACF0983E9CF0BB27869559
:1051900077956795B79508F4B1609395C1F7BB0F04
:1051A00058F711F460FFE8CF6F5F7F4F8F4F9F4F2D
:1051B000E3CF0C94752716F00C94CC290C9430276F
:1051C00068940C942A270E945A27A8F39923C1F3C4
:1051D000AEF3DF93CF931F930F93FF92C92FDD2779
:1051E00088232AF02197660F771F881FDAF720E0BF
:1051F00030E040E85FEB9FE3883920F0803E38F0F4
:1052000021968F770E946029E4EDF0E004C00E94AF
:105210006029E1E0F1E00E9472288B01BE01EC01FF
:10522000FB2E6F5771097595771F880B990B0E949C
:10523000CB2628E132E741E35FE30E948E27AF2DC2
:105240009801AE01FF900F911F91CF91DF910E94C5
:1052500077290C944127FA01DC01AA0FBB1F9B019F
:10526000AC01BF5728F4222733274427507820C0A9
:10527000B75190F4AB2F0024469537952795011C24
:10528000A395D2F3002071F0220F331F441FB39572
:10529000DAF30ED00C945F2961307105A0E88A071B
:1052A000B94630F49B01AC016627772788279078B0
:1052B000309621F0208331834283538308955058E0
:1052C000BB27AA270E9477290C9441270E943327E5
:1052D00038F00E943A2720F039F49F3F19F426F461
:1052E0000C9430270EF4E095E7FB0C942A27E92F65
:1052F0000E94522758F3BA1762077307840795076D
:1053000020F079F4A6F50C9474270EF4E0950B2E9A
:10531000BA2FA02D0B01B90190010C01CA01A00107
:105320001124FF27591B99F0593F50F4503E68F162
:105330001A16F040A22F232F342F4427585FF3CFA3
:10534000469537952795A795F0405395C9F77EF474
:105350001F16BA0B620B730B840BBAF09150A1F0BD
:10536000FF0FBB1F661F771F881FC2F70EC0BA0F43
:10537000621F731F841F48F4879577956795B795CB
:10538000F7959E3F08F0B0CF9395880F08F09927C6
:10539000EE0F9795879508959F3F31F0915020F437
:1053A000879577956795B795880F911D9695879501
:1053B00097F90895F894FFCF260926092F092F0998
:1053C00031092F092F092F092609260936092F0926
:1053D0002F0936099C10C4101711C4101711F710AB
:1053E0002F1117112C123912DC18DC184F194F1914
:1053F000A919131913191319C319991AAA1AAA1A50
:1054000001220522742285229022AF22822282224A
:10541000822282228222B222B522B922DE22FF22F9
:06542000022304232823EF
:1054260052D0A444000000410000DC4400000041CA
:1054360052D024450000404100005C440000004179
:105446000000DC44000000410000DC440000004194
:1054560000005C44000000410100005C44000000C4
:105466004148F17644000000415C978A4400000000
:10547600411FD592440000004152D0A444000000D0
:10548600415CFFB844000000410AA7CF4400000079
:10549600410000DC44000000410000DC4400000044
:1054A600410AA7CF44000000415CFFB84400000059
:1054B6004152D0A444000000411FD5924400000090
:1054C600415C978A440000004148F17644000000A0
:1054D6004100005C440000004100005C4400000004
:1054E6004148F17644000000415C978A4400000080
:1054F600411FD592440000004152D0A44400000050
:10550600415CFFB844000000410AA7CF44000000F8
:10551600410000DC440000004100005C44000080C3
:10552600415C978A440000804152D0A44400008028
:10553600410000DC44000080410000DC4400000023
:10554600410AA7CF44000000415CFFB844000000B8
:105556004152D0A444000000411FD59244000000EF
:10556600415C978A440000004148F17644000000FF
:105576004100005C440000004100005C44000080E3
:10558600411F1569440000804148F17644000080BF
:105596004100D08244000080415C978A440000802C
:1055A60041A4D024440000804100005C44000080F7
:1055B600411FD59244000080415CFFC34400008037
:1055C6004100000000000000005CFF434400008032
:1055D600411FD59244000080410000DC4400008059
:1055E6004152D02445000080410000000000000028
:1055F6000000005C440000804148F17644000080D1
:10560600415C978A44000080411FD5924400008087
:105616004152D0A4440000804103640000005C4471
:105626000000004100005C440000004100005C44B2
:105636000000004100005C440000004148F176444F
:105646000000C04000005C440000C04048F17644C1
:105656000000C04000005C440000C04048F17644B1
:105666000000C04000005C440000C04048F17644A1
:105676000000C04000005C440000C04052D02445F9
:10568600000000410000DC440000004152D0A44468
:10569600000040413005AD0B2F05A90BA50B0100FD
:1056A60002040507090B0C0E1011131517181A1C06
:1056B6001D1F2123242628292B2D2F303234353740
:1056C600393B818283E200E900EA00B500B600B703
:1056D60000CD008301CC008A0192019401210223AE
:1056E6000224022502260227022A02B300B4006F12
:1056F600007000F0F1F4F5F634353667F7313233E1
:1057060092939594969740223222A40182015001E9
:0A5716002E0165047E049E04B70412
:00000001FF
