:100000000C9411060C9445320C9458060C94580626
:100010000C9458060C9458060C9458060C945806E8
:100020000C9458060C9458060C94E7280C94A328BA
:100030000C946A310C9458060C9458060C9458068B
:100040000C9458060C9458060C9458060C945806B8
:100050000C9458060C9446310C9458060C9458068F
:100060000C9458060C9458060C9458060C94580698
:100070000C9458060C9458060C9458060C94580688
:100080000C9458060C9458060C9458060C94580678
:100090000C9458060C9458060C9458060C94580668
:1000A0000C9458060C9458060C9458060631FF0917
:1000B00074A1010975150026FF00952075088102BD
:1000C0000976150026FF00952075089102C00501EC
:1000D0000902A10185020901A100050919012905EB
:1000E00015002501950575018102950175038101B2
:1000F0000501093009311581257F950275088106B2
:1001000009381581257F950175088106050C0A3887
:10011000021581257F950175088106C0C00501097A
:1001200080A101850319012AB700150126B70095A2
:100130000175108100C0050C0901A1018504190198
:100140002AA002150126A002950175108100C006A3
:1001500060FF0961A1010962150026FF0095207565
:100160000881020963150026FF0095207508910299
:10017000C005010906A101050719E029E7150025B9
:10018000019508750181029501750881010507191E
:100190000029FF150026FF00950675088100050857
:1001A00019012905950575019102950175039101C4
:1001B000C00001010101010101010102020202026C
:1001C00002020202030303030303030304040404FF
:1001D00004040405050505050606060606070707C7
:1001E000070708080808090909090A0A0A0B0B0B7E
:1001F0000C0C0C0D0D0D0E0E0E0F0F0F101011111B
:10020000111212131314141515161617171818199E
:10021000191A1A1B1B1C1D1D1E1E1F202021222205
:10022000232424252626272829292A2B2C2D2D2E48
:100230002F30313232333435363738393A3B3C3D62
:100240003E3F404142434445464748494A4C4D4E53
:100250004F50515354555658595A5B5D5E5F616219
:1002600064656668696B6C6D6F7072737577787AA8
:100270007B7D7E8082838587888A8C8E8F91939503
:1002800096989A9C9EA0A2A3A5A7A9ABADAFB1B327
:10029000B5B7BABCBEC0C2C4C6C9CBCDCFD1D4D607
:1002A000D8DBDDDFE2E4E7E9EBEEF0F3F5F8FAFDA9
:1002B000FF7267626C69676874206D6F6465205BAC
:1002C0004E4F454550524F4D5D3A2025750A0072FC
:1002D00067626C69676874206D6F6465205B454573
:1002E00050524F4D5D3A2025750A007267626C6965
:1002F00067687420656E61626C65205B454550528D
:100300004F4D5D3A207267626C696768745F636F16
:100310006E6669672E656E61626C65203D2025758D
:100320000A007267626C696768742064697361624D
:100330006C65205B4E4F454550524F4D5D3A2072E3
:1003400067626C696768745F636F6E6669672E6564
:100350006E61626C65203D2025750A007267626CD3
:10036000696768742073657420687376205B4E4FEC
:10037000454550524F4D5D3A2025752C25752C254D
:10038000750A007267626C6967687420736574200F
:10039000687376205B454550524F4D5D3A20257578
:1003A0002C25752C25750A007267626C6967687464
:1003B000207261696E626F7720736574206873764E
:1003C0003A2025642C25642C25642C25750A00FF11
:1003D000AA7F55407267626C696768742074696DA2
:1003E000657220656E61626C65642E0A00726762D8
:1003F0006C696768742074696D65722064697361E3
:10040000626C652E0A002223252628292A2C2D2FEE
:100410003032333536383A3B3D3E4042434547491A
:100420004A4C4E5051535557595A5C5E606264664F
:1004300068696B6D6F71737577797B7D7F8183855B
:1004400087898A8C8E90929496989A9C9E9FA1A35D
:10045000A5A7A8AAACAEAFB1B3B4B6B8B9BBBCBE81
:10046000BFC1C2C3C5C6C7C9CACBCCCDCED0D1D2FD
:10047000D2D3D4D5D6D7D7D8D9D9DADADBDBDBDCFF
:10048000DCDCDCDCDDDDDDDDDCDCDCDCDCDBDBDBAB
:10049000DADAD9D9D8D7D7D6D5D4D3D2D2D1D0CE0B
:1004A000CDCCCBCAC9C7C6C5C3C2C1BFBEBCBBB910
:1004B000B8B6B4B3B1AFAEACAAA8A7A5A3A19F9E8E
:1004C0009C9A98969492908E8C8A89878583817F56
:1004D0007D7B79777573716F6D6B69686664626037
:1004E0005E5C5A5957555351504E4C4A4947454303
:1004F00042403E3D3B3A3836353332302F2D2C2AA0
:100500002928262523226261636B6C696768742041
:10051000656E61626C650A0035001E001F002000D8
:10052000210022002B0014001A00080015001700FB
:10053000290004001600070009000A00E1001D0060
:100540001B000600190005000351E000E200E30073
:10055000105F2C00230024002500260027002A001D
:100560001C0018000C00120013004C000B000D00C2
:100570000E000F0033003400110010003600370069
:10058000380028002C00115F5000510052004F002D
:1005900035021E021F0220022102220235021E0223
:1005A0001F022002210222024C003A003B003C00C4
:1005B0003D003E00C05C400041004200430044005A
:1005C00001000100010001000100010023022402DA
:1005D0002502260227022A002302240225022602DF
:1005E00027024C003F002D022E022F023002310262
:1005F0004500320264024A004D0001000100010082
:10060000AB00AA00A900AE0035001E001F002000AC
:100610002100220035001E001F00200021002200C2
:100620004C003A003B003C003D003E000100400011
:1006300041004200430044000100010001000100AC
:1006400001000100230024002500260027002A00C5
:10065000230024002500260027004C003F002D0029
:100660002E002F00300031004500320064004B00A6
:100670004E00010001000100AB00AA00A900AE007D
:100680000100005C015CC25CC35CC55C0100010050
:100690000100010001000100010001000100010052
:1006A0000100010001000100010001000100010042
:1006B000010001000100010001000100C65CC75CEF
:1006C000C85CC95CCA5C01000100010001000100B6
:1006D0000100010001000100010001000100010012
:1006E0000100010001000100010001000100010002
:1006F00001000100010001000000000000000000F6
:100700000000000000000000000000007E0F00D488
:10071000FFFFFFC70000007800000000000000009D
:100720002A2B28000000000000000000000000004C
:1007300000000029000000002C1E34202122243457
:100740002627252E362D3738271E1F202122232429
:1007500025263333362E37381F0405060708090AC5
:100760000B0C0D0E0F101112131415161718191A61
:100770001B1C1D2F3130232D350405060708090ADF
:100780000B0C0D0E0F101112131415161718191A41
:100790001B1C1D2F3130354C6261636B6C696768BF
:1007A000742064656372656173653A2025750A007B
:1007B0006261636B6C6967687420696E63726561FE
:1007C00073653A2025750A006261636B6C6967681E
:1007D000742064697361626C650A006261636B6CAA
:1007E0006967687420746F67676C653A2025750ABD
:1007F000006261636B6C6967687420737465703A3A
:100800002025750A007267626C69676874206469E4
:100810007361626C65205B454550524F4D5D3A20D7
:100820007267626C696768745F636F6E6669672E72
:10083000656E61626C65203D2025750A00726762F5
:100840006C6967687420746F67676C65205B4545E9
:1008500050524F4D5D3A207267626C696768745FF1
:10086000636F6E6669672E656E61626C65203D2000
:1008700025750A0044454255473A20646973616210
:100880006C65642E0A0044454255473A20656E6106
:10089000626C65642E0A000A002530325820006B15
:1008A0006579626F6172645F7265706F72743A200D
:1008B00000290A002575002F002575005D280025F8
:1008C00064002000256400200025640020002564C9
:1008D000007C0025303258006D6F7573656B65794B
:1008E000205B62746E7C782079207620685D2872A7
:1008F00065702F61636C293A205B007267626C69D6
:100900006768745F636F6E6669672E737065656490
:10091000203D2025640A007267626C696768745F15
:10092000636F6E6669672E76616C203D2025640AD0
:10093000007267626C696768745F636F6E6669678F
:100940002E736174203D2025640A007267626C6911
:100950006768745F636F6E6669672E687565203DB2
:100960002025640A007267686C696768745F636F4A
:100970006E6669672E6D6F6465203D2025640A00F0
:100980007267626C696768745F636F6E6669672E11
:10099000656E61626C65203D2025640A00726762A5
:1009A0006C696768745F636F6E6669672045455060
:1009B000524F4D3A0A007267626C696768745F69EA
:1009C0006E6974207267626C696768745F636F6ECA
:1009D0006669672E6D6F6465203D20302E2057724A
:1009E0006974652064656661756C742076616C75E8
:1009F000657320746F20454550524F4D2E0A00728A
:100A000067626C696768745F696E697420656563A5
:100A10006F6E666967206973206E6F7420656E6102
:100A2000626C65642E0A007267626C696768745F45
:100A3000696E6974207374617274210A007267624E
:100A40006C696768745F696E69742063616C6C655A
:100A5000642E0A000A0025303862003A2000253052
:100A60003258000A722F6320303132333435363732
:100A70000A007267626C6967687420616E696D61F3
:100A800074696F6E207469636B207265706F727425
:100A900020746F20736C6176650A0032190A0004B5
:100AA0007F3F1F643214643214783C1E1E140A0502
:100AB0000A0025303258006B6579626F6172645F9D
:100AC0007365745F6C65643A20007267626C696775
:100AD000687420656E61626C65205B4E4F454550C1
:100AE000524F4D5D3A207267626C696768745F634C
:100AF0006F6E6669672E656E61626C65203D2025AC
:100B0000750A007267626C69676874207365742087
:100B10007370656564205B4E4F454550524F4D5D87
:100B20003A2025750A005B735D004B6579626F6141
:100B300072642073746172742E0A005B435D005B03
:100B4000445D005B535D005B575D005B525D0009D7
:100B5000027B00040100A0FA090400000103010166
:100B6000000921110100012240000705810308004E
:100B70000A0904010002030000000921110100011B
:100B8000222200070582032000010705030320003D
:100B90000109040200010300000009211101000104
:100BA0002281000705840320000A090403000203D0
:100BB0000000000921110100012222000705850320
:100BC00020000107050503200001120110010000AB
:100BD000000810CB5631000301020301040330006A
:100BE00000002A0354006800650020004E007900D0
:100BF0007100750069007300740020004B006500EF
:100C0000790062006F0061007200640000000E0352
:100C10004B0065006500620069006F00000004037E
:100C2000090411241FBECFEFDAE0DEBFCDBF04B64A
:100C300003FE27C08091130390911403A091150324
:100C4000B09116038730904BA740B04BD1F410926F
:100C5000130310921403109215031092160314BE7E
:100C600084B7877F84BF0FB6F894A8958091600001
:100C7000886180936000109260000FBEE0E0F8E3AE
:100C8000099523E0A4EBB1E001C01D92A331B207A6
:100C9000E1F711E0A0E0B1E0E2E4FAE602C005907D
:100CA0000D92A43BB107D9F70E941A2A0C94D434B0
:100CB0000C940000FF93EF93E091B401F091B50123
:100CC000309709F00995EF91FF910895FC01859106
:100CD000803011F0EFDFFBCF0895FF27E0E230E234
:100CE00047FF0CC0419597FF09C0EDE260957095F4
:100CF00080959095611D711D811D911D27FF02C07A
:100D0000219530E350E2AA27660F771F881F991FAD
:100D1000AA1FA41710F0A41B63955A95A9F7AA302F
:100D200008F0A95FA05DAF93F3956115710581058A
:100D3000910541F7ED3211F4EF93F395F21718F4A2
:100D40003F93F395FBCF8F91B5DFFA95E1F70895C7
:100D5000E991F9918591803021F0853219F0AADF6F
:100D6000F9CF089520E0E89455915532C1F35033FE
:100D700011F4689455915A3348F4505390F3220F6C
:100D8000022E220F220F200D250FF4CF0EF42195F5
:100D900089919991533619F3533729F1533559F104
:100DA000BC0188279927E8945C3621F489919991B0
:100DB00068945591543639F446EF7EF077FF0DC0B4
:100DC0008FEF9FEF0AC055374AE039F0583540E1C0
:100DD00021F0523642E009F00895FF93EF937DDF52
:100DE000EF91FF91B7CFFF93EF93FC01819180309A
:100DF000B9F360DFFBCFFF93EF9368DFF1CFDF93B1
:100E0000CF93CDB7DEB72596A3DFCF91DF910895BD
:100E1000E8EDF0E080818E7F80831092E2001092F6
:100E2000DA001092E100A0EEB0E08C9181608C932A
:100E300080818F77808319BCA7EDB0E08C918E7F85
:100E40008C9380818F7E80831092F502089520918B
:100E5000E4003091E50095E6A9012091EC00822F95
:100E6000817020FF06C08091E80080FF06C080E00E
:100E700008952091E80022FD1AC080910B03882379
:100E800089F0853089F08091EB0085FD0FC02091BD
:100E9000E4003091E50042175307F9F29150E1F672
:100EA00084E0089582E0089583E0089581E0089544
:100EB000EF92FF920F931F93CF937C018B010E94BF
:100EC0002707C82F811117C08091E80085FD0BC04E
:100ED0008091E8008E778093E8000E94270788239E
:100EE00099F3C82F08C0F70181917F018093F10029
:100EF0000150110949F78C2FCF911F910F91FF904D
:100F0000EF900895CF93FC0180910B03843001F59D
:100F1000C091E900CF702091EC00922F917020FDDC
:100F200090E8C92B82E08093E9008091E80080FF7F
:100F30000CC050E040E060E270E0CF010E94580732
:100F40008091E8008E778093E800CF70C093E9002D
:100F5000CF9108958091030387FF13C08091E8002B
:100F600082FF06C08091E8008B778093E80004C080
:100F700080910B038111F2CF089580910B03882398
:100F8000D9F38091E80080FFF8CF8091E8008E7758
:100F9000ECCF982F9093E900242F762F50E08917FB
:100FA00031F07091EC002091ED005091F00021FDA6
:100FB00007C09F5F973071F78093E90081E0089543
:100FC0003091EB003E7F3093EB003091ED003D7FA0
:100FD0003093ED003091EB0031603093EB00709373
:100FE000EC002093ED005093F0002091EE0027FDDF
:100FF000E0CF80E00895CF92DF92EF92FF920F93BF
:101000001F93CF93DF93C8EDD0E088818F7E8883D4
:10101000E7EDF0E080818160808384E082BF81E041
:101020008093F50288818E7F888302EE10E0F801BC
:1010300010821092DA0081EEC82ED12CF6011082B7
:1010400088818F77888388818068888388818F7D75
:10105000888319BC10920B031092020310920103B3
:101060001092000390EEE92EF12CF70180818B7F26
:10107000808388818160888342E060E080E00E9414
:10108000C907F60180818E7F8083F80180818160AD
:101090008083808188608083F70180818E7F808358
:1010A000888180618883DF91CF911F910F91FF909C
:1010B000EF90DF90CF900895FC018091090390910B
:1010C0000A0386179707A0F06115710529F490911E
:1010D000E8009E779093E80090E06115710551F467
:1010E000911108C08091E80082FF34C080E008952B
:1010F000BC01F2CF80910B038823C1F18530C1F18F
:101100008091E80083FD30C08091E80082FDEACF45
:101110008091E80080FFE1CF8091F3002091F20000
:10112000382F6115710519F02830310558F091E01C
:101130002830310509F090E02091E8002E772093C7
:10114000E800CBCF81918093F100615071092F5F4E
:101150003F4FE7CF80910B03882341F0853041F06A
:101160008091E80083FFBECF81E0089582E008957A
:1011700083E0089508958091F70208959091CF0239
:10118000803F59F48091D00287FF0DC01092D002A9
:1011900091110BC01092CA0208C0813F81F4809166
:1011A000D00218169CF3992381F08091D10290917E
:1011B000D202892B09F064C01092C7020895823FC1
:1011C00049F497FFF0CF1092CF028091D0028111A5
:1011D000ECCFE0CF833F19F41916ACF3E4CF2091A4
:1011E000D102893F29F41216F4F61092D102DBCF16
:1011F0008A3F19F427FFD7CFF8CF2091D2028B3F37
:1012000029F427FFD0CF1092D202CDCF8C3F19F412
:101210001216CCF3C8CF843F31F48091CE028E7F7A
:101220008093CE02C0CF853F21F48091CE028D7F86
:10123000F7CF863F21F48091CE028B7FF1CF873F9D
:1012400021F48091CE02877FEBCF883F21F48091FB
:10125000CE028F7EE5CF8D3F31F48091A7028E7F45
:101260008093A702A0CF8E3F21F48091A7028D7FAB
:10127000F7CF8F3F09F097CF8091A7028B7FF0CFF8
:1012800008958091A70280FD16C081FD16C082FDE1
:1012900016C08091C7028823A1F0883280F428E02C
:1012A000829FC001112468E270E00E949033862F73
:1012B000672B39F0089582E0089584E0089588E06E
:1012C000089581E008958091A70280FD14C081FDFA
:1012D00014C082FD16C08091CA02882381F0843137
:1012E00080F422E3829FC001112464E170E00E9437
:1012F0009033862F08958CE0089589E1089585E064
:10130000089582E30895803F31F40E946309819536
:101310008093D0020895813F19F40E946309F8CFA9
:10132000823F31F40E94630981958093CF02089532
:10133000833F19F40E946309F8CF893F29F40E9482
:1013400041098093D10208958A3F21F40E94410906
:101350008195F7CF8B3F31F40E94410981958093AD
:10136000D20208958C3F19F40E944109F8CF843FBE
:1013700031F48091CE0281608093CE020895853F42
:1013800021F48091CE028260F7CF863F21F48091D4
:10139000CE028460F1CF873F21F48091CE02886035
:1013A000EBCF883F21F48091CE028061E5CF8D3F65
:1013B00031F48091A70281608093A70208958E3F47
:1013C00021F48091A7028260F7CF8F3FB9F7809117
:1013D000A7028460F1CF9C014FB7F8948091EF028F
:1013E0009091F002A091F102B091F2024FBF821BE6
:1013F000930B08952FB7F8948091EF029091F0022B
:10140000A091F102B091F2022FBF0895829590E071
:101410009C01220F331F220F331F2C7C959587953B
:10142000959587958373282B30E0C901880F991F04
:101430008A7A359527952575822B08958091A20289
:1014400081111092A2020895E8EBF1E091918913C5
:1014500003C0DF0111971C9291E0EE3BF907B1F751
:101460000895A8EBB1E0EFEF90E02D91821751F0D5
:10147000EF3F19F4211101C0E92F9F5F9630A9F7C2
:10148000EF3F09F408950E2E000CFF0BEA54FE4FB7
:1014900082830895E92FEE0FE90FEE0F8E0F982F3C
:1014A000977086958695869525E0829FF001112498
:1014B000EA58FD4F50E040E080E0219130E0092EF5
:1014C00002C0369527950A94E2F721703327042E3F
:1014D00001C0220F0A94EAF7822B4F5F5F4F45301D
:1014E000510559F70895E92FEE0FE90FEE0F8E0F12
:1014F000982F977041E001C0440F9A95EAF78695BE
:101500008695869595E0899FF0011124EA58FD4F54
:1015100030E020E070E05191DF011197CB01022E05
:1015200002C0969587950A94E2F781708195852788
:10153000842385278C932F5F3F4F2530310559F742
:1015400008958091750290914402981301C0089506
:101550008F5F8770FACF20913A0230913B022817B3
:10156000390771F090933B0280933A02E091B80200
:10157000F091B902309721F00084F185E02D0994B3
:10158000089520913802309139022817390771F0F7
:101590009093390280933802E091B802F091B90239
:1015A000309721F00680F781E02D09940895E091AD
:1015B000B802F091B902309721F00190F081E02D4E
:1015C000099480E00895CF92DF92EF92FF928830E5
:1015D00030F5811125C0909180009F779093800015
:1015E0002D98282F30E0AFEFBFEF0E94C53427E0E1
:1015F00030E040E050E00E94A334C9012C3764E1A0
:101600003607A0F469E070E00E947C337093890093
:1016100060938800FF90EF90DF90CF90089587E06F
:1016200090918000906890938000DBCF2A50374DD6
:101630004F4F5F4F942F832F722F662725EF38E28D
:1016400041E050E00E94A33469017A01CA01B90166
:101650000E9452339B01AC01C701B6010E94523374
:10166000672F782F892F99276115710521E082074F
:10167000910561F66FEF7FEFC9CF282F220F220F60
:10168000220F9091DE029770922B9093DE02987F4A
:1016900021E009F420E09091DE0220FB90F9909384
:1016A000DE020C94E30AFA01811101C0FB010994E6
:1016B0008091E002982F9E7F29F481708260809350
:1016C000E00208958635E8F381708465F8CFAF9223
:1016D000BF92DF92EF92FF920F931F93CF93DF930E
:1016E000082F162FE901E42FF0E0EF54FE4F6111AF
:1016F00010C0E4915E2F4E2F4983E8835A83DF9117
:10170000CF911F910F91FF90EF90DF90BF90AF901E
:101710000895E62EF12C4491D42EE42FF0E026E03B
:10172000829FC00111242FEF30E0B9010E947C3369
:10173000802F90E0880F991F55E5569FD001579F45
:10174000B00D11248A1B9B0B982F990F890F5901FB
:10175000AE18BF08AE9ED001AF9EB00DBE9EB00DBC
:1017600011245B2F189F80011124012F112759018B
:10177000A01AB10AAE9E8001AF9E100DBE9E100D44
:1017800011245901A81AB108AE9CC001AF9C900D5C
:10179000BE9C900D1124892F9927281B390B2E9F51
:1017A000C0012F9F900D3E9F900D1124E92F6230B4
:1017B0007105A1F050F46115710509F49DCF6130F8
:1017C000710581F0EB2F512F97CF6430710569F0CF
:1017D00080F06630710509F48FCFF4CFE42F4B2FE2
:1017E000592F8ACFE42F412F87CFEB2F542F492F2A
:1017F00083CF4B2F5D2DE12F7FCF9091B50292FFCC
:1018000006C0282F28712830F9F4877F846093FF61
:1018100006C0282F28712831F1F4877E8461209139
:10182000B60220FF06C0382F38713830D9F4877FD0
:10183000816021FF06C0282F28712831D1F4877ECE
:10184000816194FD877E0895282F24712430F9F654
:101850008B7F8860DCCF282F2471243101F78B7EA9
:101860008861DDCF382F3171313019F78E7F886074
:10187000E0CF282F2171213121F78E7E8861E1CFC1
:101880009FB7F8941092F3029FBF90910B0394308E
:1018900009F048C02091E9002F703091EC00932F9F
:1018A000917030FD90E8922B25E02093E900209183
:1018B000EB0020FF34C02091EE0027FF30C02091C4
:1018C000A802222321F02091E80025FF28C01092D1
:1018D000A80226E03091E80035FF14C08093F100A3
:1018E0008091E80085FD27C08091E80080FFFCCF53
:1018F0008091E8008E778093E8009F709093E900D4
:1019000080E0089530910B03343049F43091EB00BE
:1019100035FD05C0215041F481E08093A8029F70FD
:101920009093E9008FEF0895EFE9FFE03197F1F729
:1019300000C00000CFCF8FB7F89421E02093F302CE
:101940008FBFDBCFCF93DF9300D00F92CDB7DEB741
:1019500090910B03943011F589837B836A83909374
:10196000E9008FEF9091E800815095FD06C095ED5C
:101970009A95F1F700008111F5CF8091E80085FF7D
:101980000DC050E040E063E070E0CE0101960E949F
:1019900058078091E8008E778093E8000F900F90B1
:1019A0000F90DF91CF910895BC0184E00C94A20CBC
:1019B000BC0183E00C94A20C9C0184E08093E900BC
:1019C0009FEF8091E800915085FD06C085ED8A95D6
:1019D000F1F700009111F5CF8091E80085FF0CC070
:1019E00050E040E066E070E0C9010E945807809135
:1019F000E8008E778093E8000895CF93DF93EC01A1
:101A000081E08093E9008FEF9091E800815095FD8F
:101A100006C095ED9A95F1F700008111F5CF809100
:101A2000E80085FF14C050E040E068E070E0CE01BF
:101A30000E9458078091E8008E778093E80088E044
:101A4000FE01A8EFB2E001900D928A95E1F7DF91D7
:101A5000CF91089581E08093E00080E28093D800E8
:101A60001092C9008FE19EE40197F1F700C00000D9
:101A700087E090EBDC018093130390931403A09311
:101A80001503B093160388E19CE00FB6F894A8956F
:101A9000809360000FBE90936000FFCF60911301B0
:101AA0008091E00280FF20C08091120143E0849F7A
:101AB000C00111248A529E4F249A25B12F7E35B140
:101AC00030615FB7F894FC01649FE00DF11D1124B3
:101AD000BF0168177907D1F45FBF8FE594E00197E4
:101AE000F1F700C000000895809114019091150154
:101AF00023E0829FF0011124EA52FE4F8917A0F6DD
:101B00001182108212828F5F3396F8CFFC014191CF
:101B1000CF01E8E035B9000000C047FF25B9440F08
:101B2000000000C000C000C025B900C0EA9591F7D0
:101B3000D0CFEF92FF921F93CF93DF93EC0110E091
:101B4000EE24EA94F12C60911601161770F00E94B1
:101B50004E0D9A818C8190FF27C08F5F8C83DF911F
:101B6000CF911F91FF90EF90089520911401422F83
:101B7000410F5527551FCA019A01220F331F280F05
:101B8000391F2A523E4F70E0C7010E949033962FB2
:101B90008C814091E3026091E202199F800D112433
:101BA0000E94670B1F5FCFCF8150D8CF8F929F923B
:101BB000AF92BF92CF92DF92EF92FF920F931F935B
:101BC000CF93DF93EC018A81BB24BA9480FD02C0DD
:101BD000BB24B394A09016018C81811109C081E0CF
:101BE000B81228C08FEF8A0D8093D30181E08C83D7
:101BF000F12CE12C4CE0942EEA14F8F00E944E0DEA
:101C00008091D30191E0B9125FC0811158C08091D9
:101C1000160181508093D3011C82DF91CF911F91D7
:101C20000F91FF90EF90DF90CF90BF90AF909F907B
:101C30008F9008951092D301D9CF009114010E0D09
:101C40001F2D111DC801880F991F080F191F0A5257
:101C50001E4FF80111821082128234E0C32ED12C63
:101C6000812C8091D301880D8D302CF1692D0E943B
:101C70006E33892F082E000C990B8E159F0591F459
:101C80008091E3028C9DA0018D9D500D11245595EE
:101C900047955595479598016091E2028091E10240
:101CA0000E94670B8B0CF1E0CF1AD108D1F68FEFB1
:101CB000E81AF80AA1CF87FFDDCF8A0DDBCF81506C
:101CC0008093D301BC82A9CF90E001966091160168
:101CD00070E00E9490338093D3018C839ECFEF926B
:101CE000FF920F931F93CF93DF93EC018C818111AF
:101CF00009C081E08C831092D40192E0909310018E
:101D000080930F01809114019091150123E0829F2F
:101D1000F0011124EA52FE4F891768F110E003E048
:101D200060911601161768F10E944E0D80910F0107
:101D30002091D401280F2093D40190911001980F85
:101D400090931001191654F4022E000C330B40919D
:101D500016014150550B2417350734F081958093B7
:101D60000F01813009F41C82DF91CF911F910F91F7
:101D7000FF90EF9008951182108212828F5F339648
:101D8000CBCFE12EF12C70E0C7010E94903320915F
:101D90001401820F482F50E02091D401022E000C34
:101DA000330BE216F306BCF020911001022E000C5A
:101DB000330B2E153F057CF0809F900111242A5291
:101DC0003E4F4091E3026091E2028091E1020E9465
:101DD000670B1F5FA5CFFA01EE0FFF1FE40FF51F82
:101DE000EA52FE4F118210821282F3CF8F929F929D
:101DF000AF92BF92CF92DF92EF92FF920F931F9319
:101E0000CF93DF93EC014C81042F10E09801D801AF
:101E10000E94C5349B01AC010E9490344B015C01CF
:101E2000E0E2F0E0E01BF10BA5E5B0E0AC019B01C6
:101E30000E9490346B017C019F01DF010E94B1334D
:101E40009B01AC010E949B349B01AC01280D391D04
:101E50004A1D5B1DC701B6010E94A334F22E822FDA
:101E600090E039E23F1560F143E0249F9001112496
:101E700035952795122F109500E085E5E82EEF188F
:101E800080911601081758F10E944E0D9C8181E047
:101E9000992319F0903219F48FEF809311018091FA
:101EA0001101890F8C83DF91CF911F910F91FF90CA
:101EB000EF90DF90CF90BF90AF909F908F9008955C
:101EC00025E530E0B901681B790B9B01220F331F18
:101ED000260F371F37FFCCCF2F5F3F4FC9CF8E2D37
:101EE00001FD8F2D20911401622F600F7727771F3E
:101EF0009B01220F331F260F371F2A523E4F412FBF
:101F00006091E2020E94670B0F5FBACF0F931F939D
:101F1000CF93DF93EC0110E000E090911601901751
:101F2000110609F06CF40E944E0D8C8190E0019630
:101F3000817099278C83DF91CF911F910F91089524
:101F400020911401A801420F511D9A01220F331F45
:101F5000240F351F2A523E4F4C816091E20280913E
:101F6000E10296959017110651F04CF0442349F088
:101F70004091E3020E94670B0F5F1F4FCECF4423B7
:101F8000B9F340E0F7CF9091E00290FF14C0909138
:101F900014012091150133E0939FF0011124EA52BE
:101FA000FE4F921710F00C944E0D81836083428394
:101FB0009F5F3396F6CF08950F931F93CF93DF93D0
:101FC00000D00F92CDB7DEB78C018091D501811181
:101FD0000AC09E012F5F3F4F4FEF6FEF0E94670BCC
:101FE0008A818093D501F8016481613069F0809124
:101FF000D50140E0662361F040E0623011F4409189
:10200000D50180E060E004C06091D50140E080E04F
:102010000E94C30FF801848190E0019663E070E0B4
:102020000E94903384830F900F900F90DF91CF9197
:102030001F910F910895CF93DF9300D00F92CDB7EA
:10204000DEB79091E00290FF0AC09E012F5F3F4FE4
:102050000E94670B4B8169818A810E94C30F0F9098
:102060000F900F90DF91CF910895CF93DF93EC0104
:10207000EC81F0E0EA5FFB4F4491E0EEF2E0628138
:1020800081810E941B108C818F5F8C83DF91CF91A7
:102090000895CF93DF93EC01E0EEF2E0438162819B
:1020A0008C810E941B108C818F5F8C83DF91CF917C
:1020B00008958091D201811111C08091D800806172
:1020C0008093D8008AE18A95F1F700C09091D900F9
:1020D000892F817090FF82E08093D20181E09091FE
:1020E000D201913009F080E00895CF9384E090E030
:1020F0000E942934C82F81E290E00E942934982F51
:102100008C2FCF9108950F931F93CF93DF93C42FFC
:10211000D0E0CC0FDD1F2CE0629FC00DD11D11243B
:1021200038E7839FC00DD11D1124CE0186960E94F1
:102130002934082F10E0102F0027CE0187960E9427
:1021400029349801282BC901DF91CF911F910F915C
:102150000895462F843038F47A3028F4663018F425
:10216000672F0C94831090E080E00895CF93DF9365
:102170000E94A910EC0182389105A9F1D8F58133AC
:10218000910509F496C048F58932910509F48AC091
:102190008A9709F495C0C11521E5D20708F0BCC0A3
:1021A000C11530E5D30708F014C1C83ED10508F0C9
:1021B0009CC0C03ED10560F5C83AD10508F087C083
:1021C000C53AD10508F0FDC0C130D10509F120970D
:1021D000F9F0C430D105E0F440C08533910509F42D
:1021E0005AC0C997C1F68091B502837089F0C0EEDC
:1021F000D0E00EC0833E910599F170F4803E9105C8
:1022000001F1823E910539F68091B50282FD21C02F
:10221000CE01DF91CF910895863E910561F1873E11
:10222000910571F1843E910509F0B5CF8091B60218
:1022300081FFEECF8091B502C7EED0E084FD0DC0E6
:10224000E7CF8091B50280FD12C19091B60290FF58
:10225000DFCFC3EED0E084FFDBCFD0E0C0E0D8CF4B
:102260008091B50282FD06C19091B60290FDBFCF6C
:1022700084FFCECFF2CF8091B50283FDDDCFC8CFF2
:102280008091B50283FDF9C09091B60291FFF0CF25
:10229000C4EED0E0BDCF8091B50285FFB9CFC9E2D1
:1022A000D0E0B6CF8091B50285FFB2CFC5E3D0E0D4
:1022B000AFCF8091B50286FFABCFCAE2D0E0A8CF06
:1022C0008091B50286FFA4CFC1E3D0E0A1CFCF3B80
:1022D000D10518F6C85AD0E0CC0FDD1FCF59DE4F1C
:1022E0000990D881C02DD46493CFC11540E2D407A2
:1022F00058F4C11581E0D80708F08ACFC03FD10556
:1023000008F4ABCFD06584CFC11590E4D90708F4A9
:10231000A4CFDF70D06A7CCFC11525E5D20700F5C8
:10232000C11534E5D30708F08AC0C11543E5D407C9
:1023300008F071C0C11582E5D80708F467C0CE0166
:102340008370992721E030E002C0220F331F8A9565
:10235000E2F7C695C69580E2C89FE001112452C0FD
:10236000C11599E5D907A8F4C11528E5D20708F0E9
:102370006BC0C11536E5D30708F06FCF8C2F0E94D4
:10238000FD0BC82FD0E0DC2FCC27CC27DF71D0622B
:102390003FCFC1154AE5D40708F45BC0CE01905683
:1023A0008115904208F059CF8D2F8F710E94FD0B3F
:1023B00090E0982F882788279F719C012C2BE9019A
:1023C000E6CFC55AD0E0C25ADE4FC881D0E0D06413
:1023D0001FCFCE01E4E096958795EA95E1F78370EB
:1023E0002C2F26952695237040E2249F90011124DE
:1023F000382B8C2F8370C1E0D0E002C0CC0FDD1FE2
:102400008A95E2F7C22BD32BDC6802CFDC2FCC27D6
:10241000C16FD06AFDCECE018370992721E030E0F4
:1024200002C0220F331F8A95E2F7C695C69590E247
:10243000C99FE0011124C22BD32BDA68E9CEDC2F2F
:10244000CC27C46FD06AE4CEDC2FCC27C06FD06A13
:10245000DFCE8C2F8F700E94FD0B34E0D695C79590
:102460003A95E1F7CF709C2FEC01D069D1CEC9E34A
:10247000D0E0CECEC2EED0E0CBCEC6EED0E0C8CE1D
:10248000BF92CF92DF92EF92FF920F931F93CF9361
:10249000DF938C01C0900C03D0900D03E0900E03ED
:1024A000F0900F038091A3029091A402A091A50245
:1024B000B091A602C82AD92AEA2AFB2ACFE1D0E0A5
:1024C000BC2ED701C6010C2E04C0B695A7959795D2
:1024D00087950A94D2F780FD0EC0219788F7B12C1A
:1024E0008B2DDF91CF911F910F91FF90EF90DF9097
:1024F000CF90BF900895B8018C2F0E94B61001971D
:1025000061F3EECFCF93DF93EC010E944012BE0146
:10251000DF91CF910C94B6100E948212292F2F7058
:1025200092959F7092509E3078F4E92FF0E0EA5235
:10253000FB4C0C94A433803F19F020F4883E20F427
:1025400081E00895843FE1F380E00895883EC0F380
:10255000813FD1F7F5CF822F869586958695089590
:102560006F927F928F929F92AF92BF92CF92DF92A3
:10257000EF92FF920F931F93CF93DF9388E1C82EC2
:1025800085E0D82E9AEAE92EF12CE701C857D10947
:1025900036011BC0F50185909490692DC8010E94F9
:1025A0003D34682DC80101960E943D3482E0A80E9A
:1025B000B11C0E5F1F4FC017D10761F78CE0680E8A
:1025C000711C2C96CE15DF0529F08E010C501109D7
:1025D0005301E0CF7E0188E7E80EF11C88E7C80EC2
:1025E000D11C8AE8E81682E0F80679F6DF91CF91EF
:1025F0001F910F91FF90EF90DF90CF90BF90AF9021
:102600009F908F907F906F900895682F86E090E064
:102610000C943D340E943D0B8091DE020C94051316
:10262000CF93DF93C6E0D2E060E0CE010E943D345C
:102630002196C11584E0D807B9F7DF91CF910895AD
:10264000CF93C82F6FEF811160E282E290E00E9489
:102650003D346FEFC11160E183E290E00E943D34B0
:102660006FEFC11168E284E290E0CF910C943D34A9
:102670008091DF0283FF7EC088ED98E00E946606AD
:102680008091CE021F928F9383ED98E09F938F935A
:102690000E94FF0681ED98E00E9466068091CF02BD
:1026A000282F082E000C330B3F938F938EEC98E06D
:1026B0009F938F930E94FF068CEC98E00E94660621
:1026C0008091D002282F082E000C330B3F938F935C
:1026D00089EC98E09F938F930E94FF0687EC98E027
:1026E0000E9466068091D102282F082E000C330B21
:1026F0003F938F9384EC98E09F938F930E94FF0603
:1027000082EC98E00E9466068091D202282F082E63
:10271000000C330B3F938F938FEB98E09F938F9335
:102720000E94FF068CEB98E00E9466068091CA0228
:102730001F928F9389EB98E09F938F930E94FF06DF
:1027400087EB98E00E9466068091A7021F928F9304
:1027500084EB98E09F938F930E94FF0681EB98E0B3
:102760000E9466068DB79EB74C960FB6F8949EBF32
:102770000FBE8DBF0E94FA099C019091CF028091FB
:10278000D002982B21F03093CC022093CB02909171
:10279000D1028091D202982B21F03093C90220936C
:1027A000C802E091B802F091B902309749F082E096
:1027B0008093CD020480F581E02D8DEC92E00994A8
:1027C0000895EF92FF920F931F93CF93DF93809121
:1027D000A1029091A002892B90919F02892B809356
:1027E000B6019091A202992391F0892B8093B601B2
:1027F00020E088EB91E0FC013191CF0131112F5F96
:10280000F1E08E3B9F07B9F721110E941E0AE0916B
:10281000B802F091B9023097C9F10280F381E02D3E
:1028200086EB91E009958091DF0282FF2FC080FF47
:1028300004C08FE998E00E946606C6EBD1E08EEBFB
:10284000E82E81E0F82E09E918E08091DF0280FF90
:102850000BC088811F928F931F930F930E94FF06D6
:102860000F900F900F900F902196EC16FD0669F7D0
:102870008091DF0280FF0AC087E998E0DF91CF9165
:102880001F910F91FF90EF900C946606DF91CF910E
:102890001F910F91FF90EF9008951092A002109257
:1028A0009F020E94E11386E0EDECF2E0DF011D9251
:1028B0008A95E9F71092CA021092C7021092A702F5
:1028C0000E94381390E080E00E94C10A90E080E00E
:1028D0000C94AB0A60930C0370930D0380930E036A
:1028E00090930F030C944D140F931F9360910C035E
:1028F00070910D0380910E0390910F038B019C0149
:1029000006701127222733270630110521053105CE
:1029100029F468601F910F910C946A14677FFACFB5
:102920000F931F9341E050E060E070E004C0440F5B
:10293000551F661F771F8A95D2F7CB01BA016095A4
:1029400070958095909500910C0310910D03209146
:102950000E0330910F0360237123822393231F9171
:102960000F910C946A1490919E0280958923809314
:102970009E02282F277071F4282F082E000C330B8D
:102980009217130639F08595859585950E949014C8
:1029900010929E0208950F931F9341E050E060E073
:1029A00070E004C0440F551F661F771F8A95D2F749
:1029B00080910C0390910D03A0910E03B0910F0331
:1029C0008A019B01082B192B2A2B3B2BC901B8012B
:1029D0001F910F910C946A146093A3027093A40248
:1029E0008093A5029093A6020C944D14882341F085
:1029F00080959091A10289238093A1020C94E11308
:102A00000895882339F09091A102982B9093A10208
:102A10000C94E1130895882309F459C0823871F4A5
:102A20000E94D70A81FF53C089E30E94310A0E94A5
:102A3000E11389E30E94240A0C94E113833859F4CA
:102A40000E94D70A80FF43C083E50E94310A0E949A
:102A5000E11383E5EFCF843859F40E94D70A82FF4F
:102A600036C087E40E94310A0E94E11387E4E2CF76
:102A70009CEF980F913AF0F290E2980F983088F41A
:102A8000877021E030E0A90102C0440F551F8A95EC
:102A9000E2F7CA0180959091A10289238093A10257
:102AA000CBCF9BE5980F933020F490E080E00C941E
:102AB000C10A98E5980F973120F490E080E00C94DB
:102AC000AB0A803F20F00E94BE080C943813089592
:102AD000CF93C82F882309F490C08238C1F40E9494
:102AE000D70A81FD8AC089E30E94310A0E94E1135E
:102AF0002FEF81EE94E0215080409040E1F700C03C
:102B0000000089E30E94240ACF910C94E1138338DA
:102B1000A1F40E94D70A80FD70C083E50E94310AAB
:102B20000E94E1132FEF81EE94E02150804090400D
:102B3000E1F700C0000083E5E5CF8438A1F40E94EE
:102B4000D70A82FD5AC087E40E94310A0E94E1132D
:102B50002FEF81EE94E0215080409040E1F700C0DB
:102B6000000087E4CFCF8CEF8C0F813A68F4E8EB5C
:102B7000F1E08191C817D9F121E0EE3BF207C9F7E6
:102B80008C2F0E94310AC0CF80E28C0F883068F40D
:102B9000C77021E030E001C0220FCA95EAF78091AA
:102BA000A102822B8093A102AFCFEBE5EC0FE330C3
:102BB00040F4F0E0E25AFE4F808190E0CF910C9417
:102BC000C10AE8E5EC0FE73150F4F0E0EE0FFF1F2B
:102BD000EF59FE4F80819181CF910C94AB0AC03F99
:102BE00060F08C2F0E948309CF910C9438138C2FA6
:102BF0000E94240A0E94E113C3CFCF910895CF937E
:102C0000C82F0E946815C93349F42FEF87EE93E06F
:102C1000215080409040E1F700C000008C2FCF9100
:102C20000C940B150F931F93CF93DF93C42FD22FC8
:102C3000FC0182818823A1F040933C020E94FA09A2
:102C40009093370280933602C77081E001C0880FED
:102C5000CA95EAF7DF91CF911F910F910C9401155E
:102C600010913C02141335C08091360290913702C6
:102C70000E94EB09883C910560F5C0E2CD0F1D175D
:102C8000B9F080E2810F883040F4177081E001C014
:102C9000880F1A95EAF70E94F614C83048F481E0CC
:102CA0009D2F977001C0880F9A95EAF70E94011531
:102CB000802F0E94FF15C83098F4D77081E001C0C2
:102CC000880FDA95EAF7DF91CF911F910F910C945D
:102CD000F614C77081E001C0880FCA95EAF7F3CFF8
:102CE000DF91CF911F910F9108958091DE0280FDB9
:102CF0001FC081608093DE02813019F489E08093E7
:102D0000DE028091DE020E9405138091DF0280FFC7
:102D100008C086E095E09F938F930E94FF060F9076
:102D20000F908091DE028695869586950C94E30A35
:102D300008951092C5028091C60284608093C602F5
:102D40008091DF0280FF08C08DEE93E09F938F9308
:102D50000E94FF060F900F9008958091E0028E7FF1
:102D60008093E0028091DF0280FF0CC01F921F92CF
:102D700082E293E09F938F930E94FF060F900F9043
:102D80000F900F900E9499168091C60281608093E7
:102D9000C6022FEF80E792E0215080409040E1F79B
:102DA00000C000000C944E0D8F929F92AF92BF9284
:102DB000CF92DF92EF92FF920F931F93CF93DF9307
:102DC000FC01B280948081E0848300E015E05BE444
:102DD000A52E88248394EE24EA94F12C7BE4C72E5C
:102DE000D12C80911601081770F0DF91CF911F91BF
:102DF0000F91FF90EF90DF90CF90BF90AF909F909A
:102E00008F900C944E0DC02FD0E01C9FF0011D9FA1
:102E1000F00D1124E650FE4F91101CC01382128257
:102E200020911401CE01820F911D9C01220F331FAE
:102E3000280F391F2A523E4F1C9FF0011D9FF00D95
:102E40001124E650FE4F4281618180810E94670B10
:102E50000F5FC7CF2381222379F12150238334814F
:102E60008A2D821B311101C0822F1C9FF0011D9FF2
:102E7000F00D1124E650FE4F9091E302899FC001AE
:102E80001124B6010E947C336283211104C03323D4
:102E900011F01482A38222E02B1510F21C9FF00186
:102EA0001D9FF00D1124E650FE4F8091E1028083BA
:102EB0008091E2028183B4CF0E940C348230914031
:102EC0000CF0AECF82E08B1530F50E940C34B701C8
:102ED0000E9490331C9FF0011D9FF00D1124E650BD
:102EE000FE4F808322E02B15C8F40E940C34209101
:102EF000E2022695622F70E00E949033280F1C9FFB
:102F0000F0011D9FF00D1124E650FE4F2183128227
:102F1000A382848285CF8091E102DCCF2091E202FE
:102F2000EECF90E080E00E94373421E08C3E9E4F4F
:102F300009F020E0822F0895CF92DF92EF92FF9266
:102F40006B017C010E94580BB701A60188E090E05C
:102F5000FF90EF90DF90CF900C944F344F925F92A0
:102F60006F927F928F929F92AF92BF92CF92DF9299
:102F7000EF92FF920F931F93CF93DF9300D00F92A6
:102F8000CDB7DEB7182FF62E042F722E9091E002E7
:102F900090FF57C0E92FE695AE2FB0E0AD5CBE4F75
:102FA0008C918093C4029E7F923009F05EC09E0196
:102FB0002F5F3F4F812F0E94670B4B8169818A8170
:102FC0000E94C30F8091E102811308C08091E20248
:102FD0008F1104C08091E302801729F08091C6020E
:102FE00082608093C6021093E102F092E2020093A5
:102FF000E302772009F49CC06091E0027091E10245
:103000008091E2029091E3020E949C178091DF027E
:1030100080FF17C08091E3021F928F938091E2029C
:103020001F928F938091E1021F928F9383E893E028
:103030009F938F930E94FF060FB6F894DEBF0FBEDA
:10304000CDBF0F900F900F90DF91CF911F910F91F7
:10305000FF90EF90DF90CF90BF90AF909F908F90B8
:103060007F906F905F904F900895823019F4009197
:10307000E302A8CF863019F41091E102A3CF893082
:10308000D9F3893109F09ECFE9518E2F8170682ED6
:103090008E2F80958170E82EE695F0E0E153FC4F8D
:1030A000C590D490412CDD2498EAA92E93E0B92E46
:1030B00060911601461618F00E944E0D83CF842CA5
:1030C000912C8C9CC0018D9C900D9C9C900D11248A
:1030D00070E00E947C33512E611028C0560E809102
:1030E000DF0280FF11C0DF92CF921F92EF921F92FA
:1030F0005F921F924F92BF92AF920E94FF060FB64F
:10310000F894DEBF0FBECDBF20911401820E911C3A
:103110009401220F331F280D391D2A523E4F402F94
:103120006F2D852D0E94670B4394C2CF561AD7CFBF
:103130008091DF0280FF85CF1F920F931F92FF9235
:103140001F921F938CE593E073CFE0EEF2E0438192
:1031500021E1421B08F440E021E0628181810C946E
:10316000AE17E0EEF2E0438121E1420F08F44FEFA9
:1031700021E0628181810C94AE17E0EEF2E0628181
:1031800021E1621B08F460E021E0438181810C941D
:10319000AE17E0EEF2E0628121E1620F08F46FEF1A
:1031A00021E0438181810C94AE17E0EEF2E0818151
:1031B00021E04381628188500C94AE17E0EEF2E08A
:1031C000818121E043816281885F0C94AE178091F8
:1031D000E402882319F081508093E4026091E002B8
:1031E0007091E1028091E2029091E3020C949C17AD
:1031F0008091E402833018F48F5F8093E402609141
:10320000E0027091E1028091E2029091E3020C945D
:103210009C17E0EEF2E083E0808311828FEF8283DF
:1032200083831482A4ECB2E012968C91129783608F
:1032300012968C9360817181828193810C949C178A
:103240001092A102E8EBF1E086E0DF011D928A9581
:10325000E9F70C944D141F93CF93DF93CDB7DEB7EE
:10326000AA970FB6F894DEBF0FBECDBF83E093E000
:103270002091F100DC012D93CD01B3E08B309B0751
:10328000B9F780910403833009F471C0B8F4813038
:1032900009F448C0823009F4B2C08091E80083FF8D
:1032A0003AC180910303909104039A3008F033C12E
:1032B000E92FF0E0EC51FB4C0C94A4338A3009F474
:1032C0008DC08B3009F470C0893039F780910303C9
:1032D000813219F78091070390910803009711F04C
:1032E0000297D9F68091E800877F8093E80080916B
:1032F000E80082FF37C09091F3008091F2000297BE
:1033000029F48091F1008B7F813021F48091F100CC
:103310008093F7028091E8008B778093E8000E9409
:10332000AA07BBCF80910303813A09F0B6CF809101
:10333000E800877F8093E80080910703909108035D
:10334000892B61F468E088EF92E070E00E945C08ED
:103350008091E8008B778093E8009FCF60E090E059
:1033600080E0F3CF80910B038111C1CF96CF809184
:103370000303813A09F091CF8091070390910803EC
:10338000892B09F08ACF8091E800877F8093E8003D
:103390008091E80080FFFCCF809132018093F100A2
:1033A0008091E8008E77B9CF80910303813209F0D4
:1033B00074CF8091070390910803892B09F06DCF9A
:1033C0008091E800877F8093E8000E94AA0780919F
:1033D0000503809332010E9420195FCF809103037F
:1033E000813209F05ACF8091E800877F8093E8000E
:1033F0000E94AA07809106038093F6024ECF809127
:103400000303813A09F049CF8091E800877F8093D8
:10341000E8008091E80080FFFCCF8091F602BECFEB
:10342000803899F0823809F076C0809107038F7058
:10343000873008F070C08093E9008091EB0085FB35
:10344000882780F91092E90006C0809100039091CE
:103450000103911182609091E800977F9093E800BA
:103460008093F1001092F1008091E8008E77C5C141
:10347000882309F4B2C1823009F04DC08091050360
:103480008111B6C1809107038F702FEF280F26306E
:1034900008F041C08093E9002091EB0020FFA8C113
:1034A000933031F48091EB0080628093EB00A0C1F7
:1034B0009091EB0090619093EB0021E030E001C02F
:1034C000220F8A95EAF72093EA001092EA00809191
:1034D000EB008860EACF81111EC0109105031F77B1
:1034E0008091E3008078812B8093E3008091E80055
:1034F000877F8093E8000E94AA078091E80080FF00
:10350000FCCF8091E30080688093E30082E011119A
:1035100083E080930B038091E80083FF0AC08091D1
:10352000E800877F8093E8008091EB0080628093C1
:10353000EB00AA960FB6F894DEBF0FBECDBFDF91A9
:10354000CF911F9108958058823028F7209105036C
:10355000309106032C3DE3E03E07A1F583E08A832A
:103560008AE289834FB7F894DE01139620E03EE0AB
:1035700051E2E32FF0E050935700E49120FF03C0A5
:10358000E295EF703F5FEF708E2F90E0EA30C0F071
:10359000C7968D939D932F5F243159F74FBF80912C
:1035A000E800877F8093E8006AE270E0CE01019630
:1035B0000E945C088091E8008B778093E800ABCF95
:1035C000C096E7CF8091070390910803432F5527BA
:1035D0004330510509F44AC078F54130510509F4EA
:1035E00085C08BE790E0EFE4FBE04230510509F045
:1035F00092CF2091E800277F2093E80020910903D3
:1036000030910A038217930708F49C0140E02115CA
:10361000310509F070C041116EC08091E80082FD53
:10362000C9CF80910B03882329F2853019F280914C
:10363000E80083FFF2CFBECF4132510509F447C005
:103640004232510509F067CF8430910508F063CF0D
:10365000FC01EE0FFF1FED55FE4F0190F081E02DB4
:1036600081569E4FDC018C9190E01DC033272130A4
:103670003105E9F02115310579F022303105F9F0F5
:103680002330310509F047CFECEDFBE0E4918E2FBC
:1036900090E0ECEDFBE007C0EEE1FCE0E4918E2F62
:1036A00090E0EEE1FCE0009709F435CFA2CFEEE028
:1036B000FCE0E4918E2F90E0EEE0FCE0F4CFE2EE4F
:1036C000FBE0E4918E2F90E0E2EEFBE0ECCF843063
:1036D000910508F020CF880F991FFC01E555FE4F9A
:1036E0000190F081E02D89E090E083CF82E190E0CD
:1036F000EAECFBE07ECF80910B03882309F45ACFDC
:10370000853009F457CF8091E80083FD53CF809135
:10371000E80082FD82CF8091E80080FF78CF909111
:10372000F3008091F2002115310519F088309105E0
:1037300050F041E0089709F040E08091E8008E7772
:103740008093E80064CF44914093F100319621507A
:1037500031090196E8CF803809F0DDCE8091E8008C
:10376000877F8093E800809102038093F1007CCEF4
:103770008111D1CE10910503123008F0CCCE80918A
:10378000E800877F8093E800109302030E94AA0755
:10379000112311F084E005C08091E30087FDFACF8A
:1037A00081E080930B0342E061EC81E00E94C90755
:1037B00042E261EC84E00E94C90742E261EC82E0EF
:1037C0000E94C90742E260EC83E00E94C90742E21E
:1037D00061EC85E00E94C9079ECE8091050381308F
:1037E00009F099CE81E0933009F080E080930103E5
:1037F0001092E9008091E800877F8093E8000E94A2
:10380000AA0789CE6091E002669570E04BE050E037
:1038100084E091E00E941C34892B19F481E08093AC
:10382000C5020E94FA099093BF028093BE02809164
:10383000C60284608093C6028091DF0280FF08C0C8
:1038400084ED93E09F938F930E94FF060F900F905B
:1038500008959091E00290FF5AC09170811141C08B
:1038600092609093E0028091C60281608093C602CC
:103870006623F1F16091E0027091E1028091E20231
:103880009091E3020E949C178091DF0280FF0FC09D
:103890008091E00286951F928F938FEC92E09F9328
:1038A0008F930E94FF060F900F900F900F906091E2
:1038B000E002669570E04BE050E084E091E00E9409
:1038C0001C34892B09F10E94991681E08093C10272
:1038D00020E04091E3026091E2028091E1020C94C9
:1038E000AE178B3210F09465BCCF880F982BB9CFF0
:1038F0008091DF0280FFDBCF8091E00286951F92EE
:103900008F9381EB92E0CBCF0E94021CDECF089513
:103910008091E00281608093E0028091DF0280FF6D
:103920000DC01F9281E08F938BEE92E09F938F9357
:103930000E94FF060F900F900F900F908091E00271
:1039400061E086950C94291C6CEE7EEF90E080E09F
:103950000E945B3460E082E090E00E943D3460E0D1
:1039600083E090E00E943D341092A3021092A402E2
:103970001092A5021092A60260E084E090E00E94FE
:103980003D3460E081E290E00E943D3460E085E0FB
:1039900090E00E943D3460E086E090E00E943D347B
:1039A0006FEF87E090E00E943D3440E050E0BA01C4
:1039B00088E090E00E944F3460E08DE090E00E944B
:1039C0003D3440E050E0BA0188E190E00E944F347D
:1039D00060E087E190E00E943D3440E050E0BA01B1
:1039E0008CE190E00E944F3460E080E290E00E9421
:1039F0003D340E94751685E00E940A130E94881CBF
:103A000021E04FEF6FEF80E00E94AE1761E08BE0A6
:103A10000E94291C40E050E0BA018FE090E00E9433
:103A20004F3440E050E0BA0183E190E00C944F3411
:103A30000E949117811102C00E94A41C86E090E0B0
:103A40000E9429348093DE02803420F087708863DE
:103A50008093DE029091DE02892F817090FF04C076
:103A6000892F8695869586950C94E30A8091E002CD
:103A70008695815009F48AE261E00C94291C8091BA
:103A8000E00286958F5F8B3208F081E061E00C9454
:103A9000291C9091E00290FF07C09695981720F09E
:103AA000961710F40C943F1D61E00C94291C3F9272
:103AB0004F925F926F927F928F929F92AF92BF923E
:103AC000CF92DF92EF92FF920F931F93CF93DF93EA
:103AD00000D000D00F92CDB7DEB77C01FC0183810E
:103AE0009481892B31F08081918189238F3F09F066
:103AF00003C70F900F900F900F900F90DF91CF9111
:103B00001F910F91FF90EF90DF90CF90BF90AF90FB
:103B10009F908F907F906F905F904F903F9008950F
:103B20000E944012182F682F89819A810E94730A7F
:103B300069817A81812F0E94A9108C01F7019281FD
:103B4000992309F4B0C6980122513F45203131052F
:103B500008F02EC68FEF93E00E942934025156E000
:103B6000852E52E0952E882381F180919E028770E8
:103B700009F4BFCFF7018281882309F4BACF82E02C
:103B80000F900F900F900F900F90DF91CF911F919A
:103B90000F91FF90EF90DF90CF90BF90AF909F90EC
:103BA0008F907F906F905F904F903F900C94B314E4
:103BB0008114F4E09F06C9F2C4010E9429348111E6
:103BC00001C001502FEF821A920A0111F1CF1C821D
:103BD0001B82662463944AE0542E84010F5F1F4FBA
:103BE000C4010E94293489831A82882309F4BDCF35
:103BF0009FEF980F933008F58A83698232E0830E35
:103C0000911CC8010E9429348B83882309F4ADCF0D
:103C10008E010F5F1F4FF80120812223F1F2213026
:103C200009F043C091818281913049F40E5F1F4FAA
:103C30000E94FF150F5F1F4FEECF4801E9CF923072
:103C400029F40E5F1F4F0E946815F4CF933029F4BA
:103C50000E5F1F4F0E940B15EDCF943019F00F5FD0
:103C60001F4FE8CF0E5F1F4F30E020E0B8016F5FBD
:103C70007F4FF80141818053990B8A30910550F0B4
:103C800021503109B8F28FE99FE00197F1F700C0A8
:103C90000000F6CF529EF001539EF00D11249C01BE
:103CA0002E0F3F1F842F8B01E1CFE22FF0E0E85E63
:103CB000F84F7490822F86958695869590E0FC014A
:103CC000E85FF84FA4902770B12C022E02C0B59483
:103CD000A7940A94E2F7E1E0AE22BB24FC01E8508D
:103CE000F94FC490D12C02C0D594C7942A95E2F71D
:103CF000F1E0CF22DD24A114B10419F081EE0E947D
:103D00006815C114D10419F086EE0E946815872D3C
:103D10000E94FF15CD2819F086EE0E940B15AB28E6
:103D200009F488CF81EE96CF81E00E94CB140E94E7
:103D300074141BCF81E00E949014F9CF82E0F5CF7C
:103D400082E0F9CF0F3BFCE51F0709F48DC008F4B2
:103D500066C0003C3CE5130709F046C59091DE02C1
:103D6000892F8695869586958F5F8F71977088309D
:103D700008F0ABC0880F880F880F892B8093DE0274
:103D80008091DE02887F91E009F490E08091DE026C
:103D900090FB80F98093DE020E9405138091DF0280
:103DA00080FF37C08091DE028695869586951F92AA
:103DB0008F9381EF97E025C087E00E940A13D5CE4C
:103DC0008091DE02982F987F79F088508093DE02F0
:103DD000887F91E009F490E08091DE0290FB80F909
:103DE0008093DE020E9405138091DF0280FF11C0E4
:103DF0008091DE028695869586951F928F9388E93D
:103E000097E09F938F930E94FF060F900F900F9063
:103E10000F908091DE0286958695869553C080919D
:103E2000DE02982F969596959695973040F49F5F71
:103E3000990F990F990F8770892B8093DE028091DB
:103E4000DE0281608093DE020E9405138091DF0212
:103E500080FFDFCF8091DE028695869586951F9242
:103E60008F9380EB97E0CDCF1091DE02117080919F
:103E7000DF0280FF52C51F921F938BED97E09F9347
:103E80008F930E94FF060F900F900F900F901123B9
:103E900009F445C58091DE0280FF67CE8091DE0285
:103EA0008E7F8093DE020E9405138091DF0280FFE7
:103EB00008C088EC97E09F938F930E94FF060F90B5
:103EC0000F9080E00E94E30A50CE9093DE0258CF1C
:103ED00007E225EE45EE68ED7CE50AC506E221EE37
:103EE00040EE63EF7CE504C507E225EE44EE64EFA7
:103EF0007CE5FEC406E221EE42EE65EF7CE5F8C407
:103F000008E221E045EE69ED7CE5F2C48091B5025E
:103F1000806106303CE5130709F47FC008F484C0D3
:103F20008091B502806279C08091B5028D7F0C309E
:103F30009CE5190709F471C070F48091B5028C609A
:103F40000A30FCE51F0709F468C008F479C08091C5
:103F5000B5028E7F62C08091B502877F0E303CE54E
:103F6000130709F45AC008F471C08091B5028F7E1E
:103F700054C00B3F9CE5190709F45AC030F50331D2
:103F8000FCE51F0709F472C078F401313CE5130722
:103F900009F468C002311C4509F075C40E9420195B
:103FA0008091B5028F7739C005319CE5190709F476
:103FB00065C008F479C08091B60281600A3F1C4553
:103FC00009F061C48093B6025EC40F3F2CE512076E
:103FD00009F450C070F40D3F8CE51807D9F18091B9
:103FE000B6028E7F0E3F1C4568F38091B602836057
:103FF000E9CF0130EDE51E0709F45FC008F44AC0BF
:1040000060E002301D4509F03EC48EE090E00E9461
:104010003D3439C48091B50281608093B50233C4C8
:104020008091B5028460F9CF8091B5028860F5CFA8
:104030008091B6028260C6CF8091B5028064EDCFD8
:104040000E9420198091B5028068E7CF8091B50267
:104050008B7FE3CF8091B6028D7FB4CF8091B50284
:104060008F7DDBCF8091B5028F7BD7CF8091B5025A
:10407000837FD3CF8091B6028C7FA4CF8091B5028D
:1040800082FB992790F921E0922790FB82F990FB1F
:1040900083F9C3CF8091B602982F909591708E7F4F
:1040A000892B90FB81F98ECF0E9420199091B50247
:1040B000892F97FB87F98058B0CF61E0A6CF0631F2
:1040C0003CE5130709F02EC48091A1028A7A91E0A1
:1040D00009F490E090933D02811106C089E20E94AC
:1040E000310A0E94E11341CD85E3F9CF85E357C43E
:1040F0008091DF0280FF10C08091E0028095817086
:104100001F928F938DE398E09F938F930E94FF06F9
:104110000F900F900F900F908091E00280FF33C0BE
:104120008E7F8093E0026091E0027091E1028091C5
:10413000E2029091E3020E949C178091DF0280FFCF
:104140000FC08091E00281701F928F9385E098E00C
:104150009F938F930E94FF060F900F900F900F90E8
:104160000E9499168091C60281608093C6028FEFEB
:1041700090E7E2E081509040E040E1F700C00000AD
:104180000E944E0DF2CC0E94881CEFCC46E35DE10C
:104190006FE37DE10E94530BE8CC4FE35DE166E302
:1041A0007DE1F8CF45ED58E16EED78E1F3CF4EEDCE
:1041B00058E165ED78E1EECF4DEB58E169EC78E13F
:1041C000E9CF49EC58E16DEB78E1E4CF45EA58E1FD
:1041D00061EB78E1DFCF41EB58E165EA78E1DACFD6
:1041E00047EE58E168EF78E1D5CF48EF58E167EE48
:1041F00078E1D0CF61E081E00E94291CB6CC65E077
:1042000082E00E94491DB1CC68E086E0FACF6EE002
:1042100089E0F7CF64E18FE0F4CF67E185E1F1CF8A
:1042200061E088E1E9CF62E289E1EBCF61E083E21E
:10423000E3CF9091DF02892F8E7F90FF8160809382
:10424000DF0280FF05C086E898E00E9466068DCCFC
:1042500084E798E0FACF0E94A41C87CCF701008184
:104260001181992309F43EC0C8010E944012D82E42
:10427000682FC8010E94730AB8018D2D0E94B610E4
:10428000B82E192F082FF701958092943FE09322C2
:10429000A280A1101092A00280919E02877099F0D6
:1042A000AA2089F0812F807F803421F080E28B0D5D
:1042B000883048F082E00E94B31480919E0287709B
:1042C000332433948111312CD12ED2942FE0D22279
:1042D000FBE0FD1508F441C0ED2DF0E0E251FB4C90
:1042E0000C94A433C8010E944A0AD82EC5CF212FAE
:1042F0002F70C22E107F19F0C29490EFC922AA200D
:10430000C9F0CC2069F080E28B0D883010F00111EB
:104310000BC08091A102C82AC092A1020E94E113A1
:104320008B2D0E94681519C08091A002C82AC092E6
:10433000A002F4CF8B2D0E940B15CC2071F0C094FD
:1043400080E28B0D883010F001113CC08091A102F9
:10435000C822C092A1020E94E113ED2DE850FF0B8C
:10436000349710F40E94D70A332009F4C2CB80910D
:104370009E0280FDBECBF7011282859585958595BD
:104380000E94CB14C7010E94571D80919E02859503
:10439000859585950F900F900F900F900F90DF915E
:1043A000CF911F910F91FF90EF90DF90CF90BF9032
:1043B000AF909F908F907F906F905F904F903F90C5
:1043C0000C9490148091A002C822C092A002C3CF86
:1043D000312F3F70C32E107F103219F0C29480EF3E
:1043E000C822002369F0013061F1AA20B9F19920B7
:1043F00071F1F701858180FF93CF8F70858327C08E
:10440000AA2091F09091A2028C2D892B911003C0CB
:104410000E940115A2CFE1E09E12FACF981709F48D
:104420009CCF8093A20299CF911006C00E941E0AD1
:104430008C2D0E94F61491CFF1E09F1609F48DCFD8
:10444000F5CFAA2031F025E0291508F486CF8C2D70
:10445000DFCF34E0391508F480CFEACF992041F35B
:10446000093349F4FFEF27EE33E0F15020403040AC
:10447000E1F700C000008B2D0E940B156ECF812F3D
:1044800086958695837069F0813009F066CF8B2D13
:10449000912F9370A11002C090E080E00E94AB0ABF
:1044A0005CCF8B2D912F9370A11002C090E080E023
:1044B0000E94C10A52CF8B2DAA2029F00E948309A5
:1044C0000E9438134ACF0E94BE08FACF812F837012
:1044D00009F06CC0A11041CF8B2D82958695877015
:1044E000880F880F6B2D6F70462E512C712C612C0C
:1044F000082E04C0440C551C661C771C0A94D2F785
:1045000040E050E0BA01B4FE0FC04FE050E060E080
:1045100070E004C0440F551F661F771F8A95D2F7BD
:1045200040955095609570951695169513701230BC
:1045300019F1A8F58090A3029090A402A090A50282
:10454000B090A602113069F04429552966297729CF
:10455000CB01BA01682179218A219B210E94EC14A8
:10456000FCCE84289528A628B728CB01BA01682953
:1045700079298A299B29F2CF442955296629772947
:104580008090A3029090A402A090A502B090A602F1
:10459000CB01BA01682579258A259B25DFCFCB0180
:1045A000BA016429752986299729D8CF8695AA202A
:1045B00011F0812F8170882309F4CFCE8B2D829545
:1045C00086958770880F880F6B2D6F70462E512C43
:1045D000712C612C082E04C0440C551C661C771CE1
:1045E0000A94D2F740E050E0BA01B4FE0FC04FE0A9
:1045F00050E060E070E004C0440F551F661F771F55
:104600008A95D2F7409550956095709516951695B8
:104610001370123019F1A8F580900C0390900D03DF
:10462000A0900E03B0900F03113069F04429552972
:1046300066297729CB01BA01682179218A219B213A
:104640000E946A148ACE84289528A628B728CB0110
:10465000BA01682979298A299B29F2CF4429552949
:104660006629772980900C0390900D03A0900E038B
:10467000B0900F03CB01BA01682579258A259B25C7
:10468000DFCFCB01BA016429752986299729D8CFB4
:104690001F70AA2029F0812F0E94CB148B2DB8CE39
:1046A0008B2D0E94F614812F0E94901456CE8B2DD4
:1046B000023F09F44AC060F4003FF9F0013FE9F11C
:1046C000AA2009F465C091102BCE812F8F713AC0BA
:1046D000033F09F43FC0043F99F7AA2009F44DC0F5
:1046E0001F71812F0E94CB14E8E01E9FC00111248E
:1046F000836080939E02812F25C0AA20C9F084E0A8
:10470000891508F42ACE1F7161E070E080E090E026
:1047100004C0660F771F881F991F1A95D2F78090E3
:104720000C0390900D03A0900E03B0900F03A4CF44
:1047300095E0991508F411CEE6CF812F8F71AA204C
:1047400009F4B2CF0E94CB1408CE812F8F71AA201A
:10475000C9F3AACF60E070E0CB01AA2009F470CFC2
:104760001F7161E070E080E090E004C0660F771F89
:10477000881F991F1A95D2F763CF81E00E94B31466
:10478000F1E0F91508F0E9CD82E00E94B314E5CD1F
:10479000992059F0893309F06ECE2FEF37EE83E080
:1047A000215030408040E1F764CE812F8F717CCF63
:1047B0000031FFE51F0709F4B7CA01312FE51207E1
:1047C00009F4BCCA0D3B2CE5120709F4F9CA08F03C
:1047D000B9CA0B3B8CE5180709F4EECA80E00C3B24
:1047E000ECE51E0709F4E9CA033F3CE5130709F4A9
:1047F00075CB08F0D7C0083DECE51E0709F468CB7F
:10480000093DFCE51F0709F47BCB073D2CE51207AA
:1048100009F469C010923C0202308CE5180708F4D4
:104820004ECC0631ECE51E0738F098012A5F3C4576
:104830002930310508F043CC0E9475109093B602E0
:104840008093B5020031FCE51F0709F407CC08F09E
:1048500090CB08303CE5130709F4EECB08F064CBAD
:1048600004309CE5190709F4DBCB08F04FCB02308C
:10487000FCE51F0709F4CECB8091B50282600330BE
:104880001C4509F4CACB6091B5021091B60284E0D0
:1048900090E00E943D34612F81E290E00E943D341F
:1048A0000E94201962C900313FE5130709F442CA8A
:1048B00001318FE5180709F443CA033FECE51E07F1
:1048C00009F40CCB08F057C0083D2CE5120709F499
:1048D000FFCA093D3CE5130709F412CB073D8CE5FF
:1048E000180709F053C006E221EE41EE67ED7CE5C2
:1048F000C7010E94121639C985E0DE0111960190A8
:104900000D928A95E1F7F701228189819A8121111F
:1049100007C90E944A0A182F0BC91111BFCA0E9469
:10492000751623C901302CE5120709F482CC0E3D1F
:104930003CE5130709F48FCC01151C4509F08ECC1A
:104940000E942019FFEF24E33CE0F150204030406A
:10495000E1F700C000000E942A0D8091A10282723E
:10496000F801E25CFC45E431F10508F077CCE65053
:10497000FB4C0C94A433053FECE51E0709F4BACABE
:1049800008F4B2CA063F2CE51207C1F00631FCE577
:104990001F0719F780913D028111A8CB89E20E947F
:1049A000240A9FCB053F3CE5130709F4A3CA08F48A
:1049B0009BCA063FECE51E0709F02CCF07E225EE67
:1049C00046EE66EF7CE594CF1F93CF93DF93809103
:1049D0004302807FA9F480914002882389F080916E
:1049E0007502D091440260913E0270913F02A09105
:1049F0004102B0914202C62FC72316E0D81304C06B
:104A0000DF91CF911F91089590E0109711F0CF3F63
:104A100019F401968770F2CF189F9001199F300DFD
:104A20001124F901EB5BFD4F41814713F2CF408127
:104A30004613EFCF42814111ECCF438154814A1B91
:104A40005B0B483C510528F7809143028F708061D1
:104A500080934302F901E65BFD4F80818F70806196
:104A600080838EE392E00E94571DDF91CF911F91CA
:104A70000C94A10AAF92BF92CF92DF92EF92FF9275
:104A80000F931F93CF93DF93CDB7DEB761970FB628
:104A9000F894DEBF0FBECDBF8C0185E0F801DE01CA
:104AA0001D9601900D928A95E1F7F8018081918120
:104AB000E2802EE3A22E22E0B22E6091410270919C
:104AC00042026115710509F43EC130913E024091E8
:104AD0003F02232F24232F3F09F435C1C380D48004
:104AE000F0904002F601E61BF70BFF2009F4FBC033
:104AF00020914302522F507FE83CF10508F0BBC0E3
:104B0000511178C0FE2C491321C038131FC0E11089
:104B10001DC02F70206120934302C5010E94571DC4
:104B200080914302F80185838F2D61960FB6F8942A
:104B3000DEBF0FBECDBFDF91CF911F910F91FF90D0
:104B4000EF90DF90CF90BF90AF900895CD2829F0DF
:104B5000282F29232F3F09F014C120E0F22FF170F4
:104B6000DF2E20FF3DC0209175024091440256E0A7
:104B7000241315C08D879E878D859E850E94821285
:104B8000292F22952F702230F8F0243020F59F70C5
:104B9000F9F0F8019581907FD9F4D12C1FC030E055
:104BA000529FF001539FF00D1124EB5BFD4F61818B
:104BB000961306C06081861303C06281E61210C09E
:104BC0002F5F3F4F2770D4CF9F7011F0882329F3B8
:104BD000805E883010F3C8010E94571DFD2CA4CFC1
:104BE000EE2009F4A1CF80914302816080934302BB
:104BF000F12C9ACF491312C0381310C0E1100EC027
:104C0000F8012583C8010E94571D86E0F801AEE334
:104C1000B2E001900D928A95E1F786CF8D879E874D
:104C20008D859E850E948C12882309F1EE20F9F073
:104C300080914302803270F020913E0230913F0219
:104C400038872F831986DB86CA868C87CE01079624
:104C50000E94571D86E0F801AEE3B2E001900D928C
:104C60008A95E1F70E94E424FF24F3945DCFC80104
:104C70000E94571DF9CF51110AC08EE392E00E94A5
:104C8000571D86E0F50111928A95E9F7B1CF4913D6
:104C90000FC038130DC0E1100BC0F8012583C80107
:104CA0000E94571D86E0F50111928A95E9F73CCFE5
:104CB0008D879E878D859E850E948C128823B9F2F0
:104CC000EE20A9F280914302803220F220913E0230
:104CD00030913F023A8329831B82DD82CC828E830E
:104CE000CE010196B5CFE83CF105E0F6FE2CEE20B2
:104CF00009F4BDCF491316C0381314C08091430284
:104D000080FD83CF982F907F09F47FCFF8018583B2
:104D1000903F09F477CF982F907F905F8F70892B09
:104D2000858370CF8D879E878D859E850E948C128E
:104D3000811190CF80914302816080934302C8012A
:104D40000E94571DF1CEEE2009F491CF8D879E87EA
:104D50008D859E850E948C12F82E882309F487CFBA
:104D600086E0F801AEE3B2E001900D928A95E1F79A
:104D700080913E0290913F020E9482120E94E424A0
:104D8000D3CE21E02E25EACE1F93CF93DF93CDB76C
:104D9000DEB767970FB6F894DEBF0FBECDBF4B8B63
:104DA0005C8B6D8B7E8B8F8B1A8A198A85E0FE0156
:104DB0007396DE011D9601900D928A95E1F786E0CB
:104DC000FE013D96DE01179601900D928A95E1F75E
:104DD000CE0107960E943A25882389F016E080913B
:104DE000750290914402891349C067960FB6F894F2
:104DF000DEBF0FBECDBFDF91CF911F91089586E03A
:104E0000FE013796DE01119601900D928A95E1F729
:104E10008A859B85892B11F38F81988589238F3F04
:104E2000E9F22091440230E0C90101968770992788
:104E3000409175024817190671F40E9420191092CA
:104E400044021092750286E0EEE3F2E0DF011D926B
:104E50008A95E9F7C3CF96E0929FD001939FB00D5A
:104E60001124AB5BBD4FFE01319601900D929A95D6
:104E7000E1F7809344020E94A10AB0CF819FC00154
:104E800011248B5B9D4F0E943A25882309F4ADCFF6
:104E90008091750290E00196877099278093750242
:104EA0009ECF8F929F92AF92BF92CF92DF92EF925E
:104EB000FF920F931F93CF93DF936FE871E009EA9E
:104EC00012E04801D0E0CC24C394D12CDB018D91B9
:104ED000BD01E82FE295EF70F0E091A18F707601AF
:104EE00001C0EE0C8A95EAF7892F8E2981A382A151
:104EF000CE2DC0958C2382A3B0EABA95F1F789E94B
:104F0000A82E81E0B82E50E040E020E0D5013D9190
:104F10005D01832F82958F7090E0DC0190968C91DB
:104F200090E03F7002C0959587953A95E2F780FD35
:104F300045C08C2D042E01C0880F0A94EAF7282B57
:104F40004F5F5F4F4630510509F781A18C2381A344
:104F500082A1E82AE2A2F4018081281789F1208346
:104F600081E0D82BFFEF8F1A9F0A81E06439780720
:104F700009F0ACCFC091B402DD2321F181E0809330
:104F8000C1010E94FA099093C0018093BF018091F2
:104F9000BF019091C0010E94EB090697B8F0EC2F79
:104FA000F0E0EB51FD4FD8018D918D018193B2E07E
:104FB0000E3A1B07C1F71092C10108C080E0BFCFB5
:104FC00080E0CFCF8091C1018111E1CF0E945910C3
:104FD000882309F464C0C091B3028091C60288237B
:104FE000E9F085E0E0EEF2E0A2ECB1E001900D9294
:104FF0008A95E1F78091C4029091C502A091C60202
:105000008093C7019093C801A093C90181E090E00B
:105010000E94D432892B11F41092C60290E080E0F5
:105020000E94D4320097A9F08091D1018F5F8093C4
:10503000D101863048F58D2FDF91CF911F910F91CF
:10504000FF90EF90DF90CF90BF90AF909F908F90A8
:105050000895EC2FF0E0EB51FD4FDC01A453BE4F5F
:105060002C912193019685309105B9F78091DE024C
:1050700080FF08C08695869586958093CB01109217
:10508000D101D9CF80E0F9CFE091B302F0E0EB514C
:10509000FD4F10821182128213821482CCCFE091D4
:1050A000B4020E2F10E08091CA01883099F58091EA
:1050B000C90180FF0FC08091C20180FF3EC0809176
:1050C000E00281608093E0028091C20160E08695F9
:1050D0000E94291C8091C90181FF09C020E04091F4
:1050E000C5016091C4018091C3010E94AE178091F7
:1050F000C90182FF06C08091C801882309F10E947E
:10510000021C8091C90183FF03C081E08093C1022A
:105110001092CA01F801EB51FD4F90E080E021911F
:10512000DC01A453BE4F2C93019685309105B9F74D
:105130008091CB010E94E30A7ECF0E94AD16CACFB8
:105140000E949916DECF1F920F920FB60F92112474
:105150002F933F934F935F936F937F938F939F937F
:10516000AF93BF93CF93DF93EF93FF93D091E90079
:10517000DF708091EC00C82FC17080FDC0E81092F4
:10518000E9008091F000877F8093F00078940E947E
:105190002B191092E9008091F00088608093F00054
:1051A000CD2BCF70C093E900FF91EF91DF91CF91AC
:1051B000BF91AF919F918F917F916F915F914F912F
:1051C0003F912F910F900FBE0F901F9018951F9237
:1051D0000F920FB60F9211242F933F934F935F932B
:1051E0006F937F938F939F93AF93BF93EF93FF93AF
:1051F0008091E10082FF15C08091E20082FF11C022
:105200008091E1008B7F8093E1002091F4022F5F79
:10521000822F62E30E946233992309F4C4C0209371
:10522000F4028091DA0080FF28C08091D80080FFCE
:1052300024C08091DA008E7F8093DA008091D900BB
:1052400080FFE7C080E189BD82E189BD09B400FE2D
:10525000FDCF81E080930B038BE39BE00E94660609
:105260008091F502811109C00E9408070E94FB0786
:105270008091E20084608093E2008091E10080FFF1
:105280001BC08091E20080FF17C08091E2008E7FFA
:105290008093E2008091E20080618093E20080913F
:1052A000D80080628093D80019BC85E080930B03FE
:1052B00083E49BE00E9466068091E10084FF33C096
:1052C0008091E20084FF2FC080E189BD82E189BD29
:1052D00089B5982F917080FFFBCF8091D8008F7D8A
:1052E0008093D8008091E1008F7E8093E1008091CF
:1052F000E2008F7E8093E2008091E20081608093E3
:10530000E20080910203882309F48DC084E0809339
:105310000B0387E49BE00E9466060E9420190E940E
:10532000181D0E94D70A8091E10083FF2BC0809155
:10533000E20083FF27C08091E100877F8093E10036
:1053400082E080930B03109202038091E1008E7F34
:105350008093E1008091E2008E7F8093E200809153
:10536000E20080618093E20042E060E080E00E9421
:10537000C9078091F00088608093F0008BE49BE087
:105380000E946606FF91EF91BF91AF919F918F911F
:105390007F916F915F914F913F912F910F900FBE31
:1053A0000F901F9018951092F4028091F3028823B9
:1053B00009F437CF80910B038430C1F49091E90058
:1053C0009F702091EC00822F817020FD80E8892B56
:1053D00095E09093E9009091EB0090FF04C09091CC
:1053E000EE0097FD08C08F708093E9001092F302E1
:1053F00018CF1092F1009091E80095FDFACF9091AE
:10540000E80090FFF0CF9091E8009E779093E8003D
:10541000EACF19BC10920B038FE39BE00E94660653
:105420001092F5022ACF8091E30087FD93E09093DC
:105430000B036FCFCDB7DEB7AA970FB6F894DEBFD8
:105440000FBECDBF84B7877F84BF0FB6F894A895F1
:1054500080916000886180936000109260000FBEB0
:1054600080E890E00FB6F89480936100909361001B
:105470000FBE85B7806885BF85B7806885BF0E94ED
:1054800008070E94FB078091E20084608093E2009D
:1054900080E49CE09093B5018093B401789480916E
:1054A0000B038823A1F01091E9001F709091EC008C
:1054B000892F817090FD80E8182B1092E90080916F
:1054C000E80083FD0E942B191F701093E90082E011
:1054D00084BD93E095BD9AEF97BD80936E0055987B
:1054E0005D9889B185FB882780F980932701809199
:1054F0002701882309F478C01092120186E0809376
:1055000013010E945910882331F062E070E087E1B6
:1055100091E00E94F231809127018091270195E06E
:10552000811190E09093B40285E0891B8093B302CF
:10553000AFE8B1E044E951E061E070E08D91E82F1F
:10554000E295EF70F0E011A18F709B0101C0220F76
:105550008A95EAF7922F9095912391A382A1822BAD
:1055600082A34A175B0751F7A9E9B1E04FE951E07F
:1055700061E070E08D91E82FE295EF70F0E011A10D
:105580008F709B0101C0220F8A95EAF7922F9095A8
:10559000912391A382A1822B82A34A175B0751F723
:1055A000E9EAF2E083EB92E0A5EEB2E011921D92FF
:1055B0008E179F07D9F70E9451278FE39CE9019727
:1055C000F1F700C000000E9451278091E50280FFA2
:1055D0000FC080E00E9420136FEF7FEF90E080E02B
:1055E0000E945B340E942A0D86E08093120187CFCF
:1055F0000E949117811102C00E94A41C259A2D9827
:1056000082E88093800089E1809381008FEF9FEF93
:1056100090938700809386000E94181D0E94591065
:10562000811106C062E070E087E191E00E94FB31E9
:1056300082E290E00E942934803209F007C683E2BA
:1056400090E00E942934803109F000C684E290E0A5
:105650000E942934883209F0F9C50E9491178111FE
:1056600002C00E94A41C82E090E00E942934809332
:10567000DF020E9475109093B6028093B50283E01A
:1056800090E00E942934682F70E090E080E00E9452
:10569000EC140E94181D8091B7028111E7C080911F
:1056A000DF0280FF14C08DE39AE09F938F930E94E6
:1056B000FF068091DF020F900F9080FF08C087E205
:1056C0009AE09F938F930E94FF060F900F900E9485
:1056D0009117811110C08091DF0280FF08C08FEF09
:1056E00099E09F938F930E94FF060F900F900E9466
:1056F000A41C0E94091988E090E00E943134609354
:10570000E0027093E1028093E2029093E3028091C1
:10571000C60283608093C6026E7FD1F48091DF025F
:1057200080FF08C086EB99E09F938F930E94FF064D
:105730000F900F900E94091988E090E00E94313488
:105740006093E0027093E1028093E2029093E3029F
:105750000E94580B8091DF0280FF76C08DE999E0AE
:105760009F938F930E94FF068091DF020F900F900E
:1057700080FF6AC08091E00281701F928F9380E861
:1057800099E09F938F930E94FF068091DF020F9014
:105790000F900F900F9080FF57C08091E002869588
:1057A0001F928F9385E699E09F938F930E94FF0647
:1057B0008091DF020F900F900F900F9080FF44C0F8
:1057C0008091E1021F928F938BE499E09F938F93D6
:1057D0000E94FF068091DF020F900F900F900F90B4
:1057E00080FF32C08091E2021F928F9381E399E0A3
:1057F0009F938F930E94FF068091DF020F900F907E
:105800000F900F9080FF20C08091E3021F928F9332
:1058100087E199E09F938F930E94FF068091DF02BA
:105820000F900F900F900F9080FF0EC08091E402B8
:105830001F928F938BEF98E09F938F930E94FF06A8
:105840000F900F900F900F901092C5028091C6029A
:1058500084608093C6028091E00280FF04C060E013
:1058600086950E94291C81E08093B70288E291E02E
:105870009093B9028093B8028AE29BE00E94660688
:1058800056E5652E5AE0752E85EE92E06AE0562EBA
:10589000580E80910B03853009F4B6C10E94512740
:1058A0000E9459108111EEC18FEF8EA38FA318A60D
:1058B0000E94FA098160782F9AA789A74EA15FA15B
:1058C00068A58AA50E94C4268091C502882309F490
:1058D00077C08091C402E091E002E695E81BE09376
:1058E000C002823009F045C2F0E0E455F54FE49182
:1058F0000E2F10E095E3E92E90E1F92E8091C10280
:10590000882389F01092C1020E94FA09980120951B
:105910003095820F931F9093BF028093BE02109226
:10592000C3021092C2028091BE029091BF020E94F7
:10593000EB098017910708F443C08091BD028823CA
:1059400011F11092BD028091BB029091BC020E94A5
:10595000EB0980339547B8F00E94FA099093BC0296
:105960008093BB028091DF0280FF08C082E79AE04B
:105970009F938F930E94FF060F900F908091C60215
:1059800088608093C602C090C202D090C302E091AA
:10599000BE02F091BF020E0F1F1F1093BF020093B3
:1059A000BE028EEB92E0F70109958091C2029091C0
:1059B000C302892B29F4CD2819F081E08093BD0220
:1059C00086E0EDECF2E0DE01119601900D928A95F1
:1059D000E1F7F090CF02E090D0021091D102009157
:1059E000D2021092CF021092D0021092D1021092E5
:1059F000D2028F2D8E2909F448C08091CB0290915C
:105A0000CC020E94EB099C019091CA02992309F4EF
:105A100038C423333105C8F19F3F19F09F5F90933D
:105A2000CA02FF2059F00E9463099FEF1F140CF473
:105A300091E0899F802D11248093CF02EE2059F0B0
:105A40000E9463099FEF1E140CF491E0899F802D42
:105A500011248093D0023091CF023323B1F02091F2
:105A6000D002222391F045EB3403C0011124992385
:105A700009F4EBC19093CF0245EB2403900111246C
:105A8000332309F4E6C13093D002812F802B09F42F
:105A900048C08091C8029091C9020E94EB099C0104
:105AA0009091C702992309F4E7C325363105C8F15F
:105AB0009F3F19F09F5F9093C702112359F00E94F6
:105AC00041099FEF11160CF491E0899F802D11245C
:105AD0008093D102002359F00E9441099FEF1016D4
